{
	"transferUSDC.sol": {
		"USDCPayment": {
			"abi": [
				{
					"anonymous": false,
					"inputs": [
						{
							"indexed": true,
							"internalType": "address",
							"name": "recipient",
							"type": "address"
						},
						{
							"indexed": false,
							"internalType": "uint256",
							"name": "amount",
							"type": "uint256"
						}
					],
					"name": "PaymentSent",
					"type": "event"
				},
				{
					"inputs": [],
					"name": "USDC",
					"outputs": [
						{
							"internalType": "contract IERC20",
							"name": "",
							"type": "address"
						}
					],
					"stateMutability": "view",
					"type": "function"
				},
				{
					"inputs": [
						{
							"internalType": "address payable",
							"name": "recipient",
							"type": "address"
						},
						{
							"internalType": "uint256",
							"name": "amount",
							"type": "uint256"
						}
					],
					"name": "sendUSDC",
					"outputs": [],
					"stateMutability": "nonpayable",
					"type": "function"
				}
			],
			"devdoc": {
				"kind": "dev",
				"methods": {},
				"version": 1
			},
			"evm": {
				"assembly": "    /* \"transferUSDC.sol\":115:589  contract USDCPayment {... */\n  mstore(0x40, 0x80)\n  callvalue\n  dup1\n  iszero\n  tag_1\n  jumpi\n  0x00\n  dup1\n  revert\ntag_1:\n  pop\n  dataSize(sub_0)\n  dup1\n  dataOffset(sub_0)\n  0x00\n  codecopy\n  0x00\n  return\nstop\n\nsub_0: assembly {\n        /* \"transferUSDC.sol\":115:589  contract USDCPayment {... */\n      mstore(0x40, 0x80)\n      callvalue\n      dup1\n      iszero\n      tag_1\n      jumpi\n      0x00\n      dup1\n      revert\n    tag_1:\n      pop\n      jumpi(tag_2, lt(calldatasize, 0x04))\n      shr(0xe0, calldataload(0x00))\n      dup1\n      0x89a30271\n      eq\n      tag_3\n      jumpi\n      dup1\n      0xd79f5bad\n      eq\n      tag_4\n      jumpi\n    tag_2:\n      0x00\n      dup1\n      revert\n        /* \"transferUSDC.sol\":142:222  IERC20 public constant USDC = IERC20(0xA0b86991c6218b36c1d19D4a2e9Eb0cE3606eB48) */\n    tag_3:\n      tag_5\n      tag_6\n      jump\t// in\n    tag_5:\n      mload(0x40)\n      tag_7\n      swap2\n      swap1\n      tag_8\n      jump\t// in\n    tag_7:\n      mload(0x40)\n      dup1\n      swap2\n      sub\n      swap1\n      return\n        /* \"transferUSDC.sol\":327:587  function sendUSDC(address payable recipient, uint256 amount) external {... */\n    tag_4:\n      tag_9\n      0x04\n      dup1\n      calldatasize\n      sub\n      dup2\n      add\n      swap1\n      tag_10\n      swap2\n      swap1\n      tag_11\n      jump\t// in\n    tag_10:\n      tag_12\n      jump\t// in\n    tag_9:\n      stop\n        /* \"transferUSDC.sol\":142:222  IERC20 public constant USDC = IERC20(0xA0b86991c6218b36c1d19D4a2e9Eb0cE3606eB48) */\n    tag_6:\n        /* \"transferUSDC.sol\":179:221  0xA0b86991c6218b36c1d19D4a2e9Eb0cE3606eB48 */\n      0xa0b86991c6218b36c1d19d4a2e9eb0ce3606eb48\n        /* \"transferUSDC.sol\":142:222  IERC20 public constant USDC = IERC20(0xA0b86991c6218b36c1d19D4a2e9Eb0cE3606eB48) */\n      dup2\n      jump\t// out\n        /* \"transferUSDC.sol\":327:587  function sendUSDC(address payable recipient, uint256 amount) external {... */\n    tag_12:\n        /* \"transferUSDC.sol\":179:221  0xA0b86991c6218b36c1d19D4a2e9Eb0cE3606eB48 */\n      0xa0b86991c6218b36c1d19d4a2e9eb0ce3606eb48\n        /* \"transferUSDC.sol\":425:439  USDC.balanceOf */\n      0xffffffffffffffffffffffffffffffffffffffff\n      and\n      0x70a08231\n        /* \"transferUSDC.sol\":440:450  msg.sender */\n      caller\n        /* \"transferUSDC.sol\":425:451  USDC.balanceOf(msg.sender) */\n      mload(0x40)\n      dup3\n      0xffffffff\n      and\n      0xe0\n      shl\n      dup2\n      mstore\n      0x04\n      add\n      tag_14\n      swap2\n      swap1\n      tag_15\n      jump\t// in\n    tag_14:\n      0x20\n      mload(0x40)\n      dup1\n      dup4\n      sub\n      dup2\n      dup7\n      gas\n      staticcall\n      iszero\n      dup1\n      iszero\n      tag_17\n      jumpi\n      returndatasize\n      0x00\n      dup1\n      returndatacopy\n      revert(0x00, returndatasize)\n    tag_17:\n      pop\n      pop\n      pop\n      pop\n      mload(0x40)\n      returndatasize\n      not(0x1f)\n      0x1f\n      dup3\n      add\n      and\n      dup3\n      add\n      dup1\n      0x40\n      mstore\n      pop\n      dup2\n      add\n      swap1\n      tag_18\n      swap2\n      swap1\n      tag_19\n      jump\t// in\n    tag_18:\n        /* \"transferUSDC.sol\":415:421  amount */\n      dup2\n        /* \"transferUSDC.sol\":415:451  amount <= USDC.balanceOf(msg.sender) */\n      gt\n      iszero\n        /* \"transferUSDC.sol\":407:476  require(amount <= USDC.balanceOf(msg.sender), \"Insufficient balance\") */\n      tag_20\n      jumpi\n      mload(0x40)\n      0x08c379a000000000000000000000000000000000000000000000000000000000\n      dup2\n      mstore\n      0x04\n      add\n      tag_21\n      swap1\n      tag_22\n      jump\t// in\n    tag_21:\n      mload(0x40)\n      dup1\n      swap2\n      sub\n      swap1\n      revert\n    tag_20:\n        /* \"transferUSDC.sol\":179:221  0xA0b86991c6218b36c1d19D4a2e9Eb0cE3606eB48 */\n      0xa0b86991c6218b36c1d19d4a2e9eb0ce3606eb48\n        /* \"transferUSDC.sol\":487:504  USDC.transferFrom */\n      0xffffffffffffffffffffffffffffffffffffffff\n      and\n      0x23b872dd\n        /* \"transferUSDC.sol\":505:515  msg.sender */\n      caller\n        /* \"transferUSDC.sol\":517:526  recipient */\n      dup5\n        /* \"transferUSDC.sol\":528:534  amount */\n      dup5\n        /* \"transferUSDC.sol\":487:535  USDC.transferFrom(msg.sender, recipient, amount) */\n      mload(0x40)\n      dup5\n      0xffffffff\n      and\n      0xe0\n      shl\n      dup2\n      mstore\n      0x04\n      add\n      tag_23\n      swap4\n      swap3\n      swap2\n      swap1\n      tag_24\n      jump\t// in\n    tag_23:\n      0x20\n      mload(0x40)\n      dup1\n      dup4\n      sub\n      dup2\n      0x00\n      dup8\n      gas\n      call\n      iszero\n      dup1\n      iszero\n      tag_26\n      jumpi\n      returndatasize\n      0x00\n      dup1\n      returndatacopy\n      revert(0x00, returndatasize)\n    tag_26:\n      pop\n      pop\n      pop\n      pop\n      mload(0x40)\n      returndatasize\n      not(0x1f)\n      0x1f\n      dup3\n      add\n      and\n      dup3\n      add\n      dup1\n      0x40\n      mstore\n      pop\n      dup2\n      add\n      swap1\n      tag_27\n      swap2\n      swap1\n      tag_28\n      jump\t// in\n    tag_27:\n      pop\n        /* \"transferUSDC.sol\":562:571  recipient */\n      dup2\n        /* \"transferUSDC.sol\":550:580  PaymentSent(recipient, amount) */\n      0xffffffffffffffffffffffffffffffffffffffff\n      and\n      0x47db2abce6d5fbcd80ffd9b4ba74dcde804a746ef732bc7f8a70fabfc912c590\n        /* \"transferUSDC.sol\":573:579  amount */\n      dup3\n        /* \"transferUSDC.sol\":550:580  PaymentSent(recipient, amount) */\n      mload(0x40)\n      tag_29\n      swap2\n      swap1\n      tag_30\n      jump\t// in\n    tag_29:\n      mload(0x40)\n      dup1\n      swap2\n      sub\n      swap1\n      log2\n        /* \"transferUSDC.sol\":327:587  function sendUSDC(address payable recipient, uint256 amount) external {... */\n      pop\n      pop\n      jump\t// out\n        /* \"#utility.yul\":7:133   */\n    tag_31:\n        /* \"#utility.yul\":44:51   */\n      0x00\n        /* \"#utility.yul\":84:126   */\n      0xffffffffffffffffffffffffffffffffffffffff\n        /* \"#utility.yul\":77:82   */\n      dup3\n        /* \"#utility.yul\":73:127   */\n      and\n        /* \"#utility.yul\":62:127   */\n      swap1\n      pop\n        /* \"#utility.yul\":7:133   */\n      swap2\n      swap1\n      pop\n      jump\t// out\n        /* \"#utility.yul\":139:199   */\n    tag_32:\n        /* \"#utility.yul\":167:170   */\n      0x00\n        /* \"#utility.yul\":188:193   */\n      dup2\n        /* \"#utility.yul\":181:193   */\n      swap1\n      pop\n        /* \"#utility.yul\":139:199   */\n      swap2\n      swap1\n      pop\n      jump\t// out\n        /* \"#utility.yul\":205:347   */\n    tag_33:\n        /* \"#utility.yul\":255:264   */\n      0x00\n        /* \"#utility.yul\":288:341   */\n      tag_62\n        /* \"#utility.yul\":306:340   */\n      tag_63\n        /* \"#utility.yul\":315:339   */\n      tag_64\n        /* \"#utility.yul\":333:338   */\n      dup5\n        /* \"#utility.yul\":315:339   */\n      tag_31\n      jump\t// in\n    tag_64:\n        /* \"#utility.yul\":306:340   */\n      tag_32\n      jump\t// in\n    tag_63:\n        /* \"#utility.yul\":288:341   */\n      tag_31\n      jump\t// in\n    tag_62:\n        /* \"#utility.yul\":275:341   */\n      swap1\n      pop\n        /* \"#utility.yul\":205:347   */\n      swap2\n      swap1\n      pop\n      jump\t// out\n        /* \"#utility.yul\":353:479   */\n    tag_34:\n        /* \"#utility.yul\":403:412   */\n      0x00\n        /* \"#utility.yul\":436:473   */\n      tag_66\n        /* \"#utility.yul\":467:472   */\n      dup3\n        /* \"#utility.yul\":436:473   */\n      tag_33\n      jump\t// in\n    tag_66:\n        /* \"#utility.yul\":423:473   */\n      swap1\n      pop\n        /* \"#utility.yul\":353:479   */\n      swap2\n      swap1\n      pop\n      jump\t// out\n        /* \"#utility.yul\":485:624   */\n    tag_35:\n        /* \"#utility.yul\":548:557   */\n      0x00\n        /* \"#utility.yul\":581:618   */\n      tag_68\n        /* \"#utility.yul\":612:617   */\n      dup3\n        /* \"#utility.yul\":581:618   */\n      tag_34\n      jump\t// in\n    tag_68:\n        /* \"#utility.yul\":568:618   */\n      swap1\n      pop\n        /* \"#utility.yul\":485:624   */\n      swap2\n      swap1\n      pop\n      jump\t// out\n        /* \"#utility.yul\":630:787   */\n    tag_36:\n        /* \"#utility.yul\":730:780   */\n      tag_70\n        /* \"#utility.yul\":774:779   */\n      dup2\n        /* \"#utility.yul\":730:780   */\n      tag_35\n      jump\t// in\n    tag_70:\n        /* \"#utility.yul\":725:728   */\n      dup3\n        /* \"#utility.yul\":718:781   */\n      mstore\n        /* \"#utility.yul\":630:787   */\n      pop\n      pop\n      jump\t// out\n        /* \"#utility.yul\":793:1041   */\n    tag_8:\n        /* \"#utility.yul\":899:903   */\n      0x00\n        /* \"#utility.yul\":937:939   */\n      0x20\n        /* \"#utility.yul\":926:935   */\n      dup3\n        /* \"#utility.yul\":922:940   */\n      add\n        /* \"#utility.yul\":914:940   */\n      swap1\n      pop\n        /* \"#utility.yul\":950:1034   */\n      tag_72\n        /* \"#utility.yul\":1031:1032   */\n      0x00\n        /* \"#utility.yul\":1020:1029   */\n      dup4\n        /* \"#utility.yul\":1016:1033   */\n      add\n        /* \"#utility.yul\":1007:1013   */\n      dup5\n        /* \"#utility.yul\":950:1034   */\n      tag_36\n      jump\t// in\n    tag_72:\n        /* \"#utility.yul\":793:1041   */\n      swap3\n      swap2\n      pop\n      pop\n      jump\t// out\n        /* \"#utility.yul\":1128:1245   */\n    tag_38:\n        /* \"#utility.yul\":1237:1238   */\n      0x00\n        /* \"#utility.yul\":1234:1235   */\n      dup1\n        /* \"#utility.yul\":1227:1239   */\n      revert\n        /* \"#utility.yul\":1374:1478   */\n    tag_40:\n        /* \"#utility.yul\":1419:1426   */\n      0x00\n        /* \"#utility.yul\":1448:1472   */\n      tag_77\n        /* \"#utility.yul\":1466:1471   */\n      dup3\n        /* \"#utility.yul\":1448:1472   */\n      tag_31\n      jump\t// in\n    tag_77:\n        /* \"#utility.yul\":1437:1472   */\n      swap1\n      pop\n        /* \"#utility.yul\":1374:1478   */\n      swap2\n      swap1\n      pop\n      jump\t// out\n        /* \"#utility.yul\":1484:1622   */\n    tag_41:\n        /* \"#utility.yul\":1565:1597   */\n      tag_79\n        /* \"#utility.yul\":1591:1596   */\n      dup2\n        /* \"#utility.yul\":1565:1597   */\n      tag_40\n      jump\t// in\n    tag_79:\n        /* \"#utility.yul\":1558:1563   */\n      dup2\n        /* \"#utility.yul\":1555:1598   */\n      eq\n        /* \"#utility.yul\":1545:1616   */\n      tag_80\n      jumpi\n        /* \"#utility.yul\":1612:1613   */\n      0x00\n        /* \"#utility.yul\":1609:1610   */\n      dup1\n        /* \"#utility.yul\":1602:1614   */\n      revert\n        /* \"#utility.yul\":1545:1616   */\n    tag_80:\n        /* \"#utility.yul\":1484:1622   */\n      pop\n      jump\t// out\n        /* \"#utility.yul\":1628:1783   */\n    tag_42:\n        /* \"#utility.yul\":1682:1687   */\n      0x00\n        /* \"#utility.yul\":1720:1726   */\n      dup2\n        /* \"#utility.yul\":1707:1727   */\n      calldataload\n        /* \"#utility.yul\":1698:1727   */\n      swap1\n      pop\n        /* \"#utility.yul\":1736:1777   */\n      tag_82\n        /* \"#utility.yul\":1771:1776   */\n      dup2\n        /* \"#utility.yul\":1736:1777   */\n      tag_41\n      jump\t// in\n    tag_82:\n        /* \"#utility.yul\":1628:1783   */\n      swap3\n      swap2\n      pop\n      pop\n      jump\t// out\n        /* \"#utility.yul\":1789:1866   */\n    tag_43:\n        /* \"#utility.yul\":1826:1833   */\n      0x00\n        /* \"#utility.yul\":1855:1860   */\n      dup2\n        /* \"#utility.yul\":1844:1860   */\n      swap1\n      pop\n        /* \"#utility.yul\":1789:1866   */\n      swap2\n      swap1\n      pop\n      jump\t// out\n        /* \"#utility.yul\":1872:1994   */\n    tag_44:\n        /* \"#utility.yul\":1945:1969   */\n      tag_85\n        /* \"#utility.yul\":1963:1968   */\n      dup2\n        /* \"#utility.yul\":1945:1969   */\n      tag_43\n      jump\t// in\n    tag_85:\n        /* \"#utility.yul\":1938:1943   */\n      dup2\n        /* \"#utility.yul\":1935:1970   */\n      eq\n        /* \"#utility.yul\":1925:1988   */\n      tag_86\n      jumpi\n        /* \"#utility.yul\":1984:1985   */\n      0x00\n        /* \"#utility.yul\":1981:1982   */\n      dup1\n        /* \"#utility.yul\":1974:1986   */\n      revert\n        /* \"#utility.yul\":1925:1988   */\n    tag_86:\n        /* \"#utility.yul\":1872:1994   */\n      pop\n      jump\t// out\n        /* \"#utility.yul\":2000:2139   */\n    tag_45:\n        /* \"#utility.yul\":2046:2051   */\n      0x00\n        /* \"#utility.yul\":2084:2090   */\n      dup2\n        /* \"#utility.yul\":2071:2091   */\n      calldataload\n        /* \"#utility.yul\":2062:2091   */\n      swap1\n      pop\n        /* \"#utility.yul\":2100:2133   */\n      tag_88\n        /* \"#utility.yul\":2127:2132   */\n      dup2\n        /* \"#utility.yul\":2100:2133   */\n      tag_44\n      jump\t// in\n    tag_88:\n        /* \"#utility.yul\":2000:2139   */\n      swap3\n      swap2\n      pop\n      pop\n      jump\t// out\n        /* \"#utility.yul\":2145:2635   */\n    tag_11:\n        /* \"#utility.yul\":2221:2227   */\n      0x00\n        /* \"#utility.yul\":2229:2235   */\n      dup1\n        /* \"#utility.yul\":2278:2280   */\n      0x40\n        /* \"#utility.yul\":2266:2275   */\n      dup4\n        /* \"#utility.yul\":2257:2264   */\n      dup6\n        /* \"#utility.yul\":2253:2276   */\n      sub\n        /* \"#utility.yul\":2249:2281   */\n      slt\n        /* \"#utility.yul\":2246:2365   */\n      iszero\n      tag_90\n      jumpi\n        /* \"#utility.yul\":2284:2363   */\n      tag_91\n      tag_38\n      jump\t// in\n    tag_91:\n        /* \"#utility.yul\":2246:2365   */\n    tag_90:\n        /* \"#utility.yul\":2404:2405   */\n      0x00\n        /* \"#utility.yul\":2429:2490   */\n      tag_92\n        /* \"#utility.yul\":2482:2489   */\n      dup6\n        /* \"#utility.yul\":2473:2479   */\n      dup3\n        /* \"#utility.yul\":2462:2471   */\n      dup7\n        /* \"#utility.yul\":2458:2480   */\n      add\n        /* \"#utility.yul\":2429:2490   */\n      tag_42\n      jump\t// in\n    tag_92:\n        /* \"#utility.yul\":2419:2490   */\n      swap3\n      pop\n        /* \"#utility.yul\":2375:2500   */\n      pop\n        /* \"#utility.yul\":2539:2541   */\n      0x20\n        /* \"#utility.yul\":2565:2618   */\n      tag_93\n        /* \"#utility.yul\":2610:2617   */\n      dup6\n        /* \"#utility.yul\":2601:2607   */\n      dup3\n        /* \"#utility.yul\":2590:2599   */\n      dup7\n        /* \"#utility.yul\":2586:2608   */\n      add\n        /* \"#utility.yul\":2565:2618   */\n      tag_45\n      jump\t// in\n    tag_93:\n        /* \"#utility.yul\":2555:2618   */\n      swap2\n      pop\n        /* \"#utility.yul\":2510:2628   */\n      pop\n        /* \"#utility.yul\":2145:2635   */\n      swap3\n      pop\n      swap3\n      swap1\n      pop\n      jump\t// out\n        /* \"#utility.yul\":2641:2737   */\n    tag_46:\n        /* \"#utility.yul\":2678:2685   */\n      0x00\n        /* \"#utility.yul\":2707:2731   */\n      tag_95\n        /* \"#utility.yul\":2725:2730   */\n      dup3\n        /* \"#utility.yul\":2707:2731   */\n      tag_31\n      jump\t// in\n    tag_95:\n        /* \"#utility.yul\":2696:2731   */\n      swap1\n      pop\n        /* \"#utility.yul\":2641:2737   */\n      swap2\n      swap1\n      pop\n      jump\t// out\n        /* \"#utility.yul\":2743:2861   */\n    tag_47:\n        /* \"#utility.yul\":2830:2854   */\n      tag_97\n        /* \"#utility.yul\":2848:2853   */\n      dup2\n        /* \"#utility.yul\":2830:2854   */\n      tag_46\n      jump\t// in\n    tag_97:\n        /* \"#utility.yul\":2825:2828   */\n      dup3\n        /* \"#utility.yul\":2818:2855   */\n      mstore\n        /* \"#utility.yul\":2743:2861   */\n      pop\n      pop\n      jump\t// out\n        /* \"#utility.yul\":2867:3089   */\n    tag_15:\n        /* \"#utility.yul\":2960:2964   */\n      0x00\n        /* \"#utility.yul\":2998:3000   */\n      0x20\n        /* \"#utility.yul\":2987:2996   */\n      dup3\n        /* \"#utility.yul\":2983:3001   */\n      add\n        /* \"#utility.yul\":2975:3001   */\n      swap1\n      pop\n        /* \"#utility.yul\":3011:3082   */\n      tag_99\n        /* \"#utility.yul\":3079:3080   */\n      0x00\n        /* \"#utility.yul\":3068:3077   */\n      dup4\n        /* \"#utility.yul\":3064:3081   */\n      add\n        /* \"#utility.yul\":3055:3061   */\n      dup5\n        /* \"#utility.yul\":3011:3082   */\n      tag_47\n      jump\t// in\n    tag_99:\n        /* \"#utility.yul\":2867:3089   */\n      swap3\n      swap2\n      pop\n      pop\n      jump\t// out\n        /* \"#utility.yul\":3095:3238   */\n    tag_48:\n        /* \"#utility.yul\":3152:3157   */\n      0x00\n        /* \"#utility.yul\":3183:3189   */\n      dup2\n        /* \"#utility.yul\":3177:3190   */\n      mload\n        /* \"#utility.yul\":3168:3190   */\n      swap1\n      pop\n        /* \"#utility.yul\":3199:3232   */\n      tag_101\n        /* \"#utility.yul\":3226:3231   */\n      dup2\n        /* \"#utility.yul\":3199:3232   */\n      tag_44\n      jump\t// in\n    tag_101:\n        /* \"#utility.yul\":3095:3238   */\n      swap3\n      swap2\n      pop\n      pop\n      jump\t// out\n        /* \"#utility.yul\":3244:3595   */\n    tag_19:\n        /* \"#utility.yul\":3314:3320   */\n      0x00\n        /* \"#utility.yul\":3363:3365   */\n      0x20\n        /* \"#utility.yul\":3351:3360   */\n      dup3\n        /* \"#utility.yul\":3342:3349   */\n      dup5\n        /* \"#utility.yul\":3338:3361   */\n      sub\n        /* \"#utility.yul\":3334:3366   */\n      slt\n        /* \"#utility.yul\":3331:3450   */\n      iszero\n      tag_103\n      jumpi\n        /* \"#utility.yul\":3369:3448   */\n      tag_104\n      tag_38\n      jump\t// in\n    tag_104:\n        /* \"#utility.yul\":3331:3450   */\n    tag_103:\n        /* \"#utility.yul\":3489:3490   */\n      0x00\n        /* \"#utility.yul\":3514:3578   */\n      tag_105\n        /* \"#utility.yul\":3570:3577   */\n      dup5\n        /* \"#utility.yul\":3561:3567   */\n      dup3\n        /* \"#utility.yul\":3550:3559   */\n      dup6\n        /* \"#utility.yul\":3546:3568   */\n      add\n        /* \"#utility.yul\":3514:3578   */\n      tag_48\n      jump\t// in\n    tag_105:\n        /* \"#utility.yul\":3504:3578   */\n      swap2\n      pop\n        /* \"#utility.yul\":3460:3588   */\n      pop\n        /* \"#utility.yul\":3244:3595   */\n      swap3\n      swap2\n      pop\n      pop\n      jump\t// out\n        /* \"#utility.yul\":3601:3770   */\n    tag_49:\n        /* \"#utility.yul\":3685:3696   */\n      0x00\n        /* \"#utility.yul\":3719:3725   */\n      dup3\n        /* \"#utility.yul\":3714:3717   */\n      dup3\n        /* \"#utility.yul\":3707:3726   */\n      mstore\n        /* \"#utility.yul\":3759:3763   */\n      0x20\n        /* \"#utility.yul\":3754:3757   */\n      dup3\n        /* \"#utility.yul\":3750:3764   */\n      add\n        /* \"#utility.yul\":3735:3764   */\n      swap1\n      pop\n        /* \"#utility.yul\":3601:3770   */\n      swap3\n      swap2\n      pop\n      pop\n      jump\t// out\n        /* \"#utility.yul\":3776:3946   */\n    tag_50:\n        /* \"#utility.yul\":3916:3938   */\n      0x496e73756666696369656e742062616c616e6365000000000000000000000000\n        /* \"#utility.yul\":3912:3913   */\n      0x00\n        /* \"#utility.yul\":3904:3910   */\n      dup3\n        /* \"#utility.yul\":3900:3914   */\n      add\n        /* \"#utility.yul\":3893:3939   */\n      mstore\n        /* \"#utility.yul\":3776:3946   */\n      pop\n      jump\t// out\n        /* \"#utility.yul\":3952:4318   */\n    tag_51:\n        /* \"#utility.yul\":4094:4097   */\n      0x00\n        /* \"#utility.yul\":4115:4182   */\n      tag_109\n        /* \"#utility.yul\":4179:4181   */\n      0x14\n        /* \"#utility.yul\":4174:4177   */\n      dup4\n        /* \"#utility.yul\":4115:4182   */\n      tag_49\n      jump\t// in\n    tag_109:\n        /* \"#utility.yul\":4108:4182   */\n      swap2\n      pop\n        /* \"#utility.yul\":4191:4284   */\n      tag_110\n        /* \"#utility.yul\":4280:4283   */\n      dup3\n        /* \"#utility.yul\":4191:4284   */\n      tag_50\n      jump\t// in\n    tag_110:\n        /* \"#utility.yul\":4309:4311   */\n      0x20\n        /* \"#utility.yul\":4304:4307   */\n      dup3\n        /* \"#utility.yul\":4300:4312   */\n      add\n        /* \"#utility.yul\":4293:4312   */\n      swap1\n      pop\n        /* \"#utility.yul\":3952:4318   */\n      swap2\n      swap1\n      pop\n      jump\t// out\n        /* \"#utility.yul\":4324:4743   */\n    tag_22:\n        /* \"#utility.yul\":4490:4494   */\n      0x00\n        /* \"#utility.yul\":4528:4530   */\n      0x20\n        /* \"#utility.yul\":4517:4526   */\n      dup3\n        /* \"#utility.yul\":4513:4531   */\n      add\n        /* \"#utility.yul\":4505:4531   */\n      swap1\n      pop\n        /* \"#utility.yul\":4577:4586   */\n      dup2\n        /* \"#utility.yul\":4571:4575   */\n      dup2\n        /* \"#utility.yul\":4567:4587   */\n      sub\n        /* \"#utility.yul\":4563:4564   */\n      0x00\n        /* \"#utility.yul\":4552:4561   */\n      dup4\n        /* \"#utility.yul\":4548:4565   */\n      add\n        /* \"#utility.yul\":4541:4588   */\n      mstore\n        /* \"#utility.yul\":4605:4736   */\n      tag_112\n        /* \"#utility.yul\":4731:4735   */\n      dup2\n        /* \"#utility.yul\":4605:4736   */\n      tag_51\n      jump\t// in\n    tag_112:\n        /* \"#utility.yul\":4597:4736   */\n      swap1\n      pop\n        /* \"#utility.yul\":4324:4743   */\n      swap2\n      swap1\n      pop\n      jump\t// out\n        /* \"#utility.yul\":4749:4883   */\n    tag_52:\n        /* \"#utility.yul\":4807:4816   */\n      0x00\n        /* \"#utility.yul\":4840:4877   */\n      tag_114\n        /* \"#utility.yul\":4871:4876   */\n      dup3\n        /* \"#utility.yul\":4840:4877   */\n      tag_34\n      jump\t// in\n    tag_114:\n        /* \"#utility.yul\":4827:4877   */\n      swap1\n      pop\n        /* \"#utility.yul\":4749:4883   */\n      swap2\n      swap1\n      pop\n      jump\t// out\n        /* \"#utility.yul\":4889:5036   */\n    tag_53:\n        /* \"#utility.yul\":4984:5029   */\n      tag_116\n        /* \"#utility.yul\":5023:5028   */\n      dup2\n        /* \"#utility.yul\":4984:5029   */\n      tag_52\n      jump\t// in\n    tag_116:\n        /* \"#utility.yul\":4979:4982   */\n      dup3\n        /* \"#utility.yul\":4972:5030   */\n      mstore\n        /* \"#utility.yul\":4889:5036   */\n      pop\n      pop\n      jump\t// out\n        /* \"#utility.yul\":5042:5160   */\n    tag_54:\n        /* \"#utility.yul\":5129:5153   */\n      tag_118\n        /* \"#utility.yul\":5147:5152   */\n      dup2\n        /* \"#utility.yul\":5129:5153   */\n      tag_43\n      jump\t// in\n    tag_118:\n        /* \"#utility.yul\":5124:5127   */\n      dup3\n        /* \"#utility.yul\":5117:5154   */\n      mstore\n        /* \"#utility.yul\":5042:5160   */\n      pop\n      pop\n      jump\t// out\n        /* \"#utility.yul\":5166:5624   */\n    tag_24:\n        /* \"#utility.yul\":5323:5327   */\n      0x00\n        /* \"#utility.yul\":5361:5363   */\n      0x60\n        /* \"#utility.yul\":5350:5359   */\n      dup3\n        /* \"#utility.yul\":5346:5364   */\n      add\n        /* \"#utility.yul\":5338:5364   */\n      swap1\n      pop\n        /* \"#utility.yul\":5374:5445   */\n      tag_120\n        /* \"#utility.yul\":5442:5443   */\n      0x00\n        /* \"#utility.yul\":5431:5440   */\n      dup4\n        /* \"#utility.yul\":5427:5444   */\n      add\n        /* \"#utility.yul\":5418:5424   */\n      dup7\n        /* \"#utility.yul\":5374:5445   */\n      tag_47\n      jump\t// in\n    tag_120:\n        /* \"#utility.yul\":5455:5535   */\n      tag_121\n        /* \"#utility.yul\":5531:5533   */\n      0x20\n        /* \"#utility.yul\":5520:5529   */\n      dup4\n        /* \"#utility.yul\":5516:5534   */\n      add\n        /* \"#utility.yul\":5507:5513   */\n      dup6\n        /* \"#utility.yul\":5455:5535   */\n      tag_53\n      jump\t// in\n    tag_121:\n        /* \"#utility.yul\":5545:5617   */\n      tag_122\n        /* \"#utility.yul\":5613:5615   */\n      0x40\n        /* \"#utility.yul\":5602:5611   */\n      dup4\n        /* \"#utility.yul\":5598:5616   */\n      add\n        /* \"#utility.yul\":5589:5595   */\n      dup5\n        /* \"#utility.yul\":5545:5617   */\n      tag_54\n      jump\t// in\n    tag_122:\n        /* \"#utility.yul\":5166:5624   */\n      swap5\n      swap4\n      pop\n      pop\n      pop\n      pop\n      jump\t// out\n        /* \"#utility.yul\":5630:5720   */\n    tag_55:\n        /* \"#utility.yul\":5664:5671   */\n      0x00\n        /* \"#utility.yul\":5707:5712   */\n      dup2\n        /* \"#utility.yul\":5700:5713   */\n      iszero\n        /* \"#utility.yul\":5693:5714   */\n      iszero\n        /* \"#utility.yul\":5682:5714   */\n      swap1\n      pop\n        /* \"#utility.yul\":5630:5720   */\n      swap2\n      swap1\n      pop\n      jump\t// out\n        /* \"#utility.yul\":5726:5842   */\n    tag_56:\n        /* \"#utility.yul\":5796:5817   */\n      tag_125\n        /* \"#utility.yul\":5811:5816   */\n      dup2\n        /* \"#utility.yul\":5796:5817   */\n      tag_55\n      jump\t// in\n    tag_125:\n        /* \"#utility.yul\":5789:5794   */\n      dup2\n        /* \"#utility.yul\":5786:5818   */\n      eq\n        /* \"#utility.yul\":5776:5836   */\n      tag_126\n      jumpi\n        /* \"#utility.yul\":5832:5833   */\n      0x00\n        /* \"#utility.yul\":5829:5830   */\n      dup1\n        /* \"#utility.yul\":5822:5834   */\n      revert\n        /* \"#utility.yul\":5776:5836   */\n    tag_126:\n        /* \"#utility.yul\":5726:5842   */\n      pop\n      jump\t// out\n        /* \"#utility.yul\":5848:5985   */\n    tag_57:\n        /* \"#utility.yul\":5902:5907   */\n      0x00\n        /* \"#utility.yul\":5933:5939   */\n      dup2\n        /* \"#utility.yul\":5927:5940   */\n      mload\n        /* \"#utility.yul\":5918:5940   */\n      swap1\n      pop\n        /* \"#utility.yul\":5949:5979   */\n      tag_128\n        /* \"#utility.yul\":5973:5978   */\n      dup2\n        /* \"#utility.yul\":5949:5979   */\n      tag_56\n      jump\t// in\n    tag_128:\n        /* \"#utility.yul\":5848:5985   */\n      swap3\n      swap2\n      pop\n      pop\n      jump\t// out\n        /* \"#utility.yul\":5991:6336   */\n    tag_28:\n        /* \"#utility.yul\":6058:6064   */\n      0x00\n        /* \"#utility.yul\":6107:6109   */\n      0x20\n        /* \"#utility.yul\":6095:6104   */\n      dup3\n        /* \"#utility.yul\":6086:6093   */\n      dup5\n        /* \"#utility.yul\":6082:6105   */\n      sub\n        /* \"#utility.yul\":6078:6110   */\n      slt\n        /* \"#utility.yul\":6075:6194   */\n      iszero\n      tag_130\n      jumpi\n        /* \"#utility.yul\":6113:6192   */\n      tag_131\n      tag_38\n      jump\t// in\n    tag_131:\n        /* \"#utility.yul\":6075:6194   */\n    tag_130:\n        /* \"#utility.yul\":6233:6234   */\n      0x00\n        /* \"#utility.yul\":6258:6319   */\n      tag_132\n        /* \"#utility.yul\":6311:6318   */\n      dup5\n        /* \"#utility.yul\":6302:6308   */\n      dup3\n        /* \"#utility.yul\":6291:6300   */\n      dup6\n        /* \"#utility.yul\":6287:6309   */\n      add\n        /* \"#utility.yul\":6258:6319   */\n      tag_57\n      jump\t// in\n    tag_132:\n        /* \"#utility.yul\":6248:6319   */\n      swap2\n      pop\n        /* \"#utility.yul\":6204:6329   */\n      pop\n        /* \"#utility.yul\":5991:6336   */\n      swap3\n      swap2\n      pop\n      pop\n      jump\t// out\n        /* \"#utility.yul\":6342:6564   */\n    tag_30:\n        /* \"#utility.yul\":6435:6439   */\n      0x00\n        /* \"#utility.yul\":6473:6475   */\n      0x20\n        /* \"#utility.yul\":6462:6471   */\n      dup3\n        /* \"#utility.yul\":6458:6476   */\n      add\n        /* \"#utility.yul\":6450:6476   */\n      swap1\n      pop\n        /* \"#utility.yul\":6486:6557   */\n      tag_134\n        /* \"#utility.yul\":6554:6555   */\n      0x00\n        /* \"#utility.yul\":6543:6552   */\n      dup4\n        /* \"#utility.yul\":6539:6556   */\n      add\n        /* \"#utility.yul\":6530:6536   */\n      dup5\n        /* \"#utility.yul\":6486:6557   */\n      tag_54\n      jump\t// in\n    tag_134:\n        /* \"#utility.yul\":6342:6564   */\n      swap3\n      swap2\n      pop\n      pop\n      jump\t// out\n\n    auxdata: 0xa2646970667358221220427f79a8d56a48afce519cee3bf504d39c97bded9e3fca17f359a03d33b412d964736f6c634300081a0033\n}\n",
				"bytecode": {
					"linkReferences": {},
					"object": "6080604052348015600e575f80fd5b506105828061001c5f395ff3fe608060405234801561000f575f80fd5b5060043610610034575f3560e01c806389a3027114610038578063d79f5bad14610056575b5f80fd5b610040610072565b60405161004d91906102b6565b60405180910390f35b610070600480360381019061006b9190610341565b61008a565b005b73a0b86991c6218b36c1d19d4a2e9eb0ce3606eb4881565b73a0b86991c6218b36c1d19d4a2e9eb0ce3606eb4873ffffffffffffffffffffffffffffffffffffffff166370a08231336040518263ffffffff1660e01b81526004016100d7919061039f565b602060405180830381865afa1580156100f2573d5f803e3d5ffd5b505050506040513d601f19601f8201168201806040525081019061011691906103cc565b811115610158576040517f08c379a000000000000000000000000000000000000000000000000000000000815260040161014f90610451565b60405180910390fd5b73a0b86991c6218b36c1d19d4a2e9eb0ce3606eb4873ffffffffffffffffffffffffffffffffffffffff166323b872dd3384846040518463ffffffff1660e01b81526004016101a99392919061049e565b6020604051808303815f875af11580156101c5573d5f803e3d5ffd5b505050506040513d601f19601f820116820180604052508101906101e99190610508565b508173ffffffffffffffffffffffffffffffffffffffff167f47db2abce6d5fbcd80ffd9b4ba74dcde804a746ef732bc7f8a70fabfc912c590826040516102309190610533565b60405180910390a25050565b5f73ffffffffffffffffffffffffffffffffffffffff82169050919050565b5f819050919050565b5f61027e6102796102748461023c565b61025b565b61023c565b9050919050565b5f61028f82610264565b9050919050565b5f6102a082610285565b9050919050565b6102b081610296565b82525050565b5f6020820190506102c95f8301846102a7565b92915050565b5f80fd5b5f6102dd8261023c565b9050919050565b6102ed816102d3565b81146102f7575f80fd5b50565b5f81359050610308816102e4565b92915050565b5f819050919050565b6103208161030e565b811461032a575f80fd5b50565b5f8135905061033b81610317565b92915050565b5f8060408385031215610357576103566102cf565b5b5f610364858286016102fa565b92505060206103758582860161032d565b9150509250929050565b5f6103898261023c565b9050919050565b6103998161037f565b82525050565b5f6020820190506103b25f830184610390565b92915050565b5f815190506103c681610317565b92915050565b5f602082840312156103e1576103e06102cf565b5b5f6103ee848285016103b8565b91505092915050565b5f82825260208201905092915050565b7f496e73756666696369656e742062616c616e63650000000000000000000000005f82015250565b5f61043b6014836103f7565b915061044682610407565b602082019050919050565b5f6020820190508181035f8301526104688161042f565b9050919050565b5f61047982610285565b9050919050565b6104898161046f565b82525050565b6104988161030e565b82525050565b5f6060820190506104b15f830186610390565b6104be6020830185610480565b6104cb604083018461048f565b949350505050565b5f8115159050919050565b6104e7816104d3565b81146104f1575f80fd5b50565b5f81519050610502816104de565b92915050565b5f6020828403121561051d5761051c6102cf565b5b5f61052a848285016104f4565b91505092915050565b5f6020820190506105465f83018461048f565b9291505056fea2646970667358221220427f79a8d56a48afce519cee3bf504d39c97bded9e3fca17f359a03d33b412d964736f6c634300081a0033",
					"opcodes": "PUSH1 0x80 PUSH1 0x40 MSTORE CALLVALUE DUP1 ISZERO PUSH1 0xE JUMPI PUSH0 DUP1 REVERT JUMPDEST POP PUSH2 0x582 DUP1 PUSH2 0x1C PUSH0 CODECOPY PUSH0 RETURN INVALID PUSH1 0x80 PUSH1 0x40 MSTORE CALLVALUE DUP1 ISZERO PUSH2 0xF JUMPI PUSH0 DUP1 REVERT JUMPDEST POP PUSH1 0x4 CALLDATASIZE LT PUSH2 0x34 JUMPI PUSH0 CALLDATALOAD PUSH1 0xE0 SHR DUP1 PUSH4 0x89A30271 EQ PUSH2 0x38 JUMPI DUP1 PUSH4 0xD79F5BAD EQ PUSH2 0x56 JUMPI JUMPDEST PUSH0 DUP1 REVERT JUMPDEST PUSH2 0x40 PUSH2 0x72 JUMP JUMPDEST PUSH1 0x40 MLOAD PUSH2 0x4D SWAP2 SWAP1 PUSH2 0x2B6 JUMP JUMPDEST PUSH1 0x40 MLOAD DUP1 SWAP2 SUB SWAP1 RETURN JUMPDEST PUSH2 0x70 PUSH1 0x4 DUP1 CALLDATASIZE SUB DUP2 ADD SWAP1 PUSH2 0x6B SWAP2 SWAP1 PUSH2 0x341 JUMP JUMPDEST PUSH2 0x8A JUMP JUMPDEST STOP JUMPDEST PUSH20 0xA0B86991C6218B36C1D19D4A2E9EB0CE3606EB48 DUP2 JUMP JUMPDEST PUSH20 0xA0B86991C6218B36C1D19D4A2E9EB0CE3606EB48 PUSH20 0xFFFFFFFFFFFFFFFFFFFFFFFFFFFFFFFFFFFFFFFF AND PUSH4 0x70A08231 CALLER PUSH1 0x40 MLOAD DUP3 PUSH4 0xFFFFFFFF AND PUSH1 0xE0 SHL DUP2 MSTORE PUSH1 0x4 ADD PUSH2 0xD7 SWAP2 SWAP1 PUSH2 0x39F JUMP JUMPDEST PUSH1 0x20 PUSH1 0x40 MLOAD DUP1 DUP4 SUB DUP2 DUP7 GAS STATICCALL ISZERO DUP1 ISZERO PUSH2 0xF2 JUMPI RETURNDATASIZE PUSH0 DUP1 RETURNDATACOPY RETURNDATASIZE PUSH0 REVERT JUMPDEST POP POP POP POP PUSH1 0x40 MLOAD RETURNDATASIZE PUSH1 0x1F NOT PUSH1 0x1F DUP3 ADD AND DUP3 ADD DUP1 PUSH1 0x40 MSTORE POP DUP2 ADD SWAP1 PUSH2 0x116 SWAP2 SWAP1 PUSH2 0x3CC JUMP JUMPDEST DUP2 GT ISZERO PUSH2 0x158 JUMPI PUSH1 0x40 MLOAD PUSH32 0x8C379A000000000000000000000000000000000000000000000000000000000 DUP2 MSTORE PUSH1 0x4 ADD PUSH2 0x14F SWAP1 PUSH2 0x451 JUMP JUMPDEST PUSH1 0x40 MLOAD DUP1 SWAP2 SUB SWAP1 REVERT JUMPDEST PUSH20 0xA0B86991C6218B36C1D19D4A2E9EB0CE3606EB48 PUSH20 0xFFFFFFFFFFFFFFFFFFFFFFFFFFFFFFFFFFFFFFFF AND PUSH4 0x23B872DD CALLER DUP5 DUP5 PUSH1 0x40 MLOAD DUP5 PUSH4 0xFFFFFFFF AND PUSH1 0xE0 SHL DUP2 MSTORE PUSH1 0x4 ADD PUSH2 0x1A9 SWAP4 SWAP3 SWAP2 SWAP1 PUSH2 0x49E JUMP JUMPDEST PUSH1 0x20 PUSH1 0x40 MLOAD DUP1 DUP4 SUB DUP2 PUSH0 DUP8 GAS CALL ISZERO DUP1 ISZERO PUSH2 0x1C5 JUMPI RETURNDATASIZE PUSH0 DUP1 RETURNDATACOPY RETURNDATASIZE PUSH0 REVERT JUMPDEST POP POP POP POP PUSH1 0x40 MLOAD RETURNDATASIZE PUSH1 0x1F NOT PUSH1 0x1F DUP3 ADD AND DUP3 ADD DUP1 PUSH1 0x40 MSTORE POP DUP2 ADD SWAP1 PUSH2 0x1E9 SWAP2 SWAP1 PUSH2 0x508 JUMP JUMPDEST POP DUP2 PUSH20 0xFFFFFFFFFFFFFFFFFFFFFFFFFFFFFFFFFFFFFFFF AND PUSH32 0x47DB2ABCE6D5FBCD80FFD9B4BA74DCDE804A746EF732BC7F8A70FABFC912C590 DUP3 PUSH1 0x40 MLOAD PUSH2 0x230 SWAP2 SWAP1 PUSH2 0x533 JUMP JUMPDEST PUSH1 0x40 MLOAD DUP1 SWAP2 SUB SWAP1 LOG2 POP POP JUMP JUMPDEST PUSH0 PUSH20 0xFFFFFFFFFFFFFFFFFFFFFFFFFFFFFFFFFFFFFFFF DUP3 AND SWAP1 POP SWAP2 SWAP1 POP JUMP JUMPDEST PUSH0 DUP2 SWAP1 POP SWAP2 SWAP1 POP JUMP JUMPDEST PUSH0 PUSH2 0x27E PUSH2 0x279 PUSH2 0x274 DUP5 PUSH2 0x23C JUMP JUMPDEST PUSH2 0x25B JUMP JUMPDEST PUSH2 0x23C JUMP JUMPDEST SWAP1 POP SWAP2 SWAP1 POP JUMP JUMPDEST PUSH0 PUSH2 0x28F DUP3 PUSH2 0x264 JUMP JUMPDEST SWAP1 POP SWAP2 SWAP1 POP JUMP JUMPDEST PUSH0 PUSH2 0x2A0 DUP3 PUSH2 0x285 JUMP JUMPDEST SWAP1 POP SWAP2 SWAP1 POP JUMP JUMPDEST PUSH2 0x2B0 DUP2 PUSH2 0x296 JUMP JUMPDEST DUP3 MSTORE POP POP JUMP JUMPDEST PUSH0 PUSH1 0x20 DUP3 ADD SWAP1 POP PUSH2 0x2C9 PUSH0 DUP4 ADD DUP5 PUSH2 0x2A7 JUMP JUMPDEST SWAP3 SWAP2 POP POP JUMP JUMPDEST PUSH0 DUP1 REVERT JUMPDEST PUSH0 PUSH2 0x2DD DUP3 PUSH2 0x23C JUMP JUMPDEST SWAP1 POP SWAP2 SWAP1 POP JUMP JUMPDEST PUSH2 0x2ED DUP2 PUSH2 0x2D3 JUMP JUMPDEST DUP2 EQ PUSH2 0x2F7 JUMPI PUSH0 DUP1 REVERT JUMPDEST POP JUMP JUMPDEST PUSH0 DUP2 CALLDATALOAD SWAP1 POP PUSH2 0x308 DUP2 PUSH2 0x2E4 JUMP JUMPDEST SWAP3 SWAP2 POP POP JUMP JUMPDEST PUSH0 DUP2 SWAP1 POP SWAP2 SWAP1 POP JUMP JUMPDEST PUSH2 0x320 DUP2 PUSH2 0x30E JUMP JUMPDEST DUP2 EQ PUSH2 0x32A JUMPI PUSH0 DUP1 REVERT JUMPDEST POP JUMP JUMPDEST PUSH0 DUP2 CALLDATALOAD SWAP1 POP PUSH2 0x33B DUP2 PUSH2 0x317 JUMP JUMPDEST SWAP3 SWAP2 POP POP JUMP JUMPDEST PUSH0 DUP1 PUSH1 0x40 DUP4 DUP6 SUB SLT ISZERO PUSH2 0x357 JUMPI PUSH2 0x356 PUSH2 0x2CF JUMP JUMPDEST JUMPDEST PUSH0 PUSH2 0x364 DUP6 DUP3 DUP7 ADD PUSH2 0x2FA JUMP JUMPDEST SWAP3 POP POP PUSH1 0x20 PUSH2 0x375 DUP6 DUP3 DUP7 ADD PUSH2 0x32D JUMP JUMPDEST SWAP2 POP POP SWAP3 POP SWAP3 SWAP1 POP JUMP JUMPDEST PUSH0 PUSH2 0x389 DUP3 PUSH2 0x23C JUMP JUMPDEST SWAP1 POP SWAP2 SWAP1 POP JUMP JUMPDEST PUSH2 0x399 DUP2 PUSH2 0x37F JUMP JUMPDEST DUP3 MSTORE POP POP JUMP JUMPDEST PUSH0 PUSH1 0x20 DUP3 ADD SWAP1 POP PUSH2 0x3B2 PUSH0 DUP4 ADD DUP5 PUSH2 0x390 JUMP JUMPDEST SWAP3 SWAP2 POP POP JUMP JUMPDEST PUSH0 DUP2 MLOAD SWAP1 POP PUSH2 0x3C6 DUP2 PUSH2 0x317 JUMP JUMPDEST SWAP3 SWAP2 POP POP JUMP JUMPDEST PUSH0 PUSH1 0x20 DUP3 DUP5 SUB SLT ISZERO PUSH2 0x3E1 JUMPI PUSH2 0x3E0 PUSH2 0x2CF JUMP JUMPDEST JUMPDEST PUSH0 PUSH2 0x3EE DUP5 DUP3 DUP6 ADD PUSH2 0x3B8 JUMP JUMPDEST SWAP2 POP POP SWAP3 SWAP2 POP POP JUMP JUMPDEST PUSH0 DUP3 DUP3 MSTORE PUSH1 0x20 DUP3 ADD SWAP1 POP SWAP3 SWAP2 POP POP JUMP JUMPDEST PUSH32 0x496E73756666696369656E742062616C616E6365000000000000000000000000 PUSH0 DUP3 ADD MSTORE POP JUMP JUMPDEST PUSH0 PUSH2 0x43B PUSH1 0x14 DUP4 PUSH2 0x3F7 JUMP JUMPDEST SWAP2 POP PUSH2 0x446 DUP3 PUSH2 0x407 JUMP JUMPDEST PUSH1 0x20 DUP3 ADD SWAP1 POP SWAP2 SWAP1 POP JUMP JUMPDEST PUSH0 PUSH1 0x20 DUP3 ADD SWAP1 POP DUP2 DUP2 SUB PUSH0 DUP4 ADD MSTORE PUSH2 0x468 DUP2 PUSH2 0x42F JUMP JUMPDEST SWAP1 POP SWAP2 SWAP1 POP JUMP JUMPDEST PUSH0 PUSH2 0x479 DUP3 PUSH2 0x285 JUMP JUMPDEST SWAP1 POP SWAP2 SWAP1 POP JUMP JUMPDEST PUSH2 0x489 DUP2 PUSH2 0x46F JUMP JUMPDEST DUP3 MSTORE POP POP JUMP JUMPDEST PUSH2 0x498 DUP2 PUSH2 0x30E JUMP JUMPDEST DUP3 MSTORE POP POP JUMP JUMPDEST PUSH0 PUSH1 0x60 DUP3 ADD SWAP1 POP PUSH2 0x4B1 PUSH0 DUP4 ADD DUP7 PUSH2 0x390 JUMP JUMPDEST PUSH2 0x4BE PUSH1 0x20 DUP4 ADD DUP6 PUSH2 0x480 JUMP JUMPDEST PUSH2 0x4CB PUSH1 0x40 DUP4 ADD DUP5 PUSH2 0x48F JUMP JUMPDEST SWAP5 SWAP4 POP POP POP POP JUMP JUMPDEST PUSH0 DUP2 ISZERO ISZERO SWAP1 POP SWAP2 SWAP1 POP JUMP JUMPDEST PUSH2 0x4E7 DUP2 PUSH2 0x4D3 JUMP JUMPDEST DUP2 EQ PUSH2 0x4F1 JUMPI PUSH0 DUP1 REVERT JUMPDEST POP JUMP JUMPDEST PUSH0 DUP2 MLOAD SWAP1 POP PUSH2 0x502 DUP2 PUSH2 0x4DE JUMP JUMPDEST SWAP3 SWAP2 POP POP JUMP JUMPDEST PUSH0 PUSH1 0x20 DUP3 DUP5 SUB SLT ISZERO PUSH2 0x51D JUMPI PUSH2 0x51C PUSH2 0x2CF JUMP JUMPDEST JUMPDEST PUSH0 PUSH2 0x52A DUP5 DUP3 DUP6 ADD PUSH2 0x4F4 JUMP JUMPDEST SWAP2 POP POP SWAP3 SWAP2 POP POP JUMP JUMPDEST PUSH0 PUSH1 0x20 DUP3 ADD SWAP1 POP PUSH2 0x546 PUSH0 DUP4 ADD DUP5 PUSH2 0x48F JUMP JUMPDEST SWAP3 SWAP2 POP POP JUMP INVALID LOG2 PUSH5 0x6970667358 0x22 SLT KECCAK256 TIMESTAMP PUSH32 0x79A8D56A48AFCE519CEE3BF504D39C97BDED9E3FCA17F359A03D33B412D96473 PUSH16 0x6C634300081A00330000000000000000 "
				},
				"gasEstimates": {
					"creation": {
						"codeDepositCost": "282000",
						"executionCost": "322",
						"totalCost": "282322"
					},
					"external": {
						"USDC()": "infinite",
						"sendUSDC(address,uint256)": "infinite"
					}
				},
				"methodIdentifiers": {
					"USDC()": "89a30271",
					"sendUSDC(address,uint256)": "d79f5bad"
				}
			},
			"storageLayout": {
				"storage": [],
				"types": null
			},
			"userdoc": {
				"kind": "user",
				"methods": {},
				"version": 1
			}
		}
	}
}