{
	"RwatLending.sol": {
		"RwatLending": {
			"abi": [
				{
					"inputs": [
						{
							"internalType": "address",
							"name": "_tokenContract",
							"type": "address"
						},
						{
							"internalType": "address",
							"name": "_owner",
							"type": "address"
						}
					],
					"stateMutability": "nonpayable",
					"type": "constructor"
				},
				{
					"inputs": [],
					"name": "OnlyBorrowerCanCall",
					"type": "error"
				},
				{
					"inputs": [
						{
							"internalType": "address",
							"name": "owner",
							"type": "address"
						}
					],
					"name": "OwnableInvalidOwner",
					"type": "error"
				},
				{
					"inputs": [
						{
							"internalType": "address",
							"name": "account",
							"type": "address"
						}
					],
					"name": "OwnableUnauthorizedAccount",
					"type": "error"
				},
				{
					"inputs": [],
					"name": "SlippageToleranceExceeded",
					"type": "error"
				},
				{
					"anonymous": false,
					"inputs": [
						{
							"indexed": true,
							"internalType": "uint256",
							"name": "tokenId",
							"type": "uint256"
						},
						{
							"indexed": true,
							"internalType": "uint256",
							"name": "loanAmount",
							"type": "uint256"
						}
					],
					"name": "Borrow",
					"type": "event"
				},
				{
					"anonymous": false,
					"inputs": [
						{
							"indexed": true,
							"internalType": "address",
							"name": "borrower",
							"type": "address"
						},
						{
							"indexed": false,
							"internalType": "uint256",
							"name": "amount",
							"type": "uint256"
						}
					],
					"name": "LoanAmountTransferred",
					"type": "event"
				},
				{
					"anonymous": false,
					"inputs": [
						{
							"indexed": true,
							"internalType": "uint256",
							"name": "tokenId",
							"type": "uint256"
						},
						{
							"indexed": false,
							"internalType": "bool",
							"name": "approved",
							"type": "bool"
						}
					],
					"name": "LoanApproved",
					"type": "event"
				},
				{
					"anonymous": false,
					"inputs": [
						{
							"indexed": true,
							"internalType": "uint256",
							"name": "tokenId",
							"type": "uint256"
						}
					],
					"name": "LoanRepayed",
					"type": "event"
				},
				{
					"anonymous": false,
					"inputs": [
						{
							"indexed": true,
							"internalType": "uint256",
							"name": "tokenId",
							"type": "uint256"
						},
						{
							"indexed": true,
							"internalType": "uint256",
							"name": "loanAmount",
							"type": "uint256"
						}
					],
					"name": "LoanRequested",
					"type": "event"
				},
				{
					"anonymous": false,
					"inputs": [
						{
							"indexed": true,
							"internalType": "address",
							"name": "previousOwner",
							"type": "address"
						},
						{
							"indexed": true,
							"internalType": "address",
							"name": "newOwner",
							"type": "address"
						}
					],
					"name": "OwnershipTransferred",
					"type": "event"
				},
				{
					"anonymous": false,
					"inputs": [
						{
							"indexed": true,
							"internalType": "address",
							"name": "borrower",
							"type": "address"
						},
						{
							"indexed": true,
							"internalType": "uint256",
							"name": "tokenId",
							"type": "uint256"
						}
					],
					"name": "TokenReturned",
					"type": "event"
				},
				{
					"inputs": [
						{
							"internalType": "uint256",
							"name": "tokenId",
							"type": "uint256"
						}
					],
					"name": "approveLoan",
					"outputs": [],
					"stateMutability": "payable",
					"type": "function"
				},
				{
					"inputs": [
						{
							"internalType": "uint256",
							"name": "tokenId",
							"type": "uint256"
						}
					],
					"name": "getLoanDetails",
					"outputs": [
						{
							"internalType": "address",
							"name": "borrower",
							"type": "address"
						},
						{
							"internalType": "uint256",
							"name": "amountLoaned",
							"type": "uint256"
						},
						{
							"internalType": "bool",
							"name": "isApproved",
							"type": "bool"
						}
					],
					"stateMutability": "view",
					"type": "function"
				},
				{
					"inputs": [
						{
							"internalType": "address",
							"name": "",
							"type": "address"
						},
						{
							"internalType": "address",
							"name": "",
							"type": "address"
						},
						{
							"internalType": "uint256",
							"name": "",
							"type": "uint256"
						},
						{
							"internalType": "bytes",
							"name": "",
							"type": "bytes"
						}
					],
					"name": "onERC721Received",
					"outputs": [
						{
							"internalType": "bytes4",
							"name": "",
							"type": "bytes4"
						}
					],
					"stateMutability": "pure",
					"type": "function"
				},
				{
					"inputs": [],
					"name": "owner",
					"outputs": [
						{
							"internalType": "address",
							"name": "",
							"type": "address"
						}
					],
					"stateMutability": "view",
					"type": "function"
				},
				{
					"inputs": [],
					"name": "renounceOwnership",
					"outputs": [],
					"stateMutability": "nonpayable",
					"type": "function"
				},
				{
					"inputs": [
						{
							"internalType": "uint256",
							"name": "tokenId",
							"type": "uint256"
						}
					],
					"name": "repay",
					"outputs": [],
					"stateMutability": "payable",
					"type": "function"
				},
				{
					"inputs": [
						{
							"internalType": "uint256",
							"name": "tokenId",
							"type": "uint256"
						},
						{
							"internalType": "uint256",
							"name": "minLoanAmount",
							"type": "uint256"
						}
					],
					"name": "requestLoan",
					"outputs": [],
					"stateMutability": "nonpayable",
					"type": "function"
				},
				{
					"inputs": [],
					"name": "tokenContract",
					"outputs": [
						{
							"internalType": "contract IERC721",
							"name": "",
							"type": "address"
						}
					],
					"stateMutability": "view",
					"type": "function"
				},
				{
					"inputs": [
						{
							"internalType": "address",
							"name": "newOwner",
							"type": "address"
						}
					],
					"name": "transferOwnership",
					"outputs": [],
					"stateMutability": "nonpayable",
					"type": "function"
				}
			],
			"devdoc": {
				"errors": {
					"OwnableInvalidOwner(address)": [
						{
							"details": "The owner is not a valid owner account. (eg. `address(0)`)"
						}
					],
					"OwnableUnauthorizedAccount(address)": [
						{
							"details": "The caller account is not authorized to perform an operation."
						}
					]
				},
				"kind": "dev",
				"methods": {
					"owner()": {
						"details": "Returns the address of the current owner."
					},
					"renounceOwnership()": {
						"details": "Leaves the contract without owner. It will not be possible to call `onlyOwner` functions. Can only be called by the current owner. NOTE: Renouncing ownership will leave the contract without an owner, thereby disabling any functionality that is only available to the owner."
					},
					"transferOwnership(address)": {
						"details": "Transfers ownership of the contract to a new account (`newOwner`). Can only be called by the current owner."
					}
				},
				"version": 1
			},
			"evm": {
				"assembly": "    /* \"RwatLending.sol\":237:3590  contract RwatLending is Ownable, IERC721Receiver {... */\n  mstore(0x40, 0xa0)\n    /* \"RwatLending.sol\":1104:1228  constructor(address _tokenContract, address _owner) Ownable(_owner) {... */\n  callvalue\n  dup1\n  iszero\n  tag_1\n  jumpi\n  0x00\n  dup1\n  revert\ntag_1:\n  pop\n  mload(0x40)\n  sub(codesize, bytecodeSize)\n  dup1\n  bytecodeSize\n  dup4\n  codecopy\n  dup2\n  dup2\n  add\n  0x40\n  mstore\n  dup2\n  add\n  swap1\n  tag_2\n  swap2\n  swap1\n  tag_3\n  jump\t// in\ntag_2:\n    /* \"RwatLending.sol\":1164:1170  _owner */\n  dup1\n    /* \"@openzeppelin/contracts/access/Ownable.sol\":1297:1298  0 */\n  0x00\n    /* \"@openzeppelin/contracts/access/Ownable.sol\":1273:1299  initialOwner == address(0) */\n  0xffffffffffffffffffffffffffffffffffffffff\n  and\n    /* \"@openzeppelin/contracts/access/Ownable.sol\":1273:1285  initialOwner */\n  dup2\n    /* \"@openzeppelin/contracts/access/Ownable.sol\":1273:1299  initialOwner == address(0) */\n  0xffffffffffffffffffffffffffffffffffffffff\n  and\n  sub\n    /* \"@openzeppelin/contracts/access/Ownable.sol\":1269:1364  if (initialOwner == address(0)) {... */\n  tag_7\n  jumpi\n    /* \"@openzeppelin/contracts/access/Ownable.sol\":1350:1351  0 */\n  0x00\n    /* \"@openzeppelin/contracts/access/Ownable.sol\":1322:1353  OwnableInvalidOwner(address(0)) */\n  mload(0x40)\n  0x1e4fbdf700000000000000000000000000000000000000000000000000000000\n  dup2\n  mstore\n  0x04\n  add\n  tag_8\n  swap2\n  swap1\n  tag_9\n  jump\t// in\ntag_8:\n  mload(0x40)\n  dup1\n  swap2\n  sub\n  swap1\n  revert\n    /* \"@openzeppelin/contracts/access/Ownable.sol\":1269:1364  if (initialOwner == address(0)) {... */\ntag_7:\n    /* \"@openzeppelin/contracts/access/Ownable.sol\":1373:1405  _transferOwnership(initialOwner) */\n  tag_10\n    /* \"@openzeppelin/contracts/access/Ownable.sol\":1392:1404  initialOwner */\n  dup2\n    /* \"@openzeppelin/contracts/access/Ownable.sol\":1373:1391  _transferOwnership */\n  shl(0x20, tag_11)\n    /* \"@openzeppelin/contracts/access/Ownable.sol\":1373:1405  _transferOwnership(initialOwner) */\n  0x20\n  shr\n  jump\t// in\ntag_10:\n    /* \"@openzeppelin/contracts/access/Ownable.sol\":1225:1412  constructor(address initialOwner) {... */\n  pop\n    /* \"RwatLending.sol\":1206:1220  _tokenContract */\n  dup2\n    /* \"RwatLending.sol\":1182:1221  tokenContract = IERC721(_tokenContract) */\n  0xffffffffffffffffffffffffffffffffffffffff\n  and\n  0x80\n  dup2\n  0xffffffffffffffffffffffffffffffffffffffff\n  and\n  dup2\n  mstore\n  pop\n  pop\n    /* \"RwatLending.sol\":1104:1228  constructor(address _tokenContract, address _owner) Ownable(_owner) {... */\n  pop\n  pop\n    /* \"RwatLending.sol\":237:3590  contract RwatLending is Ownable, IERC721Receiver {... */\n  jump(tag_13)\n    /* \"@openzeppelin/contracts/access/Ownable.sol\":2912:3099  function _transferOwnership(address newOwner) internal virtual {... */\ntag_11:\n    /* \"@openzeppelin/contracts/access/Ownable.sol\":2985:3001  address oldOwner */\n  0x00\n    /* \"@openzeppelin/contracts/access/Ownable.sol\":3004:3010  _owner */\n  dup1\n  0x00\n  swap1\n  sload\n  swap1\n  0x0100\n  exp\n  swap1\n  div\n  0xffffffffffffffffffffffffffffffffffffffff\n  and\n    /* \"@openzeppelin/contracts/access/Ownable.sol\":2985:3010  address oldOwner = _owner */\n  swap1\n  pop\n    /* \"@openzeppelin/contracts/access/Ownable.sol\":3029:3037  newOwner */\n  dup2\n    /* \"@openzeppelin/contracts/access/Ownable.sol\":3020:3026  _owner */\n  0x00\n  dup1\n    /* \"@openzeppelin/contracts/access/Ownable.sol\":3020:3037  _owner = newOwner */\n  0x0100\n  exp\n  dup2\n  sload\n  dup2\n  0xffffffffffffffffffffffffffffffffffffffff\n  mul\n  not\n  and\n  swap1\n  dup4\n  0xffffffffffffffffffffffffffffffffffffffff\n  and\n  mul\n  or\n  swap1\n  sstore\n  pop\n    /* \"@openzeppelin/contracts/access/Ownable.sol\":3083:3091  newOwner */\n  dup2\n    /* \"@openzeppelin/contracts/access/Ownable.sol\":3052:3092  OwnershipTransferred(oldOwner, newOwner) */\n  0xffffffffffffffffffffffffffffffffffffffff\n  and\n    /* \"@openzeppelin/contracts/access/Ownable.sol\":3073:3081  oldOwner */\n  dup2\n    /* \"@openzeppelin/contracts/access/Ownable.sol\":3052:3092  OwnershipTransferred(oldOwner, newOwner) */\n  0xffffffffffffffffffffffffffffffffffffffff\n  and\n  0x8be0079c531659141344cd1fd0a4f28419497f9722a3daafe3b4186f6b6457e0\n  mload(0x40)\n  mload(0x40)\n  dup1\n  swap2\n  sub\n  swap1\n  log3\n    /* \"@openzeppelin/contracts/access/Ownable.sol\":2975:3099  {... */\n  pop\n    /* \"@openzeppelin/contracts/access/Ownable.sol\":2912:3099  function _transferOwnership(address newOwner) internal virtual {... */\n  pop\n  jump\t// out\n    /* \"#utility.yul\":88:205   */\ntag_16:\n    /* \"#utility.yul\":197:198   */\n  0x00\n    /* \"#utility.yul\":194:195   */\n  dup1\n    /* \"#utility.yul\":187:199   */\n  revert\n    /* \"#utility.yul\":334:460   */\ntag_18:\n    /* \"#utility.yul\":371:378   */\n  0x00\n    /* \"#utility.yul\":411:453   */\n  0xffffffffffffffffffffffffffffffffffffffff\n    /* \"#utility.yul\":404:409   */\n  dup3\n    /* \"#utility.yul\":400:454   */\n  and\n    /* \"#utility.yul\":389:454   */\n  swap1\n  pop\n    /* \"#utility.yul\":334:460   */\n  swap2\n  swap1\n  pop\n  jump\t// out\n    /* \"#utility.yul\":466:562   */\ntag_19:\n    /* \"#utility.yul\":503:510   */\n  0x00\n    /* \"#utility.yul\":532:556   */\n  tag_29\n    /* \"#utility.yul\":550:555   */\n  dup3\n    /* \"#utility.yul\":532:556   */\n  tag_18\n  jump\t// in\ntag_29:\n    /* \"#utility.yul\":521:556   */\n  swap1\n  pop\n    /* \"#utility.yul\":466:562   */\n  swap2\n  swap1\n  pop\n  jump\t// out\n    /* \"#utility.yul\":568:690   */\ntag_20:\n    /* \"#utility.yul\":641:665   */\n  tag_31\n    /* \"#utility.yul\":659:664   */\n  dup2\n    /* \"#utility.yul\":641:665   */\n  tag_19\n  jump\t// in\ntag_31:\n    /* \"#utility.yul\":634:639   */\n  dup2\n    /* \"#utility.yul\":631:666   */\n  eq\n    /* \"#utility.yul\":621:684   */\n  tag_32\n  jumpi\n    /* \"#utility.yul\":680:681   */\n  0x00\n    /* \"#utility.yul\":677:678   */\n  dup1\n    /* \"#utility.yul\":670:682   */\n  revert\n    /* \"#utility.yul\":621:684   */\ntag_32:\n    /* \"#utility.yul\":568:690   */\n  pop\n  jump\t// out\n    /* \"#utility.yul\":696:839   */\ntag_21:\n    /* \"#utility.yul\":753:758   */\n  0x00\n    /* \"#utility.yul\":784:790   */\n  dup2\n    /* \"#utility.yul\":778:791   */\n  mload\n    /* \"#utility.yul\":769:791   */\n  swap1\n  pop\n    /* \"#utility.yul\":800:833   */\n  tag_34\n    /* \"#utility.yul\":827:832   */\n  dup2\n    /* \"#utility.yul\":800:833   */\n  tag_20\n  jump\t// in\ntag_34:\n    /* \"#utility.yul\":696:839   */\n  swap3\n  swap2\n  pop\n  pop\n  jump\t// out\n    /* \"#utility.yul\":845:1352   */\ntag_3:\n    /* \"#utility.yul\":924:930   */\n  0x00\n    /* \"#utility.yul\":932:938   */\n  dup1\n    /* \"#utility.yul\":981:983   */\n  0x40\n    /* \"#utility.yul\":969:978   */\n  dup4\n    /* \"#utility.yul\":960:967   */\n  dup6\n    /* \"#utility.yul\":956:979   */\n  sub\n    /* \"#utility.yul\":952:984   */\n  slt\n    /* \"#utility.yul\":949:1068   */\n  iszero\n  tag_36\n  jumpi\n    /* \"#utility.yul\":987:1066   */\n  tag_37\n  tag_16\n  jump\t// in\ntag_37:\n    /* \"#utility.yul\":949:1068   */\ntag_36:\n    /* \"#utility.yul\":1107:1108   */\n  0x00\n    /* \"#utility.yul\":1132:1196   */\n  tag_38\n    /* \"#utility.yul\":1188:1195   */\n  dup6\n    /* \"#utility.yul\":1179:1185   */\n  dup3\n    /* \"#utility.yul\":1168:1177   */\n  dup7\n    /* \"#utility.yul\":1164:1186   */\n  add\n    /* \"#utility.yul\":1132:1196   */\n  tag_21\n  jump\t// in\ntag_38:\n    /* \"#utility.yul\":1122:1196   */\n  swap3\n  pop\n    /* \"#utility.yul\":1078:1206   */\n  pop\n    /* \"#utility.yul\":1245:1247   */\n  0x20\n    /* \"#utility.yul\":1271:1335   */\n  tag_39\n    /* \"#utility.yul\":1327:1334   */\n  dup6\n    /* \"#utility.yul\":1318:1324   */\n  dup3\n    /* \"#utility.yul\":1307:1316   */\n  dup7\n    /* \"#utility.yul\":1303:1325   */\n  add\n    /* \"#utility.yul\":1271:1335   */\n  tag_21\n  jump\t// in\ntag_39:\n    /* \"#utility.yul\":1261:1335   */\n  swap2\n  pop\n    /* \"#utility.yul\":1216:1345   */\n  pop\n    /* \"#utility.yul\":845:1352   */\n  swap3\n  pop\n  swap3\n  swap1\n  pop\n  jump\t// out\n    /* \"#utility.yul\":1358:1476   */\ntag_22:\n    /* \"#utility.yul\":1445:1469   */\n  tag_41\n    /* \"#utility.yul\":1463:1468   */\n  dup2\n    /* \"#utility.yul\":1445:1469   */\n  tag_19\n  jump\t// in\ntag_41:\n    /* \"#utility.yul\":1440:1443   */\n  dup3\n    /* \"#utility.yul\":1433:1470   */\n  mstore\n    /* \"#utility.yul\":1358:1476   */\n  pop\n  pop\n  jump\t// out\n    /* \"#utility.yul\":1482:1704   */\ntag_9:\n    /* \"#utility.yul\":1575:1579   */\n  0x00\n    /* \"#utility.yul\":1613:1615   */\n  0x20\n    /* \"#utility.yul\":1602:1611   */\n  dup3\n    /* \"#utility.yul\":1598:1616   */\n  add\n    /* \"#utility.yul\":1590:1616   */\n  swap1\n  pop\n    /* \"#utility.yul\":1626:1697   */\n  tag_43\n    /* \"#utility.yul\":1694:1695   */\n  0x00\n    /* \"#utility.yul\":1683:1692   */\n  dup4\n    /* \"#utility.yul\":1679:1696   */\n  add\n    /* \"#utility.yul\":1670:1676   */\n  dup5\n    /* \"#utility.yul\":1626:1697   */\n  tag_22\n  jump\t// in\ntag_43:\n    /* \"#utility.yul\":1482:1704   */\n  swap3\n  swap2\n  pop\n  pop\n  jump\t// out\n    /* \"RwatLending.sol\":237:3590  contract RwatLending is Ownable, IERC721Receiver {... */\ntag_13:\n  mload(0x80)\n  codecopy(0x00, dataOffset(sub_0), dataSize(sub_0))\n  0x00\n  assignImmutable(\"0x792fb9957b0c7c0af16304f5602126f9e16a84a7f6f8a55e0144210b32419511\")\n  return(0x00, dataSize(sub_0))\nstop\n\nsub_0: assembly {\n        /* \"RwatLending.sol\":237:3590  contract RwatLending is Ownable, IERC721Receiver {... */\n      mstore(0x40, 0x80)\n      jumpi(tag_1, lt(calldatasize, 0x04))\n      shr(0xe0, calldataload(0x00))\n      dup1\n      0x715018a6\n      gt\n      tag_11\n      jumpi\n      dup1\n      0x715018a6\n      eq\n      tag_6\n      jumpi\n      dup1\n      0x8da5cb5b\n      eq\n      tag_7\n      jumpi\n      dup1\n      0xaa452fa6\n      eq\n      tag_8\n      jumpi\n      dup1\n      0xaadc1ac1\n      eq\n      tag_9\n      jumpi\n      dup1\n      0xf2fde38b\n      eq\n      tag_10\n      jumpi\n      jump(tag_1)\n    tag_11:\n      dup1\n      0x150b7a02\n      eq\n      tag_2\n      jumpi\n      dup1\n      0x371fd8e6\n      eq\n      tag_3\n      jumpi\n      dup1\n      0x55a373d6\n      eq\n      tag_4\n      jumpi\n      dup1\n      0x66877b8d\n      eq\n      tag_5\n      jumpi\n    tag_1:\n      0x00\n      dup1\n      revert\n        /* \"RwatLending.sol\":3424:3587  function onERC721Received(address, address, uint256, bytes calldata) external pure override returns (bytes4) {... */\n    tag_2:\n      callvalue\n      dup1\n      iszero\n      tag_12\n      jumpi\n      0x00\n      dup1\n      revert\n    tag_12:\n      pop\n      tag_13\n      0x04\n      dup1\n      calldatasize\n      sub\n      dup2\n      add\n      swap1\n      tag_14\n      swap2\n      swap1\n      tag_15\n      jump\t// in\n    tag_14:\n      tag_16\n      jump\t// in\n    tag_13:\n      mload(0x40)\n      tag_17\n      swap2\n      swap1\n      tag_18\n      jump\t// in\n    tag_17:\n      mload(0x40)\n      dup1\n      swap2\n      sub\n      swap1\n      return\n        /* \"RwatLending.sol\":2520:3160  function repay(uint256 tokenId) external payable {... */\n    tag_3:\n      tag_19\n      0x04\n      dup1\n      calldatasize\n      sub\n      dup2\n      add\n      swap1\n      tag_20\n      swap2\n      swap1\n      tag_21\n      jump\t// in\n    tag_20:\n      tag_22\n      jump\t// in\n    tag_19:\n      stop\n        /* \"RwatLending.sol\":1059:1097  IERC721 public immutable tokenContract */\n    tag_4:\n      callvalue\n      dup1\n      iszero\n      tag_23\n      jumpi\n      0x00\n      dup1\n      revert\n    tag_23:\n      pop\n      tag_24\n      tag_25\n      jump\t// in\n    tag_24:\n      mload(0x40)\n      tag_26\n      swap2\n      swap1\n      tag_27\n      jump\t// in\n    tag_26:\n      mload(0x40)\n      dup1\n      swap2\n      sub\n      swap1\n      return\n        /* \"RwatLending.sol\":3166:3418  function getLoanDetails(uint256 tokenId) external view returns (address borrower, uint256 amountLoaned, bool isApproved) {... */\n    tag_5:\n      callvalue\n      dup1\n      iszero\n      tag_28\n      jumpi\n      0x00\n      dup1\n      revert\n    tag_28:\n      pop\n      tag_29\n      0x04\n      dup1\n      calldatasize\n      sub\n      dup2\n      add\n      swap1\n      tag_30\n      swap2\n      swap1\n      tag_21\n      jump\t// in\n    tag_30:\n      tag_31\n      jump\t// in\n    tag_29:\n      mload(0x40)\n      tag_32\n      swap4\n      swap3\n      swap2\n      swap1\n      tag_33\n      jump\t// in\n    tag_32:\n      mload(0x40)\n      dup1\n      swap2\n      sub\n      swap1\n      return\n        /* \"@openzeppelin/contracts/access/Ownable.sol\":2293:2394  function renounceOwnership() public virtual onlyOwner {... */\n    tag_6:\n      callvalue\n      dup1\n      iszero\n      tag_34\n      jumpi\n      0x00\n      dup1\n      revert\n    tag_34:\n      pop\n      tag_35\n      tag_36\n      jump\t// in\n    tag_35:\n      stop\n        /* \"@openzeppelin/contracts/access/Ownable.sol\":1638:1723  function owner() public view virtual returns (address) {... */\n    tag_7:\n      callvalue\n      dup1\n      iszero\n      tag_37\n      jumpi\n      0x00\n      dup1\n      revert\n    tag_37:\n      pop\n      tag_38\n      tag_39\n      jump\t// in\n    tag_38:\n      mload(0x40)\n      tag_40\n      swap2\n      swap1\n      tag_41\n      jump\t// in\n    tag_40:\n      mload(0x40)\n      dup1\n      swap2\n      sub\n      swap1\n      return\n        /* \"RwatLending.sol\":1234:1655  function requestLoan(uint256 tokenId, uint256 minLoanAmount) external {... */\n    tag_8:\n      callvalue\n      dup1\n      iszero\n      tag_42\n      jumpi\n      0x00\n      dup1\n      revert\n    tag_42:\n      pop\n      tag_43\n      0x04\n      dup1\n      calldatasize\n      sub\n      dup2\n      add\n      swap1\n      tag_44\n      swap2\n      swap1\n      tag_45\n      jump\t// in\n    tag_44:\n      tag_46\n      jump\t// in\n    tag_43:\n      stop\n        /* \"RwatLending.sol\":1661:2514  function approveLoan(uint256 tokenId) external onlyOwner payable {... */\n    tag_9:\n      tag_47\n      0x04\n      dup1\n      calldatasize\n      sub\n      dup2\n      add\n      swap1\n      tag_48\n      swap2\n      swap1\n      tag_21\n      jump\t// in\n    tag_48:\n      tag_49\n      jump\t// in\n    tag_47:\n      stop\n        /* \"@openzeppelin/contracts/access/Ownable.sol\":2543:2758  function transferOwnership(address newOwner) public virtual onlyOwner {... */\n    tag_10:\n      callvalue\n      dup1\n      iszero\n      tag_50\n      jumpi\n      0x00\n      dup1\n      revert\n    tag_50:\n      pop\n      tag_51\n      0x04\n      dup1\n      calldatasize\n      sub\n      dup2\n      add\n      swap1\n      tag_52\n      swap2\n      swap1\n      tag_53\n      jump\t// in\n    tag_52:\n      tag_54\n      jump\t// in\n    tag_51:\n      stop\n        /* \"RwatLending.sol\":3424:3587  function onERC721Received(address, address, uint256, bytes calldata) external pure override returns (bytes4) {... */\n    tag_16:\n        /* \"RwatLending.sol\":3525:3531  bytes4 */\n      0x00\n        /* \"RwatLending.sol\":3550:3580  this.onERC721Received.selector */\n      shl(0xe0, 0x150b7a02)\n        /* \"RwatLending.sol\":3543:3580  return this.onERC721Received.selector */\n      swap1\n      pop\n        /* \"RwatLending.sol\":3424:3587  function onERC721Received(address, address, uint256, bytes calldata) external pure override returns (bytes4) {... */\n      swap6\n      swap5\n      pop\n      pop\n      pop\n      pop\n      pop\n      jump\t// out\n        /* \"RwatLending.sol\":2520:3160  function repay(uint256 tokenId) external payable {... */\n    tag_22:\n        /* \"RwatLending.sol\":2579:2609  LoanDetails memory loanDetails */\n      0x00\n        /* \"RwatLending.sol\":2612:2623  activeLoans */\n      0x01\n        /* \"RwatLending.sol\":2612:2632  activeLoans[tokenId] */\n      0x00\n        /* \"RwatLending.sol\":2624:2631  tokenId */\n      dup4\n        /* \"RwatLending.sol\":2612:2632  activeLoans[tokenId] */\n      dup2\n      mstore\n      0x20\n      add\n      swap1\n      dup2\n      mstore\n      0x20\n      add\n      0x00\n      keccak256\n        /* \"RwatLending.sol\":2579:2632  LoanDetails memory loanDetails = activeLoans[tokenId] */\n      mload(0x40)\n      dup1\n      0x60\n      add\n      0x40\n      mstore\n      swap1\n      dup2\n      0x00\n      dup3\n      add\n      0x00\n      swap1\n      sload\n      swap1\n      0x0100\n      exp\n      swap1\n      div\n      0xffffffffffffffffffffffffffffffffffffffff\n      and\n      0xffffffffffffffffffffffffffffffffffffffff\n      and\n      0xffffffffffffffffffffffffffffffffffffffff\n      and\n      dup2\n      mstore\n      0x20\n      add\n      0x01\n      dup3\n      add\n      sload\n      dup2\n      mstore\n      0x20\n      add\n      0x02\n      dup3\n      add\n      0x00\n      swap1\n      sload\n      swap1\n      0x0100\n      exp\n      swap1\n      div\n      0xff\n      and\n      iszero\n      iszero\n      iszero\n      iszero\n      dup2\n      mstore\n      pop\n      pop\n      swap1\n      pop\n        /* \"RwatLending.sol\":2664:2675  loanDetails */\n      dup1\n        /* \"RwatLending.sol\":2664:2684  loanDetails.borrower */\n      0x00\n      add\n      mload\n        /* \"RwatLending.sol\":2650:2684  msg.sender == loanDetails.borrower */\n      0xffffffffffffffffffffffffffffffffffffffff\n      and\n        /* \"RwatLending.sol\":2650:2660  msg.sender */\n      caller\n        /* \"RwatLending.sol\":2650:2684  msg.sender == loanDetails.borrower */\n      0xffffffffffffffffffffffffffffffffffffffff\n      and\n      eq\n        /* \"RwatLending.sol\":2642:2711  require(msg.sender == loanDetails.borrower, \"Only borrower can call\") */\n      tag_57\n      jumpi\n      mload(0x40)\n      0x08c379a000000000000000000000000000000000000000000000000000000000\n      dup2\n      mstore\n      0x04\n      add\n      tag_58\n      swap1\n      tag_59\n      jump\t// in\n    tag_58:\n      mload(0x40)\n      dup1\n      swap2\n      sub\n      swap1\n      revert\n    tag_57:\n        /* \"RwatLending.sol\":2790:2797  owner() */\n      tag_60\n        /* \"RwatLending.sol\":2790:2795  owner */\n      tag_39\n        /* \"RwatLending.sol\":2790:2797  owner() */\n      jump\t// in\n    tag_60:\n        /* \"RwatLending.sol\":2782:2807  payable(owner()).transfer */\n      0xffffffffffffffffffffffffffffffffffffffff\n      and\n        /* \"RwatLending.sol\":2782:2833  payable(owner()).transfer(loanDetails.amountLoaned) */\n      0x08fc\n        /* \"RwatLending.sol\":2808:2819  loanDetails */\n      dup3\n        /* \"RwatLending.sol\":2808:2832  loanDetails.amountLoaned */\n      0x20\n      add\n      mload\n        /* \"RwatLending.sol\":2782:2833  payable(owner()).transfer(loanDetails.amountLoaned) */\n      swap1\n      dup2\n      iszero\n      mul\n      swap1\n      mload(0x40)\n      0x00\n      mload(0x40)\n      dup1\n      dup4\n      sub\n      dup2\n      dup6\n      dup9\n      dup9\n      call\n      swap4\n      pop\n      pop\n      pop\n      pop\n      iszero\n      dup1\n      iszero\n      tag_62\n      jumpi\n      returndatasize\n      0x00\n      dup1\n      returndatacopy\n      revert(0x00, returndatasize)\n    tag_62:\n      pop\n        /* \"RwatLending.sol\":2886:2899  tokenContract */\n      immutable(\"0x792fb9957b0c7c0af16304f5602126f9e16a84a7f6f8a55e0144210b32419511\")\n        /* \"RwatLending.sol\":2886:2916  tokenContract.safeTransferFrom */\n      0xffffffffffffffffffffffffffffffffffffffff\n      and\n      0x42842e0e\n        /* \"RwatLending.sol\":2925:2929  this */\n      address\n        /* \"RwatLending.sol\":2932:2943  loanDetails */\n      dup4\n        /* \"RwatLending.sol\":2932:2952  loanDetails.borrower */\n      0x00\n      add\n      mload\n        /* \"RwatLending.sol\":2954:2961  tokenId */\n      dup6\n        /* \"RwatLending.sol\":2886:2962  tokenContract.safeTransferFrom(address(this), loanDetails.borrower, tokenId) */\n      mload(0x40)\n      dup5\n      0xffffffff\n      and\n      0xe0\n      shl\n      dup2\n      mstore\n      0x04\n      add\n      tag_63\n      swap4\n      swap3\n      swap2\n      swap1\n      tag_64\n      jump\t// in\n    tag_63:\n      0x00\n      mload(0x40)\n      dup1\n      dup4\n      sub\n      dup2\n      0x00\n      dup8\n      dup1\n      extcodesize\n      iszero\n      dup1\n      iszero\n      tag_65\n      jumpi\n      0x00\n      dup1\n      revert\n    tag_65:\n      pop\n      gas\n      call\n      iszero\n      dup1\n      iszero\n      tag_67\n      jumpi\n      returndatasize\n      0x00\n      dup1\n      returndatacopy\n      revert(0x00, returndatasize)\n    tag_67:\n      pop\n      pop\n      pop\n      pop\n        /* \"RwatLending.sol\":3013:3020  tokenId */\n      dup2\n        /* \"RwatLending.sol\":3001:3021  LoanRepayed(tokenId) */\n      0x7a2863224f2483b562ae02ffb50ecee43fcf056425cd3130866c696435bc5b06\n      mload(0x40)\n      mload(0x40)\n      dup1\n      swap2\n      sub\n      swap1\n      log2\n        /* \"RwatLending.sol\":3072:3079  tokenId */\n      dup2\n        /* \"RwatLending.sol\":3050:3061  loanDetails */\n      dup2\n        /* \"RwatLending.sol\":3050:3070  loanDetails.borrower */\n      0x00\n      add\n      mload\n        /* \"RwatLending.sol\":3036:3080  TokenReturned(loanDetails.borrower, tokenId) */\n      0xffffffffffffffffffffffffffffffffffffffff\n      and\n      0xeaf449319c042c9ba3474fa0c5329eb58cd1f23be110cdbf9d697b8d303dac15\n      mload(0x40)\n      mload(0x40)\n      dup1\n      swap2\n      sub\n      swap1\n      log3\n        /* \"RwatLending.sol\":3133:3144  activeLoans */\n      0x01\n        /* \"RwatLending.sol\":3133:3153  activeLoans[tokenId] */\n      0x00\n        /* \"RwatLending.sol\":3145:3152  tokenId */\n      dup4\n        /* \"RwatLending.sol\":3133:3153  activeLoans[tokenId] */\n      dup2\n      mstore\n      0x20\n      add\n      swap1\n      dup2\n      mstore\n      0x20\n      add\n      0x00\n      keccak256\n      0x00\n        /* \"RwatLending.sol\":3126:3153  delete activeLoans[tokenId] */\n      dup1\n      dup3\n      add\n      exp(0x0100, 0x00)\n      dup2\n      sload\n      swap1\n      0xffffffffffffffffffffffffffffffffffffffff\n      mul\n      not\n      and\n      swap1\n      sstore\n      0x01\n      dup3\n      add\n      0x00\n      swap1\n      sstore\n      0x02\n      dup3\n      add\n      exp(0x0100, 0x00)\n      dup2\n      sload\n      swap1\n      0xff\n      mul\n      not\n      and\n      swap1\n      sstore\n      pop\n      pop\n        /* \"RwatLending.sol\":2569:3160  {... */\n      pop\n        /* \"RwatLending.sol\":2520:3160  function repay(uint256 tokenId) external payable {... */\n      pop\n      jump\t// out\n        /* \"RwatLending.sol\":1059:1097  IERC721 public immutable tokenContract */\n    tag_25:\n      immutable(\"0x792fb9957b0c7c0af16304f5602126f9e16a84a7f6f8a55e0144210b32419511\")\n      dup2\n      jump\t// out\n        /* \"RwatLending.sol\":3166:3418  function getLoanDetails(uint256 tokenId) external view returns (address borrower, uint256 amountLoaned, bool isApproved) {... */\n    tag_31:\n        /* \"RwatLending.sol\":3230:3246  address borrower */\n      0x00\n        /* \"RwatLending.sol\":3248:3268  uint256 amountLoaned */\n      dup1\n        /* \"RwatLending.sol\":3270:3285  bool isApproved */\n      0x00\n        /* \"RwatLending.sol\":3297:3320  LoanDetails memory loan */\n      dup1\n        /* \"RwatLending.sol\":3323:3334  activeLoans */\n      0x01\n        /* \"RwatLending.sol\":3323:3343  activeLoans[tokenId] */\n      0x00\n        /* \"RwatLending.sol\":3335:3342  tokenId */\n      dup7\n        /* \"RwatLending.sol\":3323:3343  activeLoans[tokenId] */\n      dup2\n      mstore\n      0x20\n      add\n      swap1\n      dup2\n      mstore\n      0x20\n      add\n      0x00\n      keccak256\n        /* \"RwatLending.sol\":3297:3343  LoanDetails memory loan = activeLoans[tokenId] */\n      mload(0x40)\n      dup1\n      0x60\n      add\n      0x40\n      mstore\n      swap1\n      dup2\n      0x00\n      dup3\n      add\n      0x00\n      swap1\n      sload\n      swap1\n      0x0100\n      exp\n      swap1\n      div\n      0xffffffffffffffffffffffffffffffffffffffff\n      and\n      0xffffffffffffffffffffffffffffffffffffffff\n      and\n      0xffffffffffffffffffffffffffffffffffffffff\n      and\n      dup2\n      mstore\n      0x20\n      add\n      0x01\n      dup3\n      add\n      sload\n      dup2\n      mstore\n      0x20\n      add\n      0x02\n      dup3\n      add\n      0x00\n      swap1\n      sload\n      swap1\n      0x0100\n      exp\n      swap1\n      div\n      0xff\n      and\n      iszero\n      iszero\n      iszero\n      iszero\n      dup2\n      mstore\n      pop\n      pop\n      swap1\n      pop\n        /* \"RwatLending.sol\":3361:3365  loan */\n      dup1\n        /* \"RwatLending.sol\":3361:3374  loan.borrower */\n      0x00\n      add\n      mload\n        /* \"RwatLending.sol\":3376:3380  loan */\n      dup2\n        /* \"RwatLending.sol\":3376:3393  loan.amountLoaned */\n      0x20\n      add\n      mload\n        /* \"RwatLending.sol\":3395:3399  loan */\n      dup3\n        /* \"RwatLending.sol\":3395:3410  loan.isApproved */\n      0x40\n      add\n      mload\n        /* \"RwatLending.sol\":3353:3411  return (loan.borrower, loan.amountLoaned, loan.isApproved) */\n      swap4\n      pop\n      swap4\n      pop\n      swap4\n      pop\n      pop\n        /* \"RwatLending.sol\":3166:3418  function getLoanDetails(uint256 tokenId) external view returns (address borrower, uint256 amountLoaned, bool isApproved) {... */\n      swap2\n      swap4\n      swap1\n      swap3\n      pop\n      jump\t// out\n        /* \"@openzeppelin/contracts/access/Ownable.sol\":2293:2394  function renounceOwnership() public virtual onlyOwner {... */\n    tag_36:\n        /* \"@openzeppelin/contracts/access/Ownable.sol\":1531:1544  _checkOwner() */\n      tag_70\n        /* \"@openzeppelin/contracts/access/Ownable.sol\":1531:1542  _checkOwner */\n      tag_71\n        /* \"@openzeppelin/contracts/access/Ownable.sol\":1531:1544  _checkOwner() */\n      jump\t// in\n    tag_70:\n        /* \"@openzeppelin/contracts/access/Ownable.sol\":2357:2387  _transferOwnership(address(0)) */\n      tag_73\n        /* \"@openzeppelin/contracts/access/Ownable.sol\":2384:2385  0 */\n      0x00\n        /* \"@openzeppelin/contracts/access/Ownable.sol\":2357:2375  _transferOwnership */\n      tag_74\n        /* \"@openzeppelin/contracts/access/Ownable.sol\":2357:2387  _transferOwnership(address(0)) */\n      jump\t// in\n    tag_73:\n        /* \"@openzeppelin/contracts/access/Ownable.sol\":2293:2394  function renounceOwnership() public virtual onlyOwner {... */\n      jump\t// out\n        /* \"@openzeppelin/contracts/access/Ownable.sol\":1638:1723  function owner() public view virtual returns (address) {... */\n    tag_39:\n        /* \"@openzeppelin/contracts/access/Ownable.sol\":1684:1691  address */\n      0x00\n        /* \"@openzeppelin/contracts/access/Ownable.sol\":1710:1716  _owner */\n      dup1\n      0x00\n      swap1\n      sload\n      swap1\n      0x0100\n      exp\n      swap1\n      div\n      0xffffffffffffffffffffffffffffffffffffffff\n      and\n        /* \"@openzeppelin/contracts/access/Ownable.sol\":1703:1716  return _owner */\n      swap1\n      pop\n        /* \"@openzeppelin/contracts/access/Ownable.sol\":1638:1723  function owner() public view virtual returns (address) {... */\n      swap1\n      jump\t// out\n        /* \"RwatLending.sol\":1234:1655  function requestLoan(uint256 tokenId, uint256 minLoanAmount) external {... */\n    tag_46:\n        /* \"RwatLending.sol\":1366:1379  tokenContract */\n      immutable(\"0x792fb9957b0c7c0af16304f5602126f9e16a84a7f6f8a55e0144210b32419511\")\n        /* \"RwatLending.sol\":1366:1396  tokenContract.safeTransferFrom */\n      0xffffffffffffffffffffffffffffffffffffffff\n      and\n      0x42842e0e\n        /* \"RwatLending.sol\":1397:1407  msg.sender */\n      caller\n        /* \"RwatLending.sol\":1417:1421  this */\n      address\n        /* \"RwatLending.sol\":1424:1431  tokenId */\n      dup6\n        /* \"RwatLending.sol\":1366:1432  tokenContract.safeTransferFrom(msg.sender, address(this), tokenId) */\n      mload(0x40)\n      dup5\n      0xffffffff\n      and\n      0xe0\n      shl\n      dup2\n      mstore\n      0x04\n      add\n      tag_77\n      swap4\n      swap3\n      swap2\n      swap1\n      tag_64\n      jump\t// in\n    tag_77:\n      0x00\n      mload(0x40)\n      dup1\n      dup4\n      sub\n      dup2\n      0x00\n      dup8\n      dup1\n      extcodesize\n      iszero\n      dup1\n      iszero\n      tag_78\n      jumpi\n      0x00\n      dup1\n      revert\n    tag_78:\n      pop\n      gas\n      call\n      iszero\n      dup1\n      iszero\n      tag_80\n      jumpi\n      returndatasize\n      0x00\n      dup1\n      returndatacopy\n      revert(0x00, returndatasize)\n    tag_80:\n      pop\n      pop\n      pop\n      pop\n        /* \"RwatLending.sol\":1466:1595  LoanDetails({... */\n      mload(0x40)\n      dup1\n      0x60\n      add\n      0x40\n      mstore\n      dup1\n        /* \"RwatLending.sol\":1502:1512  msg.sender */\n      caller\n        /* \"RwatLending.sol\":1466:1595  LoanDetails({... */\n      0xffffffffffffffffffffffffffffffffffffffff\n      and\n      dup2\n      mstore\n      0x20\n      add\n        /* \"RwatLending.sol\":1540:1553  minLoanAmount */\n      dup3\n        /* \"RwatLending.sol\":1466:1595  LoanDetails({... */\n      dup2\n      mstore\n      0x20\n      add\n        /* \"RwatLending.sol\":1579:1584  false */\n      0x00\n        /* \"RwatLending.sol\":1466:1595  LoanDetails({... */\n      iszero\n      iszero\n      dup2\n      mstore\n      pop\n        /* \"RwatLending.sol\":1443:1454  activeLoans */\n      0x01\n        /* \"RwatLending.sol\":1443:1463  activeLoans[tokenId] */\n      0x00\n        /* \"RwatLending.sol\":1455:1462  tokenId */\n      dup5\n        /* \"RwatLending.sol\":1443:1463  activeLoans[tokenId] */\n      dup2\n      mstore\n      0x20\n      add\n      swap1\n      dup2\n      mstore\n      0x20\n      add\n      0x00\n      keccak256\n        /* \"RwatLending.sol\":1443:1595  activeLoans[tokenId] = LoanDetails({... */\n      0x00\n      dup3\n      add\n      mload\n      dup2\n      0x00\n      add\n      exp(0x0100, 0x00)\n      dup2\n      sload\n      dup2\n      0xffffffffffffffffffffffffffffffffffffffff\n      mul\n      not\n      and\n      swap1\n      dup4\n      0xffffffffffffffffffffffffffffffffffffffff\n      and\n      mul\n      or\n      swap1\n      sstore\n      pop\n      0x20\n      dup3\n      add\n      mload\n      dup2\n      0x01\n      add\n      sstore\n      0x40\n      dup3\n      add\n      mload\n      dup2\n      0x02\n      add\n      exp(0x0100, 0x00)\n      dup2\n      sload\n      dup2\n      0xff\n      mul\n      not\n      and\n      swap1\n      dup4\n      iszero\n      iszero\n      mul\n      or\n      swap1\n      sstore\n      pop\n      swap1\n      pop\n      pop\n        /* \"RwatLending.sol\":1634:1647  minLoanAmount */\n      dup1\n        /* \"RwatLending.sol\":1625:1632  tokenId */\n      dup3\n        /* \"RwatLending.sol\":1611:1648  LoanRequested(tokenId, minLoanAmount) */\n      0xa07a6b72ca66d0c6f7160d8306b176fdfd7ed49e65c72e2221116b463718246c\n      mload(0x40)\n      mload(0x40)\n      dup1\n      swap2\n      sub\n      swap1\n      log3\n        /* \"RwatLending.sol\":1234:1655  function requestLoan(uint256 tokenId, uint256 minLoanAmount) external {... */\n      pop\n      pop\n      jump\t// out\n        /* \"RwatLending.sol\":1661:2514  function approveLoan(uint256 tokenId) external onlyOwner payable {... */\n    tag_49:\n        /* \"@openzeppelin/contracts/access/Ownable.sol\":1531:1544  _checkOwner() */\n      tag_82\n        /* \"@openzeppelin/contracts/access/Ownable.sol\":1531:1542  _checkOwner */\n      tag_71\n        /* \"@openzeppelin/contracts/access/Ownable.sol\":1531:1544  _checkOwner() */\n      jump\t// in\n    tag_82:\n        /* \"RwatLending.sol\":1736:1760  LoanDetails storage loan */\n      0x00\n        /* \"RwatLending.sol\":1763:1774  activeLoans */\n      0x01\n        /* \"RwatLending.sol\":1763:1783  activeLoans[tokenId] */\n      0x00\n        /* \"RwatLending.sol\":1775:1782  tokenId */\n      dup4\n        /* \"RwatLending.sol\":1763:1783  activeLoans[tokenId] */\n      dup2\n      mstore\n      0x20\n      add\n      swap1\n      dup2\n      mstore\n      0x20\n      add\n      0x00\n      keccak256\n        /* \"RwatLending.sol\":1736:1783  LoanDetails storage loan = activeLoans[tokenId] */\n      swap1\n      pop\n        /* \"RwatLending.sol\":1793:1819  uint256 eligibleLoanAmount */\n      0x00\n        /* \"RwatLending.sol\":1865:1868  100 */\n      0x64\n        /* \"RwatLending.sol\":564:566  60 */\n      0x3c\n        /* \"RwatLending.sol\":509:513  2800 */\n      0x0af0\n        /* \"RwatLending.sol\":1823:1861  PROPERTY_VALUATION * INITIAL_THRESHOLD */\n      tag_84\n      swap2\n      swap1\n      tag_85\n      jump\t// in\n    tag_84:\n        /* \"RwatLending.sol\":1822:1868  (PROPERTY_VALUATION * INITIAL_THRESHOLD) / 100 */\n      tag_86\n      swap2\n      swap1\n      tag_87\n      jump\t// in\n    tag_86:\n        /* \"RwatLending.sol\":1793:1868  uint256 eligibleLoanAmount = (PROPERTY_VALUATION * INITIAL_THRESHOLD) / 100 */\n      swap1\n      pop\n        /* \"RwatLending.sol\":1905:1909  loan */\n      dup2\n        /* \"RwatLending.sol\":1905:1922  loan.amountLoaned */\n      0x01\n      add\n      sload\n        /* \"RwatLending.sol\":1883:1901  eligibleLoanAmount */\n      dup2\n        /* \"RwatLending.sol\":1883:1922  eligibleLoanAmount >= loan.amountLoaned */\n      lt\n        /* \"RwatLending.sol\":1879:2508  if (eligibleLoanAmount >= loan.amountLoaned) {... */\n      tag_88\n      jumpi\n        /* \"RwatLending.sol\":1956:1960  true */\n      0x01\n        /* \"RwatLending.sol\":1938:1942  loan */\n      dup3\n        /* \"RwatLending.sol\":1938:1953  loan.isApproved */\n      0x02\n      add\n      0x00\n        /* \"RwatLending.sol\":1938:1960  loan.isApproved = true */\n      0x0100\n      exp\n      dup2\n      sload\n      dup2\n      0xff\n      mul\n      not\n      and\n      swap1\n      dup4\n      iszero\n      iszero\n      mul\n      or\n      swap1\n      sstore\n      pop\n        /* \"RwatLending.sol\":1992:1999  tokenId */\n      dup3\n        /* \"RwatLending.sol\":1979:2006  LoanApproved(tokenId, true) */\n      0x9723cf81bdb5e67545471ad87fff82fd7cc1f8473cd9622098e2adb1289c6f94\n        /* \"RwatLending.sol\":2001:2005  true */\n      0x01\n        /* \"RwatLending.sol\":1979:2006  LoanApproved(tokenId, true) */\n      mload(0x40)\n      tag_89\n      swap2\n      swap1\n      tag_90\n      jump\t// in\n    tag_89:\n      mload(0x40)\n      dup1\n      swap2\n      sub\n      swap1\n      log2\n        /* \"RwatLending.sol\":2092:2096  loan */\n      dup2\n        /* \"RwatLending.sol\":2092:2105  loan.borrower */\n      0x00\n      add\n      0x00\n      swap1\n      sload\n      swap1\n      0x0100\n      exp\n      swap1\n      div\n      0xffffffffffffffffffffffffffffffffffffffff\n      and\n        /* \"RwatLending.sol\":2084:2115  payable(loan.borrower).transfer */\n      0xffffffffffffffffffffffffffffffffffffffff\n      and\n        /* \"RwatLending.sol\":2084:2134  payable(loan.borrower).transfer(loan.amountLoaned) */\n      0x08fc\n        /* \"RwatLending.sol\":2116:2120  loan */\n      dup4\n        /* \"RwatLending.sol\":2116:2133  loan.amountLoaned */\n      0x01\n      add\n      sload\n        /* \"RwatLending.sol\":2084:2134  payable(loan.borrower).transfer(loan.amountLoaned) */\n      swap1\n      dup2\n      iszero\n      mul\n      swap1\n      mload(0x40)\n      0x00\n      mload(0x40)\n      dup1\n      dup4\n      sub\n      dup2\n      dup6\n      dup9\n      dup9\n      call\n      swap4\n      pop\n      pop\n      pop\n      pop\n      iszero\n      dup1\n      iszero\n      tag_92\n      jumpi\n      returndatasize\n      0x00\n      dup1\n      returndatacopy\n      revert(0x00, returndatasize)\n    tag_92:\n      pop\n        /* \"RwatLending.sol\":2175:2179  loan */\n      dup2\n        /* \"RwatLending.sol\":2175:2188  loan.borrower */\n      0x00\n      add\n      0x00\n      swap1\n      sload\n      swap1\n      0x0100\n      exp\n      swap1\n      div\n      0xffffffffffffffffffffffffffffffffffffffff\n      and\n        /* \"RwatLending.sol\":2153:2208  LoanAmountTransferred(loan.borrower, loan.amountLoaned) */\n      0xffffffffffffffffffffffffffffffffffffffff\n      and\n      0x03691f2e05be498601c6f8a30fcd63aeea87be72694dd93c012caf36c341d6fc\n        /* \"RwatLending.sol\":2190:2194  loan */\n      dup4\n        /* \"RwatLending.sol\":2190:2207  loan.amountLoaned */\n      0x01\n      add\n      sload\n        /* \"RwatLending.sol\":2153:2208  LoanAmountTransferred(loan.borrower, loan.amountLoaned) */\n      mload(0x40)\n      tag_93\n      swap2\n      swap1\n      tag_94\n      jump\t// in\n    tag_93:\n      mload(0x40)\n      dup1\n      swap2\n      sub\n      swap1\n      log2\n        /* \"RwatLending.sol\":1879:2508  if (eligibleLoanAmount >= loan.amountLoaned) {... */\n      jump(tag_95)\n    tag_88:\n        /* \"RwatLending.sol\":2257:2262  false */\n      0x00\n        /* \"RwatLending.sol\":2239:2243  loan */\n      dup3\n        /* \"RwatLending.sol\":2239:2254  loan.isApproved */\n      0x02\n      add\n      0x00\n        /* \"RwatLending.sol\":2239:2262  loan.isApproved = false */\n      0x0100\n      exp\n      dup2\n      sload\n      dup2\n      0xff\n      mul\n      not\n      and\n      swap1\n      dup4\n      iszero\n      iszero\n      mul\n      or\n      swap1\n      sstore\n      pop\n        /* \"RwatLending.sol\":2294:2301  tokenId */\n      dup3\n        /* \"RwatLending.sol\":2281:2309  LoanApproved(tokenId, false) */\n      0x9723cf81bdb5e67545471ad87fff82fd7cc1f8473cd9622098e2adb1289c6f94\n        /* \"RwatLending.sol\":2303:2308  false */\n      0x00\n        /* \"RwatLending.sol\":2281:2309  LoanApproved(tokenId, false) */\n      mload(0x40)\n      tag_96\n      swap2\n      swap1\n      tag_90\n      jump\t// in\n    tag_96:\n      mload(0x40)\n      dup1\n      swap2\n      sub\n      swap1\n      log2\n        /* \"RwatLending.sol\":2372:2385  tokenContract */\n      immutable(\"0x792fb9957b0c7c0af16304f5602126f9e16a84a7f6f8a55e0144210b32419511\")\n        /* \"RwatLending.sol\":2372:2402  tokenContract.safeTransferFrom */\n      0xffffffffffffffffffffffffffffffffffffffff\n      and\n      0x42842e0e\n        /* \"RwatLending.sol\":2411:2415  this */\n      address\n        /* \"RwatLending.sol\":2418:2422  loan */\n      dup5\n        /* \"RwatLending.sol\":2418:2431  loan.borrower */\n      0x00\n      add\n      0x00\n      swap1\n      sload\n      swap1\n      0x0100\n      exp\n      swap1\n      div\n      0xffffffffffffffffffffffffffffffffffffffff\n      and\n        /* \"RwatLending.sol\":2433:2440  tokenId */\n      dup7\n        /* \"RwatLending.sol\":2372:2441  tokenContract.safeTransferFrom(address(this), loan.borrower, tokenId) */\n      mload(0x40)\n      dup5\n      0xffffffff\n      and\n      0xe0\n      shl\n      dup2\n      mstore\n      0x04\n      add\n      tag_97\n      swap4\n      swap3\n      swap2\n      swap1\n      tag_64\n      jump\t// in\n    tag_97:\n      0x00\n      mload(0x40)\n      dup1\n      dup4\n      sub\n      dup2\n      0x00\n      dup8\n      dup1\n      extcodesize\n      iszero\n      dup1\n      iszero\n      tag_98\n      jumpi\n      0x00\n      dup1\n      revert\n    tag_98:\n      pop\n      gas\n      call\n      iszero\n      dup1\n      iszero\n      tag_100\n      jumpi\n      returndatasize\n      0x00\n      dup1\n      returndatacopy\n      revert(0x00, returndatasize)\n    tag_100:\n      pop\n      pop\n      pop\n      pop\n        /* \"RwatLending.sol\":2489:2496  tokenId */\n      dup3\n        /* \"RwatLending.sol\":2474:2478  loan */\n      dup3\n        /* \"RwatLending.sol\":2474:2487  loan.borrower */\n      0x00\n      add\n      0x00\n      swap1\n      sload\n      swap1\n      0x0100\n      exp\n      swap1\n      div\n      0xffffffffffffffffffffffffffffffffffffffff\n      and\n        /* \"RwatLending.sol\":2460:2497  TokenReturned(loan.borrower, tokenId) */\n      0xffffffffffffffffffffffffffffffffffffffff\n      and\n      0xeaf449319c042c9ba3474fa0c5329eb58cd1f23be110cdbf9d697b8d303dac15\n      mload(0x40)\n      mload(0x40)\n      dup1\n      swap2\n      sub\n      swap1\n      log3\n        /* \"RwatLending.sol\":1879:2508  if (eligibleLoanAmount >= loan.amountLoaned) {... */\n    tag_95:\n        /* \"RwatLending.sol\":1726:2514  {... */\n      pop\n      pop\n        /* \"RwatLending.sol\":1661:2514  function approveLoan(uint256 tokenId) external onlyOwner payable {... */\n      pop\n      jump\t// out\n        /* \"@openzeppelin/contracts/access/Ownable.sol\":2543:2758  function transferOwnership(address newOwner) public virtual onlyOwner {... */\n    tag_54:\n        /* \"@openzeppelin/contracts/access/Ownable.sol\":1531:1544  _checkOwner() */\n      tag_102\n        /* \"@openzeppelin/contracts/access/Ownable.sol\":1531:1542  _checkOwner */\n      tag_71\n        /* \"@openzeppelin/contracts/access/Ownable.sol\":1531:1544  _checkOwner() */\n      jump\t// in\n    tag_102:\n        /* \"@openzeppelin/contracts/access/Ownable.sol\":2647:2648  0 */\n      0x00\n        /* \"@openzeppelin/contracts/access/Ownable.sol\":2627:2649  newOwner == address(0) */\n      0xffffffffffffffffffffffffffffffffffffffff\n      and\n        /* \"@openzeppelin/contracts/access/Ownable.sol\":2627:2635  newOwner */\n      dup2\n        /* \"@openzeppelin/contracts/access/Ownable.sol\":2627:2649  newOwner == address(0) */\n      0xffffffffffffffffffffffffffffffffffffffff\n      and\n      sub\n        /* \"@openzeppelin/contracts/access/Ownable.sol\":2623:2714  if (newOwner == address(0)) {... */\n      tag_104\n      jumpi\n        /* \"@openzeppelin/contracts/access/Ownable.sol\":2700:2701  0 */\n      0x00\n        /* \"@openzeppelin/contracts/access/Ownable.sol\":2672:2703  OwnableInvalidOwner(address(0)) */\n      mload(0x40)\n      0x1e4fbdf700000000000000000000000000000000000000000000000000000000\n      dup2\n      mstore\n      0x04\n      add\n      tag_105\n      swap2\n      swap1\n      tag_41\n      jump\t// in\n    tag_105:\n      mload(0x40)\n      dup1\n      swap2\n      sub\n      swap1\n      revert\n        /* \"@openzeppelin/contracts/access/Ownable.sol\":2623:2714  if (newOwner == address(0)) {... */\n    tag_104:\n        /* \"@openzeppelin/contracts/access/Ownable.sol\":2723:2751  _transferOwnership(newOwner) */\n      tag_106\n        /* \"@openzeppelin/contracts/access/Ownable.sol\":2742:2750  newOwner */\n      dup2\n        /* \"@openzeppelin/contracts/access/Ownable.sol\":2723:2741  _transferOwnership */\n      tag_74\n        /* \"@openzeppelin/contracts/access/Ownable.sol\":2723:2751  _transferOwnership(newOwner) */\n      jump\t// in\n    tag_106:\n        /* \"@openzeppelin/contracts/access/Ownable.sol\":2543:2758  function transferOwnership(address newOwner) public virtual onlyOwner {... */\n      pop\n      jump\t// out\n        /* \"@openzeppelin/contracts/access/Ownable.sol\":1796:1958  function _checkOwner() internal view virtual {... */\n    tag_71:\n        /* \"@openzeppelin/contracts/access/Ownable.sol\":1866:1878  _msgSender() */\n      tag_108\n        /* \"@openzeppelin/contracts/access/Ownable.sol\":1866:1876  _msgSender */\n      tag_109\n        /* \"@openzeppelin/contracts/access/Ownable.sol\":1866:1878  _msgSender() */\n      jump\t// in\n    tag_108:\n        /* \"@openzeppelin/contracts/access/Ownable.sol\":1855:1878  owner() != _msgSender() */\n      0xffffffffffffffffffffffffffffffffffffffff\n      and\n        /* \"@openzeppelin/contracts/access/Ownable.sol\":1855:1862  owner() */\n      tag_110\n        /* \"@openzeppelin/contracts/access/Ownable.sol\":1855:1860  owner */\n      tag_39\n        /* \"@openzeppelin/contracts/access/Ownable.sol\":1855:1862  owner() */\n      jump\t// in\n    tag_110:\n        /* \"@openzeppelin/contracts/access/Ownable.sol\":1855:1878  owner() != _msgSender() */\n      0xffffffffffffffffffffffffffffffffffffffff\n      and\n      eq\n        /* \"@openzeppelin/contracts/access/Ownable.sol\":1851:1952  if (owner() != _msgSender()) {... */\n      tag_111\n      jumpi\n        /* \"@openzeppelin/contracts/access/Ownable.sol\":1928:1940  _msgSender() */\n      tag_112\n        /* \"@openzeppelin/contracts/access/Ownable.sol\":1928:1938  _msgSender */\n      tag_109\n        /* \"@openzeppelin/contracts/access/Ownable.sol\":1928:1940  _msgSender() */\n      jump\t// in\n    tag_112:\n        /* \"@openzeppelin/contracts/access/Ownable.sol\":1901:1941  OwnableUnauthorizedAccount(_msgSender()) */\n      mload(0x40)\n      0x118cdaa700000000000000000000000000000000000000000000000000000000\n      dup2\n      mstore\n      0x04\n      add\n      tag_113\n      swap2\n      swap1\n      tag_41\n      jump\t// in\n    tag_113:\n      mload(0x40)\n      dup1\n      swap2\n      sub\n      swap1\n      revert\n        /* \"@openzeppelin/contracts/access/Ownable.sol\":1851:1952  if (owner() != _msgSender()) {... */\n    tag_111:\n        /* \"@openzeppelin/contracts/access/Ownable.sol\":1796:1958  function _checkOwner() internal view virtual {... */\n      jump\t// out\n        /* \"@openzeppelin/contracts/access/Ownable.sol\":2912:3099  function _transferOwnership(address newOwner) internal virtual {... */\n    tag_74:\n        /* \"@openzeppelin/contracts/access/Ownable.sol\":2985:3001  address oldOwner */\n      0x00\n        /* \"@openzeppelin/contracts/access/Ownable.sol\":3004:3010  _owner */\n      dup1\n      0x00\n      swap1\n      sload\n      swap1\n      0x0100\n      exp\n      swap1\n      div\n      0xffffffffffffffffffffffffffffffffffffffff\n      and\n        /* \"@openzeppelin/contracts/access/Ownable.sol\":2985:3010  address oldOwner = _owner */\n      swap1\n      pop\n        /* \"@openzeppelin/contracts/access/Ownable.sol\":3029:3037  newOwner */\n      dup2\n        /* \"@openzeppelin/contracts/access/Ownable.sol\":3020:3026  _owner */\n      0x00\n      dup1\n        /* \"@openzeppelin/contracts/access/Ownable.sol\":3020:3037  _owner = newOwner */\n      0x0100\n      exp\n      dup2\n      sload\n      dup2\n      0xffffffffffffffffffffffffffffffffffffffff\n      mul\n      not\n      and\n      swap1\n      dup4\n      0xffffffffffffffffffffffffffffffffffffffff\n      and\n      mul\n      or\n      swap1\n      sstore\n      pop\n        /* \"@openzeppelin/contracts/access/Ownable.sol\":3083:3091  newOwner */\n      dup2\n        /* \"@openzeppelin/contracts/access/Ownable.sol\":3052:3092  OwnershipTransferred(oldOwner, newOwner) */\n      0xffffffffffffffffffffffffffffffffffffffff\n      and\n        /* \"@openzeppelin/contracts/access/Ownable.sol\":3073:3081  oldOwner */\n      dup2\n        /* \"@openzeppelin/contracts/access/Ownable.sol\":3052:3092  OwnershipTransferred(oldOwner, newOwner) */\n      0xffffffffffffffffffffffffffffffffffffffff\n      and\n      0x8be0079c531659141344cd1fd0a4f28419497f9722a3daafe3b4186f6b6457e0\n      mload(0x40)\n      mload(0x40)\n      dup1\n      swap2\n      sub\n      swap1\n      log3\n        /* \"@openzeppelin/contracts/access/Ownable.sol\":2975:3099  {... */\n      pop\n        /* \"@openzeppelin/contracts/access/Ownable.sol\":2912:3099  function _transferOwnership(address newOwner) internal virtual {... */\n      pop\n      jump\t// out\n        /* \"@openzeppelin/contracts/utils/Context.sol\":656:752  function _msgSender() internal view virtual returns (address) {... */\n    tag_109:\n        /* \"@openzeppelin/contracts/utils/Context.sol\":709:716  address */\n      0x00\n        /* \"@openzeppelin/contracts/utils/Context.sol\":735:745  msg.sender */\n      caller\n        /* \"@openzeppelin/contracts/utils/Context.sol\":728:745  return msg.sender */\n      swap1\n      pop\n        /* \"@openzeppelin/contracts/utils/Context.sol\":656:752  function _msgSender() internal view virtual returns (address) {... */\n      swap1\n      jump\t// out\n        /* \"#utility.yul\":88:205   */\n    tag_117:\n        /* \"#utility.yul\":197:198   */\n      0x00\n        /* \"#utility.yul\":194:195   */\n      dup1\n        /* \"#utility.yul\":187:199   */\n      revert\n        /* \"#utility.yul\":211:328   */\n    tag_118:\n        /* \"#utility.yul\":320:321   */\n      0x00\n        /* \"#utility.yul\":317:318   */\n      dup1\n        /* \"#utility.yul\":310:322   */\n      revert\n        /* \"#utility.yul\":334:460   */\n    tag_119:\n        /* \"#utility.yul\":371:378   */\n      0x00\n        /* \"#utility.yul\":411:453   */\n      0xffffffffffffffffffffffffffffffffffffffff\n        /* \"#utility.yul\":404:409   */\n      dup3\n        /* \"#utility.yul\":400:454   */\n      and\n        /* \"#utility.yul\":389:454   */\n      swap1\n      pop\n        /* \"#utility.yul\":334:460   */\n      swap2\n      swap1\n      pop\n      jump\t// out\n        /* \"#utility.yul\":466:562   */\n    tag_120:\n        /* \"#utility.yul\":503:510   */\n      0x00\n        /* \"#utility.yul\":532:556   */\n      tag_152\n        /* \"#utility.yul\":550:555   */\n      dup3\n        /* \"#utility.yul\":532:556   */\n      tag_119\n      jump\t// in\n    tag_152:\n        /* \"#utility.yul\":521:556   */\n      swap1\n      pop\n        /* \"#utility.yul\":466:562   */\n      swap2\n      swap1\n      pop\n      jump\t// out\n        /* \"#utility.yul\":568:690   */\n    tag_121:\n        /* \"#utility.yul\":641:665   */\n      tag_154\n        /* \"#utility.yul\":659:664   */\n      dup2\n        /* \"#utility.yul\":641:665   */\n      tag_120\n      jump\t// in\n    tag_154:\n        /* \"#utility.yul\":634:639   */\n      dup2\n        /* \"#utility.yul\":631:666   */\n      eq\n        /* \"#utility.yul\":621:684   */\n      tag_155\n      jumpi\n        /* \"#utility.yul\":680:681   */\n      0x00\n        /* \"#utility.yul\":677:678   */\n      dup1\n        /* \"#utility.yul\":670:682   */\n      revert\n        /* \"#utility.yul\":621:684   */\n    tag_155:\n        /* \"#utility.yul\":568:690   */\n      pop\n      jump\t// out\n        /* \"#utility.yul\":696:835   */\n    tag_122:\n        /* \"#utility.yul\":742:747   */\n      0x00\n        /* \"#utility.yul\":780:786   */\n      dup2\n        /* \"#utility.yul\":767:787   */\n      calldataload\n        /* \"#utility.yul\":758:787   */\n      swap1\n      pop\n        /* \"#utility.yul\":796:829   */\n      tag_157\n        /* \"#utility.yul\":823:828   */\n      dup2\n        /* \"#utility.yul\":796:829   */\n      tag_121\n      jump\t// in\n    tag_157:\n        /* \"#utility.yul\":696:835   */\n      swap3\n      swap2\n      pop\n      pop\n      jump\t// out\n        /* \"#utility.yul\":841:918   */\n    tag_123:\n        /* \"#utility.yul\":878:885   */\n      0x00\n        /* \"#utility.yul\":907:912   */\n      dup2\n        /* \"#utility.yul\":896:912   */\n      swap1\n      pop\n        /* \"#utility.yul\":841:918   */\n      swap2\n      swap1\n      pop\n      jump\t// out\n        /* \"#utility.yul\":924:1046   */\n    tag_124:\n        /* \"#utility.yul\":997:1021   */\n      tag_160\n        /* \"#utility.yul\":1015:1020   */\n      dup2\n        /* \"#utility.yul\":997:1021   */\n      tag_123\n      jump\t// in\n    tag_160:\n        /* \"#utility.yul\":990:995   */\n      dup2\n        /* \"#utility.yul\":987:1022   */\n      eq\n        /* \"#utility.yul\":977:1040   */\n      tag_161\n      jumpi\n        /* \"#utility.yul\":1036:1037   */\n      0x00\n        /* \"#utility.yul\":1033:1034   */\n      dup1\n        /* \"#utility.yul\":1026:1038   */\n      revert\n        /* \"#utility.yul\":977:1040   */\n    tag_161:\n        /* \"#utility.yul\":924:1046   */\n      pop\n      jump\t// out\n        /* \"#utility.yul\":1052:1191   */\n    tag_125:\n        /* \"#utility.yul\":1098:1103   */\n      0x00\n        /* \"#utility.yul\":1136:1142   */\n      dup2\n        /* \"#utility.yul\":1123:1143   */\n      calldataload\n        /* \"#utility.yul\":1114:1143   */\n      swap1\n      pop\n        /* \"#utility.yul\":1152:1185   */\n      tag_163\n        /* \"#utility.yul\":1179:1184   */\n      dup2\n        /* \"#utility.yul\":1152:1185   */\n      tag_124\n      jump\t// in\n    tag_163:\n        /* \"#utility.yul\":1052:1191   */\n      swap3\n      swap2\n      pop\n      pop\n      jump\t// out\n        /* \"#utility.yul\":1197:1314   */\n    tag_126:\n        /* \"#utility.yul\":1306:1307   */\n      0x00\n        /* \"#utility.yul\":1303:1304   */\n      dup1\n        /* \"#utility.yul\":1296:1308   */\n      revert\n        /* \"#utility.yul\":1320:1437   */\n    tag_127:\n        /* \"#utility.yul\":1429:1430   */\n      0x00\n        /* \"#utility.yul\":1426:1427   */\n      dup1\n        /* \"#utility.yul\":1419:1431   */\n      revert\n        /* \"#utility.yul\":1443:1560   */\n    tag_128:\n        /* \"#utility.yul\":1552:1553   */\n      0x00\n        /* \"#utility.yul\":1549:1550   */\n      dup1\n        /* \"#utility.yul\":1542:1554   */\n      revert\n        /* \"#utility.yul\":1579:2131   */\n    tag_129:\n        /* \"#utility.yul\":1636:1644   */\n      0x00\n        /* \"#utility.yul\":1646:1652   */\n      dup1\n        /* \"#utility.yul\":1696:1699   */\n      dup4\n        /* \"#utility.yul\":1689:1693   */\n      0x1f\n        /* \"#utility.yul\":1681:1687   */\n      dup5\n        /* \"#utility.yul\":1677:1694   */\n      add\n        /* \"#utility.yul\":1673:1700   */\n      slt\n        /* \"#utility.yul\":1663:1785   */\n      tag_168\n      jumpi\n        /* \"#utility.yul\":1704:1783   */\n      tag_169\n      tag_126\n      jump\t// in\n    tag_169:\n        /* \"#utility.yul\":1663:1785   */\n    tag_168:\n        /* \"#utility.yul\":1817:1823   */\n      dup3\n        /* \"#utility.yul\":1804:1824   */\n      calldataload\n        /* \"#utility.yul\":1794:1824   */\n      swap1\n      pop\n        /* \"#utility.yul\":1847:1865   */\n      0xffffffffffffffff\n        /* \"#utility.yul\":1839:1845   */\n      dup2\n        /* \"#utility.yul\":1836:1866   */\n      gt\n        /* \"#utility.yul\":1833:1950   */\n      iszero\n      tag_170\n      jumpi\n        /* \"#utility.yul\":1869:1948   */\n      tag_171\n      tag_127\n      jump\t// in\n    tag_171:\n        /* \"#utility.yul\":1833:1950   */\n    tag_170:\n        /* \"#utility.yul\":1983:1987   */\n      0x20\n        /* \"#utility.yul\":1975:1981   */\n      dup4\n        /* \"#utility.yul\":1971:1988   */\n      add\n        /* \"#utility.yul\":1959:1988   */\n      swap2\n      pop\n        /* \"#utility.yul\":2037:2040   */\n      dup4\n        /* \"#utility.yul\":2029:2033   */\n      0x01\n        /* \"#utility.yul\":2021:2027   */\n      dup3\n        /* \"#utility.yul\":2017:2034   */\n      mul\n        /* \"#utility.yul\":2007:2015   */\n      dup4\n        /* \"#utility.yul\":2003:2035   */\n      add\n        /* \"#utility.yul\":2000:2041   */\n      gt\n        /* \"#utility.yul\":1997:2125   */\n      iszero\n      tag_172\n      jumpi\n        /* \"#utility.yul\":2044:2123   */\n      tag_173\n      tag_128\n      jump\t// in\n    tag_173:\n        /* \"#utility.yul\":1997:2125   */\n    tag_172:\n        /* \"#utility.yul\":1579:2131   */\n      swap3\n      pop\n      swap3\n      swap1\n      pop\n      jump\t// out\n        /* \"#utility.yul\":2137:3100   */\n    tag_15:\n        /* \"#utility.yul\":2234:2240   */\n      0x00\n        /* \"#utility.yul\":2242:2248   */\n      dup1\n        /* \"#utility.yul\":2250:2256   */\n      0x00\n        /* \"#utility.yul\":2258:2264   */\n      dup1\n        /* \"#utility.yul\":2266:2272   */\n      0x00\n        /* \"#utility.yul\":2315:2318   */\n      0x80\n        /* \"#utility.yul\":2303:2312   */\n      dup7\n        /* \"#utility.yul\":2294:2301   */\n      dup9\n        /* \"#utility.yul\":2290:2313   */\n      sub\n        /* \"#utility.yul\":2286:2319   */\n      slt\n        /* \"#utility.yul\":2283:2403   */\n      iszero\n      tag_175\n      jumpi\n        /* \"#utility.yul\":2322:2401   */\n      tag_176\n      tag_117\n      jump\t// in\n    tag_176:\n        /* \"#utility.yul\":2283:2403   */\n    tag_175:\n        /* \"#utility.yul\":2442:2443   */\n      0x00\n        /* \"#utility.yul\":2467:2520   */\n      tag_177\n        /* \"#utility.yul\":2512:2519   */\n      dup9\n        /* \"#utility.yul\":2503:2509   */\n      dup3\n        /* \"#utility.yul\":2492:2501   */\n      dup10\n        /* \"#utility.yul\":2488:2510   */\n      add\n        /* \"#utility.yul\":2467:2520   */\n      tag_122\n      jump\t// in\n    tag_177:\n        /* \"#utility.yul\":2457:2520   */\n      swap6\n      pop\n        /* \"#utility.yul\":2413:2530   */\n      pop\n        /* \"#utility.yul\":2569:2571   */\n      0x20\n        /* \"#utility.yul\":2595:2648   */\n      tag_178\n        /* \"#utility.yul\":2640:2647   */\n      dup9\n        /* \"#utility.yul\":2631:2637   */\n      dup3\n        /* \"#utility.yul\":2620:2629   */\n      dup10\n        /* \"#utility.yul\":2616:2638   */\n      add\n        /* \"#utility.yul\":2595:2648   */\n      tag_122\n      jump\t// in\n    tag_178:\n        /* \"#utility.yul\":2585:2648   */\n      swap5\n      pop\n        /* \"#utility.yul\":2540:2658   */\n      pop\n        /* \"#utility.yul\":2697:2699   */\n      0x40\n        /* \"#utility.yul\":2723:2776   */\n      tag_179\n        /* \"#utility.yul\":2768:2775   */\n      dup9\n        /* \"#utility.yul\":2759:2765   */\n      dup3\n        /* \"#utility.yul\":2748:2757   */\n      dup10\n        /* \"#utility.yul\":2744:2766   */\n      add\n        /* \"#utility.yul\":2723:2776   */\n      tag_125\n      jump\t// in\n    tag_179:\n        /* \"#utility.yul\":2713:2776   */\n      swap4\n      pop\n        /* \"#utility.yul\":2668:2786   */\n      pop\n        /* \"#utility.yul\":2853:2855   */\n      0x60\n        /* \"#utility.yul\":2842:2851   */\n      dup7\n        /* \"#utility.yul\":2838:2856   */\n      add\n        /* \"#utility.yul\":2825:2857   */\n      calldataload\n        /* \"#utility.yul\":2884:2902   */\n      0xffffffffffffffff\n        /* \"#utility.yul\":2876:2882   */\n      dup2\n        /* \"#utility.yul\":2873:2903   */\n      gt\n        /* \"#utility.yul\":2870:2987   */\n      iszero\n      tag_180\n      jumpi\n        /* \"#utility.yul\":2906:2985   */\n      tag_181\n      tag_118\n      jump\t// in\n    tag_181:\n        /* \"#utility.yul\":2870:2987   */\n    tag_180:\n        /* \"#utility.yul\":3019:3083   */\n      tag_182\n        /* \"#utility.yul\":3075:3082   */\n      dup9\n        /* \"#utility.yul\":3066:3072   */\n      dup3\n        /* \"#utility.yul\":3055:3064   */\n      dup10\n        /* \"#utility.yul\":3051:3073   */\n      add\n        /* \"#utility.yul\":3019:3083   */\n      tag_129\n      jump\t// in\n    tag_182:\n        /* \"#utility.yul\":3001:3083   */\n      swap3\n      pop\n      swap3\n      pop\n        /* \"#utility.yul\":2796:3093   */\n      pop\n        /* \"#utility.yul\":2137:3100   */\n      swap3\n      swap6\n      pop\n      swap3\n      swap6\n      swap1\n      swap4\n      pop\n      jump\t// out\n        /* \"#utility.yul\":3106:3255   */\n    tag_130:\n        /* \"#utility.yul\":3142:3149   */\n      0x00\n        /* \"#utility.yul\":3182:3248   */\n      0xffffffff00000000000000000000000000000000000000000000000000000000\n        /* \"#utility.yul\":3175:3180   */\n      dup3\n        /* \"#utility.yul\":3171:3249   */\n      and\n        /* \"#utility.yul\":3160:3249   */\n      swap1\n      pop\n        /* \"#utility.yul\":3106:3255   */\n      swap2\n      swap1\n      pop\n      jump\t// out\n        /* \"#utility.yul\":3261:3376   */\n    tag_131:\n        /* \"#utility.yul\":3346:3369   */\n      tag_185\n        /* \"#utility.yul\":3363:3368   */\n      dup2\n        /* \"#utility.yul\":3346:3369   */\n      tag_130\n      jump\t// in\n    tag_185:\n        /* \"#utility.yul\":3341:3344   */\n      dup3\n        /* \"#utility.yul\":3334:3370   */\n      mstore\n        /* \"#utility.yul\":3261:3376   */\n      pop\n      pop\n      jump\t// out\n        /* \"#utility.yul\":3382:3600   */\n    tag_18:\n        /* \"#utility.yul\":3473:3477   */\n      0x00\n        /* \"#utility.yul\":3511:3513   */\n      0x20\n        /* \"#utility.yul\":3500:3509   */\n      dup3\n        /* \"#utility.yul\":3496:3514   */\n      add\n        /* \"#utility.yul\":3488:3514   */\n      swap1\n      pop\n        /* \"#utility.yul\":3524:3593   */\n      tag_187\n        /* \"#utility.yul\":3590:3591   */\n      0x00\n        /* \"#utility.yul\":3579:3588   */\n      dup4\n        /* \"#utility.yul\":3575:3592   */\n      add\n        /* \"#utility.yul\":3566:3572   */\n      dup5\n        /* \"#utility.yul\":3524:3593   */\n      tag_131\n      jump\t// in\n    tag_187:\n        /* \"#utility.yul\":3382:3600   */\n      swap3\n      swap2\n      pop\n      pop\n      jump\t// out\n        /* \"#utility.yul\":3606:3935   */\n    tag_21:\n        /* \"#utility.yul\":3665:3671   */\n      0x00\n        /* \"#utility.yul\":3714:3716   */\n      0x20\n        /* \"#utility.yul\":3702:3711   */\n      dup3\n        /* \"#utility.yul\":3693:3700   */\n      dup5\n        /* \"#utility.yul\":3689:3712   */\n      sub\n        /* \"#utility.yul\":3685:3717   */\n      slt\n        /* \"#utility.yul\":3682:3801   */\n      iszero\n      tag_189\n      jumpi\n        /* \"#utility.yul\":3720:3799   */\n      tag_190\n      tag_117\n      jump\t// in\n    tag_190:\n        /* \"#utility.yul\":3682:3801   */\n    tag_189:\n        /* \"#utility.yul\":3840:3841   */\n      0x00\n        /* \"#utility.yul\":3865:3918   */\n      tag_191\n        /* \"#utility.yul\":3910:3917   */\n      dup5\n        /* \"#utility.yul\":3901:3907   */\n      dup3\n        /* \"#utility.yul\":3890:3899   */\n      dup6\n        /* \"#utility.yul\":3886:3908   */\n      add\n        /* \"#utility.yul\":3865:3918   */\n      tag_125\n      jump\t// in\n    tag_191:\n        /* \"#utility.yul\":3855:3918   */\n      swap2\n      pop\n        /* \"#utility.yul\":3811:3928   */\n      pop\n        /* \"#utility.yul\":3606:3935   */\n      swap3\n      swap2\n      pop\n      pop\n      jump\t// out\n        /* \"#utility.yul\":3941:4001   */\n    tag_132:\n        /* \"#utility.yul\":3969:3972   */\n      0x00\n        /* \"#utility.yul\":3990:3995   */\n      dup2\n        /* \"#utility.yul\":3983:3995   */\n      swap1\n      pop\n        /* \"#utility.yul\":3941:4001   */\n      swap2\n      swap1\n      pop\n      jump\t// out\n        /* \"#utility.yul\":4007:4149   */\n    tag_133:\n        /* \"#utility.yul\":4057:4066   */\n      0x00\n        /* \"#utility.yul\":4090:4143   */\n      tag_194\n        /* \"#utility.yul\":4108:4142   */\n      tag_195\n        /* \"#utility.yul\":4117:4141   */\n      tag_196\n        /* \"#utility.yul\":4135:4140   */\n      dup5\n        /* \"#utility.yul\":4117:4141   */\n      tag_119\n      jump\t// in\n    tag_196:\n        /* \"#utility.yul\":4108:4142   */\n      tag_132\n      jump\t// in\n    tag_195:\n        /* \"#utility.yul\":4090:4143   */\n      tag_119\n      jump\t// in\n    tag_194:\n        /* \"#utility.yul\":4077:4143   */\n      swap1\n      pop\n        /* \"#utility.yul\":4007:4149   */\n      swap2\n      swap1\n      pop\n      jump\t// out\n        /* \"#utility.yul\":4155:4281   */\n    tag_134:\n        /* \"#utility.yul\":4205:4214   */\n      0x00\n        /* \"#utility.yul\":4238:4275   */\n      tag_198\n        /* \"#utility.yul\":4269:4274   */\n      dup3\n        /* \"#utility.yul\":4238:4275   */\n      tag_133\n      jump\t// in\n    tag_198:\n        /* \"#utility.yul\":4225:4275   */\n      swap1\n      pop\n        /* \"#utility.yul\":4155:4281   */\n      swap2\n      swap1\n      pop\n      jump\t// out\n        /* \"#utility.yul\":4287:4428   */\n    tag_135:\n        /* \"#utility.yul\":4352:4361   */\n      0x00\n        /* \"#utility.yul\":4385:4422   */\n      tag_200\n        /* \"#utility.yul\":4416:4421   */\n      dup3\n        /* \"#utility.yul\":4385:4422   */\n      tag_134\n      jump\t// in\n    tag_200:\n        /* \"#utility.yul\":4372:4422   */\n      swap1\n      pop\n        /* \"#utility.yul\":4287:4428   */\n      swap2\n      swap1\n      pop\n      jump\t// out\n        /* \"#utility.yul\":4434:4595   */\n    tag_136:\n        /* \"#utility.yul\":4536:4588   */\n      tag_202\n        /* \"#utility.yul\":4582:4587   */\n      dup2\n        /* \"#utility.yul\":4536:4588   */\n      tag_135\n      jump\t// in\n    tag_202:\n        /* \"#utility.yul\":4531:4534   */\n      dup3\n        /* \"#utility.yul\":4524:4589   */\n      mstore\n        /* \"#utility.yul\":4434:4595   */\n      pop\n      pop\n      jump\t// out\n        /* \"#utility.yul\":4601:4853   */\n    tag_27:\n        /* \"#utility.yul\":4709:4713   */\n      0x00\n        /* \"#utility.yul\":4747:4749   */\n      0x20\n        /* \"#utility.yul\":4736:4745   */\n      dup3\n        /* \"#utility.yul\":4732:4750   */\n      add\n        /* \"#utility.yul\":4724:4750   */\n      swap1\n      pop\n        /* \"#utility.yul\":4760:4846   */\n      tag_204\n        /* \"#utility.yul\":4843:4844   */\n      0x00\n        /* \"#utility.yul\":4832:4841   */\n      dup4\n        /* \"#utility.yul\":4828:4845   */\n      add\n        /* \"#utility.yul\":4819:4825   */\n      dup5\n        /* \"#utility.yul\":4760:4846   */\n      tag_136\n      jump\t// in\n    tag_204:\n        /* \"#utility.yul\":4601:4853   */\n      swap3\n      swap2\n      pop\n      pop\n      jump\t// out\n        /* \"#utility.yul\":4859:4977   */\n    tag_137:\n        /* \"#utility.yul\":4946:4970   */\n      tag_206\n        /* \"#utility.yul\":4964:4969   */\n      dup2\n        /* \"#utility.yul\":4946:4970   */\n      tag_120\n      jump\t// in\n    tag_206:\n        /* \"#utility.yul\":4941:4944   */\n      dup3\n        /* \"#utility.yul\":4934:4971   */\n      mstore\n        /* \"#utility.yul\":4859:4977   */\n      pop\n      pop\n      jump\t// out\n        /* \"#utility.yul\":4983:5101   */\n    tag_138:\n        /* \"#utility.yul\":5070:5094   */\n      tag_208\n        /* \"#utility.yul\":5088:5093   */\n      dup2\n        /* \"#utility.yul\":5070:5094   */\n      tag_123\n      jump\t// in\n    tag_208:\n        /* \"#utility.yul\":5065:5068   */\n      dup3\n        /* \"#utility.yul\":5058:5095   */\n      mstore\n        /* \"#utility.yul\":4983:5101   */\n      pop\n      pop\n      jump\t// out\n        /* \"#utility.yul\":5107:5197   */\n    tag_139:\n        /* \"#utility.yul\":5141:5148   */\n      0x00\n        /* \"#utility.yul\":5184:5189   */\n      dup2\n        /* \"#utility.yul\":5177:5190   */\n      iszero\n        /* \"#utility.yul\":5170:5191   */\n      iszero\n        /* \"#utility.yul\":5159:5191   */\n      swap1\n      pop\n        /* \"#utility.yul\":5107:5197   */\n      swap2\n      swap1\n      pop\n      jump\t// out\n        /* \"#utility.yul\":5203:5312   */\n    tag_140:\n        /* \"#utility.yul\":5284:5305   */\n      tag_211\n        /* \"#utility.yul\":5299:5304   */\n      dup2\n        /* \"#utility.yul\":5284:5305   */\n      tag_139\n      jump\t// in\n    tag_211:\n        /* \"#utility.yul\":5279:5282   */\n      dup3\n        /* \"#utility.yul\":5272:5306   */\n      mstore\n        /* \"#utility.yul\":5203:5312   */\n      pop\n      pop\n      jump\t// out\n        /* \"#utility.yul\":5318:5748   */\n    tag_33:\n        /* \"#utility.yul\":5461:5465   */\n      0x00\n        /* \"#utility.yul\":5499:5501   */\n      0x60\n        /* \"#utility.yul\":5488:5497   */\n      dup3\n        /* \"#utility.yul\":5484:5502   */\n      add\n        /* \"#utility.yul\":5476:5502   */\n      swap1\n      pop\n        /* \"#utility.yul\":5512:5583   */\n      tag_213\n        /* \"#utility.yul\":5580:5581   */\n      0x00\n        /* \"#utility.yul\":5569:5578   */\n      dup4\n        /* \"#utility.yul\":5565:5582   */\n      add\n        /* \"#utility.yul\":5556:5562   */\n      dup7\n        /* \"#utility.yul\":5512:5583   */\n      tag_137\n      jump\t// in\n    tag_213:\n        /* \"#utility.yul\":5593:5665   */\n      tag_214\n        /* \"#utility.yul\":5661:5663   */\n      0x20\n        /* \"#utility.yul\":5650:5659   */\n      dup4\n        /* \"#utility.yul\":5646:5664   */\n      add\n        /* \"#utility.yul\":5637:5643   */\n      dup6\n        /* \"#utility.yul\":5593:5665   */\n      tag_138\n      jump\t// in\n    tag_214:\n        /* \"#utility.yul\":5675:5741   */\n      tag_215\n        /* \"#utility.yul\":5737:5739   */\n      0x40\n        /* \"#utility.yul\":5726:5735   */\n      dup4\n        /* \"#utility.yul\":5722:5740   */\n      add\n        /* \"#utility.yul\":5713:5719   */\n      dup5\n        /* \"#utility.yul\":5675:5741   */\n      tag_140\n      jump\t// in\n    tag_215:\n        /* \"#utility.yul\":5318:5748   */\n      swap5\n      swap4\n      pop\n      pop\n      pop\n      pop\n      jump\t// out\n        /* \"#utility.yul\":5754:5976   */\n    tag_41:\n        /* \"#utility.yul\":5847:5851   */\n      0x00\n        /* \"#utility.yul\":5885:5887   */\n      0x20\n        /* \"#utility.yul\":5874:5883   */\n      dup3\n        /* \"#utility.yul\":5870:5888   */\n      add\n        /* \"#utility.yul\":5862:5888   */\n      swap1\n      pop\n        /* \"#utility.yul\":5898:5969   */\n      tag_217\n        /* \"#utility.yul\":5966:5967   */\n      0x00\n        /* \"#utility.yul\":5955:5964   */\n      dup4\n        /* \"#utility.yul\":5951:5968   */\n      add\n        /* \"#utility.yul\":5942:5948   */\n      dup5\n        /* \"#utility.yul\":5898:5969   */\n      tag_137\n      jump\t// in\n    tag_217:\n        /* \"#utility.yul\":5754:5976   */\n      swap3\n      swap2\n      pop\n      pop\n      jump\t// out\n        /* \"#utility.yul\":5982:6456   */\n    tag_45:\n        /* \"#utility.yul\":6050:6056   */\n      0x00\n        /* \"#utility.yul\":6058:6064   */\n      dup1\n        /* \"#utility.yul\":6107:6109   */\n      0x40\n        /* \"#utility.yul\":6095:6104   */\n      dup4\n        /* \"#utility.yul\":6086:6093   */\n      dup6\n        /* \"#utility.yul\":6082:6105   */\n      sub\n        /* \"#utility.yul\":6078:6110   */\n      slt\n        /* \"#utility.yul\":6075:6194   */\n      iszero\n      tag_219\n      jumpi\n        /* \"#utility.yul\":6113:6192   */\n      tag_220\n      tag_117\n      jump\t// in\n    tag_220:\n        /* \"#utility.yul\":6075:6194   */\n    tag_219:\n        /* \"#utility.yul\":6233:6234   */\n      0x00\n        /* \"#utility.yul\":6258:6311   */\n      tag_221\n        /* \"#utility.yul\":6303:6310   */\n      dup6\n        /* \"#utility.yul\":6294:6300   */\n      dup3\n        /* \"#utility.yul\":6283:6292   */\n      dup7\n        /* \"#utility.yul\":6279:6301   */\n      add\n        /* \"#utility.yul\":6258:6311   */\n      tag_125\n      jump\t// in\n    tag_221:\n        /* \"#utility.yul\":6248:6311   */\n      swap3\n      pop\n        /* \"#utility.yul\":6204:6321   */\n      pop\n        /* \"#utility.yul\":6360:6362   */\n      0x20\n        /* \"#utility.yul\":6386:6439   */\n      tag_222\n        /* \"#utility.yul\":6431:6438   */\n      dup6\n        /* \"#utility.yul\":6422:6428   */\n      dup3\n        /* \"#utility.yul\":6411:6420   */\n      dup7\n        /* \"#utility.yul\":6407:6429   */\n      add\n        /* \"#utility.yul\":6386:6439   */\n      tag_125\n      jump\t// in\n    tag_222:\n        /* \"#utility.yul\":6376:6439   */\n      swap2\n      pop\n        /* \"#utility.yul\":6331:6449   */\n      pop\n        /* \"#utility.yul\":5982:6456   */\n      swap3\n      pop\n      swap3\n      swap1\n      pop\n      jump\t// out\n        /* \"#utility.yul\":6462:6791   */\n    tag_53:\n        /* \"#utility.yul\":6521:6527   */\n      0x00\n        /* \"#utility.yul\":6570:6572   */\n      0x20\n        /* \"#utility.yul\":6558:6567   */\n      dup3\n        /* \"#utility.yul\":6549:6556   */\n      dup5\n        /* \"#utility.yul\":6545:6568   */\n      sub\n        /* \"#utility.yul\":6541:6573   */\n      slt\n        /* \"#utility.yul\":6538:6657   */\n      iszero\n      tag_224\n      jumpi\n        /* \"#utility.yul\":6576:6655   */\n      tag_225\n      tag_117\n      jump\t// in\n    tag_225:\n        /* \"#utility.yul\":6538:6657   */\n    tag_224:\n        /* \"#utility.yul\":6696:6697   */\n      0x00\n        /* \"#utility.yul\":6721:6774   */\n      tag_226\n        /* \"#utility.yul\":6766:6773   */\n      dup5\n        /* \"#utility.yul\":6757:6763   */\n      dup3\n        /* \"#utility.yul\":6746:6755   */\n      dup6\n        /* \"#utility.yul\":6742:6764   */\n      add\n        /* \"#utility.yul\":6721:6774   */\n      tag_122\n      jump\t// in\n    tag_226:\n        /* \"#utility.yul\":6711:6774   */\n      swap2\n      pop\n        /* \"#utility.yul\":6667:6784   */\n      pop\n        /* \"#utility.yul\":6462:6791   */\n      swap3\n      swap2\n      pop\n      pop\n      jump\t// out\n        /* \"#utility.yul\":6797:6966   */\n    tag_141:\n        /* \"#utility.yul\":6881:6892   */\n      0x00\n        /* \"#utility.yul\":6915:6921   */\n      dup3\n        /* \"#utility.yul\":6910:6913   */\n      dup3\n        /* \"#utility.yul\":6903:6922   */\n      mstore\n        /* \"#utility.yul\":6955:6959   */\n      0x20\n        /* \"#utility.yul\":6950:6953   */\n      dup3\n        /* \"#utility.yul\":6946:6960   */\n      add\n        /* \"#utility.yul\":6931:6960   */\n      swap1\n      pop\n        /* \"#utility.yul\":6797:6966   */\n      swap3\n      swap2\n      pop\n      pop\n      jump\t// out\n        /* \"#utility.yul\":6972:7144   */\n    tag_142:\n        /* \"#utility.yul\":7112:7136   */\n      0x4f6e6c7920626f72726f7765722063616e2063616c6c00000000000000000000\n        /* \"#utility.yul\":7108:7109   */\n      0x00\n        /* \"#utility.yul\":7100:7106   */\n      dup3\n        /* \"#utility.yul\":7096:7110   */\n      add\n        /* \"#utility.yul\":7089:7137   */\n      mstore\n        /* \"#utility.yul\":6972:7144   */\n      pop\n      jump\t// out\n        /* \"#utility.yul\":7150:7516   */\n    tag_143:\n        /* \"#utility.yul\":7292:7295   */\n      0x00\n        /* \"#utility.yul\":7313:7380   */\n      tag_230\n        /* \"#utility.yul\":7377:7379   */\n      0x16\n        /* \"#utility.yul\":7372:7375   */\n      dup4\n        /* \"#utility.yul\":7313:7380   */\n      tag_141\n      jump\t// in\n    tag_230:\n        /* \"#utility.yul\":7306:7380   */\n      swap2\n      pop\n        /* \"#utility.yul\":7389:7482   */\n      tag_231\n        /* \"#utility.yul\":7478:7481   */\n      dup3\n        /* \"#utility.yul\":7389:7482   */\n      tag_142\n      jump\t// in\n    tag_231:\n        /* \"#utility.yul\":7507:7509   */\n      0x20\n        /* \"#utility.yul\":7502:7505   */\n      dup3\n        /* \"#utility.yul\":7498:7510   */\n      add\n        /* \"#utility.yul\":7491:7510   */\n      swap1\n      pop\n        /* \"#utility.yul\":7150:7516   */\n      swap2\n      swap1\n      pop\n      jump\t// out\n        /* \"#utility.yul\":7522:7941   */\n    tag_59:\n        /* \"#utility.yul\":7688:7692   */\n      0x00\n        /* \"#utility.yul\":7726:7728   */\n      0x20\n        /* \"#utility.yul\":7715:7724   */\n      dup3\n        /* \"#utility.yul\":7711:7729   */\n      add\n        /* \"#utility.yul\":7703:7729   */\n      swap1\n      pop\n        /* \"#utility.yul\":7775:7784   */\n      dup2\n        /* \"#utility.yul\":7769:7773   */\n      dup2\n        /* \"#utility.yul\":7765:7785   */\n      sub\n        /* \"#utility.yul\":7761:7762   */\n      0x00\n        /* \"#utility.yul\":7750:7759   */\n      dup4\n        /* \"#utility.yul\":7746:7763   */\n      add\n        /* \"#utility.yul\":7739:7786   */\n      mstore\n        /* \"#utility.yul\":7803:7934   */\n      tag_233\n        /* \"#utility.yul\":7929:7933   */\n      dup2\n        /* \"#utility.yul\":7803:7934   */\n      tag_143\n      jump\t// in\n    tag_233:\n        /* \"#utility.yul\":7795:7934   */\n      swap1\n      pop\n        /* \"#utility.yul\":7522:7941   */\n      swap2\n      swap1\n      pop\n      jump\t// out\n        /* \"#utility.yul\":7947:8389   */\n    tag_64:\n        /* \"#utility.yul\":8096:8100   */\n      0x00\n        /* \"#utility.yul\":8134:8136   */\n      0x60\n        /* \"#utility.yul\":8123:8132   */\n      dup3\n        /* \"#utility.yul\":8119:8137   */\n      add\n        /* \"#utility.yul\":8111:8137   */\n      swap1\n      pop\n        /* \"#utility.yul\":8147:8218   */\n      tag_235\n        /* \"#utility.yul\":8215:8216   */\n      0x00\n        /* \"#utility.yul\":8204:8213   */\n      dup4\n        /* \"#utility.yul\":8200:8217   */\n      add\n        /* \"#utility.yul\":8191:8197   */\n      dup7\n        /* \"#utility.yul\":8147:8218   */\n      tag_137\n      jump\t// in\n    tag_235:\n        /* \"#utility.yul\":8228:8300   */\n      tag_236\n        /* \"#utility.yul\":8296:8298   */\n      0x20\n        /* \"#utility.yul\":8285:8294   */\n      dup4\n        /* \"#utility.yul\":8281:8299   */\n      add\n        /* \"#utility.yul\":8272:8278   */\n      dup6\n        /* \"#utility.yul\":8228:8300   */\n      tag_137\n      jump\t// in\n    tag_236:\n        /* \"#utility.yul\":8310:8382   */\n      tag_237\n        /* \"#utility.yul\":8378:8380   */\n      0x40\n        /* \"#utility.yul\":8367:8376   */\n      dup4\n        /* \"#utility.yul\":8363:8381   */\n      add\n        /* \"#utility.yul\":8354:8360   */\n      dup5\n        /* \"#utility.yul\":8310:8382   */\n      tag_138\n      jump\t// in\n    tag_237:\n        /* \"#utility.yul\":7947:8389   */\n      swap5\n      swap4\n      pop\n      pop\n      pop\n      pop\n      jump\t// out\n        /* \"#utility.yul\":8395:8575   */\n    tag_144:\n        /* \"#utility.yul\":8443:8520   */\n      0x4e487b7100000000000000000000000000000000000000000000000000000000\n        /* \"#utility.yul\":8440:8441   */\n      0x00\n        /* \"#utility.yul\":8433:8521   */\n      mstore\n        /* \"#utility.yul\":8540:8544   */\n      0x11\n        /* \"#utility.yul\":8537:8538   */\n      0x04\n        /* \"#utility.yul\":8530:8545   */\n      mstore\n        /* \"#utility.yul\":8564:8568   */\n      0x24\n        /* \"#utility.yul\":8561:8562   */\n      0x00\n        /* \"#utility.yul\":8554:8569   */\n      revert\n        /* \"#utility.yul\":8581:8991   */\n    tag_85:\n        /* \"#utility.yul\":8621:8628   */\n      0x00\n        /* \"#utility.yul\":8644:8664   */\n      tag_240\n        /* \"#utility.yul\":8662:8663   */\n      dup3\n        /* \"#utility.yul\":8644:8664   */\n      tag_123\n      jump\t// in\n    tag_240:\n        /* \"#utility.yul\":8639:8664   */\n      swap2\n      pop\n        /* \"#utility.yul\":8678:8698   */\n      tag_241\n        /* \"#utility.yul\":8696:8697   */\n      dup4\n        /* \"#utility.yul\":8678:8698   */\n      tag_123\n      jump\t// in\n    tag_241:\n        /* \"#utility.yul\":8673:8698   */\n      swap3\n      pop\n        /* \"#utility.yul\":8733:8734   */\n      dup3\n        /* \"#utility.yul\":8730:8731   */\n      dup3\n        /* \"#utility.yul\":8726:8735   */\n      mul\n        /* \"#utility.yul\":8755:8785   */\n      tag_242\n        /* \"#utility.yul\":8773:8784   */\n      dup2\n        /* \"#utility.yul\":8755:8785   */\n      tag_123\n      jump\t// in\n    tag_242:\n        /* \"#utility.yul\":8744:8785   */\n      swap2\n      pop\n        /* \"#utility.yul\":8934:8935   */\n      dup3\n        /* \"#utility.yul\":8925:8932   */\n      dup3\n        /* \"#utility.yul\":8921:8936   */\n      div\n        /* \"#utility.yul\":8918:8919   */\n      dup5\n        /* \"#utility.yul\":8915:8937   */\n      eq\n        /* \"#utility.yul\":8895:8896   */\n      dup4\n        /* \"#utility.yul\":8888:8897   */\n      iszero\n        /* \"#utility.yul\":8868:8951   */\n      or\n        /* \"#utility.yul\":8845:8984   */\n      tag_243\n      jumpi\n        /* \"#utility.yul\":8964:8982   */\n      tag_244\n      tag_144\n      jump\t// in\n    tag_244:\n        /* \"#utility.yul\":8845:8984   */\n    tag_243:\n        /* \"#utility.yul\":8629:8991   */\n      pop\n        /* \"#utility.yul\":8581:8991   */\n      swap3\n      swap2\n      pop\n      pop\n      jump\t// out\n        /* \"#utility.yul\":8997:9177   */\n    tag_145:\n        /* \"#utility.yul\":9045:9122   */\n      0x4e487b7100000000000000000000000000000000000000000000000000000000\n        /* \"#utility.yul\":9042:9043   */\n      0x00\n        /* \"#utility.yul\":9035:9123   */\n      mstore\n        /* \"#utility.yul\":9142:9146   */\n      0x12\n        /* \"#utility.yul\":9139:9140   */\n      0x04\n        /* \"#utility.yul\":9132:9147   */\n      mstore\n        /* \"#utility.yul\":9166:9170   */\n      0x24\n        /* \"#utility.yul\":9163:9164   */\n      0x00\n        /* \"#utility.yul\":9156:9171   */\n      revert\n        /* \"#utility.yul\":9183:9368   */\n    tag_87:\n        /* \"#utility.yul\":9223:9224   */\n      0x00\n        /* \"#utility.yul\":9240:9260   */\n      tag_247\n        /* \"#utility.yul\":9258:9259   */\n      dup3\n        /* \"#utility.yul\":9240:9260   */\n      tag_123\n      jump\t// in\n    tag_247:\n        /* \"#utility.yul\":9235:9260   */\n      swap2\n      pop\n        /* \"#utility.yul\":9274:9294   */\n      tag_248\n        /* \"#utility.yul\":9292:9293   */\n      dup4\n        /* \"#utility.yul\":9274:9294   */\n      tag_123\n      jump\t// in\n    tag_248:\n        /* \"#utility.yul\":9269:9294   */\n      swap3\n      pop\n        /* \"#utility.yul\":9313:9314   */\n      dup3\n        /* \"#utility.yul\":9303:9338   */\n      tag_249\n      jumpi\n        /* \"#utility.yul\":9318:9336   */\n      tag_250\n      tag_145\n      jump\t// in\n    tag_250:\n        /* \"#utility.yul\":9303:9338   */\n    tag_249:\n        /* \"#utility.yul\":9360:9361   */\n      dup3\n        /* \"#utility.yul\":9357:9358   */\n      dup3\n        /* \"#utility.yul\":9353:9362   */\n      div\n        /* \"#utility.yul\":9348:9362   */\n      swap1\n      pop\n        /* \"#utility.yul\":9183:9368   */\n      swap3\n      swap2\n      pop\n      pop\n      jump\t// out\n        /* \"#utility.yul\":9374:9584   */\n    tag_90:\n        /* \"#utility.yul\":9461:9465   */\n      0x00\n        /* \"#utility.yul\":9499:9501   */\n      0x20\n        /* \"#utility.yul\":9488:9497   */\n      dup3\n        /* \"#utility.yul\":9484:9502   */\n      add\n        /* \"#utility.yul\":9476:9502   */\n      swap1\n      pop\n        /* \"#utility.yul\":9512:9577   */\n      tag_252\n        /* \"#utility.yul\":9574:9575   */\n      0x00\n        /* \"#utility.yul\":9563:9572   */\n      dup4\n        /* \"#utility.yul\":9559:9576   */\n      add\n        /* \"#utility.yul\":9550:9556   */\n      dup5\n        /* \"#utility.yul\":9512:9577   */\n      tag_140\n      jump\t// in\n    tag_252:\n        /* \"#utility.yul\":9374:9584   */\n      swap3\n      swap2\n      pop\n      pop\n      jump\t// out\n        /* \"#utility.yul\":9590:9812   */\n    tag_94:\n        /* \"#utility.yul\":9683:9687   */\n      0x00\n        /* \"#utility.yul\":9721:9723   */\n      0x20\n        /* \"#utility.yul\":9710:9719   */\n      dup3\n        /* \"#utility.yul\":9706:9724   */\n      add\n        /* \"#utility.yul\":9698:9724   */\n      swap1\n      pop\n        /* \"#utility.yul\":9734:9805   */\n      tag_254\n        /* \"#utility.yul\":9802:9803   */\n      0x00\n        /* \"#utility.yul\":9791:9800   */\n      dup4\n        /* \"#utility.yul\":9787:9804   */\n      add\n        /* \"#utility.yul\":9778:9784   */\n      dup5\n        /* \"#utility.yul\":9734:9805   */\n      tag_138\n      jump\t// in\n    tag_254:\n        /* \"#utility.yul\":9590:9812   */\n      swap3\n      swap2\n      pop\n      pop\n      jump\t// out\n\n    auxdata: 0xa264697066735822122012ccbebb105a634663ef1100efaf4d12bbac4f12980793704269edba82e96a1364736f6c634300081a0033\n}\n",
				"bytecode": {
					"linkReferences": {},
					"object": "60a060405234801561000f575f80fd5b506040516113d13803806113d18339818101604052810190610031919061020c565b805f73ffffffffffffffffffffffffffffffffffffffff168173ffffffffffffffffffffffffffffffffffffffff16036100a2575f6040517f1e4fbdf70000000000000000000000000000000000000000000000000000000081526004016100999190610259565b60405180910390fd5b6100b1816100ed60201b60201c565b508173ffffffffffffffffffffffffffffffffffffffff1660808173ffffffffffffffffffffffffffffffffffffffff16815250505050610272565b5f805f9054906101000a900473ffffffffffffffffffffffffffffffffffffffff169050815f806101000a81548173ffffffffffffffffffffffffffffffffffffffff021916908373ffffffffffffffffffffffffffffffffffffffff1602179055508173ffffffffffffffffffffffffffffffffffffffff168173ffffffffffffffffffffffffffffffffffffffff167f8be0079c531659141344cd1fd0a4f28419497f9722a3daafe3b4186f6b6457e060405160405180910390a35050565b5f80fd5b5f73ffffffffffffffffffffffffffffffffffffffff82169050919050565b5f6101db826101b2565b9050919050565b6101eb816101d1565b81146101f5575f80fd5b50565b5f81519050610206816101e2565b92915050565b5f8060408385031215610222576102216101ae565b5b5f61022f858286016101f8565b9250506020610240858286016101f8565b9150509250929050565b610253816101d1565b82525050565b5f60208201905061026c5f83018461024a565b92915050565b60805161113261029f5f395f8181610362015281816104ba015281816105ce015261090e01526111325ff3fe608060405260043610610085575f3560e01c8063715018a611610058578063715018a6146101495780638da5cb5b1461015f578063aa452fa614610189578063aadc1ac1146101b1578063f2fde38b146101cd57610085565b8063150b7a0214610089578063371fd8e6146100c557806355a373d6146100e157806366877b8d1461010b575b5f80fd5b348015610094575f80fd5b506100af60048036038101906100aa9190610ced565b6101f5565b6040516100bc9190610dab565b60405180910390f35b6100df60048036038101906100da9190610dc4565b610209565b005b3480156100ec575f80fd5b506100f56104b8565b6040516101029190610e4a565b60405180910390f35b348015610116575f80fd5b50610131600480360381019061012c9190610dc4565b6104dc565b60405161014093929190610e9b565b60405180910390f35b348015610154575f80fd5b5061015d610592565b005b34801561016a575f80fd5b506101736105a5565b6040516101809190610ed0565b60405180910390f35b348015610194575f80fd5b506101af60048036038101906101aa9190610ee9565b6105cc565b005b6101cb60048036038101906101c69190610dc4565b61073c565b005b3480156101d8575f80fd5b506101f360048036038101906101ee9190610f27565b610a24565b005b5f63150b7a0260e01b905095945050505050565b5f60015f8381526020019081526020015f206040518060600160405290815f82015f9054906101000a900473ffffffffffffffffffffffffffffffffffffffff1673ffffffffffffffffffffffffffffffffffffffff1673ffffffffffffffffffffffffffffffffffffffff16815260200160018201548152602001600282015f9054906101000a900460ff1615151515815250509050805f015173ffffffffffffffffffffffffffffffffffffffff163373ffffffffffffffffffffffffffffffffffffffff1614610311576040517f08c379a000000000000000000000000000000000000000000000000000000000815260040161030890610fac565b60405180910390fd5b6103196105a5565b73ffffffffffffffffffffffffffffffffffffffff166108fc826020015190811502906040515f60405180830381858888f1935050505015801561035f573d5f803e3d5ffd5b507f000000000000000000000000000000000000000000000000000000000000000073ffffffffffffffffffffffffffffffffffffffff166342842e0e30835f0151856040518463ffffffff1660e01b81526004016103c093929190610fca565b5f604051808303815f87803b1580156103d7575f80fd5b505af11580156103e9573d5f803e3d5ffd5b50505050817f7a2863224f2483b562ae02ffb50ecee43fcf056425cd3130866c696435bc5b0660405160405180910390a281815f015173ffffffffffffffffffffffffffffffffffffffff167feaf449319c042c9ba3474fa0c5329eb58cd1f23be110cdbf9d697b8d303dac1560405160405180910390a360015f8381526020019081526020015f205f8082015f6101000a81549073ffffffffffffffffffffffffffffffffffffffff0219169055600182015f9055600282015f6101000a81549060ff021916905550505050565b7f000000000000000000000000000000000000000000000000000000000000000081565b5f805f8060015f8681526020019081526020015f206040518060600160405290815f82015f9054906101000a900473ffffffffffffffffffffffffffffffffffffffff1673ffffffffffffffffffffffffffffffffffffffff1673ffffffffffffffffffffffffffffffffffffffff16815260200160018201548152602001600282015f9054906101000a900460ff1615151515815250509050805f015181602001518260400151935093509350509193909250565b61059a610aa8565b6105a35f610b2f565b565b5f805f9054906101000a900473ffffffffffffffffffffffffffffffffffffffff16905090565b7f000000000000000000000000000000000000000000000000000000000000000073ffffffffffffffffffffffffffffffffffffffff166342842e0e3330856040518463ffffffff1660e01b815260040161062993929190610fca565b5f604051808303815f87803b158015610640575f80fd5b505af1158015610652573d5f803e3d5ffd5b5050505060405180606001604052803373ffffffffffffffffffffffffffffffffffffffff1681526020018281526020015f151581525060015f8481526020019081526020015f205f820151815f015f6101000a81548173ffffffffffffffffffffffffffffffffffffffff021916908373ffffffffffffffffffffffffffffffffffffffff160217905550602082015181600101556040820151816002015f6101000a81548160ff02191690831515021790555090505080827fa07a6b72ca66d0c6f7160d8306b176fdfd7ed49e65c72e2221116b463718246c60405160405180910390a35050565b610744610aa8565b5f60015f8381526020019081526020015f2090505f6064603c610af061076a919061102c565b610774919061109a565b9050816001015481106108b9576001826002015f6101000a81548160ff021916908315150217905550827f9723cf81bdb5e67545471ad87fff82fd7cc1f8473cd9622098e2adb1289c6f9460016040516107ce91906110ca565b60405180910390a2815f015f9054906101000a900473ffffffffffffffffffffffffffffffffffffffff1673ffffffffffffffffffffffffffffffffffffffff166108fc836001015490811502906040515f60405180830381858888f1935050505015801561083f573d5f803e3d5ffd5b50815f015f9054906101000a900473ffffffffffffffffffffffffffffffffffffffff1673ffffffffffffffffffffffffffffffffffffffff167f03691f2e05be498601c6f8a30fcd63aeea87be72694dd93c012caf36c341d6fc83600101546040516108ac91906110e3565b60405180910390a2610a1f565b5f826002015f6101000a81548160ff021916908315150217905550827f9723cf81bdb5e67545471ad87fff82fd7cc1f8473cd9622098e2adb1289c6f945f60405161090491906110ca565b60405180910390a27f000000000000000000000000000000000000000000000000000000000000000073ffffffffffffffffffffffffffffffffffffffff166342842e0e30845f015f9054906101000a900473ffffffffffffffffffffffffffffffffffffffff16866040518463ffffffff1660e01b815260040161098b93929190610fca565b5f604051808303815f87803b1580156109a2575f80fd5b505af11580156109b4573d5f803e3d5ffd5b5050505082825f015f9054906101000a900473ffffffffffffffffffffffffffffffffffffffff1673ffffffffffffffffffffffffffffffffffffffff167feaf449319c042c9ba3474fa0c5329eb58cd1f23be110cdbf9d697b8d303dac1560405160405180910390a35b505050565b610a2c610aa8565b5f73ffffffffffffffffffffffffffffffffffffffff168173ffffffffffffffffffffffffffffffffffffffff1603610a9c575f6040517f1e4fbdf7000000000000000000000000000000000000000000000000000000008152600401610a939190610ed0565b60405180910390fd5b610aa581610b2f565b50565b610ab0610bf0565b73ffffffffffffffffffffffffffffffffffffffff16610ace6105a5565b73ffffffffffffffffffffffffffffffffffffffff1614610b2d57610af1610bf0565b6040517f118cdaa7000000000000000000000000000000000000000000000000000000008152600401610b249190610ed0565b60405180910390fd5b565b5f805f9054906101000a900473ffffffffffffffffffffffffffffffffffffffff169050815f806101000a81548173ffffffffffffffffffffffffffffffffffffffff021916908373ffffffffffffffffffffffffffffffffffffffff1602179055508173ffffffffffffffffffffffffffffffffffffffff168173ffffffffffffffffffffffffffffffffffffffff167f8be0079c531659141344cd1fd0a4f28419497f9722a3daafe3b4186f6b6457e060405160405180910390a35050565b5f33905090565b5f80fd5b5f80fd5b5f73ffffffffffffffffffffffffffffffffffffffff82169050919050565b5f610c2882610bff565b9050919050565b610c3881610c1e565b8114610c42575f80fd5b50565b5f81359050610c5381610c2f565b92915050565b5f819050919050565b610c6b81610c59565b8114610c75575f80fd5b50565b5f81359050610c8681610c62565b92915050565b5f80fd5b5f80fd5b5f80fd5b5f8083601f840112610cad57610cac610c8c565b5b8235905067ffffffffffffffff811115610cca57610cc9610c90565b5b602083019150836001820283011115610ce657610ce5610c94565b5b9250929050565b5f805f805f60808688031215610d0657610d05610bf7565b5b5f610d1388828901610c45565b9550506020610d2488828901610c45565b9450506040610d3588828901610c78565b935050606086013567ffffffffffffffff811115610d5657610d55610bfb565b5b610d6288828901610c98565b92509250509295509295909350565b5f7fffffffff0000000000000000000000000000000000000000000000000000000082169050919050565b610da581610d71565b82525050565b5f602082019050610dbe5f830184610d9c565b92915050565b5f60208284031215610dd957610dd8610bf7565b5b5f610de684828501610c78565b91505092915050565b5f819050919050565b5f610e12610e0d610e0884610bff565b610def565b610bff565b9050919050565b5f610e2382610df8565b9050919050565b5f610e3482610e19565b9050919050565b610e4481610e2a565b82525050565b5f602082019050610e5d5f830184610e3b565b92915050565b610e6c81610c1e565b82525050565b610e7b81610c59565b82525050565b5f8115159050919050565b610e9581610e81565b82525050565b5f606082019050610eae5f830186610e63565b610ebb6020830185610e72565b610ec86040830184610e8c565b949350505050565b5f602082019050610ee35f830184610e63565b92915050565b5f8060408385031215610eff57610efe610bf7565b5b5f610f0c85828601610c78565b9250506020610f1d85828601610c78565b9150509250929050565b5f60208284031215610f3c57610f3b610bf7565b5b5f610f4984828501610c45565b91505092915050565b5f82825260208201905092915050565b7f4f6e6c7920626f72726f7765722063616e2063616c6c000000000000000000005f82015250565b5f610f96601683610f52565b9150610fa182610f62565b602082019050919050565b5f6020820190508181035f830152610fc381610f8a565b9050919050565b5f606082019050610fdd5f830186610e63565b610fea6020830185610e63565b610ff76040830184610e72565b949350505050565b7f4e487b71000000000000000000000000000000000000000000000000000000005f52601160045260245ffd5b5f61103682610c59565b915061104183610c59565b925082820261104f81610c59565b9150828204841483151761106657611065610fff565b5b5092915050565b7f4e487b71000000000000000000000000000000000000000000000000000000005f52601260045260245ffd5b5f6110a482610c59565b91506110af83610c59565b9250826110bf576110be61106d565b5b828204905092915050565b5f6020820190506110dd5f830184610e8c565b92915050565b5f6020820190506110f65f830184610e72565b9291505056fea264697066735822122012ccbebb105a634663ef1100efaf4d12bbac4f12980793704269edba82e96a1364736f6c634300081a0033",
					"opcodes": "PUSH1 0xA0 PUSH1 0x40 MSTORE CALLVALUE DUP1 ISZERO PUSH2 0xF JUMPI PUSH0 DUP1 REVERT JUMPDEST POP PUSH1 0x40 MLOAD PUSH2 0x13D1 CODESIZE SUB DUP1 PUSH2 0x13D1 DUP4 CODECOPY DUP2 DUP2 ADD PUSH1 0x40 MSTORE DUP2 ADD SWAP1 PUSH2 0x31 SWAP2 SWAP1 PUSH2 0x20C JUMP JUMPDEST DUP1 PUSH0 PUSH20 0xFFFFFFFFFFFFFFFFFFFFFFFFFFFFFFFFFFFFFFFF AND DUP2 PUSH20 0xFFFFFFFFFFFFFFFFFFFFFFFFFFFFFFFFFFFFFFFF AND SUB PUSH2 0xA2 JUMPI PUSH0 PUSH1 0x40 MLOAD PUSH32 0x1E4FBDF700000000000000000000000000000000000000000000000000000000 DUP2 MSTORE PUSH1 0x4 ADD PUSH2 0x99 SWAP2 SWAP1 PUSH2 0x259 JUMP JUMPDEST PUSH1 0x40 MLOAD DUP1 SWAP2 SUB SWAP1 REVERT JUMPDEST PUSH2 0xB1 DUP2 PUSH2 0xED PUSH1 0x20 SHL PUSH1 0x20 SHR JUMP JUMPDEST POP DUP2 PUSH20 0xFFFFFFFFFFFFFFFFFFFFFFFFFFFFFFFFFFFFFFFF AND PUSH1 0x80 DUP2 PUSH20 0xFFFFFFFFFFFFFFFFFFFFFFFFFFFFFFFFFFFFFFFF AND DUP2 MSTORE POP POP POP POP PUSH2 0x272 JUMP JUMPDEST PUSH0 DUP1 PUSH0 SWAP1 SLOAD SWAP1 PUSH2 0x100 EXP SWAP1 DIV PUSH20 0xFFFFFFFFFFFFFFFFFFFFFFFFFFFFFFFFFFFFFFFF AND SWAP1 POP DUP2 PUSH0 DUP1 PUSH2 0x100 EXP DUP2 SLOAD DUP2 PUSH20 0xFFFFFFFFFFFFFFFFFFFFFFFFFFFFFFFFFFFFFFFF MUL NOT AND SWAP1 DUP4 PUSH20 0xFFFFFFFFFFFFFFFFFFFFFFFFFFFFFFFFFFFFFFFF AND MUL OR SWAP1 SSTORE POP DUP2 PUSH20 0xFFFFFFFFFFFFFFFFFFFFFFFFFFFFFFFFFFFFFFFF AND DUP2 PUSH20 0xFFFFFFFFFFFFFFFFFFFFFFFFFFFFFFFFFFFFFFFF AND PUSH32 0x8BE0079C531659141344CD1FD0A4F28419497F9722A3DAAFE3B4186F6B6457E0 PUSH1 0x40 MLOAD PUSH1 0x40 MLOAD DUP1 SWAP2 SUB SWAP1 LOG3 POP POP JUMP JUMPDEST PUSH0 DUP1 REVERT JUMPDEST PUSH0 PUSH20 0xFFFFFFFFFFFFFFFFFFFFFFFFFFFFFFFFFFFFFFFF DUP3 AND SWAP1 POP SWAP2 SWAP1 POP JUMP JUMPDEST PUSH0 PUSH2 0x1DB DUP3 PUSH2 0x1B2 JUMP JUMPDEST SWAP1 POP SWAP2 SWAP1 POP JUMP JUMPDEST PUSH2 0x1EB DUP2 PUSH2 0x1D1 JUMP JUMPDEST DUP2 EQ PUSH2 0x1F5 JUMPI PUSH0 DUP1 REVERT JUMPDEST POP JUMP JUMPDEST PUSH0 DUP2 MLOAD SWAP1 POP PUSH2 0x206 DUP2 PUSH2 0x1E2 JUMP JUMPDEST SWAP3 SWAP2 POP POP JUMP JUMPDEST PUSH0 DUP1 PUSH1 0x40 DUP4 DUP6 SUB SLT ISZERO PUSH2 0x222 JUMPI PUSH2 0x221 PUSH2 0x1AE JUMP JUMPDEST JUMPDEST PUSH0 PUSH2 0x22F DUP6 DUP3 DUP7 ADD PUSH2 0x1F8 JUMP JUMPDEST SWAP3 POP POP PUSH1 0x20 PUSH2 0x240 DUP6 DUP3 DUP7 ADD PUSH2 0x1F8 JUMP JUMPDEST SWAP2 POP POP SWAP3 POP SWAP3 SWAP1 POP JUMP JUMPDEST PUSH2 0x253 DUP2 PUSH2 0x1D1 JUMP JUMPDEST DUP3 MSTORE POP POP JUMP JUMPDEST PUSH0 PUSH1 0x20 DUP3 ADD SWAP1 POP PUSH2 0x26C PUSH0 DUP4 ADD DUP5 PUSH2 0x24A JUMP JUMPDEST SWAP3 SWAP2 POP POP JUMP JUMPDEST PUSH1 0x80 MLOAD PUSH2 0x1132 PUSH2 0x29F PUSH0 CODECOPY PUSH0 DUP2 DUP2 PUSH2 0x362 ADD MSTORE DUP2 DUP2 PUSH2 0x4BA ADD MSTORE DUP2 DUP2 PUSH2 0x5CE ADD MSTORE PUSH2 0x90E ADD MSTORE PUSH2 0x1132 PUSH0 RETURN INVALID PUSH1 0x80 PUSH1 0x40 MSTORE PUSH1 0x4 CALLDATASIZE LT PUSH2 0x85 JUMPI PUSH0 CALLDATALOAD PUSH1 0xE0 SHR DUP1 PUSH4 0x715018A6 GT PUSH2 0x58 JUMPI DUP1 PUSH4 0x715018A6 EQ PUSH2 0x149 JUMPI DUP1 PUSH4 0x8DA5CB5B EQ PUSH2 0x15F JUMPI DUP1 PUSH4 0xAA452FA6 EQ PUSH2 0x189 JUMPI DUP1 PUSH4 0xAADC1AC1 EQ PUSH2 0x1B1 JUMPI DUP1 PUSH4 0xF2FDE38B EQ PUSH2 0x1CD JUMPI PUSH2 0x85 JUMP JUMPDEST DUP1 PUSH4 0x150B7A02 EQ PUSH2 0x89 JUMPI DUP1 PUSH4 0x371FD8E6 EQ PUSH2 0xC5 JUMPI DUP1 PUSH4 0x55A373D6 EQ PUSH2 0xE1 JUMPI DUP1 PUSH4 0x66877B8D EQ PUSH2 0x10B JUMPI JUMPDEST PUSH0 DUP1 REVERT JUMPDEST CALLVALUE DUP1 ISZERO PUSH2 0x94 JUMPI PUSH0 DUP1 REVERT JUMPDEST POP PUSH2 0xAF PUSH1 0x4 DUP1 CALLDATASIZE SUB DUP2 ADD SWAP1 PUSH2 0xAA SWAP2 SWAP1 PUSH2 0xCED JUMP JUMPDEST PUSH2 0x1F5 JUMP JUMPDEST PUSH1 0x40 MLOAD PUSH2 0xBC SWAP2 SWAP1 PUSH2 0xDAB JUMP JUMPDEST PUSH1 0x40 MLOAD DUP1 SWAP2 SUB SWAP1 RETURN JUMPDEST PUSH2 0xDF PUSH1 0x4 DUP1 CALLDATASIZE SUB DUP2 ADD SWAP1 PUSH2 0xDA SWAP2 SWAP1 PUSH2 0xDC4 JUMP JUMPDEST PUSH2 0x209 JUMP JUMPDEST STOP JUMPDEST CALLVALUE DUP1 ISZERO PUSH2 0xEC JUMPI PUSH0 DUP1 REVERT JUMPDEST POP PUSH2 0xF5 PUSH2 0x4B8 JUMP JUMPDEST PUSH1 0x40 MLOAD PUSH2 0x102 SWAP2 SWAP1 PUSH2 0xE4A JUMP JUMPDEST PUSH1 0x40 MLOAD DUP1 SWAP2 SUB SWAP1 RETURN JUMPDEST CALLVALUE DUP1 ISZERO PUSH2 0x116 JUMPI PUSH0 DUP1 REVERT JUMPDEST POP PUSH2 0x131 PUSH1 0x4 DUP1 CALLDATASIZE SUB DUP2 ADD SWAP1 PUSH2 0x12C SWAP2 SWAP1 PUSH2 0xDC4 JUMP JUMPDEST PUSH2 0x4DC JUMP JUMPDEST PUSH1 0x40 MLOAD PUSH2 0x140 SWAP4 SWAP3 SWAP2 SWAP1 PUSH2 0xE9B JUMP JUMPDEST PUSH1 0x40 MLOAD DUP1 SWAP2 SUB SWAP1 RETURN JUMPDEST CALLVALUE DUP1 ISZERO PUSH2 0x154 JUMPI PUSH0 DUP1 REVERT JUMPDEST POP PUSH2 0x15D PUSH2 0x592 JUMP JUMPDEST STOP JUMPDEST CALLVALUE DUP1 ISZERO PUSH2 0x16A JUMPI PUSH0 DUP1 REVERT JUMPDEST POP PUSH2 0x173 PUSH2 0x5A5 JUMP JUMPDEST PUSH1 0x40 MLOAD PUSH2 0x180 SWAP2 SWAP1 PUSH2 0xED0 JUMP JUMPDEST PUSH1 0x40 MLOAD DUP1 SWAP2 SUB SWAP1 RETURN JUMPDEST CALLVALUE DUP1 ISZERO PUSH2 0x194 JUMPI PUSH0 DUP1 REVERT JUMPDEST POP PUSH2 0x1AF PUSH1 0x4 DUP1 CALLDATASIZE SUB DUP2 ADD SWAP1 PUSH2 0x1AA SWAP2 SWAP1 PUSH2 0xEE9 JUMP JUMPDEST PUSH2 0x5CC JUMP JUMPDEST STOP JUMPDEST PUSH2 0x1CB PUSH1 0x4 DUP1 CALLDATASIZE SUB DUP2 ADD SWAP1 PUSH2 0x1C6 SWAP2 SWAP1 PUSH2 0xDC4 JUMP JUMPDEST PUSH2 0x73C JUMP JUMPDEST STOP JUMPDEST CALLVALUE DUP1 ISZERO PUSH2 0x1D8 JUMPI PUSH0 DUP1 REVERT JUMPDEST POP PUSH2 0x1F3 PUSH1 0x4 DUP1 CALLDATASIZE SUB DUP2 ADD SWAP1 PUSH2 0x1EE SWAP2 SWAP1 PUSH2 0xF27 JUMP JUMPDEST PUSH2 0xA24 JUMP JUMPDEST STOP JUMPDEST PUSH0 PUSH4 0x150B7A02 PUSH1 0xE0 SHL SWAP1 POP SWAP6 SWAP5 POP POP POP POP POP JUMP JUMPDEST PUSH0 PUSH1 0x1 PUSH0 DUP4 DUP2 MSTORE PUSH1 0x20 ADD SWAP1 DUP2 MSTORE PUSH1 0x20 ADD PUSH0 KECCAK256 PUSH1 0x40 MLOAD DUP1 PUSH1 0x60 ADD PUSH1 0x40 MSTORE SWAP1 DUP2 PUSH0 DUP3 ADD PUSH0 SWAP1 SLOAD SWAP1 PUSH2 0x100 EXP SWAP1 DIV PUSH20 0xFFFFFFFFFFFFFFFFFFFFFFFFFFFFFFFFFFFFFFFF AND PUSH20 0xFFFFFFFFFFFFFFFFFFFFFFFFFFFFFFFFFFFFFFFF AND PUSH20 0xFFFFFFFFFFFFFFFFFFFFFFFFFFFFFFFFFFFFFFFF AND DUP2 MSTORE PUSH1 0x20 ADD PUSH1 0x1 DUP3 ADD SLOAD DUP2 MSTORE PUSH1 0x20 ADD PUSH1 0x2 DUP3 ADD PUSH0 SWAP1 SLOAD SWAP1 PUSH2 0x100 EXP SWAP1 DIV PUSH1 0xFF AND ISZERO ISZERO ISZERO ISZERO DUP2 MSTORE POP POP SWAP1 POP DUP1 PUSH0 ADD MLOAD PUSH20 0xFFFFFFFFFFFFFFFFFFFFFFFFFFFFFFFFFFFFFFFF AND CALLER PUSH20 0xFFFFFFFFFFFFFFFFFFFFFFFFFFFFFFFFFFFFFFFF AND EQ PUSH2 0x311 JUMPI PUSH1 0x40 MLOAD PUSH32 0x8C379A000000000000000000000000000000000000000000000000000000000 DUP2 MSTORE PUSH1 0x4 ADD PUSH2 0x308 SWAP1 PUSH2 0xFAC JUMP JUMPDEST PUSH1 0x40 MLOAD DUP1 SWAP2 SUB SWAP1 REVERT JUMPDEST PUSH2 0x319 PUSH2 0x5A5 JUMP JUMPDEST PUSH20 0xFFFFFFFFFFFFFFFFFFFFFFFFFFFFFFFFFFFFFFFF AND PUSH2 0x8FC DUP3 PUSH1 0x20 ADD MLOAD SWAP1 DUP2 ISZERO MUL SWAP1 PUSH1 0x40 MLOAD PUSH0 PUSH1 0x40 MLOAD DUP1 DUP4 SUB DUP2 DUP6 DUP9 DUP9 CALL SWAP4 POP POP POP POP ISZERO DUP1 ISZERO PUSH2 0x35F JUMPI RETURNDATASIZE PUSH0 DUP1 RETURNDATACOPY RETURNDATASIZE PUSH0 REVERT JUMPDEST POP PUSH32 0x0 PUSH20 0xFFFFFFFFFFFFFFFFFFFFFFFFFFFFFFFFFFFFFFFF AND PUSH4 0x42842E0E ADDRESS DUP4 PUSH0 ADD MLOAD DUP6 PUSH1 0x40 MLOAD DUP5 PUSH4 0xFFFFFFFF AND PUSH1 0xE0 SHL DUP2 MSTORE PUSH1 0x4 ADD PUSH2 0x3C0 SWAP4 SWAP3 SWAP2 SWAP1 PUSH2 0xFCA JUMP JUMPDEST PUSH0 PUSH1 0x40 MLOAD DUP1 DUP4 SUB DUP2 PUSH0 DUP8 DUP1 EXTCODESIZE ISZERO DUP1 ISZERO PUSH2 0x3D7 JUMPI PUSH0 DUP1 REVERT JUMPDEST POP GAS CALL ISZERO DUP1 ISZERO PUSH2 0x3E9 JUMPI RETURNDATASIZE PUSH0 DUP1 RETURNDATACOPY RETURNDATASIZE PUSH0 REVERT JUMPDEST POP POP POP POP DUP2 PUSH32 0x7A2863224F2483B562AE02FFB50ECEE43FCF056425CD3130866C696435BC5B06 PUSH1 0x40 MLOAD PUSH1 0x40 MLOAD DUP1 SWAP2 SUB SWAP1 LOG2 DUP2 DUP2 PUSH0 ADD MLOAD PUSH20 0xFFFFFFFFFFFFFFFFFFFFFFFFFFFFFFFFFFFFFFFF AND PUSH32 0xEAF449319C042C9BA3474FA0C5329EB58CD1F23BE110CDBF9D697B8D303DAC15 PUSH1 0x40 MLOAD PUSH1 0x40 MLOAD DUP1 SWAP2 SUB SWAP1 LOG3 PUSH1 0x1 PUSH0 DUP4 DUP2 MSTORE PUSH1 0x20 ADD SWAP1 DUP2 MSTORE PUSH1 0x20 ADD PUSH0 KECCAK256 PUSH0 DUP1 DUP3 ADD PUSH0 PUSH2 0x100 EXP DUP2 SLOAD SWAP1 PUSH20 0xFFFFFFFFFFFFFFFFFFFFFFFFFFFFFFFFFFFFFFFF MUL NOT AND SWAP1 SSTORE PUSH1 0x1 DUP3 ADD PUSH0 SWAP1 SSTORE PUSH1 0x2 DUP3 ADD PUSH0 PUSH2 0x100 EXP DUP2 SLOAD SWAP1 PUSH1 0xFF MUL NOT AND SWAP1 SSTORE POP POP POP POP JUMP JUMPDEST PUSH32 0x0 DUP2 JUMP JUMPDEST PUSH0 DUP1 PUSH0 DUP1 PUSH1 0x1 PUSH0 DUP7 DUP2 MSTORE PUSH1 0x20 ADD SWAP1 DUP2 MSTORE PUSH1 0x20 ADD PUSH0 KECCAK256 PUSH1 0x40 MLOAD DUP1 PUSH1 0x60 ADD PUSH1 0x40 MSTORE SWAP1 DUP2 PUSH0 DUP3 ADD PUSH0 SWAP1 SLOAD SWAP1 PUSH2 0x100 EXP SWAP1 DIV PUSH20 0xFFFFFFFFFFFFFFFFFFFFFFFFFFFFFFFFFFFFFFFF AND PUSH20 0xFFFFFFFFFFFFFFFFFFFFFFFFFFFFFFFFFFFFFFFF AND PUSH20 0xFFFFFFFFFFFFFFFFFFFFFFFFFFFFFFFFFFFFFFFF AND DUP2 MSTORE PUSH1 0x20 ADD PUSH1 0x1 DUP3 ADD SLOAD DUP2 MSTORE PUSH1 0x20 ADD PUSH1 0x2 DUP3 ADD PUSH0 SWAP1 SLOAD SWAP1 PUSH2 0x100 EXP SWAP1 DIV PUSH1 0xFF AND ISZERO ISZERO ISZERO ISZERO DUP2 MSTORE POP POP SWAP1 POP DUP1 PUSH0 ADD MLOAD DUP2 PUSH1 0x20 ADD MLOAD DUP3 PUSH1 0x40 ADD MLOAD SWAP4 POP SWAP4 POP SWAP4 POP POP SWAP2 SWAP4 SWAP1 SWAP3 POP JUMP JUMPDEST PUSH2 0x59A PUSH2 0xAA8 JUMP JUMPDEST PUSH2 0x5A3 PUSH0 PUSH2 0xB2F JUMP JUMPDEST JUMP JUMPDEST PUSH0 DUP1 PUSH0 SWAP1 SLOAD SWAP1 PUSH2 0x100 EXP SWAP1 DIV PUSH20 0xFFFFFFFFFFFFFFFFFFFFFFFFFFFFFFFFFFFFFFFF AND SWAP1 POP SWAP1 JUMP JUMPDEST PUSH32 0x0 PUSH20 0xFFFFFFFFFFFFFFFFFFFFFFFFFFFFFFFFFFFFFFFF AND PUSH4 0x42842E0E CALLER ADDRESS DUP6 PUSH1 0x40 MLOAD DUP5 PUSH4 0xFFFFFFFF AND PUSH1 0xE0 SHL DUP2 MSTORE PUSH1 0x4 ADD PUSH2 0x629 SWAP4 SWAP3 SWAP2 SWAP1 PUSH2 0xFCA JUMP JUMPDEST PUSH0 PUSH1 0x40 MLOAD DUP1 DUP4 SUB DUP2 PUSH0 DUP8 DUP1 EXTCODESIZE ISZERO DUP1 ISZERO PUSH2 0x640 JUMPI PUSH0 DUP1 REVERT JUMPDEST POP GAS CALL ISZERO DUP1 ISZERO PUSH2 0x652 JUMPI RETURNDATASIZE PUSH0 DUP1 RETURNDATACOPY RETURNDATASIZE PUSH0 REVERT JUMPDEST POP POP POP POP PUSH1 0x40 MLOAD DUP1 PUSH1 0x60 ADD PUSH1 0x40 MSTORE DUP1 CALLER PUSH20 0xFFFFFFFFFFFFFFFFFFFFFFFFFFFFFFFFFFFFFFFF AND DUP2 MSTORE PUSH1 0x20 ADD DUP3 DUP2 MSTORE PUSH1 0x20 ADD PUSH0 ISZERO ISZERO DUP2 MSTORE POP PUSH1 0x1 PUSH0 DUP5 DUP2 MSTORE PUSH1 0x20 ADD SWAP1 DUP2 MSTORE PUSH1 0x20 ADD PUSH0 KECCAK256 PUSH0 DUP3 ADD MLOAD DUP2 PUSH0 ADD PUSH0 PUSH2 0x100 EXP DUP2 SLOAD DUP2 PUSH20 0xFFFFFFFFFFFFFFFFFFFFFFFFFFFFFFFFFFFFFFFF MUL NOT AND SWAP1 DUP4 PUSH20 0xFFFFFFFFFFFFFFFFFFFFFFFFFFFFFFFFFFFFFFFF AND MUL OR SWAP1 SSTORE POP PUSH1 0x20 DUP3 ADD MLOAD DUP2 PUSH1 0x1 ADD SSTORE PUSH1 0x40 DUP3 ADD MLOAD DUP2 PUSH1 0x2 ADD PUSH0 PUSH2 0x100 EXP DUP2 SLOAD DUP2 PUSH1 0xFF MUL NOT AND SWAP1 DUP4 ISZERO ISZERO MUL OR SWAP1 SSTORE POP SWAP1 POP POP DUP1 DUP3 PUSH32 0xA07A6B72CA66D0C6F7160D8306B176FDFD7ED49E65C72E2221116B463718246C PUSH1 0x40 MLOAD PUSH1 0x40 MLOAD DUP1 SWAP2 SUB SWAP1 LOG3 POP POP JUMP JUMPDEST PUSH2 0x744 PUSH2 0xAA8 JUMP JUMPDEST PUSH0 PUSH1 0x1 PUSH0 DUP4 DUP2 MSTORE PUSH1 0x20 ADD SWAP1 DUP2 MSTORE PUSH1 0x20 ADD PUSH0 KECCAK256 SWAP1 POP PUSH0 PUSH1 0x64 PUSH1 0x3C PUSH2 0xAF0 PUSH2 0x76A SWAP2 SWAP1 PUSH2 0x102C JUMP JUMPDEST PUSH2 0x774 SWAP2 SWAP1 PUSH2 0x109A JUMP JUMPDEST SWAP1 POP DUP2 PUSH1 0x1 ADD SLOAD DUP2 LT PUSH2 0x8B9 JUMPI PUSH1 0x1 DUP3 PUSH1 0x2 ADD PUSH0 PUSH2 0x100 EXP DUP2 SLOAD DUP2 PUSH1 0xFF MUL NOT AND SWAP1 DUP4 ISZERO ISZERO MUL OR SWAP1 SSTORE POP DUP3 PUSH32 0x9723CF81BDB5E67545471AD87FFF82FD7CC1F8473CD9622098E2ADB1289C6F94 PUSH1 0x1 PUSH1 0x40 MLOAD PUSH2 0x7CE SWAP2 SWAP1 PUSH2 0x10CA JUMP JUMPDEST PUSH1 0x40 MLOAD DUP1 SWAP2 SUB SWAP1 LOG2 DUP2 PUSH0 ADD PUSH0 SWAP1 SLOAD SWAP1 PUSH2 0x100 EXP SWAP1 DIV PUSH20 0xFFFFFFFFFFFFFFFFFFFFFFFFFFFFFFFFFFFFFFFF AND PUSH20 0xFFFFFFFFFFFFFFFFFFFFFFFFFFFFFFFFFFFFFFFF AND PUSH2 0x8FC DUP4 PUSH1 0x1 ADD SLOAD SWAP1 DUP2 ISZERO MUL SWAP1 PUSH1 0x40 MLOAD PUSH0 PUSH1 0x40 MLOAD DUP1 DUP4 SUB DUP2 DUP6 DUP9 DUP9 CALL SWAP4 POP POP POP POP ISZERO DUP1 ISZERO PUSH2 0x83F JUMPI RETURNDATASIZE PUSH0 DUP1 RETURNDATACOPY RETURNDATASIZE PUSH0 REVERT JUMPDEST POP DUP2 PUSH0 ADD PUSH0 SWAP1 SLOAD SWAP1 PUSH2 0x100 EXP SWAP1 DIV PUSH20 0xFFFFFFFFFFFFFFFFFFFFFFFFFFFFFFFFFFFFFFFF AND PUSH20 0xFFFFFFFFFFFFFFFFFFFFFFFFFFFFFFFFFFFFFFFF AND PUSH32 0x3691F2E05BE498601C6F8A30FCD63AEEA87BE72694DD93C012CAF36C341D6FC DUP4 PUSH1 0x1 ADD SLOAD PUSH1 0x40 MLOAD PUSH2 0x8AC SWAP2 SWAP1 PUSH2 0x10E3 JUMP JUMPDEST PUSH1 0x40 MLOAD DUP1 SWAP2 SUB SWAP1 LOG2 PUSH2 0xA1F JUMP JUMPDEST PUSH0 DUP3 PUSH1 0x2 ADD PUSH0 PUSH2 0x100 EXP DUP2 SLOAD DUP2 PUSH1 0xFF MUL NOT AND SWAP1 DUP4 ISZERO ISZERO MUL OR SWAP1 SSTORE POP DUP3 PUSH32 0x9723CF81BDB5E67545471AD87FFF82FD7CC1F8473CD9622098E2ADB1289C6F94 PUSH0 PUSH1 0x40 MLOAD PUSH2 0x904 SWAP2 SWAP1 PUSH2 0x10CA JUMP JUMPDEST PUSH1 0x40 MLOAD DUP1 SWAP2 SUB SWAP1 LOG2 PUSH32 0x0 PUSH20 0xFFFFFFFFFFFFFFFFFFFFFFFFFFFFFFFFFFFFFFFF AND PUSH4 0x42842E0E ADDRESS DUP5 PUSH0 ADD PUSH0 SWAP1 SLOAD SWAP1 PUSH2 0x100 EXP SWAP1 DIV PUSH20 0xFFFFFFFFFFFFFFFFFFFFFFFFFFFFFFFFFFFFFFFF AND DUP7 PUSH1 0x40 MLOAD DUP5 PUSH4 0xFFFFFFFF AND PUSH1 0xE0 SHL DUP2 MSTORE PUSH1 0x4 ADD PUSH2 0x98B SWAP4 SWAP3 SWAP2 SWAP1 PUSH2 0xFCA JUMP JUMPDEST PUSH0 PUSH1 0x40 MLOAD DUP1 DUP4 SUB DUP2 PUSH0 DUP8 DUP1 EXTCODESIZE ISZERO DUP1 ISZERO PUSH2 0x9A2 JUMPI PUSH0 DUP1 REVERT JUMPDEST POP GAS CALL ISZERO DUP1 ISZERO PUSH2 0x9B4 JUMPI RETURNDATASIZE PUSH0 DUP1 RETURNDATACOPY RETURNDATASIZE PUSH0 REVERT JUMPDEST POP POP POP POP DUP3 DUP3 PUSH0 ADD PUSH0 SWAP1 SLOAD SWAP1 PUSH2 0x100 EXP SWAP1 DIV PUSH20 0xFFFFFFFFFFFFFFFFFFFFFFFFFFFFFFFFFFFFFFFF AND PUSH20 0xFFFFFFFFFFFFFFFFFFFFFFFFFFFFFFFFFFFFFFFF AND PUSH32 0xEAF449319C042C9BA3474FA0C5329EB58CD1F23BE110CDBF9D697B8D303DAC15 PUSH1 0x40 MLOAD PUSH1 0x40 MLOAD DUP1 SWAP2 SUB SWAP1 LOG3 JUMPDEST POP POP POP JUMP JUMPDEST PUSH2 0xA2C PUSH2 0xAA8 JUMP JUMPDEST PUSH0 PUSH20 0xFFFFFFFFFFFFFFFFFFFFFFFFFFFFFFFFFFFFFFFF AND DUP2 PUSH20 0xFFFFFFFFFFFFFFFFFFFFFFFFFFFFFFFFFFFFFFFF AND SUB PUSH2 0xA9C JUMPI PUSH0 PUSH1 0x40 MLOAD PUSH32 0x1E4FBDF700000000000000000000000000000000000000000000000000000000 DUP2 MSTORE PUSH1 0x4 ADD PUSH2 0xA93 SWAP2 SWAP1 PUSH2 0xED0 JUMP JUMPDEST PUSH1 0x40 MLOAD DUP1 SWAP2 SUB SWAP1 REVERT JUMPDEST PUSH2 0xAA5 DUP2 PUSH2 0xB2F JUMP JUMPDEST POP JUMP JUMPDEST PUSH2 0xAB0 PUSH2 0xBF0 JUMP JUMPDEST PUSH20 0xFFFFFFFFFFFFFFFFFFFFFFFFFFFFFFFFFFFFFFFF AND PUSH2 0xACE PUSH2 0x5A5 JUMP JUMPDEST PUSH20 0xFFFFFFFFFFFFFFFFFFFFFFFFFFFFFFFFFFFFFFFF AND EQ PUSH2 0xB2D JUMPI PUSH2 0xAF1 PUSH2 0xBF0 JUMP JUMPDEST PUSH1 0x40 MLOAD PUSH32 0x118CDAA700000000000000000000000000000000000000000000000000000000 DUP2 MSTORE PUSH1 0x4 ADD PUSH2 0xB24 SWAP2 SWAP1 PUSH2 0xED0 JUMP JUMPDEST PUSH1 0x40 MLOAD DUP1 SWAP2 SUB SWAP1 REVERT JUMPDEST JUMP JUMPDEST PUSH0 DUP1 PUSH0 SWAP1 SLOAD SWAP1 PUSH2 0x100 EXP SWAP1 DIV PUSH20 0xFFFFFFFFFFFFFFFFFFFFFFFFFFFFFFFFFFFFFFFF AND SWAP1 POP DUP2 PUSH0 DUP1 PUSH2 0x100 EXP DUP2 SLOAD DUP2 PUSH20 0xFFFFFFFFFFFFFFFFFFFFFFFFFFFFFFFFFFFFFFFF MUL NOT AND SWAP1 DUP4 PUSH20 0xFFFFFFFFFFFFFFFFFFFFFFFFFFFFFFFFFFFFFFFF AND MUL OR SWAP1 SSTORE POP DUP2 PUSH20 0xFFFFFFFFFFFFFFFFFFFFFFFFFFFFFFFFFFFFFFFF AND DUP2 PUSH20 0xFFFFFFFFFFFFFFFFFFFFFFFFFFFFFFFFFFFFFFFF AND PUSH32 0x8BE0079C531659141344CD1FD0A4F28419497F9722A3DAAFE3B4186F6B6457E0 PUSH1 0x40 MLOAD PUSH1 0x40 MLOAD DUP1 SWAP2 SUB SWAP1 LOG3 POP POP JUMP JUMPDEST PUSH0 CALLER SWAP1 POP SWAP1 JUMP JUMPDEST PUSH0 DUP1 REVERT JUMPDEST PUSH0 DUP1 REVERT JUMPDEST PUSH0 PUSH20 0xFFFFFFFFFFFFFFFFFFFFFFFFFFFFFFFFFFFFFFFF DUP3 AND SWAP1 POP SWAP2 SWAP1 POP JUMP JUMPDEST PUSH0 PUSH2 0xC28 DUP3 PUSH2 0xBFF JUMP JUMPDEST SWAP1 POP SWAP2 SWAP1 POP JUMP JUMPDEST PUSH2 0xC38 DUP2 PUSH2 0xC1E JUMP JUMPDEST DUP2 EQ PUSH2 0xC42 JUMPI PUSH0 DUP1 REVERT JUMPDEST POP JUMP JUMPDEST PUSH0 DUP2 CALLDATALOAD SWAP1 POP PUSH2 0xC53 DUP2 PUSH2 0xC2F JUMP JUMPDEST SWAP3 SWAP2 POP POP JUMP JUMPDEST PUSH0 DUP2 SWAP1 POP SWAP2 SWAP1 POP JUMP JUMPDEST PUSH2 0xC6B DUP2 PUSH2 0xC59 JUMP JUMPDEST DUP2 EQ PUSH2 0xC75 JUMPI PUSH0 DUP1 REVERT JUMPDEST POP JUMP JUMPDEST PUSH0 DUP2 CALLDATALOAD SWAP1 POP PUSH2 0xC86 DUP2 PUSH2 0xC62 JUMP JUMPDEST SWAP3 SWAP2 POP POP JUMP JUMPDEST PUSH0 DUP1 REVERT JUMPDEST PUSH0 DUP1 REVERT JUMPDEST PUSH0 DUP1 REVERT JUMPDEST PUSH0 DUP1 DUP4 PUSH1 0x1F DUP5 ADD SLT PUSH2 0xCAD JUMPI PUSH2 0xCAC PUSH2 0xC8C JUMP JUMPDEST JUMPDEST DUP3 CALLDATALOAD SWAP1 POP PUSH8 0xFFFFFFFFFFFFFFFF DUP2 GT ISZERO PUSH2 0xCCA JUMPI PUSH2 0xCC9 PUSH2 0xC90 JUMP JUMPDEST JUMPDEST PUSH1 0x20 DUP4 ADD SWAP2 POP DUP4 PUSH1 0x1 DUP3 MUL DUP4 ADD GT ISZERO PUSH2 0xCE6 JUMPI PUSH2 0xCE5 PUSH2 0xC94 JUMP JUMPDEST JUMPDEST SWAP3 POP SWAP3 SWAP1 POP JUMP JUMPDEST PUSH0 DUP1 PUSH0 DUP1 PUSH0 PUSH1 0x80 DUP7 DUP9 SUB SLT ISZERO PUSH2 0xD06 JUMPI PUSH2 0xD05 PUSH2 0xBF7 JUMP JUMPDEST JUMPDEST PUSH0 PUSH2 0xD13 DUP9 DUP3 DUP10 ADD PUSH2 0xC45 JUMP JUMPDEST SWAP6 POP POP PUSH1 0x20 PUSH2 0xD24 DUP9 DUP3 DUP10 ADD PUSH2 0xC45 JUMP JUMPDEST SWAP5 POP POP PUSH1 0x40 PUSH2 0xD35 DUP9 DUP3 DUP10 ADD PUSH2 0xC78 JUMP JUMPDEST SWAP4 POP POP PUSH1 0x60 DUP7 ADD CALLDATALOAD PUSH8 0xFFFFFFFFFFFFFFFF DUP2 GT ISZERO PUSH2 0xD56 JUMPI PUSH2 0xD55 PUSH2 0xBFB JUMP JUMPDEST JUMPDEST PUSH2 0xD62 DUP9 DUP3 DUP10 ADD PUSH2 0xC98 JUMP JUMPDEST SWAP3 POP SWAP3 POP POP SWAP3 SWAP6 POP SWAP3 SWAP6 SWAP1 SWAP4 POP JUMP JUMPDEST PUSH0 PUSH32 0xFFFFFFFF00000000000000000000000000000000000000000000000000000000 DUP3 AND SWAP1 POP SWAP2 SWAP1 POP JUMP JUMPDEST PUSH2 0xDA5 DUP2 PUSH2 0xD71 JUMP JUMPDEST DUP3 MSTORE POP POP JUMP JUMPDEST PUSH0 PUSH1 0x20 DUP3 ADD SWAP1 POP PUSH2 0xDBE PUSH0 DUP4 ADD DUP5 PUSH2 0xD9C JUMP JUMPDEST SWAP3 SWAP2 POP POP JUMP JUMPDEST PUSH0 PUSH1 0x20 DUP3 DUP5 SUB SLT ISZERO PUSH2 0xDD9 JUMPI PUSH2 0xDD8 PUSH2 0xBF7 JUMP JUMPDEST JUMPDEST PUSH0 PUSH2 0xDE6 DUP5 DUP3 DUP6 ADD PUSH2 0xC78 JUMP JUMPDEST SWAP2 POP POP SWAP3 SWAP2 POP POP JUMP JUMPDEST PUSH0 DUP2 SWAP1 POP SWAP2 SWAP1 POP JUMP JUMPDEST PUSH0 PUSH2 0xE12 PUSH2 0xE0D PUSH2 0xE08 DUP5 PUSH2 0xBFF JUMP JUMPDEST PUSH2 0xDEF JUMP JUMPDEST PUSH2 0xBFF JUMP JUMPDEST SWAP1 POP SWAP2 SWAP1 POP JUMP JUMPDEST PUSH0 PUSH2 0xE23 DUP3 PUSH2 0xDF8 JUMP JUMPDEST SWAP1 POP SWAP2 SWAP1 POP JUMP JUMPDEST PUSH0 PUSH2 0xE34 DUP3 PUSH2 0xE19 JUMP JUMPDEST SWAP1 POP SWAP2 SWAP1 POP JUMP JUMPDEST PUSH2 0xE44 DUP2 PUSH2 0xE2A JUMP JUMPDEST DUP3 MSTORE POP POP JUMP JUMPDEST PUSH0 PUSH1 0x20 DUP3 ADD SWAP1 POP PUSH2 0xE5D PUSH0 DUP4 ADD DUP5 PUSH2 0xE3B JUMP JUMPDEST SWAP3 SWAP2 POP POP JUMP JUMPDEST PUSH2 0xE6C DUP2 PUSH2 0xC1E JUMP JUMPDEST DUP3 MSTORE POP POP JUMP JUMPDEST PUSH2 0xE7B DUP2 PUSH2 0xC59 JUMP JUMPDEST DUP3 MSTORE POP POP JUMP JUMPDEST PUSH0 DUP2 ISZERO ISZERO SWAP1 POP SWAP2 SWAP1 POP JUMP JUMPDEST PUSH2 0xE95 DUP2 PUSH2 0xE81 JUMP JUMPDEST DUP3 MSTORE POP POP JUMP JUMPDEST PUSH0 PUSH1 0x60 DUP3 ADD SWAP1 POP PUSH2 0xEAE PUSH0 DUP4 ADD DUP7 PUSH2 0xE63 JUMP JUMPDEST PUSH2 0xEBB PUSH1 0x20 DUP4 ADD DUP6 PUSH2 0xE72 JUMP JUMPDEST PUSH2 0xEC8 PUSH1 0x40 DUP4 ADD DUP5 PUSH2 0xE8C JUMP JUMPDEST SWAP5 SWAP4 POP POP POP POP JUMP JUMPDEST PUSH0 PUSH1 0x20 DUP3 ADD SWAP1 POP PUSH2 0xEE3 PUSH0 DUP4 ADD DUP5 PUSH2 0xE63 JUMP JUMPDEST SWAP3 SWAP2 POP POP JUMP JUMPDEST PUSH0 DUP1 PUSH1 0x40 DUP4 DUP6 SUB SLT ISZERO PUSH2 0xEFF JUMPI PUSH2 0xEFE PUSH2 0xBF7 JUMP JUMPDEST JUMPDEST PUSH0 PUSH2 0xF0C DUP6 DUP3 DUP7 ADD PUSH2 0xC78 JUMP JUMPDEST SWAP3 POP POP PUSH1 0x20 PUSH2 0xF1D DUP6 DUP3 DUP7 ADD PUSH2 0xC78 JUMP JUMPDEST SWAP2 POP POP SWAP3 POP SWAP3 SWAP1 POP JUMP JUMPDEST PUSH0 PUSH1 0x20 DUP3 DUP5 SUB SLT ISZERO PUSH2 0xF3C JUMPI PUSH2 0xF3B PUSH2 0xBF7 JUMP JUMPDEST JUMPDEST PUSH0 PUSH2 0xF49 DUP5 DUP3 DUP6 ADD PUSH2 0xC45 JUMP JUMPDEST SWAP2 POP POP SWAP3 SWAP2 POP POP JUMP JUMPDEST PUSH0 DUP3 DUP3 MSTORE PUSH1 0x20 DUP3 ADD SWAP1 POP SWAP3 SWAP2 POP POP JUMP JUMPDEST PUSH32 0x4F6E6C7920626F72726F7765722063616E2063616C6C00000000000000000000 PUSH0 DUP3 ADD MSTORE POP JUMP JUMPDEST PUSH0 PUSH2 0xF96 PUSH1 0x16 DUP4 PUSH2 0xF52 JUMP JUMPDEST SWAP2 POP PUSH2 0xFA1 DUP3 PUSH2 0xF62 JUMP JUMPDEST PUSH1 0x20 DUP3 ADD SWAP1 POP SWAP2 SWAP1 POP JUMP JUMPDEST PUSH0 PUSH1 0x20 DUP3 ADD SWAP1 POP DUP2 DUP2 SUB PUSH0 DUP4 ADD MSTORE PUSH2 0xFC3 DUP2 PUSH2 0xF8A JUMP JUMPDEST SWAP1 POP SWAP2 SWAP1 POP JUMP JUMPDEST PUSH0 PUSH1 0x60 DUP3 ADD SWAP1 POP PUSH2 0xFDD PUSH0 DUP4 ADD DUP7 PUSH2 0xE63 JUMP JUMPDEST PUSH2 0xFEA PUSH1 0x20 DUP4 ADD DUP6 PUSH2 0xE63 JUMP JUMPDEST PUSH2 0xFF7 PUSH1 0x40 DUP4 ADD DUP5 PUSH2 0xE72 JUMP JUMPDEST SWAP5 SWAP4 POP POP POP POP JUMP JUMPDEST PUSH32 0x4E487B7100000000000000000000000000000000000000000000000000000000 PUSH0 MSTORE PUSH1 0x11 PUSH1 0x4 MSTORE PUSH1 0x24 PUSH0 REVERT JUMPDEST PUSH0 PUSH2 0x1036 DUP3 PUSH2 0xC59 JUMP JUMPDEST SWAP2 POP PUSH2 0x1041 DUP4 PUSH2 0xC59 JUMP JUMPDEST SWAP3 POP DUP3 DUP3 MUL PUSH2 0x104F DUP2 PUSH2 0xC59 JUMP JUMPDEST SWAP2 POP DUP3 DUP3 DIV DUP5 EQ DUP4 ISZERO OR PUSH2 0x1066 JUMPI PUSH2 0x1065 PUSH2 0xFFF JUMP JUMPDEST JUMPDEST POP SWAP3 SWAP2 POP POP JUMP JUMPDEST PUSH32 0x4E487B7100000000000000000000000000000000000000000000000000000000 PUSH0 MSTORE PUSH1 0x12 PUSH1 0x4 MSTORE PUSH1 0x24 PUSH0 REVERT JUMPDEST PUSH0 PUSH2 0x10A4 DUP3 PUSH2 0xC59 JUMP JUMPDEST SWAP2 POP PUSH2 0x10AF DUP4 PUSH2 0xC59 JUMP JUMPDEST SWAP3 POP DUP3 PUSH2 0x10BF JUMPI PUSH2 0x10BE PUSH2 0x106D JUMP JUMPDEST JUMPDEST DUP3 DUP3 DIV SWAP1 POP SWAP3 SWAP2 POP POP JUMP JUMPDEST PUSH0 PUSH1 0x20 DUP3 ADD SWAP1 POP PUSH2 0x10DD PUSH0 DUP4 ADD DUP5 PUSH2 0xE8C JUMP JUMPDEST SWAP3 SWAP2 POP POP JUMP JUMPDEST PUSH0 PUSH1 0x20 DUP3 ADD SWAP1 POP PUSH2 0x10F6 PUSH0 DUP4 ADD DUP5 PUSH2 0xE72 JUMP JUMPDEST SWAP3 SWAP2 POP POP JUMP INVALID LOG2 PUSH5 0x6970667358 0x22 SLT KECCAK256 SLT 0xCC 0xBE 0xBB LT GAS PUSH4 0x4663EF11 STOP 0xEF 0xAF 0x4D SLT 0xBB 0xAC 0x4F SLT SWAP9 SMOD SWAP4 PUSH17 0x4269EDBA82E96A1364736F6C634300081A STOP CALLER "
				},
				"gasEstimates": {
					"creation": {
						"codeDepositCost": "880400",
						"executionCost": "infinite",
						"totalCost": "infinite"
					},
					"external": {
						"approveLoan(uint256)": "infinite",
						"getLoanDetails(uint256)": "infinite",
						"onERC721Received(address,address,uint256,bytes)": "infinite",
						"owner()": "2537",
						"renounceOwnership()": "infinite",
						"repay(uint256)": "infinite",
						"requestLoan(uint256,uint256)": "infinite",
						"tokenContract()": "infinite",
						"transferOwnership(address)": "infinite"
					}
				},
				"methodIdentifiers": {
					"approveLoan(uint256)": "aadc1ac1",
					"getLoanDetails(uint256)": "66877b8d",
					"onERC721Received(address,address,uint256,bytes)": "150b7a02",
					"owner()": "8da5cb5b",
					"renounceOwnership()": "715018a6",
					"repay(uint256)": "371fd8e6",
					"requestLoan(uint256,uint256)": "aa452fa6",
					"tokenContract()": "55a373d6",
					"transferOwnership(address)": "f2fde38b"
				}
			},
			"storageLayout": {
				"storage": [
					{
						"astId": 8,
						"contract": "RwatLending.sol:RwatLending",
						"label": "_owner",
						"offset": 0,
						"slot": "0",
						"type": "t_address"
					},
					{
						"astId": 345,
						"contract": "RwatLending.sol:RwatLending",
						"label": "activeLoans",
						"offset": 0,
						"slot": "1",
						"type": "t_mapping(t_uint256,t_struct(LoanDetails)340_storage)"
					}
				],
				"types": {
					"t_address": {
						"encoding": "inplace",
						"label": "address",
						"numberOfBytes": "20"
					},
					"t_bool": {
						"encoding": "inplace",
						"label": "bool",
						"numberOfBytes": "1"
					},
					"t_mapping(t_uint256,t_struct(LoanDetails)340_storage)": {
						"encoding": "mapping",
						"key": "t_uint256",
						"label": "mapping(uint256 => struct RwatLending.LoanDetails)",
						"numberOfBytes": "32",
						"value": "t_struct(LoanDetails)340_storage"
					},
					"t_struct(LoanDetails)340_storage": {
						"encoding": "inplace",
						"label": "struct RwatLending.LoanDetails",
						"members": [
							{
								"astId": 335,
								"contract": "RwatLending.sol:RwatLending",
								"label": "borrower",
								"offset": 0,
								"slot": "0",
								"type": "t_address"
							},
							{
								"astId": 337,
								"contract": "RwatLending.sol:RwatLending",
								"label": "amountLoaned",
								"offset": 0,
								"slot": "1",
								"type": "t_uint256"
							},
							{
								"astId": 339,
								"contract": "RwatLending.sol:RwatLending",
								"label": "isApproved",
								"offset": 0,
								"slot": "2",
								"type": "t_bool"
							}
						],
						"numberOfBytes": "96"
					},
					"t_uint256": {
						"encoding": "inplace",
						"label": "uint256",
						"numberOfBytes": "32"
					}
				}
			},
			"userdoc": {
				"kind": "user",
				"methods": {},
				"version": 1
			}
		}
	}
}