{
	"RequestRWATdata.sol": {
		"RequestRWATdata": {
			"abi": [
				{
					"inputs": [],
					"stateMutability": "nonpayable",
					"type": "constructor"
				},
				{
					"inputs": [],
					"name": "EmptySource",
					"type": "error"
				},
				{
					"inputs": [],
					"name": "NoInlineSecrets",
					"type": "error"
				},
				{
					"inputs": [],
					"name": "OnlyRouterCanFulfill",
					"type": "error"
				},
				{
					"inputs": [
						{
							"internalType": "bytes32",
							"name": "requestId",
							"type": "bytes32"
						}
					],
					"name": "UnexpectedRequestID",
					"type": "error"
				},
				{
					"anonymous": false,
					"inputs": [
						{
							"indexed": true,
							"internalType": "address",
							"name": "from",
							"type": "address"
						},
						{
							"indexed": true,
							"internalType": "address",
							"name": "to",
							"type": "address"
						}
					],
					"name": "OwnershipTransferRequested",
					"type": "event"
				},
				{
					"anonymous": false,
					"inputs": [
						{
							"indexed": true,
							"internalType": "address",
							"name": "from",
							"type": "address"
						},
						{
							"indexed": true,
							"internalType": "address",
							"name": "to",
							"type": "address"
						}
					],
					"name": "OwnershipTransferred",
					"type": "event"
				},
				{
					"anonymous": false,
					"inputs": [
						{
							"indexed": true,
							"internalType": "bytes32",
							"name": "id",
							"type": "bytes32"
						}
					],
					"name": "RequestFulfilled",
					"type": "event"
				},
				{
					"anonymous": false,
					"inputs": [
						{
							"indexed": true,
							"internalType": "bytes32",
							"name": "id",
							"type": "bytes32"
						}
					],
					"name": "RequestSent",
					"type": "event"
				},
				{
					"anonymous": false,
					"inputs": [
						{
							"indexed": true,
							"internalType": "bytes32",
							"name": "requestId",
							"type": "bytes32"
						},
						{
							"indexed": false,
							"internalType": "string",
							"name": "location",
							"type": "string"
						},
						{
							"indexed": false,
							"internalType": "uint256",
							"name": "areaSquareFeet",
							"type": "uint256"
						},
						{
							"indexed": false,
							"internalType": "uint256",
							"name": "price",
							"type": "uint256"
						},
						{
							"indexed": false,
							"internalType": "uint256",
							"name": "taxAssessedValue",
							"type": "uint256"
						},
						{
							"indexed": false,
							"internalType": "bytes",
							"name": "response",
							"type": "bytes"
						},
						{
							"indexed": false,
							"internalType": "bytes",
							"name": "err",
							"type": "bytes"
						}
					],
					"name": "Response",
					"type": "event"
				},
				{
					"inputs": [],
					"name": "acceptOwnership",
					"outputs": [],
					"stateMutability": "nonpayable",
					"type": "function"
				},
				{
					"inputs": [
						{
							"internalType": "bytes32",
							"name": "requestId",
							"type": "bytes32"
						},
						{
							"internalType": "bytes",
							"name": "response",
							"type": "bytes"
						},
						{
							"internalType": "bytes",
							"name": "err",
							"type": "bytes"
						}
					],
					"name": "handleOracleFulfillment",
					"outputs": [],
					"stateMutability": "nonpayable",
					"type": "function"
				},
				{
					"inputs": [],
					"name": "location",
					"outputs": [
						{
							"internalType": "string",
							"name": "",
							"type": "string"
						}
					],
					"stateMutability": "view",
					"type": "function"
				},
				{
					"inputs": [],
					"name": "lotSize",
					"outputs": [
						{
							"internalType": "uint256",
							"name": "",
							"type": "uint256"
						}
					],
					"stateMutability": "view",
					"type": "function"
				},
				{
					"inputs": [],
					"name": "owner",
					"outputs": [
						{
							"internalType": "address",
							"name": "",
							"type": "address"
						}
					],
					"stateMutability": "view",
					"type": "function"
				},
				{
					"inputs": [],
					"name": "s_lastError",
					"outputs": [
						{
							"internalType": "bytes",
							"name": "",
							"type": "bytes"
						}
					],
					"stateMutability": "view",
					"type": "function"
				},
				{
					"inputs": [],
					"name": "s_lastRequestId",
					"outputs": [
						{
							"internalType": "bytes32",
							"name": "",
							"type": "bytes32"
						}
					],
					"stateMutability": "view",
					"type": "function"
				},
				{
					"inputs": [],
					"name": "s_lastResponse",
					"outputs": [
						{
							"internalType": "bytes",
							"name": "",
							"type": "bytes"
						}
					],
					"stateMutability": "view",
					"type": "function"
				},
				{
					"inputs": [
						{
							"internalType": "uint64",
							"name": "subscriptionId",
							"type": "uint64"
						}
					],
					"name": "sendRequest",
					"outputs": [
						{
							"internalType": "bytes32",
							"name": "requestId",
							"type": "bytes32"
						}
					],
					"stateMutability": "nonpayable",
					"type": "function"
				},
				{
					"inputs": [],
					"name": "taxAssessedValue",
					"outputs": [
						{
							"internalType": "uint256",
							"name": "",
							"type": "uint256"
						}
					],
					"stateMutability": "view",
					"type": "function"
				},
				{
					"inputs": [],
					"name": "totalPrice",
					"outputs": [
						{
							"internalType": "uint256",
							"name": "",
							"type": "uint256"
						}
					],
					"stateMutability": "view",
					"type": "function"
				},
				{
					"inputs": [
						{
							"internalType": "address",
							"name": "to",
							"type": "address"
						}
					],
					"name": "transferOwnership",
					"outputs": [],
					"stateMutability": "nonpayable",
					"type": "function"
				}
			],
			"devdoc": {
				"kind": "dev",
				"methods": {
					"handleOracleFulfillment(bytes32,bytes,bytes)": {
						"details": "Either response or error parameter will be set, but never both.",
						"params": {
							"err": "Aggregated error either from the request's source code or from the execution pipeline.",
							"requestId": "The requestId returned by FunctionsClient.sendRequest().",
							"response": "Aggregated response from the request's source code."
						}
					}
				},
				"version": 1
			},
			"evm": {
				"assembly": "    /* \"RequestRWATdata.sol\":382:3579  contract RequestRWATdata is FunctionsClient, ConfirmedOwner {... */\n  mstore(0x40, 0xa0)\n    /* \"RequestRWATdata.sol\":1123:1165  0xb83E47C2bC239B3bf370bc41e1459A34b41238D0 */\n  0xb83e47c2bc239b3bf370bc41e1459a34b41238d0\n    /* \"RequestRWATdata.sol\":1106:1165  address router = 0xb83E47C2bC239B3bf370bc41e1459A34b41238D0 */\n  0x05\n  exp(0x0100, 0x00)\n  dup2\n  sload\n  dup2\n  0xffffffffffffffffffffffffffffffffffffffff\n  mul\n  not\n  and\n  swap1\n  dup4\n  0xffffffffffffffffffffffffffffffffffffffff\n  and\n  mul\n  or\n  swap1\n  sstore\n  pop\n    /* \"RequestRWATdata.sol\":1202:1940  string source = ... */\n  mload(0x40)\n  dup1\n  0x0280\n  add\n  0x40\n  mstore\n  dup1\n  0x024e\n  dup2\n  mstore\n  0x20\n  add\n  data_190f122a6e3777eb27f3d1883f2184082ab4b178c095b775d1a629d5c103b302\n  0x024e\n  swap2\n  codecopy\n  0x06\n  swap1\n  dup2\n  tag_1\n  swap2\n  swap1\n  tag_2\n  jump\t// in\ntag_1:\n  pop\n    /* \"RequestRWATdata.sol\":1965:1971  300000 */\n  0x0493e0\n    /* \"RequestRWATdata.sol\":1947:1971  uint32 gasLimit = 300000 */\n  0x07\n  exp(0x0100, 0x00)\n  dup2\n  sload\n  dup2\n  0xffffffff\n  mul\n  not\n  and\n  swap1\n  dup4\n  0xffffffff\n  and\n  mul\n  or\n  swap1\n  sstore\n  pop\n    /* \"RequestRWATdata.sol\":2159:2225  0x66756e2d657468657265756d2d7365706f6c69612d3100000000000000000000 */\n  0x66756e2d657468657265756d2d7365706f6c69612d3100000000000000000000\n    /* \"RequestRWATdata.sol\":2135:2225  bytes32 donID =... */\n  0x00\n  shl\n  0x08\n  sstore\n    /* \"RequestRWATdata.sol\":2540:2607  constructor() FunctionsClient(router) ConfirmedOwner(msg.sender) {} */\n  callvalue\n  dup1\n  iszero\n  tag_3\n  jumpi\n  0x00\n  dup1\n  revert\ntag_3:\n  pop\n    /* \"RequestRWATdata.sol\":2593:2603  msg.sender */\n  caller\n    /* \"@chainlink/contracts@1.1.1/src/v0.8/shared/access/ConfirmedOwner.sol\":355:363  newOwner */\n  dup1\n    /* \"@chainlink/contracts@1.1.1/src/v0.8/shared/access/ConfirmedOwner.sol\":373:374  0 */\n  0x00\n    /* \"RequestRWATdata.sol\":2570:2576  router */\n  0x05\n  0x00\n  swap1\n  sload\n  swap1\n  0x0100\n  exp\n  swap1\n  div\n  0xffffffffffffffffffffffffffffffffffffffff\n  and\n    /* \"@chainlink/contracts@1.1.1/src/v0.8/functions/v1_0_0/FunctionsClient.sol\":764:770  router */\n  dup1\n    /* \"@chainlink/contracts@1.1.1/src/v0.8/functions/v1_0_0/FunctionsClient.sol\":736:771  i_router = IFunctionsRouter(router) */\n  0xffffffffffffffffffffffffffffffffffffffff\n  and\n  0x80\n  dup2\n  0xffffffffffffffffffffffffffffffffffffffff\n  and\n  dup2\n  mstore\n  pop\n  pop\n    /* \"@chainlink/contracts@1.1.1/src/v0.8/functions/v1_0_0/FunctionsClient.sol\":702:776  constructor(address router) {... */\n  pop\n    /* \"@chainlink/contracts@1.1.1/src/v0.8/shared/access/ConfirmedOwnerWithProposal.sol\":618:619  0 */\n  0x00\n    /* \"@chainlink/contracts@1.1.1/src/v0.8/shared/access/ConfirmedOwnerWithProposal.sol\":598:620  newOwner != address(0) */\n  0xffffffffffffffffffffffffffffffffffffffff\n  and\n    /* \"@chainlink/contracts@1.1.1/src/v0.8/shared/access/ConfirmedOwnerWithProposal.sol\":598:606  newOwner */\n  dup3\n    /* \"@chainlink/contracts@1.1.1/src/v0.8/shared/access/ConfirmedOwnerWithProposal.sol\":598:620  newOwner != address(0) */\n  0xffffffffffffffffffffffffffffffffffffffff\n  and\n  sub\n    /* \"@chainlink/contracts@1.1.1/src/v0.8/shared/access/ConfirmedOwnerWithProposal.sol\":590:649  require(newOwner != address(0), \"Cannot set owner to zero\") */\n  tag_10\n  jumpi\n  mload(0x40)\n  0x08c379a000000000000000000000000000000000000000000000000000000000\n  dup2\n  mstore\n  0x04\n  add\n  tag_11\n  swap1\n  tag_12\n  jump\t// in\ntag_11:\n  mload(0x40)\n  dup1\n  swap2\n  sub\n  swap1\n  revert\ntag_10:\n    /* \"@chainlink/contracts@1.1.1/src/v0.8/shared/access/ConfirmedOwnerWithProposal.sol\":666:674  newOwner */\n  dup2\n    /* \"@chainlink/contracts@1.1.1/src/v0.8/shared/access/ConfirmedOwnerWithProposal.sol\":656:663  s_owner */\n  0x00\n  dup1\n    /* \"@chainlink/contracts@1.1.1/src/v0.8/shared/access/ConfirmedOwnerWithProposal.sol\":656:674  s_owner = newOwner */\n  0x0100\n  exp\n  dup2\n  sload\n  dup2\n  0xffffffffffffffffffffffffffffffffffffffff\n  mul\n  not\n  and\n  swap1\n  dup4\n  0xffffffffffffffffffffffffffffffffffffffff\n  and\n  mul\n  or\n  swap1\n  sstore\n  pop\n    /* \"@chainlink/contracts@1.1.1/src/v0.8/shared/access/ConfirmedOwnerWithProposal.sol\":708:709  0 */\n  0x00\n    /* \"@chainlink/contracts@1.1.1/src/v0.8/shared/access/ConfirmedOwnerWithProposal.sol\":684:710  pendingOwner != address(0) */\n  0xffffffffffffffffffffffffffffffffffffffff\n  and\n    /* \"@chainlink/contracts@1.1.1/src/v0.8/shared/access/ConfirmedOwnerWithProposal.sol\":684:696  pendingOwner */\n  dup2\n    /* \"@chainlink/contracts@1.1.1/src/v0.8/shared/access/ConfirmedOwnerWithProposal.sol\":684:710  pendingOwner != address(0) */\n  0xffffffffffffffffffffffffffffffffffffffff\n  and\n  eq\n    /* \"@chainlink/contracts@1.1.1/src/v0.8/shared/access/ConfirmedOwnerWithProposal.sol\":680:759  if (pendingOwner != address(0)) {... */\n  tag_13\n  jumpi\n    /* \"@chainlink/contracts@1.1.1/src/v0.8/shared/access/ConfirmedOwnerWithProposal.sol\":720:752  _transferOwnership(pendingOwner) */\n  tag_14\n    /* \"@chainlink/contracts@1.1.1/src/v0.8/shared/access/ConfirmedOwnerWithProposal.sol\":739:751  pendingOwner */\n  dup2\n    /* \"@chainlink/contracts@1.1.1/src/v0.8/shared/access/ConfirmedOwnerWithProposal.sol\":720:738  _transferOwnership */\n  shl(0x20, tag_15)\n    /* \"@chainlink/contracts@1.1.1/src/v0.8/shared/access/ConfirmedOwnerWithProposal.sol\":720:752  _transferOwnership(pendingOwner) */\n  0x20\n  shr\n  jump\t// in\ntag_14:\n    /* \"@chainlink/contracts@1.1.1/src/v0.8/shared/access/ConfirmedOwnerWithProposal.sol\":680:759  if (pendingOwner != address(0)) {... */\ntag_13:\n    /* \"@chainlink/contracts@1.1.1/src/v0.8/shared/access/ConfirmedOwnerWithProposal.sol\":481:763  constructor(address newOwner, address pendingOwner) {... */\n  pop\n  pop\n    /* \"@chainlink/contracts@1.1.1/src/v0.8/shared/access/ConfirmedOwner.sol\":298:379  constructor(address newOwner) ConfirmedOwnerWithProposal(newOwner, address(0)) {} */\n  pop\n    /* \"RequestRWATdata.sol\":382:3579  contract RequestRWATdata is FunctionsClient, ConfirmedOwner {... */\n  jump(tag_18)\n    /* \"@chainlink/contracts@1.1.1/src/v0.8/shared/access/ConfirmedOwnerWithProposal.sol\":1536:1775  function _transferOwnership(address to) private {... */\ntag_15:\n    /* \"@chainlink/contracts@1.1.1/src/v0.8/shared/access/ConfirmedOwnerWithProposal.sol\":1655:1665  msg.sender */\n  caller\n    /* \"@chainlink/contracts@1.1.1/src/v0.8/shared/access/ConfirmedOwnerWithProposal.sol\":1649:1665  to != msg.sender */\n  0xffffffffffffffffffffffffffffffffffffffff\n  and\n    /* \"@chainlink/contracts@1.1.1/src/v0.8/shared/access/ConfirmedOwnerWithProposal.sol\":1649:1651  to */\n  dup2\n    /* \"@chainlink/contracts@1.1.1/src/v0.8/shared/access/ConfirmedOwnerWithProposal.sol\":1649:1665  to != msg.sender */\n  0xffffffffffffffffffffffffffffffffffffffff\n  and\n  sub\n    /* \"@chainlink/contracts@1.1.1/src/v0.8/shared/access/ConfirmedOwnerWithProposal.sol\":1641:1693  require(to != msg.sender, \"Cannot transfer to self\") */\n  tag_20\n  jumpi\n  mload(0x40)\n  0x08c379a000000000000000000000000000000000000000000000000000000000\n  dup2\n  mstore\n  0x04\n  add\n  tag_21\n  swap1\n  tag_22\n  jump\t// in\ntag_21:\n  mload(0x40)\n  dup1\n  swap2\n  sub\n  swap1\n  revert\ntag_20:\n    /* \"@chainlink/contracts@1.1.1/src/v0.8/shared/access/ConfirmedOwnerWithProposal.sol\":1717:1719  to */\n  dup1\n    /* \"@chainlink/contracts@1.1.1/src/v0.8/shared/access/ConfirmedOwnerWithProposal.sol\":1700:1714  s_pendingOwner */\n  0x01\n  0x00\n    /* \"@chainlink/contracts@1.1.1/src/v0.8/shared/access/ConfirmedOwnerWithProposal.sol\":1700:1719  s_pendingOwner = to */\n  0x0100\n  exp\n  dup2\n  sload\n  dup2\n  0xffffffffffffffffffffffffffffffffffffffff\n  mul\n  not\n  and\n  swap1\n  dup4\n  0xffffffffffffffffffffffffffffffffffffffff\n  and\n  mul\n  or\n  swap1\n  sstore\n  pop\n    /* \"@chainlink/contracts@1.1.1/src/v0.8/shared/access/ConfirmedOwnerWithProposal.sol\":1767:1769  to */\n  dup1\n    /* \"@chainlink/contracts@1.1.1/src/v0.8/shared/access/ConfirmedOwnerWithProposal.sol\":1731:1770  OwnershipTransferRequested(s_owner, to) */\n  0xffffffffffffffffffffffffffffffffffffffff\n  and\n    /* \"@chainlink/contracts@1.1.1/src/v0.8/shared/access/ConfirmedOwnerWithProposal.sol\":1758:1765  s_owner */\n  0x00\n  dup1\n  sload\n  swap1\n  0x0100\n  exp\n  swap1\n  div\n  0xffffffffffffffffffffffffffffffffffffffff\n  and\n    /* \"@chainlink/contracts@1.1.1/src/v0.8/shared/access/ConfirmedOwnerWithProposal.sol\":1731:1770  OwnershipTransferRequested(s_owner, to) */\n  0xffffffffffffffffffffffffffffffffffffffff\n  and\n  0xed8889f560326eb138920d842192f0eb3dd22b4f139c87a2c57538e05bae1278\n  mload(0x40)\n  mload(0x40)\n  dup1\n  swap2\n  sub\n  swap1\n  log3\n    /* \"@chainlink/contracts@1.1.1/src/v0.8/shared/access/ConfirmedOwnerWithProposal.sol\":1536:1775  function _transferOwnership(address to) private {... */\n  pop\n  jump\t// out\n    /* \"#utility.yul\":7:106   */\ntag_23:\n    /* \"#utility.yul\":59:65   */\n  0x00\n    /* \"#utility.yul\":93:98   */\n  dup2\n    /* \"#utility.yul\":87:99   */\n  mload\n    /* \"#utility.yul\":77:99   */\n  swap1\n  pop\n    /* \"#utility.yul\":7:106   */\n  swap2\n  swap1\n  pop\n  jump\t// out\n    /* \"#utility.yul\":112:292   */\ntag_24:\n    /* \"#utility.yul\":160:237   */\n  0x4e487b7100000000000000000000000000000000000000000000000000000000\n    /* \"#utility.yul\":157:158   */\n  0x00\n    /* \"#utility.yul\":150:238   */\n  mstore\n    /* \"#utility.yul\":257:261   */\n  0x41\n    /* \"#utility.yul\":254:255   */\n  0x04\n    /* \"#utility.yul\":247:262   */\n  mstore\n    /* \"#utility.yul\":281:285   */\n  0x24\n    /* \"#utility.yul\":278:279   */\n  0x00\n    /* \"#utility.yul\":271:286   */\n  revert\n    /* \"#utility.yul\":298:478   */\ntag_25:\n    /* \"#utility.yul\":346:423   */\n  0x4e487b7100000000000000000000000000000000000000000000000000000000\n    /* \"#utility.yul\":343:344   */\n  0x00\n    /* \"#utility.yul\":336:424   */\n  mstore\n    /* \"#utility.yul\":443:447   */\n  0x22\n    /* \"#utility.yul\":440:441   */\n  0x04\n    /* \"#utility.yul\":433:448   */\n  mstore\n    /* \"#utility.yul\":467:471   */\n  0x24\n    /* \"#utility.yul\":464:465   */\n  0x00\n    /* \"#utility.yul\":457:472   */\n  revert\n    /* \"#utility.yul\":484:804   */\ntag_26:\n    /* \"#utility.yul\":528:534   */\n  0x00\n    /* \"#utility.yul\":565:566   */\n  0x02\n    /* \"#utility.yul\":559:563   */\n  dup3\n    /* \"#utility.yul\":555:567   */\n  div\n    /* \"#utility.yul\":545:567   */\n  swap1\n  pop\n    /* \"#utility.yul\":612:613   */\n  0x01\n    /* \"#utility.yul\":606:610   */\n  dup3\n    /* \"#utility.yul\":602:614   */\n  and\n    /* \"#utility.yul\":633:651   */\n  dup1\n    /* \"#utility.yul\":623:704   */\n  tag_53\n  jumpi\n    /* \"#utility.yul\":689:693   */\n  0x7f\n    /* \"#utility.yul\":681:687   */\n  dup3\n    /* \"#utility.yul\":677:694   */\n  and\n    /* \"#utility.yul\":667:694   */\n  swap2\n  pop\n    /* \"#utility.yul\":623:704   */\ntag_53:\n    /* \"#utility.yul\":751:753   */\n  0x20\n    /* \"#utility.yul\":743:749   */\n  dup3\n    /* \"#utility.yul\":740:754   */\n  lt\n    /* \"#utility.yul\":720:738   */\n  dup2\n    /* \"#utility.yul\":717:755   */\n  sub\n    /* \"#utility.yul\":714:798   */\n  tag_54\n  jumpi\n    /* \"#utility.yul\":770:788   */\n  tag_55\n  tag_25\n  jump\t// in\ntag_55:\n    /* \"#utility.yul\":714:798   */\ntag_54:\n    /* \"#utility.yul\":535:804   */\n  pop\n    /* \"#utility.yul\":484:804   */\n  swap2\n  swap1\n  pop\n  jump\t// out\n    /* \"#utility.yul\":810:951   */\ntag_27:\n    /* \"#utility.yul\":859:863   */\n  0x00\n    /* \"#utility.yul\":882:885   */\n  dup2\n    /* \"#utility.yul\":874:885   */\n  swap1\n  pop\n    /* \"#utility.yul\":905:908   */\n  dup2\n    /* \"#utility.yul\":902:903   */\n  0x00\n    /* \"#utility.yul\":895:909   */\n  mstore\n    /* \"#utility.yul\":939:943   */\n  0x20\n    /* \"#utility.yul\":936:937   */\n  0x00\n    /* \"#utility.yul\":926:944   */\n  keccak256\n    /* \"#utility.yul\":918:944   */\n  swap1\n  pop\n    /* \"#utility.yul\":810:951   */\n  swap2\n  swap1\n  pop\n  jump\t// out\n    /* \"#utility.yul\":957:1050   */\ntag_28:\n    /* \"#utility.yul\":994:1000   */\n  0x00\n    /* \"#utility.yul\":1041:1043   */\n  0x20\n    /* \"#utility.yul\":1036:1038   */\n  0x1f\n    /* \"#utility.yul\":1029:1034   */\n  dup4\n    /* \"#utility.yul\":1025:1039   */\n  add\n    /* \"#utility.yul\":1021:1044   */\n  div\n    /* \"#utility.yul\":1011:1044   */\n  swap1\n  pop\n    /* \"#utility.yul\":957:1050   */\n  swap2\n  swap1\n  pop\n  jump\t// out\n    /* \"#utility.yul\":1056:1163   */\ntag_29:\n    /* \"#utility.yul\":1100:1108   */\n  0x00\n    /* \"#utility.yul\":1150:1155   */\n  dup3\n    /* \"#utility.yul\":1144:1148   */\n  dup3\n    /* \"#utility.yul\":1140:1156   */\n  shl\n    /* \"#utility.yul\":1119:1156   */\n  swap1\n  pop\n    /* \"#utility.yul\":1056:1163   */\n  swap3\n  swap2\n  pop\n  pop\n  jump\t// out\n    /* \"#utility.yul\":1169:1562   */\ntag_30:\n    /* \"#utility.yul\":1238:1244   */\n  0x00\n    /* \"#utility.yul\":1288:1289   */\n  0x08\n    /* \"#utility.yul\":1276:1286   */\n  dup4\n    /* \"#utility.yul\":1272:1290   */\n  mul\n    /* \"#utility.yul\":1311:1408   */\n  tag_60\n    /* \"#utility.yul\":1341:1407   */\n  0xffffffffffffffffffffffffffffffffffffffffffffffffffffffffffffffff\n    /* \"#utility.yul\":1330:1339   */\n  dup3\n    /* \"#utility.yul\":1311:1408   */\n  tag_29\n  jump\t// in\ntag_60:\n    /* \"#utility.yul\":1429:1468   */\n  tag_61\n    /* \"#utility.yul\":1459:1467   */\n  dup7\n    /* \"#utility.yul\":1448:1457   */\n  dup4\n    /* \"#utility.yul\":1429:1468   */\n  tag_29\n  jump\t// in\ntag_61:\n    /* \"#utility.yul\":1417:1468   */\n  swap6\n  pop\n    /* \"#utility.yul\":1501:1505   */\n  dup1\n    /* \"#utility.yul\":1497:1506   */\n  not\n    /* \"#utility.yul\":1490:1495   */\n  dup5\n    /* \"#utility.yul\":1486:1507   */\n  and\n    /* \"#utility.yul\":1477:1507   */\n  swap4\n  pop\n    /* \"#utility.yul\":1550:1554   */\n  dup1\n    /* \"#utility.yul\":1540:1548   */\n  dup7\n    /* \"#utility.yul\":1536:1555   */\n  and\n    /* \"#utility.yul\":1529:1534   */\n  dup5\n    /* \"#utility.yul\":1526:1556   */\n  or\n    /* \"#utility.yul\":1516:1556   */\n  swap3\n  pop\n    /* \"#utility.yul\":1245:1562   */\n  pop\n  pop\n    /* \"#utility.yul\":1169:1562   */\n  swap4\n  swap3\n  pop\n  pop\n  pop\n  jump\t// out\n    /* \"#utility.yul\":1568:1645   */\ntag_31:\n    /* \"#utility.yul\":1605:1612   */\n  0x00\n    /* \"#utility.yul\":1634:1639   */\n  dup2\n    /* \"#utility.yul\":1623:1639   */\n  swap1\n  pop\n    /* \"#utility.yul\":1568:1645   */\n  swap2\n  swap1\n  pop\n  jump\t// out\n    /* \"#utility.yul\":1651:1711   */\ntag_32:\n    /* \"#utility.yul\":1679:1682   */\n  0x00\n    /* \"#utility.yul\":1700:1705   */\n  dup2\n    /* \"#utility.yul\":1693:1705   */\n  swap1\n  pop\n    /* \"#utility.yul\":1651:1711   */\n  swap2\n  swap1\n  pop\n  jump\t// out\n    /* \"#utility.yul\":1717:1859   */\ntag_33:\n    /* \"#utility.yul\":1767:1776   */\n  0x00\n    /* \"#utility.yul\":1800:1853   */\n  tag_65\n    /* \"#utility.yul\":1818:1852   */\n  tag_66\n    /* \"#utility.yul\":1827:1851   */\n  tag_67\n    /* \"#utility.yul\":1845:1850   */\n  dup5\n    /* \"#utility.yul\":1827:1851   */\n  tag_31\n  jump\t// in\ntag_67:\n    /* \"#utility.yul\":1818:1852   */\n  tag_32\n  jump\t// in\ntag_66:\n    /* \"#utility.yul\":1800:1853   */\n  tag_31\n  jump\t// in\ntag_65:\n    /* \"#utility.yul\":1787:1853   */\n  swap1\n  pop\n    /* \"#utility.yul\":1717:1859   */\n  swap2\n  swap1\n  pop\n  jump\t// out\n    /* \"#utility.yul\":1865:1940   */\ntag_34:\n    /* \"#utility.yul\":1908:1911   */\n  0x00\n    /* \"#utility.yul\":1929:1934   */\n  dup2\n    /* \"#utility.yul\":1922:1934   */\n  swap1\n  pop\n    /* \"#utility.yul\":1865:1940   */\n  swap2\n  swap1\n  pop\n  jump\t// out\n    /* \"#utility.yul\":1946:2215   */\ntag_35:\n    /* \"#utility.yul\":2056:2095   */\n  tag_70\n    /* \"#utility.yul\":2087:2094   */\n  dup4\n    /* \"#utility.yul\":2056:2095   */\n  tag_33\n  jump\t// in\ntag_70:\n    /* \"#utility.yul\":2117:2208   */\n  tag_71\n    /* \"#utility.yul\":2166:2207   */\n  tag_72\n    /* \"#utility.yul\":2190:2206   */\n  dup3\n    /* \"#utility.yul\":2166:2207   */\n  tag_34\n  jump\t// in\ntag_72:\n    /* \"#utility.yul\":2158:2164   */\n  dup5\n    /* \"#utility.yul\":2151:2155   */\n  dup5\n    /* \"#utility.yul\":2145:2156   */\n  sload\n    /* \"#utility.yul\":2117:2208   */\n  tag_30\n  jump\t// in\ntag_71:\n    /* \"#utility.yul\":2111:2115   */\n  dup3\n    /* \"#utility.yul\":2104:2209   */\n  sstore\n    /* \"#utility.yul\":2022:2215   */\n  pop\n    /* \"#utility.yul\":1946:2215   */\n  pop\n  pop\n  pop\n  jump\t// out\n    /* \"#utility.yul\":2221:2294   */\ntag_36:\n    /* \"#utility.yul\":2266:2269   */\n  0x00\n    /* \"#utility.yul\":2221:2294   */\n  swap1\n  jump\t// out\n    /* \"#utility.yul\":2300:2489   */\ntag_37:\n    /* \"#utility.yul\":2377:2409   */\n  tag_75\n  tag_36\n  jump\t// in\ntag_75:\n    /* \"#utility.yul\":2418:2483   */\n  tag_76\n    /* \"#utility.yul\":2476:2482   */\n  dup2\n    /* \"#utility.yul\":2468:2474   */\n  dup5\n    /* \"#utility.yul\":2462:2466   */\n  dup5\n    /* \"#utility.yul\":2418:2483   */\n  tag_35\n  jump\t// in\ntag_76:\n    /* \"#utility.yul\":2353:2489   */\n  pop\n    /* \"#utility.yul\":2300:2489   */\n  pop\n  pop\n  jump\t// out\n    /* \"#utility.yul\":2495:2681   */\ntag_38:\n    /* \"#utility.yul\":2555:2675   */\ntag_78:\n    /* \"#utility.yul\":2572:2575   */\n  dup2\n    /* \"#utility.yul\":2565:2570   */\n  dup2\n    /* \"#utility.yul\":2562:2576   */\n  lt\n    /* \"#utility.yul\":2555:2675   */\n  iszero\n  tag_80\n  jumpi\n    /* \"#utility.yul\":2626:2665   */\n  tag_81\n    /* \"#utility.yul\":2663:2664   */\n  0x00\n    /* \"#utility.yul\":2656:2661   */\n  dup3\n    /* \"#utility.yul\":2626:2665   */\n  tag_37\n  jump\t// in\ntag_81:\n    /* \"#utility.yul\":2599:2600   */\n  0x01\n    /* \"#utility.yul\":2592:2597   */\n  dup2\n    /* \"#utility.yul\":2588:2601   */\n  add\n    /* \"#utility.yul\":2579:2601   */\n  swap1\n  pop\n    /* \"#utility.yul\":2555:2675   */\n  jump(tag_78)\ntag_80:\n    /* \"#utility.yul\":2495:2681   */\n  pop\n  pop\n  jump\t// out\n    /* \"#utility.yul\":2687:3230   */\ntag_39:\n    /* \"#utility.yul\":2788:2790   */\n  0x1f\n    /* \"#utility.yul\":2783:2786   */\n  dup3\n    /* \"#utility.yul\":2780:2791   */\n  gt\n    /* \"#utility.yul\":2777:3223   */\n  iszero\n  tag_83\n  jumpi\n    /* \"#utility.yul\":2822:2860   */\n  tag_84\n    /* \"#utility.yul\":2854:2859   */\n  dup2\n    /* \"#utility.yul\":2822:2860   */\n  tag_27\n  jump\t// in\ntag_84:\n    /* \"#utility.yul\":2906:2935   */\n  tag_85\n    /* \"#utility.yul\":2924:2934   */\n  dup5\n    /* \"#utility.yul\":2906:2935   */\n  tag_28\n  jump\t// in\ntag_85:\n    /* \"#utility.yul\":2896:2904   */\n  dup2\n    /* \"#utility.yul\":2892:2936   */\n  add\n    /* \"#utility.yul\":3089:3091   */\n  0x20\n    /* \"#utility.yul\":3077:3087   */\n  dup6\n    /* \"#utility.yul\":3074:3092   */\n  lt\n    /* \"#utility.yul\":3071:3120   */\n  iszero\n  tag_86\n  jumpi\n    /* \"#utility.yul\":3110:3118   */\n  dup2\n    /* \"#utility.yul\":3095:3118   */\n  swap1\n  pop\n    /* \"#utility.yul\":3071:3120   */\ntag_86:\n    /* \"#utility.yul\":3133:3213   */\n  tag_87\n    /* \"#utility.yul\":3189:3211   */\n  tag_88\n    /* \"#utility.yul\":3207:3210   */\n  dup6\n    /* \"#utility.yul\":3189:3211   */\n  tag_28\n  jump\t// in\ntag_88:\n    /* \"#utility.yul\":3179:3187   */\n  dup4\n    /* \"#utility.yul\":3175:3212   */\n  add\n    /* \"#utility.yul\":3162:3173   */\n  dup3\n    /* \"#utility.yul\":3133:3213   */\n  tag_38\n  jump\t// in\ntag_87:\n    /* \"#utility.yul\":2792:3223   */\n  pop\n  pop\n    /* \"#utility.yul\":2777:3223   */\ntag_83:\n    /* \"#utility.yul\":2687:3230   */\n  pop\n  pop\n  pop\n  jump\t// out\n    /* \"#utility.yul\":3236:3353   */\ntag_40:\n    /* \"#utility.yul\":3290:3298   */\n  0x00\n    /* \"#utility.yul\":3340:3345   */\n  dup3\n    /* \"#utility.yul\":3334:3338   */\n  dup3\n    /* \"#utility.yul\":3330:3346   */\n  shr\n    /* \"#utility.yul\":3309:3346   */\n  swap1\n  pop\n    /* \"#utility.yul\":3236:3353   */\n  swap3\n  swap2\n  pop\n  pop\n  jump\t// out\n    /* \"#utility.yul\":3359:3528   */\ntag_41:\n    /* \"#utility.yul\":3403:3409   */\n  0x00\n    /* \"#utility.yul\":3436:3487   */\n  tag_91\n    /* \"#utility.yul\":3484:3485   */\n  0x00\n    /* \"#utility.yul\":3480:3486   */\n  not\n    /* \"#utility.yul\":3472:3477   */\n  dup5\n    /* \"#utility.yul\":3469:3470   */\n  0x08\n    /* \"#utility.yul\":3465:3478   */\n  mul\n    /* \"#utility.yul\":3436:3487   */\n  tag_40\n  jump\t// in\ntag_91:\n    /* \"#utility.yul\":3432:3488   */\n  not\n    /* \"#utility.yul\":3517:3521   */\n  dup1\n    /* \"#utility.yul\":3511:3515   */\n  dup4\n    /* \"#utility.yul\":3507:3522   */\n  and\n    /* \"#utility.yul\":3497:3522   */\n  swap2\n  pop\n    /* \"#utility.yul\":3410:3528   */\n  pop\n    /* \"#utility.yul\":3359:3528   */\n  swap3\n  swap2\n  pop\n  pop\n  jump\t// out\n    /* \"#utility.yul\":3533:3828   */\ntag_42:\n    /* \"#utility.yul\":3609:3613   */\n  0x00\n    /* \"#utility.yul\":3755:3784   */\n  tag_93\n    /* \"#utility.yul\":3780:3783   */\n  dup4\n    /* \"#utility.yul\":3774:3778   */\n  dup4\n    /* \"#utility.yul\":3755:3784   */\n  tag_41\n  jump\t// in\ntag_93:\n    /* \"#utility.yul\":3747:3784   */\n  swap2\n  pop\n    /* \"#utility.yul\":3817:3820   */\n  dup3\n    /* \"#utility.yul\":3814:3815   */\n  0x02\n    /* \"#utility.yul\":3810:3821   */\n  mul\n    /* \"#utility.yul\":3804:3808   */\n  dup3\n    /* \"#utility.yul\":3801:3822   */\n  or\n    /* \"#utility.yul\":3793:3822   */\n  swap1\n  pop\n    /* \"#utility.yul\":3533:3828   */\n  swap3\n  swap2\n  pop\n  pop\n  jump\t// out\n    /* \"#utility.yul\":3833:5228   */\ntag_2:\n    /* \"#utility.yul\":3950:3987   */\n  tag_95\n    /* \"#utility.yul\":3983:3986   */\n  dup3\n    /* \"#utility.yul\":3950:3987   */\n  tag_23\n  jump\t// in\ntag_95:\n    /* \"#utility.yul\":4052:4070   */\n  0xffffffffffffffff\n    /* \"#utility.yul\":4044:4050   */\n  dup2\n    /* \"#utility.yul\":4041:4071   */\n  gt\n    /* \"#utility.yul\":4038:4094   */\n  iszero\n  tag_96\n  jumpi\n    /* \"#utility.yul\":4074:4092   */\n  tag_97\n  tag_24\n  jump\t// in\ntag_97:\n    /* \"#utility.yul\":4038:4094   */\ntag_96:\n    /* \"#utility.yul\":4118:4156   */\n  tag_98\n    /* \"#utility.yul\":4150:4154   */\n  dup3\n    /* \"#utility.yul\":4144:4155   */\n  sload\n    /* \"#utility.yul\":4118:4156   */\n  tag_26\n  jump\t// in\ntag_98:\n    /* \"#utility.yul\":4203:4270   */\n  tag_99\n    /* \"#utility.yul\":4263:4269   */\n  dup3\n    /* \"#utility.yul\":4255:4261   */\n  dup3\n    /* \"#utility.yul\":4249:4253   */\n  dup6\n    /* \"#utility.yul\":4203:4270   */\n  tag_39\n  jump\t// in\ntag_99:\n    /* \"#utility.yul\":4297:4298   */\n  0x00\n    /* \"#utility.yul\":4321:4325   */\n  0x20\n    /* \"#utility.yul\":4308:4325   */\n  swap1\n  pop\n    /* \"#utility.yul\":4353:4355   */\n  0x1f\n    /* \"#utility.yul\":4345:4351   */\n  dup4\n    /* \"#utility.yul\":4342:4356   */\n  gt\n    /* \"#utility.yul\":4370:4371   */\n  0x01\n    /* \"#utility.yul\":4365:4983   */\n  dup2\n  eq\n  tag_101\n  jumpi\n    /* \"#utility.yul\":5027:5028   */\n  0x00\n    /* \"#utility.yul\":5044:5050   */\n  dup5\n    /* \"#utility.yul\":5041:5118   */\n  iszero\n  tag_102\n  jumpi\n    /* \"#utility.yul\":5093:5102   */\n  dup3\n    /* \"#utility.yul\":5088:5091   */\n  dup8\n    /* \"#utility.yul\":5084:5103   */\n  add\n    /* \"#utility.yul\":5078:5104   */\n  mload\n    /* \"#utility.yul\":5069:5104   */\n  swap1\n  pop\n    /* \"#utility.yul\":5041:5118   */\ntag_102:\n    /* \"#utility.yul\":5144:5211   */\n  tag_103\n    /* \"#utility.yul\":5204:5210   */\n  dup6\n    /* \"#utility.yul\":5197:5202   */\n  dup3\n    /* \"#utility.yul\":5144:5211   */\n  tag_42\n  jump\t// in\ntag_103:\n    /* \"#utility.yul\":5138:5142   */\n  dup7\n    /* \"#utility.yul\":5131:5212   */\n  sstore\n    /* \"#utility.yul\":5000:5222   */\n  pop\n    /* \"#utility.yul\":4335:5222   */\n  jump(tag_100)\n    /* \"#utility.yul\":4365:4983   */\ntag_101:\n    /* \"#utility.yul\":4417:4421   */\n  0x1f\n    /* \"#utility.yul\":4413:4422   */\n  not\n    /* \"#utility.yul\":4405:4411   */\n  dup5\n    /* \"#utility.yul\":4401:4423   */\n  and\n    /* \"#utility.yul\":4451:4488   */\n  tag_104\n    /* \"#utility.yul\":4483:4487   */\n  dup7\n    /* \"#utility.yul\":4451:4488   */\n  tag_27\n  jump\t// in\ntag_104:\n    /* \"#utility.yul\":4510:4511   */\n  0x00\n    /* \"#utility.yul\":4524:4732   */\ntag_105:\n    /* \"#utility.yul\":4538:4545   */\n  dup3\n    /* \"#utility.yul\":4535:4536   */\n  dup2\n    /* \"#utility.yul\":4532:4546   */\n  lt\n    /* \"#utility.yul\":4524:4732   */\n  iszero\n  tag_107\n  jumpi\n    /* \"#utility.yul\":4617:4626   */\n  dup5\n    /* \"#utility.yul\":4612:4615   */\n  dup10\n    /* \"#utility.yul\":4608:4627   */\n  add\n    /* \"#utility.yul\":4602:4628   */\n  mload\n    /* \"#utility.yul\":4594:4600   */\n  dup3\n    /* \"#utility.yul\":4587:4629   */\n  sstore\n    /* \"#utility.yul\":4668:4669   */\n  0x01\n    /* \"#utility.yul\":4660:4666   */\n  dup3\n    /* \"#utility.yul\":4656:4670   */\n  add\n    /* \"#utility.yul\":4646:4670   */\n  swap2\n  pop\n    /* \"#utility.yul\":4715:4717   */\n  0x20\n    /* \"#utility.yul\":4704:4713   */\n  dup6\n    /* \"#utility.yul\":4700:4718   */\n  add\n    /* \"#utility.yul\":4687:4718   */\n  swap5\n  pop\n    /* \"#utility.yul\":4561:4565   */\n  0x20\n    /* \"#utility.yul\":4558:4559   */\n  dup2\n    /* \"#utility.yul\":4554:4566   */\n  add\n    /* \"#utility.yul\":4549:4566   */\n  swap1\n  pop\n    /* \"#utility.yul\":4524:4732   */\n  jump(tag_105)\ntag_107:\n    /* \"#utility.yul\":4760:4766   */\n  dup7\n    /* \"#utility.yul\":4751:4758   */\n  dup4\n    /* \"#utility.yul\":4748:4767   */\n  lt\n    /* \"#utility.yul\":4745:4924   */\n  iszero\n  tag_108\n  jumpi\n    /* \"#utility.yul\":4818:4827   */\n  dup5\n    /* \"#utility.yul\":4813:4816   */\n  dup10\n    /* \"#utility.yul\":4809:4828   */\n  add\n    /* \"#utility.yul\":4803:4829   */\n  mload\n    /* \"#utility.yul\":4861:4909   */\n  tag_109\n    /* \"#utility.yul\":4903:4907   */\n  0x1f\n    /* \"#utility.yul\":4895:4901   */\n  dup10\n    /* \"#utility.yul\":4891:4908   */\n  and\n    /* \"#utility.yul\":4880:4889   */\n  dup3\n    /* \"#utility.yul\":4861:4909   */\n  tag_41\n  jump\t// in\ntag_109:\n    /* \"#utility.yul\":4853:4859   */\n  dup4\n    /* \"#utility.yul\":4846:4910   */\n  sstore\n    /* \"#utility.yul\":4768:4924   */\n  pop\n    /* \"#utility.yul\":4745:4924   */\ntag_108:\n    /* \"#utility.yul\":4970:4971   */\n  0x01\n    /* \"#utility.yul\":4966:4967   */\n  0x02\n    /* \"#utility.yul\":4958:4964   */\n  dup9\n    /* \"#utility.yul\":4954:4968   */\n  mul\n    /* \"#utility.yul\":4950:4972   */\n  add\n    /* \"#utility.yul\":4944:4948   */\n  dup9\n    /* \"#utility.yul\":4937:4973   */\n  sstore\n    /* \"#utility.yul\":4372:4983   */\n  pop\n  pop\n  pop\n    /* \"#utility.yul\":4335:5222   */\ntag_100:\n  pop\n    /* \"#utility.yul\":3925:5228   */\n  pop\n  pop\n  pop\n    /* \"#utility.yul\":3833:5228   */\n  pop\n  pop\n  jump\t// out\n    /* \"#utility.yul\":5234:5403   */\ntag_43:\n    /* \"#utility.yul\":5318:5329   */\n  0x00\n    /* \"#utility.yul\":5352:5358   */\n  dup3\n    /* \"#utility.yul\":5347:5350   */\n  dup3\n    /* \"#utility.yul\":5340:5359   */\n  mstore\n    /* \"#utility.yul\":5392:5396   */\n  0x20\n    /* \"#utility.yul\":5387:5390   */\n  dup3\n    /* \"#utility.yul\":5383:5397   */\n  add\n    /* \"#utility.yul\":5368:5397   */\n  swap1\n  pop\n    /* \"#utility.yul\":5234:5403   */\n  swap3\n  swap2\n  pop\n  pop\n  jump\t// out\n    /* \"#utility.yul\":5409:5583   */\ntag_44:\n    /* \"#utility.yul\":5549:5575   */\n  0x43616e6e6f7420736574206f776e657220746f207a65726f0000000000000000\n    /* \"#utility.yul\":5545:5546   */\n  0x00\n    /* \"#utility.yul\":5537:5543   */\n  dup3\n    /* \"#utility.yul\":5533:5547   */\n  add\n    /* \"#utility.yul\":5526:5576   */\n  mstore\n    /* \"#utility.yul\":5409:5583   */\n  pop\n  jump\t// out\n    /* \"#utility.yul\":5589:5955   */\ntag_45:\n    /* \"#utility.yul\":5731:5734   */\n  0x00\n    /* \"#utility.yul\":5752:5819   */\n  tag_113\n    /* \"#utility.yul\":5816:5818   */\n  0x18\n    /* \"#utility.yul\":5811:5814   */\n  dup4\n    /* \"#utility.yul\":5752:5819   */\n  tag_43\n  jump\t// in\ntag_113:\n    /* \"#utility.yul\":5745:5819   */\n  swap2\n  pop\n    /* \"#utility.yul\":5828:5921   */\n  tag_114\n    /* \"#utility.yul\":5917:5920   */\n  dup3\n    /* \"#utility.yul\":5828:5921   */\n  tag_44\n  jump\t// in\ntag_114:\n    /* \"#utility.yul\":5946:5948   */\n  0x20\n    /* \"#utility.yul\":5941:5944   */\n  dup3\n    /* \"#utility.yul\":5937:5949   */\n  add\n    /* \"#utility.yul\":5930:5949   */\n  swap1\n  pop\n    /* \"#utility.yul\":5589:5955   */\n  swap2\n  swap1\n  pop\n  jump\t// out\n    /* \"#utility.yul\":5961:6380   */\ntag_12:\n    /* \"#utility.yul\":6127:6131   */\n  0x00\n    /* \"#utility.yul\":6165:6167   */\n  0x20\n    /* \"#utility.yul\":6154:6163   */\n  dup3\n    /* \"#utility.yul\":6150:6168   */\n  add\n    /* \"#utility.yul\":6142:6168   */\n  swap1\n  pop\n    /* \"#utility.yul\":6214:6223   */\n  dup2\n    /* \"#utility.yul\":6208:6212   */\n  dup2\n    /* \"#utility.yul\":6204:6224   */\n  sub\n    /* \"#utility.yul\":6200:6201   */\n  0x00\n    /* \"#utility.yul\":6189:6198   */\n  dup4\n    /* \"#utility.yul\":6185:6202   */\n  add\n    /* \"#utility.yul\":6178:6225   */\n  mstore\n    /* \"#utility.yul\":6242:6373   */\n  tag_116\n    /* \"#utility.yul\":6368:6372   */\n  dup2\n    /* \"#utility.yul\":6242:6373   */\n  tag_45\n  jump\t// in\ntag_116:\n    /* \"#utility.yul\":6234:6373   */\n  swap1\n  pop\n    /* \"#utility.yul\":5961:6380   */\n  swap2\n  swap1\n  pop\n  jump\t// out\n    /* \"#utility.yul\":6386:6559   */\ntag_46:\n    /* \"#utility.yul\":6526:6551   */\n  0x43616e6e6f74207472616e7366657220746f2073656c66000000000000000000\n    /* \"#utility.yul\":6522:6523   */\n  0x00\n    /* \"#utility.yul\":6514:6520   */\n  dup3\n    /* \"#utility.yul\":6510:6524   */\n  add\n    /* \"#utility.yul\":6503:6552   */\n  mstore\n    /* \"#utility.yul\":6386:6559   */\n  pop\n  jump\t// out\n    /* \"#utility.yul\":6565:6931   */\ntag_47:\n    /* \"#utility.yul\":6707:6710   */\n  0x00\n    /* \"#utility.yul\":6728:6795   */\n  tag_119\n    /* \"#utility.yul\":6792:6794   */\n  0x17\n    /* \"#utility.yul\":6787:6790   */\n  dup4\n    /* \"#utility.yul\":6728:6795   */\n  tag_43\n  jump\t// in\ntag_119:\n    /* \"#utility.yul\":6721:6795   */\n  swap2\n  pop\n    /* \"#utility.yul\":6804:6897   */\n  tag_120\n    /* \"#utility.yul\":6893:6896   */\n  dup3\n    /* \"#utility.yul\":6804:6897   */\n  tag_46\n  jump\t// in\ntag_120:\n    /* \"#utility.yul\":6922:6924   */\n  0x20\n    /* \"#utility.yul\":6917:6920   */\n  dup3\n    /* \"#utility.yul\":6913:6925   */\n  add\n    /* \"#utility.yul\":6906:6925   */\n  swap1\n  pop\n    /* \"#utility.yul\":6565:6931   */\n  swap2\n  swap1\n  pop\n  jump\t// out\n    /* \"#utility.yul\":6937:7356   */\ntag_22:\n    /* \"#utility.yul\":7103:7107   */\n  0x00\n    /* \"#utility.yul\":7141:7143   */\n  0x20\n    /* \"#utility.yul\":7130:7139   */\n  dup3\n    /* \"#utility.yul\":7126:7144   */\n  add\n    /* \"#utility.yul\":7118:7144   */\n  swap1\n  pop\n    /* \"#utility.yul\":7190:7199   */\n  dup2\n    /* \"#utility.yul\":7184:7188   */\n  dup2\n    /* \"#utility.yul\":7180:7200   */\n  sub\n    /* \"#utility.yul\":7176:7177   */\n  0x00\n    /* \"#utility.yul\":7165:7174   */\n  dup4\n    /* \"#utility.yul\":7161:7178   */\n  add\n    /* \"#utility.yul\":7154:7201   */\n  mstore\n    /* \"#utility.yul\":7218:7349   */\n  tag_122\n    /* \"#utility.yul\":7344:7348   */\n  dup2\n    /* \"#utility.yul\":7218:7349   */\n  tag_47\n  jump\t// in\ntag_122:\n    /* \"#utility.yul\":7210:7349   */\n  swap1\n  pop\n    /* \"#utility.yul\":6937:7356   */\n  swap2\n  swap1\n  pop\n  jump\t// out\n    /* \"RequestRWATdata.sol\":382:3579  contract RequestRWATdata is FunctionsClient, ConfirmedOwner {... */\ntag_18:\n  mload(0x80)\n  codecopy(0x00, dataOffset(sub_0), dataSize(sub_0))\n  0x00\n  assignImmutable(\"0x8e8fab5f003314da8d1873ea7720e8d9f47650136d916064d1edb8a11d682624\")\n  return(0x00, dataSize(sub_0))\nstop\ndata_190f122a6e3777eb27f3d1883f2184082ab4b178c095b775d1a629d5c103b302 636f6e7374207b20657468657273207d203d20617761697420696d706f727428276e706d3a65746865727340362e31302e3027293b636f6e737420616269436f646572203d206574686572732e416269436f6465722e64656661756c74416269436f64657228293b636f6e737420617069526573706f6e7365203d2061776169742046756e6374696f6e732e6d616b654874747052657175657374287b2020202075726c3a202768747470733a2f2f67656e69656261636b626f6e652e617a75726577656273697465732e6e65742f6170692f70726f706572746965732f64656d6f277d293b636f6e7374207b2064617461207d203d20617069526573706f6e73652e646174613b636f6e7374206c6f636174696f6e203d20646174612e6c6f636174696f6e3b636f6e7374206c6f7453697a65203d204e756d62657228646174612e6c6f7453697a65293b636f6e737420746f74616c5072696365203d204e756d62657228646174612e746f74616c5072696365293b636f6e737420746178417373657373656456616c7565203d204e756d62657228646174612e746178417373657373656456616c7565293b636f6e737420656e636f646564203d20616269436f6465722e656e636f6465285b60737472696e67602c206075696e74323536602c206075696e74323536602c206075696e74323536605d2c205b6c6f636174696f6e2c206c6f7453697a652c20746f74616c50726963652c20746178417373657373656456616c75655d293b72657475726e206574686572732e676574427974657328656e636f646564293b\n\nsub_0: assembly {\n        /* \"RequestRWATdata.sol\":382:3579  contract RequestRWATdata is FunctionsClient, ConfirmedOwner {... */\n      mstore(0x40, 0x80)\n      callvalue\n      dup1\n      iszero\n      tag_1\n      jumpi\n      0x00\n      dup1\n      revert\n    tag_1:\n      pop\n      jumpi(tag_2, lt(calldatasize, 0x04))\n      shr(0xe0, calldataload(0x00))\n      dup1\n      0x79ba5097\n      gt\n      tag_15\n      jumpi\n      dup1\n      0x79ba5097\n      eq\n      tag_9\n      jumpi\n      dup1\n      0x8da5cb5b\n      eq\n      tag_10\n      jumpi\n      dup1\n      0xab0d92dd\n      eq\n      tag_11\n      jumpi\n      dup1\n      0xb1e21749\n      eq\n      tag_12\n      jumpi\n      dup1\n      0xb252c8f2\n      eq\n      tag_13\n      jumpi\n      dup1\n      0xf2fde38b\n      eq\n      tag_14\n      jumpi\n      jump(tag_2)\n    tag_15:\n      dup1\n      0x0ca76175\n      eq\n      tag_3\n      jumpi\n      dup1\n      0x2f9d6254\n      eq\n      tag_4\n      jumpi\n      dup1\n      0x3944ea3a\n      eq\n      tag_5\n      jumpi\n      dup1\n      0x4942f65f\n      eq\n      tag_6\n      jumpi\n      dup1\n      0x4b0795a8\n      eq\n      tag_7\n      jumpi\n      dup1\n      0x516f279e\n      eq\n      tag_8\n      jumpi\n    tag_2:\n      0x00\n      dup1\n      revert\n        /* \"@chainlink/contracts@1.1.1/src/v0.8/functions/v1_0_0/FunctionsClient.sol\":2078:2364  function handleOracleFulfillment(bytes32 requestId, bytes memory response, bytes memory err) external override {... */\n    tag_3:\n      tag_16\n      0x04\n      dup1\n      calldatasize\n      sub\n      dup2\n      add\n      swap1\n      tag_17\n      swap2\n      swap1\n      tag_18\n      jump\t// in\n    tag_17:\n      tag_19\n      jump\t// in\n    tag_16:\n      stop\n        /* \"RequestRWATdata.sol\":2618:3069  function sendRequest(... */\n    tag_4:\n      tag_20\n      0x04\n      dup1\n      calldatasize\n      sub\n      dup2\n      add\n      swap1\n      tag_21\n      swap2\n      swap1\n      tag_22\n      jump\t// in\n    tag_21:\n      tag_23\n      jump\t// in\n    tag_20:\n      mload(0x40)\n      tag_24\n      swap2\n      swap1\n      tag_25\n      jump\t// in\n    tag_24:\n      mload(0x40)\n      dup1\n      swap2\n      sub\n      swap1\n      return\n        /* \"RequestRWATdata.sol\":542:569  bytes public s_lastResponse */\n    tag_5:\n      tag_26\n      tag_27\n      jump\t// in\n    tag_26:\n      mload(0x40)\n      tag_28\n      swap2\n      swap1\n      tag_29\n      jump\t// in\n    tag_28:\n      mload(0x40)\n      dup1\n      swap2\n      sub\n      swap1\n      return\n        /* \"RequestRWATdata.sol\":2325:2347  uint256 public lotSize */\n    tag_6:\n      tag_30\n      tag_31\n      jump\t// in\n    tag_30:\n      mload(0x40)\n      tag_32\n      swap2\n      swap1\n      tag_33\n      jump\t// in\n    tag_32:\n      mload(0x40)\n      dup1\n      swap2\n      sub\n      swap1\n      return\n        /* \"RequestRWATdata.sol\":575:599  bytes public s_lastError */\n    tag_7:\n      tag_34\n      tag_35\n      jump\t// in\n    tag_34:\n      mload(0x40)\n      tag_36\n      swap2\n      swap1\n      tag_29\n      jump\t// in\n    tag_36:\n      mload(0x40)\n      dup1\n      swap2\n      sub\n      swap1\n      return\n        /* \"RequestRWATdata.sol\":2297:2319  string public location */\n    tag_8:\n      tag_37\n      tag_38\n      jump\t// in\n    tag_37:\n      mload(0x40)\n      tag_39\n      swap2\n      swap1\n      tag_40\n      jump\t// in\n    tag_39:\n      mload(0x40)\n      dup1\n      swap2\n      sub\n      swap1\n      return\n        /* \"@chainlink/contracts@1.1.1/src/v0.8/shared/access/ConfirmedOwnerWithProposal.sol\":1026:1342  function acceptOwnership() external override {... */\n    tag_9:\n      tag_41\n      tag_42\n      jump\t// in\n    tag_41:\n      stop\n        /* \"@chainlink/contracts@1.1.1/src/v0.8/shared/access/ConfirmedOwnerWithProposal.sol\":1382:1463  function owner() public view override returns (address) {... */\n    tag_10:\n      tag_43\n      tag_44\n      jump\t// in\n    tag_43:\n      mload(0x40)\n      tag_45\n      swap2\n      swap1\n      tag_46\n      jump\t// in\n    tag_45:\n      mload(0x40)\n      dup1\n      swap2\n      sub\n      swap1\n      return\n        /* \"RequestRWATdata.sol\":2353:2378  uint256 public totalPrice */\n    tag_11:\n      tag_47\n      tag_48\n      jump\t// in\n    tag_47:\n      mload(0x40)\n      tag_49\n      swap2\n      swap1\n      tag_33\n      jump\t// in\n    tag_49:\n      mload(0x40)\n      dup1\n      swap2\n      sub\n      swap1\n      return\n        /* \"RequestRWATdata.sol\":506:536  bytes32 public s_lastRequestId */\n    tag_12:\n      tag_50\n      tag_51\n      jump\t// in\n    tag_50:\n      mload(0x40)\n      tag_52\n      swap2\n      swap1\n      tag_25\n      jump\t// in\n    tag_52:\n      mload(0x40)\n      dup1\n      swap2\n      sub\n      swap1\n      return\n        /* \"RequestRWATdata.sol\":2384:2415  uint256 public taxAssessedValue */\n    tag_13:\n      tag_53\n      tag_54\n      jump\t// in\n    tag_53:\n      mload(0x40)\n      tag_55\n      swap2\n      swap1\n      tag_33\n      jump\t// in\n    tag_55:\n      mload(0x40)\n      dup1\n      swap2\n      sub\n      swap1\n      return\n        /* \"@chainlink/contracts@1.1.1/src/v0.8/shared/access/ConfirmedOwnerWithProposal.sol\":847:945  function transferOwnership(address to) public override onlyOwner {... */\n    tag_14:\n      tag_56\n      0x04\n      dup1\n      calldatasize\n      sub\n      dup2\n      add\n      swap1\n      tag_57\n      swap2\n      swap1\n      tag_58\n      jump\t// in\n    tag_57:\n      tag_59\n      jump\t// in\n    tag_56:\n      stop\n        /* \"@chainlink/contracts@1.1.1/src/v0.8/functions/v1_0_0/FunctionsClient.sol\":2078:2364  function handleOracleFulfillment(bytes32 requestId, bytes memory response, bytes memory err) external override {... */\n    tag_19:\n        /* \"@chainlink/contracts@1.1.1/src/v0.8/functions/v1_0_0/FunctionsClient.sol\":2221:2229  i_router */\n      immutable(\"0x8e8fab5f003314da8d1873ea7720e8d9f47650136d916064d1edb8a11d682624\")\n        /* \"@chainlink/contracts@1.1.1/src/v0.8/functions/v1_0_0/FunctionsClient.sol\":2199:2230  msg.sender != address(i_router) */\n      0xffffffffffffffffffffffffffffffffffffffff\n      and\n        /* \"@chainlink/contracts@1.1.1/src/v0.8/functions/v1_0_0/FunctionsClient.sol\":2199:2209  msg.sender */\n      caller\n        /* \"@chainlink/contracts@1.1.1/src/v0.8/functions/v1_0_0/FunctionsClient.sol\":2199:2230  msg.sender != address(i_router) */\n      0xffffffffffffffffffffffffffffffffffffffff\n      and\n      eq\n        /* \"@chainlink/contracts@1.1.1/src/v0.8/functions/v1_0_0/FunctionsClient.sol\":2195:2276  if (msg.sender != address(i_router)) {... */\n      tag_61\n      jumpi\n        /* \"@chainlink/contracts@1.1.1/src/v0.8/functions/v1_0_0/FunctionsClient.sol\":2247:2269  OnlyRouterCanFulfill() */\n      mload(0x40)\n      0xc6829f8300000000000000000000000000000000000000000000000000000000\n      dup2\n      mstore\n      0x04\n      add\n      mload(0x40)\n      dup1\n      swap2\n      sub\n      swap1\n      revert\n        /* \"@chainlink/contracts@1.1.1/src/v0.8/functions/v1_0_0/FunctionsClient.sol\":2195:2276  if (msg.sender != address(i_router)) {... */\n    tag_61:\n        /* \"@chainlink/contracts@1.1.1/src/v0.8/functions/v1_0_0/FunctionsClient.sol\":2281:2321  fulfillRequest(requestId, response, err) */\n      tag_62\n        /* \"@chainlink/contracts@1.1.1/src/v0.8/functions/v1_0_0/FunctionsClient.sol\":2296:2305  requestId */\n      dup4\n        /* \"@chainlink/contracts@1.1.1/src/v0.8/functions/v1_0_0/FunctionsClient.sol\":2307:2315  response */\n      dup4\n        /* \"@chainlink/contracts@1.1.1/src/v0.8/functions/v1_0_0/FunctionsClient.sol\":2317:2320  err */\n      dup4\n        /* \"@chainlink/contracts@1.1.1/src/v0.8/functions/v1_0_0/FunctionsClient.sol\":2281:2295  fulfillRequest */\n      tag_63\n        /* \"@chainlink/contracts@1.1.1/src/v0.8/functions/v1_0_0/FunctionsClient.sol\":2281:2321  fulfillRequest(requestId, response, err) */\n      jump\t// in\n    tag_62:\n        /* \"@chainlink/contracts@1.1.1/src/v0.8/functions/v1_0_0/FunctionsClient.sol\":2349:2358  requestId */\n      dup3\n        /* \"@chainlink/contracts@1.1.1/src/v0.8/functions/v1_0_0/FunctionsClient.sol\":2332:2359  RequestFulfilled(requestId) */\n      0x85e1543bf2f84fe80c6badbce3648c8539ad1df4d2b3d822938ca0538be727e6\n      mload(0x40)\n      mload(0x40)\n      dup1\n      swap2\n      sub\n      swap1\n      log2\n        /* \"@chainlink/contracts@1.1.1/src/v0.8/functions/v1_0_0/FunctionsClient.sol\":2078:2364  function handleOracleFulfillment(bytes32 requestId, bytes memory response, bytes memory err) external override {... */\n      pop\n      pop\n      pop\n      jump\t// out\n        /* \"RequestRWATdata.sol\":2618:3069  function sendRequest(... */\n    tag_23:\n        /* \"RequestRWATdata.sol\":2704:2721  bytes32 requestId */\n      0x00\n        /* \"@chainlink/contracts@1.1.1/src/v0.8/shared/access/ConfirmedOwnerWithProposal.sol\":2075:2095  _validateOwnership() */\n      tag_65\n        /* \"@chainlink/contracts@1.1.1/src/v0.8/shared/access/ConfirmedOwnerWithProposal.sol\":2075:2093  _validateOwnership */\n      tag_66\n        /* \"@chainlink/contracts@1.1.1/src/v0.8/shared/access/ConfirmedOwnerWithProposal.sol\":2075:2095  _validateOwnership() */\n      jump\t// in\n    tag_65:\n        /* \"RequestRWATdata.sol\":2733:2768  FunctionsRequest.Request memory req */\n      tag_68\n      tag_69\n      jump\t// in\n    tag_68:\n        /* \"RequestRWATdata.sol\":2778:2826  req.initializeRequestForInlineJavaScript(source) */\n      tag_70\n        /* \"RequestRWATdata.sol\":2819:2825  source */\n      0x06\n        /* \"RequestRWATdata.sol\":2778:2826  req.initializeRequestForInlineJavaScript(source) */\n      dup1\n      sload\n      tag_71\n      swap1\n      tag_72\n      jump\t// in\n    tag_71:\n      dup1\n      0x1f\n      add\n      0x20\n      dup1\n      swap2\n      div\n      mul\n      0x20\n      add\n      mload(0x40)\n      swap1\n      dup2\n      add\n      0x40\n      mstore\n      dup1\n      swap3\n      swap2\n      swap1\n      dup2\n      dup2\n      mstore\n      0x20\n      add\n      dup3\n      dup1\n      sload\n      tag_73\n      swap1\n      tag_72\n      jump\t// in\n    tag_73:\n      dup1\n      iszero\n      tag_74\n      jumpi\n      dup1\n      0x1f\n      lt\n      tag_75\n      jumpi\n      0x0100\n      dup1\n      dup4\n      sload\n      div\n      mul\n      dup4\n      mstore\n      swap2\n      0x20\n      add\n      swap2\n      jump(tag_74)\n    tag_75:\n      dup3\n      add\n      swap2\n      swap1\n      0x00\n      mstore\n      keccak256(0x00, 0x20)\n      swap1\n    tag_76:\n      dup2\n      sload\n      dup2\n      mstore\n      swap1\n      0x01\n      add\n      swap1\n      0x20\n      add\n      dup1\n      dup4\n      gt\n      tag_76\n      jumpi\n      dup3\n      swap1\n      sub\n      0x1f\n      and\n      dup3\n      add\n      swap2\n    tag_74:\n      pop\n      pop\n      pop\n      pop\n      pop\n        /* \"RequestRWATdata.sol\":2778:2781  req */\n      dup3\n        /* \"RequestRWATdata.sol\":2778:2818  req.initializeRequestForInlineJavaScript */\n      tag_77\n      swap1\n        /* \"RequestRWATdata.sol\":2778:2826  req.initializeRequestForInlineJavaScript(source) */\n      swap2\n      swap1\n      0xffffffff\n      and\n      jump\t// in\n    tag_70:\n        /* \"RequestRWATdata.sol\":2908:3029  _sendRequest(... */\n      tag_78\n        /* \"RequestRWATdata.sol\":2934:2950  req.encodeCBOR() */\n      tag_79\n        /* \"RequestRWATdata.sol\":2934:2937  req */\n      dup3\n        /* \"RequestRWATdata.sol\":2934:2948  req.encodeCBOR */\n      tag_80\n        /* \"RequestRWATdata.sol\":2934:2950  req.encodeCBOR() */\n      jump\t// in\n    tag_79:\n        /* \"RequestRWATdata.sol\":2964:2978  subscriptionId */\n      dup5\n        /* \"RequestRWATdata.sol\":2992:3000  gasLimit */\n      0x07\n      0x00\n      swap1\n      sload\n      swap1\n      0x0100\n      exp\n      swap1\n      div\n      0xffffffff\n      and\n        /* \"RequestRWATdata.sol\":3014:3019  donID */\n      sload(0x08)\n        /* \"RequestRWATdata.sol\":2908:2920  _sendRequest */\n      tag_81\n        /* \"RequestRWATdata.sol\":2908:3029  _sendRequest(... */\n      jump\t// in\n    tag_78:\n        /* \"RequestRWATdata.sol\":2890:2905  s_lastRequestId */\n      0x02\n        /* \"RequestRWATdata.sol\":2890:3029  s_lastRequestId = _sendRequest(... */\n      dup2\n      swap1\n      sstore\n      pop\n        /* \"RequestRWATdata.sol\":3047:3062  s_lastRequestId */\n      sload(0x02)\n        /* \"RequestRWATdata.sol\":3040:3062  return s_lastRequestId */\n      swap2\n      pop\n      pop\n        /* \"RequestRWATdata.sol\":2618:3069  function sendRequest(... */\n      swap2\n      swap1\n      pop\n      jump\t// out\n        /* \"RequestRWATdata.sol\":542:569  bytes public s_lastResponse */\n    tag_27:\n      0x03\n      dup1\n      sload\n      tag_82\n      swap1\n      tag_72\n      jump\t// in\n    tag_82:\n      dup1\n      0x1f\n      add\n      0x20\n      dup1\n      swap2\n      div\n      mul\n      0x20\n      add\n      mload(0x40)\n      swap1\n      dup2\n      add\n      0x40\n      mstore\n      dup1\n      swap3\n      swap2\n      swap1\n      dup2\n      dup2\n      mstore\n      0x20\n      add\n      dup3\n      dup1\n      sload\n      tag_83\n      swap1\n      tag_72\n      jump\t// in\n    tag_83:\n      dup1\n      iszero\n      tag_84\n      jumpi\n      dup1\n      0x1f\n      lt\n      tag_85\n      jumpi\n      0x0100\n      dup1\n      dup4\n      sload\n      div\n      mul\n      dup4\n      mstore\n      swap2\n      0x20\n      add\n      swap2\n      jump(tag_84)\n    tag_85:\n      dup3\n      add\n      swap2\n      swap1\n      0x00\n      mstore\n      keccak256(0x00, 0x20)\n      swap1\n    tag_86:\n      dup2\n      sload\n      dup2\n      mstore\n      swap1\n      0x01\n      add\n      swap1\n      0x20\n      add\n      dup1\n      dup4\n      gt\n      tag_86\n      jumpi\n      dup3\n      swap1\n      sub\n      0x1f\n      and\n      dup3\n      add\n      swap2\n    tag_84:\n      pop\n      pop\n      pop\n      pop\n      pop\n      dup2\n      jump\t// out\n        /* \"RequestRWATdata.sol\":2325:2347  uint256 public lotSize */\n    tag_31:\n      sload(0x0a)\n      dup2\n      jump\t// out\n        /* \"RequestRWATdata.sol\":575:599  bytes public s_lastError */\n    tag_35:\n      0x04\n      dup1\n      sload\n      tag_87\n      swap1\n      tag_72\n      jump\t// in\n    tag_87:\n      dup1\n      0x1f\n      add\n      0x20\n      dup1\n      swap2\n      div\n      mul\n      0x20\n      add\n      mload(0x40)\n      swap1\n      dup2\n      add\n      0x40\n      mstore\n      dup1\n      swap3\n      swap2\n      swap1\n      dup2\n      dup2\n      mstore\n      0x20\n      add\n      dup3\n      dup1\n      sload\n      tag_88\n      swap1\n      tag_72\n      jump\t// in\n    tag_88:\n      dup1\n      iszero\n      tag_89\n      jumpi\n      dup1\n      0x1f\n      lt\n      tag_90\n      jumpi\n      0x0100\n      dup1\n      dup4\n      sload\n      div\n      mul\n      dup4\n      mstore\n      swap2\n      0x20\n      add\n      swap2\n      jump(tag_89)\n    tag_90:\n      dup3\n      add\n      swap2\n      swap1\n      0x00\n      mstore\n      keccak256(0x00, 0x20)\n      swap1\n    tag_91:\n      dup2\n      sload\n      dup2\n      mstore\n      swap1\n      0x01\n      add\n      swap1\n      0x20\n      add\n      dup1\n      dup4\n      gt\n      tag_91\n      jumpi\n      dup3\n      swap1\n      sub\n      0x1f\n      and\n      dup3\n      add\n      swap2\n    tag_89:\n      pop\n      pop\n      pop\n      pop\n      pop\n      dup2\n      jump\t// out\n        /* \"RequestRWATdata.sol\":2297:2319  string public location */\n    tag_38:\n      0x09\n      dup1\n      sload\n      tag_92\n      swap1\n      tag_72\n      jump\t// in\n    tag_92:\n      dup1\n      0x1f\n      add\n      0x20\n      dup1\n      swap2\n      div\n      mul\n      0x20\n      add\n      mload(0x40)\n      swap1\n      dup2\n      add\n      0x40\n      mstore\n      dup1\n      swap3\n      swap2\n      swap1\n      dup2\n      dup2\n      mstore\n      0x20\n      add\n      dup3\n      dup1\n      sload\n      tag_93\n      swap1\n      tag_72\n      jump\t// in\n    tag_93:\n      dup1\n      iszero\n      tag_94\n      jumpi\n      dup1\n      0x1f\n      lt\n      tag_95\n      jumpi\n      0x0100\n      dup1\n      dup4\n      sload\n      div\n      mul\n      dup4\n      mstore\n      swap2\n      0x20\n      add\n      swap2\n      jump(tag_94)\n    tag_95:\n      dup3\n      add\n      swap2\n      swap1\n      0x00\n      mstore\n      keccak256(0x00, 0x20)\n      swap1\n    tag_96:\n      dup2\n      sload\n      dup2\n      mstore\n      swap1\n      0x01\n      add\n      swap1\n      0x20\n      add\n      dup1\n      dup4\n      gt\n      tag_96\n      jumpi\n      dup3\n      swap1\n      sub\n      0x1f\n      and\n      dup3\n      add\n      swap2\n    tag_94:\n      pop\n      pop\n      pop\n      pop\n      pop\n      dup2\n      jump\t// out\n        /* \"@chainlink/contracts@1.1.1/src/v0.8/shared/access/ConfirmedOwnerWithProposal.sol\":1026:1342  function acceptOwnership() external override {... */\n    tag_42:\n        /* \"@chainlink/contracts@1.1.1/src/v0.8/shared/access/ConfirmedOwnerWithProposal.sol\":1150:1164  s_pendingOwner */\n      0x01\n      0x00\n      swap1\n      sload\n      swap1\n      0x0100\n      exp\n      swap1\n      div\n      0xffffffffffffffffffffffffffffffffffffffff\n      and\n        /* \"@chainlink/contracts@1.1.1/src/v0.8/shared/access/ConfirmedOwnerWithProposal.sol\":1136:1164  msg.sender == s_pendingOwner */\n      0xffffffffffffffffffffffffffffffffffffffff\n      and\n        /* \"@chainlink/contracts@1.1.1/src/v0.8/shared/access/ConfirmedOwnerWithProposal.sol\":1136:1146  msg.sender */\n      caller\n        /* \"@chainlink/contracts@1.1.1/src/v0.8/shared/access/ConfirmedOwnerWithProposal.sol\":1136:1164  msg.sender == s_pendingOwner */\n      0xffffffffffffffffffffffffffffffffffffffff\n      and\n      eq\n        /* \"@chainlink/contracts@1.1.1/src/v0.8/shared/access/ConfirmedOwnerWithProposal.sol\":1128:1191  require(msg.sender == s_pendingOwner, \"Must be proposed owner\") */\n      tag_98\n      jumpi\n      mload(0x40)\n      0x08c379a000000000000000000000000000000000000000000000000000000000\n      dup2\n      mstore\n      0x04\n      add\n      tag_99\n      swap1\n      tag_100\n      jump\t// in\n    tag_99:\n      mload(0x40)\n      dup1\n      swap2\n      sub\n      swap1\n      revert\n    tag_98:\n        /* \"@chainlink/contracts@1.1.1/src/v0.8/shared/access/ConfirmedOwnerWithProposal.sol\":1198:1214  address oldOwner */\n      0x00\n        /* \"@chainlink/contracts@1.1.1/src/v0.8/shared/access/ConfirmedOwnerWithProposal.sol\":1217:1224  s_owner */\n      dup1\n      0x00\n      swap1\n      sload\n      swap1\n      0x0100\n      exp\n      swap1\n      div\n      0xffffffffffffffffffffffffffffffffffffffff\n      and\n        /* \"@chainlink/contracts@1.1.1/src/v0.8/shared/access/ConfirmedOwnerWithProposal.sol\":1198:1224  address oldOwner = s_owner */\n      swap1\n      pop\n        /* \"@chainlink/contracts@1.1.1/src/v0.8/shared/access/ConfirmedOwnerWithProposal.sol\":1240:1250  msg.sender */\n      caller\n        /* \"@chainlink/contracts@1.1.1/src/v0.8/shared/access/ConfirmedOwnerWithProposal.sol\":1230:1237  s_owner */\n      0x00\n      dup1\n        /* \"@chainlink/contracts@1.1.1/src/v0.8/shared/access/ConfirmedOwnerWithProposal.sol\":1230:1250  s_owner = msg.sender */\n      0x0100\n      exp\n      dup2\n      sload\n      dup2\n      0xffffffffffffffffffffffffffffffffffffffff\n      mul\n      not\n      and\n      swap1\n      dup4\n      0xffffffffffffffffffffffffffffffffffffffff\n      and\n      mul\n      or\n      swap1\n      sstore\n      pop\n        /* \"@chainlink/contracts@1.1.1/src/v0.8/shared/access/ConfirmedOwnerWithProposal.sol\":1281:1282  0 */\n      0x00\n        /* \"@chainlink/contracts@1.1.1/src/v0.8/shared/access/ConfirmedOwnerWithProposal.sol\":1256:1270  s_pendingOwner */\n      0x01\n      0x00\n        /* \"@chainlink/contracts@1.1.1/src/v0.8/shared/access/ConfirmedOwnerWithProposal.sol\":1256:1283  s_pendingOwner = address(0) */\n      0x0100\n      exp\n      dup2\n      sload\n      dup2\n      0xffffffffffffffffffffffffffffffffffffffff\n      mul\n      not\n      and\n      swap1\n      dup4\n      0xffffffffffffffffffffffffffffffffffffffff\n      and\n      mul\n      or\n      swap1\n      sstore\n      pop\n        /* \"@chainlink/contracts@1.1.1/src/v0.8/shared/access/ConfirmedOwnerWithProposal.sol\":1326:1336  msg.sender */\n      caller\n        /* \"@chainlink/contracts@1.1.1/src/v0.8/shared/access/ConfirmedOwnerWithProposal.sol\":1295:1337  OwnershipTransferred(oldOwner, msg.sender) */\n      0xffffffffffffffffffffffffffffffffffffffff\n      and\n        /* \"@chainlink/contracts@1.1.1/src/v0.8/shared/access/ConfirmedOwnerWithProposal.sol\":1316:1324  oldOwner */\n      dup2\n        /* \"@chainlink/contracts@1.1.1/src/v0.8/shared/access/ConfirmedOwnerWithProposal.sol\":1295:1337  OwnershipTransferred(oldOwner, msg.sender) */\n      0xffffffffffffffffffffffffffffffffffffffff\n      and\n      0x8be0079c531659141344cd1fd0a4f28419497f9722a3daafe3b4186f6b6457e0\n      mload(0x40)\n      mload(0x40)\n      dup1\n      swap2\n      sub\n      swap1\n      log3\n        /* \"@chainlink/contracts@1.1.1/src/v0.8/shared/access/ConfirmedOwnerWithProposal.sol\":1071:1342  {... */\n      pop\n        /* \"@chainlink/contracts@1.1.1/src/v0.8/shared/access/ConfirmedOwnerWithProposal.sol\":1026:1342  function acceptOwnership() external override {... */\n      jump\t// out\n        /* \"@chainlink/contracts@1.1.1/src/v0.8/shared/access/ConfirmedOwnerWithProposal.sol\":1382:1463  function owner() public view override returns (address) {... */\n    tag_44:\n        /* \"@chainlink/contracts@1.1.1/src/v0.8/shared/access/ConfirmedOwnerWithProposal.sol\":1429:1436  address */\n      0x00\n        /* \"@chainlink/contracts@1.1.1/src/v0.8/shared/access/ConfirmedOwnerWithProposal.sol\":1451:1458  s_owner */\n      dup1\n      0x00\n      swap1\n      sload\n      swap1\n      0x0100\n      exp\n      swap1\n      div\n      0xffffffffffffffffffffffffffffffffffffffff\n      and\n        /* \"@chainlink/contracts@1.1.1/src/v0.8/shared/access/ConfirmedOwnerWithProposal.sol\":1444:1458  return s_owner */\n      swap1\n      pop\n        /* \"@chainlink/contracts@1.1.1/src/v0.8/shared/access/ConfirmedOwnerWithProposal.sol\":1382:1463  function owner() public view override returns (address) {... */\n      swap1\n      jump\t// out\n        /* \"RequestRWATdata.sol\":2353:2378  uint256 public totalPrice */\n    tag_48:\n      sload(0x0b)\n      dup2\n      jump\t// out\n        /* \"RequestRWATdata.sol\":506:536  bytes32 public s_lastRequestId */\n    tag_51:\n      sload(0x02)\n      dup2\n      jump\t// out\n        /* \"RequestRWATdata.sol\":2384:2415  uint256 public taxAssessedValue */\n    tag_54:\n      sload(0x0c)\n      dup2\n      jump\t// out\n        /* \"@chainlink/contracts@1.1.1/src/v0.8/shared/access/ConfirmedOwnerWithProposal.sol\":847:945  function transferOwnership(address to) public override onlyOwner {... */\n    tag_59:\n        /* \"@chainlink/contracts@1.1.1/src/v0.8/shared/access/ConfirmedOwnerWithProposal.sol\":2075:2095  _validateOwnership() */\n      tag_103\n        /* \"@chainlink/contracts@1.1.1/src/v0.8/shared/access/ConfirmedOwnerWithProposal.sol\":2075:2093  _validateOwnership */\n      tag_66\n        /* \"@chainlink/contracts@1.1.1/src/v0.8/shared/access/ConfirmedOwnerWithProposal.sol\":2075:2095  _validateOwnership() */\n      jump\t// in\n    tag_103:\n        /* \"@chainlink/contracts@1.1.1/src/v0.8/shared/access/ConfirmedOwnerWithProposal.sol\":918:940  _transferOwnership(to) */\n      tag_105\n        /* \"@chainlink/contracts@1.1.1/src/v0.8/shared/access/ConfirmedOwnerWithProposal.sol\":937:939  to */\n      dup2\n        /* \"@chainlink/contracts@1.1.1/src/v0.8/shared/access/ConfirmedOwnerWithProposal.sol\":918:936  _transferOwnership */\n      tag_106\n        /* \"@chainlink/contracts@1.1.1/src/v0.8/shared/access/ConfirmedOwnerWithProposal.sol\":918:940  _transferOwnership(to) */\n      jump\t// in\n    tag_105:\n        /* \"@chainlink/contracts@1.1.1/src/v0.8/shared/access/ConfirmedOwnerWithProposal.sol\":847:945  function transferOwnership(address to) public override onlyOwner {... */\n      pop\n      jump\t// out\n        /* \"RequestRWATdata.sol\":3075:3577  function fulfillRequest(... */\n    tag_63:\n        /* \"RequestRWATdata.sol\":3240:3249  requestId */\n      dup3\n        /* \"RequestRWATdata.sol\":3221:3236  s_lastRequestId */\n      sload(0x02)\n        /* \"RequestRWATdata.sol\":3221:3249  s_lastRequestId != requestId */\n      eq\n        /* \"RequestRWATdata.sol\":3217:3313  if (s_lastRequestId != requestId) {... */\n      tag_108\n      jumpi\n        /* \"RequestRWATdata.sol\":3292:3301  requestId */\n      dup3\n        /* \"RequestRWATdata.sol\":3272:3302  UnexpectedRequestID(requestId) */\n      mload(0x40)\n      0xd068bf5b00000000000000000000000000000000000000000000000000000000\n      dup2\n      mstore\n      0x04\n      add\n      tag_109\n      swap2\n      swap1\n      tag_25\n      jump\t// in\n    tag_109:\n      mload(0x40)\n      dup1\n      swap2\n      sub\n      swap1\n      revert\n        /* \"RequestRWATdata.sol\":3217:3313  if (s_lastRequestId != requestId) {... */\n    tag_108:\n        /* \"RequestRWATdata.sol\":3385:3393  response */\n      dup2\n        /* \"RequestRWATdata.sol\":3374:3431  abi.decode(response, (string, uint256, uint256, uint256)) */\n      dup1\n      0x20\n      add\n      swap1\n      mload\n      dup2\n      add\n      swap1\n      tag_110\n      swap2\n      swap1\n      tag_111\n      jump\t// in\n    tag_110:\n        /* \"RequestRWATdata.sol\":3323:3331  location */\n      0x09\n      0x00\n        /* \"RequestRWATdata.sol\":3333:3340  lotSize */\n      0x0a\n      0x00\n        /* \"RequestRWATdata.sol\":3342:3352  totalPrice */\n      0x0b\n      0x00\n        /* \"RequestRWATdata.sol\":3354:3370  taxAssessedValue */\n      0x0c\n      0x00\n        /* \"RequestRWATdata.sol\":3322:3431  (location, lotSize, totalPrice, taxAssessedValue) = abi.decode(response, (string, uint256, uint256, uint256)) */\n      dup9\n      swap2\n      swap1\n      pop\n      sstore\n      dup8\n      swap2\n      swap1\n      pop\n      sstore\n      dup7\n      swap2\n      swap1\n      pop\n      sstore\n      dup6\n      swap2\n      swap1\n      pop\n      swap1\n      dup2\n      tag_112\n      swap2\n      swap1\n      tag_113\n      jump\t// in\n    tag_112:\n      pop\n      pop\n      pop\n      pop\n      pop\n        /* \"RequestRWATdata.sol\":3455:3458  err */\n      dup1\n        /* \"RequestRWATdata.sol\":3441:3452  s_lastError */\n      0x04\n        /* \"RequestRWATdata.sol\":3441:3458  s_lastError = err */\n      swap1\n      dup2\n      tag_114\n      swap2\n      swap1\n      tag_115\n      jump\t// in\n    tag_114:\n      pop\n        /* \"RequestRWATdata.sol\":3482:3491  requestId */\n      dup3\n        /* \"RequestRWATdata.sol\":3473:3570  Response(requestId, location, lotSize, totalPrice, taxAssessedValue, s_lastResponse, s_lastError) */\n      0x07cee4eeecce4c378bcabac3921fe1ee240f2f7a24775769790937e3a8165c07\n        /* \"RequestRWATdata.sol\":3493:3501  location */\n      0x09\n        /* \"RequestRWATdata.sol\":3503:3510  lotSize */\n      sload(0x0a)\n        /* \"RequestRWATdata.sol\":3512:3522  totalPrice */\n      sload(0x0b)\n        /* \"RequestRWATdata.sol\":3524:3540  taxAssessedValue */\n      sload(0x0c)\n        /* \"RequestRWATdata.sol\":3542:3556  s_lastResponse */\n      0x03\n        /* \"RequestRWATdata.sol\":3558:3569  s_lastError */\n      0x04\n        /* \"RequestRWATdata.sol\":3473:3570  Response(requestId, location, lotSize, totalPrice, taxAssessedValue, s_lastResponse, s_lastError) */\n      mload(0x40)\n      tag_116\n      swap7\n      swap6\n      swap5\n      swap4\n      swap3\n      swap2\n      swap1\n      tag_117\n      jump\t// in\n    tag_116:\n      mload(0x40)\n      dup1\n      swap2\n      sub\n      swap1\n      log2\n        /* \"RequestRWATdata.sol\":3075:3577  function fulfillRequest(... */\n      pop\n      pop\n      pop\n      jump\t// out\n        /* \"@chainlink/contracts@1.1.1/src/v0.8/shared/access/ConfirmedOwnerWithProposal.sol\":1809:1971  function _validateOwnership() internal view {... */\n    tag_66:\n        /* \"@chainlink/contracts@1.1.1/src/v0.8/shared/access/ConfirmedOwnerWithProposal.sol\":1932:1939  s_owner */\n      0x00\n      dup1\n      sload\n      swap1\n      0x0100\n      exp\n      swap1\n      div\n      0xffffffffffffffffffffffffffffffffffffffff\n      and\n        /* \"@chainlink/contracts@1.1.1/src/v0.8/shared/access/ConfirmedOwnerWithProposal.sol\":1918:1939  msg.sender == s_owner */\n      0xffffffffffffffffffffffffffffffffffffffff\n      and\n        /* \"@chainlink/contracts@1.1.1/src/v0.8/shared/access/ConfirmedOwnerWithProposal.sol\":1918:1928  msg.sender */\n      caller\n        /* \"@chainlink/contracts@1.1.1/src/v0.8/shared/access/ConfirmedOwnerWithProposal.sol\":1918:1939  msg.sender == s_owner */\n      0xffffffffffffffffffffffffffffffffffffffff\n      and\n      eq\n        /* \"@chainlink/contracts@1.1.1/src/v0.8/shared/access/ConfirmedOwnerWithProposal.sol\":1910:1966  require(msg.sender == s_owner, \"Only callable by owner\") */\n      tag_119\n      jumpi\n      mload(0x40)\n      0x08c379a000000000000000000000000000000000000000000000000000000000\n      dup2\n      mstore\n      0x04\n      add\n      tag_120\n      swap1\n      tag_121\n      jump\t// in\n    tag_120:\n      mload(0x40)\n      dup1\n      swap2\n      sub\n      swap1\n      revert\n    tag_119:\n        /* \"@chainlink/contracts@1.1.1/src/v0.8/shared/access/ConfirmedOwnerWithProposal.sol\":1809:1971  function _validateOwnership() internal view {... */\n      jump\t// out\n        /* \"@chainlink/contracts@1.1.1/src/v0.8/functions/v1_0_0/libraries/FunctionsRequest.sol\":4323:4530  function initializeRequestForInlineJavaScript(Request memory self, string memory javaScriptSource) internal pure {... */\n    tag_77:\n        /* \"@chainlink/contracts@1.1.1/src/v0.8/functions/v1_0_0/libraries/FunctionsRequest.sol\":4442:4525  initializeRequest(self, Location.Inline, CodeLanguage.JavaScript, javaScriptSource) */\n      tag_123\n        /* \"@chainlink/contracts@1.1.1/src/v0.8/functions/v1_0_0/libraries/FunctionsRequest.sol\":4460:4464  self */\n      dup3\n        /* \"@chainlink/contracts@1.1.1/src/v0.8/functions/v1_0_0/libraries/FunctionsRequest.sol\":4466:4481  Location.Inline */\n      0x00\n        /* \"@chainlink/contracts@1.1.1/src/v0.8/functions/v1_0_0/libraries/FunctionsRequest.sol\":4483:4506  CodeLanguage.JavaScript */\n      dup1\n        /* \"@chainlink/contracts@1.1.1/src/v0.8/functions/v1_0_0/libraries/FunctionsRequest.sol\":4508:4524  javaScriptSource */\n      dup5\n        /* \"@chainlink/contracts@1.1.1/src/v0.8/functions/v1_0_0/libraries/FunctionsRequest.sol\":4442:4459  initializeRequest */\n      tag_124\n        /* \"@chainlink/contracts@1.1.1/src/v0.8/functions/v1_0_0/libraries/FunctionsRequest.sol\":4442:4525  initializeRequest(self, Location.Inline, CodeLanguage.JavaScript, javaScriptSource) */\n      jump\t// in\n    tag_123:\n        /* \"@chainlink/contracts@1.1.1/src/v0.8/functions/v1_0_0/libraries/FunctionsRequest.sol\":4323:4530  function initializeRequestForInlineJavaScript(Request memory self, string memory javaScriptSource) internal pure {... */\n      pop\n      pop\n      jump\t// out\n        /* \"@chainlink/contracts@1.1.1/src/v0.8/functions/v1_0_0/libraries/FunctionsRequest.sol\":2158:3428  function encodeCBOR(Request memory self) internal pure returns (bytes memory) {... */\n    tag_80:\n        /* \"@chainlink/contracts@1.1.1/src/v0.8/functions/v1_0_0/libraries/FunctionsRequest.sol\":2222:2234  bytes memory */\n      0x60\n        /* \"@chainlink/contracts@1.1.1/src/v0.8/functions/v1_0_0/libraries/FunctionsRequest.sol\":2242:2271  CBOR.CBORBuffer memory buffer */\n      0x00\n        /* \"@chainlink/contracts@1.1.1/src/v0.8/functions/v1_0_0/libraries/FunctionsRequest.sol\":2274:2306  CBOR.create(DEFAULT_BUFFER_SIZE) */\n      tag_126\n        /* \"@chainlink/contracts@1.1.1/src/v0.8/functions/v1_0_0/libraries/FunctionsRequest.sol\":375:378  256 */\n      0x0100\n        /* \"@chainlink/contracts@1.1.1/src/v0.8/functions/v1_0_0/libraries/FunctionsRequest.sol\":2274:2285  CBOR.create */\n      tag_127\n        /* \"@chainlink/contracts@1.1.1/src/v0.8/functions/v1_0_0/libraries/FunctionsRequest.sol\":2274:2306  CBOR.create(DEFAULT_BUFFER_SIZE) */\n      jump\t// in\n    tag_126:\n        /* \"@chainlink/contracts@1.1.1/src/v0.8/functions/v1_0_0/libraries/FunctionsRequest.sol\":2242:2306  CBOR.CBORBuffer memory buffer = CBOR.create(DEFAULT_BUFFER_SIZE) */\n      swap1\n      pop\n        /* \"@chainlink/contracts@1.1.1/src/v0.8/functions/v1_0_0/libraries/FunctionsRequest.sol\":2313:2347  buffer.writeString(\"codeLocation\") */\n      tag_128\n      mload(0x40)\n      dup1\n      0x40\n      add\n      0x40\n      mstore\n      dup1\n      0x0c\n      dup2\n      mstore\n      0x20\n      add\n      0x636f64654c6f636174696f6e0000000000000000000000000000000000000000\n      dup2\n      mstore\n      pop\n        /* \"@chainlink/contracts@1.1.1/src/v0.8/functions/v1_0_0/libraries/FunctionsRequest.sol\":2313:2319  buffer */\n      dup3\n        /* \"@chainlink/contracts@1.1.1/src/v0.8/functions/v1_0_0/libraries/FunctionsRequest.sol\":2313:2331  buffer.writeString */\n      tag_129\n      swap1\n        /* \"@chainlink/contracts@1.1.1/src/v0.8/functions/v1_0_0/libraries/FunctionsRequest.sol\":2313:2347  buffer.writeString(\"codeLocation\") */\n      swap2\n      swap1\n      0xffffffff\n      and\n      jump\t// in\n    tag_128:\n        /* \"@chainlink/contracts@1.1.1/src/v0.8/functions/v1_0_0/libraries/FunctionsRequest.sol\":2353:2400  buffer.writeUInt256(uint256(self.codeLocation)) */\n      tag_130\n        /* \"@chainlink/contracts@1.1.1/src/v0.8/functions/v1_0_0/libraries/FunctionsRequest.sol\":2381:2385  self */\n      dup4\n        /* \"@chainlink/contracts@1.1.1/src/v0.8/functions/v1_0_0/libraries/FunctionsRequest.sol\":2381:2398  self.codeLocation */\n      0x00\n      add\n      mload\n        /* \"@chainlink/contracts@1.1.1/src/v0.8/functions/v1_0_0/libraries/FunctionsRequest.sol\":2373:2399  uint256(self.codeLocation) */\n      0x02\n      dup2\n      gt\n      iszero\n      tag_131\n      jumpi\n      tag_132\n      tag_133\n      jump\t// in\n    tag_132:\n    tag_131:\n        /* \"@chainlink/contracts@1.1.1/src/v0.8/functions/v1_0_0/libraries/FunctionsRequest.sol\":2353:2359  buffer */\n      dup3\n        /* \"@chainlink/contracts@1.1.1/src/v0.8/functions/v1_0_0/libraries/FunctionsRequest.sol\":2353:2372  buffer.writeUInt256 */\n      tag_134\n      swap1\n        /* \"@chainlink/contracts@1.1.1/src/v0.8/functions/v1_0_0/libraries/FunctionsRequest.sol\":2353:2400  buffer.writeUInt256(uint256(self.codeLocation)) */\n      swap2\n      swap1\n      0xffffffff\n      and\n      jump\t// in\n    tag_130:\n        /* \"@chainlink/contracts@1.1.1/src/v0.8/functions/v1_0_0/libraries/FunctionsRequest.sol\":2407:2437  buffer.writeString(\"language\") */\n      tag_135\n      mload(0x40)\n      dup1\n      0x40\n      add\n      0x40\n      mstore\n      dup1\n      0x08\n      dup2\n      mstore\n      0x20\n      add\n      0x6c616e6775616765000000000000000000000000000000000000000000000000\n      dup2\n      mstore\n      pop\n        /* \"@chainlink/contracts@1.1.1/src/v0.8/functions/v1_0_0/libraries/FunctionsRequest.sol\":2407:2413  buffer */\n      dup3\n        /* \"@chainlink/contracts@1.1.1/src/v0.8/functions/v1_0_0/libraries/FunctionsRequest.sol\":2407:2425  buffer.writeString */\n      tag_129\n      swap1\n        /* \"@chainlink/contracts@1.1.1/src/v0.8/functions/v1_0_0/libraries/FunctionsRequest.sol\":2407:2437  buffer.writeString(\"language\") */\n      swap2\n      swap1\n      0xffffffff\n      and\n      jump\t// in\n    tag_135:\n        /* \"@chainlink/contracts@1.1.1/src/v0.8/functions/v1_0_0/libraries/FunctionsRequest.sol\":2443:2486  buffer.writeUInt256(uint256(self.language)) */\n      tag_136\n        /* \"@chainlink/contracts@1.1.1/src/v0.8/functions/v1_0_0/libraries/FunctionsRequest.sol\":2471:2475  self */\n      dup4\n        /* \"@chainlink/contracts@1.1.1/src/v0.8/functions/v1_0_0/libraries/FunctionsRequest.sol\":2471:2484  self.language */\n      0x40\n      add\n      mload\n        /* \"@chainlink/contracts@1.1.1/src/v0.8/functions/v1_0_0/libraries/FunctionsRequest.sol\":2463:2485  uint256(self.language) */\n      0x00\n      dup2\n      gt\n      iszero\n      tag_137\n      jumpi\n      tag_138\n      tag_133\n      jump\t// in\n    tag_138:\n    tag_137:\n        /* \"@chainlink/contracts@1.1.1/src/v0.8/functions/v1_0_0/libraries/FunctionsRequest.sol\":2443:2449  buffer */\n      dup3\n        /* \"@chainlink/contracts@1.1.1/src/v0.8/functions/v1_0_0/libraries/FunctionsRequest.sol\":2443:2462  buffer.writeUInt256 */\n      tag_134\n      swap1\n        /* \"@chainlink/contracts@1.1.1/src/v0.8/functions/v1_0_0/libraries/FunctionsRequest.sol\":2443:2486  buffer.writeUInt256(uint256(self.language)) */\n      swap2\n      swap1\n      0xffffffff\n      and\n      jump\t// in\n    tag_136:\n        /* \"@chainlink/contracts@1.1.1/src/v0.8/functions/v1_0_0/libraries/FunctionsRequest.sol\":2493:2521  buffer.writeString(\"source\") */\n      tag_139\n      mload(0x40)\n      dup1\n      0x40\n      add\n      0x40\n      mstore\n      dup1\n      0x06\n      dup2\n      mstore\n      0x20\n      add\n      0x736f757263650000000000000000000000000000000000000000000000000000\n      dup2\n      mstore\n      pop\n        /* \"@chainlink/contracts@1.1.1/src/v0.8/functions/v1_0_0/libraries/FunctionsRequest.sol\":2493:2499  buffer */\n      dup3\n        /* \"@chainlink/contracts@1.1.1/src/v0.8/functions/v1_0_0/libraries/FunctionsRequest.sol\":2493:2511  buffer.writeString */\n      tag_129\n      swap1\n        /* \"@chainlink/contracts@1.1.1/src/v0.8/functions/v1_0_0/libraries/FunctionsRequest.sol\":2493:2521  buffer.writeString(\"source\") */\n      swap2\n      swap1\n      0xffffffff\n      and\n      jump\t// in\n    tag_139:\n        /* \"@chainlink/contracts@1.1.1/src/v0.8/functions/v1_0_0/libraries/FunctionsRequest.sol\":2527:2558  buffer.writeString(self.source) */\n      tag_140\n        /* \"@chainlink/contracts@1.1.1/src/v0.8/functions/v1_0_0/libraries/FunctionsRequest.sol\":2546:2550  self */\n      dup4\n        /* \"@chainlink/contracts@1.1.1/src/v0.8/functions/v1_0_0/libraries/FunctionsRequest.sol\":2546:2557  self.source */\n      0x60\n      add\n      mload\n        /* \"@chainlink/contracts@1.1.1/src/v0.8/functions/v1_0_0/libraries/FunctionsRequest.sol\":2527:2533  buffer */\n      dup3\n        /* \"@chainlink/contracts@1.1.1/src/v0.8/functions/v1_0_0/libraries/FunctionsRequest.sol\":2527:2545  buffer.writeString */\n      tag_129\n      swap1\n        /* \"@chainlink/contracts@1.1.1/src/v0.8/functions/v1_0_0/libraries/FunctionsRequest.sol\":2527:2558  buffer.writeString(self.source) */\n      swap2\n      swap1\n      0xffffffff\n      and\n      jump\t// in\n    tag_140:\n        /* \"@chainlink/contracts@1.1.1/src/v0.8/functions/v1_0_0/libraries/FunctionsRequest.sol\":2588:2589  0 */\n      0x00\n        /* \"@chainlink/contracts@1.1.1/src/v0.8/functions/v1_0_0/libraries/FunctionsRequest.sol\":2569:2573  self */\n      dup4\n        /* \"@chainlink/contracts@1.1.1/src/v0.8/functions/v1_0_0/libraries/FunctionsRequest.sol\":2569:2578  self.args */\n      0xa0\n      add\n      mload\n        /* \"@chainlink/contracts@1.1.1/src/v0.8/functions/v1_0_0/libraries/FunctionsRequest.sol\":2569:2585  self.args.length */\n      mload\n        /* \"@chainlink/contracts@1.1.1/src/v0.8/functions/v1_0_0/libraries/FunctionsRequest.sol\":2569:2589  self.args.length > 0 */\n      gt\n        /* \"@chainlink/contracts@1.1.1/src/v0.8/functions/v1_0_0/libraries/FunctionsRequest.sol\":2565:2792  if (self.args.length > 0) {... */\n      iszero\n      tag_141\n      jumpi\n        /* \"@chainlink/contracts@1.1.1/src/v0.8/functions/v1_0_0/libraries/FunctionsRequest.sol\":2599:2625  buffer.writeString(\"args\") */\n      tag_142\n      mload(0x40)\n      dup1\n      0x40\n      add\n      0x40\n      mstore\n      dup1\n      0x04\n      dup2\n      mstore\n      0x20\n      add\n      0x6172677300000000000000000000000000000000000000000000000000000000\n      dup2\n      mstore\n      pop\n        /* \"@chainlink/contracts@1.1.1/src/v0.8/functions/v1_0_0/libraries/FunctionsRequest.sol\":2599:2605  buffer */\n      dup3\n        /* \"@chainlink/contracts@1.1.1/src/v0.8/functions/v1_0_0/libraries/FunctionsRequest.sol\":2599:2617  buffer.writeString */\n      tag_129\n      swap1\n        /* \"@chainlink/contracts@1.1.1/src/v0.8/functions/v1_0_0/libraries/FunctionsRequest.sol\":2599:2625  buffer.writeString(\"args\") */\n      swap2\n      swap1\n      0xffffffff\n      and\n      jump\t// in\n    tag_142:\n        /* \"@chainlink/contracts@1.1.1/src/v0.8/functions/v1_0_0/libraries/FunctionsRequest.sol\":2633:2652  buffer.startArray() */\n      tag_143\n        /* \"@chainlink/contracts@1.1.1/src/v0.8/functions/v1_0_0/libraries/FunctionsRequest.sol\":2633:2639  buffer */\n      dup2\n        /* \"@chainlink/contracts@1.1.1/src/v0.8/functions/v1_0_0/libraries/FunctionsRequest.sol\":2633:2650  buffer.startArray */\n      tag_144\n        /* \"@chainlink/contracts@1.1.1/src/v0.8/functions/v1_0_0/libraries/FunctionsRequest.sol\":2633:2652  buffer.startArray() */\n      jump\t// in\n    tag_143:\n        /* \"@chainlink/contracts@1.1.1/src/v0.8/functions/v1_0_0/libraries/FunctionsRequest.sol\":2665:2674  uint256 i */\n      0x00\n        /* \"@chainlink/contracts@1.1.1/src/v0.8/functions/v1_0_0/libraries/FunctionsRequest.sol\":2660:2758  for (uint256 i = 0; i < self.args.length; ++i) {... */\n    tag_145:\n        /* \"@chainlink/contracts@1.1.1/src/v0.8/functions/v1_0_0/libraries/FunctionsRequest.sol\":2684:2688  self */\n      dup4\n        /* \"@chainlink/contracts@1.1.1/src/v0.8/functions/v1_0_0/libraries/FunctionsRequest.sol\":2684:2693  self.args */\n      0xa0\n      add\n      mload\n        /* \"@chainlink/contracts@1.1.1/src/v0.8/functions/v1_0_0/libraries/FunctionsRequest.sol\":2684:2700  self.args.length */\n      mload\n        /* \"@chainlink/contracts@1.1.1/src/v0.8/functions/v1_0_0/libraries/FunctionsRequest.sol\":2680:2681  i */\n      dup2\n        /* \"@chainlink/contracts@1.1.1/src/v0.8/functions/v1_0_0/libraries/FunctionsRequest.sol\":2680:2700  i < self.args.length */\n      lt\n        /* \"@chainlink/contracts@1.1.1/src/v0.8/functions/v1_0_0/libraries/FunctionsRequest.sol\":2660:2758  for (uint256 i = 0; i < self.args.length; ++i) {... */\n      iszero\n      tag_146\n      jumpi\n        /* \"@chainlink/contracts@1.1.1/src/v0.8/functions/v1_0_0/libraries/FunctionsRequest.sol\":2717:2749  buffer.writeString(self.args[i]) */\n      tag_148\n        /* \"@chainlink/contracts@1.1.1/src/v0.8/functions/v1_0_0/libraries/FunctionsRequest.sol\":2736:2740  self */\n      dup5\n        /* \"@chainlink/contracts@1.1.1/src/v0.8/functions/v1_0_0/libraries/FunctionsRequest.sol\":2736:2745  self.args */\n      0xa0\n      add\n      mload\n        /* \"@chainlink/contracts@1.1.1/src/v0.8/functions/v1_0_0/libraries/FunctionsRequest.sol\":2746:2747  i */\n      dup3\n        /* \"@chainlink/contracts@1.1.1/src/v0.8/functions/v1_0_0/libraries/FunctionsRequest.sol\":2736:2748  self.args[i] */\n      dup2\n      mload\n      dup2\n      lt\n      tag_149\n      jumpi\n      tag_150\n      tag_151\n      jump\t// in\n    tag_150:\n    tag_149:\n      0x20\n      mul\n      0x20\n      add\n      add\n      mload\n        /* \"@chainlink/contracts@1.1.1/src/v0.8/functions/v1_0_0/libraries/FunctionsRequest.sol\":2717:2723  buffer */\n      dup4\n        /* \"@chainlink/contracts@1.1.1/src/v0.8/functions/v1_0_0/libraries/FunctionsRequest.sol\":2717:2735  buffer.writeString */\n      tag_129\n      swap1\n        /* \"@chainlink/contracts@1.1.1/src/v0.8/functions/v1_0_0/libraries/FunctionsRequest.sol\":2717:2749  buffer.writeString(self.args[i]) */\n      swap2\n      swap1\n      0xffffffff\n      and\n      jump\t// in\n    tag_148:\n        /* \"@chainlink/contracts@1.1.1/src/v0.8/functions/v1_0_0/libraries/FunctionsRequest.sol\":2702:2705  ++i */\n      dup1\n      tag_152\n      swap1\n      tag_153\n      jump\t// in\n    tag_152:\n      swap1\n      pop\n        /* \"@chainlink/contracts@1.1.1/src/v0.8/functions/v1_0_0/libraries/FunctionsRequest.sol\":2660:2758  for (uint256 i = 0; i < self.args.length; ++i) {... */\n      jump(tag_145)\n    tag_146:\n      pop\n        /* \"@chainlink/contracts@1.1.1/src/v0.8/functions/v1_0_0/libraries/FunctionsRequest.sol\":2765:2785  buffer.endSequence() */\n      tag_154\n        /* \"@chainlink/contracts@1.1.1/src/v0.8/functions/v1_0_0/libraries/FunctionsRequest.sol\":2765:2771  buffer */\n      dup2\n        /* \"@chainlink/contracts@1.1.1/src/v0.8/functions/v1_0_0/libraries/FunctionsRequest.sol\":2765:2783  buffer.endSequence */\n      tag_155\n        /* \"@chainlink/contracts@1.1.1/src/v0.8/functions/v1_0_0/libraries/FunctionsRequest.sol\":2765:2785  buffer.endSequence() */\n      jump\t// in\n    tag_154:\n        /* \"@chainlink/contracts@1.1.1/src/v0.8/functions/v1_0_0/libraries/FunctionsRequest.sol\":2565:2792  if (self.args.length > 0) {... */\n    tag_141:\n        /* \"@chainlink/contracts@1.1.1/src/v0.8/functions/v1_0_0/libraries/FunctionsRequest.sol\":2842:2843  0 */\n      0x00\n        /* \"@chainlink/contracts@1.1.1/src/v0.8/functions/v1_0_0/libraries/FunctionsRequest.sol\":2802:2806  self */\n      dup4\n        /* \"@chainlink/contracts@1.1.1/src/v0.8/functions/v1_0_0/libraries/FunctionsRequest.sol\":2802:2832  self.encryptedSecretsReference */\n      0x80\n      add\n      mload\n        /* \"@chainlink/contracts@1.1.1/src/v0.8/functions/v1_0_0/libraries/FunctionsRequest.sol\":2802:2839  self.encryptedSecretsReference.length */\n      mload\n        /* \"@chainlink/contracts@1.1.1/src/v0.8/functions/v1_0_0/libraries/FunctionsRequest.sol\":2802:2843  self.encryptedSecretsReference.length > 0 */\n      gt\n        /* \"@chainlink/contracts@1.1.1/src/v0.8/functions/v1_0_0/libraries/FunctionsRequest.sol\":2798:3144  if (self.encryptedSecretsReference.length > 0) {... */\n      iszero\n      tag_156\n      jumpi\n        /* \"@chainlink/contracts@1.1.1/src/v0.8/functions/v1_0_0/libraries/FunctionsRequest.sol\":2881:2896  Location.Inline */\n      0x00\n        /* \"@chainlink/contracts@1.1.1/src/v0.8/functions/v1_0_0/libraries/FunctionsRequest.sol\":2857:2896  self.secretsLocation == Location.Inline */\n      0x02\n      dup2\n      gt\n      iszero\n      tag_157\n      jumpi\n      tag_158\n      tag_133\n      jump\t// in\n    tag_158:\n    tag_157:\n        /* \"@chainlink/contracts@1.1.1/src/v0.8/functions/v1_0_0/libraries/FunctionsRequest.sol\":2857:2861  self */\n      dup4\n        /* \"@chainlink/contracts@1.1.1/src/v0.8/functions/v1_0_0/libraries/FunctionsRequest.sol\":2857:2877  self.secretsLocation */\n      0x20\n      add\n      mload\n        /* \"@chainlink/contracts@1.1.1/src/v0.8/functions/v1_0_0/libraries/FunctionsRequest.sol\":2857:2896  self.secretsLocation == Location.Inline */\n      0x02\n      dup2\n      gt\n      iszero\n      tag_159\n      jumpi\n      tag_160\n      tag_133\n      jump\t// in\n    tag_160:\n    tag_159:\n      sub\n        /* \"@chainlink/contracts@1.1.1/src/v0.8/functions/v1_0_0/libraries/FunctionsRequest.sol\":2853:2941  if (self.secretsLocation == Location.Inline) {... */\n      tag_161\n      jumpi\n        /* \"@chainlink/contracts@1.1.1/src/v0.8/functions/v1_0_0/libraries/FunctionsRequest.sol\":2915:2932  NoInlineSecrets() */\n      mload(0x40)\n      0xa80d31f700000000000000000000000000000000000000000000000000000000\n      dup2\n      mstore\n      0x04\n      add\n      mload(0x40)\n      dup1\n      swap2\n      sub\n      swap1\n      revert\n        /* \"@chainlink/contracts@1.1.1/src/v0.8/functions/v1_0_0/libraries/FunctionsRequest.sol\":2853:2941  if (self.secretsLocation == Location.Inline) {... */\n    tag_161:\n        /* \"@chainlink/contracts@1.1.1/src/v0.8/functions/v1_0_0/libraries/FunctionsRequest.sol\":2948:2985  buffer.writeString(\"secretsLocation\") */\n      tag_162\n      mload(0x40)\n      dup1\n      0x40\n      add\n      0x40\n      mstore\n      dup1\n      0x0f\n      dup2\n      mstore\n      0x20\n      add\n      0x736563726574734c6f636174696f6e0000000000000000000000000000000000\n      dup2\n      mstore\n      pop\n        /* \"@chainlink/contracts@1.1.1/src/v0.8/functions/v1_0_0/libraries/FunctionsRequest.sol\":2948:2954  buffer */\n      dup3\n        /* \"@chainlink/contracts@1.1.1/src/v0.8/functions/v1_0_0/libraries/FunctionsRequest.sol\":2948:2966  buffer.writeString */\n      tag_129\n      swap1\n        /* \"@chainlink/contracts@1.1.1/src/v0.8/functions/v1_0_0/libraries/FunctionsRequest.sol\":2948:2985  buffer.writeString(\"secretsLocation\") */\n      swap2\n      swap1\n      0xffffffff\n      and\n      jump\t// in\n    tag_162:\n        /* \"@chainlink/contracts@1.1.1/src/v0.8/functions/v1_0_0/libraries/FunctionsRequest.sol\":2993:3043  buffer.writeUInt256(uint256(self.secretsLocation)) */\n      tag_163\n        /* \"@chainlink/contracts@1.1.1/src/v0.8/functions/v1_0_0/libraries/FunctionsRequest.sol\":3021:3025  self */\n      dup4\n        /* \"@chainlink/contracts@1.1.1/src/v0.8/functions/v1_0_0/libraries/FunctionsRequest.sol\":3021:3041  self.secretsLocation */\n      0x20\n      add\n      mload\n        /* \"@chainlink/contracts@1.1.1/src/v0.8/functions/v1_0_0/libraries/FunctionsRequest.sol\":3013:3042  uint256(self.secretsLocation) */\n      0x02\n      dup2\n      gt\n      iszero\n      tag_164\n      jumpi\n      tag_165\n      tag_133\n      jump\t// in\n    tag_165:\n    tag_164:\n        /* \"@chainlink/contracts@1.1.1/src/v0.8/functions/v1_0_0/libraries/FunctionsRequest.sol\":2993:2999  buffer */\n      dup3\n        /* \"@chainlink/contracts@1.1.1/src/v0.8/functions/v1_0_0/libraries/FunctionsRequest.sol\":2993:3012  buffer.writeUInt256 */\n      tag_134\n      swap1\n        /* \"@chainlink/contracts@1.1.1/src/v0.8/functions/v1_0_0/libraries/FunctionsRequest.sol\":2993:3043  buffer.writeUInt256(uint256(self.secretsLocation)) */\n      swap2\n      swap1\n      0xffffffff\n      and\n      jump\t// in\n    tag_163:\n        /* \"@chainlink/contracts@1.1.1/src/v0.8/functions/v1_0_0/libraries/FunctionsRequest.sol\":3051:3080  buffer.writeString(\"secrets\") */\n      tag_166\n      mload(0x40)\n      dup1\n      0x40\n      add\n      0x40\n      mstore\n      dup1\n      0x07\n      dup2\n      mstore\n      0x20\n      add\n      0x7365637265747300000000000000000000000000000000000000000000000000\n      dup2\n      mstore\n      pop\n        /* \"@chainlink/contracts@1.1.1/src/v0.8/functions/v1_0_0/libraries/FunctionsRequest.sol\":3051:3057  buffer */\n      dup3\n        /* \"@chainlink/contracts@1.1.1/src/v0.8/functions/v1_0_0/libraries/FunctionsRequest.sol\":3051:3069  buffer.writeString */\n      tag_129\n      swap1\n        /* \"@chainlink/contracts@1.1.1/src/v0.8/functions/v1_0_0/libraries/FunctionsRequest.sol\":3051:3080  buffer.writeString(\"secrets\") */\n      swap2\n      swap1\n      0xffffffff\n      and\n      jump\t// in\n    tag_166:\n        /* \"@chainlink/contracts@1.1.1/src/v0.8/functions/v1_0_0/libraries/FunctionsRequest.sol\":3088:3137  buffer.writeBytes(self.encryptedSecretsReference) */\n      tag_167\n        /* \"@chainlink/contracts@1.1.1/src/v0.8/functions/v1_0_0/libraries/FunctionsRequest.sol\":3106:3110  self */\n      dup4\n        /* \"@chainlink/contracts@1.1.1/src/v0.8/functions/v1_0_0/libraries/FunctionsRequest.sol\":3106:3136  self.encryptedSecretsReference */\n      0x80\n      add\n      mload\n        /* \"@chainlink/contracts@1.1.1/src/v0.8/functions/v1_0_0/libraries/FunctionsRequest.sol\":3088:3094  buffer */\n      dup3\n        /* \"@chainlink/contracts@1.1.1/src/v0.8/functions/v1_0_0/libraries/FunctionsRequest.sol\":3088:3105  buffer.writeBytes */\n      tag_168\n      swap1\n        /* \"@chainlink/contracts@1.1.1/src/v0.8/functions/v1_0_0/libraries/FunctionsRequest.sol\":3088:3137  buffer.writeBytes(self.encryptedSecretsReference) */\n      swap2\n      swap1\n      0xffffffff\n      and\n      jump\t// in\n    tag_167:\n        /* \"@chainlink/contracts@1.1.1/src/v0.8/functions/v1_0_0/libraries/FunctionsRequest.sol\":2798:3144  if (self.encryptedSecretsReference.length > 0) {... */\n    tag_156:\n        /* \"@chainlink/contracts@1.1.1/src/v0.8/functions/v1_0_0/libraries/FunctionsRequest.sol\":3178:3179  0 */\n      0x00\n        /* \"@chainlink/contracts@1.1.1/src/v0.8/functions/v1_0_0/libraries/FunctionsRequest.sol\":3154:3158  self */\n      dup4\n        /* \"@chainlink/contracts@1.1.1/src/v0.8/functions/v1_0_0/libraries/FunctionsRequest.sol\":3154:3168  self.bytesArgs */\n      0xc0\n      add\n      mload\n        /* \"@chainlink/contracts@1.1.1/src/v0.8/functions/v1_0_0/libraries/FunctionsRequest.sol\":3154:3175  self.bytesArgs.length */\n      mload\n        /* \"@chainlink/contracts@1.1.1/src/v0.8/functions/v1_0_0/libraries/FunctionsRequest.sol\":3154:3179  self.bytesArgs.length > 0 */\n      gt\n        /* \"@chainlink/contracts@1.1.1/src/v0.8/functions/v1_0_0/libraries/FunctionsRequest.sol\":3150:3396  if (self.bytesArgs.length > 0) {... */\n      iszero\n      tag_169\n      jumpi\n        /* \"@chainlink/contracts@1.1.1/src/v0.8/functions/v1_0_0/libraries/FunctionsRequest.sol\":3189:3220  buffer.writeString(\"bytesArgs\") */\n      tag_170\n      mload(0x40)\n      dup1\n      0x40\n      add\n      0x40\n      mstore\n      dup1\n      0x09\n      dup2\n      mstore\n      0x20\n      add\n      0x6279746573417267730000000000000000000000000000000000000000000000\n      dup2\n      mstore\n      pop\n        /* \"@chainlink/contracts@1.1.1/src/v0.8/functions/v1_0_0/libraries/FunctionsRequest.sol\":3189:3195  buffer */\n      dup3\n        /* \"@chainlink/contracts@1.1.1/src/v0.8/functions/v1_0_0/libraries/FunctionsRequest.sol\":3189:3207  buffer.writeString */\n      tag_129\n      swap1\n        /* \"@chainlink/contracts@1.1.1/src/v0.8/functions/v1_0_0/libraries/FunctionsRequest.sol\":3189:3220  buffer.writeString(\"bytesArgs\") */\n      swap2\n      swap1\n      0xffffffff\n      and\n      jump\t// in\n    tag_170:\n        /* \"@chainlink/contracts@1.1.1/src/v0.8/functions/v1_0_0/libraries/FunctionsRequest.sol\":3228:3247  buffer.startArray() */\n      tag_171\n        /* \"@chainlink/contracts@1.1.1/src/v0.8/functions/v1_0_0/libraries/FunctionsRequest.sol\":3228:3234  buffer */\n      dup2\n        /* \"@chainlink/contracts@1.1.1/src/v0.8/functions/v1_0_0/libraries/FunctionsRequest.sol\":3228:3245  buffer.startArray */\n      tag_144\n        /* \"@chainlink/contracts@1.1.1/src/v0.8/functions/v1_0_0/libraries/FunctionsRequest.sol\":3228:3247  buffer.startArray() */\n      jump\t// in\n    tag_171:\n        /* \"@chainlink/contracts@1.1.1/src/v0.8/functions/v1_0_0/libraries/FunctionsRequest.sol\":3260:3269  uint256 i */\n      0x00\n        /* \"@chainlink/contracts@1.1.1/src/v0.8/functions/v1_0_0/libraries/FunctionsRequest.sol\":3255:3362  for (uint256 i = 0; i < self.bytesArgs.length; ++i) {... */\n    tag_172:\n        /* \"@chainlink/contracts@1.1.1/src/v0.8/functions/v1_0_0/libraries/FunctionsRequest.sol\":3279:3283  self */\n      dup4\n        /* \"@chainlink/contracts@1.1.1/src/v0.8/functions/v1_0_0/libraries/FunctionsRequest.sol\":3279:3293  self.bytesArgs */\n      0xc0\n      add\n      mload\n        /* \"@chainlink/contracts@1.1.1/src/v0.8/functions/v1_0_0/libraries/FunctionsRequest.sol\":3279:3300  self.bytesArgs.length */\n      mload\n        /* \"@chainlink/contracts@1.1.1/src/v0.8/functions/v1_0_0/libraries/FunctionsRequest.sol\":3275:3276  i */\n      dup2\n        /* \"@chainlink/contracts@1.1.1/src/v0.8/functions/v1_0_0/libraries/FunctionsRequest.sol\":3275:3300  i < self.bytesArgs.length */\n      lt\n        /* \"@chainlink/contracts@1.1.1/src/v0.8/functions/v1_0_0/libraries/FunctionsRequest.sol\":3255:3362  for (uint256 i = 0; i < self.bytesArgs.length; ++i) {... */\n      iszero\n      tag_173\n      jumpi\n        /* \"@chainlink/contracts@1.1.1/src/v0.8/functions/v1_0_0/libraries/FunctionsRequest.sol\":3317:3353  buffer.writeBytes(self.bytesArgs[i]) */\n      tag_175\n        /* \"@chainlink/contracts@1.1.1/src/v0.8/functions/v1_0_0/libraries/FunctionsRequest.sol\":3335:3339  self */\n      dup5\n        /* \"@chainlink/contracts@1.1.1/src/v0.8/functions/v1_0_0/libraries/FunctionsRequest.sol\":3335:3349  self.bytesArgs */\n      0xc0\n      add\n      mload\n        /* \"@chainlink/contracts@1.1.1/src/v0.8/functions/v1_0_0/libraries/FunctionsRequest.sol\":3350:3351  i */\n      dup3\n        /* \"@chainlink/contracts@1.1.1/src/v0.8/functions/v1_0_0/libraries/FunctionsRequest.sol\":3335:3352  self.bytesArgs[i] */\n      dup2\n      mload\n      dup2\n      lt\n      tag_176\n      jumpi\n      tag_177\n      tag_151\n      jump\t// in\n    tag_177:\n    tag_176:\n      0x20\n      mul\n      0x20\n      add\n      add\n      mload\n        /* \"@chainlink/contracts@1.1.1/src/v0.8/functions/v1_0_0/libraries/FunctionsRequest.sol\":3317:3323  buffer */\n      dup4\n        /* \"@chainlink/contracts@1.1.1/src/v0.8/functions/v1_0_0/libraries/FunctionsRequest.sol\":3317:3334  buffer.writeBytes */\n      tag_168\n      swap1\n        /* \"@chainlink/contracts@1.1.1/src/v0.8/functions/v1_0_0/libraries/FunctionsRequest.sol\":3317:3353  buffer.writeBytes(self.bytesArgs[i]) */\n      swap2\n      swap1\n      0xffffffff\n      and\n      jump\t// in\n    tag_175:\n        /* \"@chainlink/contracts@1.1.1/src/v0.8/functions/v1_0_0/libraries/FunctionsRequest.sol\":3302:3305  ++i */\n      dup1\n      tag_178\n      swap1\n      tag_153\n      jump\t// in\n    tag_178:\n      swap1\n      pop\n        /* \"@chainlink/contracts@1.1.1/src/v0.8/functions/v1_0_0/libraries/FunctionsRequest.sol\":3255:3362  for (uint256 i = 0; i < self.bytesArgs.length; ++i) {... */\n      jump(tag_172)\n    tag_173:\n      pop\n        /* \"@chainlink/contracts@1.1.1/src/v0.8/functions/v1_0_0/libraries/FunctionsRequest.sol\":3369:3389  buffer.endSequence() */\n      tag_179\n        /* \"@chainlink/contracts@1.1.1/src/v0.8/functions/v1_0_0/libraries/FunctionsRequest.sol\":3369:3375  buffer */\n      dup2\n        /* \"@chainlink/contracts@1.1.1/src/v0.8/functions/v1_0_0/libraries/FunctionsRequest.sol\":3369:3387  buffer.endSequence */\n      tag_155\n        /* \"@chainlink/contracts@1.1.1/src/v0.8/functions/v1_0_0/libraries/FunctionsRequest.sol\":3369:3389  buffer.endSequence() */\n      jump\t// in\n    tag_179:\n        /* \"@chainlink/contracts@1.1.1/src/v0.8/functions/v1_0_0/libraries/FunctionsRequest.sol\":3150:3396  if (self.bytesArgs.length > 0) {... */\n    tag_169:\n        /* \"@chainlink/contracts@1.1.1/src/v0.8/functions/v1_0_0/libraries/FunctionsRequest.sol\":3409:3415  buffer */\n      dup1\n        /* \"@chainlink/contracts@1.1.1/src/v0.8/functions/v1_0_0/libraries/FunctionsRequest.sol\":3409:3419  buffer.buf */\n      0x00\n      add\n      mload\n        /* \"@chainlink/contracts@1.1.1/src/v0.8/functions/v1_0_0/libraries/FunctionsRequest.sol\":3409:3423  buffer.buf.buf */\n      0x00\n      add\n      mload\n        /* \"@chainlink/contracts@1.1.1/src/v0.8/functions/v1_0_0/libraries/FunctionsRequest.sol\":3402:3423  return buffer.buf.buf */\n      swap2\n      pop\n      pop\n        /* \"@chainlink/contracts@1.1.1/src/v0.8/functions/v1_0_0/libraries/FunctionsRequest.sol\":2158:3428  function encodeCBOR(Request memory self) internal pure returns (bytes memory) {... */\n      swap2\n      swap1\n      pop\n      jump\t// out\n        /* \"@chainlink/contracts@1.1.1/src/v0.8/functions/v1_0_0/FunctionsClient.sol\":1158:1537  function _sendRequest(... */\n    tag_81:\n        /* \"@chainlink/contracts@1.1.1/src/v0.8/functions/v1_0_0/FunctionsClient.sol\":1300:1307  bytes32 */\n      0x00\n        /* \"@chainlink/contracts@1.1.1/src/v0.8/functions/v1_0_0/FunctionsClient.sol\":1315:1332  bytes32 requestId */\n      dup1\n        /* \"@chainlink/contracts@1.1.1/src/v0.8/functions/v1_0_0/FunctionsClient.sol\":1335:1343  i_router */\n      immutable(\"0x8e8fab5f003314da8d1873ea7720e8d9f47650136d916064d1edb8a11d682624\")\n        /* \"@chainlink/contracts@1.1.1/src/v0.8/functions/v1_0_0/FunctionsClient.sol\":1335:1355  i_router.sendRequest */\n      0xffffffffffffffffffffffffffffffffffffffff\n      and\n      0x461d2762\n        /* \"@chainlink/contracts@1.1.1/src/v0.8/functions/v1_0_0/FunctionsClient.sol\":1363:1377  subscriptionId */\n      dup7\n        /* \"@chainlink/contracts@1.1.1/src/v0.8/functions/v1_0_0/FunctionsClient.sol\":1385:1389  data */\n      dup9\n        /* \"@chainlink/contracts@1.1.1/src/v0.8/functions/v1_0_0/libraries/FunctionsRequest.sol\":322:323  1 */\n      0x01\n        /* \"@chainlink/contracts@1.1.1/src/v0.8/functions/v1_0_0/FunctionsClient.sol\":1442:1458  callbackGasLimit */\n      dup9\n        /* \"@chainlink/contracts@1.1.1/src/v0.8/functions/v1_0_0/FunctionsClient.sol\":1466:1471  donId */\n      dup9\n        /* \"@chainlink/contracts@1.1.1/src/v0.8/functions/v1_0_0/FunctionsClient.sol\":1335:1477  i_router.sendRequest(... */\n      mload(0x40)\n      dup7\n      0xffffffff\n      and\n      0xe0\n      shl\n      dup2\n      mstore\n      0x04\n      add\n      tag_181\n      swap6\n      swap5\n      swap4\n      swap3\n      swap2\n      swap1\n      tag_182\n      jump\t// in\n    tag_181:\n      0x20\n      mload(0x40)\n      dup1\n      dup4\n      sub\n      dup2\n      0x00\n      dup8\n      gas\n      call\n      iszero\n      dup1\n      iszero\n      tag_184\n      jumpi\n      returndatasize\n      0x00\n      dup1\n      returndatacopy\n      revert(0x00, returndatasize)\n    tag_184:\n      pop\n      pop\n      pop\n      pop\n      mload(0x40)\n      returndatasize\n      not(0x1f)\n      0x1f\n      dup3\n      add\n      and\n      dup3\n      add\n      dup1\n      0x40\n      mstore\n      pop\n      dup2\n      add\n      swap1\n      tag_185\n      swap2\n      swap1\n      tag_186\n      jump\t// in\n    tag_185:\n        /* \"@chainlink/contracts@1.1.1/src/v0.8/functions/v1_0_0/FunctionsClient.sol\":1315:1477  bytes32 requestId = i_router.sendRequest(... */\n      swap1\n      pop\n        /* \"@chainlink/contracts@1.1.1/src/v0.8/functions/v1_0_0/FunctionsClient.sol\":1500:1509  requestId */\n      dup1\n        /* \"@chainlink/contracts@1.1.1/src/v0.8/functions/v1_0_0/FunctionsClient.sol\":1488:1510  RequestSent(requestId) */\n      0x1131472297a800fee664d1d89cfa8f7676ff07189ecc53f80bbb5f4969099db8\n      mload(0x40)\n      mload(0x40)\n      dup1\n      swap2\n      sub\n      swap1\n      log2\n        /* \"@chainlink/contracts@1.1.1/src/v0.8/functions/v1_0_0/FunctionsClient.sol\":1523:1532  requestId */\n      dup1\n        /* \"@chainlink/contracts@1.1.1/src/v0.8/functions/v1_0_0/FunctionsClient.sol\":1516:1532  return requestId */\n      swap2\n      pop\n      pop\n        /* \"@chainlink/contracts@1.1.1/src/v0.8/functions/v1_0_0/FunctionsClient.sol\":1158:1537  function _sendRequest(... */\n      swap5\n      swap4\n      pop\n      pop\n      pop\n      pop\n      jump\t// out\n        /* \"@chainlink/contracts@1.1.1/src/v0.8/shared/access/ConfirmedOwnerWithProposal.sol\":1536:1775  function _transferOwnership(address to) private {... */\n    tag_106:\n        /* \"@chainlink/contracts@1.1.1/src/v0.8/shared/access/ConfirmedOwnerWithProposal.sol\":1655:1665  msg.sender */\n      caller\n        /* \"@chainlink/contracts@1.1.1/src/v0.8/shared/access/ConfirmedOwnerWithProposal.sol\":1649:1665  to != msg.sender */\n      0xffffffffffffffffffffffffffffffffffffffff\n      and\n        /* \"@chainlink/contracts@1.1.1/src/v0.8/shared/access/ConfirmedOwnerWithProposal.sol\":1649:1651  to */\n      dup2\n        /* \"@chainlink/contracts@1.1.1/src/v0.8/shared/access/ConfirmedOwnerWithProposal.sol\":1649:1665  to != msg.sender */\n      0xffffffffffffffffffffffffffffffffffffffff\n      and\n      sub\n        /* \"@chainlink/contracts@1.1.1/src/v0.8/shared/access/ConfirmedOwnerWithProposal.sol\":1641:1693  require(to != msg.sender, \"Cannot transfer to self\") */\n      tag_188\n      jumpi\n      mload(0x40)\n      0x08c379a000000000000000000000000000000000000000000000000000000000\n      dup2\n      mstore\n      0x04\n      add\n      tag_189\n      swap1\n      tag_190\n      jump\t// in\n    tag_189:\n      mload(0x40)\n      dup1\n      swap2\n      sub\n      swap1\n      revert\n    tag_188:\n        /* \"@chainlink/contracts@1.1.1/src/v0.8/shared/access/ConfirmedOwnerWithProposal.sol\":1717:1719  to */\n      dup1\n        /* \"@chainlink/contracts@1.1.1/src/v0.8/shared/access/ConfirmedOwnerWithProposal.sol\":1700:1714  s_pendingOwner */\n      0x01\n      0x00\n        /* \"@chainlink/contracts@1.1.1/src/v0.8/shared/access/ConfirmedOwnerWithProposal.sol\":1700:1719  s_pendingOwner = to */\n      0x0100\n      exp\n      dup2\n      sload\n      dup2\n      0xffffffffffffffffffffffffffffffffffffffff\n      mul\n      not\n      and\n      swap1\n      dup4\n      0xffffffffffffffffffffffffffffffffffffffff\n      and\n      mul\n      or\n      swap1\n      sstore\n      pop\n        /* \"@chainlink/contracts@1.1.1/src/v0.8/shared/access/ConfirmedOwnerWithProposal.sol\":1767:1769  to */\n      dup1\n        /* \"@chainlink/contracts@1.1.1/src/v0.8/shared/access/ConfirmedOwnerWithProposal.sol\":1731:1770  OwnershipTransferRequested(s_owner, to) */\n      0xffffffffffffffffffffffffffffffffffffffff\n      and\n        /* \"@chainlink/contracts@1.1.1/src/v0.8/shared/access/ConfirmedOwnerWithProposal.sol\":1758:1765  s_owner */\n      0x00\n      dup1\n      sload\n      swap1\n      0x0100\n      exp\n      swap1\n      div\n      0xffffffffffffffffffffffffffffffffffffffff\n      and\n        /* \"@chainlink/contracts@1.1.1/src/v0.8/shared/access/ConfirmedOwnerWithProposal.sol\":1731:1770  OwnershipTransferRequested(s_owner, to) */\n      0xffffffffffffffffffffffffffffffffffffffff\n      and\n      0xed8889f560326eb138920d842192f0eb3dd22b4f139c87a2c57538e05bae1278\n      mload(0x40)\n      mload(0x40)\n      dup1\n      swap2\n      sub\n      swap1\n      log3\n        /* \"@chainlink/contracts@1.1.1/src/v0.8/shared/access/ConfirmedOwnerWithProposal.sol\":1536:1775  function _transferOwnership(address to) private {... */\n      pop\n      jump\t// out\n        /* \"@chainlink/contracts@1.1.1/src/v0.8/functions/v1_0_0/libraries/FunctionsRequest.sol\":3777:4084  function initializeRequest(... */\n    tag_124:\n        /* \"@chainlink/contracts@1.1.1/src/v0.8/functions/v1_0_0/libraries/FunctionsRequest.sol\":3961:3962  0 */\n      0x00\n        /* \"@chainlink/contracts@1.1.1/src/v0.8/functions/v1_0_0/libraries/FunctionsRequest.sol\":3943:3949  source */\n      dup2\n        /* \"@chainlink/contracts@1.1.1/src/v0.8/functions/v1_0_0/libraries/FunctionsRequest.sol\":3937:3957  bytes(source).length */\n      mload\n        /* \"@chainlink/contracts@1.1.1/src/v0.8/functions/v1_0_0/libraries/FunctionsRequest.sol\":3937:3962  bytes(source).length == 0 */\n      sub\n        /* \"@chainlink/contracts@1.1.1/src/v0.8/functions/v1_0_0/libraries/FunctionsRequest.sol\":3933:3984  if (bytes(source).length == 0) revert EmptySource() */\n      tag_192\n      jumpi\n        /* \"@chainlink/contracts@1.1.1/src/v0.8/functions/v1_0_0/libraries/FunctionsRequest.sol\":3971:3984  EmptySource() */\n      mload(0x40)\n      0x22ce3edd00000000000000000000000000000000000000000000000000000000\n      dup2\n      mstore\n      0x04\n      add\n      mload(0x40)\n      dup1\n      swap2\n      sub\n      swap1\n      revert\n        /* \"@chainlink/contracts@1.1.1/src/v0.8/functions/v1_0_0/libraries/FunctionsRequest.sol\":3933:3984  if (bytes(source).length == 0) revert EmptySource() */\n    tag_192:\n        /* \"@chainlink/contracts@1.1.1/src/v0.8/functions/v1_0_0/libraries/FunctionsRequest.sol\":4011:4023  codeLocation */\n      dup3\n        /* \"@chainlink/contracts@1.1.1/src/v0.8/functions/v1_0_0/libraries/FunctionsRequest.sol\":3991:3995  self */\n      dup5\n        /* \"@chainlink/contracts@1.1.1/src/v0.8/functions/v1_0_0/libraries/FunctionsRequest.sol\":3991:4008  self.codeLocation */\n      0x00\n      add\n        /* \"@chainlink/contracts@1.1.1/src/v0.8/functions/v1_0_0/libraries/FunctionsRequest.sol\":3991:4023  self.codeLocation = codeLocation */\n      swap1\n      0x02\n      dup2\n      gt\n      iszero\n      tag_193\n      jumpi\n      tag_194\n      tag_133\n      jump\t// in\n    tag_194:\n    tag_193:\n      swap1\n      dup2\n      0x02\n      dup2\n      gt\n      iszero\n      tag_195\n      jumpi\n      tag_196\n      tag_133\n      jump\t// in\n    tag_196:\n    tag_195:\n      dup2\n      mstore\n      pop\n      pop\n        /* \"@chainlink/contracts@1.1.1/src/v0.8/functions/v1_0_0/libraries/FunctionsRequest.sol\":4045:4053  language */\n      dup2\n        /* \"@chainlink/contracts@1.1.1/src/v0.8/functions/v1_0_0/libraries/FunctionsRequest.sol\":4029:4033  self */\n      dup5\n        /* \"@chainlink/contracts@1.1.1/src/v0.8/functions/v1_0_0/libraries/FunctionsRequest.sol\":4029:4042  self.language */\n      0x40\n      add\n        /* \"@chainlink/contracts@1.1.1/src/v0.8/functions/v1_0_0/libraries/FunctionsRequest.sol\":4029:4053  self.language = language */\n      swap1\n      0x00\n      dup2\n      gt\n      iszero\n      tag_197\n      jumpi\n      tag_198\n      tag_133\n      jump\t// in\n    tag_198:\n    tag_197:\n      swap1\n      dup2\n      0x00\n      dup2\n      gt\n      iszero\n      tag_199\n      jumpi\n      tag_200\n      tag_133\n      jump\t// in\n    tag_200:\n    tag_199:\n      dup2\n      mstore\n      pop\n      pop\n        /* \"@chainlink/contracts@1.1.1/src/v0.8/functions/v1_0_0/libraries/FunctionsRequest.sol\":4073:4079  source */\n      dup1\n        /* \"@chainlink/contracts@1.1.1/src/v0.8/functions/v1_0_0/libraries/FunctionsRequest.sol\":4059:4063  self */\n      dup5\n        /* \"@chainlink/contracts@1.1.1/src/v0.8/functions/v1_0_0/libraries/FunctionsRequest.sol\":4059:4070  self.source */\n      0x60\n      add\n        /* \"@chainlink/contracts@1.1.1/src/v0.8/functions/v1_0_0/libraries/FunctionsRequest.sol\":4059:4079  self.source = source */\n      dup2\n      swap1\n      mstore\n      pop\n        /* \"@chainlink/contracts@1.1.1/src/v0.8/functions/v1_0_0/libraries/FunctionsRequest.sol\":3777:4084  function initializeRequest(... */\n      pop\n      pop\n      pop\n      pop\n      jump\t// out\n        /* \"@chainlink/contracts@1.1.1/src/v0.8/vendor/solidity-cborutils/v2.0.0/CBOR.sol\":1490:1663  function create(uint256 capacity) internal pure returns(CBORBuffer memory cbor) {... */\n    tag_127:\n        /* \"@chainlink/contracts@1.1.1/src/v0.8/vendor/solidity-cborutils/v2.0.0/CBOR.sol\":1546:1568  CBORBuffer memory cbor */\n      tag_201\n      tag_202\n      jump\t// in\n    tag_201:\n        /* \"@chainlink/contracts@1.1.1/src/v0.8/vendor/solidity-cborutils/v2.0.0/CBOR.sol\":1580:1611  Buffer.init(cbor.buf, capacity) */\n      tag_204\n        /* \"@chainlink/contracts@1.1.1/src/v0.8/vendor/solidity-cborutils/v2.0.0/CBOR.sol\":1592:1596  cbor */\n      dup2\n        /* \"@chainlink/contracts@1.1.1/src/v0.8/vendor/solidity-cborutils/v2.0.0/CBOR.sol\":1592:1600  cbor.buf */\n      0x00\n      add\n      mload\n        /* \"@chainlink/contracts@1.1.1/src/v0.8/vendor/solidity-cborutils/v2.0.0/CBOR.sol\":1602:1610  capacity */\n      dup4\n        /* \"@chainlink/contracts@1.1.1/src/v0.8/vendor/solidity-cborutils/v2.0.0/CBOR.sol\":1580:1591  Buffer.init */\n      tag_205\n        /* \"@chainlink/contracts@1.1.1/src/v0.8/vendor/solidity-cborutils/v2.0.0/CBOR.sol\":1580:1611  Buffer.init(cbor.buf, capacity) */\n      jump\t// in\n    tag_204:\n      pop\n        /* \"@chainlink/contracts@1.1.1/src/v0.8/vendor/solidity-cborutils/v2.0.0/CBOR.sol\":1634:1635  0 */\n      0x00\n        /* \"@chainlink/contracts@1.1.1/src/v0.8/vendor/solidity-cborutils/v2.0.0/CBOR.sol\":1621:1625  cbor */\n      dup2\n        /* \"@chainlink/contracts@1.1.1/src/v0.8/vendor/solidity-cborutils/v2.0.0/CBOR.sol\":1621:1631  cbor.depth */\n      0x20\n      add\n        /* \"@chainlink/contracts@1.1.1/src/v0.8/vendor/solidity-cborutils/v2.0.0/CBOR.sol\":1621:1635  cbor.depth = 0 */\n      dup2\n      dup2\n      mstore\n      pop\n      pop\n        /* \"@chainlink/contracts@1.1.1/src/v0.8/vendor/solidity-cborutils/v2.0.0/CBOR.sol\":1490:1663  function create(uint256 capacity) internal pure returns(CBORBuffer memory cbor) {... */\n      swap2\n      swap1\n      pop\n      jump\t// out\n        /* \"@chainlink/contracts@1.1.1/src/v0.8/vendor/solidity-cborutils/v2.0.0/CBOR.sol\":3021:3225  function writeString(CBORBuffer memory buf, string memory value) internal pure {... */\n    tag_129:\n        /* \"@chainlink/contracts@1.1.1/src/v0.8/vendor/solidity-cborutils/v2.0.0/CBOR.sol\":3110:3180  writeFixedNumeric(buf, MAJOR_TYPE_STRING, uint64(bytes(value).length)) */\n      tag_207\n        /* \"@chainlink/contracts@1.1.1/src/v0.8/vendor/solidity-cborutils/v2.0.0/CBOR.sol\":3128:3131  buf */\n      dup3\n        /* \"@chainlink/contracts@1.1.1/src/v0.8/vendor/solidity-cborutils/v2.0.0/CBOR.sol\":998:999  3 */\n      0x03\n        /* \"@chainlink/contracts@1.1.1/src/v0.8/vendor/solidity-cborutils/v2.0.0/CBOR.sol\":3165:3170  value */\n      dup4\n        /* \"@chainlink/contracts@1.1.1/src/v0.8/vendor/solidity-cborutils/v2.0.0/CBOR.sol\":3159:3178  bytes(value).length */\n      mload\n        /* \"@chainlink/contracts@1.1.1/src/v0.8/vendor/solidity-cborutils/v2.0.0/CBOR.sol\":3110:3127  writeFixedNumeric */\n      tag_208\n        /* \"@chainlink/contracts@1.1.1/src/v0.8/vendor/solidity-cborutils/v2.0.0/CBOR.sol\":3110:3180  writeFixedNumeric(buf, MAJOR_TYPE_STRING, uint64(bytes(value).length)) */\n      jump\t// in\n    tag_207:\n        /* \"@chainlink/contracts@1.1.1/src/v0.8/vendor/solidity-cborutils/v2.0.0/CBOR.sol\":3190:3218  buf.buf.append(bytes(value)) */\n      tag_209\n        /* \"@chainlink/contracts@1.1.1/src/v0.8/vendor/solidity-cborutils/v2.0.0/CBOR.sol\":3211:3216  value */\n      dup2\n        /* \"@chainlink/contracts@1.1.1/src/v0.8/vendor/solidity-cborutils/v2.0.0/CBOR.sol\":3190:3193  buf */\n      dup4\n        /* \"@chainlink/contracts@1.1.1/src/v0.8/vendor/solidity-cborutils/v2.0.0/CBOR.sol\":3190:3197  buf.buf */\n      0x00\n      add\n      mload\n        /* \"@chainlink/contracts@1.1.1/src/v0.8/vendor/solidity-cborutils/v2.0.0/CBOR.sol\":3190:3204  buf.buf.append */\n      tag_210\n      swap1\n        /* \"@chainlink/contracts@1.1.1/src/v0.8/vendor/solidity-cborutils/v2.0.0/CBOR.sol\":3190:3218  buf.buf.append(bytes(value)) */\n      swap2\n      swap1\n      0xffffffff\n      and\n      jump\t// in\n    tag_209:\n      pop\n        /* \"@chainlink/contracts@1.1.1/src/v0.8/vendor/solidity-cborutils/v2.0.0/CBOR.sol\":3021:3225  function writeString(CBORBuffer memory buf, string memory value) internal pure {... */\n      pop\n      pop\n      jump\t// out\n        /* \"@chainlink/contracts@1.1.1/src/v0.8/vendor/solidity-cborutils/v2.0.0/CBOR.sol\":1832:2034  function writeUInt256(CBORBuffer memory buf, uint256 value) internal pure {... */\n    tag_134:\n        /* \"@chainlink/contracts@1.1.1/src/v0.8/vendor/solidity-cborutils/v2.0.0/CBOR.sol\":1916:1983  buf.buf.appendUint8(uint8((MAJOR_TYPE_TAG << 5) | TAG_TYPE_BIGNUM)) */\n      tag_212\n        /* \"@chainlink/contracts@1.1.1/src/v0.8/vendor/solidity-cborutils/v2.0.0/CBOR.sol\":1246:1247  2 */\n      0x02\n        /* \"@chainlink/contracts@1.1.1/src/v0.8/vendor/solidity-cborutils/v2.0.0/CBOR.sol\":1961:1962  5 */\n      0x05\n        /* \"@chainlink/contracts@1.1.1/src/v0.8/vendor/solidity-cborutils/v2.0.0/CBOR.sol\":1141:1142  6 */\n      0x06\n        /* \"@chainlink/contracts@1.1.1/src/v0.8/vendor/solidity-cborutils/v2.0.0/CBOR.sol\":1943:1962  MAJOR_TYPE_TAG << 5 */\n      0xff\n      and\n      swap1\n      shl\n        /* \"@chainlink/contracts@1.1.1/src/v0.8/vendor/solidity-cborutils/v2.0.0/CBOR.sol\":1942:1981  (MAJOR_TYPE_TAG << 5) | TAG_TYPE_BIGNUM */\n      or\n        /* \"@chainlink/contracts@1.1.1/src/v0.8/vendor/solidity-cborutils/v2.0.0/CBOR.sol\":1916:1919  buf */\n      dup4\n        /* \"@chainlink/contracts@1.1.1/src/v0.8/vendor/solidity-cborutils/v2.0.0/CBOR.sol\":1916:1923  buf.buf */\n      0x00\n      add\n      mload\n        /* \"@chainlink/contracts@1.1.1/src/v0.8/vendor/solidity-cborutils/v2.0.0/CBOR.sol\":1916:1935  buf.buf.appendUint8 */\n      tag_213\n      swap1\n        /* \"@chainlink/contracts@1.1.1/src/v0.8/vendor/solidity-cborutils/v2.0.0/CBOR.sol\":1916:1983  buf.buf.appendUint8(uint8((MAJOR_TYPE_TAG << 5) | TAG_TYPE_BIGNUM)) */\n      swap2\n      swap1\n      0xffffffff\n      and\n      jump\t// in\n    tag_212:\n      pop\n        /* \"@chainlink/contracts@1.1.1/src/v0.8/vendor/solidity-cborutils/v2.0.0/CBOR.sol\":1993:2027  writeBytes(buf, abi.encode(value)) */\n      tag_214\n        /* \"@chainlink/contracts@1.1.1/src/v0.8/vendor/solidity-cborutils/v2.0.0/CBOR.sol\":2004:2007  buf */\n      dup3\n        /* \"@chainlink/contracts@1.1.1/src/v0.8/vendor/solidity-cborutils/v2.0.0/CBOR.sol\":2020:2025  value */\n      dup3\n        /* \"@chainlink/contracts@1.1.1/src/v0.8/vendor/solidity-cborutils/v2.0.0/CBOR.sol\":2009:2026  abi.encode(value) */\n      add(0x20, mload(0x40))\n      tag_215\n      swap2\n      swap1\n      tag_33\n      jump\t// in\n    tag_215:\n      mload(0x40)\n      0x20\n      dup2\n      dup4\n      sub\n      sub\n      dup2\n      mstore\n      swap1\n      0x40\n      mstore\n        /* \"@chainlink/contracts@1.1.1/src/v0.8/vendor/solidity-cborutils/v2.0.0/CBOR.sol\":1993:2003  writeBytes */\n      tag_168\n        /* \"@chainlink/contracts@1.1.1/src/v0.8/vendor/solidity-cborutils/v2.0.0/CBOR.sol\":1993:2027  writeBytes(buf, abi.encode(value)) */\n      jump\t// in\n    tag_214:\n        /* \"@chainlink/contracts@1.1.1/src/v0.8/vendor/solidity-cborutils/v2.0.0/CBOR.sol\":1832:2034  function writeUInt256(CBORBuffer memory buf, uint256 value) internal pure {... */\n      pop\n      pop\n      jump\t// out\n        /* \"@chainlink/contracts@1.1.1/src/v0.8/vendor/solidity-cborutils/v2.0.0/CBOR.sol\":3607:3753  function startArray(CBORBuffer memory buf) internal pure {... */\n    tag_144:\n        /* \"@chainlink/contracts@1.1.1/src/v0.8/vendor/solidity-cborutils/v2.0.0/CBOR.sol\":3674:3722  writeIndefiniteLengthType(buf, MAJOR_TYPE_ARRAY) */\n      tag_217\n        /* \"@chainlink/contracts@1.1.1/src/v0.8/vendor/solidity-cborutils/v2.0.0/CBOR.sol\":3700:3703  buf */\n      dup2\n        /* \"@chainlink/contracts@1.1.1/src/v0.8/vendor/solidity-cborutils/v2.0.0/CBOR.sol\":1047:1048  4 */\n      0x04\n        /* \"@chainlink/contracts@1.1.1/src/v0.8/vendor/solidity-cborutils/v2.0.0/CBOR.sol\":3674:3699  writeIndefiniteLengthType */\n      tag_218\n        /* \"@chainlink/contracts@1.1.1/src/v0.8/vendor/solidity-cborutils/v2.0.0/CBOR.sol\":3674:3722  writeIndefiniteLengthType(buf, MAJOR_TYPE_ARRAY) */\n      jump\t// in\n    tag_217:\n        /* \"@chainlink/contracts@1.1.1/src/v0.8/vendor/solidity-cborutils/v2.0.0/CBOR.sol\":3745:3746  1 */\n      0x01\n        /* \"@chainlink/contracts@1.1.1/src/v0.8/vendor/solidity-cborutils/v2.0.0/CBOR.sol\":3732:3735  buf */\n      dup2\n        /* \"@chainlink/contracts@1.1.1/src/v0.8/vendor/solidity-cborutils/v2.0.0/CBOR.sol\":3732:3741  buf.depth */\n      0x20\n      add\n        /* \"@chainlink/contracts@1.1.1/src/v0.8/vendor/solidity-cborutils/v2.0.0/CBOR.sol\":3732:3746  buf.depth += 1 */\n      dup2\n      dup2\n      mload\n      tag_219\n      swap2\n      swap1\n      tag_220\n      jump\t// in\n    tag_219:\n      swap2\n      pop\n      dup2\n      dup2\n      mstore\n      pop\n      pop\n        /* \"@chainlink/contracts@1.1.1/src/v0.8/vendor/solidity-cborutils/v2.0.0/CBOR.sol\":3607:3753  function startArray(CBORBuffer memory buf) internal pure {... */\n      pop\n      jump\t// out\n        /* \"@chainlink/contracts@1.1.1/src/v0.8/vendor/solidity-cborutils/v2.0.0/CBOR.sol\":4211:4365  function endSequence(CBORBuffer memory buf) internal pure {... */\n    tag_155:\n        /* \"@chainlink/contracts@1.1.1/src/v0.8/vendor/solidity-cborutils/v2.0.0/CBOR.sol\":4279:4334  writeIndefiniteLengthType(buf, MAJOR_TYPE_CONTENT_FREE) */\n      tag_222\n        /* \"@chainlink/contracts@1.1.1/src/v0.8/vendor/solidity-cborutils/v2.0.0/CBOR.sol\":4305:4308  buf */\n      dup2\n        /* \"@chainlink/contracts@1.1.1/src/v0.8/vendor/solidity-cborutils/v2.0.0/CBOR.sol\":1197:1198  7 */\n      0x07\n        /* \"@chainlink/contracts@1.1.1/src/v0.8/vendor/solidity-cborutils/v2.0.0/CBOR.sol\":4279:4304  writeIndefiniteLengthType */\n      tag_218\n        /* \"@chainlink/contracts@1.1.1/src/v0.8/vendor/solidity-cborutils/v2.0.0/CBOR.sol\":4279:4334  writeIndefiniteLengthType(buf, MAJOR_TYPE_CONTENT_FREE) */\n      jump\t// in\n    tag_222:\n        /* \"@chainlink/contracts@1.1.1/src/v0.8/vendor/solidity-cborutils/v2.0.0/CBOR.sol\":4357:4358  1 */\n      0x01\n        /* \"@chainlink/contracts@1.1.1/src/v0.8/vendor/solidity-cborutils/v2.0.0/CBOR.sol\":4344:4347  buf */\n      dup2\n        /* \"@chainlink/contracts@1.1.1/src/v0.8/vendor/solidity-cborutils/v2.0.0/CBOR.sol\":4344:4353  buf.depth */\n      0x20\n      add\n        /* \"@chainlink/contracts@1.1.1/src/v0.8/vendor/solidity-cborutils/v2.0.0/CBOR.sol\":4344:4358  buf.depth -= 1 */\n      dup2\n      dup2\n      mload\n      tag_223\n      swap2\n      swap1\n      tag_224\n      jump\t// in\n    tag_223:\n      swap2\n      pop\n      dup2\n      dup2\n      mstore\n      pop\n      pop\n        /* \"@chainlink/contracts@1.1.1/src/v0.8/vendor/solidity-cborutils/v2.0.0/CBOR.sol\":4211:4365  function endSequence(CBORBuffer memory buf) internal pure {... */\n      pop\n      jump\t// out\n        /* \"@chainlink/contracts@1.1.1/src/v0.8/vendor/solidity-cborutils/v2.0.0/CBOR.sol\":2828:3015  function writeBytes(CBORBuffer memory buf, bytes memory value) internal pure {... */\n    tag_168:\n        /* \"@chainlink/contracts@1.1.1/src/v0.8/vendor/solidity-cborutils/v2.0.0/CBOR.sol\":2915:2977  writeFixedNumeric(buf, MAJOR_TYPE_BYTES, uint64(value.length)) */\n      tag_226\n        /* \"@chainlink/contracts@1.1.1/src/v0.8/vendor/solidity-cborutils/v2.0.0/CBOR.sol\":2933:2936  buf */\n      dup3\n        /* \"@chainlink/contracts@1.1.1/src/v0.8/vendor/solidity-cborutils/v2.0.0/CBOR.sol\":948:949  2 */\n      0x02\n        /* \"@chainlink/contracts@1.1.1/src/v0.8/vendor/solidity-cborutils/v2.0.0/CBOR.sol\":2963:2968  value */\n      dup4\n        /* \"@chainlink/contracts@1.1.1/src/v0.8/vendor/solidity-cborutils/v2.0.0/CBOR.sol\":2963:2975  value.length */\n      mload\n        /* \"@chainlink/contracts@1.1.1/src/v0.8/vendor/solidity-cborutils/v2.0.0/CBOR.sol\":2915:2932  writeFixedNumeric */\n      tag_208\n        /* \"@chainlink/contracts@1.1.1/src/v0.8/vendor/solidity-cborutils/v2.0.0/CBOR.sol\":2915:2977  writeFixedNumeric(buf, MAJOR_TYPE_BYTES, uint64(value.length)) */\n      jump\t// in\n    tag_226:\n        /* \"@chainlink/contracts@1.1.1/src/v0.8/vendor/solidity-cborutils/v2.0.0/CBOR.sol\":2987:3008  buf.buf.append(value) */\n      tag_227\n        /* \"@chainlink/contracts@1.1.1/src/v0.8/vendor/solidity-cborutils/v2.0.0/CBOR.sol\":3002:3007  value */\n      dup2\n        /* \"@chainlink/contracts@1.1.1/src/v0.8/vendor/solidity-cborutils/v2.0.0/CBOR.sol\":2987:2990  buf */\n      dup4\n        /* \"@chainlink/contracts@1.1.1/src/v0.8/vendor/solidity-cborutils/v2.0.0/CBOR.sol\":2987:2994  buf.buf */\n      0x00\n      add\n      mload\n        /* \"@chainlink/contracts@1.1.1/src/v0.8/vendor/solidity-cborutils/v2.0.0/CBOR.sol\":2987:3001  buf.buf.append */\n      tag_210\n      swap1\n        /* \"@chainlink/contracts@1.1.1/src/v0.8/vendor/solidity-cborutils/v2.0.0/CBOR.sol\":2987:3008  buf.buf.append(value) */\n      swap2\n      swap1\n      0xffffffff\n      and\n      jump\t// in\n    tag_227:\n      pop\n        /* \"@chainlink/contracts@1.1.1/src/v0.8/vendor/solidity-cborutils/v2.0.0/CBOR.sol\":2828:3015  function writeBytes(CBORBuffer memory buf, bytes memory value) internal pure {... */\n      pop\n      pop\n      jump\t// out\n        /* \"@chainlink/contracts@1.1.1/src/v0.8/vendor/@ensdomains/buffer/v0.1.0/Buffer.sol\":1020:1575  function init(buffer memory buf, uint capacity) internal pure returns(buffer memory) {... */\n    tag_205:\n        /* \"@chainlink/contracts@1.1.1/src/v0.8/vendor/@ensdomains/buffer/v0.1.0/Buffer.sol\":1090:1103  buffer memory */\n      tag_228\n      tag_229\n      jump\t// in\n    tag_228:\n        /* \"@chainlink/contracts@1.1.1/src/v0.8/vendor/@ensdomains/buffer/v0.1.0/Buffer.sol\":1136:1137  0 */\n      0x00\n        /* \"@chainlink/contracts@1.1.1/src/v0.8/vendor/@ensdomains/buffer/v0.1.0/Buffer.sol\":1130:1132  32 */\n      0x20\n        /* \"@chainlink/contracts@1.1.1/src/v0.8/vendor/@ensdomains/buffer/v0.1.0/Buffer.sol\":1119:1127  capacity */\n      dup4\n        /* \"@chainlink/contracts@1.1.1/src/v0.8/vendor/@ensdomains/buffer/v0.1.0/Buffer.sol\":1119:1132  capacity % 32 */\n      tag_231\n      swap2\n      swap1\n      tag_232\n      jump\t// in\n    tag_231:\n        /* \"@chainlink/contracts@1.1.1/src/v0.8/vendor/@ensdomains/buffer/v0.1.0/Buffer.sol\":1119:1137  capacity % 32 != 0 */\n      eq\n        /* \"@chainlink/contracts@1.1.1/src/v0.8/vendor/@ensdomains/buffer/v0.1.0/Buffer.sol\":1115:1196  if (capacity % 32 != 0) {... */\n      tag_233\n      jumpi\n        /* \"@chainlink/contracts@1.1.1/src/v0.8/vendor/@ensdomains/buffer/v0.1.0/Buffer.sol\":1182:1184  32 */\n      0x20\n        /* \"@chainlink/contracts@1.1.1/src/v0.8/vendor/@ensdomains/buffer/v0.1.0/Buffer.sol\":1171:1179  capacity */\n      dup3\n        /* \"@chainlink/contracts@1.1.1/src/v0.8/vendor/@ensdomains/buffer/v0.1.0/Buffer.sol\":1171:1184  capacity % 32 */\n      tag_234\n      swap2\n      swap1\n      tag_232\n      jump\t// in\n    tag_234:\n        /* \"@chainlink/contracts@1.1.1/src/v0.8/vendor/@ensdomains/buffer/v0.1.0/Buffer.sol\":1165:1167  32 */\n      0x20\n        /* \"@chainlink/contracts@1.1.1/src/v0.8/vendor/@ensdomains/buffer/v0.1.0/Buffer.sol\":1165:1185  32 - (capacity % 32) */\n      tag_235\n      swap2\n      swap1\n      tag_224\n      jump\t// in\n    tag_235:\n        /* \"@chainlink/contracts@1.1.1/src/v0.8/vendor/@ensdomains/buffer/v0.1.0/Buffer.sol\":1153:1185  capacity += 32 - (capacity % 32) */\n      dup3\n      tag_236\n      swap2\n      swap1\n      tag_220\n      jump\t// in\n    tag_236:\n      swap2\n      pop\n        /* \"@chainlink/contracts@1.1.1/src/v0.8/vendor/@ensdomains/buffer/v0.1.0/Buffer.sol\":1115:1196  if (capacity % 32 != 0) {... */\n    tag_233:\n        /* \"@chainlink/contracts@1.1.1/src/v0.8/vendor/@ensdomains/buffer/v0.1.0/Buffer.sol\":1266:1274  capacity */\n      dup2\n        /* \"@chainlink/contracts@1.1.1/src/v0.8/vendor/@ensdomains/buffer/v0.1.0/Buffer.sol\":1251:1254  buf */\n      dup4\n        /* \"@chainlink/contracts@1.1.1/src/v0.8/vendor/@ensdomains/buffer/v0.1.0/Buffer.sol\":1251:1263  buf.capacity */\n      0x20\n      add\n        /* \"@chainlink/contracts@1.1.1/src/v0.8/vendor/@ensdomains/buffer/v0.1.0/Buffer.sol\":1251:1274  buf.capacity = capacity */\n      dup2\n      dup2\n      mstore\n      pop\n      pop\n        /* \"@chainlink/contracts@1.1.1/src/v0.8/vendor/@ensdomains/buffer/v0.1.0/Buffer.sol\":1324:1328  0x40 */\n      0x40\n        /* \"@chainlink/contracts@1.1.1/src/v0.8/vendor/@ensdomains/buffer/v0.1.0/Buffer.sol\":1318:1329  mload(0x40) */\n      mload\n        /* \"@chainlink/contracts@1.1.1/src/v0.8/vendor/@ensdomains/buffer/v0.1.0/Buffer.sol\":1354:1357  ptr */\n      dup1\n        /* \"@chainlink/contracts@1.1.1/src/v0.8/vendor/@ensdomains/buffer/v0.1.0/Buffer.sol\":1349:1352  buf */\n      dup5\n        /* \"@chainlink/contracts@1.1.1/src/v0.8/vendor/@ensdomains/buffer/v0.1.0/Buffer.sol\":1342:1358  mstore(buf, ptr) */\n      mstore\n        /* \"@chainlink/contracts@1.1.1/src/v0.8/vendor/@ensdomains/buffer/v0.1.0/Buffer.sol\":1383:1384  0 */\n      0x00\n        /* \"@chainlink/contracts@1.1.1/src/v0.8/vendor/@ensdomains/buffer/v0.1.0/Buffer.sol\":1378:1381  ptr */\n      dup2\n        /* \"@chainlink/contracts@1.1.1/src/v0.8/vendor/@ensdomains/buffer/v0.1.0/Buffer.sol\":1371:1385  mstore(ptr, 0) */\n      mstore\n        /* \"@chainlink/contracts@1.1.1/src/v0.8/vendor/@ensdomains/buffer/v0.1.0/Buffer.sol\":1426:1434  capacity */\n      dup3\n        /* \"@chainlink/contracts@1.1.1/src/v0.8/vendor/@ensdomains/buffer/v0.1.0/Buffer.sol\":1421:1424  ptr */\n      dup2\n        /* \"@chainlink/contracts@1.1.1/src/v0.8/vendor/@ensdomains/buffer/v0.1.0/Buffer.sol\":1417:1435  add(ptr, capacity) */\n      add\n        /* \"@chainlink/contracts@1.1.1/src/v0.8/vendor/@ensdomains/buffer/v0.1.0/Buffer.sol\":1413:1415  32 */\n      0x20\n        /* \"@chainlink/contracts@1.1.1/src/v0.8/vendor/@ensdomains/buffer/v0.1.0/Buffer.sol\":1409:1436  add(32, add(ptr, capacity)) */\n      add\n        /* \"@chainlink/contracts@1.1.1/src/v0.8/vendor/@ensdomains/buffer/v0.1.0/Buffer.sol\":1460:1463  ptr */\n      dup2\n        /* \"@chainlink/contracts@1.1.1/src/v0.8/vendor/@ensdomains/buffer/v0.1.0/Buffer.sol\":1455:1458  fpm */\n      dup2\n        /* \"@chainlink/contracts@1.1.1/src/v0.8/vendor/@ensdomains/buffer/v0.1.0/Buffer.sol\":1452:1464  lt(fpm, ptr) */\n      lt\n        /* \"@chainlink/contracts@1.1.1/src/v0.8/vendor/@ensdomains/buffer/v0.1.0/Buffer.sol\":1449:1509  if lt(fpm, ptr) {... */\n      iszero\n      tag_237\n      jumpi\n        /* \"@chainlink/contracts@1.1.1/src/v0.8/vendor/@ensdomains/buffer/v0.1.0/Buffer.sol\":1493:1494  0 */\n      0x00\n        /* \"@chainlink/contracts@1.1.1/src/v0.8/vendor/@ensdomains/buffer/v0.1.0/Buffer.sol\":1490:1491  0 */\n      dup1\n        /* \"@chainlink/contracts@1.1.1/src/v0.8/vendor/@ensdomains/buffer/v0.1.0/Buffer.sol\":1483:1495  revert(0, 0) */\n      revert\n        /* \"@chainlink/contracts@1.1.1/src/v0.8/vendor/@ensdomains/buffer/v0.1.0/Buffer.sol\":1449:1509  if lt(fpm, ptr) {... */\n    tag_237:\n        /* \"@chainlink/contracts@1.1.1/src/v0.8/vendor/@ensdomains/buffer/v0.1.0/Buffer.sol\":1535:1538  fpm */\n      dup1\n        /* \"@chainlink/contracts@1.1.1/src/v0.8/vendor/@ensdomains/buffer/v0.1.0/Buffer.sol\":1529:1533  0x40 */\n      0x40\n        /* \"@chainlink/contracts@1.1.1/src/v0.8/vendor/@ensdomains/buffer/v0.1.0/Buffer.sol\":1522:1539  mstore(0x40, fpm) */\n      mstore\n        /* \"@chainlink/contracts@1.1.1/src/v0.8/vendor/@ensdomains/buffer/v0.1.0/Buffer.sol\":1293:1549  {... */\n      pop\n      pop\n        /* \"@chainlink/contracts@1.1.1/src/v0.8/vendor/@ensdomains/buffer/v0.1.0/Buffer.sol\":1565:1568  buf */\n      dup3\n        /* \"@chainlink/contracts@1.1.1/src/v0.8/vendor/@ensdomains/buffer/v0.1.0/Buffer.sol\":1558:1568  return buf */\n      swap1\n      pop\n        /* \"@chainlink/contracts@1.1.1/src/v0.8/vendor/@ensdomains/buffer/v0.1.0/Buffer.sol\":1020:1575  function init(buffer memory buf, uint capacity) internal pure returns(buffer memory) {... */\n      swap3\n      swap2\n      pop\n      pop\n      jump\t// out\n        /* \"@chainlink/contracts@1.1.1/src/v0.8/vendor/solidity-cborutils/v2.0.0/CBOR.sol\":6156:6915  function writeFixedNumeric(... */\n    tag_208:\n        /* \"@chainlink/contracts@1.1.1/src/v0.8/vendor/solidity-cborutils/v2.0.0/CBOR.sol\":6299:6301  23 */\n      0x17\n        /* \"@chainlink/contracts@1.1.1/src/v0.8/vendor/solidity-cborutils/v2.0.0/CBOR.sol\":6290:6295  value */\n      dup2\n        /* \"@chainlink/contracts@1.1.1/src/v0.8/vendor/solidity-cborutils/v2.0.0/CBOR.sol\":6290:6301  value <= 23 */\n      0xffffffffffffffff\n      and\n      gt\n        /* \"@chainlink/contracts@1.1.1/src/v0.8/vendor/solidity-cborutils/v2.0.0/CBOR.sol\":6286:6909  if (value <= 23) {... */\n      tag_239\n      jumpi\n        /* \"@chainlink/contracts@1.1.1/src/v0.8/vendor/solidity-cborutils/v2.0.0/CBOR.sol\":6317:6365  buf.buf.appendUint8(uint8((major << 5) | value)) */\n      tag_240\n        /* \"@chainlink/contracts@1.1.1/src/v0.8/vendor/solidity-cborutils/v2.0.0/CBOR.sol\":6358:6363  value */\n      dup2\n        /* \"@chainlink/contracts@1.1.1/src/v0.8/vendor/solidity-cborutils/v2.0.0/CBOR.sol\":6353:6354  5 */\n      0x05\n        /* \"@chainlink/contracts@1.1.1/src/v0.8/vendor/solidity-cborutils/v2.0.0/CBOR.sol\":6344:6349  major */\n      dup5\n        /* \"@chainlink/contracts@1.1.1/src/v0.8/vendor/solidity-cborutils/v2.0.0/CBOR.sol\":6344:6354  major << 5 */\n      0xff\n      and\n      swap1\n      shl\n        /* \"@chainlink/contracts@1.1.1/src/v0.8/vendor/solidity-cborutils/v2.0.0/CBOR.sol\":6343:6363  (major << 5) | value */\n      0xff\n      and\n      or\n        /* \"@chainlink/contracts@1.1.1/src/v0.8/vendor/solidity-cborutils/v2.0.0/CBOR.sol\":6317:6320  buf */\n      dup5\n        /* \"@chainlink/contracts@1.1.1/src/v0.8/vendor/solidity-cborutils/v2.0.0/CBOR.sol\":6317:6324  buf.buf */\n      0x00\n      add\n      mload\n        /* \"@chainlink/contracts@1.1.1/src/v0.8/vendor/solidity-cborutils/v2.0.0/CBOR.sol\":6317:6336  buf.buf.appendUint8 */\n      tag_213\n      swap1\n        /* \"@chainlink/contracts@1.1.1/src/v0.8/vendor/solidity-cborutils/v2.0.0/CBOR.sol\":6317:6365  buf.buf.appendUint8(uint8((major << 5) | value)) */\n      swap2\n      swap1\n      0xffffffff\n      and\n      jump\t// in\n    tag_240:\n      pop\n        /* \"@chainlink/contracts@1.1.1/src/v0.8/vendor/solidity-cborutils/v2.0.0/CBOR.sol\":6286:6909  if (value <= 23) {... */\n      jump(tag_241)\n    tag_239:\n        /* \"@chainlink/contracts@1.1.1/src/v0.8/vendor/solidity-cborutils/v2.0.0/CBOR.sol\":6395:6399  0xFF */\n      0xff\n        /* \"@chainlink/contracts@1.1.1/src/v0.8/vendor/solidity-cborutils/v2.0.0/CBOR.sol\":6386:6391  value */\n      dup2\n        /* \"@chainlink/contracts@1.1.1/src/v0.8/vendor/solidity-cborutils/v2.0.0/CBOR.sol\":6386:6399  value <= 0xFF */\n      0xffffffffffffffff\n      and\n      gt\n        /* \"@chainlink/contracts@1.1.1/src/v0.8/vendor/solidity-cborutils/v2.0.0/CBOR.sol\":6382:6909  if (value <= 0xFF) {... */\n      tag_242\n      jumpi\n        /* \"@chainlink/contracts@1.1.1/src/v0.8/vendor/solidity-cborutils/v2.0.0/CBOR.sol\":6415:6460  buf.buf.appendUint8(uint8((major << 5) | 24)) */\n      tag_243\n        /* \"@chainlink/contracts@1.1.1/src/v0.8/vendor/solidity-cborutils/v2.0.0/CBOR.sol\":6456:6458  24 */\n      0x18\n        /* \"@chainlink/contracts@1.1.1/src/v0.8/vendor/solidity-cborutils/v2.0.0/CBOR.sol\":6451:6452  5 */\n      0x05\n        /* \"@chainlink/contracts@1.1.1/src/v0.8/vendor/solidity-cborutils/v2.0.0/CBOR.sol\":6442:6447  major */\n      dup5\n        /* \"@chainlink/contracts@1.1.1/src/v0.8/vendor/solidity-cborutils/v2.0.0/CBOR.sol\":6442:6452  major << 5 */\n      0xff\n      and\n      swap1\n      shl\n        /* \"@chainlink/contracts@1.1.1/src/v0.8/vendor/solidity-cborutils/v2.0.0/CBOR.sol\":6441:6458  (major << 5) | 24 */\n      or\n        /* \"@chainlink/contracts@1.1.1/src/v0.8/vendor/solidity-cborutils/v2.0.0/CBOR.sol\":6415:6418  buf */\n      dup5\n        /* \"@chainlink/contracts@1.1.1/src/v0.8/vendor/solidity-cborutils/v2.0.0/CBOR.sol\":6415:6422  buf.buf */\n      0x00\n      add\n      mload\n        /* \"@chainlink/contracts@1.1.1/src/v0.8/vendor/solidity-cborutils/v2.0.0/CBOR.sol\":6415:6434  buf.buf.appendUint8 */\n      tag_213\n      swap1\n        /* \"@chainlink/contracts@1.1.1/src/v0.8/vendor/solidity-cborutils/v2.0.0/CBOR.sol\":6415:6460  buf.buf.appendUint8(uint8((major << 5) | 24)) */\n      swap2\n      swap1\n      0xffffffff\n      and\n      jump\t// in\n    tag_243:\n      pop\n        /* \"@chainlink/contracts@1.1.1/src/v0.8/vendor/solidity-cborutils/v2.0.0/CBOR.sol\":6474:6501  buf.buf.appendInt(value, 1) */\n      tag_244\n        /* \"@chainlink/contracts@1.1.1/src/v0.8/vendor/solidity-cborutils/v2.0.0/CBOR.sol\":6492:6497  value */\n      dup2\n        /* \"@chainlink/contracts@1.1.1/src/v0.8/vendor/solidity-cborutils/v2.0.0/CBOR.sol\":6474:6501  buf.buf.appendInt(value, 1) */\n      0xffffffffffffffff\n      and\n        /* \"@chainlink/contracts@1.1.1/src/v0.8/vendor/solidity-cborutils/v2.0.0/CBOR.sol\":6499:6500  1 */\n      0x01\n        /* \"@chainlink/contracts@1.1.1/src/v0.8/vendor/solidity-cborutils/v2.0.0/CBOR.sol\":6474:6477  buf */\n      dup6\n        /* \"@chainlink/contracts@1.1.1/src/v0.8/vendor/solidity-cborutils/v2.0.0/CBOR.sol\":6474:6481  buf.buf */\n      0x00\n      add\n      mload\n        /* \"@chainlink/contracts@1.1.1/src/v0.8/vendor/solidity-cborutils/v2.0.0/CBOR.sol\":6474:6491  buf.buf.appendInt */\n      tag_245\n      swap1\n        /* \"@chainlink/contracts@1.1.1/src/v0.8/vendor/solidity-cborutils/v2.0.0/CBOR.sol\":6474:6501  buf.buf.appendInt(value, 1) */\n      swap3\n      swap2\n      swap1\n      0xffffffff\n      and\n      jump\t// in\n    tag_244:\n      pop\n        /* \"@chainlink/contracts@1.1.1/src/v0.8/vendor/solidity-cborutils/v2.0.0/CBOR.sol\":6382:6909  if (value <= 0xFF) {... */\n      jump(tag_246)\n    tag_242:\n        /* \"@chainlink/contracts@1.1.1/src/v0.8/vendor/solidity-cborutils/v2.0.0/CBOR.sol\":6531:6537  0xFFFF */\n      0xffff\n        /* \"@chainlink/contracts@1.1.1/src/v0.8/vendor/solidity-cborutils/v2.0.0/CBOR.sol\":6522:6527  value */\n      dup2\n        /* \"@chainlink/contracts@1.1.1/src/v0.8/vendor/solidity-cborutils/v2.0.0/CBOR.sol\":6522:6537  value <= 0xFFFF */\n      0xffffffffffffffff\n      and\n      gt\n        /* \"@chainlink/contracts@1.1.1/src/v0.8/vendor/solidity-cborutils/v2.0.0/CBOR.sol\":6518:6909  if (value <= 0xFFFF) {... */\n      tag_247\n      jumpi\n        /* \"@chainlink/contracts@1.1.1/src/v0.8/vendor/solidity-cborutils/v2.0.0/CBOR.sol\":6553:6598  buf.buf.appendUint8(uint8((major << 5) | 25)) */\n      tag_248\n        /* \"@chainlink/contracts@1.1.1/src/v0.8/vendor/solidity-cborutils/v2.0.0/CBOR.sol\":6594:6596  25 */\n      0x19\n        /* \"@chainlink/contracts@1.1.1/src/v0.8/vendor/solidity-cborutils/v2.0.0/CBOR.sol\":6589:6590  5 */\n      0x05\n        /* \"@chainlink/contracts@1.1.1/src/v0.8/vendor/solidity-cborutils/v2.0.0/CBOR.sol\":6580:6585  major */\n      dup5\n        /* \"@chainlink/contracts@1.1.1/src/v0.8/vendor/solidity-cborutils/v2.0.0/CBOR.sol\":6580:6590  major << 5 */\n      0xff\n      and\n      swap1\n      shl\n        /* \"@chainlink/contracts@1.1.1/src/v0.8/vendor/solidity-cborutils/v2.0.0/CBOR.sol\":6579:6596  (major << 5) | 25 */\n      or\n        /* \"@chainlink/contracts@1.1.1/src/v0.8/vendor/solidity-cborutils/v2.0.0/CBOR.sol\":6553:6556  buf */\n      dup5\n        /* \"@chainlink/contracts@1.1.1/src/v0.8/vendor/solidity-cborutils/v2.0.0/CBOR.sol\":6553:6560  buf.buf */\n      0x00\n      add\n      mload\n        /* \"@chainlink/contracts@1.1.1/src/v0.8/vendor/solidity-cborutils/v2.0.0/CBOR.sol\":6553:6572  buf.buf.appendUint8 */\n      tag_213\n      swap1\n        /* \"@chainlink/contracts@1.1.1/src/v0.8/vendor/solidity-cborutils/v2.0.0/CBOR.sol\":6553:6598  buf.buf.appendUint8(uint8((major << 5) | 25)) */\n      swap2\n      swap1\n      0xffffffff\n      and\n      jump\t// in\n    tag_248:\n      pop\n        /* \"@chainlink/contracts@1.1.1/src/v0.8/vendor/solidity-cborutils/v2.0.0/CBOR.sol\":6612:6639  buf.buf.appendInt(value, 2) */\n      tag_249\n        /* \"@chainlink/contracts@1.1.1/src/v0.8/vendor/solidity-cborutils/v2.0.0/CBOR.sol\":6630:6635  value */\n      dup2\n        /* \"@chainlink/contracts@1.1.1/src/v0.8/vendor/solidity-cborutils/v2.0.0/CBOR.sol\":6612:6639  buf.buf.appendInt(value, 2) */\n      0xffffffffffffffff\n      and\n        /* \"@chainlink/contracts@1.1.1/src/v0.8/vendor/solidity-cborutils/v2.0.0/CBOR.sol\":6637:6638  2 */\n      0x02\n        /* \"@chainlink/contracts@1.1.1/src/v0.8/vendor/solidity-cborutils/v2.0.0/CBOR.sol\":6612:6615  buf */\n      dup6\n        /* \"@chainlink/contracts@1.1.1/src/v0.8/vendor/solidity-cborutils/v2.0.0/CBOR.sol\":6612:6619  buf.buf */\n      0x00\n      add\n      mload\n        /* \"@chainlink/contracts@1.1.1/src/v0.8/vendor/solidity-cborutils/v2.0.0/CBOR.sol\":6612:6629  buf.buf.appendInt */\n      tag_245\n      swap1\n        /* \"@chainlink/contracts@1.1.1/src/v0.8/vendor/solidity-cborutils/v2.0.0/CBOR.sol\":6612:6639  buf.buf.appendInt(value, 2) */\n      swap3\n      swap2\n      swap1\n      0xffffffff\n      and\n      jump\t// in\n    tag_249:\n      pop\n        /* \"@chainlink/contracts@1.1.1/src/v0.8/vendor/solidity-cborutils/v2.0.0/CBOR.sol\":6518:6909  if (value <= 0xFFFF) {... */\n      jump(tag_250)\n    tag_247:\n        /* \"@chainlink/contracts@1.1.1/src/v0.8/vendor/solidity-cborutils/v2.0.0/CBOR.sol\":6669:6679  0xFFFFFFFF */\n      0xffffffff\n        /* \"@chainlink/contracts@1.1.1/src/v0.8/vendor/solidity-cborutils/v2.0.0/CBOR.sol\":6660:6665  value */\n      dup2\n        /* \"@chainlink/contracts@1.1.1/src/v0.8/vendor/solidity-cborutils/v2.0.0/CBOR.sol\":6660:6679  value <= 0xFFFFFFFF */\n      0xffffffffffffffff\n      and\n      gt\n        /* \"@chainlink/contracts@1.1.1/src/v0.8/vendor/solidity-cborutils/v2.0.0/CBOR.sol\":6656:6909  if (value <= 0xFFFFFFFF) {... */\n      tag_251\n      jumpi\n        /* \"@chainlink/contracts@1.1.1/src/v0.8/vendor/solidity-cborutils/v2.0.0/CBOR.sol\":6695:6740  buf.buf.appendUint8(uint8((major << 5) | 26)) */\n      tag_252\n        /* \"@chainlink/contracts@1.1.1/src/v0.8/vendor/solidity-cborutils/v2.0.0/CBOR.sol\":6736:6738  26 */\n      0x1a\n        /* \"@chainlink/contracts@1.1.1/src/v0.8/vendor/solidity-cborutils/v2.0.0/CBOR.sol\":6731:6732  5 */\n      0x05\n        /* \"@chainlink/contracts@1.1.1/src/v0.8/vendor/solidity-cborutils/v2.0.0/CBOR.sol\":6722:6727  major */\n      dup5\n        /* \"@chainlink/contracts@1.1.1/src/v0.8/vendor/solidity-cborutils/v2.0.0/CBOR.sol\":6722:6732  major << 5 */\n      0xff\n      and\n      swap1\n      shl\n        /* \"@chainlink/contracts@1.1.1/src/v0.8/vendor/solidity-cborutils/v2.0.0/CBOR.sol\":6721:6738  (major << 5) | 26 */\n      or\n        /* \"@chainlink/contracts@1.1.1/src/v0.8/vendor/solidity-cborutils/v2.0.0/CBOR.sol\":6695:6698  buf */\n      dup5\n        /* \"@chainlink/contracts@1.1.1/src/v0.8/vendor/solidity-cborutils/v2.0.0/CBOR.sol\":6695:6702  buf.buf */\n      0x00\n      add\n      mload\n        /* \"@chainlink/contracts@1.1.1/src/v0.8/vendor/solidity-cborutils/v2.0.0/CBOR.sol\":6695:6714  buf.buf.appendUint8 */\n      tag_213\n      swap1\n        /* \"@chainlink/contracts@1.1.1/src/v0.8/vendor/solidity-cborutils/v2.0.0/CBOR.sol\":6695:6740  buf.buf.appendUint8(uint8((major << 5) | 26)) */\n      swap2\n      swap1\n      0xffffffff\n      and\n      jump\t// in\n    tag_252:\n      pop\n        /* \"@chainlink/contracts@1.1.1/src/v0.8/vendor/solidity-cborutils/v2.0.0/CBOR.sol\":6754:6781  buf.buf.appendInt(value, 4) */\n      tag_253\n        /* \"@chainlink/contracts@1.1.1/src/v0.8/vendor/solidity-cborutils/v2.0.0/CBOR.sol\":6772:6777  value */\n      dup2\n        /* \"@chainlink/contracts@1.1.1/src/v0.8/vendor/solidity-cborutils/v2.0.0/CBOR.sol\":6754:6781  buf.buf.appendInt(value, 4) */\n      0xffffffffffffffff\n      and\n        /* \"@chainlink/contracts@1.1.1/src/v0.8/vendor/solidity-cborutils/v2.0.0/CBOR.sol\":6779:6780  4 */\n      0x04\n        /* \"@chainlink/contracts@1.1.1/src/v0.8/vendor/solidity-cborutils/v2.0.0/CBOR.sol\":6754:6757  buf */\n      dup6\n        /* \"@chainlink/contracts@1.1.1/src/v0.8/vendor/solidity-cborutils/v2.0.0/CBOR.sol\":6754:6761  buf.buf */\n      0x00\n      add\n      mload\n        /* \"@chainlink/contracts@1.1.1/src/v0.8/vendor/solidity-cborutils/v2.0.0/CBOR.sol\":6754:6771  buf.buf.appendInt */\n      tag_245\n      swap1\n        /* \"@chainlink/contracts@1.1.1/src/v0.8/vendor/solidity-cborutils/v2.0.0/CBOR.sol\":6754:6781  buf.buf.appendInt(value, 4) */\n      swap3\n      swap2\n      swap1\n      0xffffffff\n      and\n      jump\t// in\n    tag_253:\n      pop\n        /* \"@chainlink/contracts@1.1.1/src/v0.8/vendor/solidity-cborutils/v2.0.0/CBOR.sol\":6656:6909  if (value <= 0xFFFFFFFF) {... */\n      jump(tag_254)\n    tag_251:\n        /* \"@chainlink/contracts@1.1.1/src/v0.8/vendor/solidity-cborutils/v2.0.0/CBOR.sol\":6812:6857  buf.buf.appendUint8(uint8((major << 5) | 27)) */\n      tag_255\n        /* \"@chainlink/contracts@1.1.1/src/v0.8/vendor/solidity-cborutils/v2.0.0/CBOR.sol\":6853:6855  27 */\n      0x1b\n        /* \"@chainlink/contracts@1.1.1/src/v0.8/vendor/solidity-cborutils/v2.0.0/CBOR.sol\":6848:6849  5 */\n      0x05\n        /* \"@chainlink/contracts@1.1.1/src/v0.8/vendor/solidity-cborutils/v2.0.0/CBOR.sol\":6839:6844  major */\n      dup5\n        /* \"@chainlink/contracts@1.1.1/src/v0.8/vendor/solidity-cborutils/v2.0.0/CBOR.sol\":6839:6849  major << 5 */\n      0xff\n      and\n      swap1\n      shl\n        /* \"@chainlink/contracts@1.1.1/src/v0.8/vendor/solidity-cborutils/v2.0.0/CBOR.sol\":6838:6855  (major << 5) | 27 */\n      or\n        /* \"@chainlink/contracts@1.1.1/src/v0.8/vendor/solidity-cborutils/v2.0.0/CBOR.sol\":6812:6815  buf */\n      dup5\n        /* \"@chainlink/contracts@1.1.1/src/v0.8/vendor/solidity-cborutils/v2.0.0/CBOR.sol\":6812:6819  buf.buf */\n      0x00\n      add\n      mload\n        /* \"@chainlink/contracts@1.1.1/src/v0.8/vendor/solidity-cborutils/v2.0.0/CBOR.sol\":6812:6831  buf.buf.appendUint8 */\n      tag_213\n      swap1\n        /* \"@chainlink/contracts@1.1.1/src/v0.8/vendor/solidity-cborutils/v2.0.0/CBOR.sol\":6812:6857  buf.buf.appendUint8(uint8((major << 5) | 27)) */\n      swap2\n      swap1\n      0xffffffff\n      and\n      jump\t// in\n    tag_255:\n      pop\n        /* \"@chainlink/contracts@1.1.1/src/v0.8/vendor/solidity-cborutils/v2.0.0/CBOR.sol\":6871:6898  buf.buf.appendInt(value, 8) */\n      tag_256\n        /* \"@chainlink/contracts@1.1.1/src/v0.8/vendor/solidity-cborutils/v2.0.0/CBOR.sol\":6889:6894  value */\n      dup2\n        /* \"@chainlink/contracts@1.1.1/src/v0.8/vendor/solidity-cborutils/v2.0.0/CBOR.sol\":6871:6898  buf.buf.appendInt(value, 8) */\n      0xffffffffffffffff\n      and\n        /* \"@chainlink/contracts@1.1.1/src/v0.8/vendor/solidity-cborutils/v2.0.0/CBOR.sol\":6896:6897  8 */\n      0x08\n        /* \"@chainlink/contracts@1.1.1/src/v0.8/vendor/solidity-cborutils/v2.0.0/CBOR.sol\":6871:6874  buf */\n      dup6\n        /* \"@chainlink/contracts@1.1.1/src/v0.8/vendor/solidity-cborutils/v2.0.0/CBOR.sol\":6871:6878  buf.buf */\n      0x00\n      add\n      mload\n        /* \"@chainlink/contracts@1.1.1/src/v0.8/vendor/solidity-cborutils/v2.0.0/CBOR.sol\":6871:6888  buf.buf.appendInt */\n      tag_245\n      swap1\n        /* \"@chainlink/contracts@1.1.1/src/v0.8/vendor/solidity-cborutils/v2.0.0/CBOR.sol\":6871:6898  buf.buf.appendInt(value, 8) */\n      swap3\n      swap2\n      swap1\n      0xffffffff\n      and\n      jump\t// in\n    tag_256:\n      pop\n        /* \"@chainlink/contracts@1.1.1/src/v0.8/vendor/solidity-cborutils/v2.0.0/CBOR.sol\":6656:6909  if (value <= 0xFFFFFFFF) {... */\n    tag_254:\n        /* \"@chainlink/contracts@1.1.1/src/v0.8/vendor/solidity-cborutils/v2.0.0/CBOR.sol\":6518:6909  if (value <= 0xFFFF) {... */\n    tag_250:\n        /* \"@chainlink/contracts@1.1.1/src/v0.8/vendor/solidity-cborutils/v2.0.0/CBOR.sol\":6382:6909  if (value <= 0xFF) {... */\n    tag_246:\n        /* \"@chainlink/contracts@1.1.1/src/v0.8/vendor/solidity-cborutils/v2.0.0/CBOR.sol\":6286:6909  if (value <= 23) {... */\n    tag_241:\n        /* \"@chainlink/contracts@1.1.1/src/v0.8/vendor/solidity-cborutils/v2.0.0/CBOR.sol\":6156:6915  function writeFixedNumeric(... */\n      pop\n      pop\n      pop\n      jump\t// out\n        /* \"@chainlink/contracts@1.1.1/src/v0.8/vendor/@ensdomains/buffer/v0.1.0/Buffer.sol\":4539:4685  function append(buffer memory buf, bytes memory data) internal pure returns (buffer memory) {... */\n    tag_210:\n        /* \"@chainlink/contracts@1.1.1/src/v0.8/vendor/@ensdomains/buffer/v0.1.0/Buffer.sol\":4616:4629  buffer memory */\n      tag_257\n      tag_229\n      jump\t// in\n    tag_257:\n        /* \"@chainlink/contracts@1.1.1/src/v0.8/vendor/@ensdomains/buffer/v0.1.0/Buffer.sol\":4648:4678  append(buf, data, data.length) */\n      tag_259\n        /* \"@chainlink/contracts@1.1.1/src/v0.8/vendor/@ensdomains/buffer/v0.1.0/Buffer.sol\":4655:4658  buf */\n      dup4\n        /* \"@chainlink/contracts@1.1.1/src/v0.8/vendor/@ensdomains/buffer/v0.1.0/Buffer.sol\":4660:4664  data */\n      dup4\n        /* \"@chainlink/contracts@1.1.1/src/v0.8/vendor/@ensdomains/buffer/v0.1.0/Buffer.sol\":4666:4670  data */\n      dup5\n        /* \"@chainlink/contracts@1.1.1/src/v0.8/vendor/@ensdomains/buffer/v0.1.0/Buffer.sol\":4666:4677  data.length */\n      mload\n        /* \"@chainlink/contracts@1.1.1/src/v0.8/vendor/@ensdomains/buffer/v0.1.0/Buffer.sol\":4648:4654  append */\n      tag_260\n        /* \"@chainlink/contracts@1.1.1/src/v0.8/vendor/@ensdomains/buffer/v0.1.0/Buffer.sol\":4648:4678  append(buf, data, data.length) */\n      jump\t// in\n    tag_259:\n        /* \"@chainlink/contracts@1.1.1/src/v0.8/vendor/@ensdomains/buffer/v0.1.0/Buffer.sol\":4641:4678  return append(buf, data, data.length) */\n      swap1\n      pop\n        /* \"@chainlink/contracts@1.1.1/src/v0.8/vendor/@ensdomains/buffer/v0.1.0/Buffer.sol\":4539:4685  function append(buffer memory buf, bytes memory data) internal pure returns (buffer memory) {... */\n      swap3\n      swap2\n      pop\n      pop\n      jump\t// out\n        /* \"@chainlink/contracts@1.1.1/src/v0.8/vendor/@ensdomains/buffer/v0.1.0/Buffer.sol\":4948:5647  function appendUint8(buffer memory buf, uint8 data) internal pure returns(buffer memory) {... */\n    tag_213:\n        /* \"@chainlink/contracts@1.1.1/src/v0.8/vendor/@ensdomains/buffer/v0.1.0/Buffer.sol\":5022:5035  buffer memory */\n      tag_261\n      tag_229\n      jump\t// in\n    tag_261:\n        /* \"@chainlink/contracts@1.1.1/src/v0.8/vendor/@ensdomains/buffer/v0.1.0/Buffer.sol\":5047:5055  uint off */\n      0x00\n        /* \"@chainlink/contracts@1.1.1/src/v0.8/vendor/@ensdomains/buffer/v0.1.0/Buffer.sol\":5058:5061  buf */\n      dup4\n        /* \"@chainlink/contracts@1.1.1/src/v0.8/vendor/@ensdomains/buffer/v0.1.0/Buffer.sol\":5058:5065  buf.buf */\n      0x00\n      add\n      mload\n        /* \"@chainlink/contracts@1.1.1/src/v0.8/vendor/@ensdomains/buffer/v0.1.0/Buffer.sol\":5058:5072  buf.buf.length */\n      mload\n        /* \"@chainlink/contracts@1.1.1/src/v0.8/vendor/@ensdomains/buffer/v0.1.0/Buffer.sol\":5047:5072  uint off = buf.buf.length */\n      swap1\n      pop\n        /* \"@chainlink/contracts@1.1.1/src/v0.8/vendor/@ensdomains/buffer/v0.1.0/Buffer.sol\":5082:5097  uint offPlusOne */\n      0x00\n        /* \"@chainlink/contracts@1.1.1/src/v0.8/vendor/@ensdomains/buffer/v0.1.0/Buffer.sol\":5106:5107  1 */\n      0x01\n        /* \"@chainlink/contracts@1.1.1/src/v0.8/vendor/@ensdomains/buffer/v0.1.0/Buffer.sol\":5100:5103  off */\n      dup3\n        /* \"@chainlink/contracts@1.1.1/src/v0.8/vendor/@ensdomains/buffer/v0.1.0/Buffer.sol\":5100:5107  off + 1 */\n      tag_263\n      swap2\n      swap1\n      tag_220\n      jump\t// in\n    tag_263:\n        /* \"@chainlink/contracts@1.1.1/src/v0.8/vendor/@ensdomains/buffer/v0.1.0/Buffer.sol\":5082:5107  uint offPlusOne = off + 1 */\n      swap1\n      pop\n        /* \"@chainlink/contracts@1.1.1/src/v0.8/vendor/@ensdomains/buffer/v0.1.0/Buffer.sol\":5128:5131  buf */\n      dup5\n        /* \"@chainlink/contracts@1.1.1/src/v0.8/vendor/@ensdomains/buffer/v0.1.0/Buffer.sol\":5128:5140  buf.capacity */\n      0x20\n      add\n      mload\n        /* \"@chainlink/contracts@1.1.1/src/v0.8/vendor/@ensdomains/buffer/v0.1.0/Buffer.sol\":5121:5124  off */\n      dup3\n        /* \"@chainlink/contracts@1.1.1/src/v0.8/vendor/@ensdomains/buffer/v0.1.0/Buffer.sol\":5121:5140  off >= buf.capacity */\n      lt\n        /* \"@chainlink/contracts@1.1.1/src/v0.8/vendor/@ensdomains/buffer/v0.1.0/Buffer.sol\":5117:5194  if (off >= buf.capacity) {... */\n      tag_264\n      jumpi\n        /* \"@chainlink/contracts@1.1.1/src/v0.8/vendor/@ensdomains/buffer/v0.1.0/Buffer.sol\":5156:5183  resize(buf, offPlusOne * 2) */\n      tag_265\n        /* \"@chainlink/contracts@1.1.1/src/v0.8/vendor/@ensdomains/buffer/v0.1.0/Buffer.sol\":5163:5166  buf */\n      dup6\n        /* \"@chainlink/contracts@1.1.1/src/v0.8/vendor/@ensdomains/buffer/v0.1.0/Buffer.sol\":5181:5182  2 */\n      0x02\n        /* \"@chainlink/contracts@1.1.1/src/v0.8/vendor/@ensdomains/buffer/v0.1.0/Buffer.sol\":5168:5178  offPlusOne */\n      dup4\n        /* \"@chainlink/contracts@1.1.1/src/v0.8/vendor/@ensdomains/buffer/v0.1.0/Buffer.sol\":5168:5182  offPlusOne * 2 */\n      tag_266\n      swap2\n      swap1\n      tag_267\n      jump\t// in\n    tag_266:\n        /* \"@chainlink/contracts@1.1.1/src/v0.8/vendor/@ensdomains/buffer/v0.1.0/Buffer.sol\":5156:5162  resize */\n      tag_268\n        /* \"@chainlink/contracts@1.1.1/src/v0.8/vendor/@ensdomains/buffer/v0.1.0/Buffer.sol\":5156:5183  resize(buf, offPlusOne * 2) */\n      jump\t// in\n    tag_265:\n        /* \"@chainlink/contracts@1.1.1/src/v0.8/vendor/@ensdomains/buffer/v0.1.0/Buffer.sol\":5117:5194  if (off >= buf.capacity) {... */\n    tag_264:\n        /* \"@chainlink/contracts@1.1.1/src/v0.8/vendor/@ensdomains/buffer/v0.1.0/Buffer.sol\":5296:5299  buf */\n      dup5\n        /* \"@chainlink/contracts@1.1.1/src/v0.8/vendor/@ensdomains/buffer/v0.1.0/Buffer.sol\":5290:5300  mload(buf) */\n      mload\n        /* \"@chainlink/contracts@1.1.1/src/v0.8/vendor/@ensdomains/buffer/v0.1.0/Buffer.sol\":5417:5419  32 */\n      0x20\n        /* \"@chainlink/contracts@1.1.1/src/v0.8/vendor/@ensdomains/buffer/v0.1.0/Buffer.sol\":5411:5414  off */\n      dup4\n        /* \"@chainlink/contracts@1.1.1/src/v0.8/vendor/@ensdomains/buffer/v0.1.0/Buffer.sol\":5403:5409  bufptr */\n      dup3\n        /* \"@chainlink/contracts@1.1.1/src/v0.8/vendor/@ensdomains/buffer/v0.1.0/Buffer.sol\":5399:5415  add(bufptr, off) */\n      add\n        /* \"@chainlink/contracts@1.1.1/src/v0.8/vendor/@ensdomains/buffer/v0.1.0/Buffer.sol\":5395:5420  add(add(bufptr, off), 32) */\n      add\n        /* \"@chainlink/contracts@1.1.1/src/v0.8/vendor/@ensdomains/buffer/v0.1.0/Buffer.sol\":5447:5451  data */\n      dup6\n        /* \"@chainlink/contracts@1.1.1/src/v0.8/vendor/@ensdomains/buffer/v0.1.0/Buffer.sol\":5441:5445  dest */\n      dup2\n        /* \"@chainlink/contracts@1.1.1/src/v0.8/vendor/@ensdomains/buffer/v0.1.0/Buffer.sol\":5433:5452  mstore8(dest, data) */\n      mstore8\n        /* \"@chainlink/contracts@1.1.1/src/v0.8/vendor/@ensdomains/buffer/v0.1.0/Buffer.sol\":5543:5549  bufptr */\n      dup2\n        /* \"@chainlink/contracts@1.1.1/src/v0.8/vendor/@ensdomains/buffer/v0.1.0/Buffer.sol\":5537:5550  mload(bufptr) */\n      mload\n        /* \"@chainlink/contracts@1.1.1/src/v0.8/vendor/@ensdomains/buffer/v0.1.0/Buffer.sol\":5525:5535  offPlusOne */\n      dup4\n        /* \"@chainlink/contracts@1.1.1/src/v0.8/vendor/@ensdomains/buffer/v0.1.0/Buffer.sol\":5522:5551  gt(offPlusOne, mload(bufptr)) */\n      gt\n        /* \"@chainlink/contracts@1.1.1/src/v0.8/vendor/@ensdomains/buffer/v0.1.0/Buffer.sol\":5519:5610  if gt(offPlusOne, mload(bufptr)) {... */\n      iszero\n      tag_269\n      jumpi\n        /* \"@chainlink/contracts@1.1.1/src/v0.8/vendor/@ensdomains/buffer/v0.1.0/Buffer.sol\":5585:5595  offPlusOne */\n      dup3\n        /* \"@chainlink/contracts@1.1.1/src/v0.8/vendor/@ensdomains/buffer/v0.1.0/Buffer.sol\":5577:5583  bufptr */\n      dup3\n        /* \"@chainlink/contracts@1.1.1/src/v0.8/vendor/@ensdomains/buffer/v0.1.0/Buffer.sol\":5570:5596  mstore(bufptr, offPlusOne) */\n      mstore\n        /* \"@chainlink/contracts@1.1.1/src/v0.8/vendor/@ensdomains/buffer/v0.1.0/Buffer.sol\":5519:5610  if gt(offPlusOne, mload(bufptr)) {... */\n    tag_269:\n        /* \"@chainlink/contracts@1.1.1/src/v0.8/vendor/@ensdomains/buffer/v0.1.0/Buffer.sol\":5213:5620  {... */\n      pop\n      pop\n        /* \"@chainlink/contracts@1.1.1/src/v0.8/vendor/@ensdomains/buffer/v0.1.0/Buffer.sol\":5637:5640  buf */\n      dup5\n        /* \"@chainlink/contracts@1.1.1/src/v0.8/vendor/@ensdomains/buffer/v0.1.0/Buffer.sol\":5630:5640  return buf */\n      swap3\n      pop\n      pop\n      pop\n        /* \"@chainlink/contracts@1.1.1/src/v0.8/vendor/@ensdomains/buffer/v0.1.0/Buffer.sol\":4948:5647  function appendUint8(buffer memory buf, uint8 data) internal pure returns(buffer memory) {... */\n      swap3\n      swap2\n      pop\n      pop\n      jump\t// out\n        /* \"@chainlink/contracts@1.1.1/src/v0.8/vendor/solidity-cborutils/v2.0.0/CBOR.sol\":6921:7087  function writeIndefiniteLengthType(CBORBuffer memory buf, uint8 major)... */\n    tag_218:\n        /* \"@chainlink/contracts@1.1.1/src/v0.8/vendor/solidity-cborutils/v2.0.0/CBOR.sol\":7035:7080  buf.buf.appendUint8(uint8((major << 5) | 31)) */\n      tag_271\n        /* \"@chainlink/contracts@1.1.1/src/v0.8/vendor/solidity-cborutils/v2.0.0/CBOR.sol\":7076:7078  31 */\n      0x1f\n        /* \"@chainlink/contracts@1.1.1/src/v0.8/vendor/solidity-cborutils/v2.0.0/CBOR.sol\":7071:7072  5 */\n      0x05\n        /* \"@chainlink/contracts@1.1.1/src/v0.8/vendor/solidity-cborutils/v2.0.0/CBOR.sol\":7062:7067  major */\n      dup4\n        /* \"@chainlink/contracts@1.1.1/src/v0.8/vendor/solidity-cborutils/v2.0.0/CBOR.sol\":7062:7072  major << 5 */\n      0xff\n      and\n      swap1\n      shl\n        /* \"@chainlink/contracts@1.1.1/src/v0.8/vendor/solidity-cborutils/v2.0.0/CBOR.sol\":7061:7078  (major << 5) | 31 */\n      or\n        /* \"@chainlink/contracts@1.1.1/src/v0.8/vendor/solidity-cborutils/v2.0.0/CBOR.sol\":7035:7038  buf */\n      dup4\n        /* \"@chainlink/contracts@1.1.1/src/v0.8/vendor/solidity-cborutils/v2.0.0/CBOR.sol\":7035:7042  buf.buf */\n      0x00\n      add\n      mload\n        /* \"@chainlink/contracts@1.1.1/src/v0.8/vendor/solidity-cborutils/v2.0.0/CBOR.sol\":7035:7054  buf.buf.appendUint8 */\n      tag_213\n      swap1\n        /* \"@chainlink/contracts@1.1.1/src/v0.8/vendor/solidity-cborutils/v2.0.0/CBOR.sol\":7035:7080  buf.buf.appendUint8(uint8((major << 5) | 31)) */\n      swap2\n      swap1\n      0xffffffff\n      and\n      jump\t// in\n    tag_271:\n      pop\n        /* \"@chainlink/contracts@1.1.1/src/v0.8/vendor/solidity-cborutils/v2.0.0/CBOR.sol\":6921:7087  function writeIndefiniteLengthType(CBORBuffer memory buf, uint8 major)... */\n      pop\n      pop\n      jump\t// out\n        /* \"@chainlink/contracts@1.1.1/src/v0.8/vendor/@ensdomains/buffer/v0.1.0/Buffer.sol\":8083:8878  function appendInt(buffer memory buf, uint data, uint len) internal pure returns(buffer memory) {... */\n    tag_245:\n        /* \"@chainlink/contracts@1.1.1/src/v0.8/vendor/@ensdomains/buffer/v0.1.0/Buffer.sol\":8164:8177  buffer memory */\n      tag_272\n      tag_229\n      jump\t// in\n    tag_272:\n        /* \"@chainlink/contracts@1.1.1/src/v0.8/vendor/@ensdomains/buffer/v0.1.0/Buffer.sol\":8189:8197  uint off */\n      0x00\n        /* \"@chainlink/contracts@1.1.1/src/v0.8/vendor/@ensdomains/buffer/v0.1.0/Buffer.sol\":8200:8203  buf */\n      dup5\n        /* \"@chainlink/contracts@1.1.1/src/v0.8/vendor/@ensdomains/buffer/v0.1.0/Buffer.sol\":8200:8207  buf.buf */\n      0x00\n      add\n      mload\n        /* \"@chainlink/contracts@1.1.1/src/v0.8/vendor/@ensdomains/buffer/v0.1.0/Buffer.sol\":8200:8214  buf.buf.length */\n      mload\n        /* \"@chainlink/contracts@1.1.1/src/v0.8/vendor/@ensdomains/buffer/v0.1.0/Buffer.sol\":8189:8214  uint off = buf.buf.length */\n      swap1\n      pop\n        /* \"@chainlink/contracts@1.1.1/src/v0.8/vendor/@ensdomains/buffer/v0.1.0/Buffer.sol\":8224:8240  uint newCapacity */\n      0x00\n        /* \"@chainlink/contracts@1.1.1/src/v0.8/vendor/@ensdomains/buffer/v0.1.0/Buffer.sol\":8249:8252  off */\n      dup2\n        /* \"@chainlink/contracts@1.1.1/src/v0.8/vendor/@ensdomains/buffer/v0.1.0/Buffer.sol\":8243:8246  len */\n      dup5\n        /* \"@chainlink/contracts@1.1.1/src/v0.8/vendor/@ensdomains/buffer/v0.1.0/Buffer.sol\":8243:8252  len + off */\n      tag_274\n      swap2\n      swap1\n      tag_220\n      jump\t// in\n    tag_274:\n        /* \"@chainlink/contracts@1.1.1/src/v0.8/vendor/@ensdomains/buffer/v0.1.0/Buffer.sol\":8224:8252  uint newCapacity = len + off */\n      swap1\n      pop\n        /* \"@chainlink/contracts@1.1.1/src/v0.8/vendor/@ensdomains/buffer/v0.1.0/Buffer.sol\":8280:8283  buf */\n      dup6\n        /* \"@chainlink/contracts@1.1.1/src/v0.8/vendor/@ensdomains/buffer/v0.1.0/Buffer.sol\":8280:8292  buf.capacity */\n      0x20\n      add\n      mload\n        /* \"@chainlink/contracts@1.1.1/src/v0.8/vendor/@ensdomains/buffer/v0.1.0/Buffer.sol\":8266:8277  newCapacity */\n      dup2\n        /* \"@chainlink/contracts@1.1.1/src/v0.8/vendor/@ensdomains/buffer/v0.1.0/Buffer.sol\":8266:8292  newCapacity > buf.capacity */\n      gt\n        /* \"@chainlink/contracts@1.1.1/src/v0.8/vendor/@ensdomains/buffer/v0.1.0/Buffer.sol\":8262:8347  if (newCapacity > buf.capacity) {... */\n      iszero\n      tag_275\n      jumpi\n        /* \"@chainlink/contracts@1.1.1/src/v0.8/vendor/@ensdomains/buffer/v0.1.0/Buffer.sol\":8308:8336  resize(buf, newCapacity * 2) */\n      tag_276\n        /* \"@chainlink/contracts@1.1.1/src/v0.8/vendor/@ensdomains/buffer/v0.1.0/Buffer.sol\":8315:8318  buf */\n      dup7\n        /* \"@chainlink/contracts@1.1.1/src/v0.8/vendor/@ensdomains/buffer/v0.1.0/Buffer.sol\":8334:8335  2 */\n      0x02\n        /* \"@chainlink/contracts@1.1.1/src/v0.8/vendor/@ensdomains/buffer/v0.1.0/Buffer.sol\":8320:8331  newCapacity */\n      dup4\n        /* \"@chainlink/contracts@1.1.1/src/v0.8/vendor/@ensdomains/buffer/v0.1.0/Buffer.sol\":8320:8335  newCapacity * 2 */\n      tag_277\n      swap2\n      swap1\n      tag_267\n      jump\t// in\n    tag_277:\n        /* \"@chainlink/contracts@1.1.1/src/v0.8/vendor/@ensdomains/buffer/v0.1.0/Buffer.sol\":8308:8314  resize */\n      tag_268\n        /* \"@chainlink/contracts@1.1.1/src/v0.8/vendor/@ensdomains/buffer/v0.1.0/Buffer.sol\":8308:8336  resize(buf, newCapacity * 2) */\n      jump\t// in\n    tag_276:\n        /* \"@chainlink/contracts@1.1.1/src/v0.8/vendor/@ensdomains/buffer/v0.1.0/Buffer.sol\":8262:8347  if (newCapacity > buf.capacity) {... */\n    tag_275:\n        /* \"@chainlink/contracts@1.1.1/src/v0.8/vendor/@ensdomains/buffer/v0.1.0/Buffer.sol\":8357:8366  uint mask */\n      0x00\n        /* \"@chainlink/contracts@1.1.1/src/v0.8/vendor/@ensdomains/buffer/v0.1.0/Buffer.sol\":8384:8385  1 */\n      0x01\n        /* \"@chainlink/contracts@1.1.1/src/v0.8/vendor/@ensdomains/buffer/v0.1.0/Buffer.sol\":8377:8380  len */\n      dup6\n        /* \"@chainlink/contracts@1.1.1/src/v0.8/vendor/@ensdomains/buffer/v0.1.0/Buffer.sol\":8370:8373  256 */\n      0x0100\n        /* \"@chainlink/contracts@1.1.1/src/v0.8/vendor/@ensdomains/buffer/v0.1.0/Buffer.sol\":8370:8380  256 ** len */\n      tag_278\n      swap2\n      swap1\n      tag_279\n      jump\t// in\n    tag_278:\n        /* \"@chainlink/contracts@1.1.1/src/v0.8/vendor/@ensdomains/buffer/v0.1.0/Buffer.sol\":8369:8385  (256 ** len) - 1 */\n      tag_280\n      swap2\n      swap1\n      tag_224\n      jump\t// in\n    tag_280:\n        /* \"@chainlink/contracts@1.1.1/src/v0.8/vendor/@ensdomains/buffer/v0.1.0/Buffer.sol\":8357:8385  uint mask = (256 ** len) - 1 */\n      swap1\n      pop\n        /* \"@chainlink/contracts@1.1.1/src/v0.8/vendor/@ensdomains/buffer/v0.1.0/Buffer.sol\":8487:8490  buf */\n      dup7\n        /* \"@chainlink/contracts@1.1.1/src/v0.8/vendor/@ensdomains/buffer/v0.1.0/Buffer.sol\":8481:8491  mload(buf) */\n      mload\n        /* \"@chainlink/contracts@1.1.1/src/v0.8/vendor/@ensdomains/buffer/v0.1.0/Buffer.sol\":8606:8617  newCapacity */\n      dup3\n        /* \"@chainlink/contracts@1.1.1/src/v0.8/vendor/@ensdomains/buffer/v0.1.0/Buffer.sol\":8598:8604  bufptr */\n      dup2\n        /* \"@chainlink/contracts@1.1.1/src/v0.8/vendor/@ensdomains/buffer/v0.1.0/Buffer.sol\":8594:8618  add(bufptr, newCapacity) */\n      add\n        /* \"@chainlink/contracts@1.1.1/src/v0.8/vendor/@ensdomains/buffer/v0.1.0/Buffer.sol\":8676:8680  data */\n      dup8\n        /* \"@chainlink/contracts@1.1.1/src/v0.8/vendor/@ensdomains/buffer/v0.1.0/Buffer.sol\":8668:8672  mask */\n      dup4\n        /* \"@chainlink/contracts@1.1.1/src/v0.8/vendor/@ensdomains/buffer/v0.1.0/Buffer.sol\":8664:8673  not(mask) */\n      not\n        /* \"@chainlink/contracts@1.1.1/src/v0.8/vendor/@ensdomains/buffer/v0.1.0/Buffer.sol\":8657:8661  dest */\n      dup3\n        /* \"@chainlink/contracts@1.1.1/src/v0.8/vendor/@ensdomains/buffer/v0.1.0/Buffer.sol\":8651:8662  mload(dest) */\n      mload\n        /* \"@chainlink/contracts@1.1.1/src/v0.8/vendor/@ensdomains/buffer/v0.1.0/Buffer.sol\":8647:8674  and(mload(dest), not(mask)) */\n      and\n        /* \"@chainlink/contracts@1.1.1/src/v0.8/vendor/@ensdomains/buffer/v0.1.0/Buffer.sol\":8644:8681  or(and(mload(dest), not(mask)), data) */\n      or\n        /* \"@chainlink/contracts@1.1.1/src/v0.8/vendor/@ensdomains/buffer/v0.1.0/Buffer.sol\":8638:8642  dest */\n      dup2\n        /* \"@chainlink/contracts@1.1.1/src/v0.8/vendor/@ensdomains/buffer/v0.1.0/Buffer.sol\":8631:8682  mstore(dest, or(and(mload(dest), not(mask)), data)) */\n      mstore\n        /* \"@chainlink/contracts@1.1.1/src/v0.8/vendor/@ensdomains/buffer/v0.1.0/Buffer.sol\":8774:8780  bufptr */\n      dup2\n        /* \"@chainlink/contracts@1.1.1/src/v0.8/vendor/@ensdomains/buffer/v0.1.0/Buffer.sol\":8768:8781  mload(bufptr) */\n      mload\n        /* \"@chainlink/contracts@1.1.1/src/v0.8/vendor/@ensdomains/buffer/v0.1.0/Buffer.sol\":8755:8766  newCapacity */\n      dup5\n        /* \"@chainlink/contracts@1.1.1/src/v0.8/vendor/@ensdomains/buffer/v0.1.0/Buffer.sol\":8752:8782  gt(newCapacity, mload(bufptr)) */\n      gt\n        /* \"@chainlink/contracts@1.1.1/src/v0.8/vendor/@ensdomains/buffer/v0.1.0/Buffer.sol\":8749:8842  if gt(newCapacity, mload(bufptr)) {... */\n      iszero\n      tag_281\n      jumpi\n        /* \"@chainlink/contracts@1.1.1/src/v0.8/vendor/@ensdomains/buffer/v0.1.0/Buffer.sol\":8816:8827  newCapacity */\n      dup4\n        /* \"@chainlink/contracts@1.1.1/src/v0.8/vendor/@ensdomains/buffer/v0.1.0/Buffer.sol\":8808:8814  bufptr */\n      dup3\n        /* \"@chainlink/contracts@1.1.1/src/v0.8/vendor/@ensdomains/buffer/v0.1.0/Buffer.sol\":8801:8828  mstore(bufptr, newCapacity) */\n      mstore\n        /* \"@chainlink/contracts@1.1.1/src/v0.8/vendor/@ensdomains/buffer/v0.1.0/Buffer.sol\":8749:8842  if gt(newCapacity, mload(bufptr)) {... */\n    tag_281:\n        /* \"@chainlink/contracts@1.1.1/src/v0.8/vendor/@ensdomains/buffer/v0.1.0/Buffer.sol\":8404:8852  {... */\n      pop\n      pop\n        /* \"@chainlink/contracts@1.1.1/src/v0.8/vendor/@ensdomains/buffer/v0.1.0/Buffer.sol\":8868:8871  buf */\n      dup7\n        /* \"@chainlink/contracts@1.1.1/src/v0.8/vendor/@ensdomains/buffer/v0.1.0/Buffer.sol\":8861:8871  return buf */\n      swap4\n      pop\n      pop\n      pop\n      pop\n        /* \"@chainlink/contracts@1.1.1/src/v0.8/vendor/@ensdomains/buffer/v0.1.0/Buffer.sol\":8083:8878  function appendInt(buffer memory buf, uint data, uint len) internal pure returns(buffer memory) {... */\n      swap4\n      swap3\n      pop\n      pop\n      pop\n      jump\t// out\n        /* \"@chainlink/contracts@1.1.1/src/v0.8/vendor/@ensdomains/buffer/v0.1.0/Buffer.sol\":2844:4271  function append(buffer memory buf, bytes memory data, uint len) internal pure returns(buffer memory) {... */\n    tag_260:\n        /* \"@chainlink/contracts@1.1.1/src/v0.8/vendor/@ensdomains/buffer/v0.1.0/Buffer.sol\":2930:2943  buffer memory */\n      tag_282\n      tag_229\n      jump\t// in\n    tag_282:\n        /* \"@chainlink/contracts@1.1.1/src/v0.8/vendor/@ensdomains/buffer/v0.1.0/Buffer.sol\":2970:2974  data */\n      dup3\n        /* \"@chainlink/contracts@1.1.1/src/v0.8/vendor/@ensdomains/buffer/v0.1.0/Buffer.sol\":2970:2981  data.length */\n      mload\n        /* \"@chainlink/contracts@1.1.1/src/v0.8/vendor/@ensdomains/buffer/v0.1.0/Buffer.sol\":2963:2966  len */\n      dup3\n        /* \"@chainlink/contracts@1.1.1/src/v0.8/vendor/@ensdomains/buffer/v0.1.0/Buffer.sol\":2963:2981  len <= data.length */\n      gt\n      iszero\n        /* \"@chainlink/contracts@1.1.1/src/v0.8/vendor/@ensdomains/buffer/v0.1.0/Buffer.sol\":2955:2982  require(len <= data.length) */\n      tag_284\n      jumpi\n      0x00\n      dup1\n      revert\n    tag_284:\n        /* \"@chainlink/contracts@1.1.1/src/v0.8/vendor/@ensdomains/buffer/v0.1.0/Buffer.sol\":2993:3001  uint off */\n      0x00\n        /* \"@chainlink/contracts@1.1.1/src/v0.8/vendor/@ensdomains/buffer/v0.1.0/Buffer.sol\":3004:3007  buf */\n      dup5\n        /* \"@chainlink/contracts@1.1.1/src/v0.8/vendor/@ensdomains/buffer/v0.1.0/Buffer.sol\":3004:3011  buf.buf */\n      0x00\n      add\n      mload\n        /* \"@chainlink/contracts@1.1.1/src/v0.8/vendor/@ensdomains/buffer/v0.1.0/Buffer.sol\":3004:3018  buf.buf.length */\n      mload\n        /* \"@chainlink/contracts@1.1.1/src/v0.8/vendor/@ensdomains/buffer/v0.1.0/Buffer.sol\":2993:3018  uint off = buf.buf.length */\n      swap1\n      pop\n        /* \"@chainlink/contracts@1.1.1/src/v0.8/vendor/@ensdomains/buffer/v0.1.0/Buffer.sol\":3028:3044  uint newCapacity */\n      0x00\n        /* \"@chainlink/contracts@1.1.1/src/v0.8/vendor/@ensdomains/buffer/v0.1.0/Buffer.sol\":3053:3056  len */\n      dup4\n        /* \"@chainlink/contracts@1.1.1/src/v0.8/vendor/@ensdomains/buffer/v0.1.0/Buffer.sol\":3047:3050  off */\n      dup3\n        /* \"@chainlink/contracts@1.1.1/src/v0.8/vendor/@ensdomains/buffer/v0.1.0/Buffer.sol\":3047:3056  off + len */\n      tag_285\n      swap2\n      swap1\n      tag_220\n      jump\t// in\n    tag_285:\n        /* \"@chainlink/contracts@1.1.1/src/v0.8/vendor/@ensdomains/buffer/v0.1.0/Buffer.sol\":3028:3056  uint newCapacity = off + len */\n      swap1\n      pop\n        /* \"@chainlink/contracts@1.1.1/src/v0.8/vendor/@ensdomains/buffer/v0.1.0/Buffer.sol\":3084:3087  buf */\n      dup6\n        /* \"@chainlink/contracts@1.1.1/src/v0.8/vendor/@ensdomains/buffer/v0.1.0/Buffer.sol\":3084:3096  buf.capacity */\n      0x20\n      add\n      mload\n        /* \"@chainlink/contracts@1.1.1/src/v0.8/vendor/@ensdomains/buffer/v0.1.0/Buffer.sol\":3070:3081  newCapacity */\n      dup2\n        /* \"@chainlink/contracts@1.1.1/src/v0.8/vendor/@ensdomains/buffer/v0.1.0/Buffer.sol\":3070:3096  newCapacity > buf.capacity */\n      gt\n        /* \"@chainlink/contracts@1.1.1/src/v0.8/vendor/@ensdomains/buffer/v0.1.0/Buffer.sol\":3066:3151  if (newCapacity > buf.capacity) {... */\n      iszero\n      tag_286\n      jumpi\n        /* \"@chainlink/contracts@1.1.1/src/v0.8/vendor/@ensdomains/buffer/v0.1.0/Buffer.sol\":3112:3140  resize(buf, newCapacity * 2) */\n      tag_287\n        /* \"@chainlink/contracts@1.1.1/src/v0.8/vendor/@ensdomains/buffer/v0.1.0/Buffer.sol\":3119:3122  buf */\n      dup7\n        /* \"@chainlink/contracts@1.1.1/src/v0.8/vendor/@ensdomains/buffer/v0.1.0/Buffer.sol\":3138:3139  2 */\n      0x02\n        /* \"@chainlink/contracts@1.1.1/src/v0.8/vendor/@ensdomains/buffer/v0.1.0/Buffer.sol\":3124:3135  newCapacity */\n      dup4\n        /* \"@chainlink/contracts@1.1.1/src/v0.8/vendor/@ensdomains/buffer/v0.1.0/Buffer.sol\":3124:3139  newCapacity * 2 */\n      tag_288\n      swap2\n      swap1\n      tag_267\n      jump\t// in\n    tag_288:\n        /* \"@chainlink/contracts@1.1.1/src/v0.8/vendor/@ensdomains/buffer/v0.1.0/Buffer.sol\":3112:3118  resize */\n      tag_268\n        /* \"@chainlink/contracts@1.1.1/src/v0.8/vendor/@ensdomains/buffer/v0.1.0/Buffer.sol\":3112:3140  resize(buf, newCapacity * 2) */\n      jump\t// in\n    tag_287:\n        /* \"@chainlink/contracts@1.1.1/src/v0.8/vendor/@ensdomains/buffer/v0.1.0/Buffer.sol\":3066:3151  if (newCapacity > buf.capacity) {... */\n    tag_286:\n        /* \"@chainlink/contracts@1.1.1/src/v0.8/vendor/@ensdomains/buffer/v0.1.0/Buffer.sol\":3161:3170  uint dest */\n      0x00\n        /* \"@chainlink/contracts@1.1.1/src/v0.8/vendor/@ensdomains/buffer/v0.1.0/Buffer.sol\":3180:3188  uint src */\n      dup1\n        /* \"@chainlink/contracts@1.1.1/src/v0.8/vendor/@ensdomains/buffer/v0.1.0/Buffer.sol\":3290:3293  buf */\n      dup8\n        /* \"@chainlink/contracts@1.1.1/src/v0.8/vendor/@ensdomains/buffer/v0.1.0/Buffer.sol\":3284:3294  mload(buf) */\n      mload\n        /* \"@chainlink/contracts@1.1.1/src/v0.8/vendor/@ensdomains/buffer/v0.1.0/Buffer.sol\":3373:3379  bufptr */\n      dup1\n        /* \"@chainlink/contracts@1.1.1/src/v0.8/vendor/@ensdomains/buffer/v0.1.0/Buffer.sol\":3367:3380  mload(bufptr) */\n      mload\n        /* \"@chainlink/contracts@1.1.1/src/v0.8/vendor/@ensdomains/buffer/v0.1.0/Buffer.sol\":3501:3504  off */\n      dup6\n        /* \"@chainlink/contracts@1.1.1/src/v0.8/vendor/@ensdomains/buffer/v0.1.0/Buffer.sol\":3496:3498  32 */\n      0x20\n        /* \"@chainlink/contracts@1.1.1/src/v0.8/vendor/@ensdomains/buffer/v0.1.0/Buffer.sol\":3488:3494  bufptr */\n      dup4\n        /* \"@chainlink/contracts@1.1.1/src/v0.8/vendor/@ensdomains/buffer/v0.1.0/Buffer.sol\":3484:3499  add(bufptr, 32) */\n      add\n        /* \"@chainlink/contracts@1.1.1/src/v0.8/vendor/@ensdomains/buffer/v0.1.0/Buffer.sol\":3480:3505  add(add(bufptr, 32), off) */\n      add\n        /* \"@chainlink/contracts@1.1.1/src/v0.8/vendor/@ensdomains/buffer/v0.1.0/Buffer.sol\":3472:3505  dest := add(add(bufptr, 32), off) */\n      swap4\n      pop\n        /* \"@chainlink/contracts@1.1.1/src/v0.8/vendor/@ensdomains/buffer/v0.1.0/Buffer.sol\":3595:3601  buflen */\n      dup1\n        /* \"@chainlink/contracts@1.1.1/src/v0.8/vendor/@ensdomains/buffer/v0.1.0/Buffer.sol\":3582:3593  newCapacity */\n      dup6\n        /* \"@chainlink/contracts@1.1.1/src/v0.8/vendor/@ensdomains/buffer/v0.1.0/Buffer.sol\":3579:3602  gt(newCapacity, buflen) */\n      gt\n        /* \"@chainlink/contracts@1.1.1/src/v0.8/vendor/@ensdomains/buffer/v0.1.0/Buffer.sol\":3576:3662  if gt(newCapacity, buflen) {... */\n      iszero\n      tag_289\n      jumpi\n        /* \"@chainlink/contracts@1.1.1/src/v0.8/vendor/@ensdomains/buffer/v0.1.0/Buffer.sol\":3636:3647  newCapacity */\n      dup5\n        /* \"@chainlink/contracts@1.1.1/src/v0.8/vendor/@ensdomains/buffer/v0.1.0/Buffer.sol\":3628:3634  bufptr */\n      dup3\n        /* \"@chainlink/contracts@1.1.1/src/v0.8/vendor/@ensdomains/buffer/v0.1.0/Buffer.sol\":3621:3648  mstore(bufptr, newCapacity) */\n      mstore\n        /* \"@chainlink/contracts@1.1.1/src/v0.8/vendor/@ensdomains/buffer/v0.1.0/Buffer.sol\":3576:3662  if gt(newCapacity, buflen) {... */\n    tag_289:\n        /* \"@chainlink/contracts@1.1.1/src/v0.8/vendor/@ensdomains/buffer/v0.1.0/Buffer.sol\":3692:3694  32 */\n      0x20\n        /* \"@chainlink/contracts@1.1.1/src/v0.8/vendor/@ensdomains/buffer/v0.1.0/Buffer.sol\":3686:3690  data */\n      dup10\n        /* \"@chainlink/contracts@1.1.1/src/v0.8/vendor/@ensdomains/buffer/v0.1.0/Buffer.sol\":3682:3695  add(data, 32) */\n      add\n        /* \"@chainlink/contracts@1.1.1/src/v0.8/vendor/@ensdomains/buffer/v0.1.0/Buffer.sol\":3675:3695  src := add(data, 32) */\n      swap3\n      pop\n        /* \"@chainlink/contracts@1.1.1/src/v0.8/vendor/@ensdomains/buffer/v0.1.0/Buffer.sol\":3207:3705  {... */\n      pop\n      pop\n        /* \"@chainlink/contracts@1.1.1/src/v0.8/vendor/@ensdomains/buffer/v0.1.0/Buffer.sol\":3765:3930  for (; len >= 32; len -= 32) {... */\n    tag_290:\n        /* \"@chainlink/contracts@1.1.1/src/v0.8/vendor/@ensdomains/buffer/v0.1.0/Buffer.sol\":3779:3781  32 */\n      0x20\n        /* \"@chainlink/contracts@1.1.1/src/v0.8/vendor/@ensdomains/buffer/v0.1.0/Buffer.sol\":3772:3775  len */\n      dup7\n        /* \"@chainlink/contracts@1.1.1/src/v0.8/vendor/@ensdomains/buffer/v0.1.0/Buffer.sol\":3772:3781  len >= 32 */\n      lt\n        /* \"@chainlink/contracts@1.1.1/src/v0.8/vendor/@ensdomains/buffer/v0.1.0/Buffer.sol\":3765:3930  for (; len >= 32; len -= 32) {... */\n      tag_291\n      jumpi\n        /* \"@chainlink/contracts@1.1.1/src/v0.8/vendor/@ensdomains/buffer/v0.1.0/Buffer.sol\":3854:3857  src */\n      dup1\n        /* \"@chainlink/contracts@1.1.1/src/v0.8/vendor/@ensdomains/buffer/v0.1.0/Buffer.sol\":3848:3858  mload(src) */\n      mload\n        /* \"@chainlink/contracts@1.1.1/src/v0.8/vendor/@ensdomains/buffer/v0.1.0/Buffer.sol\":3842:3846  dest */\n      dup3\n        /* \"@chainlink/contracts@1.1.1/src/v0.8/vendor/@ensdomains/buffer/v0.1.0/Buffer.sol\":3835:3859  mstore(dest, mload(src)) */\n      mstore\n        /* \"@chainlink/contracts@1.1.1/src/v0.8/vendor/@ensdomains/buffer/v0.1.0/Buffer.sol\":3894:3896  32 */\n      0x20\n        /* \"@chainlink/contracts@1.1.1/src/v0.8/vendor/@ensdomains/buffer/v0.1.0/Buffer.sol\":3886:3896  dest += 32 */\n      dup3\n      tag_293\n      swap2\n      swap1\n      tag_220\n      jump\t// in\n    tag_293:\n      swap2\n      pop\n        /* \"@chainlink/contracts@1.1.1/src/v0.8/vendor/@ensdomains/buffer/v0.1.0/Buffer.sol\":3917:3919  32 */\n      0x20\n        /* \"@chainlink/contracts@1.1.1/src/v0.8/vendor/@ensdomains/buffer/v0.1.0/Buffer.sol\":3910:3919  src += 32 */\n      dup2\n      tag_294\n      swap2\n      swap1\n      tag_220\n      jump\t// in\n    tag_294:\n      swap1\n      pop\n        /* \"@chainlink/contracts@1.1.1/src/v0.8/vendor/@ensdomains/buffer/v0.1.0/Buffer.sol\":3790:3792  32 */\n      0x20\n        /* \"@chainlink/contracts@1.1.1/src/v0.8/vendor/@ensdomains/buffer/v0.1.0/Buffer.sol\":3783:3792  len -= 32 */\n      dup7\n      tag_295\n      swap2\n      swap1\n      tag_224\n      jump\t// in\n    tag_295:\n      swap6\n      pop\n        /* \"@chainlink/contracts@1.1.1/src/v0.8/vendor/@ensdomains/buffer/v0.1.0/Buffer.sol\":3765:3930  for (; len >= 32; len -= 32) {... */\n      jump(tag_290)\n    tag_291:\n        /* \"@chainlink/contracts@1.1.1/src/v0.8/vendor/@ensdomains/buffer/v0.1.0/Buffer.sol\":3996:4005  uint mask */\n      0x00\n        /* \"@chainlink/contracts@1.1.1/src/v0.8/vendor/@ensdomains/buffer/v0.1.0/Buffer.sol\":4030:4031  1 */\n      0x01\n        /* \"@chainlink/contracts@1.1.1/src/v0.8/vendor/@ensdomains/buffer/v0.1.0/Buffer.sol\":4022:4025  len */\n      dup8\n        /* \"@chainlink/contracts@1.1.1/src/v0.8/vendor/@ensdomains/buffer/v0.1.0/Buffer.sol\":4017:4019  32 */\n      0x20\n        /* \"@chainlink/contracts@1.1.1/src/v0.8/vendor/@ensdomains/buffer/v0.1.0/Buffer.sol\":4017:4025  32 - len */\n      sub\n        /* \"@chainlink/contracts@1.1.1/src/v0.8/vendor/@ensdomains/buffer/v0.1.0/Buffer.sol\":4009:4012  256 */\n      0x0100\n        /* \"@chainlink/contracts@1.1.1/src/v0.8/vendor/@ensdomains/buffer/v0.1.0/Buffer.sol\":4009:4026  256 ** (32 - len) */\n      exp\n        /* \"@chainlink/contracts@1.1.1/src/v0.8/vendor/@ensdomains/buffer/v0.1.0/Buffer.sol\":4008:4031  (256 ** (32 - len)) - 1 */\n      sub\n        /* \"@chainlink/contracts@1.1.1/src/v0.8/vendor/@ensdomains/buffer/v0.1.0/Buffer.sol\":3996:4031  uint mask = (256 ** (32 - len)) - 1 */\n      swap1\n      pop\n        /* \"@chainlink/contracts@1.1.1/src/v0.8/vendor/@ensdomains/buffer/v0.1.0/Buffer.sol\":4107:4111  mask */\n      dup1\n        /* \"@chainlink/contracts@1.1.1/src/v0.8/vendor/@ensdomains/buffer/v0.1.0/Buffer.sol\":4103:4112  not(mask) */\n      not\n        /* \"@chainlink/contracts@1.1.1/src/v0.8/vendor/@ensdomains/buffer/v0.1.0/Buffer.sol\":4097:4100  src */\n      dup3\n        /* \"@chainlink/contracts@1.1.1/src/v0.8/vendor/@ensdomains/buffer/v0.1.0/Buffer.sol\":4091:4101  mload(src) */\n      mload\n        /* \"@chainlink/contracts@1.1.1/src/v0.8/vendor/@ensdomains/buffer/v0.1.0/Buffer.sol\":4087:4113  and(mload(src), not(mask)) */\n      and\n        /* \"@chainlink/contracts@1.1.1/src/v0.8/vendor/@ensdomains/buffer/v0.1.0/Buffer.sol\":4163:4167  mask */\n      dup2\n        /* \"@chainlink/contracts@1.1.1/src/v0.8/vendor/@ensdomains/buffer/v0.1.0/Buffer.sol\":4156:4160  dest */\n      dup5\n        /* \"@chainlink/contracts@1.1.1/src/v0.8/vendor/@ensdomains/buffer/v0.1.0/Buffer.sol\":4150:4161  mload(dest) */\n      mload\n        /* \"@chainlink/contracts@1.1.1/src/v0.8/vendor/@ensdomains/buffer/v0.1.0/Buffer.sol\":4146:4168  and(mload(dest), mask) */\n      and\n        /* \"@chainlink/contracts@1.1.1/src/v0.8/vendor/@ensdomains/buffer/v0.1.0/Buffer.sol\":4211:4218  srcpart */\n      dup2\n        /* \"@chainlink/contracts@1.1.1/src/v0.8/vendor/@ensdomains/buffer/v0.1.0/Buffer.sol\":4201:4209  destpart */\n      dup2\n        /* \"@chainlink/contracts@1.1.1/src/v0.8/vendor/@ensdomains/buffer/v0.1.0/Buffer.sol\":4198:4219  or(destpart, srcpart) */\n      or\n        /* \"@chainlink/contracts@1.1.1/src/v0.8/vendor/@ensdomains/buffer/v0.1.0/Buffer.sol\":4192:4196  dest */\n      dup6\n        /* \"@chainlink/contracts@1.1.1/src/v0.8/vendor/@ensdomains/buffer/v0.1.0/Buffer.sol\":4185:4220  mstore(dest, or(destpart, srcpart)) */\n      mstore\n        /* \"@chainlink/contracts@1.1.1/src/v0.8/vendor/@ensdomains/buffer/v0.1.0/Buffer.sol\":4054:4234  {... */\n      pop\n      pop\n      pop\n        /* \"@chainlink/contracts@1.1.1/src/v0.8/vendor/@ensdomains/buffer/v0.1.0/Buffer.sol\":4261:4264  buf */\n      dup8\n        /* \"@chainlink/contracts@1.1.1/src/v0.8/vendor/@ensdomains/buffer/v0.1.0/Buffer.sol\":4254:4264  return buf */\n      swap5\n      pop\n      pop\n      pop\n      pop\n      pop\n        /* \"@chainlink/contracts@1.1.1/src/v0.8/vendor/@ensdomains/buffer/v0.1.0/Buffer.sol\":2844:4271  function append(buffer memory buf, bytes memory data, uint len) internal pure returns(buffer memory) {... */\n      swap4\n      swap3\n      pop\n      pop\n      pop\n      jump\t// out\n        /* \"@chainlink/contracts@1.1.1/src/v0.8/vendor/@ensdomains/buffer/v0.1.0/Buffer.sol\":2004:2171  function resize(buffer memory buf, uint capacity) private pure {... */\n    tag_268:\n        /* \"@chainlink/contracts@1.1.1/src/v0.8/vendor/@ensdomains/buffer/v0.1.0/Buffer.sol\":2077:2096  bytes memory oldbuf */\n      0x00\n        /* \"@chainlink/contracts@1.1.1/src/v0.8/vendor/@ensdomains/buffer/v0.1.0/Buffer.sol\":2099:2102  buf */\n      dup3\n        /* \"@chainlink/contracts@1.1.1/src/v0.8/vendor/@ensdomains/buffer/v0.1.0/Buffer.sol\":2099:2106  buf.buf */\n      0x00\n      add\n      mload\n        /* \"@chainlink/contracts@1.1.1/src/v0.8/vendor/@ensdomains/buffer/v0.1.0/Buffer.sol\":2077:2106  bytes memory oldbuf = buf.buf */\n      swap1\n      pop\n        /* \"@chainlink/contracts@1.1.1/src/v0.8/vendor/@ensdomains/buffer/v0.1.0/Buffer.sol\":2116:2135  init(buf, capacity) */\n      tag_297\n        /* \"@chainlink/contracts@1.1.1/src/v0.8/vendor/@ensdomains/buffer/v0.1.0/Buffer.sol\":2121:2124  buf */\n      dup4\n        /* \"@chainlink/contracts@1.1.1/src/v0.8/vendor/@ensdomains/buffer/v0.1.0/Buffer.sol\":2126:2134  capacity */\n      dup4\n        /* \"@chainlink/contracts@1.1.1/src/v0.8/vendor/@ensdomains/buffer/v0.1.0/Buffer.sol\":2116:2120  init */\n      tag_205\n        /* \"@chainlink/contracts@1.1.1/src/v0.8/vendor/@ensdomains/buffer/v0.1.0/Buffer.sol\":2116:2135  init(buf, capacity) */\n      jump\t// in\n    tag_297:\n      pop\n        /* \"@chainlink/contracts@1.1.1/src/v0.8/vendor/@ensdomains/buffer/v0.1.0/Buffer.sol\":2145:2164  append(buf, oldbuf) */\n      tag_298\n        /* \"@chainlink/contracts@1.1.1/src/v0.8/vendor/@ensdomains/buffer/v0.1.0/Buffer.sol\":2152:2155  buf */\n      dup4\n        /* \"@chainlink/contracts@1.1.1/src/v0.8/vendor/@ensdomains/buffer/v0.1.0/Buffer.sol\":2157:2163  oldbuf */\n      dup3\n        /* \"@chainlink/contracts@1.1.1/src/v0.8/vendor/@ensdomains/buffer/v0.1.0/Buffer.sol\":2145:2151  append */\n      tag_210\n        /* \"@chainlink/contracts@1.1.1/src/v0.8/vendor/@ensdomains/buffer/v0.1.0/Buffer.sol\":2145:2164  append(buf, oldbuf) */\n      jump\t// in\n    tag_298:\n      pop\n        /* \"@chainlink/contracts@1.1.1/src/v0.8/vendor/@ensdomains/buffer/v0.1.0/Buffer.sol\":2067:2171  {... */\n      pop\n        /* \"@chainlink/contracts@1.1.1/src/v0.8/vendor/@ensdomains/buffer/v0.1.0/Buffer.sol\":2004:2171  function resize(buffer memory buf, uint capacity) private pure {... */\n      pop\n      pop\n      jump\t// out\n    tag_69:\n      mload(0x40)\n      dup1\n      0xe0\n      add\n      0x40\n      mstore\n      dup1\n      0x00\n      0x02\n      dup2\n      gt\n      iszero\n      tag_299\n      jumpi\n      tag_300\n      tag_133\n      jump\t// in\n    tag_300:\n    tag_299:\n      dup2\n      mstore\n      0x20\n      add\n      0x00\n      0x02\n      dup2\n      gt\n      iszero\n      tag_301\n      jumpi\n      tag_302\n      tag_133\n      jump\t// in\n    tag_302:\n    tag_301:\n      dup2\n      mstore\n      0x20\n      add\n      0x00\n      dup1\n      dup2\n      gt\n      iszero\n      tag_303\n      jumpi\n      tag_304\n      tag_133\n      jump\t// in\n    tag_304:\n    tag_303:\n      dup2\n      mstore\n      0x20\n      add\n      0x60\n      dup2\n      mstore\n      0x20\n      add\n      0x60\n      dup2\n      mstore\n      0x20\n      add\n      0x60\n      dup2\n      mstore\n      0x20\n      add\n      0x60\n      dup2\n      mstore\n      pop\n      swap1\n      jump\t// out\n    tag_202:\n      mload(0x40)\n      dup1\n      0x40\n      add\n      0x40\n      mstore\n      dup1\n      tag_305\n      tag_229\n      jump\t// in\n    tag_305:\n      dup2\n      mstore\n      0x20\n      add\n      0x00\n      dup2\n      mstore\n      pop\n      swap1\n      jump\t// out\n    tag_229:\n      mload(0x40)\n      dup1\n      0x40\n      add\n      0x40\n      mstore\n      dup1\n      0x60\n      dup2\n      mstore\n      0x20\n      add\n      0x00\n      dup2\n      mstore\n      pop\n      swap1\n      jump\t// out\n        /* \"#utility.yul\":7:82   */\n    tag_306:\n        /* \"#utility.yul\":40:46   */\n      0x00\n        /* \"#utility.yul\":73:75   */\n      0x40\n        /* \"#utility.yul\":67:76   */\n      mload\n        /* \"#utility.yul\":57:76   */\n      swap1\n      pop\n        /* \"#utility.yul\":7:82   */\n      swap1\n      jump\t// out\n        /* \"#utility.yul\":88:205   */\n    tag_307:\n        /* \"#utility.yul\":197:198   */\n      0x00\n        /* \"#utility.yul\":194:195   */\n      dup1\n        /* \"#utility.yul\":187:199   */\n      revert\n        /* \"#utility.yul\":211:328   */\n    tag_308:\n        /* \"#utility.yul\":320:321   */\n      0x00\n        /* \"#utility.yul\":317:318   */\n      dup1\n        /* \"#utility.yul\":310:322   */\n      revert\n        /* \"#utility.yul\":334:411   */\n    tag_309:\n        /* \"#utility.yul\":371:378   */\n      0x00\n        /* \"#utility.yul\":400:405   */\n      dup2\n        /* \"#utility.yul\":389:405   */\n      swap1\n      pop\n        /* \"#utility.yul\":334:411   */\n      swap2\n      swap1\n      pop\n      jump\t// out\n        /* \"#utility.yul\":417:539   */\n    tag_310:\n        /* \"#utility.yul\":490:514   */\n      tag_388\n        /* \"#utility.yul\":508:513   */\n      dup2\n        /* \"#utility.yul\":490:514   */\n      tag_309\n      jump\t// in\n    tag_388:\n        /* \"#utility.yul\":483:488   */\n      dup2\n        /* \"#utility.yul\":480:515   */\n      eq\n        /* \"#utility.yul\":470:533   */\n      tag_389\n      jumpi\n        /* \"#utility.yul\":529:530   */\n      0x00\n        /* \"#utility.yul\":526:527   */\n      dup1\n        /* \"#utility.yul\":519:531   */\n      revert\n        /* \"#utility.yul\":470:533   */\n    tag_389:\n        /* \"#utility.yul\":417:539   */\n      pop\n      jump\t// out\n        /* \"#utility.yul\":545:684   */\n    tag_311:\n        /* \"#utility.yul\":591:596   */\n      0x00\n        /* \"#utility.yul\":629:635   */\n      dup2\n        /* \"#utility.yul\":616:636   */\n      calldataload\n        /* \"#utility.yul\":607:636   */\n      swap1\n      pop\n        /* \"#utility.yul\":645:678   */\n      tag_391\n        /* \"#utility.yul\":672:677   */\n      dup2\n        /* \"#utility.yul\":645:678   */\n      tag_310\n      jump\t// in\n    tag_391:\n        /* \"#utility.yul\":545:684   */\n      swap3\n      swap2\n      pop\n      pop\n      jump\t// out\n        /* \"#utility.yul\":690:807   */\n    tag_312:\n        /* \"#utility.yul\":799:800   */\n      0x00\n        /* \"#utility.yul\":796:797   */\n      dup1\n        /* \"#utility.yul\":789:801   */\n      revert\n        /* \"#utility.yul\":813:930   */\n    tag_313:\n        /* \"#utility.yul\":922:923   */\n      0x00\n        /* \"#utility.yul\":919:920   */\n      dup1\n        /* \"#utility.yul\":912:924   */\n      revert\n        /* \"#utility.yul\":936:1038   */\n    tag_314:\n        /* \"#utility.yul\":977:983   */\n      0x00\n        /* \"#utility.yul\":1028:1030   */\n      0x1f\n        /* \"#utility.yul\":1024:1031   */\n      not\n        /* \"#utility.yul\":1019:1021   */\n      0x1f\n        /* \"#utility.yul\":1012:1017   */\n      dup4\n        /* \"#utility.yul\":1008:1022   */\n      add\n        /* \"#utility.yul\":1004:1032   */\n      and\n        /* \"#utility.yul\":994:1032   */\n      swap1\n      pop\n        /* \"#utility.yul\":936:1038   */\n      swap2\n      swap1\n      pop\n      jump\t// out\n        /* \"#utility.yul\":1044:1224   */\n    tag_315:\n        /* \"#utility.yul\":1092:1169   */\n      0x4e487b7100000000000000000000000000000000000000000000000000000000\n        /* \"#utility.yul\":1089:1090   */\n      0x00\n        /* \"#utility.yul\":1082:1170   */\n      mstore\n        /* \"#utility.yul\":1189:1193   */\n      0x41\n        /* \"#utility.yul\":1186:1187   */\n      0x04\n        /* \"#utility.yul\":1179:1194   */\n      mstore\n        /* \"#utility.yul\":1213:1217   */\n      0x24\n        /* \"#utility.yul\":1210:1211   */\n      0x00\n        /* \"#utility.yul\":1203:1218   */\n      revert\n        /* \"#utility.yul\":1230:1511   */\n    tag_316:\n        /* \"#utility.yul\":1313:1340   */\n      tag_397\n        /* \"#utility.yul\":1335:1339   */\n      dup3\n        /* \"#utility.yul\":1313:1340   */\n      tag_314\n      jump\t// in\n    tag_397:\n        /* \"#utility.yul\":1305:1311   */\n      dup2\n        /* \"#utility.yul\":1301:1341   */\n      add\n        /* \"#utility.yul\":1443:1449   */\n      dup2\n        /* \"#utility.yul\":1431:1441   */\n      dup2\n        /* \"#utility.yul\":1428:1450   */\n      lt\n        /* \"#utility.yul\":1407:1425   */\n      0xffffffffffffffff\n        /* \"#utility.yul\":1395:1405   */\n      dup3\n        /* \"#utility.yul\":1392:1426   */\n      gt\n        /* \"#utility.yul\":1389:1451   */\n      or\n        /* \"#utility.yul\":1386:1474   */\n      iszero\n      tag_398\n      jumpi\n        /* \"#utility.yul\":1454:1472   */\n      tag_399\n      tag_315\n      jump\t// in\n    tag_399:\n        /* \"#utility.yul\":1386:1474   */\n    tag_398:\n        /* \"#utility.yul\":1494:1504   */\n      dup1\n        /* \"#utility.yul\":1490:1492   */\n      0x40\n        /* \"#utility.yul\":1483:1505   */\n      mstore\n        /* \"#utility.yul\":1273:1511   */\n      pop\n        /* \"#utility.yul\":1230:1511   */\n      pop\n      pop\n      jump\t// out\n        /* \"#utility.yul\":1517:1646   */\n    tag_317:\n        /* \"#utility.yul\":1551:1557   */\n      0x00\n        /* \"#utility.yul\":1578:1598   */\n      tag_401\n      tag_306\n      jump\t// in\n    tag_401:\n        /* \"#utility.yul\":1568:1598   */\n      swap1\n      pop\n        /* \"#utility.yul\":1607:1640   */\n      tag_402\n        /* \"#utility.yul\":1635:1639   */\n      dup3\n        /* \"#utility.yul\":1627:1633   */\n      dup3\n        /* \"#utility.yul\":1607:1640   */\n      tag_316\n      jump\t// in\n    tag_402:\n        /* \"#utility.yul\":1517:1646   */\n      swap2\n      swap1\n      pop\n      jump\t// out\n        /* \"#utility.yul\":1652:1959   */\n    tag_318:\n        /* \"#utility.yul\":1713:1717   */\n      0x00\n        /* \"#utility.yul\":1803:1821   */\n      0xffffffffffffffff\n        /* \"#utility.yul\":1795:1801   */\n      dup3\n        /* \"#utility.yul\":1792:1822   */\n      gt\n        /* \"#utility.yul\":1789:1845   */\n      iszero\n      tag_404\n      jumpi\n        /* \"#utility.yul\":1825:1843   */\n      tag_405\n      tag_315\n      jump\t// in\n    tag_405:\n        /* \"#utility.yul\":1789:1845   */\n    tag_404:\n        /* \"#utility.yul\":1863:1892   */\n      tag_406\n        /* \"#utility.yul\":1885:1891   */\n      dup3\n        /* \"#utility.yul\":1863:1892   */\n      tag_314\n      jump\t// in\n    tag_406:\n        /* \"#utility.yul\":1855:1892   */\n      swap1\n      pop\n        /* \"#utility.yul\":1947:1951   */\n      0x20\n        /* \"#utility.yul\":1941:1945   */\n      dup2\n        /* \"#utility.yul\":1937:1952   */\n      add\n        /* \"#utility.yul\":1929:1952   */\n      swap1\n      pop\n        /* \"#utility.yul\":1652:1959   */\n      swap2\n      swap1\n      pop\n      jump\t// out\n        /* \"#utility.yul\":1965:2111   */\n    tag_319:\n        /* \"#utility.yul\":2062:2068   */\n      dup3\n        /* \"#utility.yul\":2057:2060   */\n      dup2\n        /* \"#utility.yul\":2052:2055   */\n      dup4\n        /* \"#utility.yul\":2039:2069   */\n      calldatacopy\n        /* \"#utility.yul\":2103:2104   */\n      0x00\n        /* \"#utility.yul\":2094:2100   */\n      dup4\n        /* \"#utility.yul\":2089:2092   */\n      dup4\n        /* \"#utility.yul\":2085:2101   */\n      add\n        /* \"#utility.yul\":2078:2105   */\n      mstore\n        /* \"#utility.yul\":1965:2111   */\n      pop\n      pop\n      pop\n      jump\t// out\n        /* \"#utility.yul\":2117:2540   */\n    tag_320:\n        /* \"#utility.yul\":2194:2199   */\n      0x00\n        /* \"#utility.yul\":2219:2284   */\n      tag_409\n        /* \"#utility.yul\":2235:2283   */\n      tag_410\n        /* \"#utility.yul\":2276:2282   */\n      dup5\n        /* \"#utility.yul\":2235:2283   */\n      tag_318\n      jump\t// in\n    tag_410:\n        /* \"#utility.yul\":2219:2284   */\n      tag_317\n      jump\t// in\n    tag_409:\n        /* \"#utility.yul\":2210:2284   */\n      swap1\n      pop\n        /* \"#utility.yul\":2307:2313   */\n      dup3\n        /* \"#utility.yul\":2300:2305   */\n      dup2\n        /* \"#utility.yul\":2293:2314   */\n      mstore\n        /* \"#utility.yul\":2345:2349   */\n      0x20\n        /* \"#utility.yul\":2338:2343   */\n      dup2\n        /* \"#utility.yul\":2334:2350   */\n      add\n        /* \"#utility.yul\":2383:2386   */\n      dup5\n        /* \"#utility.yul\":2374:2380   */\n      dup5\n        /* \"#utility.yul\":2369:2372   */\n      dup5\n        /* \"#utility.yul\":2365:2381   */\n      add\n        /* \"#utility.yul\":2362:2387   */\n      gt\n        /* \"#utility.yul\":2359:2471   */\n      iszero\n      tag_411\n      jumpi\n        /* \"#utility.yul\":2390:2469   */\n      tag_412\n      tag_313\n      jump\t// in\n    tag_412:\n        /* \"#utility.yul\":2359:2471   */\n    tag_411:\n        /* \"#utility.yul\":2480:2534   */\n      tag_413\n        /* \"#utility.yul\":2527:2533   */\n      dup5\n        /* \"#utility.yul\":2522:2525   */\n      dup3\n        /* \"#utility.yul\":2517:2520   */\n      dup6\n        /* \"#utility.yul\":2480:2534   */\n      tag_319\n      jump\t// in\n    tag_413:\n        /* \"#utility.yul\":2200:2540   */\n      pop\n        /* \"#utility.yul\":2117:2540   */\n      swap4\n      swap3\n      pop\n      pop\n      pop\n      jump\t// out\n        /* \"#utility.yul\":2559:2897   */\n    tag_321:\n        /* \"#utility.yul\":2614:2619   */\n      0x00\n        /* \"#utility.yul\":2663:2666   */\n      dup3\n        /* \"#utility.yul\":2656:2660   */\n      0x1f\n        /* \"#utility.yul\":2648:2654   */\n      dup4\n        /* \"#utility.yul\":2644:2661   */\n      add\n        /* \"#utility.yul\":2640:2667   */\n      slt\n        /* \"#utility.yul\":2630:2752   */\n      tag_415\n      jumpi\n        /* \"#utility.yul\":2671:2750   */\n      tag_416\n      tag_312\n      jump\t// in\n    tag_416:\n        /* \"#utility.yul\":2630:2752   */\n    tag_415:\n        /* \"#utility.yul\":2788:2794   */\n      dup2\n        /* \"#utility.yul\":2775:2795   */\n      calldataload\n        /* \"#utility.yul\":2813:2891   */\n      tag_417\n        /* \"#utility.yul\":2887:2890   */\n      dup5\n        /* \"#utility.yul\":2879:2885   */\n      dup3\n        /* \"#utility.yul\":2872:2876   */\n      0x20\n        /* \"#utility.yul\":2864:2870   */\n      dup7\n        /* \"#utility.yul\":2860:2877   */\n      add\n        /* \"#utility.yul\":2813:2891   */\n      tag_320\n      jump\t// in\n    tag_417:\n        /* \"#utility.yul\":2804:2891   */\n      swap2\n      pop\n        /* \"#utility.yul\":2620:2897   */\n      pop\n        /* \"#utility.yul\":2559:2897   */\n      swap3\n      swap2\n      pop\n      pop\n      jump\t// out\n        /* \"#utility.yul\":2903:3878   */\n    tag_18:\n        /* \"#utility.yul\":2998:3004   */\n      0x00\n        /* \"#utility.yul\":3006:3012   */\n      dup1\n        /* \"#utility.yul\":3014:3020   */\n      0x00\n        /* \"#utility.yul\":3063:3065   */\n      0x60\n        /* \"#utility.yul\":3051:3060   */\n      dup5\n        /* \"#utility.yul\":3042:3049   */\n      dup7\n        /* \"#utility.yul\":3038:3061   */\n      sub\n        /* \"#utility.yul\":3034:3066   */\n      slt\n        /* \"#utility.yul\":3031:3150   */\n      iszero\n      tag_419\n      jumpi\n        /* \"#utility.yul\":3069:3148   */\n      tag_420\n      tag_307\n      jump\t// in\n    tag_420:\n        /* \"#utility.yul\":3031:3150   */\n    tag_419:\n        /* \"#utility.yul\":3189:3190   */\n      0x00\n        /* \"#utility.yul\":3214:3267   */\n      tag_421\n        /* \"#utility.yul\":3259:3266   */\n      dup7\n        /* \"#utility.yul\":3250:3256   */\n      dup3\n        /* \"#utility.yul\":3239:3248   */\n      dup8\n        /* \"#utility.yul\":3235:3257   */\n      add\n        /* \"#utility.yul\":3214:3267   */\n      tag_311\n      jump\t// in\n    tag_421:\n        /* \"#utility.yul\":3204:3267   */\n      swap4\n      pop\n        /* \"#utility.yul\":3160:3277   */\n      pop\n        /* \"#utility.yul\":3344:3346   */\n      0x20\n        /* \"#utility.yul\":3333:3342   */\n      dup5\n        /* \"#utility.yul\":3329:3347   */\n      add\n        /* \"#utility.yul\":3316:3348   */\n      calldataload\n        /* \"#utility.yul\":3375:3393   */\n      0xffffffffffffffff\n        /* \"#utility.yul\":3367:3373   */\n      dup2\n        /* \"#utility.yul\":3364:3394   */\n      gt\n        /* \"#utility.yul\":3361:3478   */\n      iszero\n      tag_422\n      jumpi\n        /* \"#utility.yul\":3397:3476   */\n      tag_423\n      tag_308\n      jump\t// in\n    tag_423:\n        /* \"#utility.yul\":3361:3478   */\n    tag_422:\n        /* \"#utility.yul\":3502:3564   */\n      tag_424\n        /* \"#utility.yul\":3556:3563   */\n      dup7\n        /* \"#utility.yul\":3547:3553   */\n      dup3\n        /* \"#utility.yul\":3536:3545   */\n      dup8\n        /* \"#utility.yul\":3532:3554   */\n      add\n        /* \"#utility.yul\":3502:3564   */\n      tag_321\n      jump\t// in\n    tag_424:\n        /* \"#utility.yul\":3492:3564   */\n      swap3\n      pop\n        /* \"#utility.yul\":3287:3574   */\n      pop\n        /* \"#utility.yul\":3641:3643   */\n      0x40\n        /* \"#utility.yul\":3630:3639   */\n      dup5\n        /* \"#utility.yul\":3626:3644   */\n      add\n        /* \"#utility.yul\":3613:3645   */\n      calldataload\n        /* \"#utility.yul\":3672:3690   */\n      0xffffffffffffffff\n        /* \"#utility.yul\":3664:3670   */\n      dup2\n        /* \"#utility.yul\":3661:3691   */\n      gt\n        /* \"#utility.yul\":3658:3775   */\n      iszero\n      tag_425\n      jumpi\n        /* \"#utility.yul\":3694:3773   */\n      tag_426\n      tag_308\n      jump\t// in\n    tag_426:\n        /* \"#utility.yul\":3658:3775   */\n    tag_425:\n        /* \"#utility.yul\":3799:3861   */\n      tag_427\n        /* \"#utility.yul\":3853:3860   */\n      dup7\n        /* \"#utility.yul\":3844:3850   */\n      dup3\n        /* \"#utility.yul\":3833:3842   */\n      dup8\n        /* \"#utility.yul\":3829:3851   */\n      add\n        /* \"#utility.yul\":3799:3861   */\n      tag_321\n      jump\t// in\n    tag_427:\n        /* \"#utility.yul\":3789:3861   */\n      swap2\n      pop\n        /* \"#utility.yul\":3584:3871   */\n      pop\n        /* \"#utility.yul\":2903:3878   */\n      swap3\n      pop\n      swap3\n      pop\n      swap3\n      jump\t// out\n        /* \"#utility.yul\":3884:3985   */\n    tag_322:\n        /* \"#utility.yul\":3920:3927   */\n      0x00\n        /* \"#utility.yul\":3960:3978   */\n      0xffffffffffffffff\n        /* \"#utility.yul\":3953:3958   */\n      dup3\n        /* \"#utility.yul\":3949:3979   */\n      and\n        /* \"#utility.yul\":3938:3979   */\n      swap1\n      pop\n        /* \"#utility.yul\":3884:3985   */\n      swap2\n      swap1\n      pop\n      jump\t// out\n        /* \"#utility.yul\":3991:4111   */\n    tag_323:\n        /* \"#utility.yul\":4063:4086   */\n      tag_430\n        /* \"#utility.yul\":4080:4085   */\n      dup2\n        /* \"#utility.yul\":4063:4086   */\n      tag_322\n      jump\t// in\n    tag_430:\n        /* \"#utility.yul\":4056:4061   */\n      dup2\n        /* \"#utility.yul\":4053:4087   */\n      eq\n        /* \"#utility.yul\":4043:4105   */\n      tag_431\n      jumpi\n        /* \"#utility.yul\":4101:4102   */\n      0x00\n        /* \"#utility.yul\":4098:4099   */\n      dup1\n        /* \"#utility.yul\":4091:4103   */\n      revert\n        /* \"#utility.yul\":4043:4105   */\n    tag_431:\n        /* \"#utility.yul\":3991:4111   */\n      pop\n      jump\t// out\n        /* \"#utility.yul\":4117:4254   */\n    tag_324:\n        /* \"#utility.yul\":4162:4167   */\n      0x00\n        /* \"#utility.yul\":4200:4206   */\n      dup2\n        /* \"#utility.yul\":4187:4207   */\n      calldataload\n        /* \"#utility.yul\":4178:4207   */\n      swap1\n      pop\n        /* \"#utility.yul\":4216:4248   */\n      tag_433\n        /* \"#utility.yul\":4242:4247   */\n      dup2\n        /* \"#utility.yul\":4216:4248   */\n      tag_323\n      jump\t// in\n    tag_433:\n        /* \"#utility.yul\":4117:4254   */\n      swap3\n      swap2\n      pop\n      pop\n      jump\t// out\n        /* \"#utility.yul\":4260:4587   */\n    tag_22:\n        /* \"#utility.yul\":4318:4324   */\n      0x00\n        /* \"#utility.yul\":4367:4369   */\n      0x20\n        /* \"#utility.yul\":4355:4364   */\n      dup3\n        /* \"#utility.yul\":4346:4353   */\n      dup5\n        /* \"#utility.yul\":4342:4365   */\n      sub\n        /* \"#utility.yul\":4338:4370   */\n      slt\n        /* \"#utility.yul\":4335:4454   */\n      iszero\n      tag_435\n      jumpi\n        /* \"#utility.yul\":4373:4452   */\n      tag_436\n      tag_307\n      jump\t// in\n    tag_436:\n        /* \"#utility.yul\":4335:4454   */\n    tag_435:\n        /* \"#utility.yul\":4493:4494   */\n      0x00\n        /* \"#utility.yul\":4518:4570   */\n      tag_437\n        /* \"#utility.yul\":4562:4569   */\n      dup5\n        /* \"#utility.yul\":4553:4559   */\n      dup3\n        /* \"#utility.yul\":4542:4551   */\n      dup6\n        /* \"#utility.yul\":4538:4560   */\n      add\n        /* \"#utility.yul\":4518:4570   */\n      tag_324\n      jump\t// in\n    tag_437:\n        /* \"#utility.yul\":4508:4570   */\n      swap2\n      pop\n        /* \"#utility.yul\":4464:4580   */\n      pop\n        /* \"#utility.yul\":4260:4587   */\n      swap3\n      swap2\n      pop\n      pop\n      jump\t// out\n        /* \"#utility.yul\":4593:4711   */\n    tag_325:\n        /* \"#utility.yul\":4680:4704   */\n      tag_439\n        /* \"#utility.yul\":4698:4703   */\n      dup2\n        /* \"#utility.yul\":4680:4704   */\n      tag_309\n      jump\t// in\n    tag_439:\n        /* \"#utility.yul\":4675:4678   */\n      dup3\n        /* \"#utility.yul\":4668:4705   */\n      mstore\n        /* \"#utility.yul\":4593:4711   */\n      pop\n      pop\n      jump\t// out\n        /* \"#utility.yul\":4717:4939   */\n    tag_25:\n        /* \"#utility.yul\":4810:4814   */\n      0x00\n        /* \"#utility.yul\":4848:4850   */\n      0x20\n        /* \"#utility.yul\":4837:4846   */\n      dup3\n        /* \"#utility.yul\":4833:4851   */\n      add\n        /* \"#utility.yul\":4825:4851   */\n      swap1\n      pop\n        /* \"#utility.yul\":4861:4932   */\n      tag_441\n        /* \"#utility.yul\":4929:4930   */\n      0x00\n        /* \"#utility.yul\":4918:4927   */\n      dup4\n        /* \"#utility.yul\":4914:4931   */\n      add\n        /* \"#utility.yul\":4905:4911   */\n      dup5\n        /* \"#utility.yul\":4861:4932   */\n      tag_325\n      jump\t// in\n    tag_441:\n        /* \"#utility.yul\":4717:4939   */\n      swap3\n      swap2\n      pop\n      pop\n      jump\t// out\n        /* \"#utility.yul\":4945:5043   */\n    tag_326:\n        /* \"#utility.yul\":4996:5002   */\n      0x00\n        /* \"#utility.yul\":5030:5035   */\n      dup2\n        /* \"#utility.yul\":5024:5036   */\n      mload\n        /* \"#utility.yul\":5014:5036   */\n      swap1\n      pop\n        /* \"#utility.yul\":4945:5043   */\n      swap2\n      swap1\n      pop\n      jump\t// out\n        /* \"#utility.yul\":5049:5217   */\n    tag_327:\n        /* \"#utility.yul\":5132:5143   */\n      0x00\n        /* \"#utility.yul\":5166:5172   */\n      dup3\n        /* \"#utility.yul\":5161:5164   */\n      dup3\n        /* \"#utility.yul\":5154:5173   */\n      mstore\n        /* \"#utility.yul\":5206:5210   */\n      0x20\n        /* \"#utility.yul\":5201:5204   */\n      dup3\n        /* \"#utility.yul\":5197:5211   */\n      add\n        /* \"#utility.yul\":5182:5211   */\n      swap1\n      pop\n        /* \"#utility.yul\":5049:5217   */\n      swap3\n      swap2\n      pop\n      pop\n      jump\t// out\n        /* \"#utility.yul\":5223:5469   */\n    tag_328:\n        /* \"#utility.yul\":5304:5305   */\n      0x00\n        /* \"#utility.yul\":5314:5427   */\n    tag_445:\n        /* \"#utility.yul\":5328:5334   */\n      dup4\n        /* \"#utility.yul\":5325:5326   */\n      dup2\n        /* \"#utility.yul\":5322:5335   */\n      lt\n        /* \"#utility.yul\":5314:5427   */\n      iszero\n      tag_447\n      jumpi\n        /* \"#utility.yul\":5413:5414   */\n      dup1\n        /* \"#utility.yul\":5408:5411   */\n      dup3\n        /* \"#utility.yul\":5404:5415   */\n      add\n        /* \"#utility.yul\":5398:5416   */\n      mload\n        /* \"#utility.yul\":5394:5395   */\n      dup2\n        /* \"#utility.yul\":5389:5392   */\n      dup5\n        /* \"#utility.yul\":5385:5396   */\n      add\n        /* \"#utility.yul\":5378:5417   */\n      mstore\n        /* \"#utility.yul\":5350:5352   */\n      0x20\n        /* \"#utility.yul\":5347:5348   */\n      dup2\n        /* \"#utility.yul\":5343:5353   */\n      add\n        /* \"#utility.yul\":5338:5353   */\n      swap1\n      pop\n        /* \"#utility.yul\":5314:5427   */\n      jump(tag_445)\n    tag_447:\n        /* \"#utility.yul\":5461:5462   */\n      0x00\n        /* \"#utility.yul\":5452:5458   */\n      dup5\n        /* \"#utility.yul\":5447:5450   */\n      dup5\n        /* \"#utility.yul\":5443:5459   */\n      add\n        /* \"#utility.yul\":5436:5463   */\n      mstore\n        /* \"#utility.yul\":5285:5469   */\n      pop\n        /* \"#utility.yul\":5223:5469   */\n      pop\n      pop\n      pop\n      jump\t// out\n        /* \"#utility.yul\":5475:5848   */\n    tag_329:\n        /* \"#utility.yul\":5561:5564   */\n      0x00\n        /* \"#utility.yul\":5589:5627   */\n      tag_449\n        /* \"#utility.yul\":5621:5626   */\n      dup3\n        /* \"#utility.yul\":5589:5627   */\n      tag_326\n      jump\t// in\n    tag_449:\n        /* \"#utility.yul\":5643:5713   */\n      tag_450\n        /* \"#utility.yul\":5706:5712   */\n      dup2\n        /* \"#utility.yul\":5701:5704   */\n      dup6\n        /* \"#utility.yul\":5643:5713   */\n      tag_327\n      jump\t// in\n    tag_450:\n        /* \"#utility.yul\":5636:5713   */\n      swap4\n      pop\n        /* \"#utility.yul\":5722:5787   */\n      tag_451\n        /* \"#utility.yul\":5780:5786   */\n      dup2\n        /* \"#utility.yul\":5775:5778   */\n      dup6\n        /* \"#utility.yul\":5768:5772   */\n      0x20\n        /* \"#utility.yul\":5761:5766   */\n      dup7\n        /* \"#utility.yul\":5757:5773   */\n      add\n        /* \"#utility.yul\":5722:5787   */\n      tag_328\n      jump\t// in\n    tag_451:\n        /* \"#utility.yul\":5812:5841   */\n      tag_452\n        /* \"#utility.yul\":5834:5840   */\n      dup2\n        /* \"#utility.yul\":5812:5841   */\n      tag_314\n      jump\t// in\n    tag_452:\n        /* \"#utility.yul\":5807:5810   */\n      dup5\n        /* \"#utility.yul\":5803:5842   */\n      add\n        /* \"#utility.yul\":5796:5842   */\n      swap2\n      pop\n        /* \"#utility.yul\":5565:5848   */\n      pop\n        /* \"#utility.yul\":5475:5848   */\n      swap3\n      swap2\n      pop\n      pop\n      jump\t// out\n        /* \"#utility.yul\":5854:6163   */\n    tag_29:\n        /* \"#utility.yul\":5965:5969   */\n      0x00\n        /* \"#utility.yul\":6003:6005   */\n      0x20\n        /* \"#utility.yul\":5992:6001   */\n      dup3\n        /* \"#utility.yul\":5988:6006   */\n      add\n        /* \"#utility.yul\":5980:6006   */\n      swap1\n      pop\n        /* \"#utility.yul\":6052:6061   */\n      dup2\n        /* \"#utility.yul\":6046:6050   */\n      dup2\n        /* \"#utility.yul\":6042:6062   */\n      sub\n        /* \"#utility.yul\":6038:6039   */\n      0x00\n        /* \"#utility.yul\":6027:6036   */\n      dup4\n        /* \"#utility.yul\":6023:6040   */\n      add\n        /* \"#utility.yul\":6016:6063   */\n      mstore\n        /* \"#utility.yul\":6080:6156   */\n      tag_454\n        /* \"#utility.yul\":6151:6155   */\n      dup2\n        /* \"#utility.yul\":6142:6148   */\n      dup5\n        /* \"#utility.yul\":6080:6156   */\n      tag_329\n      jump\t// in\n    tag_454:\n        /* \"#utility.yul\":6072:6156   */\n      swap1\n      pop\n        /* \"#utility.yul\":5854:6163   */\n      swap3\n      swap2\n      pop\n      pop\n      jump\t// out\n        /* \"#utility.yul\":6169:6246   */\n    tag_330:\n        /* \"#utility.yul\":6206:6213   */\n      0x00\n        /* \"#utility.yul\":6235:6240   */\n      dup2\n        /* \"#utility.yul\":6224:6240   */\n      swap1\n      pop\n        /* \"#utility.yul\":6169:6246   */\n      swap2\n      swap1\n      pop\n      jump\t// out\n        /* \"#utility.yul\":6252:6370   */\n    tag_331:\n        /* \"#utility.yul\":6339:6363   */\n      tag_457\n        /* \"#utility.yul\":6357:6362   */\n      dup2\n        /* \"#utility.yul\":6339:6363   */\n      tag_330\n      jump\t// in\n    tag_457:\n        /* \"#utility.yul\":6334:6337   */\n      dup3\n        /* \"#utility.yul\":6327:6364   */\n      mstore\n        /* \"#utility.yul\":6252:6370   */\n      pop\n      pop\n      jump\t// out\n        /* \"#utility.yul\":6376:6598   */\n    tag_33:\n        /* \"#utility.yul\":6469:6473   */\n      0x00\n        /* \"#utility.yul\":6507:6509   */\n      0x20\n        /* \"#utility.yul\":6496:6505   */\n      dup3\n        /* \"#utility.yul\":6492:6510   */\n      add\n        /* \"#utility.yul\":6484:6510   */\n      swap1\n      pop\n        /* \"#utility.yul\":6520:6591   */\n      tag_459\n        /* \"#utility.yul\":6588:6589   */\n      0x00\n        /* \"#utility.yul\":6577:6586   */\n      dup4\n        /* \"#utility.yul\":6573:6590   */\n      add\n        /* \"#utility.yul\":6564:6570   */\n      dup5\n        /* \"#utility.yul\":6520:6591   */\n      tag_331\n      jump\t// in\n    tag_459:\n        /* \"#utility.yul\":6376:6598   */\n      swap3\n      swap2\n      pop\n      pop\n      jump\t// out\n        /* \"#utility.yul\":6604:6703   */\n    tag_332:\n        /* \"#utility.yul\":6656:6662   */\n      0x00\n        /* \"#utility.yul\":6690:6695   */\n      dup2\n        /* \"#utility.yul\":6684:6696   */\n      mload\n        /* \"#utility.yul\":6674:6696   */\n      swap1\n      pop\n        /* \"#utility.yul\":6604:6703   */\n      swap2\n      swap1\n      pop\n      jump\t// out\n        /* \"#utility.yul\":6709:6878   */\n    tag_333:\n        /* \"#utility.yul\":6793:6804   */\n      0x00\n        /* \"#utility.yul\":6827:6833   */\n      dup3\n        /* \"#utility.yul\":6822:6825   */\n      dup3\n        /* \"#utility.yul\":6815:6834   */\n      mstore\n        /* \"#utility.yul\":6867:6871   */\n      0x20\n        /* \"#utility.yul\":6862:6865   */\n      dup3\n        /* \"#utility.yul\":6858:6872   */\n      add\n        /* \"#utility.yul\":6843:6872   */\n      swap1\n      pop\n        /* \"#utility.yul\":6709:6878   */\n      swap3\n      swap2\n      pop\n      pop\n      jump\t// out\n        /* \"#utility.yul\":6884:7261   */\n    tag_334:\n        /* \"#utility.yul\":6972:6975   */\n      0x00\n        /* \"#utility.yul\":7000:7039   */\n      tag_463\n        /* \"#utility.yul\":7033:7038   */\n      dup3\n        /* \"#utility.yul\":7000:7039   */\n      tag_332\n      jump\t// in\n    tag_463:\n        /* \"#utility.yul\":7055:7126   */\n      tag_464\n        /* \"#utility.yul\":7119:7125   */\n      dup2\n        /* \"#utility.yul\":7114:7117   */\n      dup6\n        /* \"#utility.yul\":7055:7126   */\n      tag_333\n      jump\t// in\n    tag_464:\n        /* \"#utility.yul\":7048:7126   */\n      swap4\n      pop\n        /* \"#utility.yul\":7135:7200   */\n      tag_465\n        /* \"#utility.yul\":7193:7199   */\n      dup2\n        /* \"#utility.yul\":7188:7191   */\n      dup6\n        /* \"#utility.yul\":7181:7185   */\n      0x20\n        /* \"#utility.yul\":7174:7179   */\n      dup7\n        /* \"#utility.yul\":7170:7186   */\n      add\n        /* \"#utility.yul\":7135:7200   */\n      tag_328\n      jump\t// in\n    tag_465:\n        /* \"#utility.yul\":7225:7254   */\n      tag_466\n        /* \"#utility.yul\":7247:7253   */\n      dup2\n        /* \"#utility.yul\":7225:7254   */\n      tag_314\n      jump\t// in\n    tag_466:\n        /* \"#utility.yul\":7220:7223   */\n      dup5\n        /* \"#utility.yul\":7216:7255   */\n      add\n        /* \"#utility.yul\":7209:7255   */\n      swap2\n      pop\n        /* \"#utility.yul\":6976:7261   */\n      pop\n        /* \"#utility.yul\":6884:7261   */\n      swap3\n      swap2\n      pop\n      pop\n      jump\t// out\n        /* \"#utility.yul\":7267:7580   */\n    tag_40:\n        /* \"#utility.yul\":7380:7384   */\n      0x00\n        /* \"#utility.yul\":7418:7420   */\n      0x20\n        /* \"#utility.yul\":7407:7416   */\n      dup3\n        /* \"#utility.yul\":7403:7421   */\n      add\n        /* \"#utility.yul\":7395:7421   */\n      swap1\n      pop\n        /* \"#utility.yul\":7467:7476   */\n      dup2\n        /* \"#utility.yul\":7461:7465   */\n      dup2\n        /* \"#utility.yul\":7457:7477   */\n      sub\n        /* \"#utility.yul\":7453:7454   */\n      0x00\n        /* \"#utility.yul\":7442:7451   */\n      dup4\n        /* \"#utility.yul\":7438:7455   */\n      add\n        /* \"#utility.yul\":7431:7478   */\n      mstore\n        /* \"#utility.yul\":7495:7573   */\n      tag_468\n        /* \"#utility.yul\":7568:7572   */\n      dup2\n        /* \"#utility.yul\":7559:7565   */\n      dup5\n        /* \"#utility.yul\":7495:7573   */\n      tag_334\n      jump\t// in\n    tag_468:\n        /* \"#utility.yul\":7487:7573   */\n      swap1\n      pop\n        /* \"#utility.yul\":7267:7580   */\n      swap3\n      swap2\n      pop\n      pop\n      jump\t// out\n        /* \"#utility.yul\":7586:7712   */\n    tag_335:\n        /* \"#utility.yul\":7623:7630   */\n      0x00\n        /* \"#utility.yul\":7663:7705   */\n      0xffffffffffffffffffffffffffffffffffffffff\n        /* \"#utility.yul\":7656:7661   */\n      dup3\n        /* \"#utility.yul\":7652:7706   */\n      and\n        /* \"#utility.yul\":7641:7706   */\n      swap1\n      pop\n        /* \"#utility.yul\":7586:7712   */\n      swap2\n      swap1\n      pop\n      jump\t// out\n        /* \"#utility.yul\":7718:7814   */\n    tag_336:\n        /* \"#utility.yul\":7755:7762   */\n      0x00\n        /* \"#utility.yul\":7784:7808   */\n      tag_471\n        /* \"#utility.yul\":7802:7807   */\n      dup3\n        /* \"#utility.yul\":7784:7808   */\n      tag_335\n      jump\t// in\n    tag_471:\n        /* \"#utility.yul\":7773:7808   */\n      swap1\n      pop\n        /* \"#utility.yul\":7718:7814   */\n      swap2\n      swap1\n      pop\n      jump\t// out\n        /* \"#utility.yul\":7820:7938   */\n    tag_337:\n        /* \"#utility.yul\":7907:7931   */\n      tag_473\n        /* \"#utility.yul\":7925:7930   */\n      dup2\n        /* \"#utility.yul\":7907:7931   */\n      tag_336\n      jump\t// in\n    tag_473:\n        /* \"#utility.yul\":7902:7905   */\n      dup3\n        /* \"#utility.yul\":7895:7932   */\n      mstore\n        /* \"#utility.yul\":7820:7938   */\n      pop\n      pop\n      jump\t// out\n        /* \"#utility.yul\":7944:8166   */\n    tag_46:\n        /* \"#utility.yul\":8037:8041   */\n      0x00\n        /* \"#utility.yul\":8075:8077   */\n      0x20\n        /* \"#utility.yul\":8064:8073   */\n      dup3\n        /* \"#utility.yul\":8060:8078   */\n      add\n        /* \"#utility.yul\":8052:8078   */\n      swap1\n      pop\n        /* \"#utility.yul\":8088:8159   */\n      tag_475\n        /* \"#utility.yul\":8156:8157   */\n      0x00\n        /* \"#utility.yul\":8145:8154   */\n      dup4\n        /* \"#utility.yul\":8141:8158   */\n      add\n        /* \"#utility.yul\":8132:8138   */\n      dup5\n        /* \"#utility.yul\":8088:8159   */\n      tag_337\n      jump\t// in\n    tag_475:\n        /* \"#utility.yul\":7944:8166   */\n      swap3\n      swap2\n      pop\n      pop\n      jump\t// out\n        /* \"#utility.yul\":8172:8294   */\n    tag_338:\n        /* \"#utility.yul\":8245:8269   */\n      tag_477\n        /* \"#utility.yul\":8263:8268   */\n      dup2\n        /* \"#utility.yul\":8245:8269   */\n      tag_336\n      jump\t// in\n    tag_477:\n        /* \"#utility.yul\":8238:8243   */\n      dup2\n        /* \"#utility.yul\":8235:8270   */\n      eq\n        /* \"#utility.yul\":8225:8288   */\n      tag_478\n      jumpi\n        /* \"#utility.yul\":8284:8285   */\n      0x00\n        /* \"#utility.yul\":8281:8282   */\n      dup1\n        /* \"#utility.yul\":8274:8286   */\n      revert\n        /* \"#utility.yul\":8225:8288   */\n    tag_478:\n        /* \"#utility.yul\":8172:8294   */\n      pop\n      jump\t// out\n        /* \"#utility.yul\":8300:8439   */\n    tag_339:\n        /* \"#utility.yul\":8346:8351   */\n      0x00\n        /* \"#utility.yul\":8384:8390   */\n      dup2\n        /* \"#utility.yul\":8371:8391   */\n      calldataload\n        /* \"#utility.yul\":8362:8391   */\n      swap1\n      pop\n        /* \"#utility.yul\":8400:8433   */\n      tag_480\n        /* \"#utility.yul\":8427:8432   */\n      dup2\n        /* \"#utility.yul\":8400:8433   */\n      tag_338\n      jump\t// in\n    tag_480:\n        /* \"#utility.yul\":8300:8439   */\n      swap3\n      swap2\n      pop\n      pop\n      jump\t// out\n        /* \"#utility.yul\":8445:8774   */\n    tag_58:\n        /* \"#utility.yul\":8504:8510   */\n      0x00\n        /* \"#utility.yul\":8553:8555   */\n      0x20\n        /* \"#utility.yul\":8541:8550   */\n      dup3\n        /* \"#utility.yul\":8532:8539   */\n      dup5\n        /* \"#utility.yul\":8528:8551   */\n      sub\n        /* \"#utility.yul\":8524:8556   */\n      slt\n        /* \"#utility.yul\":8521:8640   */\n      iszero\n      tag_482\n      jumpi\n        /* \"#utility.yul\":8559:8638   */\n      tag_483\n      tag_307\n      jump\t// in\n    tag_483:\n        /* \"#utility.yul\":8521:8640   */\n    tag_482:\n        /* \"#utility.yul\":8679:8680   */\n      0x00\n        /* \"#utility.yul\":8704:8757   */\n      tag_484\n        /* \"#utility.yul\":8749:8756   */\n      dup5\n        /* \"#utility.yul\":8740:8746   */\n      dup3\n        /* \"#utility.yul\":8729:8738   */\n      dup6\n        /* \"#utility.yul\":8725:8747   */\n      add\n        /* \"#utility.yul\":8704:8757   */\n      tag_339\n      jump\t// in\n    tag_484:\n        /* \"#utility.yul\":8694:8757   */\n      swap2\n      pop\n        /* \"#utility.yul\":8650:8767   */\n      pop\n        /* \"#utility.yul\":8445:8774   */\n      swap3\n      swap2\n      pop\n      pop\n      jump\t// out\n        /* \"#utility.yul\":8780:8960   */\n    tag_340:\n        /* \"#utility.yul\":8828:8905   */\n      0x4e487b7100000000000000000000000000000000000000000000000000000000\n        /* \"#utility.yul\":8825:8826   */\n      0x00\n        /* \"#utility.yul\":8818:8906   */\n      mstore\n        /* \"#utility.yul\":8925:8929   */\n      0x22\n        /* \"#utility.yul\":8922:8923   */\n      0x04\n        /* \"#utility.yul\":8915:8930   */\n      mstore\n        /* \"#utility.yul\":8949:8953   */\n      0x24\n        /* \"#utility.yul\":8946:8947   */\n      0x00\n        /* \"#utility.yul\":8939:8954   */\n      revert\n        /* \"#utility.yul\":8966:9286   */\n    tag_72:\n        /* \"#utility.yul\":9010:9016   */\n      0x00\n        /* \"#utility.yul\":9047:9048   */\n      0x02\n        /* \"#utility.yul\":9041:9045   */\n      dup3\n        /* \"#utility.yul\":9037:9049   */\n      div\n        /* \"#utility.yul\":9027:9049   */\n      swap1\n      pop\n        /* \"#utility.yul\":9094:9095   */\n      0x01\n        /* \"#utility.yul\":9088:9092   */\n      dup3\n        /* \"#utility.yul\":9084:9096   */\n      and\n        /* \"#utility.yul\":9115:9133   */\n      dup1\n        /* \"#utility.yul\":9105:9186   */\n      tag_487\n      jumpi\n        /* \"#utility.yul\":9171:9175   */\n      0x7f\n        /* \"#utility.yul\":9163:9169   */\n      dup3\n        /* \"#utility.yul\":9159:9176   */\n      and\n        /* \"#utility.yul\":9149:9176   */\n      swap2\n      pop\n        /* \"#utility.yul\":9105:9186   */\n    tag_487:\n        /* \"#utility.yul\":9233:9235   */\n      0x20\n        /* \"#utility.yul\":9225:9231   */\n      dup3\n        /* \"#utility.yul\":9222:9236   */\n      lt\n        /* \"#utility.yul\":9202:9220   */\n      dup2\n        /* \"#utility.yul\":9199:9237   */\n      sub\n        /* \"#utility.yul\":9196:9280   */\n      tag_488\n      jumpi\n        /* \"#utility.yul\":9252:9270   */\n      tag_489\n      tag_340\n      jump\t// in\n    tag_489:\n        /* \"#utility.yul\":9196:9280   */\n    tag_488:\n        /* \"#utility.yul\":9017:9286   */\n      pop\n        /* \"#utility.yul\":8966:9286   */\n      swap2\n      swap1\n      pop\n      jump\t// out\n        /* \"#utility.yul\":9292:9464   */\n    tag_341:\n        /* \"#utility.yul\":9432:9456   */\n      0x4d7573742062652070726f706f736564206f776e657200000000000000000000\n        /* \"#utility.yul\":9428:9429   */\n      0x00\n        /* \"#utility.yul\":9420:9426   */\n      dup3\n        /* \"#utility.yul\":9416:9430   */\n      add\n        /* \"#utility.yul\":9409:9457   */\n      mstore\n        /* \"#utility.yul\":9292:9464   */\n      pop\n      jump\t// out\n        /* \"#utility.yul\":9470:9836   */\n    tag_342:\n        /* \"#utility.yul\":9612:9615   */\n      0x00\n        /* \"#utility.yul\":9633:9700   */\n      tag_492\n        /* \"#utility.yul\":9697:9699   */\n      0x16\n        /* \"#utility.yul\":9692:9695   */\n      dup4\n        /* \"#utility.yul\":9633:9700   */\n      tag_333\n      jump\t// in\n    tag_492:\n        /* \"#utility.yul\":9626:9700   */\n      swap2\n      pop\n        /* \"#utility.yul\":9709:9802   */\n      tag_493\n        /* \"#utility.yul\":9798:9801   */\n      dup3\n        /* \"#utility.yul\":9709:9802   */\n      tag_341\n      jump\t// in\n    tag_493:\n        /* \"#utility.yul\":9827:9829   */\n      0x20\n        /* \"#utility.yul\":9822:9825   */\n      dup3\n        /* \"#utility.yul\":9818:9830   */\n      add\n        /* \"#utility.yul\":9811:9830   */\n      swap1\n      pop\n        /* \"#utility.yul\":9470:9836   */\n      swap2\n      swap1\n      pop\n      jump\t// out\n        /* \"#utility.yul\":9842:10261   */\n    tag_100:\n        /* \"#utility.yul\":10008:10012   */\n      0x00\n        /* \"#utility.yul\":10046:10048   */\n      0x20\n        /* \"#utility.yul\":10035:10044   */\n      dup3\n        /* \"#utility.yul\":10031:10049   */\n      add\n        /* \"#utility.yul\":10023:10049   */\n      swap1\n      pop\n        /* \"#utility.yul\":10095:10104   */\n      dup2\n        /* \"#utility.yul\":10089:10093   */\n      dup2\n        /* \"#utility.yul\":10085:10105   */\n      sub\n        /* \"#utility.yul\":10081:10082   */\n      0x00\n        /* \"#utility.yul\":10070:10079   */\n      dup4\n        /* \"#utility.yul\":10066:10083   */\n      add\n        /* \"#utility.yul\":10059:10106   */\n      mstore\n        /* \"#utility.yul\":10123:10254   */\n      tag_495\n        /* \"#utility.yul\":10249:10253   */\n      dup2\n        /* \"#utility.yul\":10123:10254   */\n      tag_342\n      jump\t// in\n    tag_495:\n        /* \"#utility.yul\":10115:10254   */\n      swap1\n      pop\n        /* \"#utility.yul\":9842:10261   */\n      swap2\n      swap1\n      pop\n      jump\t// out\n        /* \"#utility.yul\":10267:10575   */\n    tag_343:\n        /* \"#utility.yul\":10329:10333   */\n      0x00\n        /* \"#utility.yul\":10419:10437   */\n      0xffffffffffffffff\n        /* \"#utility.yul\":10411:10417   */\n      dup3\n        /* \"#utility.yul\":10408:10438   */\n      gt\n        /* \"#utility.yul\":10405:10461   */\n      iszero\n      tag_497\n      jumpi\n        /* \"#utility.yul\":10441:10459   */\n      tag_498\n      tag_315\n      jump\t// in\n    tag_498:\n        /* \"#utility.yul\":10405:10461   */\n    tag_497:\n        /* \"#utility.yul\":10479:10508   */\n      tag_499\n        /* \"#utility.yul\":10501:10507   */\n      dup3\n        /* \"#utility.yul\":10479:10508   */\n      tag_314\n      jump\t// in\n    tag_499:\n        /* \"#utility.yul\":10471:10508   */\n      swap1\n      pop\n        /* \"#utility.yul\":10563:10567   */\n      0x20\n        /* \"#utility.yul\":10557:10561   */\n      dup2\n        /* \"#utility.yul\":10553:10568   */\n      add\n        /* \"#utility.yul\":10545:10568   */\n      swap1\n      pop\n        /* \"#utility.yul\":10267:10575   */\n      swap2\n      swap1\n      pop\n      jump\t// out\n        /* \"#utility.yul\":10581:11015   */\n    tag_344:\n        /* \"#utility.yul\":10670:10675   */\n      0x00\n        /* \"#utility.yul\":10695:10761   */\n      tag_501\n        /* \"#utility.yul\":10711:10760   */\n      tag_502\n        /* \"#utility.yul\":10753:10759   */\n      dup5\n        /* \"#utility.yul\":10711:10760   */\n      tag_343\n      jump\t// in\n    tag_502:\n        /* \"#utility.yul\":10695:10761   */\n      tag_317\n      jump\t// in\n    tag_501:\n        /* \"#utility.yul\":10686:10761   */\n      swap1\n      pop\n        /* \"#utility.yul\":10784:10790   */\n      dup3\n        /* \"#utility.yul\":10777:10782   */\n      dup2\n        /* \"#utility.yul\":10770:10791   */\n      mstore\n        /* \"#utility.yul\":10822:10826   */\n      0x20\n        /* \"#utility.yul\":10815:10820   */\n      dup2\n        /* \"#utility.yul\":10811:10827   */\n      add\n        /* \"#utility.yul\":10860:10863   */\n      dup5\n        /* \"#utility.yul\":10851:10857   */\n      dup5\n        /* \"#utility.yul\":10846:10849   */\n      dup5\n        /* \"#utility.yul\":10842:10858   */\n      add\n        /* \"#utility.yul\":10839:10864   */\n      gt\n        /* \"#utility.yul\":10836:10948   */\n      iszero\n      tag_503\n      jumpi\n        /* \"#utility.yul\":10867:10946   */\n      tag_504\n      tag_313\n      jump\t// in\n    tag_504:\n        /* \"#utility.yul\":10836:10948   */\n    tag_503:\n        /* \"#utility.yul\":10957:11009   */\n      tag_505\n        /* \"#utility.yul\":11002:11008   */\n      dup5\n        /* \"#utility.yul\":10997:11000   */\n      dup3\n        /* \"#utility.yul\":10992:10995   */\n      dup6\n        /* \"#utility.yul\":10957:11009   */\n      tag_328\n      jump\t// in\n    tag_505:\n        /* \"#utility.yul\":10676:11015   */\n      pop\n        /* \"#utility.yul\":10581:11015   */\n      swap4\n      swap3\n      pop\n      pop\n      pop\n      jump\t// out\n        /* \"#utility.yul\":11035:11390   */\n    tag_345:\n        /* \"#utility.yul\":11102:11107   */\n      0x00\n        /* \"#utility.yul\":11151:11154   */\n      dup3\n        /* \"#utility.yul\":11144:11148   */\n      0x1f\n        /* \"#utility.yul\":11136:11142   */\n      dup4\n        /* \"#utility.yul\":11132:11149   */\n      add\n        /* \"#utility.yul\":11128:11155   */\n      slt\n        /* \"#utility.yul\":11118:11240   */\n      tag_507\n      jumpi\n        /* \"#utility.yul\":11159:11238   */\n      tag_508\n      tag_312\n      jump\t// in\n    tag_508:\n        /* \"#utility.yul\":11118:11240   */\n    tag_507:\n        /* \"#utility.yul\":11269:11275   */\n      dup2\n        /* \"#utility.yul\":11263:11276   */\n      mload\n        /* \"#utility.yul\":11294:11384   */\n      tag_509\n        /* \"#utility.yul\":11380:11383   */\n      dup5\n        /* \"#utility.yul\":11372:11378   */\n      dup3\n        /* \"#utility.yul\":11365:11369   */\n      0x20\n        /* \"#utility.yul\":11357:11363   */\n      dup7\n        /* \"#utility.yul\":11353:11370   */\n      add\n        /* \"#utility.yul\":11294:11384   */\n      tag_344\n      jump\t// in\n    tag_509:\n        /* \"#utility.yul\":11285:11384   */\n      swap2\n      pop\n        /* \"#utility.yul\":11108:11390   */\n      pop\n        /* \"#utility.yul\":11035:11390   */\n      swap3\n      swap2\n      pop\n      pop\n      jump\t// out\n        /* \"#utility.yul\":11396:11518   */\n    tag_346:\n        /* \"#utility.yul\":11469:11493   */\n      tag_511\n        /* \"#utility.yul\":11487:11492   */\n      dup2\n        /* \"#utility.yul\":11469:11493   */\n      tag_330\n      jump\t// in\n    tag_511:\n        /* \"#utility.yul\":11462:11467   */\n      dup2\n        /* \"#utility.yul\":11459:11494   */\n      eq\n        /* \"#utility.yul\":11449:11512   */\n      tag_512\n      jumpi\n        /* \"#utility.yul\":11508:11509   */\n      0x00\n        /* \"#utility.yul\":11505:11506   */\n      dup1\n        /* \"#utility.yul\":11498:11510   */\n      revert\n        /* \"#utility.yul\":11449:11512   */\n    tag_512:\n        /* \"#utility.yul\":11396:11518   */\n      pop\n      jump\t// out\n        /* \"#utility.yul\":11524:11667   */\n    tag_347:\n        /* \"#utility.yul\":11581:11586   */\n      0x00\n        /* \"#utility.yul\":11612:11618   */\n      dup2\n        /* \"#utility.yul\":11606:11619   */\n      mload\n        /* \"#utility.yul\":11597:11619   */\n      swap1\n      pop\n        /* \"#utility.yul\":11628:11661   */\n      tag_514\n        /* \"#utility.yul\":11655:11660   */\n      dup2\n        /* \"#utility.yul\":11628:11661   */\n      tag_346\n      jump\t// in\n    tag_514:\n        /* \"#utility.yul\":11524:11667   */\n      swap3\n      swap2\n      pop\n      pop\n      jump\t// out\n        /* \"#utility.yul\":11673:12666   */\n    tag_111:\n        /* \"#utility.yul\":11780:11786   */\n      0x00\n        /* \"#utility.yul\":11788:11794   */\n      dup1\n        /* \"#utility.yul\":11796:11802   */\n      0x00\n        /* \"#utility.yul\":11804:11810   */\n      dup1\n        /* \"#utility.yul\":11853:11856   */\n      0x80\n        /* \"#utility.yul\":11841:11850   */\n      dup6\n        /* \"#utility.yul\":11832:11839   */\n      dup8\n        /* \"#utility.yul\":11828:11851   */\n      sub\n        /* \"#utility.yul\":11824:11857   */\n      slt\n        /* \"#utility.yul\":11821:11941   */\n      iszero\n      tag_516\n      jumpi\n        /* \"#utility.yul\":11860:11939   */\n      tag_517\n      tag_307\n      jump\t// in\n    tag_517:\n        /* \"#utility.yul\":11821:11941   */\n    tag_516:\n        /* \"#utility.yul\":12001:12002   */\n      0x00\n        /* \"#utility.yul\":11990:11999   */\n      dup6\n        /* \"#utility.yul\":11986:12003   */\n      add\n        /* \"#utility.yul\":11980:12004   */\n      mload\n        /* \"#utility.yul\":12031:12049   */\n      0xffffffffffffffff\n        /* \"#utility.yul\":12023:12029   */\n      dup2\n        /* \"#utility.yul\":12020:12050   */\n      gt\n        /* \"#utility.yul\":12017:12134   */\n      iszero\n      tag_518\n      jumpi\n        /* \"#utility.yul\":12053:12132   */\n      tag_519\n      tag_308\n      jump\t// in\n    tag_519:\n        /* \"#utility.yul\":12017:12134   */\n    tag_518:\n        /* \"#utility.yul\":12158:12232   */\n      tag_520\n        /* \"#utility.yul\":12224:12231   */\n      dup8\n        /* \"#utility.yul\":12215:12221   */\n      dup3\n        /* \"#utility.yul\":12204:12213   */\n      dup9\n        /* \"#utility.yul\":12200:12222   */\n      add\n        /* \"#utility.yul\":12158:12232   */\n      tag_345\n      jump\t// in\n    tag_520:\n        /* \"#utility.yul\":12148:12232   */\n      swap5\n      pop\n        /* \"#utility.yul\":11951:12242   */\n      pop\n        /* \"#utility.yul\":12281:12283   */\n      0x20\n        /* \"#utility.yul\":12307:12371   */\n      tag_521\n        /* \"#utility.yul\":12363:12370   */\n      dup8\n        /* \"#utility.yul\":12354:12360   */\n      dup3\n        /* \"#utility.yul\":12343:12352   */\n      dup9\n        /* \"#utility.yul\":12339:12361   */\n      add\n        /* \"#utility.yul\":12307:12371   */\n      tag_347\n      jump\t// in\n    tag_521:\n        /* \"#utility.yul\":12297:12371   */\n      swap4\n      pop\n        /* \"#utility.yul\":12252:12381   */\n      pop\n        /* \"#utility.yul\":12420:12422   */\n      0x40\n        /* \"#utility.yul\":12446:12510   */\n      tag_522\n        /* \"#utility.yul\":12502:12509   */\n      dup8\n        /* \"#utility.yul\":12493:12499   */\n      dup3\n        /* \"#utility.yul\":12482:12491   */\n      dup9\n        /* \"#utility.yul\":12478:12500   */\n      add\n        /* \"#utility.yul\":12446:12510   */\n      tag_347\n      jump\t// in\n    tag_522:\n        /* \"#utility.yul\":12436:12510   */\n      swap3\n      pop\n        /* \"#utility.yul\":12391:12520   */\n      pop\n        /* \"#utility.yul\":12559:12561   */\n      0x60\n        /* \"#utility.yul\":12585:12649   */\n      tag_523\n        /* \"#utility.yul\":12641:12648   */\n      dup8\n        /* \"#utility.yul\":12632:12638   */\n      dup3\n        /* \"#utility.yul\":12621:12630   */\n      dup9\n        /* \"#utility.yul\":12617:12639   */\n      add\n        /* \"#utility.yul\":12585:12649   */\n      tag_347\n      jump\t// in\n    tag_523:\n        /* \"#utility.yul\":12575:12649   */\n      swap2\n      pop\n        /* \"#utility.yul\":12530:12659   */\n      pop\n        /* \"#utility.yul\":11673:12666   */\n      swap3\n      swap6\n      swap2\n      swap5\n      pop\n      swap3\n      pop\n      jump\t// out\n        /* \"#utility.yul\":12672:12813   */\n    tag_348:\n        /* \"#utility.yul\":12721:12725   */\n      0x00\n        /* \"#utility.yul\":12744:12747   */\n      dup2\n        /* \"#utility.yul\":12736:12747   */\n      swap1\n      pop\n        /* \"#utility.yul\":12767:12770   */\n      dup2\n        /* \"#utility.yul\":12764:12765   */\n      0x00\n        /* \"#utility.yul\":12757:12771   */\n      mstore\n        /* \"#utility.yul\":12801:12805   */\n      0x20\n        /* \"#utility.yul\":12798:12799   */\n      0x00\n        /* \"#utility.yul\":12788:12806   */\n      keccak256\n        /* \"#utility.yul\":12780:12806   */\n      swap1\n      pop\n        /* \"#utility.yul\":12672:12813   */\n      swap2\n      swap1\n      pop\n      jump\t// out\n        /* \"#utility.yul\":12819:12912   */\n    tag_349:\n        /* \"#utility.yul\":12856:12862   */\n      0x00\n        /* \"#utility.yul\":12903:12905   */\n      0x20\n        /* \"#utility.yul\":12898:12900   */\n      0x1f\n        /* \"#utility.yul\":12891:12896   */\n      dup4\n        /* \"#utility.yul\":12887:12901   */\n      add\n        /* \"#utility.yul\":12883:12906   */\n      div\n        /* \"#utility.yul\":12873:12906   */\n      swap1\n      pop\n        /* \"#utility.yul\":12819:12912   */\n      swap2\n      swap1\n      pop\n      jump\t// out\n        /* \"#utility.yul\":12918:13025   */\n    tag_350:\n        /* \"#utility.yul\":12962:12970   */\n      0x00\n        /* \"#utility.yul\":13012:13017   */\n      dup3\n        /* \"#utility.yul\":13006:13010   */\n      dup3\n        /* \"#utility.yul\":13002:13018   */\n      shl\n        /* \"#utility.yul\":12981:13018   */\n      swap1\n      pop\n        /* \"#utility.yul\":12918:13025   */\n      swap3\n      swap2\n      pop\n      pop\n      jump\t// out\n        /* \"#utility.yul\":13031:13424   */\n    tag_351:\n        /* \"#utility.yul\":13100:13106   */\n      0x00\n        /* \"#utility.yul\":13150:13151   */\n      0x08\n        /* \"#utility.yul\":13138:13148   */\n      dup4\n        /* \"#utility.yul\":13134:13152   */\n      mul\n        /* \"#utility.yul\":13173:13270   */\n      tag_528\n        /* \"#utility.yul\":13203:13269   */\n      0xffffffffffffffffffffffffffffffffffffffffffffffffffffffffffffffff\n        /* \"#utility.yul\":13192:13201   */\n      dup3\n        /* \"#utility.yul\":13173:13270   */\n      tag_350\n      jump\t// in\n    tag_528:\n        /* \"#utility.yul\":13291:13330   */\n      tag_529\n        /* \"#utility.yul\":13321:13329   */\n      dup7\n        /* \"#utility.yul\":13310:13319   */\n      dup4\n        /* \"#utility.yul\":13291:13330   */\n      tag_350\n      jump\t// in\n    tag_529:\n        /* \"#utility.yul\":13279:13330   */\n      swap6\n      pop\n        /* \"#utility.yul\":13363:13367   */\n      dup1\n        /* \"#utility.yul\":13359:13368   */\n      not\n        /* \"#utility.yul\":13352:13357   */\n      dup5\n        /* \"#utility.yul\":13348:13369   */\n      and\n        /* \"#utility.yul\":13339:13369   */\n      swap4\n      pop\n        /* \"#utility.yul\":13412:13416   */\n      dup1\n        /* \"#utility.yul\":13402:13410   */\n      dup7\n        /* \"#utility.yul\":13398:13417   */\n      and\n        /* \"#utility.yul\":13391:13396   */\n      dup5\n        /* \"#utility.yul\":13388:13418   */\n      or\n        /* \"#utility.yul\":13378:13418   */\n      swap3\n      pop\n        /* \"#utility.yul\":13107:13424   */\n      pop\n      pop\n        /* \"#utility.yul\":13031:13424   */\n      swap4\n      swap3\n      pop\n      pop\n      pop\n      jump\t// out\n        /* \"#utility.yul\":13430:13490   */\n    tag_352:\n        /* \"#utility.yul\":13458:13461   */\n      0x00\n        /* \"#utility.yul\":13479:13484   */\n      dup2\n        /* \"#utility.yul\":13472:13484   */\n      swap1\n      pop\n        /* \"#utility.yul\":13430:13490   */\n      swap2\n      swap1\n      pop\n      jump\t// out\n        /* \"#utility.yul\":13496:13638   */\n    tag_353:\n        /* \"#utility.yul\":13546:13555   */\n      0x00\n        /* \"#utility.yul\":13579:13632   */\n      tag_532\n        /* \"#utility.yul\":13597:13631   */\n      tag_533\n        /* \"#utility.yul\":13606:13630   */\n      tag_534\n        /* \"#utility.yul\":13624:13629   */\n      dup5\n        /* \"#utility.yul\":13606:13630   */\n      tag_330\n      jump\t// in\n    tag_534:\n        /* \"#utility.yul\":13597:13631   */\n      tag_352\n      jump\t// in\n    tag_533:\n        /* \"#utility.yul\":13579:13632   */\n      tag_330\n      jump\t// in\n    tag_532:\n        /* \"#utility.yul\":13566:13632   */\n      swap1\n      pop\n        /* \"#utility.yul\":13496:13638   */\n      swap2\n      swap1\n      pop\n      jump\t// out\n        /* \"#utility.yul\":13644:13719   */\n    tag_354:\n        /* \"#utility.yul\":13687:13690   */\n      0x00\n        /* \"#utility.yul\":13708:13713   */\n      dup2\n        /* \"#utility.yul\":13701:13713   */\n      swap1\n      pop\n        /* \"#utility.yul\":13644:13719   */\n      swap2\n      swap1\n      pop\n      jump\t// out\n        /* \"#utility.yul\":13725:13994   */\n    tag_355:\n        /* \"#utility.yul\":13835:13874   */\n      tag_537\n        /* \"#utility.yul\":13866:13873   */\n      dup4\n        /* \"#utility.yul\":13835:13874   */\n      tag_353\n      jump\t// in\n    tag_537:\n        /* \"#utility.yul\":13896:13987   */\n      tag_538\n        /* \"#utility.yul\":13945:13986   */\n      tag_539\n        /* \"#utility.yul\":13969:13985   */\n      dup3\n        /* \"#utility.yul\":13945:13986   */\n      tag_354\n      jump\t// in\n    tag_539:\n        /* \"#utility.yul\":13937:13943   */\n      dup5\n        /* \"#utility.yul\":13930:13934   */\n      dup5\n        /* \"#utility.yul\":13924:13935   */\n      sload\n        /* \"#utility.yul\":13896:13987   */\n      tag_351\n      jump\t// in\n    tag_538:\n        /* \"#utility.yul\":13890:13894   */\n      dup3\n        /* \"#utility.yul\":13883:13988   */\n      sstore\n        /* \"#utility.yul\":13801:13994   */\n      pop\n        /* \"#utility.yul\":13725:13994   */\n      pop\n      pop\n      pop\n      jump\t// out\n        /* \"#utility.yul\":14000:14073   */\n    tag_356:\n        /* \"#utility.yul\":14045:14048   */\n      0x00\n        /* \"#utility.yul\":14000:14073   */\n      swap1\n      jump\t// out\n        /* \"#utility.yul\":14079:14268   */\n    tag_357:\n        /* \"#utility.yul\":14156:14188   */\n      tag_542\n      tag_356\n      jump\t// in\n    tag_542:\n        /* \"#utility.yul\":14197:14262   */\n      tag_543\n        /* \"#utility.yul\":14255:14261   */\n      dup2\n        /* \"#utility.yul\":14247:14253   */\n      dup5\n        /* \"#utility.yul\":14241:14245   */\n      dup5\n        /* \"#utility.yul\":14197:14262   */\n      tag_355\n      jump\t// in\n    tag_543:\n        /* \"#utility.yul\":14132:14268   */\n      pop\n        /* \"#utility.yul\":14079:14268   */\n      pop\n      pop\n      jump\t// out\n        /* \"#utility.yul\":14274:14460   */\n    tag_358:\n        /* \"#utility.yul\":14334:14454   */\n    tag_545:\n        /* \"#utility.yul\":14351:14354   */\n      dup2\n        /* \"#utility.yul\":14344:14349   */\n      dup2\n        /* \"#utility.yul\":14341:14355   */\n      lt\n        /* \"#utility.yul\":14334:14454   */\n      iszero\n      tag_547\n      jumpi\n        /* \"#utility.yul\":14405:14444   */\n      tag_548\n        /* \"#utility.yul\":14442:14443   */\n      0x00\n        /* \"#utility.yul\":14435:14440   */\n      dup3\n        /* \"#utility.yul\":14405:14444   */\n      tag_357\n      jump\t// in\n    tag_548:\n        /* \"#utility.yul\":14378:14379   */\n      0x01\n        /* \"#utility.yul\":14371:14376   */\n      dup2\n        /* \"#utility.yul\":14367:14380   */\n      add\n        /* \"#utility.yul\":14358:14380   */\n      swap1\n      pop\n        /* \"#utility.yul\":14334:14454   */\n      jump(tag_545)\n    tag_547:\n        /* \"#utility.yul\":14274:14460   */\n      pop\n      pop\n      jump\t// out\n        /* \"#utility.yul\":14466:15009   */\n    tag_359:\n        /* \"#utility.yul\":14567:14569   */\n      0x1f\n        /* \"#utility.yul\":14562:14565   */\n      dup3\n        /* \"#utility.yul\":14559:14570   */\n      gt\n        /* \"#utility.yul\":14556:15002   */\n      iszero\n      tag_550\n      jumpi\n        /* \"#utility.yul\":14601:14639   */\n      tag_551\n        /* \"#utility.yul\":14633:14638   */\n      dup2\n        /* \"#utility.yul\":14601:14639   */\n      tag_348\n      jump\t// in\n    tag_551:\n        /* \"#utility.yul\":14685:14714   */\n      tag_552\n        /* \"#utility.yul\":14703:14713   */\n      dup5\n        /* \"#utility.yul\":14685:14714   */\n      tag_349\n      jump\t// in\n    tag_552:\n        /* \"#utility.yul\":14675:14683   */\n      dup2\n        /* \"#utility.yul\":14671:14715   */\n      add\n        /* \"#utility.yul\":14868:14870   */\n      0x20\n        /* \"#utility.yul\":14856:14866   */\n      dup6\n        /* \"#utility.yul\":14853:14871   */\n      lt\n        /* \"#utility.yul\":14850:14899   */\n      iszero\n      tag_553\n      jumpi\n        /* \"#utility.yul\":14889:14897   */\n      dup2\n        /* \"#utility.yul\":14874:14897   */\n      swap1\n      pop\n        /* \"#utility.yul\":14850:14899   */\n    tag_553:\n        /* \"#utility.yul\":14912:14992   */\n      tag_554\n        /* \"#utility.yul\":14968:14990   */\n      tag_555\n        /* \"#utility.yul\":14986:14989   */\n      dup6\n        /* \"#utility.yul\":14968:14990   */\n      tag_349\n      jump\t// in\n    tag_555:\n        /* \"#utility.yul\":14958:14966   */\n      dup4\n        /* \"#utility.yul\":14954:14991   */\n      add\n        /* \"#utility.yul\":14941:14952   */\n      dup3\n        /* \"#utility.yul\":14912:14992   */\n      tag_358\n      jump\t// in\n    tag_554:\n        /* \"#utility.yul\":14571:15002   */\n      pop\n      pop\n        /* \"#utility.yul\":14556:15002   */\n    tag_550:\n        /* \"#utility.yul\":14466:15009   */\n      pop\n      pop\n      pop\n      jump\t// out\n        /* \"#utility.yul\":15015:15132   */\n    tag_360:\n        /* \"#utility.yul\":15069:15077   */\n      0x00\n        /* \"#utility.yul\":15119:15124   */\n      dup3\n        /* \"#utility.yul\":15113:15117   */\n      dup3\n        /* \"#utility.yul\":15109:15125   */\n      shr\n        /* \"#utility.yul\":15088:15125   */\n      swap1\n      pop\n        /* \"#utility.yul\":15015:15132   */\n      swap3\n      swap2\n      pop\n      pop\n      jump\t// out\n        /* \"#utility.yul\":15138:15307   */\n    tag_361:\n        /* \"#utility.yul\":15182:15188   */\n      0x00\n        /* \"#utility.yul\":15215:15266   */\n      tag_558\n        /* \"#utility.yul\":15263:15264   */\n      0x00\n        /* \"#utility.yul\":15259:15265   */\n      not\n        /* \"#utility.yul\":15251:15256   */\n      dup5\n        /* \"#utility.yul\":15248:15249   */\n      0x08\n        /* \"#utility.yul\":15244:15257   */\n      mul\n        /* \"#utility.yul\":15215:15266   */\n      tag_360\n      jump\t// in\n    tag_558:\n        /* \"#utility.yul\":15211:15267   */\n      not\n        /* \"#utility.yul\":15296:15300   */\n      dup1\n        /* \"#utility.yul\":15290:15294   */\n      dup4\n        /* \"#utility.yul\":15286:15301   */\n      and\n        /* \"#utility.yul\":15276:15301   */\n      swap2\n      pop\n        /* \"#utility.yul\":15189:15307   */\n      pop\n        /* \"#utility.yul\":15138:15307   */\n      swap3\n      swap2\n      pop\n      pop\n      jump\t// out\n        /* \"#utility.yul\":15312:15607   */\n    tag_362:\n        /* \"#utility.yul\":15388:15392   */\n      0x00\n        /* \"#utility.yul\":15534:15563   */\n      tag_560\n        /* \"#utility.yul\":15559:15562   */\n      dup4\n        /* \"#utility.yul\":15553:15557   */\n      dup4\n        /* \"#utility.yul\":15534:15563   */\n      tag_361\n      jump\t// in\n    tag_560:\n        /* \"#utility.yul\":15526:15563   */\n      swap2\n      pop\n        /* \"#utility.yul\":15596:15599   */\n      dup3\n        /* \"#utility.yul\":15593:15594   */\n      0x02\n        /* \"#utility.yul\":15589:15600   */\n      mul\n        /* \"#utility.yul\":15583:15587   */\n      dup3\n        /* \"#utility.yul\":15580:15601   */\n      or\n        /* \"#utility.yul\":15572:15601   */\n      swap1\n      pop\n        /* \"#utility.yul\":15312:15607   */\n      swap3\n      swap2\n      pop\n      pop\n      jump\t// out\n        /* \"#utility.yul\":15612:17007   */\n    tag_113:\n        /* \"#utility.yul\":15729:15766   */\n      tag_562\n        /* \"#utility.yul\":15762:15765   */\n      dup3\n        /* \"#utility.yul\":15729:15766   */\n      tag_332\n      jump\t// in\n    tag_562:\n        /* \"#utility.yul\":15831:15849   */\n      0xffffffffffffffff\n        /* \"#utility.yul\":15823:15829   */\n      dup2\n        /* \"#utility.yul\":15820:15850   */\n      gt\n        /* \"#utility.yul\":15817:15873   */\n      iszero\n      tag_563\n      jumpi\n        /* \"#utility.yul\":15853:15871   */\n      tag_564\n      tag_315\n      jump\t// in\n    tag_564:\n        /* \"#utility.yul\":15817:15873   */\n    tag_563:\n        /* \"#utility.yul\":15897:15935   */\n      tag_565\n        /* \"#utility.yul\":15929:15933   */\n      dup3\n        /* \"#utility.yul\":15923:15934   */\n      sload\n        /* \"#utility.yul\":15897:15935   */\n      tag_72\n      jump\t// in\n    tag_565:\n        /* \"#utility.yul\":15982:16049   */\n      tag_566\n        /* \"#utility.yul\":16042:16048   */\n      dup3\n        /* \"#utility.yul\":16034:16040   */\n      dup3\n        /* \"#utility.yul\":16028:16032   */\n      dup6\n        /* \"#utility.yul\":15982:16049   */\n      tag_359\n      jump\t// in\n    tag_566:\n        /* \"#utility.yul\":16076:16077   */\n      0x00\n        /* \"#utility.yul\":16100:16104   */\n      0x20\n        /* \"#utility.yul\":16087:16104   */\n      swap1\n      pop\n        /* \"#utility.yul\":16132:16134   */\n      0x1f\n        /* \"#utility.yul\":16124:16130   */\n      dup4\n        /* \"#utility.yul\":16121:16135   */\n      gt\n        /* \"#utility.yul\":16149:16150   */\n      0x01\n        /* \"#utility.yul\":16144:16762   */\n      dup2\n      eq\n      tag_568\n      jumpi\n        /* \"#utility.yul\":16806:16807   */\n      0x00\n        /* \"#utility.yul\":16823:16829   */\n      dup5\n        /* \"#utility.yul\":16820:16897   */\n      iszero\n      tag_569\n      jumpi\n        /* \"#utility.yul\":16872:16881   */\n      dup3\n        /* \"#utility.yul\":16867:16870   */\n      dup8\n        /* \"#utility.yul\":16863:16882   */\n      add\n        /* \"#utility.yul\":16857:16883   */\n      mload\n        /* \"#utility.yul\":16848:16883   */\n      swap1\n      pop\n        /* \"#utility.yul\":16820:16897   */\n    tag_569:\n        /* \"#utility.yul\":16923:16990   */\n      tag_570\n        /* \"#utility.yul\":16983:16989   */\n      dup6\n        /* \"#utility.yul\":16976:16981   */\n      dup3\n        /* \"#utility.yul\":16923:16990   */\n      tag_362\n      jump\t// in\n    tag_570:\n        /* \"#utility.yul\":16917:16921   */\n      dup7\n        /* \"#utility.yul\":16910:16991   */\n      sstore\n        /* \"#utility.yul\":16779:17001   */\n      pop\n        /* \"#utility.yul\":16114:17001   */\n      jump(tag_567)\n        /* \"#utility.yul\":16144:16762   */\n    tag_568:\n        /* \"#utility.yul\":16196:16200   */\n      0x1f\n        /* \"#utility.yul\":16192:16201   */\n      not\n        /* \"#utility.yul\":16184:16190   */\n      dup5\n        /* \"#utility.yul\":16180:16202   */\n      and\n        /* \"#utility.yul\":16230:16267   */\n      tag_571\n        /* \"#utility.yul\":16262:16266   */\n      dup7\n        /* \"#utility.yul\":16230:16267   */\n      tag_348\n      jump\t// in\n    tag_571:\n        /* \"#utility.yul\":16289:16290   */\n      0x00\n        /* \"#utility.yul\":16303:16511   */\n    tag_572:\n        /* \"#utility.yul\":16317:16324   */\n      dup3\n        /* \"#utility.yul\":16314:16315   */\n      dup2\n        /* \"#utility.yul\":16311:16325   */\n      lt\n        /* \"#utility.yul\":16303:16511   */\n      iszero\n      tag_574\n      jumpi\n        /* \"#utility.yul\":16396:16405   */\n      dup5\n        /* \"#utility.yul\":16391:16394   */\n      dup10\n        /* \"#utility.yul\":16387:16406   */\n      add\n        /* \"#utility.yul\":16381:16407   */\n      mload\n        /* \"#utility.yul\":16373:16379   */\n      dup3\n        /* \"#utility.yul\":16366:16408   */\n      sstore\n        /* \"#utility.yul\":16447:16448   */\n      0x01\n        /* \"#utility.yul\":16439:16445   */\n      dup3\n        /* \"#utility.yul\":16435:16449   */\n      add\n        /* \"#utility.yul\":16425:16449   */\n      swap2\n      pop\n        /* \"#utility.yul\":16494:16496   */\n      0x20\n        /* \"#utility.yul\":16483:16492   */\n      dup6\n        /* \"#utility.yul\":16479:16497   */\n      add\n        /* \"#utility.yul\":16466:16497   */\n      swap5\n      pop\n        /* \"#utility.yul\":16340:16344   */\n      0x20\n        /* \"#utility.yul\":16337:16338   */\n      dup2\n        /* \"#utility.yul\":16333:16345   */\n      add\n        /* \"#utility.yul\":16328:16345   */\n      swap1\n      pop\n        /* \"#utility.yul\":16303:16511   */\n      jump(tag_572)\n    tag_574:\n        /* \"#utility.yul\":16539:16545   */\n      dup7\n        /* \"#utility.yul\":16530:16537   */\n      dup4\n        /* \"#utility.yul\":16527:16546   */\n      lt\n        /* \"#utility.yul\":16524:16703   */\n      iszero\n      tag_575\n      jumpi\n        /* \"#utility.yul\":16597:16606   */\n      dup5\n        /* \"#utility.yul\":16592:16595   */\n      dup10\n        /* \"#utility.yul\":16588:16607   */\n      add\n        /* \"#utility.yul\":16582:16608   */\n      mload\n        /* \"#utility.yul\":16640:16688   */\n      tag_576\n        /* \"#utility.yul\":16682:16686   */\n      0x1f\n        /* \"#utility.yul\":16674:16680   */\n      dup10\n        /* \"#utility.yul\":16670:16687   */\n      and\n        /* \"#utility.yul\":16659:16668   */\n      dup3\n        /* \"#utility.yul\":16640:16688   */\n      tag_361\n      jump\t// in\n    tag_576:\n        /* \"#utility.yul\":16632:16638   */\n      dup4\n        /* \"#utility.yul\":16625:16689   */\n      sstore\n        /* \"#utility.yul\":16547:16703   */\n      pop\n        /* \"#utility.yul\":16524:16703   */\n    tag_575:\n        /* \"#utility.yul\":16749:16750   */\n      0x01\n        /* \"#utility.yul\":16745:16746   */\n      0x02\n        /* \"#utility.yul\":16737:16743   */\n      dup9\n        /* \"#utility.yul\":16733:16747   */\n      mul\n        /* \"#utility.yul\":16729:16751   */\n      add\n        /* \"#utility.yul\":16723:16727   */\n      dup9\n        /* \"#utility.yul\":16716:16752   */\n      sstore\n        /* \"#utility.yul\":16151:16762   */\n      pop\n      pop\n      pop\n        /* \"#utility.yul\":16114:17001   */\n    tag_567:\n      pop\n        /* \"#utility.yul\":15704:17007   */\n      pop\n      pop\n      pop\n        /* \"#utility.yul\":15612:17007   */\n      pop\n      pop\n      jump\t// out\n        /* \"#utility.yul\":17013:17153   */\n    tag_363:\n        /* \"#utility.yul\":17061:17065   */\n      0x00\n        /* \"#utility.yul\":17084:17087   */\n      dup2\n        /* \"#utility.yul\":17076:17087   */\n      swap1\n      pop\n        /* \"#utility.yul\":17107:17110   */\n      dup2\n        /* \"#utility.yul\":17104:17105   */\n      0x00\n        /* \"#utility.yul\":17097:17111   */\n      mstore\n        /* \"#utility.yul\":17141:17145   */\n      0x20\n        /* \"#utility.yul\":17138:17139   */\n      0x00\n        /* \"#utility.yul\":17128:17146   */\n      keccak256\n        /* \"#utility.yul\":17120:17146   */\n      swap1\n      pop\n        /* \"#utility.yul\":17013:17153   */\n      swap2\n      swap1\n      pop\n      jump\t// out\n        /* \"#utility.yul\":17159:17700   */\n    tag_364:\n        /* \"#utility.yul\":17259:17261   */\n      0x1f\n        /* \"#utility.yul\":17254:17257   */\n      dup3\n        /* \"#utility.yul\":17251:17262   */\n      gt\n        /* \"#utility.yul\":17248:17693   */\n      iszero\n      tag_579\n      jumpi\n        /* \"#utility.yul\":17293:17330   */\n      tag_580\n        /* \"#utility.yul\":17324:17329   */\n      dup2\n        /* \"#utility.yul\":17293:17330   */\n      tag_363\n      jump\t// in\n    tag_580:\n        /* \"#utility.yul\":17376:17405   */\n      tag_581\n        /* \"#utility.yul\":17394:17404   */\n      dup5\n        /* \"#utility.yul\":17376:17405   */\n      tag_349\n      jump\t// in\n    tag_581:\n        /* \"#utility.yul\":17366:17374   */\n      dup2\n        /* \"#utility.yul\":17362:17406   */\n      add\n        /* \"#utility.yul\":17559:17561   */\n      0x20\n        /* \"#utility.yul\":17547:17557   */\n      dup6\n        /* \"#utility.yul\":17544:17562   */\n      lt\n        /* \"#utility.yul\":17541:17590   */\n      iszero\n      tag_582\n      jumpi\n        /* \"#utility.yul\":17580:17588   */\n      dup2\n        /* \"#utility.yul\":17565:17588   */\n      swap1\n      pop\n        /* \"#utility.yul\":17541:17590   */\n    tag_582:\n        /* \"#utility.yul\":17603:17683   */\n      tag_583\n        /* \"#utility.yul\":17659:17681   */\n      tag_584\n        /* \"#utility.yul\":17677:17680   */\n      dup6\n        /* \"#utility.yul\":17659:17681   */\n      tag_349\n      jump\t// in\n    tag_584:\n        /* \"#utility.yul\":17649:17657   */\n      dup4\n        /* \"#utility.yul\":17645:17682   */\n      add\n        /* \"#utility.yul\":17632:17643   */\n      dup3\n        /* \"#utility.yul\":17603:17683   */\n      tag_358\n      jump\t// in\n    tag_583:\n        /* \"#utility.yul\":17263:17693   */\n      pop\n      pop\n        /* \"#utility.yul\":17248:17693   */\n    tag_579:\n        /* \"#utility.yul\":17159:17700   */\n      pop\n      pop\n      pop\n      jump\t// out\n        /* \"#utility.yul\":17706:19096   */\n    tag_115:\n        /* \"#utility.yul\":17821:17857   */\n      tag_586\n        /* \"#utility.yul\":17853:17856   */\n      dup3\n        /* \"#utility.yul\":17821:17857   */\n      tag_326\n      jump\t// in\n    tag_586:\n        /* \"#utility.yul\":17922:17940   */\n      0xffffffffffffffff\n        /* \"#utility.yul\":17914:17920   */\n      dup2\n        /* \"#utility.yul\":17911:17941   */\n      gt\n        /* \"#utility.yul\":17908:17964   */\n      iszero\n      tag_587\n      jumpi\n        /* \"#utility.yul\":17944:17962   */\n      tag_588\n      tag_315\n      jump\t// in\n    tag_588:\n        /* \"#utility.yul\":17908:17964   */\n    tag_587:\n        /* \"#utility.yul\":17988:18026   */\n      tag_589\n        /* \"#utility.yul\":18020:18024   */\n      dup3\n        /* \"#utility.yul\":18014:18025   */\n      sload\n        /* \"#utility.yul\":17988:18026   */\n      tag_72\n      jump\t// in\n    tag_589:\n        /* \"#utility.yul\":18073:18139   */\n      tag_590\n        /* \"#utility.yul\":18132:18138   */\n      dup3\n        /* \"#utility.yul\":18124:18130   */\n      dup3\n        /* \"#utility.yul\":18118:18122   */\n      dup6\n        /* \"#utility.yul\":18073:18139   */\n      tag_364\n      jump\t// in\n    tag_590:\n        /* \"#utility.yul\":18166:18167   */\n      0x00\n        /* \"#utility.yul\":18190:18194   */\n      0x20\n        /* \"#utility.yul\":18177:18194   */\n      swap1\n      pop\n        /* \"#utility.yul\":18222:18224   */\n      0x1f\n        /* \"#utility.yul\":18214:18220   */\n      dup4\n        /* \"#utility.yul\":18211:18225   */\n      gt\n        /* \"#utility.yul\":18239:18240   */\n      0x01\n        /* \"#utility.yul\":18234:18851   */\n      dup2\n      eq\n      tag_592\n      jumpi\n        /* \"#utility.yul\":18895:18896   */\n      0x00\n        /* \"#utility.yul\":18912:18918   */\n      dup5\n        /* \"#utility.yul\":18909:18986   */\n      iszero\n      tag_593\n      jumpi\n        /* \"#utility.yul\":18961:18970   */\n      dup3\n        /* \"#utility.yul\":18956:18959   */\n      dup8\n        /* \"#utility.yul\":18952:18971   */\n      add\n        /* \"#utility.yul\":18946:18972   */\n      mload\n        /* \"#utility.yul\":18937:18972   */\n      swap1\n      pop\n        /* \"#utility.yul\":18909:18986   */\n    tag_593:\n        /* \"#utility.yul\":19012:19079   */\n      tag_594\n        /* \"#utility.yul\":19072:19078   */\n      dup6\n        /* \"#utility.yul\":19065:19070   */\n      dup3\n        /* \"#utility.yul\":19012:19079   */\n      tag_362\n      jump\t// in\n    tag_594:\n        /* \"#utility.yul\":19006:19010   */\n      dup7\n        /* \"#utility.yul\":18999:19080   */\n      sstore\n        /* \"#utility.yul\":18868:19090   */\n      pop\n        /* \"#utility.yul\":18204:19090   */\n      jump(tag_591)\n        /* \"#utility.yul\":18234:18851   */\n    tag_592:\n        /* \"#utility.yul\":18286:18290   */\n      0x1f\n        /* \"#utility.yul\":18282:18291   */\n      not\n        /* \"#utility.yul\":18274:18280   */\n      dup5\n        /* \"#utility.yul\":18270:18292   */\n      and\n        /* \"#utility.yul\":18320:18356   */\n      tag_595\n        /* \"#utility.yul\":18351:18355   */\n      dup7\n        /* \"#utility.yul\":18320:18356   */\n      tag_363\n      jump\t// in\n    tag_595:\n        /* \"#utility.yul\":18378:18379   */\n      0x00\n        /* \"#utility.yul\":18392:18600   */\n    tag_596:\n        /* \"#utility.yul\":18406:18413   */\n      dup3\n        /* \"#utility.yul\":18403:18404   */\n      dup2\n        /* \"#utility.yul\":18400:18414   */\n      lt\n        /* \"#utility.yul\":18392:18600   */\n      iszero\n      tag_598\n      jumpi\n        /* \"#utility.yul\":18485:18494   */\n      dup5\n        /* \"#utility.yul\":18480:18483   */\n      dup10\n        /* \"#utility.yul\":18476:18495   */\n      add\n        /* \"#utility.yul\":18470:18496   */\n      mload\n        /* \"#utility.yul\":18462:18468   */\n      dup3\n        /* \"#utility.yul\":18455:18497   */\n      sstore\n        /* \"#utility.yul\":18536:18537   */\n      0x01\n        /* \"#utility.yul\":18528:18534   */\n      dup3\n        /* \"#utility.yul\":18524:18538   */\n      add\n        /* \"#utility.yul\":18514:18538   */\n      swap2\n      pop\n        /* \"#utility.yul\":18583:18585   */\n      0x20\n        /* \"#utility.yul\":18572:18581   */\n      dup6\n        /* \"#utility.yul\":18568:18586   */\n      add\n        /* \"#utility.yul\":18555:18586   */\n      swap5\n      pop\n        /* \"#utility.yul\":18429:18433   */\n      0x20\n        /* \"#utility.yul\":18426:18427   */\n      dup2\n        /* \"#utility.yul\":18422:18434   */\n      add\n        /* \"#utility.yul\":18417:18434   */\n      swap1\n      pop\n        /* \"#utility.yul\":18392:18600   */\n      jump(tag_596)\n    tag_598:\n        /* \"#utility.yul\":18628:18634   */\n      dup7\n        /* \"#utility.yul\":18619:18626   */\n      dup4\n        /* \"#utility.yul\":18616:18635   */\n      lt\n        /* \"#utility.yul\":18613:18792   */\n      iszero\n      tag_599\n      jumpi\n        /* \"#utility.yul\":18686:18695   */\n      dup5\n        /* \"#utility.yul\":18681:18684   */\n      dup10\n        /* \"#utility.yul\":18677:18696   */\n      add\n        /* \"#utility.yul\":18671:18697   */\n      mload\n        /* \"#utility.yul\":18729:18777   */\n      tag_600\n        /* \"#utility.yul\":18771:18775   */\n      0x1f\n        /* \"#utility.yul\":18763:18769   */\n      dup10\n        /* \"#utility.yul\":18759:18776   */\n      and\n        /* \"#utility.yul\":18748:18757   */\n      dup3\n        /* \"#utility.yul\":18729:18777   */\n      tag_361\n      jump\t// in\n    tag_600:\n        /* \"#utility.yul\":18721:18727   */\n      dup4\n        /* \"#utility.yul\":18714:18778   */\n      sstore\n        /* \"#utility.yul\":18636:18792   */\n      pop\n        /* \"#utility.yul\":18613:18792   */\n    tag_599:\n        /* \"#utility.yul\":18838:18839   */\n      0x01\n        /* \"#utility.yul\":18834:18835   */\n      0x02\n        /* \"#utility.yul\":18826:18832   */\n      dup9\n        /* \"#utility.yul\":18822:18836   */\n      mul\n        /* \"#utility.yul\":18818:18840   */\n      add\n        /* \"#utility.yul\":18812:18816   */\n      dup9\n        /* \"#utility.yul\":18805:18841   */\n      sstore\n        /* \"#utility.yul\":18241:18851   */\n      pop\n      pop\n      pop\n        /* \"#utility.yul\":18204:19090   */\n    tag_591:\n      pop\n        /* \"#utility.yul\":17796:19096   */\n      pop\n      pop\n      pop\n        /* \"#utility.yul\":17706:19096   */\n      pop\n      pop\n      jump\t// out\n        /* \"#utility.yul\":19126:19957   */\n    tag_365:\n        /* \"#utility.yul\":19211:19214   */\n      0x00\n        /* \"#utility.yul\":19248:19253   */\n      dup2\n        /* \"#utility.yul\":19242:19254   */\n      sload\n        /* \"#utility.yul\":19277:19313   */\n      tag_602\n        /* \"#utility.yul\":19303:19312   */\n      dup2\n        /* \"#utility.yul\":19277:19313   */\n      tag_72\n      jump\t// in\n    tag_602:\n        /* \"#utility.yul\":19329:19400   */\n      tag_603\n        /* \"#utility.yul\":19393:19399   */\n      dup2\n        /* \"#utility.yul\":19388:19391   */\n      dup7\n        /* \"#utility.yul\":19329:19400   */\n      tag_333\n      jump\t// in\n    tag_603:\n        /* \"#utility.yul\":19322:19400   */\n      swap5\n      pop\n        /* \"#utility.yul\":19431:19432   */\n      0x01\n        /* \"#utility.yul\":19420:19429   */\n      dup3\n        /* \"#utility.yul\":19416:19433   */\n      and\n        /* \"#utility.yul\":19447:19448   */\n      0x00\n        /* \"#utility.yul\":19442:19606   */\n      dup2\n      eq\n      tag_605\n      jumpi\n        /* \"#utility.yul\":19620:19621   */\n      0x01\n        /* \"#utility.yul\":19615:19951   */\n      dup2\n      eq\n      tag_606\n      jumpi\n        /* \"#utility.yul\":19409:19951   */\n      jump(tag_604)\n        /* \"#utility.yul\":19442:19606   */\n    tag_605:\n        /* \"#utility.yul\":19526:19530   */\n      0xff\n        /* \"#utility.yul\":19522:19531   */\n      not\n        /* \"#utility.yul\":19511:19520   */\n      dup4\n        /* \"#utility.yul\":19507:19532   */\n      and\n        /* \"#utility.yul\":19502:19505   */\n      dup7\n        /* \"#utility.yul\":19495:19533   */\n      mstore\n        /* \"#utility.yul\":19586:19592   */\n      dup2\n        /* \"#utility.yul\":19579:19593   */\n      iszero\n        /* \"#utility.yul\":19572:19594   */\n      iszero\n        /* \"#utility.yul\":19566:19570   */\n      0x20\n        /* \"#utility.yul\":19562:19595   */\n      mul\n        /* \"#utility.yul\":19557:19560   */\n      dup7\n        /* \"#utility.yul\":19553:19596   */\n      add\n        /* \"#utility.yul\":19546:19596   */\n      swap4\n      pop\n        /* \"#utility.yul\":19442:19606   */\n      jump(tag_604)\n        /* \"#utility.yul\":19615:19951   */\n    tag_606:\n        /* \"#utility.yul\":19682:19720   */\n      tag_607\n        /* \"#utility.yul\":19714:19719   */\n      dup6\n        /* \"#utility.yul\":19682:19720   */\n      tag_348\n      jump\t// in\n    tag_607:\n        /* \"#utility.yul\":19742:19743   */\n      0x00\n        /* \"#utility.yul\":19756:19910   */\n    tag_608:\n        /* \"#utility.yul\":19770:19776   */\n      dup4\n        /* \"#utility.yul\":19767:19768   */\n      dup2\n        /* \"#utility.yul\":19764:19777   */\n      lt\n        /* \"#utility.yul\":19756:19910   */\n      iszero\n      tag_610\n      jumpi\n        /* \"#utility.yul\":19844:19851   */\n      dup2\n        /* \"#utility.yul\":19838:19852   */\n      sload\n        /* \"#utility.yul\":19834:19835   */\n      dup2\n        /* \"#utility.yul\":19829:19832   */\n      dup10\n        /* \"#utility.yul\":19825:19836   */\n      add\n        /* \"#utility.yul\":19818:19853   */\n      mstore\n        /* \"#utility.yul\":19894:19895   */\n      0x01\n        /* \"#utility.yul\":19885:19892   */\n      dup3\n        /* \"#utility.yul\":19881:19896   */\n      add\n        /* \"#utility.yul\":19870:19896   */\n      swap2\n      pop\n        /* \"#utility.yul\":19792:19796   */\n      0x20\n        /* \"#utility.yul\":19789:19790   */\n      dup2\n        /* \"#utility.yul\":19785:19797   */\n      add\n        /* \"#utility.yul\":19780:19797   */\n      swap1\n      pop\n        /* \"#utility.yul\":19756:19910   */\n      jump(tag_608)\n    tag_610:\n        /* \"#utility.yul\":19939:19940   */\n      dup1\n        /* \"#utility.yul\":19934:19937   */\n      dup9\n        /* \"#utility.yul\":19930:19941   */\n      add\n        /* \"#utility.yul\":19923:19941   */\n      swap6\n      pop\n        /* \"#utility.yul\":19622:19951   */\n      pop\n      pop\n        /* \"#utility.yul\":19409:19951   */\n    tag_604:\n      pop\n        /* \"#utility.yul\":19215:19957   */\n      pop\n      pop\n        /* \"#utility.yul\":19126:19957   */\n      swap3\n      swap2\n      pop\n      pop\n      jump\t// out\n        /* \"#utility.yul\":19985:20812   */\n    tag_366:\n        /* \"#utility.yul\":20068:20071   */\n      0x00\n        /* \"#utility.yul\":20105:20110   */\n      dup2\n        /* \"#utility.yul\":20099:20111   */\n      sload\n        /* \"#utility.yul\":20134:20170   */\n      tag_612\n        /* \"#utility.yul\":20160:20169   */\n      dup2\n        /* \"#utility.yul\":20134:20170   */\n      tag_72\n      jump\t// in\n    tag_612:\n        /* \"#utility.yul\":20186:20256   */\n      tag_613\n        /* \"#utility.yul\":20249:20255   */\n      dup2\n        /* \"#utility.yul\":20244:20247   */\n      dup7\n        /* \"#utility.yul\":20186:20256   */\n      tag_327\n      jump\t// in\n    tag_613:\n        /* \"#utility.yul\":20179:20256   */\n      swap5\n      pop\n        /* \"#utility.yul\":20287:20288   */\n      0x01\n        /* \"#utility.yul\":20276:20285   */\n      dup3\n        /* \"#utility.yul\":20272:20289   */\n      and\n        /* \"#utility.yul\":20303:20304   */\n      0x00\n        /* \"#utility.yul\":20298:20462   */\n      dup2\n      eq\n      tag_615\n      jumpi\n        /* \"#utility.yul\":20476:20477   */\n      0x01\n        /* \"#utility.yul\":20471:20806   */\n      dup2\n      eq\n      tag_616\n      jumpi\n        /* \"#utility.yul\":20265:20806   */\n      jump(tag_614)\n        /* \"#utility.yul\":20298:20462   */\n    tag_615:\n        /* \"#utility.yul\":20382:20386   */\n      0xff\n        /* \"#utility.yul\":20378:20387   */\n      not\n        /* \"#utility.yul\":20367:20376   */\n      dup4\n        /* \"#utility.yul\":20363:20388   */\n      and\n        /* \"#utility.yul\":20358:20361   */\n      dup7\n        /* \"#utility.yul\":20351:20389   */\n      mstore\n        /* \"#utility.yul\":20442:20448   */\n      dup2\n        /* \"#utility.yul\":20435:20449   */\n      iszero\n        /* \"#utility.yul\":20428:20450   */\n      iszero\n        /* \"#utility.yul\":20422:20426   */\n      0x20\n        /* \"#utility.yul\":20418:20451   */\n      mul\n        /* \"#utility.yul\":20413:20416   */\n      dup7\n        /* \"#utility.yul\":20409:20452   */\n      add\n        /* \"#utility.yul\":20402:20452   */\n      swap4\n      pop\n        /* \"#utility.yul\":20298:20462   */\n      jump(tag_614)\n        /* \"#utility.yul\":20471:20806   */\n    tag_616:\n        /* \"#utility.yul\":20538:20575   */\n      tag_617\n        /* \"#utility.yul\":20569:20574   */\n      dup6\n        /* \"#utility.yul\":20538:20575   */\n      tag_363\n      jump\t// in\n    tag_617:\n        /* \"#utility.yul\":20597:20598   */\n      0x00\n        /* \"#utility.yul\":20611:20765   */\n    tag_618:\n        /* \"#utility.yul\":20625:20631   */\n      dup4\n        /* \"#utility.yul\":20622:20623   */\n      dup2\n        /* \"#utility.yul\":20619:20632   */\n      lt\n        /* \"#utility.yul\":20611:20765   */\n      iszero\n      tag_620\n      jumpi\n        /* \"#utility.yul\":20699:20706   */\n      dup2\n        /* \"#utility.yul\":20693:20707   */\n      sload\n        /* \"#utility.yul\":20689:20690   */\n      dup2\n        /* \"#utility.yul\":20684:20687   */\n      dup10\n        /* \"#utility.yul\":20680:20691   */\n      add\n        /* \"#utility.yul\":20673:20708   */\n      mstore\n        /* \"#utility.yul\":20749:20750   */\n      0x01\n        /* \"#utility.yul\":20740:20747   */\n      dup3\n        /* \"#utility.yul\":20736:20751   */\n      add\n        /* \"#utility.yul\":20725:20751   */\n      swap2\n      pop\n        /* \"#utility.yul\":20647:20651   */\n      0x20\n        /* \"#utility.yul\":20644:20645   */\n      dup2\n        /* \"#utility.yul\":20640:20652   */\n      add\n        /* \"#utility.yul\":20635:20652   */\n      swap1\n      pop\n        /* \"#utility.yul\":20611:20765   */\n      jump(tag_618)\n    tag_620:\n        /* \"#utility.yul\":20794:20795   */\n      dup1\n        /* \"#utility.yul\":20789:20792   */\n      dup9\n        /* \"#utility.yul\":20785:20796   */\n      add\n        /* \"#utility.yul\":20778:20796   */\n      swap6\n      pop\n        /* \"#utility.yul\":20478:20806   */\n      pop\n      pop\n        /* \"#utility.yul\":20265:20806   */\n    tag_614:\n      pop\n        /* \"#utility.yul\":20072:20812   */\n      pop\n      pop\n        /* \"#utility.yul\":19985:20812   */\n      swap3\n      swap2\n      pop\n      pop\n      jump\t// out\n        /* \"#utility.yul\":20818:21840   */\n    tag_117:\n        /* \"#utility.yul\":21098:21102   */\n      0x00\n        /* \"#utility.yul\":21136:21139   */\n      0xc0\n        /* \"#utility.yul\":21125:21134   */\n      dup3\n        /* \"#utility.yul\":21121:21140   */\n      add\n        /* \"#utility.yul\":21113:21140   */\n      swap1\n      pop\n        /* \"#utility.yul\":21186:21195   */\n      dup2\n        /* \"#utility.yul\":21180:21184   */\n      dup2\n        /* \"#utility.yul\":21176:21196   */\n      sub\n        /* \"#utility.yul\":21172:21173   */\n      0x00\n        /* \"#utility.yul\":21161:21170   */\n      dup4\n        /* \"#utility.yul\":21157:21174   */\n      add\n        /* \"#utility.yul\":21150:21197   */\n      mstore\n        /* \"#utility.yul\":21214:21289   */\n      tag_622\n        /* \"#utility.yul\":21284:21288   */\n      dup2\n        /* \"#utility.yul\":21275:21281   */\n      dup10\n        /* \"#utility.yul\":21214:21289   */\n      tag_365\n      jump\t// in\n    tag_622:\n        /* \"#utility.yul\":21206:21289   */\n      swap1\n      pop\n        /* \"#utility.yul\":21299:21371   */\n      tag_623\n        /* \"#utility.yul\":21367:21369   */\n      0x20\n        /* \"#utility.yul\":21356:21365   */\n      dup4\n        /* \"#utility.yul\":21352:21370   */\n      add\n        /* \"#utility.yul\":21343:21349   */\n      dup9\n        /* \"#utility.yul\":21299:21371   */\n      tag_331\n      jump\t// in\n    tag_623:\n        /* \"#utility.yul\":21381:21453   */\n      tag_624\n        /* \"#utility.yul\":21449:21451   */\n      0x40\n        /* \"#utility.yul\":21438:21447   */\n      dup4\n        /* \"#utility.yul\":21434:21452   */\n      add\n        /* \"#utility.yul\":21425:21431   */\n      dup8\n        /* \"#utility.yul\":21381:21453   */\n      tag_331\n      jump\t// in\n    tag_624:\n        /* \"#utility.yul\":21463:21535   */\n      tag_625\n        /* \"#utility.yul\":21531:21533   */\n      0x60\n        /* \"#utility.yul\":21520:21529   */\n      dup4\n        /* \"#utility.yul\":21516:21534   */\n      add\n        /* \"#utility.yul\":21507:21513   */\n      dup7\n        /* \"#utility.yul\":21463:21535   */\n      tag_331\n      jump\t// in\n    tag_625:\n        /* \"#utility.yul\":21583:21592   */\n      dup2\n        /* \"#utility.yul\":21577:21581   */\n      dup2\n        /* \"#utility.yul\":21573:21593   */\n      sub\n        /* \"#utility.yul\":21567:21570   */\n      0x80\n        /* \"#utility.yul\":21556:21565   */\n      dup4\n        /* \"#utility.yul\":21552:21571   */\n      add\n        /* \"#utility.yul\":21545:21594   */\n      mstore\n        /* \"#utility.yul\":21611:21684   */\n      tag_626\n        /* \"#utility.yul\":21679:21683   */\n      dup2\n        /* \"#utility.yul\":21670:21676   */\n      dup6\n        /* \"#utility.yul\":21611:21684   */\n      tag_366\n      jump\t// in\n    tag_626:\n        /* \"#utility.yul\":21603:21684   */\n      swap1\n      pop\n        /* \"#utility.yul\":21732:21741   */\n      dup2\n        /* \"#utility.yul\":21726:21730   */\n      dup2\n        /* \"#utility.yul\":21722:21742   */\n      sub\n        /* \"#utility.yul\":21716:21719   */\n      0xa0\n        /* \"#utility.yul\":21705:21714   */\n      dup4\n        /* \"#utility.yul\":21701:21720   */\n      add\n        /* \"#utility.yul\":21694:21743   */\n      mstore\n        /* \"#utility.yul\":21760:21833   */\n      tag_627\n        /* \"#utility.yul\":21828:21832   */\n      dup2\n        /* \"#utility.yul\":21819:21825   */\n      dup5\n        /* \"#utility.yul\":21760:21833   */\n      tag_366\n      jump\t// in\n    tag_627:\n        /* \"#utility.yul\":21752:21833   */\n      swap1\n      pop\n        /* \"#utility.yul\":20818:21840   */\n      swap8\n      swap7\n      pop\n      pop\n      pop\n      pop\n      pop\n      pop\n      pop\n      jump\t// out\n        /* \"#utility.yul\":21846:22018   */\n    tag_367:\n        /* \"#utility.yul\":21986:22010   */\n      0x4f6e6c792063616c6c61626c65206279206f776e657200000000000000000000\n        /* \"#utility.yul\":21982:21983   */\n      0x00\n        /* \"#utility.yul\":21974:21980   */\n      dup3\n        /* \"#utility.yul\":21970:21984   */\n      add\n        /* \"#utility.yul\":21963:22011   */\n      mstore\n        /* \"#utility.yul\":21846:22018   */\n      pop\n      jump\t// out\n        /* \"#utility.yul\":22024:22390   */\n    tag_368:\n        /* \"#utility.yul\":22166:22169   */\n      0x00\n        /* \"#utility.yul\":22187:22254   */\n      tag_630\n        /* \"#utility.yul\":22251:22253   */\n      0x16\n        /* \"#utility.yul\":22246:22249   */\n      dup4\n        /* \"#utility.yul\":22187:22254   */\n      tag_333\n      jump\t// in\n    tag_630:\n        /* \"#utility.yul\":22180:22254   */\n      swap2\n      pop\n        /* \"#utility.yul\":22263:22356   */\n      tag_631\n        /* \"#utility.yul\":22352:22355   */\n      dup3\n        /* \"#utility.yul\":22263:22356   */\n      tag_367\n      jump\t// in\n    tag_631:\n        /* \"#utility.yul\":22381:22383   */\n      0x20\n        /* \"#utility.yul\":22376:22379   */\n      dup3\n        /* \"#utility.yul\":22372:22384   */\n      add\n        /* \"#utility.yul\":22365:22384   */\n      swap1\n      pop\n        /* \"#utility.yul\":22024:22390   */\n      swap2\n      swap1\n      pop\n      jump\t// out\n        /* \"#utility.yul\":22396:22815   */\n    tag_121:\n        /* \"#utility.yul\":22562:22566   */\n      0x00\n        /* \"#utility.yul\":22600:22602   */\n      0x20\n        /* \"#utility.yul\":22589:22598   */\n      dup3\n        /* \"#utility.yul\":22585:22603   */\n      add\n        /* \"#utility.yul\":22577:22603   */\n      swap1\n      pop\n        /* \"#utility.yul\":22649:22658   */\n      dup2\n        /* \"#utility.yul\":22643:22647   */\n      dup2\n        /* \"#utility.yul\":22639:22659   */\n      sub\n        /* \"#utility.yul\":22635:22636   */\n      0x00\n        /* \"#utility.yul\":22624:22633   */\n      dup4\n        /* \"#utility.yul\":22620:22637   */\n      add\n        /* \"#utility.yul\":22613:22660   */\n      mstore\n        /* \"#utility.yul\":22677:22808   */\n      tag_633\n        /* \"#utility.yul\":22803:22807   */\n      dup2\n        /* \"#utility.yul\":22677:22808   */\n      tag_368\n      jump\t// in\n    tag_633:\n        /* \"#utility.yul\":22669:22808   */\n      swap1\n      pop\n        /* \"#utility.yul\":22396:22815   */\n      swap2\n      swap1\n      pop\n      jump\t// out\n        /* \"#utility.yul\":22821:23001   */\n    tag_133:\n        /* \"#utility.yul\":22869:22946   */\n      0x4e487b7100000000000000000000000000000000000000000000000000000000\n        /* \"#utility.yul\":22866:22867   */\n      0x00\n        /* \"#utility.yul\":22859:22947   */\n      mstore\n        /* \"#utility.yul\":22966:22970   */\n      0x21\n        /* \"#utility.yul\":22963:22964   */\n      0x04\n        /* \"#utility.yul\":22956:22971   */\n      mstore\n        /* \"#utility.yul\":22990:22994   */\n      0x24\n        /* \"#utility.yul\":22987:22988   */\n      0x00\n        /* \"#utility.yul\":22980:22995   */\n      revert\n        /* \"#utility.yul\":23007:23187   */\n    tag_151:\n        /* \"#utility.yul\":23055:23132   */\n      0x4e487b7100000000000000000000000000000000000000000000000000000000\n        /* \"#utility.yul\":23052:23053   */\n      0x00\n        /* \"#utility.yul\":23045:23133   */\n      mstore\n        /* \"#utility.yul\":23152:23156   */\n      0x32\n        /* \"#utility.yul\":23149:23150   */\n      0x04\n        /* \"#utility.yul\":23142:23157   */\n      mstore\n        /* \"#utility.yul\":23176:23180   */\n      0x24\n        /* \"#utility.yul\":23173:23174   */\n      0x00\n        /* \"#utility.yul\":23166:23181   */\n      revert\n        /* \"#utility.yul\":23193:23373   */\n    tag_369:\n        /* \"#utility.yul\":23241:23318   */\n      0x4e487b7100000000000000000000000000000000000000000000000000000000\n        /* \"#utility.yul\":23238:23239   */\n      0x00\n        /* \"#utility.yul\":23231:23319   */\n      mstore\n        /* \"#utility.yul\":23338:23342   */\n      0x11\n        /* \"#utility.yul\":23335:23336   */\n      0x04\n        /* \"#utility.yul\":23328:23343   */\n      mstore\n        /* \"#utility.yul\":23362:23366   */\n      0x24\n        /* \"#utility.yul\":23359:23360   */\n      0x00\n        /* \"#utility.yul\":23352:23367   */\n      revert\n        /* \"#utility.yul\":23379:23612   */\n    tag_153:\n        /* \"#utility.yul\":23418:23421   */\n      0x00\n        /* \"#utility.yul\":23441:23465   */\n      tag_638\n        /* \"#utility.yul\":23459:23464   */\n      dup3\n        /* \"#utility.yul\":23441:23465   */\n      tag_330\n      jump\t// in\n    tag_638:\n        /* \"#utility.yul\":23432:23465   */\n      swap2\n      pop\n        /* \"#utility.yul\":23487:23553   */\n      0xffffffffffffffffffffffffffffffffffffffffffffffffffffffffffffffff\n        /* \"#utility.yul\":23480:23485   */\n      dup3\n        /* \"#utility.yul\":23477:23554   */\n      sub\n        /* \"#utility.yul\":23474:23577   */\n      tag_639\n      jumpi\n        /* \"#utility.yul\":23557:23575   */\n      tag_640\n      tag_369\n      jump\t// in\n    tag_640:\n        /* \"#utility.yul\":23474:23577   */\n    tag_639:\n        /* \"#utility.yul\":23604:23605   */\n      0x01\n        /* \"#utility.yul\":23597:23602   */\n      dup3\n        /* \"#utility.yul\":23593:23606   */\n      add\n        /* \"#utility.yul\":23586:23606   */\n      swap1\n      pop\n        /* \"#utility.yul\":23379:23612   */\n      swap2\n      swap1\n      pop\n      jump\t// out\n        /* \"#utility.yul\":23618:23733   */\n    tag_370:\n        /* \"#utility.yul\":23703:23726   */\n      tag_642\n        /* \"#utility.yul\":23720:23725   */\n      dup2\n        /* \"#utility.yul\":23703:23726   */\n      tag_322\n      jump\t// in\n    tag_642:\n        /* \"#utility.yul\":23698:23701   */\n      dup3\n        /* \"#utility.yul\":23691:23727   */\n      mstore\n        /* \"#utility.yul\":23618:23733   */\n      pop\n      pop\n      jump\t// out\n        /* \"#utility.yul\":23739:23828   */\n    tag_371:\n        /* \"#utility.yul\":23775:23782   */\n      0x00\n        /* \"#utility.yul\":23815:23821   */\n      0xffff\n        /* \"#utility.yul\":23808:23813   */\n      dup3\n        /* \"#utility.yul\":23804:23822   */\n      and\n        /* \"#utility.yul\":23793:23822   */\n      swap1\n      pop\n        /* \"#utility.yul\":23739:23828   */\n      swap2\n      swap1\n      pop\n      jump\t// out\n        /* \"#utility.yul\":23834:23949   */\n    tag_372:\n        /* \"#utility.yul\":23919:23942   */\n      tag_645\n        /* \"#utility.yul\":23936:23941   */\n      dup2\n        /* \"#utility.yul\":23919:23942   */\n      tag_371\n      jump\t// in\n    tag_645:\n        /* \"#utility.yul\":23914:23917   */\n      dup3\n        /* \"#utility.yul\":23907:23943   */\n      mstore\n        /* \"#utility.yul\":23834:23949   */\n      pop\n      pop\n      jump\t// out\n        /* \"#utility.yul\":23955:24048   */\n    tag_373:\n        /* \"#utility.yul\":23991:23998   */\n      0x00\n        /* \"#utility.yul\":24031:24041   */\n      0xffffffff\n        /* \"#utility.yul\":24024:24029   */\n      dup3\n        /* \"#utility.yul\":24020:24042   */\n      and\n        /* \"#utility.yul\":24009:24042   */\n      swap1\n      pop\n        /* \"#utility.yul\":23955:24048   */\n      swap2\n      swap1\n      pop\n      jump\t// out\n        /* \"#utility.yul\":24054:24169   */\n    tag_374:\n        /* \"#utility.yul\":24139:24162   */\n      tag_648\n        /* \"#utility.yul\":24156:24161   */\n      dup2\n        /* \"#utility.yul\":24139:24162   */\n      tag_373\n      jump\t// in\n    tag_648:\n        /* \"#utility.yul\":24134:24137   */\n      dup3\n        /* \"#utility.yul\":24127:24163   */\n      mstore\n        /* \"#utility.yul\":24054:24169   */\n      pop\n      pop\n      jump\t// out\n        /* \"#utility.yul\":24175:24914   */\n    tag_182:\n        /* \"#utility.yul\":24392:24396   */\n      0x00\n        /* \"#utility.yul\":24430:24433   */\n      0xa0\n        /* \"#utility.yul\":24419:24428   */\n      dup3\n        /* \"#utility.yul\":24415:24434   */\n      add\n        /* \"#utility.yul\":24407:24434   */\n      swap1\n      pop\n        /* \"#utility.yul\":24444:24513   */\n      tag_650\n        /* \"#utility.yul\":24510:24511   */\n      0x00\n        /* \"#utility.yul\":24499:24508   */\n      dup4\n        /* \"#utility.yul\":24495:24512   */\n      add\n        /* \"#utility.yul\":24486:24492   */\n      dup9\n        /* \"#utility.yul\":24444:24513   */\n      tag_370\n      jump\t// in\n    tag_650:\n        /* \"#utility.yul\":24560:24569   */\n      dup2\n        /* \"#utility.yul\":24554:24558   */\n      dup2\n        /* \"#utility.yul\":24550:24570   */\n      sub\n        /* \"#utility.yul\":24545:24547   */\n      0x20\n        /* \"#utility.yul\":24534:24543   */\n      dup4\n        /* \"#utility.yul\":24530:24548   */\n      add\n        /* \"#utility.yul\":24523:24571   */\n      mstore\n        /* \"#utility.yul\":24588:24664   */\n      tag_651\n        /* \"#utility.yul\":24659:24663   */\n      dup2\n        /* \"#utility.yul\":24650:24656   */\n      dup8\n        /* \"#utility.yul\":24588:24664   */\n      tag_329\n      jump\t// in\n    tag_651:\n        /* \"#utility.yul\":24580:24664   */\n      swap1\n      pop\n        /* \"#utility.yul\":24674:24744   */\n      tag_652\n        /* \"#utility.yul\":24740:24742   */\n      0x40\n        /* \"#utility.yul\":24729:24738   */\n      dup4\n        /* \"#utility.yul\":24725:24743   */\n      add\n        /* \"#utility.yul\":24716:24722   */\n      dup7\n        /* \"#utility.yul\":24674:24744   */\n      tag_372\n      jump\t// in\n    tag_652:\n        /* \"#utility.yul\":24754:24824   */\n      tag_653\n        /* \"#utility.yul\":24820:24822   */\n      0x60\n        /* \"#utility.yul\":24809:24818   */\n      dup4\n        /* \"#utility.yul\":24805:24823   */\n      add\n        /* \"#utility.yul\":24796:24802   */\n      dup6\n        /* \"#utility.yul\":24754:24824   */\n      tag_374\n      jump\t// in\n    tag_653:\n        /* \"#utility.yul\":24834:24907   */\n      tag_654\n        /* \"#utility.yul\":24902:24905   */\n      0x80\n        /* \"#utility.yul\":24891:24900   */\n      dup4\n        /* \"#utility.yul\":24887:24906   */\n      add\n        /* \"#utility.yul\":24878:24884   */\n      dup5\n        /* \"#utility.yul\":24834:24907   */\n      tag_325\n      jump\t// in\n    tag_654:\n        /* \"#utility.yul\":24175:24914   */\n      swap7\n      swap6\n      pop\n      pop\n      pop\n      pop\n      pop\n      pop\n      jump\t// out\n        /* \"#utility.yul\":24920:25063   */\n    tag_375:\n        /* \"#utility.yul\":24977:24982   */\n      0x00\n        /* \"#utility.yul\":25008:25014   */\n      dup2\n        /* \"#utility.yul\":25002:25015   */\n      mload\n        /* \"#utility.yul\":24993:25015   */\n      swap1\n      pop\n        /* \"#utility.yul\":25024:25057   */\n      tag_656\n        /* \"#utility.yul\":25051:25056   */\n      dup2\n        /* \"#utility.yul\":25024:25057   */\n      tag_310\n      jump\t// in\n    tag_656:\n        /* \"#utility.yul\":24920:25063   */\n      swap3\n      swap2\n      pop\n      pop\n      jump\t// out\n        /* \"#utility.yul\":25069:25420   */\n    tag_186:\n        /* \"#utility.yul\":25139:25145   */\n      0x00\n        /* \"#utility.yul\":25188:25190   */\n      0x20\n        /* \"#utility.yul\":25176:25185   */\n      dup3\n        /* \"#utility.yul\":25167:25174   */\n      dup5\n        /* \"#utility.yul\":25163:25186   */\n      sub\n        /* \"#utility.yul\":25159:25191   */\n      slt\n        /* \"#utility.yul\":25156:25275   */\n      iszero\n      tag_658\n      jumpi\n        /* \"#utility.yul\":25194:25273   */\n      tag_659\n      tag_307\n      jump\t// in\n    tag_659:\n        /* \"#utility.yul\":25156:25275   */\n    tag_658:\n        /* \"#utility.yul\":25314:25315   */\n      0x00\n        /* \"#utility.yul\":25339:25403   */\n      tag_660\n        /* \"#utility.yul\":25395:25402   */\n      dup5\n        /* \"#utility.yul\":25386:25392   */\n      dup3\n        /* \"#utility.yul\":25375:25384   */\n      dup6\n        /* \"#utility.yul\":25371:25393   */\n      add\n        /* \"#utility.yul\":25339:25403   */\n      tag_375\n      jump\t// in\n    tag_660:\n        /* \"#utility.yul\":25329:25403   */\n      swap2\n      pop\n        /* \"#utility.yul\":25285:25413   */\n      pop\n        /* \"#utility.yul\":25069:25420   */\n      swap3\n      swap2\n      pop\n      pop\n      jump\t// out\n        /* \"#utility.yul\":25426:25599   */\n    tag_376:\n        /* \"#utility.yul\":25566:25591   */\n      0x43616e6e6f74207472616e7366657220746f2073656c66000000000000000000\n        /* \"#utility.yul\":25562:25563   */\n      0x00\n        /* \"#utility.yul\":25554:25560   */\n      dup3\n        /* \"#utility.yul\":25550:25564   */\n      add\n        /* \"#utility.yul\":25543:25592   */\n      mstore\n        /* \"#utility.yul\":25426:25599   */\n      pop\n      jump\t// out\n        /* \"#utility.yul\":25605:25971   */\n    tag_377:\n        /* \"#utility.yul\":25747:25750   */\n      0x00\n        /* \"#utility.yul\":25768:25835   */\n      tag_663\n        /* \"#utility.yul\":25832:25834   */\n      0x17\n        /* \"#utility.yul\":25827:25830   */\n      dup4\n        /* \"#utility.yul\":25768:25835   */\n      tag_333\n      jump\t// in\n    tag_663:\n        /* \"#utility.yul\":25761:25835   */\n      swap2\n      pop\n        /* \"#utility.yul\":25844:25937   */\n      tag_664\n        /* \"#utility.yul\":25933:25936   */\n      dup3\n        /* \"#utility.yul\":25844:25937   */\n      tag_376\n      jump\t// in\n    tag_664:\n        /* \"#utility.yul\":25962:25964   */\n      0x20\n        /* \"#utility.yul\":25957:25960   */\n      dup3\n        /* \"#utility.yul\":25953:25965   */\n      add\n        /* \"#utility.yul\":25946:25965   */\n      swap1\n      pop\n        /* \"#utility.yul\":25605:25971   */\n      swap2\n      swap1\n      pop\n      jump\t// out\n        /* \"#utility.yul\":25977:26396   */\n    tag_190:\n        /* \"#utility.yul\":26143:26147   */\n      0x00\n        /* \"#utility.yul\":26181:26183   */\n      0x20\n        /* \"#utility.yul\":26170:26179   */\n      dup3\n        /* \"#utility.yul\":26166:26184   */\n      add\n        /* \"#utility.yul\":26158:26184   */\n      swap1\n      pop\n        /* \"#utility.yul\":26230:26239   */\n      dup2\n        /* \"#utility.yul\":26224:26228   */\n      dup2\n        /* \"#utility.yul\":26220:26240   */\n      sub\n        /* \"#utility.yul\":26216:26217   */\n      0x00\n        /* \"#utility.yul\":26205:26214   */\n      dup4\n        /* \"#utility.yul\":26201:26218   */\n      add\n        /* \"#utility.yul\":26194:26241   */\n      mstore\n        /* \"#utility.yul\":26258:26389   */\n      tag_666\n        /* \"#utility.yul\":26384:26388   */\n      dup2\n        /* \"#utility.yul\":26258:26389   */\n      tag_377\n      jump\t// in\n    tag_666:\n        /* \"#utility.yul\":26250:26389   */\n      swap1\n      pop\n        /* \"#utility.yul\":25977:26396   */\n      swap2\n      swap1\n      pop\n      jump\t// out\n        /* \"#utility.yul\":26402:26593   */\n    tag_220:\n        /* \"#utility.yul\":26442:26445   */\n      0x00\n        /* \"#utility.yul\":26461:26481   */\n      tag_668\n        /* \"#utility.yul\":26479:26480   */\n      dup3\n        /* \"#utility.yul\":26461:26481   */\n      tag_330\n      jump\t// in\n    tag_668:\n        /* \"#utility.yul\":26456:26481   */\n      swap2\n      pop\n        /* \"#utility.yul\":26495:26515   */\n      tag_669\n        /* \"#utility.yul\":26513:26514   */\n      dup4\n        /* \"#utility.yul\":26495:26515   */\n      tag_330\n      jump\t// in\n    tag_669:\n        /* \"#utility.yul\":26490:26515   */\n      swap3\n      pop\n        /* \"#utility.yul\":26538:26539   */\n      dup3\n        /* \"#utility.yul\":26535:26536   */\n      dup3\n        /* \"#utility.yul\":26531:26540   */\n      add\n        /* \"#utility.yul\":26524:26540   */\n      swap1\n      pop\n        /* \"#utility.yul\":26559:26562   */\n      dup1\n        /* \"#utility.yul\":26556:26557   */\n      dup3\n        /* \"#utility.yul\":26553:26563   */\n      gt\n        /* \"#utility.yul\":26550:26586   */\n      iszero\n      tag_670\n      jumpi\n        /* \"#utility.yul\":26566:26584   */\n      tag_671\n      tag_369\n      jump\t// in\n    tag_671:\n        /* \"#utility.yul\":26550:26586   */\n    tag_670:\n        /* \"#utility.yul\":26402:26593   */\n      swap3\n      swap2\n      pop\n      pop\n      jump\t// out\n        /* \"#utility.yul\":26599:26793   */\n    tag_224:\n        /* \"#utility.yul\":26639:26643   */\n      0x00\n        /* \"#utility.yul\":26659:26679   */\n      tag_673\n        /* \"#utility.yul\":26677:26678   */\n      dup3\n        /* \"#utility.yul\":26659:26679   */\n      tag_330\n      jump\t// in\n    tag_673:\n        /* \"#utility.yul\":26654:26679   */\n      swap2\n      pop\n        /* \"#utility.yul\":26693:26713   */\n      tag_674\n        /* \"#utility.yul\":26711:26712   */\n      dup4\n        /* \"#utility.yul\":26693:26713   */\n      tag_330\n      jump\t// in\n    tag_674:\n        /* \"#utility.yul\":26688:26713   */\n      swap3\n      pop\n        /* \"#utility.yul\":26737:26738   */\n      dup3\n        /* \"#utility.yul\":26734:26735   */\n      dup3\n        /* \"#utility.yul\":26730:26739   */\n      sub\n        /* \"#utility.yul\":26722:26739   */\n      swap1\n      pop\n        /* \"#utility.yul\":26761:26762   */\n      dup2\n        /* \"#utility.yul\":26755:26759   */\n      dup2\n        /* \"#utility.yul\":26752:26763   */\n      gt\n        /* \"#utility.yul\":26749:26786   */\n      iszero\n      tag_675\n      jumpi\n        /* \"#utility.yul\":26766:26784   */\n      tag_676\n      tag_369\n      jump\t// in\n    tag_676:\n        /* \"#utility.yul\":26749:26786   */\n    tag_675:\n        /* \"#utility.yul\":26599:26793   */\n      swap3\n      swap2\n      pop\n      pop\n      jump\t// out\n        /* \"#utility.yul\":26799:26979   */\n    tag_378:\n        /* \"#utility.yul\":26847:26924   */\n      0x4e487b7100000000000000000000000000000000000000000000000000000000\n        /* \"#utility.yul\":26844:26845   */\n      0x00\n        /* \"#utility.yul\":26837:26925   */\n      mstore\n        /* \"#utility.yul\":26944:26948   */\n      0x12\n        /* \"#utility.yul\":26941:26942   */\n      0x04\n        /* \"#utility.yul\":26934:26949   */\n      mstore\n        /* \"#utility.yul\":26968:26972   */\n      0x24\n        /* \"#utility.yul\":26965:26966   */\n      0x00\n        /* \"#utility.yul\":26958:26973   */\n      revert\n        /* \"#utility.yul\":26985:27161   */\n    tag_232:\n        /* \"#utility.yul\":27017:27018   */\n      0x00\n        /* \"#utility.yul\":27034:27054   */\n      tag_679\n        /* \"#utility.yul\":27052:27053   */\n      dup3\n        /* \"#utility.yul\":27034:27054   */\n      tag_330\n      jump\t// in\n    tag_679:\n        /* \"#utility.yul\":27029:27054   */\n      swap2\n      pop\n        /* \"#utility.yul\":27068:27088   */\n      tag_680\n        /* \"#utility.yul\":27086:27087   */\n      dup4\n        /* \"#utility.yul\":27068:27088   */\n      tag_330\n      jump\t// in\n    tag_680:\n        /* \"#utility.yul\":27063:27088   */\n      swap3\n      pop\n        /* \"#utility.yul\":27107:27108   */\n      dup3\n        /* \"#utility.yul\":27097:27132   */\n      tag_681\n      jumpi\n        /* \"#utility.yul\":27112:27130   */\n      tag_682\n      tag_378\n      jump\t// in\n    tag_682:\n        /* \"#utility.yul\":27097:27132   */\n    tag_681:\n        /* \"#utility.yul\":27153:27154   */\n      dup3\n        /* \"#utility.yul\":27150:27151   */\n      dup3\n        /* \"#utility.yul\":27146:27155   */\n      mod\n        /* \"#utility.yul\":27141:27155   */\n      swap1\n      pop\n        /* \"#utility.yul\":26985:27161   */\n      swap3\n      swap2\n      pop\n      pop\n      jump\t// out\n        /* \"#utility.yul\":27167:27577   */\n    tag_267:\n        /* \"#utility.yul\":27207:27214   */\n      0x00\n        /* \"#utility.yul\":27230:27250   */\n      tag_684\n        /* \"#utility.yul\":27248:27249   */\n      dup3\n        /* \"#utility.yul\":27230:27250   */\n      tag_330\n      jump\t// in\n    tag_684:\n        /* \"#utility.yul\":27225:27250   */\n      swap2\n      pop\n        /* \"#utility.yul\":27264:27284   */\n      tag_685\n        /* \"#utility.yul\":27282:27283   */\n      dup4\n        /* \"#utility.yul\":27264:27284   */\n      tag_330\n      jump\t// in\n    tag_685:\n        /* \"#utility.yul\":27259:27284   */\n      swap3\n      pop\n        /* \"#utility.yul\":27319:27320   */\n      dup3\n        /* \"#utility.yul\":27316:27317   */\n      dup3\n        /* \"#utility.yul\":27312:27321   */\n      mul\n        /* \"#utility.yul\":27341:27371   */\n      tag_686\n        /* \"#utility.yul\":27359:27370   */\n      dup2\n        /* \"#utility.yul\":27341:27371   */\n      tag_330\n      jump\t// in\n    tag_686:\n        /* \"#utility.yul\":27330:27371   */\n      swap2\n      pop\n        /* \"#utility.yul\":27520:27521   */\n      dup3\n        /* \"#utility.yul\":27511:27518   */\n      dup3\n        /* \"#utility.yul\":27507:27522   */\n      div\n        /* \"#utility.yul\":27504:27505   */\n      dup5\n        /* \"#utility.yul\":27501:27523   */\n      eq\n        /* \"#utility.yul\":27481:27482   */\n      dup4\n        /* \"#utility.yul\":27474:27483   */\n      iszero\n        /* \"#utility.yul\":27454:27537   */\n      or\n        /* \"#utility.yul\":27431:27570   */\n      tag_687\n      jumpi\n        /* \"#utility.yul\":27550:27568   */\n      tag_688\n      tag_369\n      jump\t// in\n    tag_688:\n        /* \"#utility.yul\":27431:27570   */\n    tag_687:\n        /* \"#utility.yul\":27215:27577   */\n      pop\n        /* \"#utility.yul\":27167:27577   */\n      swap3\n      swap2\n      pop\n      pop\n      jump\t// out\n        /* \"#utility.yul\":27583:27685   */\n    tag_379:\n        /* \"#utility.yul\":27625:27633   */\n      0x00\n        /* \"#utility.yul\":27672:27677   */\n      dup2\n        /* \"#utility.yul\":27669:27670   */\n      0x01\n        /* \"#utility.yul\":27665:27678   */\n      shr\n        /* \"#utility.yul\":27644:27678   */\n      swap1\n      pop\n        /* \"#utility.yul\":27583:27685   */\n      swap2\n      swap1\n      pop\n      jump\t// out\n        /* \"#utility.yul\":27691:28539   */\n    tag_380:\n        /* \"#utility.yul\":27752:27757   */\n      0x00\n        /* \"#utility.yul\":27759:27763   */\n      dup1\n        /* \"#utility.yul\":27783:27789   */\n      dup3\n        /* \"#utility.yul\":27774:27789   */\n      swap2\n      pop\n        /* \"#utility.yul\":27807:27812   */\n      dup4\n        /* \"#utility.yul\":27798:27812   */\n      swap1\n      pop\n        /* \"#utility.yul\":27821:28533   */\n    tag_691:\n        /* \"#utility.yul\":27842:27843   */\n      0x01\n        /* \"#utility.yul\":27832:27840   */\n      dup6\n        /* \"#utility.yul\":27829:27844   */\n      gt\n        /* \"#utility.yul\":27821:28533   */\n      iszero\n      tag_693\n      jumpi\n        /* \"#utility.yul\":27937:27941   */\n      dup1\n        /* \"#utility.yul\":27932:27935   */\n      dup7\n        /* \"#utility.yul\":27928:27942   */\n      div\n        /* \"#utility.yul\":27922:27926   */\n      dup2\n        /* \"#utility.yul\":27919:27943   */\n      gt\n        /* \"#utility.yul\":27916:27966   */\n      iszero\n      tag_694\n      jumpi\n        /* \"#utility.yul\":27946:27964   */\n      tag_695\n      tag_369\n      jump\t// in\n    tag_695:\n        /* \"#utility.yul\":27916:27966   */\n    tag_694:\n        /* \"#utility.yul\":27996:27997   */\n      0x01\n        /* \"#utility.yul\":27986:27994   */\n      dup6\n        /* \"#utility.yul\":27982:27998   */\n      and\n        /* \"#utility.yul\":27979:28430   */\n      iszero\n      tag_696\n      jumpi\n        /* \"#utility.yul\":28411:28415   */\n      dup1\n        /* \"#utility.yul\":28404:28409   */\n      dup3\n        /* \"#utility.yul\":28400:28416   */\n      mul\n        /* \"#utility.yul\":28391:28416   */\n      swap2\n      pop\n        /* \"#utility.yul\":27979:28430   */\n    tag_696:\n        /* \"#utility.yul\":28461:28465   */\n      dup1\n        /* \"#utility.yul\":28455:28459   */\n      dup2\n        /* \"#utility.yul\":28451:28466   */\n      mul\n        /* \"#utility.yul\":28443:28466   */\n      swap1\n      pop\n        /* \"#utility.yul\":28491:28523   */\n      tag_697\n        /* \"#utility.yul\":28514:28522   */\n      dup6\n        /* \"#utility.yul\":28491:28523   */\n      tag_379\n      jump\t// in\n    tag_697:\n        /* \"#utility.yul\":28479:28523   */\n      swap5\n      pop\n        /* \"#utility.yul\":27821:28533   */\n      jump(tag_691)\n    tag_693:\n        /* \"#utility.yul\":27691:28539   */\n      swap5\n      pop\n      swap5\n      swap3\n      pop\n      pop\n      pop\n      jump\t// out\n        /* \"#utility.yul\":28545:29618   */\n    tag_381:\n        /* \"#utility.yul\":28599:28604   */\n      0x00\n        /* \"#utility.yul\":28790:28798   */\n      dup3\n        /* \"#utility.yul\":28780:28820   */\n      tag_699\n      jumpi\n        /* \"#utility.yul\":28811:28812   */\n      0x01\n        /* \"#utility.yul\":28802:28812   */\n      swap1\n      pop\n        /* \"#utility.yul\":28813:28818   */\n      jump(tag_698)\n        /* \"#utility.yul\":28780:28820   */\n    tag_699:\n        /* \"#utility.yul\":28839:28843   */\n      dup2\n        /* \"#utility.yul\":28829:28865   */\n      tag_700\n      jumpi\n        /* \"#utility.yul\":28856:28857   */\n      0x00\n        /* \"#utility.yul\":28847:28857   */\n      swap1\n      pop\n        /* \"#utility.yul\":28858:28863   */\n      jump(tag_698)\n        /* \"#utility.yul\":28829:28865   */\n    tag_700:\n        /* \"#utility.yul\":28925:28929   */\n      dup2\n        /* \"#utility.yul\":28973:28974   */\n      0x01\n        /* \"#utility.yul\":28968:28995   */\n      dup2\n      eq\n      tag_702\n      jumpi\n        /* \"#utility.yul\":29009:29010   */\n      0x02\n        /* \"#utility.yul\":29004:29195   */\n      dup2\n      eq\n      tag_703\n      jumpi\n        /* \"#utility.yul\":28918:29195   */\n      jump(tag_701)\n        /* \"#utility.yul\":28968:28995   */\n    tag_702:\n        /* \"#utility.yul\":28986:28987   */\n      0x01\n        /* \"#utility.yul\":28977:28987   */\n      swap2\n      pop\n        /* \"#utility.yul\":28988:28993   */\n      pop\n      jump(tag_698)\n        /* \"#utility.yul\":29004:29195   */\n    tag_703:\n        /* \"#utility.yul\":29049:29052   */\n      0xff\n        /* \"#utility.yul\":29039:29047   */\n      dup5\n        /* \"#utility.yul\":29036:29053   */\n      gt\n        /* \"#utility.yul\":29033:29076   */\n      iszero\n      tag_704\n      jumpi\n        /* \"#utility.yul\":29056:29074   */\n      tag_705\n      tag_369\n      jump\t// in\n    tag_705:\n        /* \"#utility.yul\":29033:29076   */\n    tag_704:\n        /* \"#utility.yul\":29105:29113   */\n      dup4\n        /* \"#utility.yul\":29102:29103   */\n      0x02\n        /* \"#utility.yul\":29098:29114   */\n      exp\n        /* \"#utility.yul\":29089:29114   */\n      swap2\n      pop\n        /* \"#utility.yul\":29140:29143   */\n      dup5\n        /* \"#utility.yul\":29133:29138   */\n      dup3\n        /* \"#utility.yul\":29130:29144   */\n      gt\n        /* \"#utility.yul\":29127:29167   */\n      iszero\n      tag_706\n      jumpi\n        /* \"#utility.yul\":29147:29165   */\n      tag_707\n      tag_369\n      jump\t// in\n    tag_707:\n        /* \"#utility.yul\":29127:29167   */\n    tag_706:\n        /* \"#utility.yul\":29180:29185   */\n      pop\n      jump(tag_698)\n        /* \"#utility.yul\":28918:29195   */\n    tag_701:\n      pop\n        /* \"#utility.yul\":29304:29306   */\n      0x20\n        /* \"#utility.yul\":29294:29302   */\n      dup4\n        /* \"#utility.yul\":29291:29307   */\n      lt\n        /* \"#utility.yul\":29285:29288   */\n      0x0133\n        /* \"#utility.yul\":29279:29283   */\n      dup4\n        /* \"#utility.yul\":29276:29289   */\n      lt\n        /* \"#utility.yul\":29272:29308   */\n      and\n        /* \"#utility.yul\":29254:29256   */\n      0x4e\n        /* \"#utility.yul\":29244:29252   */\n      dup5\n        /* \"#utility.yul\":29241:29257   */\n      lt\n        /* \"#utility.yul\":29236:29238   */\n      0x0b\n        /* \"#utility.yul\":29230:29234   */\n      dup5\n        /* \"#utility.yul\":29227:29239   */\n      lt\n        /* \"#utility.yul\":29223:29258   */\n      and\n        /* \"#utility.yul\":29207:29318   */\n      or\n        /* \"#utility.yul\":29204:29450   */\n      iszero\n      tag_708\n      jumpi\n        /* \"#utility.yul\":29360:29368   */\n      dup3\n        /* \"#utility.yul\":29354:29358   */\n      dup3\n        /* \"#utility.yul\":29350:29369   */\n      exp\n        /* \"#utility.yul\":29341:29369   */\n      swap1\n      pop\n        /* \"#utility.yul\":29395:29398   */\n      dup4\n        /* \"#utility.yul\":29388:29393   */\n      dup2\n        /* \"#utility.yul\":29385:29399   */\n      gt\n        /* \"#utility.yul\":29382:29422   */\n      iszero\n      tag_709\n      jumpi\n        /* \"#utility.yul\":29402:29420   */\n      tag_710\n      tag_369\n      jump\t// in\n    tag_710:\n        /* \"#utility.yul\":29382:29422   */\n    tag_709:\n        /* \"#utility.yul\":29435:29440   */\n      jump(tag_698)\n        /* \"#utility.yul\":29204:29450   */\n    tag_708:\n        /* \"#utility.yul\":29475:29517   */\n      tag_711\n        /* \"#utility.yul\":29513:29516   */\n      dup5\n        /* \"#utility.yul\":29503:29511   */\n      dup5\n        /* \"#utility.yul\":29497:29501   */\n      dup5\n        /* \"#utility.yul\":29494:29495   */\n      0x01\n        /* \"#utility.yul\":29475:29517   */\n      tag_380\n      jump\t// in\n    tag_711:\n        /* \"#utility.yul\":29460:29517   */\n      swap3\n      pop\n      swap1\n      pop\n        /* \"#utility.yul\":29549:29553   */\n      dup2\n        /* \"#utility.yul\":29544:29547   */\n      dup5\n        /* \"#utility.yul\":29540:29554   */\n      div\n        /* \"#utility.yul\":29533:29538   */\n      dup2\n        /* \"#utility.yul\":29530:29555   */\n      gt\n        /* \"#utility.yul\":29527:29578   */\n      iszero\n      tag_712\n      jumpi\n        /* \"#utility.yul\":29558:29576   */\n      tag_713\n      tag_369\n      jump\t// in\n    tag_713:\n        /* \"#utility.yul\":29527:29578   */\n    tag_712:\n        /* \"#utility.yul\":29607:29611   */\n      dup2\n        /* \"#utility.yul\":29600:29605   */\n      dup2\n        /* \"#utility.yul\":29596:29612   */\n      mul\n        /* \"#utility.yul\":29587:29612   */\n      swap1\n      pop\n        /* \"#utility.yul\":28545:29618   */\n    tag_698:\n      swap4\n      swap3\n      pop\n      pop\n      pop\n      jump\t// out\n        /* \"#utility.yul\":29624:29909   */\n    tag_279:\n        /* \"#utility.yul\":29684:29689   */\n      0x00\n        /* \"#utility.yul\":29708:29731   */\n      tag_715\n        /* \"#utility.yul\":29726:29730   */\n      dup3\n        /* \"#utility.yul\":29708:29731   */\n      tag_330\n      jump\t// in\n    tag_715:\n        /* \"#utility.yul\":29700:29731   */\n      swap2\n      pop\n        /* \"#utility.yul\":29752:29779   */\n      tag_716\n        /* \"#utility.yul\":29770:29778   */\n      dup4\n        /* \"#utility.yul\":29752:29779   */\n      tag_330\n      jump\t// in\n    tag_716:\n        /* \"#utility.yul\":29740:29779   */\n      swap3\n      pop\n        /* \"#utility.yul\":29798:29902   */\n      tag_717\n        /* \"#utility.yul\":29835:29901   */\n      0xffffffffffffffffffffffffffffffffffffffffffffffffffffffffffffffff\n        /* \"#utility.yul\":29825:29833   */\n      dup5\n        /* \"#utility.yul\":29819:29823   */\n      dup5\n        /* \"#utility.yul\":29798:29902   */\n      tag_381\n      jump\t// in\n    tag_717:\n        /* \"#utility.yul\":29789:29902   */\n      swap1\n      pop\n        /* \"#utility.yul\":29624:29909   */\n      swap3\n      swap2\n      pop\n      pop\n      jump\t// out\n\n    auxdata: 0xa264697066735822122008ef325dbf4c826ed71a6f4b0c44087271726528ec90f27b5b4595e24684f70764736f6c63430008140033\n}\n",
				"bytecode": {
					"linkReferences": {},
					"object": "60a060405273b83e47c2bc239b3bf370bc41e1459a34b41238d060055f6101000a81548173ffffffffffffffffffffffffffffffffffffffff021916908373ffffffffffffffffffffffffffffffffffffffff16021790555060405180610280016040528061024e815260200162002e0d61024e913960069081620000859190620005c6565b50620493e060075f6101000a81548163ffffffff021916908363ffffffff1602179055507f66756e2d657468657265756d2d7365706f6c69612d31000000000000000000005f1b600855348015620000db575f80fd5b5033805f60055f9054906101000a900473ffffffffffffffffffffffffffffffffffffffff168073ffffffffffffffffffffffffffffffffffffffff1660808173ffffffffffffffffffffffffffffffffffffffff1681525050505f73ffffffffffffffffffffffffffffffffffffffff168273ffffffffffffffffffffffffffffffffffffffff1603620001a7576040517f08c379a00000000000000000000000000000000000000000000000000000000081526004016200019e9062000708565b60405180910390fd5b815f806101000a81548173ffffffffffffffffffffffffffffffffffffffff021916908373ffffffffffffffffffffffffffffffffffffffff1602179055505f73ffffffffffffffffffffffffffffffffffffffff168173ffffffffffffffffffffffffffffffffffffffff16146200022c576200022b816200023560201b60201c565b5b50505062000796565b3373ffffffffffffffffffffffffffffffffffffffff168173ffffffffffffffffffffffffffffffffffffffff1603620002a6576040517f08c379a00000000000000000000000000000000000000000000000000000000081526004016200029d9062000776565b60405180910390fd5b8060015f6101000a81548173ffffffffffffffffffffffffffffffffffffffff021916908373ffffffffffffffffffffffffffffffffffffffff1602179055508073ffffffffffffffffffffffffffffffffffffffff165f8054906101000a900473ffffffffffffffffffffffffffffffffffffffff1673ffffffffffffffffffffffffffffffffffffffff167fed8889f560326eb138920d842192f0eb3dd22b4f139c87a2c57538e05bae127860405160405180910390a350565b5f81519050919050565b7f4e487b71000000000000000000000000000000000000000000000000000000005f52604160045260245ffd5b7f4e487b71000000000000000000000000000000000000000000000000000000005f52602260045260245ffd5b5f6002820490506001821680620003de57607f821691505b602082108103620003f457620003f362000399565b5b50919050565b5f819050815f5260205f209050919050565b5f6020601f8301049050919050565b5f82821b905092915050565b5f60088302620004587fffffffffffffffffffffffffffffffffffffffffffffffffffffffffffffffff826200041b565b6200046486836200041b565b95508019841693508086168417925050509392505050565b5f819050919050565b5f819050919050565b5f620004ae620004a8620004a2846200047c565b62000485565b6200047c565b9050919050565b5f819050919050565b620004c9836200048e565b620004e1620004d882620004b5565b84845462000427565b825550505050565b5f90565b620004f7620004e9565b62000504818484620004be565b505050565b5b818110156200052b576200051f5f82620004ed565b6001810190506200050a565b5050565b601f8211156200057a576200054481620003fa565b6200054f846200040c565b810160208510156200055f578190505b620005776200056e856200040c565b83018262000509565b50505b505050565b5f82821c905092915050565b5f6200059c5f19846008026200057f565b1980831691505092915050565b5f620005b683836200058b565b9150826002028217905092915050565b620005d18262000362565b67ffffffffffffffff811115620005ed57620005ec6200036c565b5b620005f98254620003c6565b620006068282856200052f565b5f60209050601f8311600181146200063c575f841562000627578287015190505b620006338582620005a9565b865550620006a2565b601f1984166200064c86620003fa565b5f5b8281101562000675578489015182556001820191506020850194506020810190506200064e565b8683101562000695578489015162000691601f8916826200058b565b8355505b6001600288020188555050505b505050505050565b5f82825260208201905092915050565b7f43616e6e6f7420736574206f776e657220746f207a65726f00000000000000005f82015250565b5f620006f0601883620006aa565b9150620006fd82620006ba565b602082019050919050565b5f6020820190508181035f8301526200072181620006e2565b9050919050565b7f43616e6e6f74207472616e7366657220746f2073656c660000000000000000005f82015250565b5f6200075e601783620006aa565b91506200076b8262000728565b602082019050919050565b5f6020820190508181035f8301526200078f8162000750565b9050919050565b608051612657620007b65f395f818161021a0152610ce201526126575ff3fe608060405234801561000f575f80fd5b50600436106100b2575f3560e01c806379ba50971161006f57806379ba50971461017a5780638da5cb5b14610184578063ab0d92dd146101a2578063b1e21749146101c0578063b252c8f2146101de578063f2fde38b146101fc576100b2565b80630ca76175146100b65780632f9d6254146100d25780633944ea3a146101025780634942f65f146101205780634b0795a81461013e578063516f279e1461015c575b5f80fd5b6100d060048036038101906100cb919061170e565b610218565b005b6100ec60048036038101906100e791906117d3565b6102da565b6040516100f9919061180d565b60405180910390f35b61010a6103be565b60405161011791906118a0565b60405180910390f35b61012861044a565b60405161013591906118d8565b60405180910390f35b610146610450565b60405161015391906118a0565b60405180910390f35b6101646104dc565b6040516101719190611943565b60405180910390f35b610182610568565b005b61018c6106f7565b60405161019991906119a2565b60405180910390f35b6101aa61071e565b6040516101b791906118d8565b60405180910390f35b6101c8610724565b6040516101d5919061180d565b60405180910390f35b6101e661072a565b6040516101f391906118d8565b60405180910390f35b610216600480360381019061021191906119e5565b610730565b005b7f000000000000000000000000000000000000000000000000000000000000000073ffffffffffffffffffffffffffffffffffffffff163373ffffffffffffffffffffffffffffffffffffffff161461029d576040517fc6829f8300000000000000000000000000000000000000000000000000000000815260040160405180910390fd5b6102a8838383610744565b827f85e1543bf2f84fe80c6badbce3648c8539ad1df4d2b3d822938ca0538be727e660405160405180910390a2505050565b5f6102e361082e565b6102eb6114e7565b610386600680546102fb90611a3d565b80601f016020809104026020016040519081016040528092919081815260200182805461032790611a3d565b80156103725780601f1061034957610100808354040283529160200191610372565b820191905f5260205f20905b81548152906001019060200180831161035557829003601f168201915b5050505050826108bd90919063ffffffff16565b6103ad610392826108cd565b8460075f9054906101000a900463ffffffff16600854610cde565b600281905550600254915050919050565b600380546103cb90611a3d565b80601f01602080910402602001604051908101604052809291908181526020018280546103f790611a3d565b80156104425780601f1061041957610100808354040283529160200191610442565b820191905f5260205f20905b81548152906001019060200180831161042557829003601f168201915b505050505081565b600a5481565b6004805461045d90611a3d565b80601f016020809104026020016040519081016040528092919081815260200182805461048990611a3d565b80156104d45780601f106104ab576101008083540402835291602001916104d4565b820191905f5260205f20905b8154815290600101906020018083116104b757829003601f168201915b505050505081565b600980546104e990611a3d565b80601f016020809104026020016040519081016040528092919081815260200182805461051590611a3d565b80156105605780601f1061053757610100808354040283529160200191610560565b820191905f5260205f20905b81548152906001019060200180831161054357829003601f168201915b505050505081565b60015f9054906101000a900473ffffffffffffffffffffffffffffffffffffffff1673ffffffffffffffffffffffffffffffffffffffff163373ffffffffffffffffffffffffffffffffffffffff16146105f7576040517f08c379a00000000000000000000000000000000000000000000000000000000081526004016105ee90611ab7565b60405180910390fd5b5f805f9054906101000a900473ffffffffffffffffffffffffffffffffffffffff169050335f806101000a81548173ffffffffffffffffffffffffffffffffffffffff021916908373ffffffffffffffffffffffffffffffffffffffff1602179055505f60015f6101000a81548173ffffffffffffffffffffffffffffffffffffffff021916908373ffffffffffffffffffffffffffffffffffffffff1602179055503373ffffffffffffffffffffffffffffffffffffffff168173ffffffffffffffffffffffffffffffffffffffff167f8be0079c531659141344cd1fd0a4f28419497f9722a3daafe3b4186f6b6457e060405160405180910390a350565b5f805f9054906101000a900473ffffffffffffffffffffffffffffffffffffffff16905090565b600b5481565b60025481565b600c5481565b61073861082e565b61074181610dbd565b50565b826002541461078a57826040517fd068bf5b000000000000000000000000000000000000000000000000000000008152600401610781919061180d565b60405180910390fd5b8180602001905181019061079e9190611b9d565b60095f600a5f600b5f600c5f8891905055879190505586919050558591905090816107c99190611dba565b505050505080600490816107dd9190611ee1565b50827f07cee4eeecce4c378bcabac3921fe1ee240f2f7a24775769790937e3a8165c076009600a54600b54600c5460036004604051610821969594939291906120b2565b60405180910390a2505050565b5f8054906101000a900473ffffffffffffffffffffffffffffffffffffffff1673ffffffffffffffffffffffffffffffffffffffff163373ffffffffffffffffffffffffffffffffffffffff16146108bb576040517f08c379a00000000000000000000000000000000000000000000000000000000081526004016108b290612170565b60405180910390fd5b565b6108c9825f8084610ee7565b5050565b60605f6108db610100610f8d565b90506109256040518060400160405280600c81526020017f636f64654c6f636174696f6e000000000000000000000000000000000000000081525082610fb290919063ffffffff16565b61094d835f0151600281111561093e5761093d61218e565b5b82610fda90919063ffffffff16565b6109956040518060400160405280600881526020017f6c616e677561676500000000000000000000000000000000000000000000000081525082610fb290919063ffffffff16565b6109bd83604001515f8111156109ae576109ad61218e565b5b82610fda90919063ffffffff16565b610a056040518060400160405280600681526020017f736f75726365000000000000000000000000000000000000000000000000000081525082610fb290919063ffffffff16565b610a1c836060015182610fb290919063ffffffff16565b5f8360a00151511115610ad657610a716040518060400160405280600481526020017f617267730000000000000000000000000000000000000000000000000000000081525082610fb290919063ffffffff16565b610a7a81611029565b5f5b8360a0015151811015610acb57610aba8460a001518281518110610aa357610aa26121bb565b5b602002602001015183610fb290919063ffffffff16565b80610ac490612215565b9050610a7c565b50610ad581611051565b5b5f8360800151511115610c15575f6002811115610af657610af561218e565b5b83602001516002811115610b0d57610b0c61218e565b5b03610b44576040517fa80d31f700000000000000000000000000000000000000000000000000000000815260040160405180910390fd5b610b8c6040518060400160405280600f81526020017f736563726574734c6f636174696f6e000000000000000000000000000000000081525082610fb290919063ffffffff16565b610bb583602001516002811115610ba657610ba561218e565b5b82610fda90919063ffffffff16565b610bfd6040518060400160405280600781526020017f736563726574730000000000000000000000000000000000000000000000000081525082610fb290919063ffffffff16565b610c1483608001518261107990919063ffffffff16565b5b5f8360c00151511115610ccf57610c6a6040518060400160405280600981526020017f627974657341726773000000000000000000000000000000000000000000000081525082610fb290919063ffffffff16565b610c7381611029565b5f5b8360c0015151811015610cc457610cb38460c001518281518110610c9c57610c9b6121bb565b5b60200260200101518361107990919063ffffffff16565b80610cbd90612215565b9050610c75565b50610cce81611051565b5b805f01515f0151915050919050565b5f807f000000000000000000000000000000000000000000000000000000000000000073ffffffffffffffffffffffffffffffffffffffff1663461d27628688600188886040518663ffffffff1660e01b8152600401610d429594939291906122a5565b6020604051808303815f875af1158015610d5e573d5f803e3d5ffd5b505050506040513d601f19601f82011682018060405250810190610d829190612311565b9050807f1131472297a800fee664d1d89cfa8f7676ff07189ecc53f80bbb5f4969099db860405160405180910390a280915050949350505050565b3373ffffffffffffffffffffffffffffffffffffffff168173ffffffffffffffffffffffffffffffffffffffff1603610e2b576040517f08c379a0000000000000000000000000000000000000000000000000000000008152600401610e2290612386565b60405180910390fd5b8060015f6101000a81548173ffffffffffffffffffffffffffffffffffffffff021916908373ffffffffffffffffffffffffffffffffffffffff1602179055508073ffffffffffffffffffffffffffffffffffffffff165f8054906101000a900473ffffffffffffffffffffffffffffffffffffffff1673ffffffffffffffffffffffffffffffffffffffff167fed8889f560326eb138920d842192f0eb3dd22b4f139c87a2c57538e05bae127860405160405180910390a350565b5f815103610f21576040517f22ce3edd00000000000000000000000000000000000000000000000000000000815260040160405180910390fd5b82845f01906002811115610f3857610f3761218e565b5b90816002811115610f4c57610f4b61218e565b5b815250508184604001905f811115610f6757610f6661218e565b5b90815f811115610f7a57610f7961218e565b5b8152505080846060018190525050505050565b610f95611556565b610fa2815f0151836110a1565b505f816020018181525050919050565b610fbf8260038351611117565b610fd581835f01516112b790919063ffffffff16565b505050565b610ffb60026005600660ff16901b17835f01516112d390919063ffffffff16565b50611025828260405160200161101191906118d8565b604051602081830303815290604052611079565b5050565b61103481600461133a565b60018160200181815161104791906123a4565b9150818152505050565b61105c81600761133a565b60018160200181815161106f91906123d7565b9150818152505050565b6110868260028351611117565b61109c81835f01516112b790919063ffffffff16565b505050565b6110a9611575565b5f6020836110b79190612437565b146110e3576020826110c99190612437565b60206110d591906123d7565b826110e091906123a4565b91505b818360200181815250506040518084525f815282810160200181811015611108575f80fd5b80604052505082905092915050565b60178167ffffffffffffffff16116111515761114b8160058460ff16901b60ff1617845f01516112d390919063ffffffff16565b506112b2565b60ff8167ffffffffffffffff16116111ad57611183601860058460ff16901b17845f01516112d390919063ffffffff16565b506111a78167ffffffffffffffff166001855f015161135f9092919063ffffffff16565b506112b1565b61ffff8167ffffffffffffffff161161120a576111e0601960058460ff16901b17845f01516112d390919063ffffffff16565b506112048167ffffffffffffffff166002855f015161135f9092919063ffffffff16565b506112b0565b63ffffffff8167ffffffffffffffff16116112695761123f601a60058460ff16901b17845f01516112d390919063ffffffff16565b506112638167ffffffffffffffff166004855f015161135f9092919063ffffffff16565b506112af565b611289601b60058460ff16901b17845f01516112d390919063ffffffff16565b506112ad8167ffffffffffffffff166008855f015161135f9092919063ffffffff16565b505b5b5b5b505050565b6112bf611575565b6112cb838384516113e8565b905092915050565b6112db611575565b5f835f01515190505f6001826112f191906123a4565b905084602001518210611315576113148560028361130f9190612467565b6114c5565b5b8451602083820101858153815183111561132d578282525b5050849250505092915050565b61135a601f60058360ff16901b17835f01516112d390919063ffffffff16565b505050565b611367611575565b5f845f01515190505f818461137c91906123a4565b905085602001518111156113a1576113a08660028361139b9190612467565b6114c5565b5b5f6001856101006113b291906125d7565b6113bc91906123d7565b9050865182810187831982511617815281518411156113d9578382525b50508693505050509392505050565b6113f0611575565b82518211156113fd575f80fd5b5f845f01515190505f838261141291906123a4565b9050856020015181111561143757611436866002836114319190612467565b6114c5565b5b5f8087518051856020830101935080851115611451578482525b60208901925050505b60208610611498578051825260208261147391906123a4565b915060208161148291906123a4565b905060208661149191906123d7565b955061145a565b5f6001876020036101000a0390508019825116818451168181178552505050879450505050509392505050565b5f825f015190506114d683836110a1565b506114e183826112b7565b50505050565b6040518060e001604052805f60028111156115055761150461218e565b5b81526020015f600281111561151d5761151c61218e565b5b81526020015f808111156115345761153361218e565b5b8152602001606081526020016060815260200160608152602001606081525090565b6040518060400160405280611569611575565b81526020015f81525090565b6040518060400160405280606081526020015f81525090565b5f604051905090565b5f80fd5b5f80fd5b5f819050919050565b6115b18161159f565b81146115bb575f80fd5b50565b5f813590506115cc816115a8565b92915050565b5f80fd5b5f80fd5b5f601f19601f8301169050919050565b7f4e487b71000000000000000000000000000000000000000000000000000000005f52604160045260245ffd5b611620826115da565b810181811067ffffffffffffffff8211171561163f5761163e6115ea565b5b80604052505050565b5f61165161158e565b905061165d8282611617565b919050565b5f67ffffffffffffffff82111561167c5761167b6115ea565b5b611685826115da565b9050602081019050919050565b828183375f83830152505050565b5f6116b26116ad84611662565b611648565b9050828152602081018484840111156116ce576116cd6115d6565b5b6116d9848285611692565b509392505050565b5f82601f8301126116f5576116f46115d2565b5b81356117058482602086016116a0565b91505092915050565b5f805f6060848603121561172557611724611597565b5b5f611732868287016115be565b935050602084013567ffffffffffffffff8111156117535761175261159b565b5b61175f868287016116e1565b925050604084013567ffffffffffffffff8111156117805761177f61159b565b5b61178c868287016116e1565b9150509250925092565b5f67ffffffffffffffff82169050919050565b6117b281611796565b81146117bc575f80fd5b50565b5f813590506117cd816117a9565b92915050565b5f602082840312156117e8576117e7611597565b5b5f6117f5848285016117bf565b91505092915050565b6118078161159f565b82525050565b5f6020820190506118205f8301846117fe565b92915050565b5f81519050919050565b5f82825260208201905092915050565b5f5b8381101561185d578082015181840152602081019050611842565b5f8484015250505050565b5f61187282611826565b61187c8185611830565b935061188c818560208601611840565b611895816115da565b840191505092915050565b5f6020820190508181035f8301526118b88184611868565b905092915050565b5f819050919050565b6118d2816118c0565b82525050565b5f6020820190506118eb5f8301846118c9565b92915050565b5f81519050919050565b5f82825260208201905092915050565b5f611915826118f1565b61191f81856118fb565b935061192f818560208601611840565b611938816115da565b840191505092915050565b5f6020820190508181035f83015261195b818461190b565b905092915050565b5f73ffffffffffffffffffffffffffffffffffffffff82169050919050565b5f61198c82611963565b9050919050565b61199c81611982565b82525050565b5f6020820190506119b55f830184611993565b92915050565b6119c481611982565b81146119ce575f80fd5b50565b5f813590506119df816119bb565b92915050565b5f602082840312156119fa576119f9611597565b5b5f611a07848285016119d1565b91505092915050565b7f4e487b71000000000000000000000000000000000000000000000000000000005f52602260045260245ffd5b5f6002820490506001821680611a5457607f821691505b602082108103611a6757611a66611a10565b5b50919050565b7f4d7573742062652070726f706f736564206f776e6572000000000000000000005f82015250565b5f611aa16016836118fb565b9150611aac82611a6d565b602082019050919050565b5f6020820190508181035f830152611ace81611a95565b9050919050565b5f67ffffffffffffffff821115611aef57611aee6115ea565b5b611af8826115da565b9050602081019050919050565b5f611b17611b1284611ad5565b611648565b905082815260208101848484011115611b3357611b326115d6565b5b611b3e848285611840565b509392505050565b5f82601f830112611b5a57611b596115d2565b5b8151611b6a848260208601611b05565b91505092915050565b611b7c816118c0565b8114611b86575f80fd5b50565b5f81519050611b9781611b73565b92915050565b5f805f8060808587031215611bb557611bb4611597565b5b5f85015167ffffffffffffffff811115611bd257611bd161159b565b5b611bde87828801611b46565b9450506020611bef87828801611b89565b9350506040611c0087828801611b89565b9250506060611c1187828801611b89565b91505092959194509250565b5f819050815f5260205f209050919050565b5f6020601f8301049050919050565b5f82821b905092915050565b5f60088302611c797fffffffffffffffffffffffffffffffffffffffffffffffffffffffffffffffff82611c3e565b611c838683611c3e565b95508019841693508086168417925050509392505050565b5f819050919050565b5f611cbe611cb9611cb4846118c0565b611c9b565b6118c0565b9050919050565b5f819050919050565b611cd783611ca4565b611ceb611ce382611cc5565b848454611c4a565b825550505050565b5f90565b611cff611cf3565b611d0a818484611cce565b505050565b5b81811015611d2d57611d225f82611cf7565b600181019050611d10565b5050565b601f821115611d7257611d4381611c1d565b611d4c84611c2f565b81016020851015611d5b578190505b611d6f611d6785611c2f565b830182611d0f565b50505b505050565b5f82821c905092915050565b5f611d925f1984600802611d77565b1980831691505092915050565b5f611daa8383611d83565b9150826002028217905092915050565b611dc3826118f1565b67ffffffffffffffff811115611ddc57611ddb6115ea565b5b611de68254611a3d565b611df1828285611d31565b5f60209050601f831160018114611e22575f8415611e10578287015190505b611e1a8582611d9f565b865550611e81565b601f198416611e3086611c1d565b5f5b82811015611e5757848901518255600182019150602085019450602081019050611e32565b86831015611e745784890151611e70601f891682611d83565b8355505b6001600288020188555050505b505050505050565b5f819050815f5260205f209050919050565b601f821115611edc57611ead81611e89565b611eb684611c2f565b81016020851015611ec5578190505b611ed9611ed185611c2f565b830182611d0f565b50505b505050565b611eea82611826565b67ffffffffffffffff811115611f0357611f026115ea565b5b611f0d8254611a3d565b611f18828285611e9b565b5f60209050601f831160018114611f49575f8415611f37578287015190505b611f418582611d9f565b865550611fa8565b601f198416611f5786611e89565b5f5b82811015611f7e57848901518255600182019150602085019450602081019050611f59565b86831015611f9b5784890151611f97601f891682611d83565b8355505b6001600288020188555050505b505050505050565b5f8154611fbc81611a3d565b611fc681866118fb565b9450600182165f8114611fe05760018114611ff657612028565b60ff198316865281151560200286019350612028565b611fff85611c1d565b5f5b8381101561202057815481890152600182019150602081019050612001565b808801955050505b50505092915050565b5f815461203d81611a3d565b6120478186611830565b9450600182165f81146120615760018114612077576120a9565b60ff1983168652811515602002860193506120a9565b61208085611e89565b5f5b838110156120a157815481890152600182019150602081019050612082565b808801955050505b50505092915050565b5f60c0820190508181035f8301526120ca8189611fb0565b90506120d960208301886118c9565b6120e660408301876118c9565b6120f360608301866118c9565b81810360808301526121058185612031565b905081810360a08301526121198184612031565b9050979650505050505050565b7f4f6e6c792063616c6c61626c65206279206f776e6572000000000000000000005f82015250565b5f61215a6016836118fb565b915061216582612126565b602082019050919050565b5f6020820190508181035f8301526121878161214e565b9050919050565b7f4e487b71000000000000000000000000000000000000000000000000000000005f52602160045260245ffd5b7f4e487b71000000000000000000000000000000000000000000000000000000005f52603260045260245ffd5b7f4e487b71000000000000000000000000000000000000000000000000000000005f52601160045260245ffd5b5f61221f826118c0565b91507fffffffffffffffffffffffffffffffffffffffffffffffffffffffffffffffff8203612251576122506121e8565b5b600182019050919050565b61226581611796565b82525050565b5f61ffff82169050919050565b6122818161226b565b82525050565b5f63ffffffff82169050919050565b61229f81612287565b82525050565b5f60a0820190506122b85f83018861225c565b81810360208301526122ca8187611868565b90506122d96040830186612278565b6122e66060830185612296565b6122f360808301846117fe565b9695505050505050565b5f8151905061230b816115a8565b92915050565b5f6020828403121561232657612325611597565b5b5f612333848285016122fd565b91505092915050565b7f43616e6e6f74207472616e7366657220746f2073656c660000000000000000005f82015250565b5f6123706017836118fb565b915061237b8261233c565b602082019050919050565b5f6020820190508181035f83015261239d81612364565b9050919050565b5f6123ae826118c0565b91506123b9836118c0565b92508282019050808211156123d1576123d06121e8565b5b92915050565b5f6123e1826118c0565b91506123ec836118c0565b9250828203905081811115612404576124036121e8565b5b92915050565b7f4e487b71000000000000000000000000000000000000000000000000000000005f52601260045260245ffd5b5f612441826118c0565b915061244c836118c0565b92508261245c5761245b61240a565b5b828206905092915050565b5f612471826118c0565b915061247c836118c0565b925082820261248a816118c0565b915082820484148315176124a1576124a06121e8565b5b5092915050565b5f8160011c9050919050565b5f808291508390505b60018511156124fd578086048111156124d9576124d86121e8565b5b60018516156124e85780820291505b80810290506124f6856124a8565b94506124bd565b94509492505050565b5f8261251557600190506125d0565b81612522575f90506125d0565b8160018114612538576002811461254257612571565b60019150506125d0565b60ff841115612554576125536121e8565b5b8360020a91508482111561256b5761256a6121e8565b5b506125d0565b5060208310610133831016604e8410600b84101617156125a65782820a9050838111156125a1576125a06121e8565b5b6125d0565b6125b384848460016124b4565b925090508184048111156125ca576125c96121e8565b5b81810290505b9392505050565b5f6125e1826118c0565b91506125ec836118c0565b92506126197fffffffffffffffffffffffffffffffffffffffffffffffffffffffffffffffff8484612506565b90509291505056fea264697066735822122008ef325dbf4c826ed71a6f4b0c44087271726528ec90f27b5b4595e24684f70764736f6c63430008140033636f6e7374207b20657468657273207d203d20617761697420696d706f727428276e706d3a65746865727340362e31302e3027293b636f6e737420616269436f646572203d206574686572732e416269436f6465722e64656661756c74416269436f64657228293b636f6e737420617069526573706f6e7365203d2061776169742046756e6374696f6e732e6d616b654874747052657175657374287b2020202075726c3a202768747470733a2f2f67656e69656261636b626f6e652e617a75726577656273697465732e6e65742f6170692f70726f706572746965732f64656d6f277d293b636f6e7374207b2064617461207d203d20617069526573706f6e73652e646174613b636f6e7374206c6f636174696f6e203d20646174612e6c6f636174696f6e3b636f6e7374206c6f7453697a65203d204e756d62657228646174612e6c6f7453697a65293b636f6e737420746f74616c5072696365203d204e756d62657228646174612e746f74616c5072696365293b636f6e737420746178417373657373656456616c7565203d204e756d62657228646174612e746178417373657373656456616c7565293b636f6e737420656e636f646564203d20616269436f6465722e656e636f6465285b60737472696e67602c206075696e74323536602c206075696e74323536602c206075696e74323536605d2c205b6c6f636174696f6e2c206c6f7453697a652c20746f74616c50726963652c20746178417373657373656456616c75655d293b72657475726e206574686572732e676574427974657328656e636f646564293b",
					"opcodes": "PUSH1 0xA0 PUSH1 0x40 MSTORE PUSH20 0xB83E47C2BC239B3BF370BC41E1459A34B41238D0 PUSH1 0x5 PUSH0 PUSH2 0x100 EXP DUP2 SLOAD DUP2 PUSH20 0xFFFFFFFFFFFFFFFFFFFFFFFFFFFFFFFFFFFFFFFF MUL NOT AND SWAP1 DUP4 PUSH20 0xFFFFFFFFFFFFFFFFFFFFFFFFFFFFFFFFFFFFFFFF AND MUL OR SWAP1 SSTORE POP PUSH1 0x40 MLOAD DUP1 PUSH2 0x280 ADD PUSH1 0x40 MSTORE DUP1 PUSH2 0x24E DUP2 MSTORE PUSH1 0x20 ADD PUSH3 0x2E0D PUSH2 0x24E SWAP2 CODECOPY PUSH1 0x6 SWAP1 DUP2 PUSH3 0x85 SWAP2 SWAP1 PUSH3 0x5C6 JUMP JUMPDEST POP PUSH3 0x493E0 PUSH1 0x7 PUSH0 PUSH2 0x100 EXP DUP2 SLOAD DUP2 PUSH4 0xFFFFFFFF MUL NOT AND SWAP1 DUP4 PUSH4 0xFFFFFFFF AND MUL OR SWAP1 SSTORE POP PUSH32 0x66756E2D657468657265756D2D7365706F6C69612D3100000000000000000000 PUSH0 SHL PUSH1 0x8 SSTORE CALLVALUE DUP1 ISZERO PUSH3 0xDB JUMPI PUSH0 DUP1 REVERT JUMPDEST POP CALLER DUP1 PUSH0 PUSH1 0x5 PUSH0 SWAP1 SLOAD SWAP1 PUSH2 0x100 EXP SWAP1 DIV PUSH20 0xFFFFFFFFFFFFFFFFFFFFFFFFFFFFFFFFFFFFFFFF AND DUP1 PUSH20 0xFFFFFFFFFFFFFFFFFFFFFFFFFFFFFFFFFFFFFFFF AND PUSH1 0x80 DUP2 PUSH20 0xFFFFFFFFFFFFFFFFFFFFFFFFFFFFFFFFFFFFFFFF AND DUP2 MSTORE POP POP POP PUSH0 PUSH20 0xFFFFFFFFFFFFFFFFFFFFFFFFFFFFFFFFFFFFFFFF AND DUP3 PUSH20 0xFFFFFFFFFFFFFFFFFFFFFFFFFFFFFFFFFFFFFFFF AND SUB PUSH3 0x1A7 JUMPI PUSH1 0x40 MLOAD PUSH32 0x8C379A000000000000000000000000000000000000000000000000000000000 DUP2 MSTORE PUSH1 0x4 ADD PUSH3 0x19E SWAP1 PUSH3 0x708 JUMP JUMPDEST PUSH1 0x40 MLOAD DUP1 SWAP2 SUB SWAP1 REVERT JUMPDEST DUP2 PUSH0 DUP1 PUSH2 0x100 EXP DUP2 SLOAD DUP2 PUSH20 0xFFFFFFFFFFFFFFFFFFFFFFFFFFFFFFFFFFFFFFFF MUL NOT AND SWAP1 DUP4 PUSH20 0xFFFFFFFFFFFFFFFFFFFFFFFFFFFFFFFFFFFFFFFF AND MUL OR SWAP1 SSTORE POP PUSH0 PUSH20 0xFFFFFFFFFFFFFFFFFFFFFFFFFFFFFFFFFFFFFFFF AND DUP2 PUSH20 0xFFFFFFFFFFFFFFFFFFFFFFFFFFFFFFFFFFFFFFFF AND EQ PUSH3 0x22C JUMPI PUSH3 0x22B DUP2 PUSH3 0x235 PUSH1 0x20 SHL PUSH1 0x20 SHR JUMP JUMPDEST JUMPDEST POP POP POP PUSH3 0x796 JUMP JUMPDEST CALLER PUSH20 0xFFFFFFFFFFFFFFFFFFFFFFFFFFFFFFFFFFFFFFFF AND DUP2 PUSH20 0xFFFFFFFFFFFFFFFFFFFFFFFFFFFFFFFFFFFFFFFF AND SUB PUSH3 0x2A6 JUMPI PUSH1 0x40 MLOAD PUSH32 0x8C379A000000000000000000000000000000000000000000000000000000000 DUP2 MSTORE PUSH1 0x4 ADD PUSH3 0x29D SWAP1 PUSH3 0x776 JUMP JUMPDEST PUSH1 0x40 MLOAD DUP1 SWAP2 SUB SWAP1 REVERT JUMPDEST DUP1 PUSH1 0x1 PUSH0 PUSH2 0x100 EXP DUP2 SLOAD DUP2 PUSH20 0xFFFFFFFFFFFFFFFFFFFFFFFFFFFFFFFFFFFFFFFF MUL NOT AND SWAP1 DUP4 PUSH20 0xFFFFFFFFFFFFFFFFFFFFFFFFFFFFFFFFFFFFFFFF AND MUL OR SWAP1 SSTORE POP DUP1 PUSH20 0xFFFFFFFFFFFFFFFFFFFFFFFFFFFFFFFFFFFFFFFF AND PUSH0 DUP1 SLOAD SWAP1 PUSH2 0x100 EXP SWAP1 DIV PUSH20 0xFFFFFFFFFFFFFFFFFFFFFFFFFFFFFFFFFFFFFFFF AND PUSH20 0xFFFFFFFFFFFFFFFFFFFFFFFFFFFFFFFFFFFFFFFF AND PUSH32 0xED8889F560326EB138920D842192F0EB3DD22B4F139C87A2C57538E05BAE1278 PUSH1 0x40 MLOAD PUSH1 0x40 MLOAD DUP1 SWAP2 SUB SWAP1 LOG3 POP JUMP JUMPDEST PUSH0 DUP2 MLOAD SWAP1 POP SWAP2 SWAP1 POP JUMP JUMPDEST PUSH32 0x4E487B7100000000000000000000000000000000000000000000000000000000 PUSH0 MSTORE PUSH1 0x41 PUSH1 0x4 MSTORE PUSH1 0x24 PUSH0 REVERT JUMPDEST PUSH32 0x4E487B7100000000000000000000000000000000000000000000000000000000 PUSH0 MSTORE PUSH1 0x22 PUSH1 0x4 MSTORE PUSH1 0x24 PUSH0 REVERT JUMPDEST PUSH0 PUSH1 0x2 DUP3 DIV SWAP1 POP PUSH1 0x1 DUP3 AND DUP1 PUSH3 0x3DE JUMPI PUSH1 0x7F DUP3 AND SWAP2 POP JUMPDEST PUSH1 0x20 DUP3 LT DUP2 SUB PUSH3 0x3F4 JUMPI PUSH3 0x3F3 PUSH3 0x399 JUMP JUMPDEST JUMPDEST POP SWAP2 SWAP1 POP JUMP JUMPDEST PUSH0 DUP2 SWAP1 POP DUP2 PUSH0 MSTORE PUSH1 0x20 PUSH0 KECCAK256 SWAP1 POP SWAP2 SWAP1 POP JUMP JUMPDEST PUSH0 PUSH1 0x20 PUSH1 0x1F DUP4 ADD DIV SWAP1 POP SWAP2 SWAP1 POP JUMP JUMPDEST PUSH0 DUP3 DUP3 SHL SWAP1 POP SWAP3 SWAP2 POP POP JUMP JUMPDEST PUSH0 PUSH1 0x8 DUP4 MUL PUSH3 0x458 PUSH32 0xFFFFFFFFFFFFFFFFFFFFFFFFFFFFFFFFFFFFFFFFFFFFFFFFFFFFFFFFFFFFFFFF DUP3 PUSH3 0x41B JUMP JUMPDEST PUSH3 0x464 DUP7 DUP4 PUSH3 0x41B JUMP JUMPDEST SWAP6 POP DUP1 NOT DUP5 AND SWAP4 POP DUP1 DUP7 AND DUP5 OR SWAP3 POP POP POP SWAP4 SWAP3 POP POP POP JUMP JUMPDEST PUSH0 DUP2 SWAP1 POP SWAP2 SWAP1 POP JUMP JUMPDEST PUSH0 DUP2 SWAP1 POP SWAP2 SWAP1 POP JUMP JUMPDEST PUSH0 PUSH3 0x4AE PUSH3 0x4A8 PUSH3 0x4A2 DUP5 PUSH3 0x47C JUMP JUMPDEST PUSH3 0x485 JUMP JUMPDEST PUSH3 0x47C JUMP JUMPDEST SWAP1 POP SWAP2 SWAP1 POP JUMP JUMPDEST PUSH0 DUP2 SWAP1 POP SWAP2 SWAP1 POP JUMP JUMPDEST PUSH3 0x4C9 DUP4 PUSH3 0x48E JUMP JUMPDEST PUSH3 0x4E1 PUSH3 0x4D8 DUP3 PUSH3 0x4B5 JUMP JUMPDEST DUP5 DUP5 SLOAD PUSH3 0x427 JUMP JUMPDEST DUP3 SSTORE POP POP POP POP JUMP JUMPDEST PUSH0 SWAP1 JUMP JUMPDEST PUSH3 0x4F7 PUSH3 0x4E9 JUMP JUMPDEST PUSH3 0x504 DUP2 DUP5 DUP5 PUSH3 0x4BE JUMP JUMPDEST POP POP POP JUMP JUMPDEST JUMPDEST DUP2 DUP2 LT ISZERO PUSH3 0x52B JUMPI PUSH3 0x51F PUSH0 DUP3 PUSH3 0x4ED JUMP JUMPDEST PUSH1 0x1 DUP2 ADD SWAP1 POP PUSH3 0x50A JUMP JUMPDEST POP POP JUMP JUMPDEST PUSH1 0x1F DUP3 GT ISZERO PUSH3 0x57A JUMPI PUSH3 0x544 DUP2 PUSH3 0x3FA JUMP JUMPDEST PUSH3 0x54F DUP5 PUSH3 0x40C JUMP JUMPDEST DUP2 ADD PUSH1 0x20 DUP6 LT ISZERO PUSH3 0x55F JUMPI DUP2 SWAP1 POP JUMPDEST PUSH3 0x577 PUSH3 0x56E DUP6 PUSH3 0x40C JUMP JUMPDEST DUP4 ADD DUP3 PUSH3 0x509 JUMP JUMPDEST POP POP JUMPDEST POP POP POP JUMP JUMPDEST PUSH0 DUP3 DUP3 SHR SWAP1 POP SWAP3 SWAP2 POP POP JUMP JUMPDEST PUSH0 PUSH3 0x59C PUSH0 NOT DUP5 PUSH1 0x8 MUL PUSH3 0x57F JUMP JUMPDEST NOT DUP1 DUP4 AND SWAP2 POP POP SWAP3 SWAP2 POP POP JUMP JUMPDEST PUSH0 PUSH3 0x5B6 DUP4 DUP4 PUSH3 0x58B JUMP JUMPDEST SWAP2 POP DUP3 PUSH1 0x2 MUL DUP3 OR SWAP1 POP SWAP3 SWAP2 POP POP JUMP JUMPDEST PUSH3 0x5D1 DUP3 PUSH3 0x362 JUMP JUMPDEST PUSH8 0xFFFFFFFFFFFFFFFF DUP2 GT ISZERO PUSH3 0x5ED JUMPI PUSH3 0x5EC PUSH3 0x36C JUMP JUMPDEST JUMPDEST PUSH3 0x5F9 DUP3 SLOAD PUSH3 0x3C6 JUMP JUMPDEST PUSH3 0x606 DUP3 DUP3 DUP6 PUSH3 0x52F JUMP JUMPDEST PUSH0 PUSH1 0x20 SWAP1 POP PUSH1 0x1F DUP4 GT PUSH1 0x1 DUP2 EQ PUSH3 0x63C JUMPI PUSH0 DUP5 ISZERO PUSH3 0x627 JUMPI DUP3 DUP8 ADD MLOAD SWAP1 POP JUMPDEST PUSH3 0x633 DUP6 DUP3 PUSH3 0x5A9 JUMP JUMPDEST DUP7 SSTORE POP PUSH3 0x6A2 JUMP JUMPDEST PUSH1 0x1F NOT DUP5 AND PUSH3 0x64C DUP7 PUSH3 0x3FA JUMP JUMPDEST PUSH0 JUMPDEST DUP3 DUP2 LT ISZERO PUSH3 0x675 JUMPI DUP5 DUP10 ADD MLOAD DUP3 SSTORE PUSH1 0x1 DUP3 ADD SWAP2 POP PUSH1 0x20 DUP6 ADD SWAP5 POP PUSH1 0x20 DUP2 ADD SWAP1 POP PUSH3 0x64E JUMP JUMPDEST DUP7 DUP4 LT ISZERO PUSH3 0x695 JUMPI DUP5 DUP10 ADD MLOAD PUSH3 0x691 PUSH1 0x1F DUP10 AND DUP3 PUSH3 0x58B JUMP JUMPDEST DUP4 SSTORE POP JUMPDEST PUSH1 0x1 PUSH1 0x2 DUP9 MUL ADD DUP9 SSTORE POP POP POP JUMPDEST POP POP POP POP POP POP JUMP JUMPDEST PUSH0 DUP3 DUP3 MSTORE PUSH1 0x20 DUP3 ADD SWAP1 POP SWAP3 SWAP2 POP POP JUMP JUMPDEST PUSH32 0x43616E6E6F7420736574206F776E657220746F207A65726F0000000000000000 PUSH0 DUP3 ADD MSTORE POP JUMP JUMPDEST PUSH0 PUSH3 0x6F0 PUSH1 0x18 DUP4 PUSH3 0x6AA JUMP JUMPDEST SWAP2 POP PUSH3 0x6FD DUP3 PUSH3 0x6BA JUMP JUMPDEST PUSH1 0x20 DUP3 ADD SWAP1 POP SWAP2 SWAP1 POP JUMP JUMPDEST PUSH0 PUSH1 0x20 DUP3 ADD SWAP1 POP DUP2 DUP2 SUB PUSH0 DUP4 ADD MSTORE PUSH3 0x721 DUP2 PUSH3 0x6E2 JUMP JUMPDEST SWAP1 POP SWAP2 SWAP1 POP JUMP JUMPDEST PUSH32 0x43616E6E6F74207472616E7366657220746F2073656C66000000000000000000 PUSH0 DUP3 ADD MSTORE POP JUMP JUMPDEST PUSH0 PUSH3 0x75E PUSH1 0x17 DUP4 PUSH3 0x6AA JUMP JUMPDEST SWAP2 POP PUSH3 0x76B DUP3 PUSH3 0x728 JUMP JUMPDEST PUSH1 0x20 DUP3 ADD SWAP1 POP SWAP2 SWAP1 POP JUMP JUMPDEST PUSH0 PUSH1 0x20 DUP3 ADD SWAP1 POP DUP2 DUP2 SUB PUSH0 DUP4 ADD MSTORE PUSH3 0x78F DUP2 PUSH3 0x750 JUMP JUMPDEST SWAP1 POP SWAP2 SWAP1 POP JUMP JUMPDEST PUSH1 0x80 MLOAD PUSH2 0x2657 PUSH3 0x7B6 PUSH0 CODECOPY PUSH0 DUP2 DUP2 PUSH2 0x21A ADD MSTORE PUSH2 0xCE2 ADD MSTORE PUSH2 0x2657 PUSH0 RETURN INVALID PUSH1 0x80 PUSH1 0x40 MSTORE CALLVALUE DUP1 ISZERO PUSH2 0xF JUMPI PUSH0 DUP1 REVERT JUMPDEST POP PUSH1 0x4 CALLDATASIZE LT PUSH2 0xB2 JUMPI PUSH0 CALLDATALOAD PUSH1 0xE0 SHR DUP1 PUSH4 0x79BA5097 GT PUSH2 0x6F JUMPI DUP1 PUSH4 0x79BA5097 EQ PUSH2 0x17A JUMPI DUP1 PUSH4 0x8DA5CB5B EQ PUSH2 0x184 JUMPI DUP1 PUSH4 0xAB0D92DD EQ PUSH2 0x1A2 JUMPI DUP1 PUSH4 0xB1E21749 EQ PUSH2 0x1C0 JUMPI DUP1 PUSH4 0xB252C8F2 EQ PUSH2 0x1DE JUMPI DUP1 PUSH4 0xF2FDE38B EQ PUSH2 0x1FC JUMPI PUSH2 0xB2 JUMP JUMPDEST DUP1 PUSH4 0xCA76175 EQ PUSH2 0xB6 JUMPI DUP1 PUSH4 0x2F9D6254 EQ PUSH2 0xD2 JUMPI DUP1 PUSH4 0x3944EA3A EQ PUSH2 0x102 JUMPI DUP1 PUSH4 0x4942F65F EQ PUSH2 0x120 JUMPI DUP1 PUSH4 0x4B0795A8 EQ PUSH2 0x13E JUMPI DUP1 PUSH4 0x516F279E EQ PUSH2 0x15C JUMPI JUMPDEST PUSH0 DUP1 REVERT JUMPDEST PUSH2 0xD0 PUSH1 0x4 DUP1 CALLDATASIZE SUB DUP2 ADD SWAP1 PUSH2 0xCB SWAP2 SWAP1 PUSH2 0x170E JUMP JUMPDEST PUSH2 0x218 JUMP JUMPDEST STOP JUMPDEST PUSH2 0xEC PUSH1 0x4 DUP1 CALLDATASIZE SUB DUP2 ADD SWAP1 PUSH2 0xE7 SWAP2 SWAP1 PUSH2 0x17D3 JUMP JUMPDEST PUSH2 0x2DA JUMP JUMPDEST PUSH1 0x40 MLOAD PUSH2 0xF9 SWAP2 SWAP1 PUSH2 0x180D JUMP JUMPDEST PUSH1 0x40 MLOAD DUP1 SWAP2 SUB SWAP1 RETURN JUMPDEST PUSH2 0x10A PUSH2 0x3BE JUMP JUMPDEST PUSH1 0x40 MLOAD PUSH2 0x117 SWAP2 SWAP1 PUSH2 0x18A0 JUMP JUMPDEST PUSH1 0x40 MLOAD DUP1 SWAP2 SUB SWAP1 RETURN JUMPDEST PUSH2 0x128 PUSH2 0x44A JUMP JUMPDEST PUSH1 0x40 MLOAD PUSH2 0x135 SWAP2 SWAP1 PUSH2 0x18D8 JUMP JUMPDEST PUSH1 0x40 MLOAD DUP1 SWAP2 SUB SWAP1 RETURN JUMPDEST PUSH2 0x146 PUSH2 0x450 JUMP JUMPDEST PUSH1 0x40 MLOAD PUSH2 0x153 SWAP2 SWAP1 PUSH2 0x18A0 JUMP JUMPDEST PUSH1 0x40 MLOAD DUP1 SWAP2 SUB SWAP1 RETURN JUMPDEST PUSH2 0x164 PUSH2 0x4DC JUMP JUMPDEST PUSH1 0x40 MLOAD PUSH2 0x171 SWAP2 SWAP1 PUSH2 0x1943 JUMP JUMPDEST PUSH1 0x40 MLOAD DUP1 SWAP2 SUB SWAP1 RETURN JUMPDEST PUSH2 0x182 PUSH2 0x568 JUMP JUMPDEST STOP JUMPDEST PUSH2 0x18C PUSH2 0x6F7 JUMP JUMPDEST PUSH1 0x40 MLOAD PUSH2 0x199 SWAP2 SWAP1 PUSH2 0x19A2 JUMP JUMPDEST PUSH1 0x40 MLOAD DUP1 SWAP2 SUB SWAP1 RETURN JUMPDEST PUSH2 0x1AA PUSH2 0x71E JUMP JUMPDEST PUSH1 0x40 MLOAD PUSH2 0x1B7 SWAP2 SWAP1 PUSH2 0x18D8 JUMP JUMPDEST PUSH1 0x40 MLOAD DUP1 SWAP2 SUB SWAP1 RETURN JUMPDEST PUSH2 0x1C8 PUSH2 0x724 JUMP JUMPDEST PUSH1 0x40 MLOAD PUSH2 0x1D5 SWAP2 SWAP1 PUSH2 0x180D JUMP JUMPDEST PUSH1 0x40 MLOAD DUP1 SWAP2 SUB SWAP1 RETURN JUMPDEST PUSH2 0x1E6 PUSH2 0x72A JUMP JUMPDEST PUSH1 0x40 MLOAD PUSH2 0x1F3 SWAP2 SWAP1 PUSH2 0x18D8 JUMP JUMPDEST PUSH1 0x40 MLOAD DUP1 SWAP2 SUB SWAP1 RETURN JUMPDEST PUSH2 0x216 PUSH1 0x4 DUP1 CALLDATASIZE SUB DUP2 ADD SWAP1 PUSH2 0x211 SWAP2 SWAP1 PUSH2 0x19E5 JUMP JUMPDEST PUSH2 0x730 JUMP JUMPDEST STOP JUMPDEST PUSH32 0x0 PUSH20 0xFFFFFFFFFFFFFFFFFFFFFFFFFFFFFFFFFFFFFFFF AND CALLER PUSH20 0xFFFFFFFFFFFFFFFFFFFFFFFFFFFFFFFFFFFFFFFF AND EQ PUSH2 0x29D JUMPI PUSH1 0x40 MLOAD PUSH32 0xC6829F8300000000000000000000000000000000000000000000000000000000 DUP2 MSTORE PUSH1 0x4 ADD PUSH1 0x40 MLOAD DUP1 SWAP2 SUB SWAP1 REVERT JUMPDEST PUSH2 0x2A8 DUP4 DUP4 DUP4 PUSH2 0x744 JUMP JUMPDEST DUP3 PUSH32 0x85E1543BF2F84FE80C6BADBCE3648C8539AD1DF4D2B3D822938CA0538BE727E6 PUSH1 0x40 MLOAD PUSH1 0x40 MLOAD DUP1 SWAP2 SUB SWAP1 LOG2 POP POP POP JUMP JUMPDEST PUSH0 PUSH2 0x2E3 PUSH2 0x82E JUMP JUMPDEST PUSH2 0x2EB PUSH2 0x14E7 JUMP JUMPDEST PUSH2 0x386 PUSH1 0x6 DUP1 SLOAD PUSH2 0x2FB SWAP1 PUSH2 0x1A3D JUMP JUMPDEST DUP1 PUSH1 0x1F ADD PUSH1 0x20 DUP1 SWAP2 DIV MUL PUSH1 0x20 ADD PUSH1 0x40 MLOAD SWAP1 DUP2 ADD PUSH1 0x40 MSTORE DUP1 SWAP3 SWAP2 SWAP1 DUP2 DUP2 MSTORE PUSH1 0x20 ADD DUP3 DUP1 SLOAD PUSH2 0x327 SWAP1 PUSH2 0x1A3D JUMP JUMPDEST DUP1 ISZERO PUSH2 0x372 JUMPI DUP1 PUSH1 0x1F LT PUSH2 0x349 JUMPI PUSH2 0x100 DUP1 DUP4 SLOAD DIV MUL DUP4 MSTORE SWAP2 PUSH1 0x20 ADD SWAP2 PUSH2 0x372 JUMP JUMPDEST DUP3 ADD SWAP2 SWAP1 PUSH0 MSTORE PUSH1 0x20 PUSH0 KECCAK256 SWAP1 JUMPDEST DUP2 SLOAD DUP2 MSTORE SWAP1 PUSH1 0x1 ADD SWAP1 PUSH1 0x20 ADD DUP1 DUP4 GT PUSH2 0x355 JUMPI DUP3 SWAP1 SUB PUSH1 0x1F AND DUP3 ADD SWAP2 JUMPDEST POP POP POP POP POP DUP3 PUSH2 0x8BD SWAP1 SWAP2 SWAP1 PUSH4 0xFFFFFFFF AND JUMP JUMPDEST PUSH2 0x3AD PUSH2 0x392 DUP3 PUSH2 0x8CD JUMP JUMPDEST DUP5 PUSH1 0x7 PUSH0 SWAP1 SLOAD SWAP1 PUSH2 0x100 EXP SWAP1 DIV PUSH4 0xFFFFFFFF AND PUSH1 0x8 SLOAD PUSH2 0xCDE JUMP JUMPDEST PUSH1 0x2 DUP2 SWAP1 SSTORE POP PUSH1 0x2 SLOAD SWAP2 POP POP SWAP2 SWAP1 POP JUMP JUMPDEST PUSH1 0x3 DUP1 SLOAD PUSH2 0x3CB SWAP1 PUSH2 0x1A3D JUMP JUMPDEST DUP1 PUSH1 0x1F ADD PUSH1 0x20 DUP1 SWAP2 DIV MUL PUSH1 0x20 ADD PUSH1 0x40 MLOAD SWAP1 DUP2 ADD PUSH1 0x40 MSTORE DUP1 SWAP3 SWAP2 SWAP1 DUP2 DUP2 MSTORE PUSH1 0x20 ADD DUP3 DUP1 SLOAD PUSH2 0x3F7 SWAP1 PUSH2 0x1A3D JUMP JUMPDEST DUP1 ISZERO PUSH2 0x442 JUMPI DUP1 PUSH1 0x1F LT PUSH2 0x419 JUMPI PUSH2 0x100 DUP1 DUP4 SLOAD DIV MUL DUP4 MSTORE SWAP2 PUSH1 0x20 ADD SWAP2 PUSH2 0x442 JUMP JUMPDEST DUP3 ADD SWAP2 SWAP1 PUSH0 MSTORE PUSH1 0x20 PUSH0 KECCAK256 SWAP1 JUMPDEST DUP2 SLOAD DUP2 MSTORE SWAP1 PUSH1 0x1 ADD SWAP1 PUSH1 0x20 ADD DUP1 DUP4 GT PUSH2 0x425 JUMPI DUP3 SWAP1 SUB PUSH1 0x1F AND DUP3 ADD SWAP2 JUMPDEST POP POP POP POP POP DUP2 JUMP JUMPDEST PUSH1 0xA SLOAD DUP2 JUMP JUMPDEST PUSH1 0x4 DUP1 SLOAD PUSH2 0x45D SWAP1 PUSH2 0x1A3D JUMP JUMPDEST DUP1 PUSH1 0x1F ADD PUSH1 0x20 DUP1 SWAP2 DIV MUL PUSH1 0x20 ADD PUSH1 0x40 MLOAD SWAP1 DUP2 ADD PUSH1 0x40 MSTORE DUP1 SWAP3 SWAP2 SWAP1 DUP2 DUP2 MSTORE PUSH1 0x20 ADD DUP3 DUP1 SLOAD PUSH2 0x489 SWAP1 PUSH2 0x1A3D JUMP JUMPDEST DUP1 ISZERO PUSH2 0x4D4 JUMPI DUP1 PUSH1 0x1F LT PUSH2 0x4AB JUMPI PUSH2 0x100 DUP1 DUP4 SLOAD DIV MUL DUP4 MSTORE SWAP2 PUSH1 0x20 ADD SWAP2 PUSH2 0x4D4 JUMP JUMPDEST DUP3 ADD SWAP2 SWAP1 PUSH0 MSTORE PUSH1 0x20 PUSH0 KECCAK256 SWAP1 JUMPDEST DUP2 SLOAD DUP2 MSTORE SWAP1 PUSH1 0x1 ADD SWAP1 PUSH1 0x20 ADD DUP1 DUP4 GT PUSH2 0x4B7 JUMPI DUP3 SWAP1 SUB PUSH1 0x1F AND DUP3 ADD SWAP2 JUMPDEST POP POP POP POP POP DUP2 JUMP JUMPDEST PUSH1 0x9 DUP1 SLOAD PUSH2 0x4E9 SWAP1 PUSH2 0x1A3D JUMP JUMPDEST DUP1 PUSH1 0x1F ADD PUSH1 0x20 DUP1 SWAP2 DIV MUL PUSH1 0x20 ADD PUSH1 0x40 MLOAD SWAP1 DUP2 ADD PUSH1 0x40 MSTORE DUP1 SWAP3 SWAP2 SWAP1 DUP2 DUP2 MSTORE PUSH1 0x20 ADD DUP3 DUP1 SLOAD PUSH2 0x515 SWAP1 PUSH2 0x1A3D JUMP JUMPDEST DUP1 ISZERO PUSH2 0x560 JUMPI DUP1 PUSH1 0x1F LT PUSH2 0x537 JUMPI PUSH2 0x100 DUP1 DUP4 SLOAD DIV MUL DUP4 MSTORE SWAP2 PUSH1 0x20 ADD SWAP2 PUSH2 0x560 JUMP JUMPDEST DUP3 ADD SWAP2 SWAP1 PUSH0 MSTORE PUSH1 0x20 PUSH0 KECCAK256 SWAP1 JUMPDEST DUP2 SLOAD DUP2 MSTORE SWAP1 PUSH1 0x1 ADD SWAP1 PUSH1 0x20 ADD DUP1 DUP4 GT PUSH2 0x543 JUMPI DUP3 SWAP1 SUB PUSH1 0x1F AND DUP3 ADD SWAP2 JUMPDEST POP POP POP POP POP DUP2 JUMP JUMPDEST PUSH1 0x1 PUSH0 SWAP1 SLOAD SWAP1 PUSH2 0x100 EXP SWAP1 DIV PUSH20 0xFFFFFFFFFFFFFFFFFFFFFFFFFFFFFFFFFFFFFFFF AND PUSH20 0xFFFFFFFFFFFFFFFFFFFFFFFFFFFFFFFFFFFFFFFF AND CALLER PUSH20 0xFFFFFFFFFFFFFFFFFFFFFFFFFFFFFFFFFFFFFFFF AND EQ PUSH2 0x5F7 JUMPI PUSH1 0x40 MLOAD PUSH32 0x8C379A000000000000000000000000000000000000000000000000000000000 DUP2 MSTORE PUSH1 0x4 ADD PUSH2 0x5EE SWAP1 PUSH2 0x1AB7 JUMP JUMPDEST PUSH1 0x40 MLOAD DUP1 SWAP2 SUB SWAP1 REVERT JUMPDEST PUSH0 DUP1 PUSH0 SWAP1 SLOAD SWAP1 PUSH2 0x100 EXP SWAP1 DIV PUSH20 0xFFFFFFFFFFFFFFFFFFFFFFFFFFFFFFFFFFFFFFFF AND SWAP1 POP CALLER PUSH0 DUP1 PUSH2 0x100 EXP DUP2 SLOAD DUP2 PUSH20 0xFFFFFFFFFFFFFFFFFFFFFFFFFFFFFFFFFFFFFFFF MUL NOT AND SWAP1 DUP4 PUSH20 0xFFFFFFFFFFFFFFFFFFFFFFFFFFFFFFFFFFFFFFFF AND MUL OR SWAP1 SSTORE POP PUSH0 PUSH1 0x1 PUSH0 PUSH2 0x100 EXP DUP2 SLOAD DUP2 PUSH20 0xFFFFFFFFFFFFFFFFFFFFFFFFFFFFFFFFFFFFFFFF MUL NOT AND SWAP1 DUP4 PUSH20 0xFFFFFFFFFFFFFFFFFFFFFFFFFFFFFFFFFFFFFFFF AND MUL OR SWAP1 SSTORE POP CALLER PUSH20 0xFFFFFFFFFFFFFFFFFFFFFFFFFFFFFFFFFFFFFFFF AND DUP2 PUSH20 0xFFFFFFFFFFFFFFFFFFFFFFFFFFFFFFFFFFFFFFFF AND PUSH32 0x8BE0079C531659141344CD1FD0A4F28419497F9722A3DAAFE3B4186F6B6457E0 PUSH1 0x40 MLOAD PUSH1 0x40 MLOAD DUP1 SWAP2 SUB SWAP1 LOG3 POP JUMP JUMPDEST PUSH0 DUP1 PUSH0 SWAP1 SLOAD SWAP1 PUSH2 0x100 EXP SWAP1 DIV PUSH20 0xFFFFFFFFFFFFFFFFFFFFFFFFFFFFFFFFFFFFFFFF AND SWAP1 POP SWAP1 JUMP JUMPDEST PUSH1 0xB SLOAD DUP2 JUMP JUMPDEST PUSH1 0x2 SLOAD DUP2 JUMP JUMPDEST PUSH1 0xC SLOAD DUP2 JUMP JUMPDEST PUSH2 0x738 PUSH2 0x82E JUMP JUMPDEST PUSH2 0x741 DUP2 PUSH2 0xDBD JUMP JUMPDEST POP JUMP JUMPDEST DUP3 PUSH1 0x2 SLOAD EQ PUSH2 0x78A JUMPI DUP3 PUSH1 0x40 MLOAD PUSH32 0xD068BF5B00000000000000000000000000000000000000000000000000000000 DUP2 MSTORE PUSH1 0x4 ADD PUSH2 0x781 SWAP2 SWAP1 PUSH2 0x180D JUMP JUMPDEST PUSH1 0x40 MLOAD DUP1 SWAP2 SUB SWAP1 REVERT JUMPDEST DUP2 DUP1 PUSH1 0x20 ADD SWAP1 MLOAD DUP2 ADD SWAP1 PUSH2 0x79E SWAP2 SWAP1 PUSH2 0x1B9D JUMP JUMPDEST PUSH1 0x9 PUSH0 PUSH1 0xA PUSH0 PUSH1 0xB PUSH0 PUSH1 0xC PUSH0 DUP9 SWAP2 SWAP1 POP SSTORE DUP8 SWAP2 SWAP1 POP SSTORE DUP7 SWAP2 SWAP1 POP SSTORE DUP6 SWAP2 SWAP1 POP SWAP1 DUP2 PUSH2 0x7C9 SWAP2 SWAP1 PUSH2 0x1DBA JUMP JUMPDEST POP POP POP POP POP DUP1 PUSH1 0x4 SWAP1 DUP2 PUSH2 0x7DD SWAP2 SWAP1 PUSH2 0x1EE1 JUMP JUMPDEST POP DUP3 PUSH32 0x7CEE4EEECCE4C378BCABAC3921FE1EE240F2F7A24775769790937E3A8165C07 PUSH1 0x9 PUSH1 0xA SLOAD PUSH1 0xB SLOAD PUSH1 0xC SLOAD PUSH1 0x3 PUSH1 0x4 PUSH1 0x40 MLOAD PUSH2 0x821 SWAP7 SWAP6 SWAP5 SWAP4 SWAP3 SWAP2 SWAP1 PUSH2 0x20B2 JUMP JUMPDEST PUSH1 0x40 MLOAD DUP1 SWAP2 SUB SWAP1 LOG2 POP POP POP JUMP JUMPDEST PUSH0 DUP1 SLOAD SWAP1 PUSH2 0x100 EXP SWAP1 DIV PUSH20 0xFFFFFFFFFFFFFFFFFFFFFFFFFFFFFFFFFFFFFFFF AND PUSH20 0xFFFFFFFFFFFFFFFFFFFFFFFFFFFFFFFFFFFFFFFF AND CALLER PUSH20 0xFFFFFFFFFFFFFFFFFFFFFFFFFFFFFFFFFFFFFFFF AND EQ PUSH2 0x8BB JUMPI PUSH1 0x40 MLOAD PUSH32 0x8C379A000000000000000000000000000000000000000000000000000000000 DUP2 MSTORE PUSH1 0x4 ADD PUSH2 0x8B2 SWAP1 PUSH2 0x2170 JUMP JUMPDEST PUSH1 0x40 MLOAD DUP1 SWAP2 SUB SWAP1 REVERT JUMPDEST JUMP JUMPDEST PUSH2 0x8C9 DUP3 PUSH0 DUP1 DUP5 PUSH2 0xEE7 JUMP JUMPDEST POP POP JUMP JUMPDEST PUSH1 0x60 PUSH0 PUSH2 0x8DB PUSH2 0x100 PUSH2 0xF8D JUMP JUMPDEST SWAP1 POP PUSH2 0x925 PUSH1 0x40 MLOAD DUP1 PUSH1 0x40 ADD PUSH1 0x40 MSTORE DUP1 PUSH1 0xC DUP2 MSTORE PUSH1 0x20 ADD PUSH32 0x636F64654C6F636174696F6E0000000000000000000000000000000000000000 DUP2 MSTORE POP DUP3 PUSH2 0xFB2 SWAP1 SWAP2 SWAP1 PUSH4 0xFFFFFFFF AND JUMP JUMPDEST PUSH2 0x94D DUP4 PUSH0 ADD MLOAD PUSH1 0x2 DUP2 GT ISZERO PUSH2 0x93E JUMPI PUSH2 0x93D PUSH2 0x218E JUMP JUMPDEST JUMPDEST DUP3 PUSH2 0xFDA SWAP1 SWAP2 SWAP1 PUSH4 0xFFFFFFFF AND JUMP JUMPDEST PUSH2 0x995 PUSH1 0x40 MLOAD DUP1 PUSH1 0x40 ADD PUSH1 0x40 MSTORE DUP1 PUSH1 0x8 DUP2 MSTORE PUSH1 0x20 ADD PUSH32 0x6C616E6775616765000000000000000000000000000000000000000000000000 DUP2 MSTORE POP DUP3 PUSH2 0xFB2 SWAP1 SWAP2 SWAP1 PUSH4 0xFFFFFFFF AND JUMP JUMPDEST PUSH2 0x9BD DUP4 PUSH1 0x40 ADD MLOAD PUSH0 DUP2 GT ISZERO PUSH2 0x9AE JUMPI PUSH2 0x9AD PUSH2 0x218E JUMP JUMPDEST JUMPDEST DUP3 PUSH2 0xFDA SWAP1 SWAP2 SWAP1 PUSH4 0xFFFFFFFF AND JUMP JUMPDEST PUSH2 0xA05 PUSH1 0x40 MLOAD DUP1 PUSH1 0x40 ADD PUSH1 0x40 MSTORE DUP1 PUSH1 0x6 DUP2 MSTORE PUSH1 0x20 ADD PUSH32 0x736F757263650000000000000000000000000000000000000000000000000000 DUP2 MSTORE POP DUP3 PUSH2 0xFB2 SWAP1 SWAP2 SWAP1 PUSH4 0xFFFFFFFF AND JUMP JUMPDEST PUSH2 0xA1C DUP4 PUSH1 0x60 ADD MLOAD DUP3 PUSH2 0xFB2 SWAP1 SWAP2 SWAP1 PUSH4 0xFFFFFFFF AND JUMP JUMPDEST PUSH0 DUP4 PUSH1 0xA0 ADD MLOAD MLOAD GT ISZERO PUSH2 0xAD6 JUMPI PUSH2 0xA71 PUSH1 0x40 MLOAD DUP1 PUSH1 0x40 ADD PUSH1 0x40 MSTORE DUP1 PUSH1 0x4 DUP2 MSTORE PUSH1 0x20 ADD PUSH32 0x6172677300000000000000000000000000000000000000000000000000000000 DUP2 MSTORE POP DUP3 PUSH2 0xFB2 SWAP1 SWAP2 SWAP1 PUSH4 0xFFFFFFFF AND JUMP JUMPDEST PUSH2 0xA7A DUP2 PUSH2 0x1029 JUMP JUMPDEST PUSH0 JUMPDEST DUP4 PUSH1 0xA0 ADD MLOAD MLOAD DUP2 LT ISZERO PUSH2 0xACB JUMPI PUSH2 0xABA DUP5 PUSH1 0xA0 ADD MLOAD DUP3 DUP2 MLOAD DUP2 LT PUSH2 0xAA3 JUMPI PUSH2 0xAA2 PUSH2 0x21BB JUMP JUMPDEST JUMPDEST PUSH1 0x20 MUL PUSH1 0x20 ADD ADD MLOAD DUP4 PUSH2 0xFB2 SWAP1 SWAP2 SWAP1 PUSH4 0xFFFFFFFF AND JUMP JUMPDEST DUP1 PUSH2 0xAC4 SWAP1 PUSH2 0x2215 JUMP JUMPDEST SWAP1 POP PUSH2 0xA7C JUMP JUMPDEST POP PUSH2 0xAD5 DUP2 PUSH2 0x1051 JUMP JUMPDEST JUMPDEST PUSH0 DUP4 PUSH1 0x80 ADD MLOAD MLOAD GT ISZERO PUSH2 0xC15 JUMPI PUSH0 PUSH1 0x2 DUP2 GT ISZERO PUSH2 0xAF6 JUMPI PUSH2 0xAF5 PUSH2 0x218E JUMP JUMPDEST JUMPDEST DUP4 PUSH1 0x20 ADD MLOAD PUSH1 0x2 DUP2 GT ISZERO PUSH2 0xB0D JUMPI PUSH2 0xB0C PUSH2 0x218E JUMP JUMPDEST JUMPDEST SUB PUSH2 0xB44 JUMPI PUSH1 0x40 MLOAD PUSH32 0xA80D31F700000000000000000000000000000000000000000000000000000000 DUP2 MSTORE PUSH1 0x4 ADD PUSH1 0x40 MLOAD DUP1 SWAP2 SUB SWAP1 REVERT JUMPDEST PUSH2 0xB8C PUSH1 0x40 MLOAD DUP1 PUSH1 0x40 ADD PUSH1 0x40 MSTORE DUP1 PUSH1 0xF DUP2 MSTORE PUSH1 0x20 ADD PUSH32 0x736563726574734C6F636174696F6E0000000000000000000000000000000000 DUP2 MSTORE POP DUP3 PUSH2 0xFB2 SWAP1 SWAP2 SWAP1 PUSH4 0xFFFFFFFF AND JUMP JUMPDEST PUSH2 0xBB5 DUP4 PUSH1 0x20 ADD MLOAD PUSH1 0x2 DUP2 GT ISZERO PUSH2 0xBA6 JUMPI PUSH2 0xBA5 PUSH2 0x218E JUMP JUMPDEST JUMPDEST DUP3 PUSH2 0xFDA SWAP1 SWAP2 SWAP1 PUSH4 0xFFFFFFFF AND JUMP JUMPDEST PUSH2 0xBFD PUSH1 0x40 MLOAD DUP1 PUSH1 0x40 ADD PUSH1 0x40 MSTORE DUP1 PUSH1 0x7 DUP2 MSTORE PUSH1 0x20 ADD PUSH32 0x7365637265747300000000000000000000000000000000000000000000000000 DUP2 MSTORE POP DUP3 PUSH2 0xFB2 SWAP1 SWAP2 SWAP1 PUSH4 0xFFFFFFFF AND JUMP JUMPDEST PUSH2 0xC14 DUP4 PUSH1 0x80 ADD MLOAD DUP3 PUSH2 0x1079 SWAP1 SWAP2 SWAP1 PUSH4 0xFFFFFFFF AND JUMP JUMPDEST JUMPDEST PUSH0 DUP4 PUSH1 0xC0 ADD MLOAD MLOAD GT ISZERO PUSH2 0xCCF JUMPI PUSH2 0xC6A PUSH1 0x40 MLOAD DUP1 PUSH1 0x40 ADD PUSH1 0x40 MSTORE DUP1 PUSH1 0x9 DUP2 MSTORE PUSH1 0x20 ADD PUSH32 0x6279746573417267730000000000000000000000000000000000000000000000 DUP2 MSTORE POP DUP3 PUSH2 0xFB2 SWAP1 SWAP2 SWAP1 PUSH4 0xFFFFFFFF AND JUMP JUMPDEST PUSH2 0xC73 DUP2 PUSH2 0x1029 JUMP JUMPDEST PUSH0 JUMPDEST DUP4 PUSH1 0xC0 ADD MLOAD MLOAD DUP2 LT ISZERO PUSH2 0xCC4 JUMPI PUSH2 0xCB3 DUP5 PUSH1 0xC0 ADD MLOAD DUP3 DUP2 MLOAD DUP2 LT PUSH2 0xC9C JUMPI PUSH2 0xC9B PUSH2 0x21BB JUMP JUMPDEST JUMPDEST PUSH1 0x20 MUL PUSH1 0x20 ADD ADD MLOAD DUP4 PUSH2 0x1079 SWAP1 SWAP2 SWAP1 PUSH4 0xFFFFFFFF AND JUMP JUMPDEST DUP1 PUSH2 0xCBD SWAP1 PUSH2 0x2215 JUMP JUMPDEST SWAP1 POP PUSH2 0xC75 JUMP JUMPDEST POP PUSH2 0xCCE DUP2 PUSH2 0x1051 JUMP JUMPDEST JUMPDEST DUP1 PUSH0 ADD MLOAD PUSH0 ADD MLOAD SWAP2 POP POP SWAP2 SWAP1 POP JUMP JUMPDEST PUSH0 DUP1 PUSH32 0x0 PUSH20 0xFFFFFFFFFFFFFFFFFFFFFFFFFFFFFFFFFFFFFFFF AND PUSH4 0x461D2762 DUP7 DUP9 PUSH1 0x1 DUP9 DUP9 PUSH1 0x40 MLOAD DUP7 PUSH4 0xFFFFFFFF AND PUSH1 0xE0 SHL DUP2 MSTORE PUSH1 0x4 ADD PUSH2 0xD42 SWAP6 SWAP5 SWAP4 SWAP3 SWAP2 SWAP1 PUSH2 0x22A5 JUMP JUMPDEST PUSH1 0x20 PUSH1 0x40 MLOAD DUP1 DUP4 SUB DUP2 PUSH0 DUP8 GAS CALL ISZERO DUP1 ISZERO PUSH2 0xD5E JUMPI RETURNDATASIZE PUSH0 DUP1 RETURNDATACOPY RETURNDATASIZE PUSH0 REVERT JUMPDEST POP POP POP POP PUSH1 0x40 MLOAD RETURNDATASIZE PUSH1 0x1F NOT PUSH1 0x1F DUP3 ADD AND DUP3 ADD DUP1 PUSH1 0x40 MSTORE POP DUP2 ADD SWAP1 PUSH2 0xD82 SWAP2 SWAP1 PUSH2 0x2311 JUMP JUMPDEST SWAP1 POP DUP1 PUSH32 0x1131472297A800FEE664D1D89CFA8F7676FF07189ECC53F80BBB5F4969099DB8 PUSH1 0x40 MLOAD PUSH1 0x40 MLOAD DUP1 SWAP2 SUB SWAP1 LOG2 DUP1 SWAP2 POP POP SWAP5 SWAP4 POP POP POP POP JUMP JUMPDEST CALLER PUSH20 0xFFFFFFFFFFFFFFFFFFFFFFFFFFFFFFFFFFFFFFFF AND DUP2 PUSH20 0xFFFFFFFFFFFFFFFFFFFFFFFFFFFFFFFFFFFFFFFF AND SUB PUSH2 0xE2B JUMPI PUSH1 0x40 MLOAD PUSH32 0x8C379A000000000000000000000000000000000000000000000000000000000 DUP2 MSTORE PUSH1 0x4 ADD PUSH2 0xE22 SWAP1 PUSH2 0x2386 JUMP JUMPDEST PUSH1 0x40 MLOAD DUP1 SWAP2 SUB SWAP1 REVERT JUMPDEST DUP1 PUSH1 0x1 PUSH0 PUSH2 0x100 EXP DUP2 SLOAD DUP2 PUSH20 0xFFFFFFFFFFFFFFFFFFFFFFFFFFFFFFFFFFFFFFFF MUL NOT AND SWAP1 DUP4 PUSH20 0xFFFFFFFFFFFFFFFFFFFFFFFFFFFFFFFFFFFFFFFF AND MUL OR SWAP1 SSTORE POP DUP1 PUSH20 0xFFFFFFFFFFFFFFFFFFFFFFFFFFFFFFFFFFFFFFFF AND PUSH0 DUP1 SLOAD SWAP1 PUSH2 0x100 EXP SWAP1 DIV PUSH20 0xFFFFFFFFFFFFFFFFFFFFFFFFFFFFFFFFFFFFFFFF AND PUSH20 0xFFFFFFFFFFFFFFFFFFFFFFFFFFFFFFFFFFFFFFFF AND PUSH32 0xED8889F560326EB138920D842192F0EB3DD22B4F139C87A2C57538E05BAE1278 PUSH1 0x40 MLOAD PUSH1 0x40 MLOAD DUP1 SWAP2 SUB SWAP1 LOG3 POP JUMP JUMPDEST PUSH0 DUP2 MLOAD SUB PUSH2 0xF21 JUMPI PUSH1 0x40 MLOAD PUSH32 0x22CE3EDD00000000000000000000000000000000000000000000000000000000 DUP2 MSTORE PUSH1 0x4 ADD PUSH1 0x40 MLOAD DUP1 SWAP2 SUB SWAP1 REVERT JUMPDEST DUP3 DUP5 PUSH0 ADD SWAP1 PUSH1 0x2 DUP2 GT ISZERO PUSH2 0xF38 JUMPI PUSH2 0xF37 PUSH2 0x218E JUMP JUMPDEST JUMPDEST SWAP1 DUP2 PUSH1 0x2 DUP2 GT ISZERO PUSH2 0xF4C JUMPI PUSH2 0xF4B PUSH2 0x218E JUMP JUMPDEST JUMPDEST DUP2 MSTORE POP POP DUP2 DUP5 PUSH1 0x40 ADD SWAP1 PUSH0 DUP2 GT ISZERO PUSH2 0xF67 JUMPI PUSH2 0xF66 PUSH2 0x218E JUMP JUMPDEST JUMPDEST SWAP1 DUP2 PUSH0 DUP2 GT ISZERO PUSH2 0xF7A JUMPI PUSH2 0xF79 PUSH2 0x218E JUMP JUMPDEST JUMPDEST DUP2 MSTORE POP POP DUP1 DUP5 PUSH1 0x60 ADD DUP2 SWAP1 MSTORE POP POP POP POP POP JUMP JUMPDEST PUSH2 0xF95 PUSH2 0x1556 JUMP JUMPDEST PUSH2 0xFA2 DUP2 PUSH0 ADD MLOAD DUP4 PUSH2 0x10A1 JUMP JUMPDEST POP PUSH0 DUP2 PUSH1 0x20 ADD DUP2 DUP2 MSTORE POP POP SWAP2 SWAP1 POP JUMP JUMPDEST PUSH2 0xFBF DUP3 PUSH1 0x3 DUP4 MLOAD PUSH2 0x1117 JUMP JUMPDEST PUSH2 0xFD5 DUP2 DUP4 PUSH0 ADD MLOAD PUSH2 0x12B7 SWAP1 SWAP2 SWAP1 PUSH4 0xFFFFFFFF AND JUMP JUMPDEST POP POP POP JUMP JUMPDEST PUSH2 0xFFB PUSH1 0x2 PUSH1 0x5 PUSH1 0x6 PUSH1 0xFF AND SWAP1 SHL OR DUP4 PUSH0 ADD MLOAD PUSH2 0x12D3 SWAP1 SWAP2 SWAP1 PUSH4 0xFFFFFFFF AND JUMP JUMPDEST POP PUSH2 0x1025 DUP3 DUP3 PUSH1 0x40 MLOAD PUSH1 0x20 ADD PUSH2 0x1011 SWAP2 SWAP1 PUSH2 0x18D8 JUMP JUMPDEST PUSH1 0x40 MLOAD PUSH1 0x20 DUP2 DUP4 SUB SUB DUP2 MSTORE SWAP1 PUSH1 0x40 MSTORE PUSH2 0x1079 JUMP JUMPDEST POP POP JUMP JUMPDEST PUSH2 0x1034 DUP2 PUSH1 0x4 PUSH2 0x133A JUMP JUMPDEST PUSH1 0x1 DUP2 PUSH1 0x20 ADD DUP2 DUP2 MLOAD PUSH2 0x1047 SWAP2 SWAP1 PUSH2 0x23A4 JUMP JUMPDEST SWAP2 POP DUP2 DUP2 MSTORE POP POP POP JUMP JUMPDEST PUSH2 0x105C DUP2 PUSH1 0x7 PUSH2 0x133A JUMP JUMPDEST PUSH1 0x1 DUP2 PUSH1 0x20 ADD DUP2 DUP2 MLOAD PUSH2 0x106F SWAP2 SWAP1 PUSH2 0x23D7 JUMP JUMPDEST SWAP2 POP DUP2 DUP2 MSTORE POP POP POP JUMP JUMPDEST PUSH2 0x1086 DUP3 PUSH1 0x2 DUP4 MLOAD PUSH2 0x1117 JUMP JUMPDEST PUSH2 0x109C DUP2 DUP4 PUSH0 ADD MLOAD PUSH2 0x12B7 SWAP1 SWAP2 SWAP1 PUSH4 0xFFFFFFFF AND JUMP JUMPDEST POP POP POP JUMP JUMPDEST PUSH2 0x10A9 PUSH2 0x1575 JUMP JUMPDEST PUSH0 PUSH1 0x20 DUP4 PUSH2 0x10B7 SWAP2 SWAP1 PUSH2 0x2437 JUMP JUMPDEST EQ PUSH2 0x10E3 JUMPI PUSH1 0x20 DUP3 PUSH2 0x10C9 SWAP2 SWAP1 PUSH2 0x2437 JUMP JUMPDEST PUSH1 0x20 PUSH2 0x10D5 SWAP2 SWAP1 PUSH2 0x23D7 JUMP JUMPDEST DUP3 PUSH2 0x10E0 SWAP2 SWAP1 PUSH2 0x23A4 JUMP JUMPDEST SWAP2 POP JUMPDEST DUP2 DUP4 PUSH1 0x20 ADD DUP2 DUP2 MSTORE POP POP PUSH1 0x40 MLOAD DUP1 DUP5 MSTORE PUSH0 DUP2 MSTORE DUP3 DUP2 ADD PUSH1 0x20 ADD DUP2 DUP2 LT ISZERO PUSH2 0x1108 JUMPI PUSH0 DUP1 REVERT JUMPDEST DUP1 PUSH1 0x40 MSTORE POP POP DUP3 SWAP1 POP SWAP3 SWAP2 POP POP JUMP JUMPDEST PUSH1 0x17 DUP2 PUSH8 0xFFFFFFFFFFFFFFFF AND GT PUSH2 0x1151 JUMPI PUSH2 0x114B DUP2 PUSH1 0x5 DUP5 PUSH1 0xFF AND SWAP1 SHL PUSH1 0xFF AND OR DUP5 PUSH0 ADD MLOAD PUSH2 0x12D3 SWAP1 SWAP2 SWAP1 PUSH4 0xFFFFFFFF AND JUMP JUMPDEST POP PUSH2 0x12B2 JUMP JUMPDEST PUSH1 0xFF DUP2 PUSH8 0xFFFFFFFFFFFFFFFF AND GT PUSH2 0x11AD JUMPI PUSH2 0x1183 PUSH1 0x18 PUSH1 0x5 DUP5 PUSH1 0xFF AND SWAP1 SHL OR DUP5 PUSH0 ADD MLOAD PUSH2 0x12D3 SWAP1 SWAP2 SWAP1 PUSH4 0xFFFFFFFF AND JUMP JUMPDEST POP PUSH2 0x11A7 DUP2 PUSH8 0xFFFFFFFFFFFFFFFF AND PUSH1 0x1 DUP6 PUSH0 ADD MLOAD PUSH2 0x135F SWAP1 SWAP3 SWAP2 SWAP1 PUSH4 0xFFFFFFFF AND JUMP JUMPDEST POP PUSH2 0x12B1 JUMP JUMPDEST PUSH2 0xFFFF DUP2 PUSH8 0xFFFFFFFFFFFFFFFF AND GT PUSH2 0x120A JUMPI PUSH2 0x11E0 PUSH1 0x19 PUSH1 0x5 DUP5 PUSH1 0xFF AND SWAP1 SHL OR DUP5 PUSH0 ADD MLOAD PUSH2 0x12D3 SWAP1 SWAP2 SWAP1 PUSH4 0xFFFFFFFF AND JUMP JUMPDEST POP PUSH2 0x1204 DUP2 PUSH8 0xFFFFFFFFFFFFFFFF AND PUSH1 0x2 DUP6 PUSH0 ADD MLOAD PUSH2 0x135F SWAP1 SWAP3 SWAP2 SWAP1 PUSH4 0xFFFFFFFF AND JUMP JUMPDEST POP PUSH2 0x12B0 JUMP JUMPDEST PUSH4 0xFFFFFFFF DUP2 PUSH8 0xFFFFFFFFFFFFFFFF AND GT PUSH2 0x1269 JUMPI PUSH2 0x123F PUSH1 0x1A PUSH1 0x5 DUP5 PUSH1 0xFF AND SWAP1 SHL OR DUP5 PUSH0 ADD MLOAD PUSH2 0x12D3 SWAP1 SWAP2 SWAP1 PUSH4 0xFFFFFFFF AND JUMP JUMPDEST POP PUSH2 0x1263 DUP2 PUSH8 0xFFFFFFFFFFFFFFFF AND PUSH1 0x4 DUP6 PUSH0 ADD MLOAD PUSH2 0x135F SWAP1 SWAP3 SWAP2 SWAP1 PUSH4 0xFFFFFFFF AND JUMP JUMPDEST POP PUSH2 0x12AF JUMP JUMPDEST PUSH2 0x1289 PUSH1 0x1B PUSH1 0x5 DUP5 PUSH1 0xFF AND SWAP1 SHL OR DUP5 PUSH0 ADD MLOAD PUSH2 0x12D3 SWAP1 SWAP2 SWAP1 PUSH4 0xFFFFFFFF AND JUMP JUMPDEST POP PUSH2 0x12AD DUP2 PUSH8 0xFFFFFFFFFFFFFFFF AND PUSH1 0x8 DUP6 PUSH0 ADD MLOAD PUSH2 0x135F SWAP1 SWAP3 SWAP2 SWAP1 PUSH4 0xFFFFFFFF AND JUMP JUMPDEST POP JUMPDEST JUMPDEST JUMPDEST JUMPDEST POP POP POP JUMP JUMPDEST PUSH2 0x12BF PUSH2 0x1575 JUMP JUMPDEST PUSH2 0x12CB DUP4 DUP4 DUP5 MLOAD PUSH2 0x13E8 JUMP JUMPDEST SWAP1 POP SWAP3 SWAP2 POP POP JUMP JUMPDEST PUSH2 0x12DB PUSH2 0x1575 JUMP JUMPDEST PUSH0 DUP4 PUSH0 ADD MLOAD MLOAD SWAP1 POP PUSH0 PUSH1 0x1 DUP3 PUSH2 0x12F1 SWAP2 SWAP1 PUSH2 0x23A4 JUMP JUMPDEST SWAP1 POP DUP5 PUSH1 0x20 ADD MLOAD DUP3 LT PUSH2 0x1315 JUMPI PUSH2 0x1314 DUP6 PUSH1 0x2 DUP4 PUSH2 0x130F SWAP2 SWAP1 PUSH2 0x2467 JUMP JUMPDEST PUSH2 0x14C5 JUMP JUMPDEST JUMPDEST DUP5 MLOAD PUSH1 0x20 DUP4 DUP3 ADD ADD DUP6 DUP2 MSTORE8 DUP2 MLOAD DUP4 GT ISZERO PUSH2 0x132D JUMPI DUP3 DUP3 MSTORE JUMPDEST POP POP DUP5 SWAP3 POP POP POP SWAP3 SWAP2 POP POP JUMP JUMPDEST PUSH2 0x135A PUSH1 0x1F PUSH1 0x5 DUP4 PUSH1 0xFF AND SWAP1 SHL OR DUP4 PUSH0 ADD MLOAD PUSH2 0x12D3 SWAP1 SWAP2 SWAP1 PUSH4 0xFFFFFFFF AND JUMP JUMPDEST POP POP POP JUMP JUMPDEST PUSH2 0x1367 PUSH2 0x1575 JUMP JUMPDEST PUSH0 DUP5 PUSH0 ADD MLOAD MLOAD SWAP1 POP PUSH0 DUP2 DUP5 PUSH2 0x137C SWAP2 SWAP1 PUSH2 0x23A4 JUMP JUMPDEST SWAP1 POP DUP6 PUSH1 0x20 ADD MLOAD DUP2 GT ISZERO PUSH2 0x13A1 JUMPI PUSH2 0x13A0 DUP7 PUSH1 0x2 DUP4 PUSH2 0x139B SWAP2 SWAP1 PUSH2 0x2467 JUMP JUMPDEST PUSH2 0x14C5 JUMP JUMPDEST JUMPDEST PUSH0 PUSH1 0x1 DUP6 PUSH2 0x100 PUSH2 0x13B2 SWAP2 SWAP1 PUSH2 0x25D7 JUMP JUMPDEST PUSH2 0x13BC SWAP2 SWAP1 PUSH2 0x23D7 JUMP JUMPDEST SWAP1 POP DUP7 MLOAD DUP3 DUP2 ADD DUP8 DUP4 NOT DUP3 MLOAD AND OR DUP2 MSTORE DUP2 MLOAD DUP5 GT ISZERO PUSH2 0x13D9 JUMPI DUP4 DUP3 MSTORE JUMPDEST POP POP DUP7 SWAP4 POP POP POP POP SWAP4 SWAP3 POP POP POP JUMP JUMPDEST PUSH2 0x13F0 PUSH2 0x1575 JUMP JUMPDEST DUP3 MLOAD DUP3 GT ISZERO PUSH2 0x13FD JUMPI PUSH0 DUP1 REVERT JUMPDEST PUSH0 DUP5 PUSH0 ADD MLOAD MLOAD SWAP1 POP PUSH0 DUP4 DUP3 PUSH2 0x1412 SWAP2 SWAP1 PUSH2 0x23A4 JUMP JUMPDEST SWAP1 POP DUP6 PUSH1 0x20 ADD MLOAD DUP2 GT ISZERO PUSH2 0x1437 JUMPI PUSH2 0x1436 DUP7 PUSH1 0x2 DUP4 PUSH2 0x1431 SWAP2 SWAP1 PUSH2 0x2467 JUMP JUMPDEST PUSH2 0x14C5 JUMP JUMPDEST JUMPDEST PUSH0 DUP1 DUP8 MLOAD DUP1 MLOAD DUP6 PUSH1 0x20 DUP4 ADD ADD SWAP4 POP DUP1 DUP6 GT ISZERO PUSH2 0x1451 JUMPI DUP5 DUP3 MSTORE JUMPDEST PUSH1 0x20 DUP10 ADD SWAP3 POP POP POP JUMPDEST PUSH1 0x20 DUP7 LT PUSH2 0x1498 JUMPI DUP1 MLOAD DUP3 MSTORE PUSH1 0x20 DUP3 PUSH2 0x1473 SWAP2 SWAP1 PUSH2 0x23A4 JUMP JUMPDEST SWAP2 POP PUSH1 0x20 DUP2 PUSH2 0x1482 SWAP2 SWAP1 PUSH2 0x23A4 JUMP JUMPDEST SWAP1 POP PUSH1 0x20 DUP7 PUSH2 0x1491 SWAP2 SWAP1 PUSH2 0x23D7 JUMP JUMPDEST SWAP6 POP PUSH2 0x145A JUMP JUMPDEST PUSH0 PUSH1 0x1 DUP8 PUSH1 0x20 SUB PUSH2 0x100 EXP SUB SWAP1 POP DUP1 NOT DUP3 MLOAD AND DUP2 DUP5 MLOAD AND DUP2 DUP2 OR DUP6 MSTORE POP POP POP DUP8 SWAP5 POP POP POP POP POP SWAP4 SWAP3 POP POP POP JUMP JUMPDEST PUSH0 DUP3 PUSH0 ADD MLOAD SWAP1 POP PUSH2 0x14D6 DUP4 DUP4 PUSH2 0x10A1 JUMP JUMPDEST POP PUSH2 0x14E1 DUP4 DUP3 PUSH2 0x12B7 JUMP JUMPDEST POP POP POP POP JUMP JUMPDEST PUSH1 0x40 MLOAD DUP1 PUSH1 0xE0 ADD PUSH1 0x40 MSTORE DUP1 PUSH0 PUSH1 0x2 DUP2 GT ISZERO PUSH2 0x1505 JUMPI PUSH2 0x1504 PUSH2 0x218E JUMP JUMPDEST JUMPDEST DUP2 MSTORE PUSH1 0x20 ADD PUSH0 PUSH1 0x2 DUP2 GT ISZERO PUSH2 0x151D JUMPI PUSH2 0x151C PUSH2 0x218E JUMP JUMPDEST JUMPDEST DUP2 MSTORE PUSH1 0x20 ADD PUSH0 DUP1 DUP2 GT ISZERO PUSH2 0x1534 JUMPI PUSH2 0x1533 PUSH2 0x218E JUMP JUMPDEST JUMPDEST DUP2 MSTORE PUSH1 0x20 ADD PUSH1 0x60 DUP2 MSTORE PUSH1 0x20 ADD PUSH1 0x60 DUP2 MSTORE PUSH1 0x20 ADD PUSH1 0x60 DUP2 MSTORE PUSH1 0x20 ADD PUSH1 0x60 DUP2 MSTORE POP SWAP1 JUMP JUMPDEST PUSH1 0x40 MLOAD DUP1 PUSH1 0x40 ADD PUSH1 0x40 MSTORE DUP1 PUSH2 0x1569 PUSH2 0x1575 JUMP JUMPDEST DUP2 MSTORE PUSH1 0x20 ADD PUSH0 DUP2 MSTORE POP SWAP1 JUMP JUMPDEST PUSH1 0x40 MLOAD DUP1 PUSH1 0x40 ADD PUSH1 0x40 MSTORE DUP1 PUSH1 0x60 DUP2 MSTORE PUSH1 0x20 ADD PUSH0 DUP2 MSTORE POP SWAP1 JUMP JUMPDEST PUSH0 PUSH1 0x40 MLOAD SWAP1 POP SWAP1 JUMP JUMPDEST PUSH0 DUP1 REVERT JUMPDEST PUSH0 DUP1 REVERT JUMPDEST PUSH0 DUP2 SWAP1 POP SWAP2 SWAP1 POP JUMP JUMPDEST PUSH2 0x15B1 DUP2 PUSH2 0x159F JUMP JUMPDEST DUP2 EQ PUSH2 0x15BB JUMPI PUSH0 DUP1 REVERT JUMPDEST POP JUMP JUMPDEST PUSH0 DUP2 CALLDATALOAD SWAP1 POP PUSH2 0x15CC DUP2 PUSH2 0x15A8 JUMP JUMPDEST SWAP3 SWAP2 POP POP JUMP JUMPDEST PUSH0 DUP1 REVERT JUMPDEST PUSH0 DUP1 REVERT JUMPDEST PUSH0 PUSH1 0x1F NOT PUSH1 0x1F DUP4 ADD AND SWAP1 POP SWAP2 SWAP1 POP JUMP JUMPDEST PUSH32 0x4E487B7100000000000000000000000000000000000000000000000000000000 PUSH0 MSTORE PUSH1 0x41 PUSH1 0x4 MSTORE PUSH1 0x24 PUSH0 REVERT JUMPDEST PUSH2 0x1620 DUP3 PUSH2 0x15DA JUMP JUMPDEST DUP2 ADD DUP2 DUP2 LT PUSH8 0xFFFFFFFFFFFFFFFF DUP3 GT OR ISZERO PUSH2 0x163F JUMPI PUSH2 0x163E PUSH2 0x15EA JUMP JUMPDEST JUMPDEST DUP1 PUSH1 0x40 MSTORE POP POP POP JUMP JUMPDEST PUSH0 PUSH2 0x1651 PUSH2 0x158E JUMP JUMPDEST SWAP1 POP PUSH2 0x165D DUP3 DUP3 PUSH2 0x1617 JUMP JUMPDEST SWAP2 SWAP1 POP JUMP JUMPDEST PUSH0 PUSH8 0xFFFFFFFFFFFFFFFF DUP3 GT ISZERO PUSH2 0x167C JUMPI PUSH2 0x167B PUSH2 0x15EA JUMP JUMPDEST JUMPDEST PUSH2 0x1685 DUP3 PUSH2 0x15DA JUMP JUMPDEST SWAP1 POP PUSH1 0x20 DUP2 ADD SWAP1 POP SWAP2 SWAP1 POP JUMP JUMPDEST DUP3 DUP2 DUP4 CALLDATACOPY PUSH0 DUP4 DUP4 ADD MSTORE POP POP POP JUMP JUMPDEST PUSH0 PUSH2 0x16B2 PUSH2 0x16AD DUP5 PUSH2 0x1662 JUMP JUMPDEST PUSH2 0x1648 JUMP JUMPDEST SWAP1 POP DUP3 DUP2 MSTORE PUSH1 0x20 DUP2 ADD DUP5 DUP5 DUP5 ADD GT ISZERO PUSH2 0x16CE JUMPI PUSH2 0x16CD PUSH2 0x15D6 JUMP JUMPDEST JUMPDEST PUSH2 0x16D9 DUP5 DUP3 DUP6 PUSH2 0x1692 JUMP JUMPDEST POP SWAP4 SWAP3 POP POP POP JUMP JUMPDEST PUSH0 DUP3 PUSH1 0x1F DUP4 ADD SLT PUSH2 0x16F5 JUMPI PUSH2 0x16F4 PUSH2 0x15D2 JUMP JUMPDEST JUMPDEST DUP2 CALLDATALOAD PUSH2 0x1705 DUP5 DUP3 PUSH1 0x20 DUP7 ADD PUSH2 0x16A0 JUMP JUMPDEST SWAP2 POP POP SWAP3 SWAP2 POP POP JUMP JUMPDEST PUSH0 DUP1 PUSH0 PUSH1 0x60 DUP5 DUP7 SUB SLT ISZERO PUSH2 0x1725 JUMPI PUSH2 0x1724 PUSH2 0x1597 JUMP JUMPDEST JUMPDEST PUSH0 PUSH2 0x1732 DUP7 DUP3 DUP8 ADD PUSH2 0x15BE JUMP JUMPDEST SWAP4 POP POP PUSH1 0x20 DUP5 ADD CALLDATALOAD PUSH8 0xFFFFFFFFFFFFFFFF DUP2 GT ISZERO PUSH2 0x1753 JUMPI PUSH2 0x1752 PUSH2 0x159B JUMP JUMPDEST JUMPDEST PUSH2 0x175F DUP7 DUP3 DUP8 ADD PUSH2 0x16E1 JUMP JUMPDEST SWAP3 POP POP PUSH1 0x40 DUP5 ADD CALLDATALOAD PUSH8 0xFFFFFFFFFFFFFFFF DUP2 GT ISZERO PUSH2 0x1780 JUMPI PUSH2 0x177F PUSH2 0x159B JUMP JUMPDEST JUMPDEST PUSH2 0x178C DUP7 DUP3 DUP8 ADD PUSH2 0x16E1 JUMP JUMPDEST SWAP2 POP POP SWAP3 POP SWAP3 POP SWAP3 JUMP JUMPDEST PUSH0 PUSH8 0xFFFFFFFFFFFFFFFF DUP3 AND SWAP1 POP SWAP2 SWAP1 POP JUMP JUMPDEST PUSH2 0x17B2 DUP2 PUSH2 0x1796 JUMP JUMPDEST DUP2 EQ PUSH2 0x17BC JUMPI PUSH0 DUP1 REVERT JUMPDEST POP JUMP JUMPDEST PUSH0 DUP2 CALLDATALOAD SWAP1 POP PUSH2 0x17CD DUP2 PUSH2 0x17A9 JUMP JUMPDEST SWAP3 SWAP2 POP POP JUMP JUMPDEST PUSH0 PUSH1 0x20 DUP3 DUP5 SUB SLT ISZERO PUSH2 0x17E8 JUMPI PUSH2 0x17E7 PUSH2 0x1597 JUMP JUMPDEST JUMPDEST PUSH0 PUSH2 0x17F5 DUP5 DUP3 DUP6 ADD PUSH2 0x17BF JUMP JUMPDEST SWAP2 POP POP SWAP3 SWAP2 POP POP JUMP JUMPDEST PUSH2 0x1807 DUP2 PUSH2 0x159F JUMP JUMPDEST DUP3 MSTORE POP POP JUMP JUMPDEST PUSH0 PUSH1 0x20 DUP3 ADD SWAP1 POP PUSH2 0x1820 PUSH0 DUP4 ADD DUP5 PUSH2 0x17FE JUMP JUMPDEST SWAP3 SWAP2 POP POP JUMP JUMPDEST PUSH0 DUP2 MLOAD SWAP1 POP SWAP2 SWAP1 POP JUMP JUMPDEST PUSH0 DUP3 DUP3 MSTORE PUSH1 0x20 DUP3 ADD SWAP1 POP SWAP3 SWAP2 POP POP JUMP JUMPDEST PUSH0 JUMPDEST DUP4 DUP2 LT ISZERO PUSH2 0x185D JUMPI DUP1 DUP3 ADD MLOAD DUP2 DUP5 ADD MSTORE PUSH1 0x20 DUP2 ADD SWAP1 POP PUSH2 0x1842 JUMP JUMPDEST PUSH0 DUP5 DUP5 ADD MSTORE POP POP POP POP JUMP JUMPDEST PUSH0 PUSH2 0x1872 DUP3 PUSH2 0x1826 JUMP JUMPDEST PUSH2 0x187C DUP2 DUP6 PUSH2 0x1830 JUMP JUMPDEST SWAP4 POP PUSH2 0x188C DUP2 DUP6 PUSH1 0x20 DUP7 ADD PUSH2 0x1840 JUMP JUMPDEST PUSH2 0x1895 DUP2 PUSH2 0x15DA JUMP JUMPDEST DUP5 ADD SWAP2 POP POP SWAP3 SWAP2 POP POP JUMP JUMPDEST PUSH0 PUSH1 0x20 DUP3 ADD SWAP1 POP DUP2 DUP2 SUB PUSH0 DUP4 ADD MSTORE PUSH2 0x18B8 DUP2 DUP5 PUSH2 0x1868 JUMP JUMPDEST SWAP1 POP SWAP3 SWAP2 POP POP JUMP JUMPDEST PUSH0 DUP2 SWAP1 POP SWAP2 SWAP1 POP JUMP JUMPDEST PUSH2 0x18D2 DUP2 PUSH2 0x18C0 JUMP JUMPDEST DUP3 MSTORE POP POP JUMP JUMPDEST PUSH0 PUSH1 0x20 DUP3 ADD SWAP1 POP PUSH2 0x18EB PUSH0 DUP4 ADD DUP5 PUSH2 0x18C9 JUMP JUMPDEST SWAP3 SWAP2 POP POP JUMP JUMPDEST PUSH0 DUP2 MLOAD SWAP1 POP SWAP2 SWAP1 POP JUMP JUMPDEST PUSH0 DUP3 DUP3 MSTORE PUSH1 0x20 DUP3 ADD SWAP1 POP SWAP3 SWAP2 POP POP JUMP JUMPDEST PUSH0 PUSH2 0x1915 DUP3 PUSH2 0x18F1 JUMP JUMPDEST PUSH2 0x191F DUP2 DUP6 PUSH2 0x18FB JUMP JUMPDEST SWAP4 POP PUSH2 0x192F DUP2 DUP6 PUSH1 0x20 DUP7 ADD PUSH2 0x1840 JUMP JUMPDEST PUSH2 0x1938 DUP2 PUSH2 0x15DA JUMP JUMPDEST DUP5 ADD SWAP2 POP POP SWAP3 SWAP2 POP POP JUMP JUMPDEST PUSH0 PUSH1 0x20 DUP3 ADD SWAP1 POP DUP2 DUP2 SUB PUSH0 DUP4 ADD MSTORE PUSH2 0x195B DUP2 DUP5 PUSH2 0x190B JUMP JUMPDEST SWAP1 POP SWAP3 SWAP2 POP POP JUMP JUMPDEST PUSH0 PUSH20 0xFFFFFFFFFFFFFFFFFFFFFFFFFFFFFFFFFFFFFFFF DUP3 AND SWAP1 POP SWAP2 SWAP1 POP JUMP JUMPDEST PUSH0 PUSH2 0x198C DUP3 PUSH2 0x1963 JUMP JUMPDEST SWAP1 POP SWAP2 SWAP1 POP JUMP JUMPDEST PUSH2 0x199C DUP2 PUSH2 0x1982 JUMP JUMPDEST DUP3 MSTORE POP POP JUMP JUMPDEST PUSH0 PUSH1 0x20 DUP3 ADD SWAP1 POP PUSH2 0x19B5 PUSH0 DUP4 ADD DUP5 PUSH2 0x1993 JUMP JUMPDEST SWAP3 SWAP2 POP POP JUMP JUMPDEST PUSH2 0x19C4 DUP2 PUSH2 0x1982 JUMP JUMPDEST DUP2 EQ PUSH2 0x19CE JUMPI PUSH0 DUP1 REVERT JUMPDEST POP JUMP JUMPDEST PUSH0 DUP2 CALLDATALOAD SWAP1 POP PUSH2 0x19DF DUP2 PUSH2 0x19BB JUMP JUMPDEST SWAP3 SWAP2 POP POP JUMP JUMPDEST PUSH0 PUSH1 0x20 DUP3 DUP5 SUB SLT ISZERO PUSH2 0x19FA JUMPI PUSH2 0x19F9 PUSH2 0x1597 JUMP JUMPDEST JUMPDEST PUSH0 PUSH2 0x1A07 DUP5 DUP3 DUP6 ADD PUSH2 0x19D1 JUMP JUMPDEST SWAP2 POP POP SWAP3 SWAP2 POP POP JUMP JUMPDEST PUSH32 0x4E487B7100000000000000000000000000000000000000000000000000000000 PUSH0 MSTORE PUSH1 0x22 PUSH1 0x4 MSTORE PUSH1 0x24 PUSH0 REVERT JUMPDEST PUSH0 PUSH1 0x2 DUP3 DIV SWAP1 POP PUSH1 0x1 DUP3 AND DUP1 PUSH2 0x1A54 JUMPI PUSH1 0x7F DUP3 AND SWAP2 POP JUMPDEST PUSH1 0x20 DUP3 LT DUP2 SUB PUSH2 0x1A67 JUMPI PUSH2 0x1A66 PUSH2 0x1A10 JUMP JUMPDEST JUMPDEST POP SWAP2 SWAP1 POP JUMP JUMPDEST PUSH32 0x4D7573742062652070726F706F736564206F776E657200000000000000000000 PUSH0 DUP3 ADD MSTORE POP JUMP JUMPDEST PUSH0 PUSH2 0x1AA1 PUSH1 0x16 DUP4 PUSH2 0x18FB JUMP JUMPDEST SWAP2 POP PUSH2 0x1AAC DUP3 PUSH2 0x1A6D JUMP JUMPDEST PUSH1 0x20 DUP3 ADD SWAP1 POP SWAP2 SWAP1 POP JUMP JUMPDEST PUSH0 PUSH1 0x20 DUP3 ADD SWAP1 POP DUP2 DUP2 SUB PUSH0 DUP4 ADD MSTORE PUSH2 0x1ACE DUP2 PUSH2 0x1A95 JUMP JUMPDEST SWAP1 POP SWAP2 SWAP1 POP JUMP JUMPDEST PUSH0 PUSH8 0xFFFFFFFFFFFFFFFF DUP3 GT ISZERO PUSH2 0x1AEF JUMPI PUSH2 0x1AEE PUSH2 0x15EA JUMP JUMPDEST JUMPDEST PUSH2 0x1AF8 DUP3 PUSH2 0x15DA JUMP JUMPDEST SWAP1 POP PUSH1 0x20 DUP2 ADD SWAP1 POP SWAP2 SWAP1 POP JUMP JUMPDEST PUSH0 PUSH2 0x1B17 PUSH2 0x1B12 DUP5 PUSH2 0x1AD5 JUMP JUMPDEST PUSH2 0x1648 JUMP JUMPDEST SWAP1 POP DUP3 DUP2 MSTORE PUSH1 0x20 DUP2 ADD DUP5 DUP5 DUP5 ADD GT ISZERO PUSH2 0x1B33 JUMPI PUSH2 0x1B32 PUSH2 0x15D6 JUMP JUMPDEST JUMPDEST PUSH2 0x1B3E DUP5 DUP3 DUP6 PUSH2 0x1840 JUMP JUMPDEST POP SWAP4 SWAP3 POP POP POP JUMP JUMPDEST PUSH0 DUP3 PUSH1 0x1F DUP4 ADD SLT PUSH2 0x1B5A JUMPI PUSH2 0x1B59 PUSH2 0x15D2 JUMP JUMPDEST JUMPDEST DUP2 MLOAD PUSH2 0x1B6A DUP5 DUP3 PUSH1 0x20 DUP7 ADD PUSH2 0x1B05 JUMP JUMPDEST SWAP2 POP POP SWAP3 SWAP2 POP POP JUMP JUMPDEST PUSH2 0x1B7C DUP2 PUSH2 0x18C0 JUMP JUMPDEST DUP2 EQ PUSH2 0x1B86 JUMPI PUSH0 DUP1 REVERT JUMPDEST POP JUMP JUMPDEST PUSH0 DUP2 MLOAD SWAP1 POP PUSH2 0x1B97 DUP2 PUSH2 0x1B73 JUMP JUMPDEST SWAP3 SWAP2 POP POP JUMP JUMPDEST PUSH0 DUP1 PUSH0 DUP1 PUSH1 0x80 DUP6 DUP8 SUB SLT ISZERO PUSH2 0x1BB5 JUMPI PUSH2 0x1BB4 PUSH2 0x1597 JUMP JUMPDEST JUMPDEST PUSH0 DUP6 ADD MLOAD PUSH8 0xFFFFFFFFFFFFFFFF DUP2 GT ISZERO PUSH2 0x1BD2 JUMPI PUSH2 0x1BD1 PUSH2 0x159B JUMP JUMPDEST JUMPDEST PUSH2 0x1BDE DUP8 DUP3 DUP9 ADD PUSH2 0x1B46 JUMP JUMPDEST SWAP5 POP POP PUSH1 0x20 PUSH2 0x1BEF DUP8 DUP3 DUP9 ADD PUSH2 0x1B89 JUMP JUMPDEST SWAP4 POP POP PUSH1 0x40 PUSH2 0x1C00 DUP8 DUP3 DUP9 ADD PUSH2 0x1B89 JUMP JUMPDEST SWAP3 POP POP PUSH1 0x60 PUSH2 0x1C11 DUP8 DUP3 DUP9 ADD PUSH2 0x1B89 JUMP JUMPDEST SWAP2 POP POP SWAP3 SWAP6 SWAP2 SWAP5 POP SWAP3 POP JUMP JUMPDEST PUSH0 DUP2 SWAP1 POP DUP2 PUSH0 MSTORE PUSH1 0x20 PUSH0 KECCAK256 SWAP1 POP SWAP2 SWAP1 POP JUMP JUMPDEST PUSH0 PUSH1 0x20 PUSH1 0x1F DUP4 ADD DIV SWAP1 POP SWAP2 SWAP1 POP JUMP JUMPDEST PUSH0 DUP3 DUP3 SHL SWAP1 POP SWAP3 SWAP2 POP POP JUMP JUMPDEST PUSH0 PUSH1 0x8 DUP4 MUL PUSH2 0x1C79 PUSH32 0xFFFFFFFFFFFFFFFFFFFFFFFFFFFFFFFFFFFFFFFFFFFFFFFFFFFFFFFFFFFFFFFF DUP3 PUSH2 0x1C3E JUMP JUMPDEST PUSH2 0x1C83 DUP7 DUP4 PUSH2 0x1C3E JUMP JUMPDEST SWAP6 POP DUP1 NOT DUP5 AND SWAP4 POP DUP1 DUP7 AND DUP5 OR SWAP3 POP POP POP SWAP4 SWAP3 POP POP POP JUMP JUMPDEST PUSH0 DUP2 SWAP1 POP SWAP2 SWAP1 POP JUMP JUMPDEST PUSH0 PUSH2 0x1CBE PUSH2 0x1CB9 PUSH2 0x1CB4 DUP5 PUSH2 0x18C0 JUMP JUMPDEST PUSH2 0x1C9B JUMP JUMPDEST PUSH2 0x18C0 JUMP JUMPDEST SWAP1 POP SWAP2 SWAP1 POP JUMP JUMPDEST PUSH0 DUP2 SWAP1 POP SWAP2 SWAP1 POP JUMP JUMPDEST PUSH2 0x1CD7 DUP4 PUSH2 0x1CA4 JUMP JUMPDEST PUSH2 0x1CEB PUSH2 0x1CE3 DUP3 PUSH2 0x1CC5 JUMP JUMPDEST DUP5 DUP5 SLOAD PUSH2 0x1C4A JUMP JUMPDEST DUP3 SSTORE POP POP POP POP JUMP JUMPDEST PUSH0 SWAP1 JUMP JUMPDEST PUSH2 0x1CFF PUSH2 0x1CF3 JUMP JUMPDEST PUSH2 0x1D0A DUP2 DUP5 DUP5 PUSH2 0x1CCE JUMP JUMPDEST POP POP POP JUMP JUMPDEST JUMPDEST DUP2 DUP2 LT ISZERO PUSH2 0x1D2D JUMPI PUSH2 0x1D22 PUSH0 DUP3 PUSH2 0x1CF7 JUMP JUMPDEST PUSH1 0x1 DUP2 ADD SWAP1 POP PUSH2 0x1D10 JUMP JUMPDEST POP POP JUMP JUMPDEST PUSH1 0x1F DUP3 GT ISZERO PUSH2 0x1D72 JUMPI PUSH2 0x1D43 DUP2 PUSH2 0x1C1D JUMP JUMPDEST PUSH2 0x1D4C DUP5 PUSH2 0x1C2F JUMP JUMPDEST DUP2 ADD PUSH1 0x20 DUP6 LT ISZERO PUSH2 0x1D5B JUMPI DUP2 SWAP1 POP JUMPDEST PUSH2 0x1D6F PUSH2 0x1D67 DUP6 PUSH2 0x1C2F JUMP JUMPDEST DUP4 ADD DUP3 PUSH2 0x1D0F JUMP JUMPDEST POP POP JUMPDEST POP POP POP JUMP JUMPDEST PUSH0 DUP3 DUP3 SHR SWAP1 POP SWAP3 SWAP2 POP POP JUMP JUMPDEST PUSH0 PUSH2 0x1D92 PUSH0 NOT DUP5 PUSH1 0x8 MUL PUSH2 0x1D77 JUMP JUMPDEST NOT DUP1 DUP4 AND SWAP2 POP POP SWAP3 SWAP2 POP POP JUMP JUMPDEST PUSH0 PUSH2 0x1DAA DUP4 DUP4 PUSH2 0x1D83 JUMP JUMPDEST SWAP2 POP DUP3 PUSH1 0x2 MUL DUP3 OR SWAP1 POP SWAP3 SWAP2 POP POP JUMP JUMPDEST PUSH2 0x1DC3 DUP3 PUSH2 0x18F1 JUMP JUMPDEST PUSH8 0xFFFFFFFFFFFFFFFF DUP2 GT ISZERO PUSH2 0x1DDC JUMPI PUSH2 0x1DDB PUSH2 0x15EA JUMP JUMPDEST JUMPDEST PUSH2 0x1DE6 DUP3 SLOAD PUSH2 0x1A3D JUMP JUMPDEST PUSH2 0x1DF1 DUP3 DUP3 DUP6 PUSH2 0x1D31 JUMP JUMPDEST PUSH0 PUSH1 0x20 SWAP1 POP PUSH1 0x1F DUP4 GT PUSH1 0x1 DUP2 EQ PUSH2 0x1E22 JUMPI PUSH0 DUP5 ISZERO PUSH2 0x1E10 JUMPI DUP3 DUP8 ADD MLOAD SWAP1 POP JUMPDEST PUSH2 0x1E1A DUP6 DUP3 PUSH2 0x1D9F JUMP JUMPDEST DUP7 SSTORE POP PUSH2 0x1E81 JUMP JUMPDEST PUSH1 0x1F NOT DUP5 AND PUSH2 0x1E30 DUP7 PUSH2 0x1C1D JUMP JUMPDEST PUSH0 JUMPDEST DUP3 DUP2 LT ISZERO PUSH2 0x1E57 JUMPI DUP5 DUP10 ADD MLOAD DUP3 SSTORE PUSH1 0x1 DUP3 ADD SWAP2 POP PUSH1 0x20 DUP6 ADD SWAP5 POP PUSH1 0x20 DUP2 ADD SWAP1 POP PUSH2 0x1E32 JUMP JUMPDEST DUP7 DUP4 LT ISZERO PUSH2 0x1E74 JUMPI DUP5 DUP10 ADD MLOAD PUSH2 0x1E70 PUSH1 0x1F DUP10 AND DUP3 PUSH2 0x1D83 JUMP JUMPDEST DUP4 SSTORE POP JUMPDEST PUSH1 0x1 PUSH1 0x2 DUP9 MUL ADD DUP9 SSTORE POP POP POP JUMPDEST POP POP POP POP POP POP JUMP JUMPDEST PUSH0 DUP2 SWAP1 POP DUP2 PUSH0 MSTORE PUSH1 0x20 PUSH0 KECCAK256 SWAP1 POP SWAP2 SWAP1 POP JUMP JUMPDEST PUSH1 0x1F DUP3 GT ISZERO PUSH2 0x1EDC JUMPI PUSH2 0x1EAD DUP2 PUSH2 0x1E89 JUMP JUMPDEST PUSH2 0x1EB6 DUP5 PUSH2 0x1C2F JUMP JUMPDEST DUP2 ADD PUSH1 0x20 DUP6 LT ISZERO PUSH2 0x1EC5 JUMPI DUP2 SWAP1 POP JUMPDEST PUSH2 0x1ED9 PUSH2 0x1ED1 DUP6 PUSH2 0x1C2F JUMP JUMPDEST DUP4 ADD DUP3 PUSH2 0x1D0F JUMP JUMPDEST POP POP JUMPDEST POP POP POP JUMP JUMPDEST PUSH2 0x1EEA DUP3 PUSH2 0x1826 JUMP JUMPDEST PUSH8 0xFFFFFFFFFFFFFFFF DUP2 GT ISZERO PUSH2 0x1F03 JUMPI PUSH2 0x1F02 PUSH2 0x15EA JUMP JUMPDEST JUMPDEST PUSH2 0x1F0D DUP3 SLOAD PUSH2 0x1A3D JUMP JUMPDEST PUSH2 0x1F18 DUP3 DUP3 DUP6 PUSH2 0x1E9B JUMP JUMPDEST PUSH0 PUSH1 0x20 SWAP1 POP PUSH1 0x1F DUP4 GT PUSH1 0x1 DUP2 EQ PUSH2 0x1F49 JUMPI PUSH0 DUP5 ISZERO PUSH2 0x1F37 JUMPI DUP3 DUP8 ADD MLOAD SWAP1 POP JUMPDEST PUSH2 0x1F41 DUP6 DUP3 PUSH2 0x1D9F JUMP JUMPDEST DUP7 SSTORE POP PUSH2 0x1FA8 JUMP JUMPDEST PUSH1 0x1F NOT DUP5 AND PUSH2 0x1F57 DUP7 PUSH2 0x1E89 JUMP JUMPDEST PUSH0 JUMPDEST DUP3 DUP2 LT ISZERO PUSH2 0x1F7E JUMPI DUP5 DUP10 ADD MLOAD DUP3 SSTORE PUSH1 0x1 DUP3 ADD SWAP2 POP PUSH1 0x20 DUP6 ADD SWAP5 POP PUSH1 0x20 DUP2 ADD SWAP1 POP PUSH2 0x1F59 JUMP JUMPDEST DUP7 DUP4 LT ISZERO PUSH2 0x1F9B JUMPI DUP5 DUP10 ADD MLOAD PUSH2 0x1F97 PUSH1 0x1F DUP10 AND DUP3 PUSH2 0x1D83 JUMP JUMPDEST DUP4 SSTORE POP JUMPDEST PUSH1 0x1 PUSH1 0x2 DUP9 MUL ADD DUP9 SSTORE POP POP POP JUMPDEST POP POP POP POP POP POP JUMP JUMPDEST PUSH0 DUP2 SLOAD PUSH2 0x1FBC DUP2 PUSH2 0x1A3D JUMP JUMPDEST PUSH2 0x1FC6 DUP2 DUP7 PUSH2 0x18FB JUMP JUMPDEST SWAP5 POP PUSH1 0x1 DUP3 AND PUSH0 DUP2 EQ PUSH2 0x1FE0 JUMPI PUSH1 0x1 DUP2 EQ PUSH2 0x1FF6 JUMPI PUSH2 0x2028 JUMP JUMPDEST PUSH1 0xFF NOT DUP4 AND DUP7 MSTORE DUP2 ISZERO ISZERO PUSH1 0x20 MUL DUP7 ADD SWAP4 POP PUSH2 0x2028 JUMP JUMPDEST PUSH2 0x1FFF DUP6 PUSH2 0x1C1D JUMP JUMPDEST PUSH0 JUMPDEST DUP4 DUP2 LT ISZERO PUSH2 0x2020 JUMPI DUP2 SLOAD DUP2 DUP10 ADD MSTORE PUSH1 0x1 DUP3 ADD SWAP2 POP PUSH1 0x20 DUP2 ADD SWAP1 POP PUSH2 0x2001 JUMP JUMPDEST DUP1 DUP9 ADD SWAP6 POP POP POP JUMPDEST POP POP POP SWAP3 SWAP2 POP POP JUMP JUMPDEST PUSH0 DUP2 SLOAD PUSH2 0x203D DUP2 PUSH2 0x1A3D JUMP JUMPDEST PUSH2 0x2047 DUP2 DUP7 PUSH2 0x1830 JUMP JUMPDEST SWAP5 POP PUSH1 0x1 DUP3 AND PUSH0 DUP2 EQ PUSH2 0x2061 JUMPI PUSH1 0x1 DUP2 EQ PUSH2 0x2077 JUMPI PUSH2 0x20A9 JUMP JUMPDEST PUSH1 0xFF NOT DUP4 AND DUP7 MSTORE DUP2 ISZERO ISZERO PUSH1 0x20 MUL DUP7 ADD SWAP4 POP PUSH2 0x20A9 JUMP JUMPDEST PUSH2 0x2080 DUP6 PUSH2 0x1E89 JUMP JUMPDEST PUSH0 JUMPDEST DUP4 DUP2 LT ISZERO PUSH2 0x20A1 JUMPI DUP2 SLOAD DUP2 DUP10 ADD MSTORE PUSH1 0x1 DUP3 ADD SWAP2 POP PUSH1 0x20 DUP2 ADD SWAP1 POP PUSH2 0x2082 JUMP JUMPDEST DUP1 DUP9 ADD SWAP6 POP POP POP JUMPDEST POP POP POP SWAP3 SWAP2 POP POP JUMP JUMPDEST PUSH0 PUSH1 0xC0 DUP3 ADD SWAP1 POP DUP2 DUP2 SUB PUSH0 DUP4 ADD MSTORE PUSH2 0x20CA DUP2 DUP10 PUSH2 0x1FB0 JUMP JUMPDEST SWAP1 POP PUSH2 0x20D9 PUSH1 0x20 DUP4 ADD DUP9 PUSH2 0x18C9 JUMP JUMPDEST PUSH2 0x20E6 PUSH1 0x40 DUP4 ADD DUP8 PUSH2 0x18C9 JUMP JUMPDEST PUSH2 0x20F3 PUSH1 0x60 DUP4 ADD DUP7 PUSH2 0x18C9 JUMP JUMPDEST DUP2 DUP2 SUB PUSH1 0x80 DUP4 ADD MSTORE PUSH2 0x2105 DUP2 DUP6 PUSH2 0x2031 JUMP JUMPDEST SWAP1 POP DUP2 DUP2 SUB PUSH1 0xA0 DUP4 ADD MSTORE PUSH2 0x2119 DUP2 DUP5 PUSH2 0x2031 JUMP JUMPDEST SWAP1 POP SWAP8 SWAP7 POP POP POP POP POP POP POP JUMP JUMPDEST PUSH32 0x4F6E6C792063616C6C61626C65206279206F776E657200000000000000000000 PUSH0 DUP3 ADD MSTORE POP JUMP JUMPDEST PUSH0 PUSH2 0x215A PUSH1 0x16 DUP4 PUSH2 0x18FB JUMP JUMPDEST SWAP2 POP PUSH2 0x2165 DUP3 PUSH2 0x2126 JUMP JUMPDEST PUSH1 0x20 DUP3 ADD SWAP1 POP SWAP2 SWAP1 POP JUMP JUMPDEST PUSH0 PUSH1 0x20 DUP3 ADD SWAP1 POP DUP2 DUP2 SUB PUSH0 DUP4 ADD MSTORE PUSH2 0x2187 DUP2 PUSH2 0x214E JUMP JUMPDEST SWAP1 POP SWAP2 SWAP1 POP JUMP JUMPDEST PUSH32 0x4E487B7100000000000000000000000000000000000000000000000000000000 PUSH0 MSTORE PUSH1 0x21 PUSH1 0x4 MSTORE PUSH1 0x24 PUSH0 REVERT JUMPDEST PUSH32 0x4E487B7100000000000000000000000000000000000000000000000000000000 PUSH0 MSTORE PUSH1 0x32 PUSH1 0x4 MSTORE PUSH1 0x24 PUSH0 REVERT JUMPDEST PUSH32 0x4E487B7100000000000000000000000000000000000000000000000000000000 PUSH0 MSTORE PUSH1 0x11 PUSH1 0x4 MSTORE PUSH1 0x24 PUSH0 REVERT JUMPDEST PUSH0 PUSH2 0x221F DUP3 PUSH2 0x18C0 JUMP JUMPDEST SWAP2 POP PUSH32 0xFFFFFFFFFFFFFFFFFFFFFFFFFFFFFFFFFFFFFFFFFFFFFFFFFFFFFFFFFFFFFFFF DUP3 SUB PUSH2 0x2251 JUMPI PUSH2 0x2250 PUSH2 0x21E8 JUMP JUMPDEST JUMPDEST PUSH1 0x1 DUP3 ADD SWAP1 POP SWAP2 SWAP1 POP JUMP JUMPDEST PUSH2 0x2265 DUP2 PUSH2 0x1796 JUMP JUMPDEST DUP3 MSTORE POP POP JUMP JUMPDEST PUSH0 PUSH2 0xFFFF DUP3 AND SWAP1 POP SWAP2 SWAP1 POP JUMP JUMPDEST PUSH2 0x2281 DUP2 PUSH2 0x226B JUMP JUMPDEST DUP3 MSTORE POP POP JUMP JUMPDEST PUSH0 PUSH4 0xFFFFFFFF DUP3 AND SWAP1 POP SWAP2 SWAP1 POP JUMP JUMPDEST PUSH2 0x229F DUP2 PUSH2 0x2287 JUMP JUMPDEST DUP3 MSTORE POP POP JUMP JUMPDEST PUSH0 PUSH1 0xA0 DUP3 ADD SWAP1 POP PUSH2 0x22B8 PUSH0 DUP4 ADD DUP9 PUSH2 0x225C JUMP JUMPDEST DUP2 DUP2 SUB PUSH1 0x20 DUP4 ADD MSTORE PUSH2 0x22CA DUP2 DUP8 PUSH2 0x1868 JUMP JUMPDEST SWAP1 POP PUSH2 0x22D9 PUSH1 0x40 DUP4 ADD DUP7 PUSH2 0x2278 JUMP JUMPDEST PUSH2 0x22E6 PUSH1 0x60 DUP4 ADD DUP6 PUSH2 0x2296 JUMP JUMPDEST PUSH2 0x22F3 PUSH1 0x80 DUP4 ADD DUP5 PUSH2 0x17FE JUMP JUMPDEST SWAP7 SWAP6 POP POP POP POP POP POP JUMP JUMPDEST PUSH0 DUP2 MLOAD SWAP1 POP PUSH2 0x230B DUP2 PUSH2 0x15A8 JUMP JUMPDEST SWAP3 SWAP2 POP POP JUMP JUMPDEST PUSH0 PUSH1 0x20 DUP3 DUP5 SUB SLT ISZERO PUSH2 0x2326 JUMPI PUSH2 0x2325 PUSH2 0x1597 JUMP JUMPDEST JUMPDEST PUSH0 PUSH2 0x2333 DUP5 DUP3 DUP6 ADD PUSH2 0x22FD JUMP JUMPDEST SWAP2 POP POP SWAP3 SWAP2 POP POP JUMP JUMPDEST PUSH32 0x43616E6E6F74207472616E7366657220746F2073656C66000000000000000000 PUSH0 DUP3 ADD MSTORE POP JUMP JUMPDEST PUSH0 PUSH2 0x2370 PUSH1 0x17 DUP4 PUSH2 0x18FB JUMP JUMPDEST SWAP2 POP PUSH2 0x237B DUP3 PUSH2 0x233C JUMP JUMPDEST PUSH1 0x20 DUP3 ADD SWAP1 POP SWAP2 SWAP1 POP JUMP JUMPDEST PUSH0 PUSH1 0x20 DUP3 ADD SWAP1 POP DUP2 DUP2 SUB PUSH0 DUP4 ADD MSTORE PUSH2 0x239D DUP2 PUSH2 0x2364 JUMP JUMPDEST SWAP1 POP SWAP2 SWAP1 POP JUMP JUMPDEST PUSH0 PUSH2 0x23AE DUP3 PUSH2 0x18C0 JUMP JUMPDEST SWAP2 POP PUSH2 0x23B9 DUP4 PUSH2 0x18C0 JUMP JUMPDEST SWAP3 POP DUP3 DUP3 ADD SWAP1 POP DUP1 DUP3 GT ISZERO PUSH2 0x23D1 JUMPI PUSH2 0x23D0 PUSH2 0x21E8 JUMP JUMPDEST JUMPDEST SWAP3 SWAP2 POP POP JUMP JUMPDEST PUSH0 PUSH2 0x23E1 DUP3 PUSH2 0x18C0 JUMP JUMPDEST SWAP2 POP PUSH2 0x23EC DUP4 PUSH2 0x18C0 JUMP JUMPDEST SWAP3 POP DUP3 DUP3 SUB SWAP1 POP DUP2 DUP2 GT ISZERO PUSH2 0x2404 JUMPI PUSH2 0x2403 PUSH2 0x21E8 JUMP JUMPDEST JUMPDEST SWAP3 SWAP2 POP POP JUMP JUMPDEST PUSH32 0x4E487B7100000000000000000000000000000000000000000000000000000000 PUSH0 MSTORE PUSH1 0x12 PUSH1 0x4 MSTORE PUSH1 0x24 PUSH0 REVERT JUMPDEST PUSH0 PUSH2 0x2441 DUP3 PUSH2 0x18C0 JUMP JUMPDEST SWAP2 POP PUSH2 0x244C DUP4 PUSH2 0x18C0 JUMP JUMPDEST SWAP3 POP DUP3 PUSH2 0x245C JUMPI PUSH2 0x245B PUSH2 0x240A JUMP JUMPDEST JUMPDEST DUP3 DUP3 MOD SWAP1 POP SWAP3 SWAP2 POP POP JUMP JUMPDEST PUSH0 PUSH2 0x2471 DUP3 PUSH2 0x18C0 JUMP JUMPDEST SWAP2 POP PUSH2 0x247C DUP4 PUSH2 0x18C0 JUMP JUMPDEST SWAP3 POP DUP3 DUP3 MUL PUSH2 0x248A DUP2 PUSH2 0x18C0 JUMP JUMPDEST SWAP2 POP DUP3 DUP3 DIV DUP5 EQ DUP4 ISZERO OR PUSH2 0x24A1 JUMPI PUSH2 0x24A0 PUSH2 0x21E8 JUMP JUMPDEST JUMPDEST POP SWAP3 SWAP2 POP POP JUMP JUMPDEST PUSH0 DUP2 PUSH1 0x1 SHR SWAP1 POP SWAP2 SWAP1 POP JUMP JUMPDEST PUSH0 DUP1 DUP3 SWAP2 POP DUP4 SWAP1 POP JUMPDEST PUSH1 0x1 DUP6 GT ISZERO PUSH2 0x24FD JUMPI DUP1 DUP7 DIV DUP2 GT ISZERO PUSH2 0x24D9 JUMPI PUSH2 0x24D8 PUSH2 0x21E8 JUMP JUMPDEST JUMPDEST PUSH1 0x1 DUP6 AND ISZERO PUSH2 0x24E8 JUMPI DUP1 DUP3 MUL SWAP2 POP JUMPDEST DUP1 DUP2 MUL SWAP1 POP PUSH2 0x24F6 DUP6 PUSH2 0x24A8 JUMP JUMPDEST SWAP5 POP PUSH2 0x24BD JUMP JUMPDEST SWAP5 POP SWAP5 SWAP3 POP POP POP JUMP JUMPDEST PUSH0 DUP3 PUSH2 0x2515 JUMPI PUSH1 0x1 SWAP1 POP PUSH2 0x25D0 JUMP JUMPDEST DUP2 PUSH2 0x2522 JUMPI PUSH0 SWAP1 POP PUSH2 0x25D0 JUMP JUMPDEST DUP2 PUSH1 0x1 DUP2 EQ PUSH2 0x2538 JUMPI PUSH1 0x2 DUP2 EQ PUSH2 0x2542 JUMPI PUSH2 0x2571 JUMP JUMPDEST PUSH1 0x1 SWAP2 POP POP PUSH2 0x25D0 JUMP JUMPDEST PUSH1 0xFF DUP5 GT ISZERO PUSH2 0x2554 JUMPI PUSH2 0x2553 PUSH2 0x21E8 JUMP JUMPDEST JUMPDEST DUP4 PUSH1 0x2 EXP SWAP2 POP DUP5 DUP3 GT ISZERO PUSH2 0x256B JUMPI PUSH2 0x256A PUSH2 0x21E8 JUMP JUMPDEST JUMPDEST POP PUSH2 0x25D0 JUMP JUMPDEST POP PUSH1 0x20 DUP4 LT PUSH2 0x133 DUP4 LT AND PUSH1 0x4E DUP5 LT PUSH1 0xB DUP5 LT AND OR ISZERO PUSH2 0x25A6 JUMPI DUP3 DUP3 EXP SWAP1 POP DUP4 DUP2 GT ISZERO PUSH2 0x25A1 JUMPI PUSH2 0x25A0 PUSH2 0x21E8 JUMP JUMPDEST JUMPDEST PUSH2 0x25D0 JUMP JUMPDEST PUSH2 0x25B3 DUP5 DUP5 DUP5 PUSH1 0x1 PUSH2 0x24B4 JUMP JUMPDEST SWAP3 POP SWAP1 POP DUP2 DUP5 DIV DUP2 GT ISZERO PUSH2 0x25CA JUMPI PUSH2 0x25C9 PUSH2 0x21E8 JUMP JUMPDEST JUMPDEST DUP2 DUP2 MUL SWAP1 POP JUMPDEST SWAP4 SWAP3 POP POP POP JUMP JUMPDEST PUSH0 PUSH2 0x25E1 DUP3 PUSH2 0x18C0 JUMP JUMPDEST SWAP2 POP PUSH2 0x25EC DUP4 PUSH2 0x18C0 JUMP JUMPDEST SWAP3 POP PUSH2 0x2619 PUSH32 0xFFFFFFFFFFFFFFFFFFFFFFFFFFFFFFFFFFFFFFFFFFFFFFFFFFFFFFFFFFFFFFFF DUP5 DUP5 PUSH2 0x2506 JUMP JUMPDEST SWAP1 POP SWAP3 SWAP2 POP POP JUMP INVALID LOG2 PUSH5 0x6970667358 0x22 SLT KECCAK256 ADDMOD 0xEF ORIGIN 0x5D 0xBF 0x4C DUP3 PUSH15 0xD71A6F4B0C44087271726528EC90F2 PUSH28 0x5B4595E24684F70764736F6C63430008140033636F6E7374207B2065 PUSH21 0x68657273207D203D20617761697420696D706F7274 0x28 0x27 PUSH15 0x706D3A65746865727340362E31302E ADDRESS 0x27 0x29 EXTCODESIZE PUSH4 0x6F6E7374 KECCAK256 PUSH2 0x6269 NUMBER PUSH16 0x646572203D206574686572732E416269 NUMBER PUSH16 0x6465722E64656661756C74416269436F PUSH5 0x657228293B PUSH4 0x6F6E7374 KECCAK256 PUSH2 0x7069 MSTORE PUSH6 0x73706F6E7365 KECCAK256 RETURNDATASIZE KECCAK256 PUSH2 0x7761 PUSH10 0x742046756E6374696F6E PUSH20 0x2E6D616B654874747052657175657374287B2020 KECCAK256 KECCAK256 PUSH22 0x726C3A202768747470733A2F2F67656E69656261636B PUSH3 0x6F6E65 0x2E PUSH2 0x7A75 PUSH19 0x6577656273697465732E6E65742F6170692F70 PUSH19 0x6F706572746965732F64656D6F277D293B636F PUSH15 0x7374207B2064617461207D203D2061 PUSH17 0x69526573706F6E73652E646174613B636F PUSH15 0x7374206C6F636174696F6E203D2064 PUSH2 0x7461 0x2E PUSH13 0x6F636174696F6E3B636F6E7374 KECCAK256 PUSH13 0x6F7453697A65203D204E756D62 PUSH6 0x722864617461 0x2E PUSH13 0x6F7453697A65293B636F6E7374 KECCAK256 PUSH21 0x6F74616C5072696365203D204E756D626572286461 PUSH21 0x612E746F74616C5072696365293B636F6E73742074 PUSH2 0x7841 PUSH20 0x73657373656456616C7565203D204E756D626572 0x28 PUSH5 0x6174612E74 PUSH2 0x7841 PUSH20 0x73657373656456616C7565293B636F6E73742065 PUSH15 0x636F646564203D20616269436F6465 PUSH19 0x2E656E636F6465285B60737472696E67602C20 PUSH1 0x75 PUSH10 0x6E74323536602C206075 PUSH10 0x6E74323536602C206075 PUSH10 0x6E74323536605D2C205B PUSH13 0x6F636174696F6E2C206C6F7453 PUSH10 0x7A652C20746F74616C50 PUSH19 0x6963652C20746178417373657373656456616C PUSH22 0x655D293B72657475726E206574686572732E67657442 PUSH26 0x74657328656E636F646564293B00000000000000000000000000 "
				},
				"gasEstimates": {
					"creation": {
						"codeDepositCost": "1963000",
						"executionCost": "infinite",
						"totalCost": "infinite"
					},
					"external": {
						"acceptOwnership()": "54533",
						"handleOracleFulfillment(bytes32,bytes,bytes)": "infinite",
						"location()": "infinite",
						"lotSize()": "2492",
						"owner()": "2537",
						"s_lastError()": "infinite",
						"s_lastRequestId()": "2491",
						"s_lastResponse()": "infinite",
						"sendRequest(uint64)": "infinite",
						"taxAssessedValue()": "2513",
						"totalPrice()": "2469",
						"transferOwnership(address)": "30755"
					},
					"internal": {
						"fulfillRequest(bytes32,bytes memory,bytes memory)": "infinite"
					}
				},
				"methodIdentifiers": {
					"acceptOwnership()": "79ba5097",
					"handleOracleFulfillment(bytes32,bytes,bytes)": "0ca76175",
					"location()": "516f279e",
					"lotSize()": "4942f65f",
					"owner()": "8da5cb5b",
					"s_lastError()": "4b0795a8",
					"s_lastRequestId()": "b1e21749",
					"s_lastResponse()": "3944ea3a",
					"sendRequest(uint64)": "2f9d6254",
					"taxAssessedValue()": "b252c8f2",
					"totalPrice()": "ab0d92dd",
					"transferOwnership(address)": "f2fde38b"
				}
			},
			"storageLayout": {
				"storage": [
					{
						"astId": 816,
						"contract": "RequestRWATdata.sol:RequestRWATdata",
						"label": "s_owner",
						"offset": 0,
						"slot": "0",
						"type": "t_address"
					},
					{
						"astId": 818,
						"contract": "RequestRWATdata.sol:RequestRWATdata",
						"label": "s_pendingOwner",
						"offset": 0,
						"slot": "1",
						"type": "t_address"
					},
					{
						"astId": 2285,
						"contract": "RequestRWATdata.sol:RequestRWATdata",
						"label": "s_lastRequestId",
						"offset": 0,
						"slot": "2",
						"type": "t_bytes32"
					},
					{
						"astId": 2287,
						"contract": "RequestRWATdata.sol:RequestRWATdata",
						"label": "s_lastResponse",
						"offset": 0,
						"slot": "3",
						"type": "t_bytes_storage"
					},
					{
						"astId": 2289,
						"contract": "RequestRWATdata.sol:RequestRWATdata",
						"label": "s_lastError",
						"offset": 0,
						"slot": "4",
						"type": "t_bytes_storage"
					},
					{
						"astId": 2312,
						"contract": "RequestRWATdata.sol:RequestRWATdata",
						"label": "router",
						"offset": 0,
						"slot": "5",
						"type": "t_address"
					},
					{
						"astId": 2315,
						"contract": "RequestRWATdata.sol:RequestRWATdata",
						"label": "source",
						"offset": 0,
						"slot": "6",
						"type": "t_string_storage"
					},
					{
						"astId": 2318,
						"contract": "RequestRWATdata.sol:RequestRWATdata",
						"label": "gasLimit",
						"offset": 0,
						"slot": "7",
						"type": "t_uint32"
					},
					{
						"astId": 2321,
						"contract": "RequestRWATdata.sol:RequestRWATdata",
						"label": "donID",
						"offset": 0,
						"slot": "8",
						"type": "t_bytes32"
					},
					{
						"astId": 2323,
						"contract": "RequestRWATdata.sol:RequestRWATdata",
						"label": "location",
						"offset": 0,
						"slot": "9",
						"type": "t_string_storage"
					},
					{
						"astId": 2325,
						"contract": "RequestRWATdata.sol:RequestRWATdata",
						"label": "lotSize",
						"offset": 0,
						"slot": "10",
						"type": "t_uint256"
					},
					{
						"astId": 2327,
						"contract": "RequestRWATdata.sol:RequestRWATdata",
						"label": "totalPrice",
						"offset": 0,
						"slot": "11",
						"type": "t_uint256"
					},
					{
						"astId": 2329,
						"contract": "RequestRWATdata.sol:RequestRWATdata",
						"label": "taxAssessedValue",
						"offset": 0,
						"slot": "12",
						"type": "t_uint256"
					}
				],
				"types": {
					"t_address": {
						"encoding": "inplace",
						"label": "address",
						"numberOfBytes": "20"
					},
					"t_bytes32": {
						"encoding": "inplace",
						"label": "bytes32",
						"numberOfBytes": "32"
					},
					"t_bytes_storage": {
						"encoding": "bytes",
						"label": "bytes",
						"numberOfBytes": "32"
					},
					"t_string_storage": {
						"encoding": "bytes",
						"label": "string",
						"numberOfBytes": "32"
					},
					"t_uint256": {
						"encoding": "inplace",
						"label": "uint256",
						"numberOfBytes": "32"
					},
					"t_uint32": {
						"encoding": "inplace",
						"label": "uint32",
						"numberOfBytes": "4"
					}
				}
			},
			"userdoc": {
				"kind": "user",
				"methods": {
					"acceptOwnership()": {
						"notice": "Allows an ownership transfer to be completed by the recipient."
					},
					"constructor": {
						"notice": "Initializes the contract with the Chainlink router address and sets the contract owner"
					},
					"handleOracleFulfillment(bytes32,bytes,bytes)": {
						"notice": "Chainlink Functions response handler called by the Functions Router during fullilment from the designated transmitter node in an OCR round."
					},
					"owner()": {
						"notice": "Get the current owner"
					},
					"transferOwnership(address)": {
						"notice": "Allows an owner to begin transferring ownership to a new address."
					}
				},
				"version": 1
			}
		}
	}
}