{
	"PropertyData.sol": {
		"getPropertyDetails": {
			"abi": [
				{
					"inputs": [],
					"stateMutability": "nonpayable",
					"type": "constructor"
				},
				{
					"anonymous": false,
					"inputs": [
						{
							"indexed": true,
							"internalType": "bytes32",
							"name": "id",
							"type": "bytes32"
						}
					],
					"name": "ChainlinkCancelled",
					"type": "event"
				},
				{
					"anonymous": false,
					"inputs": [
						{
							"indexed": true,
							"internalType": "bytes32",
							"name": "id",
							"type": "bytes32"
						}
					],
					"name": "ChainlinkFulfilled",
					"type": "event"
				},
				{
					"anonymous": false,
					"inputs": [
						{
							"indexed": true,
							"internalType": "bytes32",
							"name": "id",
							"type": "bytes32"
						}
					],
					"name": "ChainlinkRequested",
					"type": "event"
				},
				{
					"anonymous": false,
					"inputs": [
						{
							"indexed": true,
							"internalType": "address",
							"name": "from",
							"type": "address"
						},
						{
							"indexed": true,
							"internalType": "address",
							"name": "to",
							"type": "address"
						}
					],
					"name": "OwnershipTransferRequested",
					"type": "event"
				},
				{
					"anonymous": false,
					"inputs": [
						{
							"indexed": true,
							"internalType": "address",
							"name": "from",
							"type": "address"
						},
						{
							"indexed": true,
							"internalType": "address",
							"name": "to",
							"type": "address"
						}
					],
					"name": "OwnershipTransferred",
					"type": "event"
				},
				{
					"anonymous": false,
					"inputs": [
						{
							"indexed": true,
							"internalType": "bytes32",
							"name": "requestId",
							"type": "bytes32"
						},
						{
							"indexed": false,
							"internalType": "uint256",
							"name": "lotSize",
							"type": "uint256"
						},
						{
							"indexed": false,
							"internalType": "uint256",
							"name": "totalPrice",
							"type": "uint256"
						},
						{
							"indexed": false,
							"internalType": "uint256",
							"name": "taxAssessedValue",
							"type": "uint256"
						}
					],
					"name": "RequestMultipleFulfilled",
					"type": "event"
				},
				{
					"inputs": [],
					"name": "acceptOwnership",
					"outputs": [],
					"stateMutability": "nonpayable",
					"type": "function"
				},
				{
					"inputs": [
						{
							"internalType": "bytes32",
							"name": "_requestId",
							"type": "bytes32"
						},
						{
							"internalType": "string",
							"name": "locationResponse",
							"type": "string"
						}
					],
					"name": "fulfill",
					"outputs": [],
					"stateMutability": "nonpayable",
					"type": "function"
				},
				{
					"inputs": [
						{
							"internalType": "bytes32",
							"name": "requestId",
							"type": "bytes32"
						},
						{
							"internalType": "uint256",
							"name": "lotSizeResponse",
							"type": "uint256"
						},
						{
							"internalType": "uint256",
							"name": "totalPriceResponse",
							"type": "uint256"
						},
						{
							"internalType": "uint256",
							"name": "taxAssessedValueResponse",
							"type": "uint256"
						}
					],
					"name": "fulfillMultipleParameters",
					"outputs": [],
					"stateMutability": "nonpayable",
					"type": "function"
				},
				{
					"inputs": [],
					"name": "location",
					"outputs": [
						{
							"internalType": "string",
							"name": "",
							"type": "string"
						}
					],
					"stateMutability": "view",
					"type": "function"
				},
				{
					"inputs": [],
					"name": "lotSize",
					"outputs": [
						{
							"internalType": "uint256",
							"name": "",
							"type": "uint256"
						}
					],
					"stateMutability": "view",
					"type": "function"
				},
				{
					"inputs": [],
					"name": "owner",
					"outputs": [
						{
							"internalType": "address",
							"name": "",
							"type": "address"
						}
					],
					"stateMutability": "view",
					"type": "function"
				},
				{
					"inputs": [],
					"name": "requestMultipleParameters",
					"outputs": [],
					"stateMutability": "nonpayable",
					"type": "function"
				},
				{
					"inputs": [],
					"name": "requestVolumeData",
					"outputs": [
						{
							"internalType": "bytes32",
							"name": "requestId",
							"type": "bytes32"
						}
					],
					"stateMutability": "nonpayable",
					"type": "function"
				},
				{
					"inputs": [],
					"name": "taxAssessedValue",
					"outputs": [
						{
							"internalType": "uint256",
							"name": "",
							"type": "uint256"
						}
					],
					"stateMutability": "view",
					"type": "function"
				},
				{
					"inputs": [],
					"name": "totalPrice",
					"outputs": [
						{
							"internalType": "uint256",
							"name": "",
							"type": "uint256"
						}
					],
					"stateMutability": "view",
					"type": "function"
				},
				{
					"inputs": [
						{
							"internalType": "address",
							"name": "to",
							"type": "address"
						}
					],
					"name": "transferOwnership",
					"outputs": [],
					"stateMutability": "nonpayable",
					"type": "function"
				},
				{
					"inputs": [],
					"name": "withdrawLink",
					"outputs": [],
					"stateMutability": "nonpayable",
					"type": "function"
				}
			],
			"devdoc": {
				"kind": "dev",
				"methods": {},
				"version": 1
			},
			"evm": {
				"assembly": "    /* \"PropertyData.sol\":371:3498  contract getPropertyDetails is ChainlinkClient, ConfirmedOwner {... */\n  mstore(0x40, 0x80)\n    /* \"@chainlink/contracts@1.1.1/src/v0.8/ChainlinkClient.sol\":1482:1483  1 */\n  0x01\n    /* \"@chainlink/contracts@1.1.1/src/v0.8/ChainlinkClient.sol\":1449:1483  uint256 private s_requestCount = 1 */\n  0x04\n  sstore\n    /* \"PropertyData.sol\":856:1243  constructor() ConfirmedOwner(msg.sender) {... */\n  callvalue\n  dup1\n  iszero\n  tag_1\n  jumpi\n  0x00\n  dup1\n  revert\ntag_1:\n  pop\n    /* \"PropertyData.sol\":885:895  msg.sender */\n  caller\n    /* \"@chainlink/contracts@1.1.1/src/v0.8/shared/access/ConfirmedOwner.sol\":355:363  newOwner */\n  dup1\n    /* \"@chainlink/contracts@1.1.1/src/v0.8/shared/access/ConfirmedOwner.sol\":373:374  0 */\n  0x00\n    /* \"@chainlink/contracts@1.1.1/src/v0.8/shared/access/ConfirmedOwnerWithProposal.sol\":618:619  0 */\n  dup1\n    /* \"@chainlink/contracts@1.1.1/src/v0.8/shared/access/ConfirmedOwnerWithProposal.sol\":598:620  newOwner != address(0) */\n  0xffffffffffffffffffffffffffffffffffffffff\n  and\n    /* \"@chainlink/contracts@1.1.1/src/v0.8/shared/access/ConfirmedOwnerWithProposal.sol\":598:606  newOwner */\n  dup3\n    /* \"@chainlink/contracts@1.1.1/src/v0.8/shared/access/ConfirmedOwnerWithProposal.sol\":598:620  newOwner != address(0) */\n  0xffffffffffffffffffffffffffffffffffffffff\n  and\n  sub\n    /* \"@chainlink/contracts@1.1.1/src/v0.8/shared/access/ConfirmedOwnerWithProposal.sol\":590:649  require(newOwner != address(0), \"Cannot set owner to zero\") */\n  tag_6\n  jumpi\n  mload(0x40)\n  0x08c379a000000000000000000000000000000000000000000000000000000000\n  dup2\n  mstore\n  0x04\n  add\n  tag_7\n  swap1\n  tag_8\n  jump\t// in\ntag_7:\n  mload(0x40)\n  dup1\n  swap2\n  sub\n  swap1\n  revert\ntag_6:\n    /* \"@chainlink/contracts@1.1.1/src/v0.8/shared/access/ConfirmedOwnerWithProposal.sol\":666:674  newOwner */\n  dup2\n    /* \"@chainlink/contracts@1.1.1/src/v0.8/shared/access/ConfirmedOwnerWithProposal.sol\":656:663  s_owner */\n  0x06\n  0x00\n    /* \"@chainlink/contracts@1.1.1/src/v0.8/shared/access/ConfirmedOwnerWithProposal.sol\":656:674  s_owner = newOwner */\n  0x0100\n  exp\n  dup2\n  sload\n  dup2\n  0xffffffffffffffffffffffffffffffffffffffff\n  mul\n  not\n  and\n  swap1\n  dup4\n  0xffffffffffffffffffffffffffffffffffffffff\n  and\n  mul\n  or\n  swap1\n  sstore\n  pop\n    /* \"@chainlink/contracts@1.1.1/src/v0.8/shared/access/ConfirmedOwnerWithProposal.sol\":708:709  0 */\n  0x00\n    /* \"@chainlink/contracts@1.1.1/src/v0.8/shared/access/ConfirmedOwnerWithProposal.sol\":684:710  pendingOwner != address(0) */\n  0xffffffffffffffffffffffffffffffffffffffff\n  and\n    /* \"@chainlink/contracts@1.1.1/src/v0.8/shared/access/ConfirmedOwnerWithProposal.sol\":684:696  pendingOwner */\n  dup2\n    /* \"@chainlink/contracts@1.1.1/src/v0.8/shared/access/ConfirmedOwnerWithProposal.sol\":684:710  pendingOwner != address(0) */\n  0xffffffffffffffffffffffffffffffffffffffff\n  and\n  eq\n    /* \"@chainlink/contracts@1.1.1/src/v0.8/shared/access/ConfirmedOwnerWithProposal.sol\":680:759  if (pendingOwner != address(0)) {... */\n  tag_9\n  jumpi\n    /* \"@chainlink/contracts@1.1.1/src/v0.8/shared/access/ConfirmedOwnerWithProposal.sol\":720:752  _transferOwnership(pendingOwner) */\n  tag_10\n    /* \"@chainlink/contracts@1.1.1/src/v0.8/shared/access/ConfirmedOwnerWithProposal.sol\":739:751  pendingOwner */\n  dup2\n    /* \"@chainlink/contracts@1.1.1/src/v0.8/shared/access/ConfirmedOwnerWithProposal.sol\":720:738  _transferOwnership */\n  shl(0x20, tag_11)\n    /* \"@chainlink/contracts@1.1.1/src/v0.8/shared/access/ConfirmedOwnerWithProposal.sol\":720:752  _transferOwnership(pendingOwner) */\n  0x20\n  shr\n  jump\t// in\ntag_10:\n    /* \"@chainlink/contracts@1.1.1/src/v0.8/shared/access/ConfirmedOwnerWithProposal.sol\":680:759  if (pendingOwner != address(0)) {... */\ntag_9:\n    /* \"@chainlink/contracts@1.1.1/src/v0.8/shared/access/ConfirmedOwnerWithProposal.sol\":481:763  constructor(address newOwner, address pendingOwner) {... */\n  pop\n  pop\n    /* \"@chainlink/contracts@1.1.1/src/v0.8/shared/access/ConfirmedOwner.sol\":298:379  constructor(address newOwner) ConfirmedOwnerWithProposal(newOwner, address(0)) {} */\n  pop\n    /* \"PropertyData.sol\":907:969  _setChainlinkToken(0x779877A7B0D9E8603169DdbD7836e478b4624789) */\n  tag_14\n    /* \"PropertyData.sol\":926:968  0x779877A7B0D9E8603169DdbD7836e478b4624789 */\n  0x779877a7b0d9e8603169ddbd7836e478b4624789\n    /* \"PropertyData.sol\":907:925  _setChainlinkToken */\n  shl(0x20, tag_15)\n    /* \"PropertyData.sol\":907:969  _setChainlinkToken(0x779877A7B0D9E8603169DdbD7836e478b4624789) */\n  0x20\n  shr\n  jump\t// in\ntag_14:\n    /* \"PropertyData.sol\":979:1042  _setChainlinkOracle(0x6090149792dAAeE9D1D568c9f9a6F6B46AA29eFD) */\n  tag_16\n    /* \"PropertyData.sol\":999:1041  0x6090149792dAAeE9D1D568c9f9a6F6B46AA29eFD */\n  0x6090149792daaee9d1d568c9f9a6f6b46aa29efd\n    /* \"PropertyData.sol\":979:998  _setChainlinkOracle */\n  shl(0x20, tag_17)\n    /* \"PropertyData.sol\":979:1042  _setChainlinkOracle(0x6090149792dAAeE9D1D568c9f9a6F6B46AA29eFD) */\n  0x20\n  shr\n  jump\t// in\ntag_16:\n    /* \"PropertyData.sol\":1052:1095  jobId1 = \"53f9755920cd451a8fe46f5087468395\" */\n  0x3533663937353539323063643435316138666534366635303837343638333935\n    /* \"PropertyData.sol\":1052:1058  jobId1 */\n  0x08\n    /* \"PropertyData.sol\":1052:1095  jobId1 = \"53f9755920cd451a8fe46f5087468395\" */\n  dup2\n  swap1\n  sstore\n  pop\n    /* \"PropertyData.sol\":1105:1148  jobId2 = \"7d80a6386ef543a3abb52817f6707e3b\" */\n  0x3764383061363338366566353433613361626235323831376636373037653362\n    /* \"PropertyData.sol\":1105:1111  jobId2 */\n  0x09\n    /* \"PropertyData.sol\":1105:1148  jobId2 = \"7d80a6386ef543a3abb52817f6707e3b\" */\n  dup2\n  swap1\n  sstore\n  pop\n    /* \"PropertyData.sol\":1190:1192  10 */\n  0x0a\n    /* \"@chainlink/contracts@1.1.1/src/v0.8/ChainlinkClient.sol\":864:872  10 ** 18 */\n  0x0de0b6b3a7640000\n    /* \"PropertyData.sol\":1165:1166  1 */\n  0x01\n    /* \"PropertyData.sol\":1165:1186  1 * LINK_DIVISIBILITY */\n  tag_18\n  swap2\n  swap1\n  tag_19\n  jump\t// in\ntag_18:\n    /* \"PropertyData.sol\":1164:1192  (1 * LINK_DIVISIBILITY) / 10 */\n  tag_20\n  swap2\n  swap1\n  tag_21\n  jump\t// in\ntag_20:\n    /* \"PropertyData.sol\":1158:1161  fee */\n  0x0a\n    /* \"PropertyData.sol\":1158:1192  fee = (1 * LINK_DIVISIBILITY) / 10 */\n  dup2\n  swap1\n  sstore\n  pop\n    /* \"PropertyData.sol\":371:3498  contract getPropertyDetails is ChainlinkClient, ConfirmedOwner {... */\n  jump(tag_22)\n    /* \"@chainlink/contracts@1.1.1/src/v0.8/shared/access/ConfirmedOwnerWithProposal.sol\":1536:1775  function _transferOwnership(address to) private {... */\ntag_11:\n    /* \"@chainlink/contracts@1.1.1/src/v0.8/shared/access/ConfirmedOwnerWithProposal.sol\":1655:1665  msg.sender */\n  caller\n    /* \"@chainlink/contracts@1.1.1/src/v0.8/shared/access/ConfirmedOwnerWithProposal.sol\":1649:1665  to != msg.sender */\n  0xffffffffffffffffffffffffffffffffffffffff\n  and\n    /* \"@chainlink/contracts@1.1.1/src/v0.8/shared/access/ConfirmedOwnerWithProposal.sol\":1649:1651  to */\n  dup2\n    /* \"@chainlink/contracts@1.1.1/src/v0.8/shared/access/ConfirmedOwnerWithProposal.sol\":1649:1665  to != msg.sender */\n  0xffffffffffffffffffffffffffffffffffffffff\n  and\n  sub\n    /* \"@chainlink/contracts@1.1.1/src/v0.8/shared/access/ConfirmedOwnerWithProposal.sol\":1641:1693  require(to != msg.sender, \"Cannot transfer to self\") */\n  tag_24\n  jumpi\n  mload(0x40)\n  0x08c379a000000000000000000000000000000000000000000000000000000000\n  dup2\n  mstore\n  0x04\n  add\n  tag_25\n  swap1\n  tag_26\n  jump\t// in\ntag_25:\n  mload(0x40)\n  dup1\n  swap2\n  sub\n  swap1\n  revert\ntag_24:\n    /* \"@chainlink/contracts@1.1.1/src/v0.8/shared/access/ConfirmedOwnerWithProposal.sol\":1717:1719  to */\n  dup1\n    /* \"@chainlink/contracts@1.1.1/src/v0.8/shared/access/ConfirmedOwnerWithProposal.sol\":1700:1714  s_pendingOwner */\n  0x07\n  0x00\n    /* \"@chainlink/contracts@1.1.1/src/v0.8/shared/access/ConfirmedOwnerWithProposal.sol\":1700:1719  s_pendingOwner = to */\n  0x0100\n  exp\n  dup2\n  sload\n  dup2\n  0xffffffffffffffffffffffffffffffffffffffff\n  mul\n  not\n  and\n  swap1\n  dup4\n  0xffffffffffffffffffffffffffffffffffffffff\n  and\n  mul\n  or\n  swap1\n  sstore\n  pop\n    /* \"@chainlink/contracts@1.1.1/src/v0.8/shared/access/ConfirmedOwnerWithProposal.sol\":1767:1769  to */\n  dup1\n    /* \"@chainlink/contracts@1.1.1/src/v0.8/shared/access/ConfirmedOwnerWithProposal.sol\":1731:1770  OwnershipTransferRequested(s_owner, to) */\n  0xffffffffffffffffffffffffffffffffffffffff\n  and\n    /* \"@chainlink/contracts@1.1.1/src/v0.8/shared/access/ConfirmedOwnerWithProposal.sol\":1758:1765  s_owner */\n  0x06\n  0x00\n  swap1\n  sload\n  swap1\n  0x0100\n  exp\n  swap1\n  div\n  0xffffffffffffffffffffffffffffffffffffffff\n  and\n    /* \"@chainlink/contracts@1.1.1/src/v0.8/shared/access/ConfirmedOwnerWithProposal.sol\":1731:1770  OwnershipTransferRequested(s_owner, to) */\n  0xffffffffffffffffffffffffffffffffffffffff\n  and\n  0xed8889f560326eb138920d842192f0eb3dd22b4f139c87a2c57538e05bae1278\n  mload(0x40)\n  mload(0x40)\n  dup1\n  swap2\n  sub\n  swap1\n  log3\n    /* \"@chainlink/contracts@1.1.1/src/v0.8/shared/access/ConfirmedOwnerWithProposal.sol\":1536:1775  function _transferOwnership(address to) private {... */\n  pop\n  jump\t// out\n    /* \"@chainlink/contracts@1.1.1/src/v0.8/ChainlinkClient.sol\":8849:8958  function _setChainlinkToken(address linkAddress) internal {... */\ntag_15:\n    /* \"@chainlink/contracts@1.1.1/src/v0.8/ChainlinkClient.sol\":8941:8952  linkAddress */\n  dup1\n    /* \"@chainlink/contracts@1.1.1/src/v0.8/ChainlinkClient.sol\":8913:8919  s_link */\n  0x02\n  0x00\n    /* \"@chainlink/contracts@1.1.1/src/v0.8/ChainlinkClient.sol\":8913:8953  s_link = LinkTokenInterface(linkAddress) */\n  0x0100\n  exp\n  dup2\n  sload\n  dup2\n  0xffffffffffffffffffffffffffffffffffffffff\n  mul\n  not\n  and\n  swap1\n  dup4\n  0xffffffffffffffffffffffffffffffffffffffff\n  and\n  mul\n  or\n  swap1\n  sstore\n  pop\n    /* \"@chainlink/contracts@1.1.1/src/v0.8/ChainlinkClient.sol\":8849:8958  function _setChainlinkToken(address linkAddress) internal {... */\n  pop\n  jump\t// out\n    /* \"@chainlink/contracts@1.1.1/src/v0.8/ChainlinkClient.sol\":8614:8729  function _setChainlinkOracle(address oracleAddress) internal {... */\ntag_17:\n    /* \"@chainlink/contracts@1.1.1/src/v0.8/ChainlinkClient.sol\":8710:8723  oracleAddress */\n  dup1\n    /* \"@chainlink/contracts@1.1.1/src/v0.8/ChainlinkClient.sol\":8681:8689  s_oracle */\n  0x03\n  0x00\n    /* \"@chainlink/contracts@1.1.1/src/v0.8/ChainlinkClient.sol\":8681:8724  s_oracle = OperatorInterface(oracleAddress) */\n  0x0100\n  exp\n  dup2\n  sload\n  dup2\n  0xffffffffffffffffffffffffffffffffffffffff\n  mul\n  not\n  and\n  swap1\n  dup4\n  0xffffffffffffffffffffffffffffffffffffffff\n  and\n  mul\n  or\n  swap1\n  sstore\n  pop\n    /* \"@chainlink/contracts@1.1.1/src/v0.8/ChainlinkClient.sol\":8614:8729  function _setChainlinkOracle(address oracleAddress) internal {... */\n  pop\n  jump\t// out\n    /* \"#utility.yul\":7:176   */\ntag_29:\n    /* \"#utility.yul\":91:102   */\n  0x00\n    /* \"#utility.yul\":125:131   */\n  dup3\n    /* \"#utility.yul\":120:123   */\n  dup3\n    /* \"#utility.yul\":113:132   */\n  mstore\n    /* \"#utility.yul\":165:169   */\n  0x20\n    /* \"#utility.yul\":160:163   */\n  dup3\n    /* \"#utility.yul\":156:170   */\n  add\n    /* \"#utility.yul\":141:170   */\n  swap1\n  pop\n    /* \"#utility.yul\":7:176   */\n  swap3\n  swap2\n  pop\n  pop\n  jump\t// out\n    /* \"#utility.yul\":182:356   */\ntag_30:\n    /* \"#utility.yul\":322:348   */\n  0x43616e6e6f7420736574206f776e657220746f207a65726f0000000000000000\n    /* \"#utility.yul\":318:319   */\n  0x00\n    /* \"#utility.yul\":310:316   */\n  dup3\n    /* \"#utility.yul\":306:320   */\n  add\n    /* \"#utility.yul\":299:349   */\n  mstore\n    /* \"#utility.yul\":182:356   */\n  pop\n  jump\t// out\n    /* \"#utility.yul\":362:728   */\ntag_31:\n    /* \"#utility.yul\":504:507   */\n  0x00\n    /* \"#utility.yul\":525:592   */\n  tag_41\n    /* \"#utility.yul\":589:591   */\n  0x18\n    /* \"#utility.yul\":584:587   */\n  dup4\n    /* \"#utility.yul\":525:592   */\n  tag_29\n  jump\t// in\ntag_41:\n    /* \"#utility.yul\":518:592   */\n  swap2\n  pop\n    /* \"#utility.yul\":601:694   */\n  tag_42\n    /* \"#utility.yul\":690:693   */\n  dup3\n    /* \"#utility.yul\":601:694   */\n  tag_30\n  jump\t// in\ntag_42:\n    /* \"#utility.yul\":719:721   */\n  0x20\n    /* \"#utility.yul\":714:717   */\n  dup3\n    /* \"#utility.yul\":710:722   */\n  add\n    /* \"#utility.yul\":703:722   */\n  swap1\n  pop\n    /* \"#utility.yul\":362:728   */\n  swap2\n  swap1\n  pop\n  jump\t// out\n    /* \"#utility.yul\":734:1153   */\ntag_8:\n    /* \"#utility.yul\":900:904   */\n  0x00\n    /* \"#utility.yul\":938:940   */\n  0x20\n    /* \"#utility.yul\":927:936   */\n  dup3\n    /* \"#utility.yul\":923:941   */\n  add\n    /* \"#utility.yul\":915:941   */\n  swap1\n  pop\n    /* \"#utility.yul\":987:996   */\n  dup2\n    /* \"#utility.yul\":981:985   */\n  dup2\n    /* \"#utility.yul\":977:997   */\n  sub\n    /* \"#utility.yul\":973:974   */\n  0x00\n    /* \"#utility.yul\":962:971   */\n  dup4\n    /* \"#utility.yul\":958:975   */\n  add\n    /* \"#utility.yul\":951:998   */\n  mstore\n    /* \"#utility.yul\":1015:1146   */\n  tag_44\n    /* \"#utility.yul\":1141:1145   */\n  dup2\n    /* \"#utility.yul\":1015:1146   */\n  tag_31\n  jump\t// in\ntag_44:\n    /* \"#utility.yul\":1007:1146   */\n  swap1\n  pop\n    /* \"#utility.yul\":734:1153   */\n  swap2\n  swap1\n  pop\n  jump\t// out\n    /* \"#utility.yul\":1159:1236   */\ntag_32:\n    /* \"#utility.yul\":1196:1203   */\n  0x00\n    /* \"#utility.yul\":1225:1230   */\n  dup2\n    /* \"#utility.yul\":1214:1230   */\n  swap1\n  pop\n    /* \"#utility.yul\":1159:1236   */\n  swap2\n  swap1\n  pop\n  jump\t// out\n    /* \"#utility.yul\":1242:1422   */\ntag_33:\n    /* \"#utility.yul\":1290:1367   */\n  0x4e487b7100000000000000000000000000000000000000000000000000000000\n    /* \"#utility.yul\":1287:1288   */\n  0x00\n    /* \"#utility.yul\":1280:1368   */\n  mstore\n    /* \"#utility.yul\":1387:1391   */\n  0x11\n    /* \"#utility.yul\":1384:1385   */\n  0x04\n    /* \"#utility.yul\":1377:1392   */\n  mstore\n    /* \"#utility.yul\":1411:1415   */\n  0x24\n    /* \"#utility.yul\":1408:1409   */\n  0x00\n    /* \"#utility.yul\":1401:1416   */\n  revert\n    /* \"#utility.yul\":1428:1838   */\ntag_19:\n    /* \"#utility.yul\":1468:1475   */\n  0x00\n    /* \"#utility.yul\":1491:1511   */\n  tag_48\n    /* \"#utility.yul\":1509:1510   */\n  dup3\n    /* \"#utility.yul\":1491:1511   */\n  tag_32\n  jump\t// in\ntag_48:\n    /* \"#utility.yul\":1486:1511   */\n  swap2\n  pop\n    /* \"#utility.yul\":1525:1545   */\n  tag_49\n    /* \"#utility.yul\":1543:1544   */\n  dup4\n    /* \"#utility.yul\":1525:1545   */\n  tag_32\n  jump\t// in\ntag_49:\n    /* \"#utility.yul\":1520:1545   */\n  swap3\n  pop\n    /* \"#utility.yul\":1580:1581   */\n  dup3\n    /* \"#utility.yul\":1577:1578   */\n  dup3\n    /* \"#utility.yul\":1573:1582   */\n  mul\n    /* \"#utility.yul\":1602:1632   */\n  tag_50\n    /* \"#utility.yul\":1620:1631   */\n  dup2\n    /* \"#utility.yul\":1602:1632   */\n  tag_32\n  jump\t// in\ntag_50:\n    /* \"#utility.yul\":1591:1632   */\n  swap2\n  pop\n    /* \"#utility.yul\":1781:1782   */\n  dup3\n    /* \"#utility.yul\":1772:1779   */\n  dup3\n    /* \"#utility.yul\":1768:1783   */\n  div\n    /* \"#utility.yul\":1765:1766   */\n  dup5\n    /* \"#utility.yul\":1762:1784   */\n  eq\n    /* \"#utility.yul\":1742:1743   */\n  dup4\n    /* \"#utility.yul\":1735:1744   */\n  iszero\n    /* \"#utility.yul\":1715:1798   */\n  or\n    /* \"#utility.yul\":1692:1831   */\n  tag_51\n  jumpi\n    /* \"#utility.yul\":1811:1829   */\n  tag_52\n  tag_33\n  jump\t// in\ntag_52:\n    /* \"#utility.yul\":1692:1831   */\ntag_51:\n    /* \"#utility.yul\":1476:1838   */\n  pop\n    /* \"#utility.yul\":1428:1838   */\n  swap3\n  swap2\n  pop\n  pop\n  jump\t// out\n    /* \"#utility.yul\":1844:2024   */\ntag_34:\n    /* \"#utility.yul\":1892:1969   */\n  0x4e487b7100000000000000000000000000000000000000000000000000000000\n    /* \"#utility.yul\":1889:1890   */\n  0x00\n    /* \"#utility.yul\":1882:1970   */\n  mstore\n    /* \"#utility.yul\":1989:1993   */\n  0x12\n    /* \"#utility.yul\":1986:1987   */\n  0x04\n    /* \"#utility.yul\":1979:1994   */\n  mstore\n    /* \"#utility.yul\":2013:2017   */\n  0x24\n    /* \"#utility.yul\":2010:2011   */\n  0x00\n    /* \"#utility.yul\":2003:2018   */\n  revert\n    /* \"#utility.yul\":2030:2215   */\ntag_21:\n    /* \"#utility.yul\":2070:2071   */\n  0x00\n    /* \"#utility.yul\":2087:2107   */\n  tag_55\n    /* \"#utility.yul\":2105:2106   */\n  dup3\n    /* \"#utility.yul\":2087:2107   */\n  tag_32\n  jump\t// in\ntag_55:\n    /* \"#utility.yul\":2082:2107   */\n  swap2\n  pop\n    /* \"#utility.yul\":2121:2141   */\n  tag_56\n    /* \"#utility.yul\":2139:2140   */\n  dup4\n    /* \"#utility.yul\":2121:2141   */\n  tag_32\n  jump\t// in\ntag_56:\n    /* \"#utility.yul\":2116:2141   */\n  swap3\n  pop\n    /* \"#utility.yul\":2160:2161   */\n  dup3\n    /* \"#utility.yul\":2150:2185   */\n  tag_57\n  jumpi\n    /* \"#utility.yul\":2165:2183   */\n  tag_58\n  tag_34\n  jump\t// in\ntag_58:\n    /* \"#utility.yul\":2150:2185   */\ntag_57:\n    /* \"#utility.yul\":2207:2208   */\n  dup3\n    /* \"#utility.yul\":2204:2205   */\n  dup3\n    /* \"#utility.yul\":2200:2209   */\n  div\n    /* \"#utility.yul\":2195:2209   */\n  swap1\n  pop\n    /* \"#utility.yul\":2030:2215   */\n  swap3\n  swap2\n  pop\n  pop\n  jump\t// out\n    /* \"#utility.yul\":2221:2394   */\ntag_35:\n    /* \"#utility.yul\":2361:2386   */\n  0x43616e6e6f74207472616e7366657220746f2073656c66000000000000000000\n    /* \"#utility.yul\":2357:2358   */\n  0x00\n    /* \"#utility.yul\":2349:2355   */\n  dup3\n    /* \"#utility.yul\":2345:2359   */\n  add\n    /* \"#utility.yul\":2338:2387   */\n  mstore\n    /* \"#utility.yul\":2221:2394   */\n  pop\n  jump\t// out\n    /* \"#utility.yul\":2400:2766   */\ntag_36:\n    /* \"#utility.yul\":2542:2545   */\n  0x00\n    /* \"#utility.yul\":2563:2630   */\n  tag_61\n    /* \"#utility.yul\":2627:2629   */\n  0x17\n    /* \"#utility.yul\":2622:2625   */\n  dup4\n    /* \"#utility.yul\":2563:2630   */\n  tag_29\n  jump\t// in\ntag_61:\n    /* \"#utility.yul\":2556:2630   */\n  swap2\n  pop\n    /* \"#utility.yul\":2639:2732   */\n  tag_62\n    /* \"#utility.yul\":2728:2731   */\n  dup3\n    /* \"#utility.yul\":2639:2732   */\n  tag_35\n  jump\t// in\ntag_62:\n    /* \"#utility.yul\":2757:2759   */\n  0x20\n    /* \"#utility.yul\":2752:2755   */\n  dup3\n    /* \"#utility.yul\":2748:2760   */\n  add\n    /* \"#utility.yul\":2741:2760   */\n  swap1\n  pop\n    /* \"#utility.yul\":2400:2766   */\n  swap2\n  swap1\n  pop\n  jump\t// out\n    /* \"#utility.yul\":2772:3191   */\ntag_26:\n    /* \"#utility.yul\":2938:2942   */\n  0x00\n    /* \"#utility.yul\":2976:2978   */\n  0x20\n    /* \"#utility.yul\":2965:2974   */\n  dup3\n    /* \"#utility.yul\":2961:2979   */\n  add\n    /* \"#utility.yul\":2953:2979   */\n  swap1\n  pop\n    /* \"#utility.yul\":3025:3034   */\n  dup2\n    /* \"#utility.yul\":3019:3023   */\n  dup2\n    /* \"#utility.yul\":3015:3035   */\n  sub\n    /* \"#utility.yul\":3011:3012   */\n  0x00\n    /* \"#utility.yul\":3000:3009   */\n  dup4\n    /* \"#utility.yul\":2996:3013   */\n  add\n    /* \"#utility.yul\":2989:3036   */\n  mstore\n    /* \"#utility.yul\":3053:3184   */\n  tag_64\n    /* \"#utility.yul\":3179:3183   */\n  dup2\n    /* \"#utility.yul\":3053:3184   */\n  tag_36\n  jump\t// in\ntag_64:\n    /* \"#utility.yul\":3045:3184   */\n  swap1\n  pop\n    /* \"#utility.yul\":2772:3191   */\n  swap2\n  swap1\n  pop\n  jump\t// out\n    /* \"PropertyData.sol\":371:3498  contract getPropertyDetails is ChainlinkClient, ConfirmedOwner {... */\ntag_22:\n  dataSize(sub_0)\n  dup1\n  dataOffset(sub_0)\n  0x00\n  codecopy\n  0x00\n  return\nstop\n\nsub_0: assembly {\n        /* \"PropertyData.sol\":371:3498  contract getPropertyDetails is ChainlinkClient, ConfirmedOwner {... */\n      mstore(0x40, 0x80)\n      callvalue\n      dup1\n      iszero\n      tag_1\n      jumpi\n      0x00\n      dup1\n      revert\n    tag_1:\n      pop\n      jumpi(tag_2, lt(calldatasize, 0x04))\n      shr(0xe0, calldataload(0x00))\n      dup1\n      0x8da5cb5b\n      gt\n      tag_15\n      jumpi\n      dup1\n      0x8da5cb5b\n      eq\n      tag_9\n      jumpi\n      dup1\n      0x8dc654a2\n      eq\n      tag_10\n      jumpi\n      dup1\n      0xab0d92dd\n      eq\n      tag_11\n      jumpi\n      dup1\n      0xb252c8f2\n      eq\n      tag_12\n      jumpi\n      dup1\n      0xf2fde38b\n      eq\n      tag_13\n      jumpi\n      dup1\n      0xfda4417b\n      eq\n      tag_14\n      jumpi\n      jump(tag_2)\n    tag_15:\n      dup1\n      0x37441996\n      eq\n      tag_3\n      jumpi\n      dup1\n      0x4942f65f\n      eq\n      tag_4\n      jumpi\n      dup1\n      0x4a3afb47\n      eq\n      tag_5\n      jumpi\n      dup1\n      0x516f279e\n      eq\n      tag_6\n      jumpi\n      dup1\n      0x6021abac\n      eq\n      tag_7\n      jumpi\n      dup1\n      0x79ba5097\n      eq\n      tag_8\n      jumpi\n    tag_2:\n      0x00\n      dup1\n      revert\n        /* \"PropertyData.sol\":3049:3230  function fulfill(... */\n    tag_3:\n      tag_16\n      0x04\n      dup1\n      calldatasize\n      sub\n      dup2\n      add\n      swap1\n      tag_17\n      swap2\n      swap1\n      tag_18\n      jump\t// in\n    tag_17:\n      tag_19\n      jump\t// in\n    tag_16:\n      stop\n        /* \"PropertyData.sol\":566:588  uint256 public lotSize */\n    tag_4:\n      tag_20\n      tag_21\n      jump\t// in\n    tag_20:\n      mload(0x40)\n      tag_22\n      swap2\n      swap1\n      tag_23\n      jump\t// in\n    tag_22:\n      mload(0x40)\n      dup1\n      swap2\n      sub\n      swap1\n      return\n        /* \"PropertyData.sol\":1249:2036  function requestMultipleParameters() public {... */\n    tag_5:\n      tag_24\n      tag_25\n      jump\t// in\n    tag_24:\n      stop\n        /* \"PropertyData.sol\":662:684  string public location */\n    tag_6:\n      tag_26\n      tag_27\n      jump\t// in\n    tag_26:\n      mload(0x40)\n      tag_28\n      swap2\n      swap1\n      tag_29\n      jump\t// in\n    tag_28:\n      mload(0x40)\n      dup1\n      swap2\n      sub\n      swap1\n      return\n        /* \"PropertyData.sol\":2603:3044  function requestVolumeData() public returns (bytes32 requestId) {... */\n    tag_7:\n      tag_30\n      tag_31\n      jump\t// in\n    tag_30:\n      mload(0x40)\n      tag_32\n      swap2\n      swap1\n      tag_33\n      jump\t// in\n    tag_32:\n      mload(0x40)\n      dup1\n      swap2\n      sub\n      swap1\n      return\n        /* \"@chainlink/contracts@1.1.1/src/v0.8/shared/access/ConfirmedOwnerWithProposal.sol\":1026:1342  function acceptOwnership() external override {... */\n    tag_8:\n      tag_34\n      tag_35\n      jump\t// in\n    tag_34:\n      stop\n        /* \"@chainlink/contracts@1.1.1/src/v0.8/shared/access/ConfirmedOwnerWithProposal.sol\":1382:1463  function owner() public view override returns (address) {... */\n    tag_9:\n      tag_36\n      tag_37\n      jump\t// in\n    tag_36:\n      mload(0x40)\n      tag_38\n      swap2\n      swap1\n      tag_39\n      jump\t// in\n    tag_38:\n      mload(0x40)\n      dup1\n      swap2\n      sub\n      swap1\n      return\n        /* \"PropertyData.sol\":3237:3496  function withdrawLink() public onlyOwner {... */\n    tag_10:\n      tag_40\n      tag_41\n      jump\t// in\n    tag_40:\n      stop\n        /* \"PropertyData.sol\":594:619  uint256 public totalPrice */\n    tag_11:\n      tag_42\n      tag_43\n      jump\t// in\n    tag_42:\n      mload(0x40)\n      tag_44\n      swap2\n      swap1\n      tag_23\n      jump\t// in\n    tag_44:\n      mload(0x40)\n      dup1\n      swap2\n      sub\n      swap1\n      return\n        /* \"PropertyData.sol\":625:656  uint256 public taxAssessedValue */\n    tag_12:\n      tag_45\n      tag_46\n      jump\t// in\n    tag_45:\n      mload(0x40)\n      tag_47\n      swap2\n      swap1\n      tag_23\n      jump\t// in\n    tag_47:\n      mload(0x40)\n      dup1\n      swap2\n      sub\n      swap1\n      return\n        /* \"@chainlink/contracts@1.1.1/src/v0.8/shared/access/ConfirmedOwnerWithProposal.sol\":847:945  function transferOwnership(address to) public override onlyOwner {... */\n    tag_13:\n      tag_48\n      0x04\n      dup1\n      calldatasize\n      sub\n      dup2\n      add\n      swap1\n      tag_49\n      swap2\n      swap1\n      tag_50\n      jump\t// in\n    tag_49:\n      tag_51\n      jump\t// in\n    tag_48:\n      stop\n        /* \"PropertyData.sol\":2042:2597  function fulfillMultipleParameters(... */\n    tag_14:\n      tag_52\n      0x04\n      dup1\n      calldatasize\n      sub\n      dup2\n      add\n      swap1\n      tag_53\n      swap2\n      swap1\n      tag_54\n      jump\t// in\n    tag_53:\n      tag_55\n      jump\t// in\n    tag_52:\n      stop\n        /* \"PropertyData.sol\":3049:3230  function fulfill(... */\n    tag_19:\n        /* \"PropertyData.sol\":3174:3184  _requestId */\n      dup2\n        /* \"@chainlink/contracts@1.1.1/src/v0.8/ChainlinkClient.sol\":11913:11930  s_pendingRequests */\n      0x05\n        /* \"@chainlink/contracts@1.1.1/src/v0.8/ChainlinkClient.sol\":11913:11941  s_pendingRequests[requestId] */\n      0x00\n        /* \"@chainlink/contracts@1.1.1/src/v0.8/ChainlinkClient.sol\":11931:11940  requestId */\n      dup3\n        /* \"@chainlink/contracts@1.1.1/src/v0.8/ChainlinkClient.sol\":11913:11941  s_pendingRequests[requestId] */\n      dup2\n      mstore\n      0x20\n      add\n      swap1\n      dup2\n      mstore\n      0x20\n      add\n      0x00\n      keccak256\n      0x00\n      swap1\n      sload\n      swap1\n      0x0100\n      exp\n      swap1\n      div\n      0xffffffffffffffffffffffffffffffffffffffff\n      and\n        /* \"@chainlink/contracts@1.1.1/src/v0.8/ChainlinkClient.sol\":11899:11941  msg.sender == s_pendingRequests[requestId] */\n      0xffffffffffffffffffffffffffffffffffffffff\n      and\n        /* \"@chainlink/contracts@1.1.1/src/v0.8/ChainlinkClient.sol\":11899:11909  msg.sender */\n      caller\n        /* \"@chainlink/contracts@1.1.1/src/v0.8/ChainlinkClient.sol\":11899:11941  msg.sender == s_pendingRequests[requestId] */\n      0xffffffffffffffffffffffffffffffffffffffff\n      and\n      eq\n        /* \"@chainlink/contracts@1.1.1/src/v0.8/ChainlinkClient.sol\":11891:11986  require(msg.sender == s_pendingRequests[requestId], \"Source must be the oracle of the request\") */\n      tag_57\n      jumpi\n      mload(0x40)\n      0x08c379a000000000000000000000000000000000000000000000000000000000\n      dup2\n      mstore\n      0x04\n      add\n      tag_58\n      swap1\n      tag_59\n      jump\t// in\n    tag_58:\n      mload(0x40)\n      dup1\n      swap2\n      sub\n      swap1\n      revert\n    tag_57:\n        /* \"@chainlink/contracts@1.1.1/src/v0.8/ChainlinkClient.sol\":11999:12016  s_pendingRequests */\n      0x05\n        /* \"@chainlink/contracts@1.1.1/src/v0.8/ChainlinkClient.sol\":11999:12027  s_pendingRequests[requestId] */\n      0x00\n        /* \"@chainlink/contracts@1.1.1/src/v0.8/ChainlinkClient.sol\":12017:12026  requestId */\n      dup3\n        /* \"@chainlink/contracts@1.1.1/src/v0.8/ChainlinkClient.sol\":11999:12027  s_pendingRequests[requestId] */\n      dup2\n      mstore\n      0x20\n      add\n      swap1\n      dup2\n      mstore\n      0x20\n      add\n      0x00\n      keccak256\n      0x00\n        /* \"@chainlink/contracts@1.1.1/src/v0.8/ChainlinkClient.sol\":11992:12027  delete s_pendingRequests[requestId] */\n      0x0100\n      exp\n      dup2\n      sload\n      swap1\n      0xffffffffffffffffffffffffffffffffffffffff\n      mul\n      not\n      and\n      swap1\n      sstore\n        /* \"@chainlink/contracts@1.1.1/src/v0.8/ChainlinkClient.sol\":12057:12066  requestId */\n      dup1\n        /* \"@chainlink/contracts@1.1.1/src/v0.8/ChainlinkClient.sol\":12038:12067  ChainlinkFulfilled(requestId) */\n      0x7cc135e0cebb02c3480ae5d74d377283180a2601f8f644edf7987b009316c63a\n      mload(0x40)\n      mload(0x40)\n      dup1\n      swap2\n      sub\n      swap1\n      log2\n        /* \"PropertyData.sol\":3207:3223  locationResponse */\n      dup2\n        /* \"PropertyData.sol\":3196:3204  location */\n      0x0e\n        /* \"PropertyData.sol\":3196:3223  location = locationResponse */\n      swap1\n      dup2\n      tag_61\n      swap2\n      swap1\n      tag_62\n      jump\t// in\n    tag_61:\n      pop\n        /* \"PropertyData.sol\":3049:3230  function fulfill(... */\n      pop\n      pop\n      pop\n      jump\t// out\n        /* \"PropertyData.sol\":566:588  uint256 public lotSize */\n    tag_21:\n      sload(0x0b)\n      dup2\n      jump\t// out\n        /* \"PropertyData.sol\":1249:2036  function requestMultipleParameters() public {... */\n    tag_25:\n        /* \"PropertyData.sol\":1303:1331  Chainlink.Request memory req */\n      0x00\n        /* \"PropertyData.sol\":1334:1466  _buildChainlinkRequest(... */\n      tag_64\n        /* \"PropertyData.sol\":1370:1376  jobId1 */\n      sload(0x08)\n        /* \"PropertyData.sol\":1398:1402  this */\n      address\n        /* \"PropertyData.sol\":1417:1456  this.fulfillMultipleParameters.selector */\n      shl(0xe0, 0xfda4417b)\n        /* \"PropertyData.sol\":1334:1356  _buildChainlinkRequest */\n      tag_65\n        /* \"PropertyData.sol\":1334:1466  _buildChainlinkRequest(... */\n      jump\t// in\n    tag_64:\n        /* \"PropertyData.sol\":1303:1466  Chainlink.Request memory req = _buildChainlinkRequest(... */\n      swap1\n      pop\n        /* \"PropertyData.sol\":1476:1591  req._add(... */\n      tag_66\n      mload(0x40)\n      dup1\n      0x40\n      add\n      0x40\n      mstore\n      dup1\n      0x06\n      dup2\n      mstore\n      0x20\n      add\n      0x75726c4254430000000000000000000000000000000000000000000000000000\n      dup2\n      mstore\n      pop\n      mload(0x40)\n      dup1\n      0x60\n      add\n      0x40\n      mstore\n      dup1\n      0x3b\n      dup2\n      mstore\n      0x20\n      add\n      data_cf8a2b156957b9e6a5cd1b8e61fbd7ab31a01ed93730364287febf74a507e2cc\n      0x3b\n      swap2\n      codecopy\n        /* \"PropertyData.sol\":1476:1479  req */\n      dup4\n        /* \"PropertyData.sol\":1476:1484  req._add */\n      tag_67\n      swap1\n        /* \"PropertyData.sol\":1476:1591  req._add(... */\n      swap3\n      swap2\n      swap1\n      0xffffffff\n      and\n      jump\t// in\n    tag_66:\n        /* \"PropertyData.sol\":1601:1636  req._add(\"pathBTC\", \"data,lotSize\") */\n      tag_68\n      mload(0x40)\n      dup1\n      0x40\n      add\n      0x40\n      mstore\n      dup1\n      0x07\n      dup2\n      mstore\n      0x20\n      add\n      0x7061746842544300000000000000000000000000000000000000000000000000\n      dup2\n      mstore\n      pop\n      mload(0x40)\n      dup1\n      0x40\n      add\n      0x40\n      mstore\n      dup1\n      0x0c\n      dup2\n      mstore\n      0x20\n      add\n      0x646174612c6c6f7453697a650000000000000000000000000000000000000000\n      dup2\n      mstore\n      pop\n        /* \"PropertyData.sol\":1601:1604  req */\n      dup4\n        /* \"PropertyData.sol\":1601:1609  req._add */\n      tag_67\n      swap1\n        /* \"PropertyData.sol\":1601:1636  req._add(\"pathBTC\", \"data,lotSize\") */\n      swap3\n      swap2\n      swap1\n      0xffffffff\n      and\n      jump\t// in\n    tag_68:\n        /* \"PropertyData.sol\":1646:1761  req._add(... */\n      tag_69\n      mload(0x40)\n      dup1\n      0x40\n      add\n      0x40\n      mstore\n      dup1\n      0x06\n      dup2\n      mstore\n      0x20\n      add\n      0x75726c5553440000000000000000000000000000000000000000000000000000\n      dup2\n      mstore\n      pop\n      mload(0x40)\n      dup1\n      0x60\n      add\n      0x40\n      mstore\n      dup1\n      0x3b\n      dup2\n      mstore\n      0x20\n      add\n      data_cf8a2b156957b9e6a5cd1b8e61fbd7ab31a01ed93730364287febf74a507e2cc\n      0x3b\n      swap2\n      codecopy\n        /* \"PropertyData.sol\":1646:1649  req */\n      dup4\n        /* \"PropertyData.sol\":1646:1654  req._add */\n      tag_67\n      swap1\n        /* \"PropertyData.sol\":1646:1761  req._add(... */\n      swap3\n      swap2\n      swap1\n      0xffffffff\n      and\n      jump\t// in\n    tag_69:\n        /* \"PropertyData.sol\":1771:1809  req._add(\"pathUSD\", \"data,totalPrice\") */\n      tag_70\n      mload(0x40)\n      dup1\n      0x40\n      add\n      0x40\n      mstore\n      dup1\n      0x07\n      dup2\n      mstore\n      0x20\n      add\n      0x7061746855534400000000000000000000000000000000000000000000000000\n      dup2\n      mstore\n      pop\n      mload(0x40)\n      dup1\n      0x40\n      add\n      0x40\n      mstore\n      dup1\n      0x0f\n      dup2\n      mstore\n      0x20\n      add\n      0x646174612c746f74616c50726963650000000000000000000000000000000000\n      dup2\n      mstore\n      pop\n        /* \"PropertyData.sol\":1771:1774  req */\n      dup4\n        /* \"PropertyData.sol\":1771:1779  req._add */\n      tag_67\n      swap1\n        /* \"PropertyData.sol\":1771:1809  req._add(\"pathUSD\", \"data,totalPrice\") */\n      swap3\n      swap2\n      swap1\n      0xffffffff\n      and\n      jump\t// in\n    tag_70:\n        /* \"PropertyData.sol\":1819:1934  req._add(... */\n      tag_71\n      mload(0x40)\n      dup1\n      0x40\n      add\n      0x40\n      mstore\n      dup1\n      0x06\n      dup2\n      mstore\n      0x20\n      add\n      0x75726c4555520000000000000000000000000000000000000000000000000000\n      dup2\n      mstore\n      pop\n      mload(0x40)\n      dup1\n      0x60\n      add\n      0x40\n      mstore\n      dup1\n      0x3b\n      dup2\n      mstore\n      0x20\n      add\n      data_cf8a2b156957b9e6a5cd1b8e61fbd7ab31a01ed93730364287febf74a507e2cc\n      0x3b\n      swap2\n      codecopy\n        /* \"PropertyData.sol\":1819:1822  req */\n      dup4\n        /* \"PropertyData.sol\":1819:1827  req._add */\n      tag_67\n      swap1\n        /* \"PropertyData.sol\":1819:1934  req._add(... */\n      swap3\n      swap2\n      swap1\n      0xffffffff\n      and\n      jump\t// in\n    tag_71:\n        /* \"PropertyData.sol\":1944:1988  req._add(\"pathEUR\", \"data,taxAssessedValue\") */\n      tag_72\n      mload(0x40)\n      dup1\n      0x40\n      add\n      0x40\n      mstore\n      dup1\n      0x07\n      dup2\n      mstore\n      0x20\n      add\n      0x7061746845555200000000000000000000000000000000000000000000000000\n      dup2\n      mstore\n      pop\n      mload(0x40)\n      dup1\n      0x40\n      add\n      0x40\n      mstore\n      dup1\n      0x15\n      dup2\n      mstore\n      0x20\n      add\n      0x646174612c746178417373657373656456616c75650000000000000000000000\n      dup2\n      mstore\n      pop\n        /* \"PropertyData.sol\":1944:1947  req */\n      dup4\n        /* \"PropertyData.sol\":1944:1952  req._add */\n      tag_67\n      swap1\n        /* \"PropertyData.sol\":1944:1988  req._add(\"pathEUR\", \"data,taxAssessedValue\") */\n      swap3\n      swap2\n      swap1\n      0xffffffff\n      and\n      jump\t// in\n    tag_72:\n        /* \"PropertyData.sol\":1998:2029  _sendChainlinkRequest(req, fee) */\n      tag_73\n        /* \"PropertyData.sol\":2020:2023  req */\n      dup2\n        /* \"PropertyData.sol\":2025:2028  fee */\n      sload(0x0a)\n        /* \"PropertyData.sol\":1998:2019  _sendChainlinkRequest */\n      tag_74\n        /* \"PropertyData.sol\":1998:2029  _sendChainlinkRequest(req, fee) */\n      jump\t// in\n    tag_73:\n      pop\n        /* \"PropertyData.sol\":1293:2036  {... */\n      pop\n        /* \"PropertyData.sol\":1249:2036  function requestMultipleParameters() public {... */\n      jump\t// out\n        /* \"PropertyData.sol\":662:684  string public location */\n    tag_27:\n      0x0e\n      dup1\n      sload\n      tag_75\n      swap1\n      tag_76\n      jump\t// in\n    tag_75:\n      dup1\n      0x1f\n      add\n      0x20\n      dup1\n      swap2\n      div\n      mul\n      0x20\n      add\n      mload(0x40)\n      swap1\n      dup2\n      add\n      0x40\n      mstore\n      dup1\n      swap3\n      swap2\n      swap1\n      dup2\n      dup2\n      mstore\n      0x20\n      add\n      dup3\n      dup1\n      sload\n      tag_77\n      swap1\n      tag_76\n      jump\t// in\n    tag_77:\n      dup1\n      iszero\n      tag_78\n      jumpi\n      dup1\n      0x1f\n      lt\n      tag_79\n      jumpi\n      0x0100\n      dup1\n      dup4\n      sload\n      div\n      mul\n      dup4\n      mstore\n      swap2\n      0x20\n      add\n      swap2\n      jump(tag_78)\n    tag_79:\n      dup3\n      add\n      swap2\n      swap1\n      0x00\n      mstore\n      keccak256(0x00, 0x20)\n      swap1\n    tag_80:\n      dup2\n      sload\n      dup2\n      mstore\n      swap1\n      0x01\n      add\n      swap1\n      0x20\n      add\n      dup1\n      dup4\n      gt\n      tag_80\n      jumpi\n      dup3\n      swap1\n      sub\n      0x1f\n      and\n      dup3\n      add\n      swap2\n    tag_78:\n      pop\n      pop\n      pop\n      pop\n      pop\n      dup2\n      jump\t// out\n        /* \"PropertyData.sol\":2603:3044  function requestVolumeData() public returns (bytes32 requestId) {... */\n    tag_31:\n        /* \"PropertyData.sol\":2648:2665  bytes32 requestId */\n      0x00\n        /* \"PropertyData.sol\":2677:2705  Chainlink.Request memory req */\n      dup1\n        /* \"PropertyData.sol\":2708:2822  _buildChainlinkRequest(... */\n      tag_82\n        /* \"PropertyData.sol\":2744:2750  jobId2 */\n      sload(0x09)\n        /* \"PropertyData.sol\":2772:2776  this */\n      address\n        /* \"PropertyData.sol\":2791:2812  this.fulfill.selector */\n      shl(0xe0, 0x37441996)\n        /* \"PropertyData.sol\":2708:2730  _buildChainlinkRequest */\n      tag_65\n        /* \"PropertyData.sol\":2708:2822  _buildChainlinkRequest(... */\n      jump\t// in\n    tag_82:\n        /* \"PropertyData.sol\":2677:2822  Chainlink.Request memory req = _buildChainlinkRequest(... */\n      swap1\n      pop\n        /* \"PropertyData.sol\":2833:2945  req._add(... */\n      tag_83\n      mload(0x40)\n      dup1\n      0x40\n      add\n      0x40\n      mstore\n      dup1\n      0x03\n      dup2\n      mstore\n      0x20\n      add\n      0x6765740000000000000000000000000000000000000000000000000000000000\n      dup2\n      mstore\n      pop\n      mload(0x40)\n      dup1\n      0x60\n      add\n      0x40\n      mstore\n      dup1\n      0x3b\n      dup2\n      mstore\n      0x20\n      add\n      data_cf8a2b156957b9e6a5cd1b8e61fbd7ab31a01ed93730364287febf74a507e2cc\n      0x3b\n      swap2\n      codecopy\n        /* \"PropertyData.sol\":2833:2836  req */\n      dup4\n        /* \"PropertyData.sol\":2833:2841  req._add */\n      tag_67\n      swap1\n        /* \"PropertyData.sol\":2833:2945  req._add(... */\n      swap3\n      swap2\n      swap1\n      0xffffffff\n      and\n      jump\t// in\n    tag_83:\n        /* \"PropertyData.sol\":2955:2988  req._add(\"path\", \"data,location\") */\n      tag_84\n      mload(0x40)\n      dup1\n      0x40\n      add\n      0x40\n      mstore\n      dup1\n      0x04\n      dup2\n      mstore\n      0x20\n      add\n      0x7061746800000000000000000000000000000000000000000000000000000000\n      dup2\n      mstore\n      pop\n      mload(0x40)\n      dup1\n      0x40\n      add\n      0x40\n      mstore\n      dup1\n      0x0d\n      dup2\n      mstore\n      0x20\n      add\n      0x646174612c6c6f636174696f6e00000000000000000000000000000000000000\n      dup2\n      mstore\n      pop\n        /* \"PropertyData.sol\":2955:2958  req */\n      dup4\n        /* \"PropertyData.sol\":2955:2963  req._add */\n      tag_67\n      swap1\n        /* \"PropertyData.sol\":2955:2988  req._add(\"path\", \"data,location\") */\n      swap3\n      swap2\n      swap1\n      0xffffffff\n      and\n      jump\t// in\n    tag_84:\n        /* \"PropertyData.sol\":3006:3037  _sendChainlinkRequest(req, fee) */\n      tag_85\n        /* \"PropertyData.sol\":3028:3031  req */\n      dup2\n        /* \"PropertyData.sol\":3033:3036  fee */\n      sload(0x0a)\n        /* \"PropertyData.sol\":3006:3027  _sendChainlinkRequest */\n      tag_74\n        /* \"PropertyData.sol\":3006:3037  _sendChainlinkRequest(req, fee) */\n      jump\t// in\n    tag_85:\n        /* \"PropertyData.sol\":2999:3037  return _sendChainlinkRequest(req, fee) */\n      swap2\n      pop\n      pop\n        /* \"PropertyData.sol\":2603:3044  function requestVolumeData() public returns (bytes32 requestId) {... */\n      swap1\n      jump\t// out\n        /* \"@chainlink/contracts@1.1.1/src/v0.8/shared/access/ConfirmedOwnerWithProposal.sol\":1026:1342  function acceptOwnership() external override {... */\n    tag_35:\n        /* \"@chainlink/contracts@1.1.1/src/v0.8/shared/access/ConfirmedOwnerWithProposal.sol\":1150:1164  s_pendingOwner */\n      0x07\n      0x00\n      swap1\n      sload\n      swap1\n      0x0100\n      exp\n      swap1\n      div\n      0xffffffffffffffffffffffffffffffffffffffff\n      and\n        /* \"@chainlink/contracts@1.1.1/src/v0.8/shared/access/ConfirmedOwnerWithProposal.sol\":1136:1164  msg.sender == s_pendingOwner */\n      0xffffffffffffffffffffffffffffffffffffffff\n      and\n        /* \"@chainlink/contracts@1.1.1/src/v0.8/shared/access/ConfirmedOwnerWithProposal.sol\":1136:1146  msg.sender */\n      caller\n        /* \"@chainlink/contracts@1.1.1/src/v0.8/shared/access/ConfirmedOwnerWithProposal.sol\":1136:1164  msg.sender == s_pendingOwner */\n      0xffffffffffffffffffffffffffffffffffffffff\n      and\n      eq\n        /* \"@chainlink/contracts@1.1.1/src/v0.8/shared/access/ConfirmedOwnerWithProposal.sol\":1128:1191  require(msg.sender == s_pendingOwner, \"Must be proposed owner\") */\n      tag_87\n      jumpi\n      mload(0x40)\n      0x08c379a000000000000000000000000000000000000000000000000000000000\n      dup2\n      mstore\n      0x04\n      add\n      tag_88\n      swap1\n      tag_89\n      jump\t// in\n    tag_88:\n      mload(0x40)\n      dup1\n      swap2\n      sub\n      swap1\n      revert\n    tag_87:\n        /* \"@chainlink/contracts@1.1.1/src/v0.8/shared/access/ConfirmedOwnerWithProposal.sol\":1198:1214  address oldOwner */\n      0x00\n        /* \"@chainlink/contracts@1.1.1/src/v0.8/shared/access/ConfirmedOwnerWithProposal.sol\":1217:1224  s_owner */\n      0x06\n      0x00\n      swap1\n      sload\n      swap1\n      0x0100\n      exp\n      swap1\n      div\n      0xffffffffffffffffffffffffffffffffffffffff\n      and\n        /* \"@chainlink/contracts@1.1.1/src/v0.8/shared/access/ConfirmedOwnerWithProposal.sol\":1198:1224  address oldOwner = s_owner */\n      swap1\n      pop\n        /* \"@chainlink/contracts@1.1.1/src/v0.8/shared/access/ConfirmedOwnerWithProposal.sol\":1240:1250  msg.sender */\n      caller\n        /* \"@chainlink/contracts@1.1.1/src/v0.8/shared/access/ConfirmedOwnerWithProposal.sol\":1230:1237  s_owner */\n      0x06\n      0x00\n        /* \"@chainlink/contracts@1.1.1/src/v0.8/shared/access/ConfirmedOwnerWithProposal.sol\":1230:1250  s_owner = msg.sender */\n      0x0100\n      exp\n      dup2\n      sload\n      dup2\n      0xffffffffffffffffffffffffffffffffffffffff\n      mul\n      not\n      and\n      swap1\n      dup4\n      0xffffffffffffffffffffffffffffffffffffffff\n      and\n      mul\n      or\n      swap1\n      sstore\n      pop\n        /* \"@chainlink/contracts@1.1.1/src/v0.8/shared/access/ConfirmedOwnerWithProposal.sol\":1281:1282  0 */\n      0x00\n        /* \"@chainlink/contracts@1.1.1/src/v0.8/shared/access/ConfirmedOwnerWithProposal.sol\":1256:1270  s_pendingOwner */\n      0x07\n      0x00\n        /* \"@chainlink/contracts@1.1.1/src/v0.8/shared/access/ConfirmedOwnerWithProposal.sol\":1256:1283  s_pendingOwner = address(0) */\n      0x0100\n      exp\n      dup2\n      sload\n      dup2\n      0xffffffffffffffffffffffffffffffffffffffff\n      mul\n      not\n      and\n      swap1\n      dup4\n      0xffffffffffffffffffffffffffffffffffffffff\n      and\n      mul\n      or\n      swap1\n      sstore\n      pop\n        /* \"@chainlink/contracts@1.1.1/src/v0.8/shared/access/ConfirmedOwnerWithProposal.sol\":1326:1336  msg.sender */\n      caller\n        /* \"@chainlink/contracts@1.1.1/src/v0.8/shared/access/ConfirmedOwnerWithProposal.sol\":1295:1337  OwnershipTransferred(oldOwner, msg.sender) */\n      0xffffffffffffffffffffffffffffffffffffffff\n      and\n        /* \"@chainlink/contracts@1.1.1/src/v0.8/shared/access/ConfirmedOwnerWithProposal.sol\":1316:1324  oldOwner */\n      dup2\n        /* \"@chainlink/contracts@1.1.1/src/v0.8/shared/access/ConfirmedOwnerWithProposal.sol\":1295:1337  OwnershipTransferred(oldOwner, msg.sender) */\n      0xffffffffffffffffffffffffffffffffffffffff\n      and\n      0x8be0079c531659141344cd1fd0a4f28419497f9722a3daafe3b4186f6b6457e0\n      mload(0x40)\n      mload(0x40)\n      dup1\n      swap2\n      sub\n      swap1\n      log3\n        /* \"@chainlink/contracts@1.1.1/src/v0.8/shared/access/ConfirmedOwnerWithProposal.sol\":1071:1342  {... */\n      pop\n        /* \"@chainlink/contracts@1.1.1/src/v0.8/shared/access/ConfirmedOwnerWithProposal.sol\":1026:1342  function acceptOwnership() external override {... */\n      jump\t// out\n        /* \"@chainlink/contracts@1.1.1/src/v0.8/shared/access/ConfirmedOwnerWithProposal.sol\":1382:1463  function owner() public view override returns (address) {... */\n    tag_37:\n        /* \"@chainlink/contracts@1.1.1/src/v0.8/shared/access/ConfirmedOwnerWithProposal.sol\":1429:1436  address */\n      0x00\n        /* \"@chainlink/contracts@1.1.1/src/v0.8/shared/access/ConfirmedOwnerWithProposal.sol\":1451:1458  s_owner */\n      0x06\n      0x00\n      swap1\n      sload\n      swap1\n      0x0100\n      exp\n      swap1\n      div\n      0xffffffffffffffffffffffffffffffffffffffff\n      and\n        /* \"@chainlink/contracts@1.1.1/src/v0.8/shared/access/ConfirmedOwnerWithProposal.sol\":1444:1458  return s_owner */\n      swap1\n      pop\n        /* \"@chainlink/contracts@1.1.1/src/v0.8/shared/access/ConfirmedOwnerWithProposal.sol\":1382:1463  function owner() public view override returns (address) {... */\n      swap1\n      jump\t// out\n        /* \"PropertyData.sol\":3237:3496  function withdrawLink() public onlyOwner {... */\n    tag_41:\n        /* \"@chainlink/contracts@1.1.1/src/v0.8/shared/access/ConfirmedOwnerWithProposal.sol\":2075:2095  _validateOwnership() */\n      tag_92\n        /* \"@chainlink/contracts@1.1.1/src/v0.8/shared/access/ConfirmedOwnerWithProposal.sol\":2075:2093  _validateOwnership */\n      tag_93\n        /* \"@chainlink/contracts@1.1.1/src/v0.8/shared/access/ConfirmedOwnerWithProposal.sol\":2075:2095  _validateOwnership() */\n      jump\t// in\n    tag_92:\n        /* \"PropertyData.sol\":3288:3311  LinkTokenInterface link */\n      0x00\n        /* \"PropertyData.sol\":3333:3357  _chainlinkTokenAddress() */\n      tag_95\n        /* \"PropertyData.sol\":3333:3355  _chainlinkTokenAddress */\n      tag_96\n        /* \"PropertyData.sol\":3333:3357  _chainlinkTokenAddress() */\n      jump\t// in\n    tag_95:\n        /* \"PropertyData.sol\":3288:3358  LinkTokenInterface link = LinkTokenInterface(_chainlinkTokenAddress()) */\n      swap1\n      pop\n        /* \"PropertyData.sol\":3389:3393  link */\n      dup1\n        /* \"PropertyData.sol\":3389:3402  link.transfer */\n      0xffffffffffffffffffffffffffffffffffffffff\n      and\n      0xa9059cbb\n        /* \"PropertyData.sol\":3403:3413  msg.sender */\n      caller\n        /* \"PropertyData.sol\":3415:3419  link */\n      dup4\n        /* \"PropertyData.sol\":3415:3429  link.balanceOf */\n      0xffffffffffffffffffffffffffffffffffffffff\n      and\n      0x70a08231\n        /* \"PropertyData.sol\":3438:3442  this */\n      address\n        /* \"PropertyData.sol\":3415:3444  link.balanceOf(address(this)) */\n      mload(0x40)\n      dup3\n      0xffffffff\n      and\n      0xe0\n      shl\n      dup2\n      mstore\n      0x04\n      add\n      tag_97\n      swap2\n      swap1\n      tag_39\n      jump\t// in\n    tag_97:\n      0x20\n      mload(0x40)\n      dup1\n      dup4\n      sub\n      dup2\n      dup7\n      gas\n      staticcall\n      iszero\n      dup1\n      iszero\n      tag_99\n      jumpi\n      returndatasize\n      0x00\n      dup1\n      returndatacopy\n      revert(0x00, returndatasize)\n    tag_99:\n      pop\n      pop\n      pop\n      pop\n      mload(0x40)\n      returndatasize\n      not(0x1f)\n      0x1f\n      dup3\n      add\n      and\n      dup3\n      add\n      dup1\n      0x40\n      mstore\n      pop\n      dup2\n      add\n      swap1\n      tag_100\n      swap2\n      swap1\n      tag_101\n      jump\t// in\n    tag_100:\n        /* \"PropertyData.sol\":3389:3445  link.transfer(msg.sender, link.balanceOf(address(this))) */\n      mload(0x40)\n      dup4\n      0xffffffff\n      and\n      0xe0\n      shl\n      dup2\n      mstore\n      0x04\n      add\n      tag_102\n      swap3\n      swap2\n      swap1\n      tag_103\n      jump\t// in\n    tag_102:\n      0x20\n      mload(0x40)\n      dup1\n      dup4\n      sub\n      dup2\n      0x00\n      dup8\n      gas\n      call\n      iszero\n      dup1\n      iszero\n      tag_105\n      jumpi\n      returndatasize\n      0x00\n      dup1\n      returndatacopy\n      revert(0x00, returndatasize)\n    tag_105:\n      pop\n      pop\n      pop\n      pop\n      mload(0x40)\n      returndatasize\n      not(0x1f)\n      0x1f\n      dup3\n      add\n      and\n      dup3\n      add\n      dup1\n      0x40\n      mstore\n      pop\n      dup2\n      add\n      swap1\n      tag_106\n      swap2\n      swap1\n      tag_107\n      jump\t// in\n    tag_106:\n        /* \"PropertyData.sol\":3368:3489  require(... */\n      tag_108\n      jumpi\n      mload(0x40)\n      0x08c379a000000000000000000000000000000000000000000000000000000000\n      dup2\n      mstore\n      0x04\n      add\n      tag_109\n      swap1\n      tag_110\n      jump\t// in\n    tag_109:\n      mload(0x40)\n      dup1\n      swap2\n      sub\n      swap1\n      revert\n    tag_108:\n        /* \"PropertyData.sol\":3278:3496  {... */\n      pop\n        /* \"PropertyData.sol\":3237:3496  function withdrawLink() public onlyOwner {... */\n      jump\t// out\n        /* \"PropertyData.sol\":594:619  uint256 public totalPrice */\n    tag_43:\n      sload(0x0c)\n      dup2\n      jump\t// out\n        /* \"PropertyData.sol\":625:656  uint256 public taxAssessedValue */\n    tag_46:\n      sload(0x0d)\n      dup2\n      jump\t// out\n        /* \"@chainlink/contracts@1.1.1/src/v0.8/shared/access/ConfirmedOwnerWithProposal.sol\":847:945  function transferOwnership(address to) public override onlyOwner {... */\n    tag_51:\n        /* \"@chainlink/contracts@1.1.1/src/v0.8/shared/access/ConfirmedOwnerWithProposal.sol\":2075:2095  _validateOwnership() */\n      tag_112\n        /* \"@chainlink/contracts@1.1.1/src/v0.8/shared/access/ConfirmedOwnerWithProposal.sol\":2075:2093  _validateOwnership */\n      tag_93\n        /* \"@chainlink/contracts@1.1.1/src/v0.8/shared/access/ConfirmedOwnerWithProposal.sol\":2075:2095  _validateOwnership() */\n      jump\t// in\n    tag_112:\n        /* \"@chainlink/contracts@1.1.1/src/v0.8/shared/access/ConfirmedOwnerWithProposal.sol\":918:940  _transferOwnership(to) */\n      tag_114\n        /* \"@chainlink/contracts@1.1.1/src/v0.8/shared/access/ConfirmedOwnerWithProposal.sol\":937:939  to */\n      dup2\n        /* \"@chainlink/contracts@1.1.1/src/v0.8/shared/access/ConfirmedOwnerWithProposal.sol\":918:936  _transferOwnership */\n      tag_115\n        /* \"@chainlink/contracts@1.1.1/src/v0.8/shared/access/ConfirmedOwnerWithProposal.sol\":918:940  _transferOwnership(to) */\n      jump\t// in\n    tag_114:\n        /* \"@chainlink/contracts@1.1.1/src/v0.8/shared/access/ConfirmedOwnerWithProposal.sol\":847:945  function transferOwnership(address to) public override onlyOwner {... */\n      pop\n      jump\t// out\n        /* \"PropertyData.sol\":2042:2597  function fulfillMultipleParameters(... */\n    tag_55:\n        /* \"PropertyData.sol\":2255:2264  requestId */\n      dup4\n        /* \"@chainlink/contracts@1.1.1/src/v0.8/ChainlinkClient.sol\":11913:11930  s_pendingRequests */\n      0x05\n        /* \"@chainlink/contracts@1.1.1/src/v0.8/ChainlinkClient.sol\":11913:11941  s_pendingRequests[requestId] */\n      0x00\n        /* \"@chainlink/contracts@1.1.1/src/v0.8/ChainlinkClient.sol\":11931:11940  requestId */\n      dup3\n        /* \"@chainlink/contracts@1.1.1/src/v0.8/ChainlinkClient.sol\":11913:11941  s_pendingRequests[requestId] */\n      dup2\n      mstore\n      0x20\n      add\n      swap1\n      dup2\n      mstore\n      0x20\n      add\n      0x00\n      keccak256\n      0x00\n      swap1\n      sload\n      swap1\n      0x0100\n      exp\n      swap1\n      div\n      0xffffffffffffffffffffffffffffffffffffffff\n      and\n        /* \"@chainlink/contracts@1.1.1/src/v0.8/ChainlinkClient.sol\":11899:11941  msg.sender == s_pendingRequests[requestId] */\n      0xffffffffffffffffffffffffffffffffffffffff\n      and\n        /* \"@chainlink/contracts@1.1.1/src/v0.8/ChainlinkClient.sol\":11899:11909  msg.sender */\n      caller\n        /* \"@chainlink/contracts@1.1.1/src/v0.8/ChainlinkClient.sol\":11899:11941  msg.sender == s_pendingRequests[requestId] */\n      0xffffffffffffffffffffffffffffffffffffffff\n      and\n      eq\n        /* \"@chainlink/contracts@1.1.1/src/v0.8/ChainlinkClient.sol\":11891:11986  require(msg.sender == s_pendingRequests[requestId], \"Source must be the oracle of the request\") */\n      tag_117\n      jumpi\n      mload(0x40)\n      0x08c379a000000000000000000000000000000000000000000000000000000000\n      dup2\n      mstore\n      0x04\n      add\n      tag_118\n      swap1\n      tag_59\n      jump\t// in\n    tag_118:\n      mload(0x40)\n      dup1\n      swap2\n      sub\n      swap1\n      revert\n    tag_117:\n        /* \"@chainlink/contracts@1.1.1/src/v0.8/ChainlinkClient.sol\":11999:12016  s_pendingRequests */\n      0x05\n        /* \"@chainlink/contracts@1.1.1/src/v0.8/ChainlinkClient.sol\":11999:12027  s_pendingRequests[requestId] */\n      0x00\n        /* \"@chainlink/contracts@1.1.1/src/v0.8/ChainlinkClient.sol\":12017:12026  requestId */\n      dup3\n        /* \"@chainlink/contracts@1.1.1/src/v0.8/ChainlinkClient.sol\":11999:12027  s_pendingRequests[requestId] */\n      dup2\n      mstore\n      0x20\n      add\n      swap1\n      dup2\n      mstore\n      0x20\n      add\n      0x00\n      keccak256\n      0x00\n        /* \"@chainlink/contracts@1.1.1/src/v0.8/ChainlinkClient.sol\":11992:12027  delete s_pendingRequests[requestId] */\n      0x0100\n      exp\n      dup2\n      sload\n      swap1\n      0xffffffffffffffffffffffffffffffffffffffff\n      mul\n      not\n      and\n      swap1\n      sstore\n        /* \"@chainlink/contracts@1.1.1/src/v0.8/ChainlinkClient.sol\":12057:12066  requestId */\n      dup1\n        /* \"@chainlink/contracts@1.1.1/src/v0.8/ChainlinkClient.sol\":12038:12067  ChainlinkFulfilled(requestId) */\n      0x7cc135e0cebb02c3480ae5d74d377283180a2601f8f644edf7987b009316c63a\n      mload(0x40)\n      mload(0x40)\n      dup1\n      swap2\n      sub\n      swap1\n      log2\n        /* \"PropertyData.sol\":2319:2328  requestId */\n      dup5\n        /* \"PropertyData.sol\":2281:2437  RequestMultipleFulfilled(... */\n      0xd8422588c680817fe4971ef8a5fe6a6b5df0d7cd4537eabef7fb17750e4187a7\n        /* \"PropertyData.sol\":2342:2357  lotSizeResponse */\n      dup6\n        /* \"PropertyData.sol\":2371:2389  totalPriceResponse */\n      dup6\n        /* \"PropertyData.sol\":2403:2427  taxAssessedValueResponse */\n      dup6\n        /* \"PropertyData.sol\":2281:2437  RequestMultipleFulfilled(... */\n      mload(0x40)\n      tag_120\n      swap4\n      swap3\n      swap2\n      swap1\n      tag_121\n      jump\t// in\n    tag_120:\n      mload(0x40)\n      dup1\n      swap2\n      sub\n      swap1\n      log2\n        /* \"PropertyData.sol\":2475:2480  10**5 */\n      0x0186a0\n        /* \"PropertyData.sol\":2457:2472  lotSizeResponse */\n      dup5\n        /* \"PropertyData.sol\":2457:2480  lotSizeResponse / 10**5 */\n      tag_122\n      swap2\n      swap1\n      tag_123\n      jump\t// in\n    tag_122:\n        /* \"PropertyData.sol\":2447:2454  lotSize */\n      0x0b\n        /* \"PropertyData.sol\":2447:2480  lotSize = lotSizeResponse / 10**5 */\n      dup2\n      swap1\n      sstore\n      pop\n        /* \"PropertyData.sol\":2524:2529  10**5 */\n      0x0186a0\n        /* \"PropertyData.sol\":2503:2521  totalPriceResponse */\n      dup4\n        /* \"PropertyData.sol\":2503:2529  totalPriceResponse / 10**5 */\n      tag_124\n      swap2\n      swap1\n      tag_123\n      jump\t// in\n    tag_124:\n        /* \"PropertyData.sol\":2490:2500  totalPrice */\n      0x0c\n        /* \"PropertyData.sol\":2490:2529  totalPrice = totalPriceResponse / 10**5 */\n      dup2\n      swap1\n      sstore\n      pop\n        /* \"PropertyData.sol\":2585:2590  10**5 */\n      0x0186a0\n        /* \"PropertyData.sol\":2558:2582  taxAssessedValueResponse */\n      dup3\n        /* \"PropertyData.sol\":2558:2590  taxAssessedValueResponse / 10**5 */\n      tag_125\n      swap2\n      swap1\n      tag_123\n      jump\t// in\n    tag_125:\n        /* \"PropertyData.sol\":2539:2555  taxAssessedValue */\n      0x0d\n        /* \"PropertyData.sol\":2539:2590  taxAssessedValue = taxAssessedValueResponse / 10**5 */\n      dup2\n      swap1\n      sstore\n      pop\n        /* \"PropertyData.sol\":2042:2597  function fulfillMultipleParameters(... */\n      pop\n      pop\n      pop\n      pop\n      pop\n      jump\t// out\n        /* \"@chainlink/contracts@1.1.1/src/v0.8/ChainlinkClient.sol\":2041:2326  function _buildChainlinkRequest(... */\n    tag_65:\n        /* \"@chainlink/contracts@1.1.1/src/v0.8/ChainlinkClient.sol\":2184:2208  Chainlink.Request memory */\n      tag_126\n      tag_127\n      jump\t// in\n    tag_126:\n        /* \"@chainlink/contracts@1.1.1/src/v0.8/ChainlinkClient.sol\":2216:2244  Chainlink.Request memory req */\n      tag_129\n      tag_127\n      jump\t// in\n    tag_129:\n        /* \"@chainlink/contracts@1.1.1/src/v0.8/ChainlinkClient.sol\":2257:2321  req._initialize(specId, callbackAddr, callbackFunctionSignature) */\n      tag_130\n        /* \"@chainlink/contracts@1.1.1/src/v0.8/ChainlinkClient.sol\":2273:2279  specId */\n      dup6\n        /* \"@chainlink/contracts@1.1.1/src/v0.8/ChainlinkClient.sol\":2281:2293  callbackAddr */\n      dup6\n        /* \"@chainlink/contracts@1.1.1/src/v0.8/ChainlinkClient.sol\":2295:2320  callbackFunctionSignature */\n      dup6\n        /* \"@chainlink/contracts@1.1.1/src/v0.8/ChainlinkClient.sol\":2257:2260  req */\n      dup5\n        /* \"@chainlink/contracts@1.1.1/src/v0.8/ChainlinkClient.sol\":2257:2272  req._initialize */\n      tag_131\n      swap1\n        /* \"@chainlink/contracts@1.1.1/src/v0.8/ChainlinkClient.sol\":2257:2321  req._initialize(specId, callbackAddr, callbackFunctionSignature) */\n      swap4\n      swap3\n      swap2\n      swap1\n      0xffffffff\n      and\n      jump\t// in\n    tag_130:\n        /* \"@chainlink/contracts@1.1.1/src/v0.8/ChainlinkClient.sol\":2250:2321  return req._initialize(specId, callbackAddr, callbackFunctionSignature) */\n      swap2\n      pop\n      pop\n        /* \"@chainlink/contracts@1.1.1/src/v0.8/ChainlinkClient.sol\":2041:2326  function _buildChainlinkRequest(... */\n      swap4\n      swap3\n      pop\n      pop\n      pop\n      jump\t// out\n        /* \"@chainlink/contracts@1.1.1/src/v0.8/Chainlink.sol\":1994:2154  function _add(Request memory self, string memory key, string memory value) internal pure {... */\n    tag_67:\n        /* \"@chainlink/contracts@1.1.1/src/v0.8/Chainlink.sol\":2089:2115  self.buf.encodeString(key) */\n      tag_133\n        /* \"@chainlink/contracts@1.1.1/src/v0.8/Chainlink.sol\":2111:2114  key */\n      dup3\n        /* \"@chainlink/contracts@1.1.1/src/v0.8/Chainlink.sol\":2089:2093  self */\n      dup5\n        /* \"@chainlink/contracts@1.1.1/src/v0.8/Chainlink.sol\":2089:2097  self.buf */\n      0x80\n      add\n      mload\n        /* \"@chainlink/contracts@1.1.1/src/v0.8/Chainlink.sol\":2089:2110  self.buf.encodeString */\n      tag_134\n      swap1\n        /* \"@chainlink/contracts@1.1.1/src/v0.8/Chainlink.sol\":2089:2115  self.buf.encodeString(key) */\n      swap2\n      swap1\n      0xffffffff\n      and\n      jump\t// in\n    tag_133:\n        /* \"@chainlink/contracts@1.1.1/src/v0.8/Chainlink.sol\":2121:2149  self.buf.encodeString(value) */\n      tag_135\n        /* \"@chainlink/contracts@1.1.1/src/v0.8/Chainlink.sol\":2143:2148  value */\n      dup2\n        /* \"@chainlink/contracts@1.1.1/src/v0.8/Chainlink.sol\":2121:2125  self */\n      dup5\n        /* \"@chainlink/contracts@1.1.1/src/v0.8/Chainlink.sol\":2121:2129  self.buf */\n      0x80\n      add\n      mload\n        /* \"@chainlink/contracts@1.1.1/src/v0.8/Chainlink.sol\":2121:2142  self.buf.encodeString */\n      tag_134\n      swap1\n        /* \"@chainlink/contracts@1.1.1/src/v0.8/Chainlink.sol\":2121:2149  self.buf.encodeString(value) */\n      swap2\n      swap1\n      0xffffffff\n      and\n      jump\t// in\n    tag_135:\n        /* \"@chainlink/contracts@1.1.1/src/v0.8/Chainlink.sol\":1994:2154  function _add(Request memory self, string memory key, string memory value) internal pure {... */\n      pop\n      pop\n      pop\n      jump\t// out\n        /* \"@chainlink/contracts@1.1.1/src/v0.8/ChainlinkClient.sol\":3185:3364  function _sendChainlinkRequest(Chainlink.Request memory req, uint256 payment) internal returns (bytes32) {... */\n    tag_74:\n        /* \"@chainlink/contracts@1.1.1/src/v0.8/ChainlinkClient.sol\":3281:3288  bytes32 */\n      0x00\n        /* \"@chainlink/contracts@1.1.1/src/v0.8/ChainlinkClient.sol\":3303:3359  _sendChainlinkRequestTo(address(s_oracle), req, payment) */\n      tag_137\n        /* \"@chainlink/contracts@1.1.1/src/v0.8/ChainlinkClient.sol\":3335:3343  s_oracle */\n      0x03\n      0x00\n      swap1\n      sload\n      swap1\n      0x0100\n      exp\n      swap1\n      div\n      0xffffffffffffffffffffffffffffffffffffffff\n      and\n        /* \"@chainlink/contracts@1.1.1/src/v0.8/ChainlinkClient.sol\":3346:3349  req */\n      dup5\n        /* \"@chainlink/contracts@1.1.1/src/v0.8/ChainlinkClient.sol\":3351:3358  payment */\n      dup5\n        /* \"@chainlink/contracts@1.1.1/src/v0.8/ChainlinkClient.sol\":3303:3326  _sendChainlinkRequestTo */\n      tag_138\n        /* \"@chainlink/contracts@1.1.1/src/v0.8/ChainlinkClient.sol\":3303:3359  _sendChainlinkRequestTo(address(s_oracle), req, payment) */\n      jump\t// in\n    tag_137:\n        /* \"@chainlink/contracts@1.1.1/src/v0.8/ChainlinkClient.sol\":3296:3359  return _sendChainlinkRequestTo(address(s_oracle), req, payment) */\n      swap1\n      pop\n        /* \"@chainlink/contracts@1.1.1/src/v0.8/ChainlinkClient.sol\":3185:3364  function _sendChainlinkRequest(Chainlink.Request memory req, uint256 payment) internal returns (bytes32) {... */\n      swap3\n      swap2\n      pop\n      pop\n      jump\t// out\n        /* \"@chainlink/contracts@1.1.1/src/v0.8/shared/access/ConfirmedOwnerWithProposal.sol\":1809:1971  function _validateOwnership() internal view {... */\n    tag_93:\n        /* \"@chainlink/contracts@1.1.1/src/v0.8/shared/access/ConfirmedOwnerWithProposal.sol\":1932:1939  s_owner */\n      0x06\n      0x00\n      swap1\n      sload\n      swap1\n      0x0100\n      exp\n      swap1\n      div\n      0xffffffffffffffffffffffffffffffffffffffff\n      and\n        /* \"@chainlink/contracts@1.1.1/src/v0.8/shared/access/ConfirmedOwnerWithProposal.sol\":1918:1939  msg.sender == s_owner */\n      0xffffffffffffffffffffffffffffffffffffffff\n      and\n        /* \"@chainlink/contracts@1.1.1/src/v0.8/shared/access/ConfirmedOwnerWithProposal.sol\":1918:1928  msg.sender */\n      caller\n        /* \"@chainlink/contracts@1.1.1/src/v0.8/shared/access/ConfirmedOwnerWithProposal.sol\":1918:1939  msg.sender == s_owner */\n      0xffffffffffffffffffffffffffffffffffffffff\n      and\n      eq\n        /* \"@chainlink/contracts@1.1.1/src/v0.8/shared/access/ConfirmedOwnerWithProposal.sol\":1910:1966  require(msg.sender == s_owner, \"Only callable by owner\") */\n      tag_140\n      jumpi\n      mload(0x40)\n      0x08c379a000000000000000000000000000000000000000000000000000000000\n      dup2\n      mstore\n      0x04\n      add\n      tag_141\n      swap1\n      tag_142\n      jump\t// in\n    tag_141:\n      mload(0x40)\n      dup1\n      swap2\n      sub\n      swap1\n      revert\n    tag_140:\n        /* \"@chainlink/contracts@1.1.1/src/v0.8/shared/access/ConfirmedOwnerWithProposal.sol\":1809:1971  function _validateOwnership() internal view {... */\n      jump\t// out\n        /* \"@chainlink/contracts@1.1.1/src/v0.8/ChainlinkClient.sol\":9325:9424  function _chainlinkTokenAddress() internal view returns (address) {... */\n    tag_96:\n        /* \"@chainlink/contracts@1.1.1/src/v0.8/ChainlinkClient.sol\":9382:9389  address */\n      0x00\n        /* \"@chainlink/contracts@1.1.1/src/v0.8/ChainlinkClient.sol\":9412:9418  s_link */\n      0x02\n      0x00\n      swap1\n      sload\n      swap1\n      0x0100\n      exp\n      swap1\n      div\n      0xffffffffffffffffffffffffffffffffffffffff\n      and\n        /* \"@chainlink/contracts@1.1.1/src/v0.8/ChainlinkClient.sol\":9397:9419  return address(s_link) */\n      swap1\n      pop\n        /* \"@chainlink/contracts@1.1.1/src/v0.8/ChainlinkClient.sol\":9325:9424  function _chainlinkTokenAddress() internal view returns (address) {... */\n      swap1\n      jump\t// out\n        /* \"@chainlink/contracts@1.1.1/src/v0.8/shared/access/ConfirmedOwnerWithProposal.sol\":1536:1775  function _transferOwnership(address to) private {... */\n    tag_115:\n        /* \"@chainlink/contracts@1.1.1/src/v0.8/shared/access/ConfirmedOwnerWithProposal.sol\":1655:1665  msg.sender */\n      caller\n        /* \"@chainlink/contracts@1.1.1/src/v0.8/shared/access/ConfirmedOwnerWithProposal.sol\":1649:1665  to != msg.sender */\n      0xffffffffffffffffffffffffffffffffffffffff\n      and\n        /* \"@chainlink/contracts@1.1.1/src/v0.8/shared/access/ConfirmedOwnerWithProposal.sol\":1649:1651  to */\n      dup2\n        /* \"@chainlink/contracts@1.1.1/src/v0.8/shared/access/ConfirmedOwnerWithProposal.sol\":1649:1665  to != msg.sender */\n      0xffffffffffffffffffffffffffffffffffffffff\n      and\n      sub\n        /* \"@chainlink/contracts@1.1.1/src/v0.8/shared/access/ConfirmedOwnerWithProposal.sol\":1641:1693  require(to != msg.sender, \"Cannot transfer to self\") */\n      tag_145\n      jumpi\n      mload(0x40)\n      0x08c379a000000000000000000000000000000000000000000000000000000000\n      dup2\n      mstore\n      0x04\n      add\n      tag_146\n      swap1\n      tag_147\n      jump\t// in\n    tag_146:\n      mload(0x40)\n      dup1\n      swap2\n      sub\n      swap1\n      revert\n    tag_145:\n        /* \"@chainlink/contracts@1.1.1/src/v0.8/shared/access/ConfirmedOwnerWithProposal.sol\":1717:1719  to */\n      dup1\n        /* \"@chainlink/contracts@1.1.1/src/v0.8/shared/access/ConfirmedOwnerWithProposal.sol\":1700:1714  s_pendingOwner */\n      0x07\n      0x00\n        /* \"@chainlink/contracts@1.1.1/src/v0.8/shared/access/ConfirmedOwnerWithProposal.sol\":1700:1719  s_pendingOwner = to */\n      0x0100\n      exp\n      dup2\n      sload\n      dup2\n      0xffffffffffffffffffffffffffffffffffffffff\n      mul\n      not\n      and\n      swap1\n      dup4\n      0xffffffffffffffffffffffffffffffffffffffff\n      and\n      mul\n      or\n      swap1\n      sstore\n      pop\n        /* \"@chainlink/contracts@1.1.1/src/v0.8/shared/access/ConfirmedOwnerWithProposal.sol\":1767:1769  to */\n      dup1\n        /* \"@chainlink/contracts@1.1.1/src/v0.8/shared/access/ConfirmedOwnerWithProposal.sol\":1731:1770  OwnershipTransferRequested(s_owner, to) */\n      0xffffffffffffffffffffffffffffffffffffffff\n      and\n        /* \"@chainlink/contracts@1.1.1/src/v0.8/shared/access/ConfirmedOwnerWithProposal.sol\":1758:1765  s_owner */\n      0x06\n      0x00\n      swap1\n      sload\n      swap1\n      0x0100\n      exp\n      swap1\n      div\n      0xffffffffffffffffffffffffffffffffffffffff\n      and\n        /* \"@chainlink/contracts@1.1.1/src/v0.8/shared/access/ConfirmedOwnerWithProposal.sol\":1731:1770  OwnershipTransferRequested(s_owner, to) */\n      0xffffffffffffffffffffffffffffffffffffffff\n      and\n      0xed8889f560326eb138920d842192f0eb3dd22b4f139c87a2c57538e05bae1278\n      mload(0x40)\n      mload(0x40)\n      dup1\n      swap2\n      sub\n      swap1\n      log3\n        /* \"@chainlink/contracts@1.1.1/src/v0.8/shared/access/ConfirmedOwnerWithProposal.sol\":1536:1775  function _transferOwnership(address to) private {... */\n      pop\n      jump\t// out\n        /* \"@chainlink/contracts@1.1.1/src/v0.8/Chainlink.sol\":1028:1380  function _initialize(... */\n    tag_131:\n        /* \"@chainlink/contracts@1.1.1/src/v0.8/Chainlink.sol\":1171:1195  Chainlink.Request memory */\n      tag_148\n      tag_127\n      jump\t// in\n    tag_148:\n        /* \"@chainlink/contracts@1.1.1/src/v0.8/Chainlink.sol\":1203:1252  BufferChainlink.init(self.buf, defaultBufferSize) */\n      tag_150\n        /* \"@chainlink/contracts@1.1.1/src/v0.8/Chainlink.sol\":1224:1228  self */\n      dup6\n        /* \"@chainlink/contracts@1.1.1/src/v0.8/Chainlink.sol\":1224:1232  self.buf */\n      0x80\n      add\n      mload\n        /* \"@chainlink/contracts@1.1.1/src/v0.8/Chainlink.sol\":447:450  256 */\n      0x0100\n        /* \"@chainlink/contracts@1.1.1/src/v0.8/Chainlink.sol\":1203:1223  BufferChainlink.init */\n      tag_151\n        /* \"@chainlink/contracts@1.1.1/src/v0.8/Chainlink.sol\":1203:1252  BufferChainlink.init(self.buf, defaultBufferSize) */\n      jump\t// in\n    tag_150:\n      pop\n        /* \"@chainlink/contracts@1.1.1/src/v0.8/Chainlink.sol\":1268:1273  jobId */\n      dup4\n        /* \"@chainlink/contracts@1.1.1/src/v0.8/Chainlink.sol\":1258:1262  self */\n      dup6\n        /* \"@chainlink/contracts@1.1.1/src/v0.8/Chainlink.sol\":1258:1265  self.id */\n      0x00\n      add\n        /* \"@chainlink/contracts@1.1.1/src/v0.8/Chainlink.sol\":1258:1273  self.id = jobId */\n      dup2\n      dup2\n      mstore\n      pop\n      pop\n        /* \"@chainlink/contracts@1.1.1/src/v0.8/Chainlink.sol\":1302:1314  callbackAddr */\n      dup3\n        /* \"@chainlink/contracts@1.1.1/src/v0.8/Chainlink.sol\":1279:1283  self */\n      dup6\n        /* \"@chainlink/contracts@1.1.1/src/v0.8/Chainlink.sol\":1279:1299  self.callbackAddress */\n      0x20\n      add\n        /* \"@chainlink/contracts@1.1.1/src/v0.8/Chainlink.sol\":1279:1314  self.callbackAddress = callbackAddr */\n      swap1\n      0xffffffffffffffffffffffffffffffffffffffff\n      and\n      swap1\n      dup2\n      0xffffffffffffffffffffffffffffffffffffffff\n      and\n      dup2\n      mstore\n      pop\n      pop\n        /* \"@chainlink/contracts@1.1.1/src/v0.8/Chainlink.sol\":1346:1358  callbackFunc */\n      dup2\n        /* \"@chainlink/contracts@1.1.1/src/v0.8/Chainlink.sol\":1320:1324  self */\n      dup6\n        /* \"@chainlink/contracts@1.1.1/src/v0.8/Chainlink.sol\":1320:1343  self.callbackFunctionId */\n      0x40\n      add\n        /* \"@chainlink/contracts@1.1.1/src/v0.8/Chainlink.sol\":1320:1358  self.callbackFunctionId = callbackFunc */\n      swap1\n      not(0xffffffffffffffffffffffffffffffffffffffffffffffffffffffff)\n      and\n      swap1\n      dup2\n      not(0xffffffffffffffffffffffffffffffffffffffffffffffffffffffff)\n      and\n      dup2\n      mstore\n      pop\n      pop\n        /* \"@chainlink/contracts@1.1.1/src/v0.8/Chainlink.sol\":1371:1375  self */\n      dup5\n        /* \"@chainlink/contracts@1.1.1/src/v0.8/Chainlink.sol\":1364:1375  return self */\n      swap1\n      pop\n        /* \"@chainlink/contracts@1.1.1/src/v0.8/Chainlink.sol\":1028:1380  function _initialize(... */\n      swap5\n      swap4\n      pop\n      pop\n      pop\n      pop\n      jump\t// out\n        /* \"@chainlink/contracts@1.1.1/src/v0.8/vendor/CBORChainlink.sol\":2777:2981  function encodeString(BufferChainlink.buffer memory buf, string memory value) internal pure {... */\n    tag_134:\n        /* \"@chainlink/contracts@1.1.1/src/v0.8/vendor/CBORChainlink.sol\":2875:2946  encodeFixedNumeric(buf, MAJOR_TYPE_STRING, uint64(bytes(value).length)) */\n      tag_153\n        /* \"@chainlink/contracts@1.1.1/src/v0.8/vendor/CBORChainlink.sol\":2894:2897  buf */\n      dup3\n        /* \"@chainlink/contracts@1.1.1/src/v0.8/vendor/CBORChainlink.sol\":383:384  3 */\n      0x03\n        /* \"@chainlink/contracts@1.1.1/src/v0.8/vendor/CBORChainlink.sol\":2931:2936  value */\n      dup4\n        /* \"@chainlink/contracts@1.1.1/src/v0.8/vendor/CBORChainlink.sol\":2925:2944  bytes(value).length */\n      mload\n        /* \"@chainlink/contracts@1.1.1/src/v0.8/vendor/CBORChainlink.sol\":2875:2893  encodeFixedNumeric */\n      tag_154\n        /* \"@chainlink/contracts@1.1.1/src/v0.8/vendor/CBORChainlink.sol\":2875:2946  encodeFixedNumeric(buf, MAJOR_TYPE_STRING, uint64(bytes(value).length)) */\n      jump\t// in\n    tag_153:\n        /* \"@chainlink/contracts@1.1.1/src/v0.8/vendor/CBORChainlink.sol\":2952:2976  buf.append(bytes(value)) */\n      tag_155\n        /* \"@chainlink/contracts@1.1.1/src/v0.8/vendor/CBORChainlink.sol\":2969:2974  value */\n      dup2\n        /* \"@chainlink/contracts@1.1.1/src/v0.8/vendor/CBORChainlink.sol\":2952:2955  buf */\n      dup4\n        /* \"@chainlink/contracts@1.1.1/src/v0.8/vendor/CBORChainlink.sol\":2952:2962  buf.append */\n      tag_156\n      swap1\n        /* \"@chainlink/contracts@1.1.1/src/v0.8/vendor/CBORChainlink.sol\":2952:2976  buf.append(bytes(value)) */\n      swap2\n      swap1\n      0xffffffff\n      and\n      jump\t// in\n    tag_155:\n      pop\n        /* \"@chainlink/contracts@1.1.1/src/v0.8/vendor/CBORChainlink.sol\":2777:2981  function encodeString(BufferChainlink.buffer memory buf, string memory value) internal pure {... */\n      pop\n      pop\n      jump\t// out\n        /* \"@chainlink/contracts@1.1.1/src/v0.8/ChainlinkClient.sol\":3882:4639  function _sendChainlinkRequestTo(... */\n    tag_138:\n        /* \"@chainlink/contracts@1.1.1/src/v0.8/ChainlinkClient.sol\":4019:4036  bytes32 requestId */\n      0x00\n        /* \"@chainlink/contracts@1.1.1/src/v0.8/ChainlinkClient.sol\":4044:4057  uint256 nonce */\n      dup1\n        /* \"@chainlink/contracts@1.1.1/src/v0.8/ChainlinkClient.sol\":4060:4074  s_requestCount */\n      sload(0x04)\n        /* \"@chainlink/contracts@1.1.1/src/v0.8/ChainlinkClient.sol\":4044:4074  uint256 nonce = s_requestCount */\n      swap1\n      pop\n        /* \"@chainlink/contracts@1.1.1/src/v0.8/ChainlinkClient.sol\":4105:4106  1 */\n      0x01\n        /* \"@chainlink/contracts@1.1.1/src/v0.8/ChainlinkClient.sol\":4097:4102  nonce */\n      dup2\n        /* \"@chainlink/contracts@1.1.1/src/v0.8/ChainlinkClient.sol\":4097:4106  nonce + 1 */\n      tag_158\n      swap2\n      swap1\n      tag_159\n      jump\t// in\n    tag_158:\n        /* \"@chainlink/contracts@1.1.1/src/v0.8/ChainlinkClient.sol\":4080:4094  s_requestCount */\n      0x04\n        /* \"@chainlink/contracts@1.1.1/src/v0.8/ChainlinkClient.sol\":4080:4106  s_requestCount = nonce + 1 */\n      dup2\n      swap1\n      sstore\n      pop\n        /* \"@chainlink/contracts@1.1.1/src/v0.8/ChainlinkClient.sol\":4112:4139  bytes memory encodedRequest */\n      0x00\n        /* \"@chainlink/contracts@1.1.1/src/v0.8/ChainlinkClient.sol\":4172:4220  ChainlinkRequestInterface.oracleRequest.selector */\n      shl(0xe0, 0x40429946)\n        /* \"@chainlink/contracts@1.1.1/src/v0.8/ChainlinkClient.sol\":975:976  0 */\n      0x00\n        /* \"@chainlink/contracts@1.1.1/src/v0.8/ChainlinkClient.sol\":919:920  0 */\n      dup1\n        /* \"@chainlink/contracts@1.1.1/src/v0.8/ChainlinkClient.sol\":4441:4444  req */\n      dup8\n        /* \"@chainlink/contracts@1.1.1/src/v0.8/ChainlinkClient.sol\":4441:4447  req.id */\n      0x00\n      add\n      mload\n        /* \"@chainlink/contracts@1.1.1/src/v0.8/ChainlinkClient.sol\":4463:4467  this */\n      address\n        /* \"@chainlink/contracts@1.1.1/src/v0.8/ChainlinkClient.sol\":4476:4479  req */\n      dup10\n        /* \"@chainlink/contracts@1.1.1/src/v0.8/ChainlinkClient.sol\":4476:4498  req.callbackFunctionId */\n      0x40\n      add\n      mload\n        /* \"@chainlink/contracts@1.1.1/src/v0.8/ChainlinkClient.sol\":4506:4511  nonce */\n      dup8\n        /* \"@chainlink/contracts@1.1.1/src/v0.8/ChainlinkClient.sol\":1028:1029  1 */\n      0x01\n        /* \"@chainlink/contracts@1.1.1/src/v0.8/ChainlinkClient.sol\":4546:4549  req */\n      dup13\n        /* \"@chainlink/contracts@1.1.1/src/v0.8/ChainlinkClient.sol\":4546:4553  req.buf */\n      0x80\n      add\n      mload\n        /* \"@chainlink/contracts@1.1.1/src/v0.8/ChainlinkClient.sol\":4546:4557  req.buf.buf */\n      0x00\n      add\n      mload\n        /* \"@chainlink/contracts@1.1.1/src/v0.8/ChainlinkClient.sol\":4142:4563  abi.encodeWithSelector(... */\n      add(0x24, mload(0x40))\n      tag_160\n      swap9\n      swap8\n      swap7\n      swap6\n      swap5\n      swap4\n      swap3\n      swap2\n      swap1\n      tag_161\n      jump\t// in\n    tag_160:\n      mload(0x40)\n      0x20\n      dup2\n      dup4\n      sub\n      sub\n      dup2\n      mstore\n      swap1\n      0x40\n      mstore\n      swap1\n      not(0xffffffffffffffffffffffffffffffffffffffffffffffffffffffff)\n      and\n      0x20\n      dup3\n      add\n      dup1\n      mload\n      0xffffffffffffffffffffffffffffffffffffffffffffffffffffffff\n      dup4\n      dup2\n      dup4\n      and\n      or\n      dup4\n      mstore\n      pop\n      pop\n      pop\n      pop\n        /* \"@chainlink/contracts@1.1.1/src/v0.8/ChainlinkClient.sol\":4112:4563  bytes memory encodedRequest = abi.encodeWithSelector(... */\n      swap1\n      pop\n        /* \"@chainlink/contracts@1.1.1/src/v0.8/ChainlinkClient.sol\":4576:4634  _rawRequest(oracleAddress, nonce, payment, encodedRequest) */\n      tag_162\n        /* \"@chainlink/contracts@1.1.1/src/v0.8/ChainlinkClient.sol\":4588:4601  oracleAddress */\n      dup7\n        /* \"@chainlink/contracts@1.1.1/src/v0.8/ChainlinkClient.sol\":4603:4608  nonce */\n      dup4\n        /* \"@chainlink/contracts@1.1.1/src/v0.8/ChainlinkClient.sol\":4610:4617  payment */\n      dup7\n        /* \"@chainlink/contracts@1.1.1/src/v0.8/ChainlinkClient.sol\":4619:4633  encodedRequest */\n      dup5\n        /* \"@chainlink/contracts@1.1.1/src/v0.8/ChainlinkClient.sol\":4576:4587  _rawRequest */\n      tag_163\n        /* \"@chainlink/contracts@1.1.1/src/v0.8/ChainlinkClient.sol\":4576:4634  _rawRequest(oracleAddress, nonce, payment, encodedRequest) */\n      jump\t// in\n    tag_162:\n        /* \"@chainlink/contracts@1.1.1/src/v0.8/ChainlinkClient.sol\":4569:4634  return _rawRequest(oracleAddress, nonce, payment, encodedRequest) */\n      swap3\n      pop\n      pop\n      pop\n        /* \"@chainlink/contracts@1.1.1/src/v0.8/ChainlinkClient.sol\":3882:4639  function _sendChainlinkRequestTo(... */\n      swap4\n      swap3\n      pop\n      pop\n      pop\n      jump\t// out\n        /* \"@chainlink/contracts@1.1.1/src/v0.8/vendor/BufferChainlink.sol\":1001:1400  function init(buffer memory buf, uint256 capacity) internal pure returns (buffer memory) {... */\n    tag_151:\n        /* \"@chainlink/contracts@1.1.1/src/v0.8/vendor/BufferChainlink.sol\":1075:1088  buffer memory */\n      tag_164\n      tag_165\n      jump\t// in\n    tag_164:\n        /* \"@chainlink/contracts@1.1.1/src/v0.8/vendor/BufferChainlink.sol\":1117:1118  0 */\n      0x00\n        /* \"@chainlink/contracts@1.1.1/src/v0.8/vendor/BufferChainlink.sol\":1111:1113  32 */\n      0x20\n        /* \"@chainlink/contracts@1.1.1/src/v0.8/vendor/BufferChainlink.sol\":1100:1108  capacity */\n      dup4\n        /* \"@chainlink/contracts@1.1.1/src/v0.8/vendor/BufferChainlink.sol\":1100:1113  capacity % 32 */\n      tag_167\n      swap2\n      swap1\n      tag_168\n      jump\t// in\n    tag_167:\n        /* \"@chainlink/contracts@1.1.1/src/v0.8/vendor/BufferChainlink.sol\":1100:1118  capacity % 32 != 0 */\n      eq\n        /* \"@chainlink/contracts@1.1.1/src/v0.8/vendor/BufferChainlink.sol\":1096:1167  if (capacity % 32 != 0) {... */\n      tag_169\n      jumpi\n        /* \"@chainlink/contracts@1.1.1/src/v0.8/vendor/BufferChainlink.sol\":1157:1159  32 */\n      0x20\n        /* \"@chainlink/contracts@1.1.1/src/v0.8/vendor/BufferChainlink.sol\":1146:1154  capacity */\n      dup3\n        /* \"@chainlink/contracts@1.1.1/src/v0.8/vendor/BufferChainlink.sol\":1146:1159  capacity % 32 */\n      tag_170\n      swap2\n      swap1\n      tag_168\n      jump\t// in\n    tag_170:\n        /* \"@chainlink/contracts@1.1.1/src/v0.8/vendor/BufferChainlink.sol\":1140:1142  32 */\n      0x20\n        /* \"@chainlink/contracts@1.1.1/src/v0.8/vendor/BufferChainlink.sol\":1140:1160  32 - (capacity % 32) */\n      tag_171\n      swap2\n      swap1\n      tag_172\n      jump\t// in\n    tag_171:\n        /* \"@chainlink/contracts@1.1.1/src/v0.8/vendor/BufferChainlink.sol\":1128:1160  capacity += 32 - (capacity % 32) */\n      dup3\n      tag_173\n      swap2\n      swap1\n      tag_159\n      jump\t// in\n    tag_173:\n      swap2\n      pop\n        /* \"@chainlink/contracts@1.1.1/src/v0.8/vendor/BufferChainlink.sol\":1096:1167  if (capacity % 32 != 0) {... */\n    tag_169:\n        /* \"@chainlink/contracts@1.1.1/src/v0.8/vendor/BufferChainlink.sol\":1229:1237  capacity */\n      dup2\n        /* \"@chainlink/contracts@1.1.1/src/v0.8/vendor/BufferChainlink.sol\":1214:1217  buf */\n      dup4\n        /* \"@chainlink/contracts@1.1.1/src/v0.8/vendor/BufferChainlink.sol\":1214:1226  buf.capacity */\n      0x20\n      add\n        /* \"@chainlink/contracts@1.1.1/src/v0.8/vendor/BufferChainlink.sol\":1214:1237  buf.capacity = capacity */\n      dup2\n      dup2\n      mstore\n      pop\n      pop\n        /* \"@chainlink/contracts@1.1.1/src/v0.8/vendor/BufferChainlink.sol\":1277:1281  0x40 */\n      0x40\n        /* \"@chainlink/contracts@1.1.1/src/v0.8/vendor/BufferChainlink.sol\":1271:1282  mload(0x40) */\n      mload\n        /* \"@chainlink/contracts@1.1.1/src/v0.8/vendor/BufferChainlink.sol\":1301:1304  ptr */\n      dup1\n        /* \"@chainlink/contracts@1.1.1/src/v0.8/vendor/BufferChainlink.sol\":1296:1299  buf */\n      dup5\n        /* \"@chainlink/contracts@1.1.1/src/v0.8/vendor/BufferChainlink.sol\":1289:1305  mstore(buf, ptr) */\n      mstore\n        /* \"@chainlink/contracts@1.1.1/src/v0.8/vendor/BufferChainlink.sol\":1324:1325  0 */\n      0x00\n        /* \"@chainlink/contracts@1.1.1/src/v0.8/vendor/BufferChainlink.sol\":1319:1322  ptr */\n      dup2\n        /* \"@chainlink/contracts@1.1.1/src/v0.8/vendor/BufferChainlink.sol\":1312:1326  mstore(ptr, 0) */\n      mstore\n        /* \"@chainlink/contracts@1.1.1/src/v0.8/vendor/BufferChainlink.sol\":1363:1371  capacity */\n      dup3\n        /* \"@chainlink/contracts@1.1.1/src/v0.8/vendor/BufferChainlink.sol\":1358:1361  ptr */\n      dup2\n        /* \"@chainlink/contracts@1.1.1/src/v0.8/vendor/BufferChainlink.sol\":1354:1372  add(ptr, capacity) */\n      add\n        /* \"@chainlink/contracts@1.1.1/src/v0.8/vendor/BufferChainlink.sol\":1350:1352  32 */\n      0x20\n        /* \"@chainlink/contracts@1.1.1/src/v0.8/vendor/BufferChainlink.sol\":1346:1373  add(32, add(ptr, capacity)) */\n      add\n        /* \"@chainlink/contracts@1.1.1/src/v0.8/vendor/BufferChainlink.sol\":1340:1344  0x40 */\n      0x40\n        /* \"@chainlink/contracts@1.1.1/src/v0.8/vendor/BufferChainlink.sol\":1333:1374  mstore(0x40, add(32, add(ptr, capacity))) */\n      mstore\n        /* \"@chainlink/contracts@1.1.1/src/v0.8/vendor/BufferChainlink.sol\":1252:1380  {... */\n      pop\n        /* \"@chainlink/contracts@1.1.1/src/v0.8/vendor/BufferChainlink.sol\":1392:1395  buf */\n      dup3\n        /* \"@chainlink/contracts@1.1.1/src/v0.8/vendor/BufferChainlink.sol\":1385:1395  return buf */\n      swap1\n      pop\n        /* \"@chainlink/contracts@1.1.1/src/v0.8/vendor/BufferChainlink.sol\":1001:1400  function init(buffer memory buf, uint256 capacity) internal pure returns (buffer memory) {... */\n      swap3\n      swap2\n      pop\n      pop\n      jump\t// out\n        /* \"@chainlink/contracts@1.1.1/src/v0.8/vendor/CBORChainlink.sol\":682:1307  function encodeFixedNumeric(BufferChainlink.buffer memory buf, uint8 major, uint64 value) private pure {... */\n    tag_154:\n        /* \"@chainlink/contracts@1.1.1/src/v0.8/vendor/CBORChainlink.sol\":803:805  23 */\n      0x17\n        /* \"@chainlink/contracts@1.1.1/src/v0.8/vendor/CBORChainlink.sol\":794:799  value */\n      dup2\n        /* \"@chainlink/contracts@1.1.1/src/v0.8/vendor/CBORChainlink.sol\":794:805  value <= 23 */\n      0xffffffffffffffff\n      and\n      gt\n        /* \"@chainlink/contracts@1.1.1/src/v0.8/vendor/CBORChainlink.sol\":791:1303  if(value <= 23) {... */\n      tag_175\n      jumpi\n        /* \"@chainlink/contracts@1.1.1/src/v0.8/vendor/CBORChainlink.sol\":815:859  buf.appendUint8(uint8((major << 5) | value)) */\n      tag_176\n        /* \"@chainlink/contracts@1.1.1/src/v0.8/vendor/CBORChainlink.sol\":852:857  value */\n      dup2\n        /* \"@chainlink/contracts@1.1.1/src/v0.8/vendor/CBORChainlink.sol\":847:848  5 */\n      0x05\n        /* \"@chainlink/contracts@1.1.1/src/v0.8/vendor/CBORChainlink.sol\":838:843  major */\n      dup5\n        /* \"@chainlink/contracts@1.1.1/src/v0.8/vendor/CBORChainlink.sol\":838:848  major << 5 */\n      0xff\n      and\n      swap1\n      shl\n        /* \"@chainlink/contracts@1.1.1/src/v0.8/vendor/CBORChainlink.sol\":837:857  (major << 5) | value */\n      0xff\n      and\n      or\n        /* \"@chainlink/contracts@1.1.1/src/v0.8/vendor/CBORChainlink.sol\":815:818  buf */\n      dup5\n        /* \"@chainlink/contracts@1.1.1/src/v0.8/vendor/CBORChainlink.sol\":815:830  buf.appendUint8 */\n      tag_177\n      swap1\n        /* \"@chainlink/contracts@1.1.1/src/v0.8/vendor/CBORChainlink.sol\":815:859  buf.appendUint8(uint8((major << 5) | value)) */\n      swap2\n      swap1\n      0xffffffff\n      and\n      jump\t// in\n    tag_176:\n      pop\n        /* \"@chainlink/contracts@1.1.1/src/v0.8/vendor/CBORChainlink.sol\":791:1303  if(value <= 23) {... */\n      jump(tag_178)\n    tag_175:\n        /* \"@chainlink/contracts@1.1.1/src/v0.8/vendor/CBORChainlink.sol\":885:889  0xFF */\n      0xff\n        /* \"@chainlink/contracts@1.1.1/src/v0.8/vendor/CBORChainlink.sol\":876:881  value */\n      dup2\n        /* \"@chainlink/contracts@1.1.1/src/v0.8/vendor/CBORChainlink.sol\":876:889  value <= 0xFF */\n      0xffffffffffffffff\n      and\n      gt\n        /* \"@chainlink/contracts@1.1.1/src/v0.8/vendor/CBORChainlink.sol\":872:1303  if (value <= 0xFF) {... */\n      tag_179\n      jumpi\n        /* \"@chainlink/contracts@1.1.1/src/v0.8/vendor/CBORChainlink.sol\":899:940  buf.appendUint8(uint8((major << 5) | 24)) */\n      tag_180\n        /* \"@chainlink/contracts@1.1.1/src/v0.8/vendor/CBORChainlink.sol\":936:938  24 */\n      0x18\n        /* \"@chainlink/contracts@1.1.1/src/v0.8/vendor/CBORChainlink.sol\":931:932  5 */\n      0x05\n        /* \"@chainlink/contracts@1.1.1/src/v0.8/vendor/CBORChainlink.sol\":922:927  major */\n      dup5\n        /* \"@chainlink/contracts@1.1.1/src/v0.8/vendor/CBORChainlink.sol\":922:932  major << 5 */\n      0xff\n      and\n      swap1\n      shl\n        /* \"@chainlink/contracts@1.1.1/src/v0.8/vendor/CBORChainlink.sol\":921:938  (major << 5) | 24 */\n      or\n        /* \"@chainlink/contracts@1.1.1/src/v0.8/vendor/CBORChainlink.sol\":899:902  buf */\n      dup5\n        /* \"@chainlink/contracts@1.1.1/src/v0.8/vendor/CBORChainlink.sol\":899:914  buf.appendUint8 */\n      tag_177\n      swap1\n        /* \"@chainlink/contracts@1.1.1/src/v0.8/vendor/CBORChainlink.sol\":899:940  buf.appendUint8(uint8((major << 5) | 24)) */\n      swap2\n      swap1\n      0xffffffff\n      and\n      jump\t// in\n    tag_180:\n      pop\n        /* \"@chainlink/contracts@1.1.1/src/v0.8/vendor/CBORChainlink.sol\":948:971  buf.appendInt(value, 1) */\n      tag_181\n        /* \"@chainlink/contracts@1.1.1/src/v0.8/vendor/CBORChainlink.sol\":962:967  value */\n      dup2\n        /* \"@chainlink/contracts@1.1.1/src/v0.8/vendor/CBORChainlink.sol\":948:971  buf.appendInt(value, 1) */\n      0xffffffffffffffff\n      and\n        /* \"@chainlink/contracts@1.1.1/src/v0.8/vendor/CBORChainlink.sol\":969:970  1 */\n      0x01\n        /* \"@chainlink/contracts@1.1.1/src/v0.8/vendor/CBORChainlink.sol\":948:951  buf */\n      dup6\n        /* \"@chainlink/contracts@1.1.1/src/v0.8/vendor/CBORChainlink.sol\":948:961  buf.appendInt */\n      tag_182\n      swap1\n        /* \"@chainlink/contracts@1.1.1/src/v0.8/vendor/CBORChainlink.sol\":948:971  buf.appendInt(value, 1) */\n      swap3\n      swap2\n      swap1\n      0xffffffff\n      and\n      jump\t// in\n    tag_181:\n      pop\n        /* \"@chainlink/contracts@1.1.1/src/v0.8/vendor/CBORChainlink.sol\":872:1303  if (value <= 0xFF) {... */\n      jump(tag_183)\n    tag_179:\n        /* \"@chainlink/contracts@1.1.1/src/v0.8/vendor/CBORChainlink.sol\":997:1003  0xFFFF */\n      0xffff\n        /* \"@chainlink/contracts@1.1.1/src/v0.8/vendor/CBORChainlink.sol\":988:993  value */\n      dup2\n        /* \"@chainlink/contracts@1.1.1/src/v0.8/vendor/CBORChainlink.sol\":988:1003  value <= 0xFFFF */\n      0xffffffffffffffff\n      and\n      gt\n        /* \"@chainlink/contracts@1.1.1/src/v0.8/vendor/CBORChainlink.sol\":984:1303  if (value <= 0xFFFF) {... */\n      tag_184\n      jumpi\n        /* \"@chainlink/contracts@1.1.1/src/v0.8/vendor/CBORChainlink.sol\":1013:1054  buf.appendUint8(uint8((major << 5) | 25)) */\n      tag_185\n        /* \"@chainlink/contracts@1.1.1/src/v0.8/vendor/CBORChainlink.sol\":1050:1052  25 */\n      0x19\n        /* \"@chainlink/contracts@1.1.1/src/v0.8/vendor/CBORChainlink.sol\":1045:1046  5 */\n      0x05\n        /* \"@chainlink/contracts@1.1.1/src/v0.8/vendor/CBORChainlink.sol\":1036:1041  major */\n      dup5\n        /* \"@chainlink/contracts@1.1.1/src/v0.8/vendor/CBORChainlink.sol\":1036:1046  major << 5 */\n      0xff\n      and\n      swap1\n      shl\n        /* \"@chainlink/contracts@1.1.1/src/v0.8/vendor/CBORChainlink.sol\":1035:1052  (major << 5) | 25 */\n      or\n        /* \"@chainlink/contracts@1.1.1/src/v0.8/vendor/CBORChainlink.sol\":1013:1016  buf */\n      dup5\n        /* \"@chainlink/contracts@1.1.1/src/v0.8/vendor/CBORChainlink.sol\":1013:1028  buf.appendUint8 */\n      tag_177\n      swap1\n        /* \"@chainlink/contracts@1.1.1/src/v0.8/vendor/CBORChainlink.sol\":1013:1054  buf.appendUint8(uint8((major << 5) | 25)) */\n      swap2\n      swap1\n      0xffffffff\n      and\n      jump\t// in\n    tag_185:\n      pop\n        /* \"@chainlink/contracts@1.1.1/src/v0.8/vendor/CBORChainlink.sol\":1062:1085  buf.appendInt(value, 2) */\n      tag_186\n        /* \"@chainlink/contracts@1.1.1/src/v0.8/vendor/CBORChainlink.sol\":1076:1081  value */\n      dup2\n        /* \"@chainlink/contracts@1.1.1/src/v0.8/vendor/CBORChainlink.sol\":1062:1085  buf.appendInt(value, 2) */\n      0xffffffffffffffff\n      and\n        /* \"@chainlink/contracts@1.1.1/src/v0.8/vendor/CBORChainlink.sol\":1083:1084  2 */\n      0x02\n        /* \"@chainlink/contracts@1.1.1/src/v0.8/vendor/CBORChainlink.sol\":1062:1065  buf */\n      dup6\n        /* \"@chainlink/contracts@1.1.1/src/v0.8/vendor/CBORChainlink.sol\":1062:1075  buf.appendInt */\n      tag_182\n      swap1\n        /* \"@chainlink/contracts@1.1.1/src/v0.8/vendor/CBORChainlink.sol\":1062:1085  buf.appendInt(value, 2) */\n      swap3\n      swap2\n      swap1\n      0xffffffff\n      and\n      jump\t// in\n    tag_186:\n      pop\n        /* \"@chainlink/contracts@1.1.1/src/v0.8/vendor/CBORChainlink.sol\":984:1303  if (value <= 0xFFFF) {... */\n      jump(tag_187)\n    tag_184:\n        /* \"@chainlink/contracts@1.1.1/src/v0.8/vendor/CBORChainlink.sol\":1111:1121  0xFFFFFFFF */\n      0xffffffff\n        /* \"@chainlink/contracts@1.1.1/src/v0.8/vendor/CBORChainlink.sol\":1102:1107  value */\n      dup2\n        /* \"@chainlink/contracts@1.1.1/src/v0.8/vendor/CBORChainlink.sol\":1102:1121  value <= 0xFFFFFFFF */\n      0xffffffffffffffff\n      and\n      gt\n        /* \"@chainlink/contracts@1.1.1/src/v0.8/vendor/CBORChainlink.sol\":1098:1303  if (value <= 0xFFFFFFFF) {... */\n      tag_188\n      jumpi\n        /* \"@chainlink/contracts@1.1.1/src/v0.8/vendor/CBORChainlink.sol\":1131:1172  buf.appendUint8(uint8((major << 5) | 26)) */\n      tag_189\n        /* \"@chainlink/contracts@1.1.1/src/v0.8/vendor/CBORChainlink.sol\":1168:1170  26 */\n      0x1a\n        /* \"@chainlink/contracts@1.1.1/src/v0.8/vendor/CBORChainlink.sol\":1163:1164  5 */\n      0x05\n        /* \"@chainlink/contracts@1.1.1/src/v0.8/vendor/CBORChainlink.sol\":1154:1159  major */\n      dup5\n        /* \"@chainlink/contracts@1.1.1/src/v0.8/vendor/CBORChainlink.sol\":1154:1164  major << 5 */\n      0xff\n      and\n      swap1\n      shl\n        /* \"@chainlink/contracts@1.1.1/src/v0.8/vendor/CBORChainlink.sol\":1153:1170  (major << 5) | 26 */\n      or\n        /* \"@chainlink/contracts@1.1.1/src/v0.8/vendor/CBORChainlink.sol\":1131:1134  buf */\n      dup5\n        /* \"@chainlink/contracts@1.1.1/src/v0.8/vendor/CBORChainlink.sol\":1131:1146  buf.appendUint8 */\n      tag_177\n      swap1\n        /* \"@chainlink/contracts@1.1.1/src/v0.8/vendor/CBORChainlink.sol\":1131:1172  buf.appendUint8(uint8((major << 5) | 26)) */\n      swap2\n      swap1\n      0xffffffff\n      and\n      jump\t// in\n    tag_189:\n      pop\n        /* \"@chainlink/contracts@1.1.1/src/v0.8/vendor/CBORChainlink.sol\":1180:1203  buf.appendInt(value, 4) */\n      tag_190\n        /* \"@chainlink/contracts@1.1.1/src/v0.8/vendor/CBORChainlink.sol\":1194:1199  value */\n      dup2\n        /* \"@chainlink/contracts@1.1.1/src/v0.8/vendor/CBORChainlink.sol\":1180:1203  buf.appendInt(value, 4) */\n      0xffffffffffffffff\n      and\n        /* \"@chainlink/contracts@1.1.1/src/v0.8/vendor/CBORChainlink.sol\":1201:1202  4 */\n      0x04\n        /* \"@chainlink/contracts@1.1.1/src/v0.8/vendor/CBORChainlink.sol\":1180:1183  buf */\n      dup6\n        /* \"@chainlink/contracts@1.1.1/src/v0.8/vendor/CBORChainlink.sol\":1180:1193  buf.appendInt */\n      tag_182\n      swap1\n        /* \"@chainlink/contracts@1.1.1/src/v0.8/vendor/CBORChainlink.sol\":1180:1203  buf.appendInt(value, 4) */\n      swap3\n      swap2\n      swap1\n      0xffffffff\n      and\n      jump\t// in\n    tag_190:\n      pop\n        /* \"@chainlink/contracts@1.1.1/src/v0.8/vendor/CBORChainlink.sol\":1098:1303  if (value <= 0xFFFFFFFF) {... */\n      jump(tag_191)\n    tag_188:\n        /* \"@chainlink/contracts@1.1.1/src/v0.8/vendor/CBORChainlink.sol\":1224:1265  buf.appendUint8(uint8((major << 5) | 27)) */\n      tag_192\n        /* \"@chainlink/contracts@1.1.1/src/v0.8/vendor/CBORChainlink.sol\":1261:1263  27 */\n      0x1b\n        /* \"@chainlink/contracts@1.1.1/src/v0.8/vendor/CBORChainlink.sol\":1256:1257  5 */\n      0x05\n        /* \"@chainlink/contracts@1.1.1/src/v0.8/vendor/CBORChainlink.sol\":1247:1252  major */\n      dup5\n        /* \"@chainlink/contracts@1.1.1/src/v0.8/vendor/CBORChainlink.sol\":1247:1257  major << 5 */\n      0xff\n      and\n      swap1\n      shl\n        /* \"@chainlink/contracts@1.1.1/src/v0.8/vendor/CBORChainlink.sol\":1246:1263  (major << 5) | 27 */\n      or\n        /* \"@chainlink/contracts@1.1.1/src/v0.8/vendor/CBORChainlink.sol\":1224:1227  buf */\n      dup5\n        /* \"@chainlink/contracts@1.1.1/src/v0.8/vendor/CBORChainlink.sol\":1224:1239  buf.appendUint8 */\n      tag_177\n      swap1\n        /* \"@chainlink/contracts@1.1.1/src/v0.8/vendor/CBORChainlink.sol\":1224:1265  buf.appendUint8(uint8((major << 5) | 27)) */\n      swap2\n      swap1\n      0xffffffff\n      and\n      jump\t// in\n    tag_192:\n      pop\n        /* \"@chainlink/contracts@1.1.1/src/v0.8/vendor/CBORChainlink.sol\":1273:1296  buf.appendInt(value, 8) */\n      tag_193\n        /* \"@chainlink/contracts@1.1.1/src/v0.8/vendor/CBORChainlink.sol\":1287:1292  value */\n      dup2\n        /* \"@chainlink/contracts@1.1.1/src/v0.8/vendor/CBORChainlink.sol\":1273:1296  buf.appendInt(value, 8) */\n      0xffffffffffffffff\n      and\n        /* \"@chainlink/contracts@1.1.1/src/v0.8/vendor/CBORChainlink.sol\":1294:1295  8 */\n      0x08\n        /* \"@chainlink/contracts@1.1.1/src/v0.8/vendor/CBORChainlink.sol\":1273:1276  buf */\n      dup6\n        /* \"@chainlink/contracts@1.1.1/src/v0.8/vendor/CBORChainlink.sol\":1273:1286  buf.appendInt */\n      tag_182\n      swap1\n        /* \"@chainlink/contracts@1.1.1/src/v0.8/vendor/CBORChainlink.sol\":1273:1296  buf.appendInt(value, 8) */\n      swap3\n      swap2\n      swap1\n      0xffffffff\n      and\n      jump\t// in\n    tag_193:\n      pop\n        /* \"@chainlink/contracts@1.1.1/src/v0.8/vendor/CBORChainlink.sol\":1098:1303  if (value <= 0xFFFFFFFF) {... */\n    tag_191:\n        /* \"@chainlink/contracts@1.1.1/src/v0.8/vendor/CBORChainlink.sol\":984:1303  if (value <= 0xFFFF) {... */\n    tag_187:\n        /* \"@chainlink/contracts@1.1.1/src/v0.8/vendor/CBORChainlink.sol\":872:1303  if (value <= 0xFF) {... */\n    tag_183:\n        /* \"@chainlink/contracts@1.1.1/src/v0.8/vendor/CBORChainlink.sol\":791:1303  if(value <= 23) {... */\n    tag_178:\n        /* \"@chainlink/contracts@1.1.1/src/v0.8/vendor/CBORChainlink.sol\":682:1307  function encodeFixedNumeric(BufferChainlink.buffer memory buf, uint8 major, uint64 value) private pure {... */\n      pop\n      pop\n      pop\n      jump\t// out\n        /* \"@chainlink/contracts@1.1.1/src/v0.8/vendor/BufferChainlink.sol\":4692:4847  function append(buffer memory buf, bytes memory data) internal pure returns (buffer memory) {... */\n    tag_156:\n        /* \"@chainlink/contracts@1.1.1/src/v0.8/vendor/BufferChainlink.sol\":4769:4782  buffer memory */\n      tag_194\n      tag_165\n      jump\t// in\n    tag_194:\n        /* \"@chainlink/contracts@1.1.1/src/v0.8/vendor/BufferChainlink.sol\":4797:4842  write(buf, buf.buf.length, data, data.length) */\n      tag_196\n        /* \"@chainlink/contracts@1.1.1/src/v0.8/vendor/BufferChainlink.sol\":4803:4806  buf */\n      dup4\n        /* \"@chainlink/contracts@1.1.1/src/v0.8/vendor/BufferChainlink.sol\":4808:4811  buf */\n      dup5\n        /* \"@chainlink/contracts@1.1.1/src/v0.8/vendor/BufferChainlink.sol\":4808:4815  buf.buf */\n      0x00\n      add\n      mload\n        /* \"@chainlink/contracts@1.1.1/src/v0.8/vendor/BufferChainlink.sol\":4808:4822  buf.buf.length */\n      mload\n        /* \"@chainlink/contracts@1.1.1/src/v0.8/vendor/BufferChainlink.sol\":4824:4828  data */\n      dup5\n        /* \"@chainlink/contracts@1.1.1/src/v0.8/vendor/BufferChainlink.sol\":4830:4834  data */\n      dup6\n        /* \"@chainlink/contracts@1.1.1/src/v0.8/vendor/BufferChainlink.sol\":4830:4841  data.length */\n      mload\n        /* \"@chainlink/contracts@1.1.1/src/v0.8/vendor/BufferChainlink.sol\":4797:4802  write */\n      tag_197\n        /* \"@chainlink/contracts@1.1.1/src/v0.8/vendor/BufferChainlink.sol\":4797:4842  write(buf, buf.buf.length, data, data.length) */\n      jump\t// in\n    tag_196:\n        /* \"@chainlink/contracts@1.1.1/src/v0.8/vendor/BufferChainlink.sol\":4790:4842  return write(buf, buf.buf.length, data, data.length) */\n      swap1\n      pop\n        /* \"@chainlink/contracts@1.1.1/src/v0.8/vendor/BufferChainlink.sol\":4692:4847  function append(buffer memory buf, bytes memory data) internal pure returns (buffer memory) {... */\n      swap3\n      swap2\n      pop\n      pop\n      jump\t// out\n        /* \"@chainlink/contracts@1.1.1/src/v0.8/ChainlinkClient.sol\":6828:7280  function _rawRequest(... */\n    tag_163:\n        /* \"@chainlink/contracts@1.1.1/src/v0.8/ChainlinkClient.sol\":6970:6987  bytes32 requestId */\n      0x00\n        /* \"@chainlink/contracts@1.1.1/src/v0.8/ChainlinkClient.sol\":7034:7038  this */\n      address\n        /* \"@chainlink/contracts@1.1.1/src/v0.8/ChainlinkClient.sol\":7040:7045  nonce */\n      dup5\n        /* \"@chainlink/contracts@1.1.1/src/v0.8/ChainlinkClient.sol\":7017:7046  abi.encodePacked(this, nonce) */\n      add(0x20, mload(0x40))\n      tag_199\n      swap3\n      swap2\n      swap1\n      tag_200\n      jump\t// in\n    tag_199:\n      mload(0x40)\n      0x20\n      dup2\n      dup4\n      sub\n      sub\n      dup2\n      mstore\n      swap1\n      0x40\n      mstore\n        /* \"@chainlink/contracts@1.1.1/src/v0.8/ChainlinkClient.sol\":7007:7047  keccak256(abi.encodePacked(this, nonce)) */\n      dup1\n      mload\n      swap1\n      0x20\n      add\n      keccak256\n        /* \"@chainlink/contracts@1.1.1/src/v0.8/ChainlinkClient.sol\":6995:7047  requestId = keccak256(abi.encodePacked(this, nonce)) */\n      swap1\n      pop\n        /* \"@chainlink/contracts@1.1.1/src/v0.8/ChainlinkClient.sol\":7084:7097  oracleAddress */\n      dup5\n        /* \"@chainlink/contracts@1.1.1/src/v0.8/ChainlinkClient.sol\":7053:7070  s_pendingRequests */\n      0x05\n        /* \"@chainlink/contracts@1.1.1/src/v0.8/ChainlinkClient.sol\":7053:7081  s_pendingRequests[requestId] */\n      0x00\n        /* \"@chainlink/contracts@1.1.1/src/v0.8/ChainlinkClient.sol\":7071:7080  requestId */\n      dup4\n        /* \"@chainlink/contracts@1.1.1/src/v0.8/ChainlinkClient.sol\":7053:7081  s_pendingRequests[requestId] */\n      dup2\n      mstore\n      0x20\n      add\n      swap1\n      dup2\n      mstore\n      0x20\n      add\n      0x00\n      keccak256\n      0x00\n        /* \"@chainlink/contracts@1.1.1/src/v0.8/ChainlinkClient.sol\":7053:7097  s_pendingRequests[requestId] = oracleAddress */\n      0x0100\n      exp\n      dup2\n      sload\n      dup2\n      0xffffffffffffffffffffffffffffffffffffffff\n      mul\n      not\n      and\n      swap1\n      dup4\n      0xffffffffffffffffffffffffffffffffffffffff\n      and\n      mul\n      or\n      swap1\n      sstore\n      pop\n        /* \"@chainlink/contracts@1.1.1/src/v0.8/ChainlinkClient.sol\":7127:7136  requestId */\n      dup1\n        /* \"@chainlink/contracts@1.1.1/src/v0.8/ChainlinkClient.sol\":7108:7137  ChainlinkRequested(requestId) */\n      0xb5e6e01e79f91267dc17b4e6314d5d4d03593d2ceee0fbb452b750bd70ea5af9\n      mload(0x40)\n      mload(0x40)\n      dup1\n      swap2\n      sub\n      swap1\n      log2\n        /* \"@chainlink/contracts@1.1.1/src/v0.8/ChainlinkClient.sol\":7151:7157  s_link */\n      0x02\n      0x00\n      swap1\n      sload\n      swap1\n      0x0100\n      exp\n      swap1\n      div\n      0xffffffffffffffffffffffffffffffffffffffff\n      and\n        /* \"@chainlink/contracts@1.1.1/src/v0.8/ChainlinkClient.sol\":7151:7173  s_link.transferAndCall */\n      0xffffffffffffffffffffffffffffffffffffffff\n      and\n      0x4000aea0\n        /* \"@chainlink/contracts@1.1.1/src/v0.8/ChainlinkClient.sol\":7174:7187  oracleAddress */\n      dup7\n        /* \"@chainlink/contracts@1.1.1/src/v0.8/ChainlinkClient.sol\":7189:7196  payment */\n      dup6\n        /* \"@chainlink/contracts@1.1.1/src/v0.8/ChainlinkClient.sol\":7198:7212  encodedRequest */\n      dup6\n        /* \"@chainlink/contracts@1.1.1/src/v0.8/ChainlinkClient.sol\":7151:7213  s_link.transferAndCall(oracleAddress, payment, encodedRequest) */\n      mload(0x40)\n      dup5\n      0xffffffff\n      and\n      0xe0\n      shl\n      dup2\n      mstore\n      0x04\n      add\n      tag_201\n      swap4\n      swap3\n      swap2\n      swap1\n      tag_202\n      jump\t// in\n    tag_201:\n      0x20\n      mload(0x40)\n      dup1\n      dup4\n      sub\n      dup2\n      0x00\n      dup8\n      gas\n      call\n      iszero\n      dup1\n      iszero\n      tag_204\n      jumpi\n      returndatasize\n      0x00\n      dup1\n      returndatacopy\n      revert(0x00, returndatasize)\n    tag_204:\n      pop\n      pop\n      pop\n      pop\n      mload(0x40)\n      returndatasize\n      not(0x1f)\n      0x1f\n      dup3\n      add\n      and\n      dup3\n      add\n      dup1\n      0x40\n      mstore\n      pop\n      dup2\n      add\n      swap1\n      tag_205\n      swap2\n      swap1\n      tag_107\n      jump\t// in\n    tag_205:\n        /* \"@chainlink/contracts@1.1.1/src/v0.8/ChainlinkClient.sol\":7143:7253  require(s_link.transferAndCall(oracleAddress, payment, encodedRequest), \"unable to transferAndCall to oracle\") */\n      tag_206\n      jumpi\n      mload(0x40)\n      0x08c379a000000000000000000000000000000000000000000000000000000000\n      dup2\n      mstore\n      0x04\n      add\n      tag_207\n      swap1\n      tag_208\n      jump\t// in\n    tag_207:\n      mload(0x40)\n      dup1\n      swap2\n      sub\n      swap1\n      revert\n    tag_206:\n        /* \"@chainlink/contracts@1.1.1/src/v0.8/ChainlinkClient.sol\":6828:7280  function _rawRequest(... */\n      swap5\n      swap4\n      pop\n      pop\n      pop\n      pop\n      jump\t// out\n        /* \"@chainlink/contracts@1.1.1/src/v0.8/vendor/BufferChainlink.sol\":6040:6185  function appendUint8(buffer memory buf, uint8 data) internal pure returns (buffer memory) {... */\n    tag_177:\n        /* \"@chainlink/contracts@1.1.1/src/v0.8/vendor/BufferChainlink.sol\":6115:6128  buffer memory */\n      tag_209\n      tag_165\n      jump\t// in\n    tag_209:\n        /* \"@chainlink/contracts@1.1.1/src/v0.8/vendor/BufferChainlink.sol\":6143:6180  writeUint8(buf, buf.buf.length, data) */\n      tag_211\n        /* \"@chainlink/contracts@1.1.1/src/v0.8/vendor/BufferChainlink.sol\":6154:6157  buf */\n      dup4\n        /* \"@chainlink/contracts@1.1.1/src/v0.8/vendor/BufferChainlink.sol\":6159:6162  buf */\n      dup5\n        /* \"@chainlink/contracts@1.1.1/src/v0.8/vendor/BufferChainlink.sol\":6159:6166  buf.buf */\n      0x00\n      add\n      mload\n        /* \"@chainlink/contracts@1.1.1/src/v0.8/vendor/BufferChainlink.sol\":6159:6173  buf.buf.length */\n      mload\n        /* \"@chainlink/contracts@1.1.1/src/v0.8/vendor/BufferChainlink.sol\":6175:6179  data */\n      dup5\n        /* \"@chainlink/contracts@1.1.1/src/v0.8/vendor/BufferChainlink.sol\":6143:6153  writeUint8 */\n      tag_212\n        /* \"@chainlink/contracts@1.1.1/src/v0.8/vendor/BufferChainlink.sol\":6143:6180  writeUint8(buf, buf.buf.length, data) */\n      jump\t// in\n    tag_211:\n        /* \"@chainlink/contracts@1.1.1/src/v0.8/vendor/BufferChainlink.sol\":6136:6180  return writeUint8(buf, buf.buf.length, data) */\n      swap1\n      pop\n        /* \"@chainlink/contracts@1.1.1/src/v0.8/vendor/BufferChainlink.sol\":6040:6185  function appendUint8(buffer memory buf, uint8 data) internal pure returns (buffer memory) {... */\n      swap3\n      swap2\n      pop\n      pop\n      jump\t// out\n        /* \"@chainlink/contracts@1.1.1/src/v0.8/vendor/BufferChainlink.sol\":9894:10071  function appendInt(... */\n    tag_182:\n        /* \"@chainlink/contracts@1.1.1/src/v0.8/vendor/BufferChainlink.sol\":9998:10011  buffer memory */\n      tag_213\n      tag_165\n      jump\t// in\n    tag_213:\n        /* \"@chainlink/contracts@1.1.1/src/v0.8/vendor/BufferChainlink.sol\":10026:10066  writeInt(buf, buf.buf.length, data, len) */\n      tag_215\n        /* \"@chainlink/contracts@1.1.1/src/v0.8/vendor/BufferChainlink.sol\":10035:10038  buf */\n      dup5\n        /* \"@chainlink/contracts@1.1.1/src/v0.8/vendor/BufferChainlink.sol\":10040:10043  buf */\n      dup6\n        /* \"@chainlink/contracts@1.1.1/src/v0.8/vendor/BufferChainlink.sol\":10040:10047  buf.buf */\n      0x00\n      add\n      mload\n        /* \"@chainlink/contracts@1.1.1/src/v0.8/vendor/BufferChainlink.sol\":10040:10054  buf.buf.length */\n      mload\n        /* \"@chainlink/contracts@1.1.1/src/v0.8/vendor/BufferChainlink.sol\":10056:10060  data */\n      dup6\n        /* \"@chainlink/contracts@1.1.1/src/v0.8/vendor/BufferChainlink.sol\":10062:10065  len */\n      dup6\n        /* \"@chainlink/contracts@1.1.1/src/v0.8/vendor/BufferChainlink.sol\":10026:10034  writeInt */\n      tag_216\n        /* \"@chainlink/contracts@1.1.1/src/v0.8/vendor/BufferChainlink.sol\":10026:10066  writeInt(buf, buf.buf.length, data, len) */\n      jump\t// in\n    tag_215:\n        /* \"@chainlink/contracts@1.1.1/src/v0.8/vendor/BufferChainlink.sol\":10019:10066  return writeInt(buf, buf.buf.length, data, len) */\n      swap1\n      pop\n        /* \"@chainlink/contracts@1.1.1/src/v0.8/vendor/BufferChainlink.sol\":9894:10071  function appendInt(... */\n      swap4\n      swap3\n      pop\n      pop\n      pop\n      jump\t// out\n        /* \"@chainlink/contracts@1.1.1/src/v0.8/vendor/BufferChainlink.sol\":2745:3955  function write(... */\n    tag_197:\n        /* \"@chainlink/contracts@1.1.1/src/v0.8/vendor/BufferChainlink.sol\":2867:2880  buffer memory */\n      tag_217\n      tag_165\n      jump\t// in\n    tag_217:\n        /* \"@chainlink/contracts@1.1.1/src/v0.8/vendor/BufferChainlink.sol\":2903:2907  data */\n      dup3\n        /* \"@chainlink/contracts@1.1.1/src/v0.8/vendor/BufferChainlink.sol\":2903:2914  data.length */\n      mload\n        /* \"@chainlink/contracts@1.1.1/src/v0.8/vendor/BufferChainlink.sol\":2896:2899  len */\n      dup3\n        /* \"@chainlink/contracts@1.1.1/src/v0.8/vendor/BufferChainlink.sol\":2896:2914  len <= data.length */\n      gt\n      iszero\n        /* \"@chainlink/contracts@1.1.1/src/v0.8/vendor/BufferChainlink.sol\":2888:2915  require(len <= data.length) */\n      tag_219\n      jumpi\n      0x00\n      dup1\n      revert\n    tag_219:\n        /* \"@chainlink/contracts@1.1.1/src/v0.8/vendor/BufferChainlink.sol\":2938:2941  buf */\n      dup5\n        /* \"@chainlink/contracts@1.1.1/src/v0.8/vendor/BufferChainlink.sol\":2938:2950  buf.capacity */\n      0x20\n      add\n      mload\n        /* \"@chainlink/contracts@1.1.1/src/v0.8/vendor/BufferChainlink.sol\":2932:2935  len */\n      dup3\n        /* \"@chainlink/contracts@1.1.1/src/v0.8/vendor/BufferChainlink.sol\":2926:2929  off */\n      dup6\n        /* \"@chainlink/contracts@1.1.1/src/v0.8/vendor/BufferChainlink.sol\":2926:2935  off + len */\n      tag_220\n      swap2\n      swap1\n      tag_159\n      jump\t// in\n    tag_220:\n        /* \"@chainlink/contracts@1.1.1/src/v0.8/vendor/BufferChainlink.sol\":2926:2950  off + len > buf.capacity */\n      gt\n        /* \"@chainlink/contracts@1.1.1/src/v0.8/vendor/BufferChainlink.sol\":2922:3012  if (off + len > buf.capacity) {... */\n      iszero\n      tag_221\n      jumpi\n        /* \"@chainlink/contracts@1.1.1/src/v0.8/vendor/BufferChainlink.sol\":2960:3005  resize(buf, max(buf.capacity, len + off) * 2) */\n      tag_222\n        /* \"@chainlink/contracts@1.1.1/src/v0.8/vendor/BufferChainlink.sol\":2967:2970  buf */\n      dup6\n        /* \"@chainlink/contracts@1.1.1/src/v0.8/vendor/BufferChainlink.sol\":3003:3004  2 */\n      0x02\n        /* \"@chainlink/contracts@1.1.1/src/v0.8/vendor/BufferChainlink.sol\":2972:3000  max(buf.capacity, len + off) */\n      tag_223\n        /* \"@chainlink/contracts@1.1.1/src/v0.8/vendor/BufferChainlink.sol\":2976:2979  buf */\n      dup9\n        /* \"@chainlink/contracts@1.1.1/src/v0.8/vendor/BufferChainlink.sol\":2976:2988  buf.capacity */\n      0x20\n      add\n      mload\n        /* \"@chainlink/contracts@1.1.1/src/v0.8/vendor/BufferChainlink.sol\":2996:2999  off */\n      dup9\n        /* \"@chainlink/contracts@1.1.1/src/v0.8/vendor/BufferChainlink.sol\":2990:2993  len */\n      dup8\n        /* \"@chainlink/contracts@1.1.1/src/v0.8/vendor/BufferChainlink.sol\":2990:2999  len + off */\n      tag_224\n      swap2\n      swap1\n      tag_159\n      jump\t// in\n    tag_224:\n        /* \"@chainlink/contracts@1.1.1/src/v0.8/vendor/BufferChainlink.sol\":2972:2975  max */\n      tag_225\n        /* \"@chainlink/contracts@1.1.1/src/v0.8/vendor/BufferChainlink.sol\":2972:3000  max(buf.capacity, len + off) */\n      jump\t// in\n    tag_223:\n        /* \"@chainlink/contracts@1.1.1/src/v0.8/vendor/BufferChainlink.sol\":2972:3004  max(buf.capacity, len + off) * 2 */\n      tag_226\n      swap2\n      swap1\n      tag_227\n      jump\t// in\n    tag_226:\n        /* \"@chainlink/contracts@1.1.1/src/v0.8/vendor/BufferChainlink.sol\":2960:2966  resize */\n      tag_228\n        /* \"@chainlink/contracts@1.1.1/src/v0.8/vendor/BufferChainlink.sol\":2960:3005  resize(buf, max(buf.capacity, len + off) * 2) */\n      jump\t// in\n    tag_222:\n        /* \"@chainlink/contracts@1.1.1/src/v0.8/vendor/BufferChainlink.sol\":2922:3012  if (off + len > buf.capacity) {... */\n    tag_221:\n        /* \"@chainlink/contracts@1.1.1/src/v0.8/vendor/BufferChainlink.sol\":3018:3030  uint256 dest */\n      0x00\n        /* \"@chainlink/contracts@1.1.1/src/v0.8/vendor/BufferChainlink.sol\":3036:3047  uint256 src */\n      dup1\n        /* \"@chainlink/contracts@1.1.1/src/v0.8/vendor/BufferChainlink.sol\":3133:3136  buf */\n      dup7\n        /* \"@chainlink/contracts@1.1.1/src/v0.8/vendor/BufferChainlink.sol\":3127:3137  mload(buf) */\n      mload\n        /* \"@chainlink/contracts@1.1.1/src/v0.8/vendor/BufferChainlink.sol\":3204:3210  bufptr */\n      dup1\n        /* \"@chainlink/contracts@1.1.1/src/v0.8/vendor/BufferChainlink.sol\":3198:3211  mload(bufptr) */\n      mload\n        /* \"@chainlink/contracts@1.1.1/src/v0.8/vendor/BufferChainlink.sol\":3320:3323  off */\n      dup8\n        /* \"@chainlink/contracts@1.1.1/src/v0.8/vendor/BufferChainlink.sol\":3315:3317  32 */\n      0x20\n        /* \"@chainlink/contracts@1.1.1/src/v0.8/vendor/BufferChainlink.sol\":3307:3313  bufptr */\n      dup4\n        /* \"@chainlink/contracts@1.1.1/src/v0.8/vendor/BufferChainlink.sol\":3303:3318  add(bufptr, 32) */\n      add\n        /* \"@chainlink/contracts@1.1.1/src/v0.8/vendor/BufferChainlink.sol\":3299:3324  add(add(bufptr, 32), off) */\n      add\n        /* \"@chainlink/contracts@1.1.1/src/v0.8/vendor/BufferChainlink.sol\":3291:3324  dest := add(add(bufptr, 32), off) */\n      swap4\n      pop\n        /* \"@chainlink/contracts@1.1.1/src/v0.8/vendor/BufferChainlink.sol\":3404:3410  buflen */\n      dup1\n        /* \"@chainlink/contracts@1.1.1/src/v0.8/vendor/BufferChainlink.sol\":3398:3401  off */\n      dup9\n        /* \"@chainlink/contracts@1.1.1/src/v0.8/vendor/BufferChainlink.sol\":3393:3396  len */\n      dup8\n        /* \"@chainlink/contracts@1.1.1/src/v0.8/vendor/BufferChainlink.sol\":3389:3402  add(len, off) */\n      add\n        /* \"@chainlink/contracts@1.1.1/src/v0.8/vendor/BufferChainlink.sol\":3386:3411  gt(add(len, off), buflen) */\n      gt\n        /* \"@chainlink/contracts@1.1.1/src/v0.8/vendor/BufferChainlink.sol\":3383:3459  if gt(add(len, off), buflen) {... */\n      iszero\n      tag_229\n      jumpi\n        /* \"@chainlink/contracts@1.1.1/src/v0.8/vendor/BufferChainlink.sol\":3446:3449  off */\n      dup8\n        /* \"@chainlink/contracts@1.1.1/src/v0.8/vendor/BufferChainlink.sol\":3441:3444  len */\n      dup7\n        /* \"@chainlink/contracts@1.1.1/src/v0.8/vendor/BufferChainlink.sol\":3437:3450  add(len, off) */\n      add\n        /* \"@chainlink/contracts@1.1.1/src/v0.8/vendor/BufferChainlink.sol\":3429:3435  bufptr */\n      dup3\n        /* \"@chainlink/contracts@1.1.1/src/v0.8/vendor/BufferChainlink.sol\":3422:3451  mstore(bufptr, add(len, off)) */\n      mstore\n        /* \"@chainlink/contracts@1.1.1/src/v0.8/vendor/BufferChainlink.sol\":3383:3459  if gt(add(len, off), buflen) {... */\n    tag_229:\n        /* \"@chainlink/contracts@1.1.1/src/v0.8/vendor/BufferChainlink.sol\":3483:3485  32 */\n      0x20\n        /* \"@chainlink/contracts@1.1.1/src/v0.8/vendor/BufferChainlink.sol\":3477:3481  data */\n      dup8\n        /* \"@chainlink/contracts@1.1.1/src/v0.8/vendor/BufferChainlink.sol\":3473:3486  add(data, 32) */\n      add\n        /* \"@chainlink/contracts@1.1.1/src/v0.8/vendor/BufferChainlink.sol\":3466:3486  src := add(data, 32) */\n      swap3\n      pop\n        /* \"@chainlink/contracts@1.1.1/src/v0.8/vendor/BufferChainlink.sol\":3062:3492  {... */\n      pop\n      pop\n        /* \"@chainlink/contracts@1.1.1/src/v0.8/vendor/BufferChainlink.sol\":3544:3673  for (; len >= 32; len -= 32) {... */\n    tag_230:\n        /* \"@chainlink/contracts@1.1.1/src/v0.8/vendor/BufferChainlink.sol\":3558:3560  32 */\n      0x20\n        /* \"@chainlink/contracts@1.1.1/src/v0.8/vendor/BufferChainlink.sol\":3551:3554  len */\n      dup5\n        /* \"@chainlink/contracts@1.1.1/src/v0.8/vendor/BufferChainlink.sol\":3551:3560  len >= 32 */\n      lt\n        /* \"@chainlink/contracts@1.1.1/src/v0.8/vendor/BufferChainlink.sol\":3544:3673  for (; len >= 32; len -= 32) {... */\n      tag_231\n      jumpi\n        /* \"@chainlink/contracts@1.1.1/src/v0.8/vendor/BufferChainlink.sol\":3619:3622  src */\n      dup1\n        /* \"@chainlink/contracts@1.1.1/src/v0.8/vendor/BufferChainlink.sol\":3613:3623  mload(src) */\n      mload\n        /* \"@chainlink/contracts@1.1.1/src/v0.8/vendor/BufferChainlink.sol\":3607:3611  dest */\n      dup3\n        /* \"@chainlink/contracts@1.1.1/src/v0.8/vendor/BufferChainlink.sol\":3600:3624  mstore(dest, mload(src)) */\n      mstore\n        /* \"@chainlink/contracts@1.1.1/src/v0.8/vendor/BufferChainlink.sol\":3647:3649  32 */\n      0x20\n        /* \"@chainlink/contracts@1.1.1/src/v0.8/vendor/BufferChainlink.sol\":3639:3649  dest += 32 */\n      dup3\n      tag_233\n      swap2\n      swap1\n      tag_159\n      jump\t// in\n    tag_233:\n      swap2\n      pop\n        /* \"@chainlink/contracts@1.1.1/src/v0.8/vendor/BufferChainlink.sol\":3664:3666  32 */\n      0x20\n        /* \"@chainlink/contracts@1.1.1/src/v0.8/vendor/BufferChainlink.sol\":3657:3666  src += 32 */\n      dup2\n      tag_234\n      swap2\n      swap1\n      tag_159\n      jump\t// in\n    tag_234:\n      swap1\n      pop\n        /* \"@chainlink/contracts@1.1.1/src/v0.8/vendor/BufferChainlink.sol\":3569:3571  32 */\n      0x20\n        /* \"@chainlink/contracts@1.1.1/src/v0.8/vendor/BufferChainlink.sol\":3562:3571  len -= 32 */\n      dup5\n      tag_235\n      swap2\n      swap1\n      tag_172\n      jump\t// in\n    tag_235:\n      swap4\n      pop\n        /* \"@chainlink/contracts@1.1.1/src/v0.8/vendor/BufferChainlink.sol\":3544:3673  for (; len >= 32; len -= 32) {... */\n      jump(tag_230)\n    tag_231:\n        /* \"@chainlink/contracts@1.1.1/src/v0.8/vendor/BufferChainlink.sol\":3725:3737  uint256 mask */\n      0x00\n        /* \"@chainlink/contracts@1.1.1/src/v0.8/vendor/BufferChainlink.sol\":3760:3761  1 */\n      0x01\n        /* \"@chainlink/contracts@1.1.1/src/v0.8/vendor/BufferChainlink.sol\":3752:3755  len */\n      dup6\n        /* \"@chainlink/contracts@1.1.1/src/v0.8/vendor/BufferChainlink.sol\":3747:3749  32 */\n      0x20\n        /* \"@chainlink/contracts@1.1.1/src/v0.8/vendor/BufferChainlink.sol\":3747:3755  32 - len */\n      sub\n        /* \"@chainlink/contracts@1.1.1/src/v0.8/vendor/BufferChainlink.sol\":3741:3744  256 */\n      0x0100\n        /* \"@chainlink/contracts@1.1.1/src/v0.8/vendor/BufferChainlink.sol\":3741:3756  256**(32 - len) */\n      exp\n        /* \"@chainlink/contracts@1.1.1/src/v0.8/vendor/BufferChainlink.sol\":3740:3761  (256**(32 - len)) - 1 */\n      sub\n        /* \"@chainlink/contracts@1.1.1/src/v0.8/vendor/BufferChainlink.sol\":3725:3761  uint256 mask = (256**(32 - len)) - 1 */\n      swap1\n      pop\n        /* \"@chainlink/contracts@1.1.1/src/v0.8/vendor/BufferChainlink.sol\":3823:3827  mask */\n      dup1\n        /* \"@chainlink/contracts@1.1.1/src/v0.8/vendor/BufferChainlink.sol\":3819:3828  not(mask) */\n      not\n        /* \"@chainlink/contracts@1.1.1/src/v0.8/vendor/BufferChainlink.sol\":3813:3816  src */\n      dup3\n        /* \"@chainlink/contracts@1.1.1/src/v0.8/vendor/BufferChainlink.sol\":3807:3817  mload(src) */\n      mload\n        /* \"@chainlink/contracts@1.1.1/src/v0.8/vendor/BufferChainlink.sol\":3803:3829  and(mload(src), not(mask)) */\n      and\n        /* \"@chainlink/contracts@1.1.1/src/v0.8/vendor/BufferChainlink.sol\":3871:3875  mask */\n      dup2\n        /* \"@chainlink/contracts@1.1.1/src/v0.8/vendor/BufferChainlink.sol\":3864:3868  dest */\n      dup5\n        /* \"@chainlink/contracts@1.1.1/src/v0.8/vendor/BufferChainlink.sol\":3858:3869  mload(dest) */\n      mload\n        /* \"@chainlink/contracts@1.1.1/src/v0.8/vendor/BufferChainlink.sol\":3854:3876  and(mload(dest), mask) */\n      and\n        /* \"@chainlink/contracts@1.1.1/src/v0.8/vendor/BufferChainlink.sol\":3911:3918  srcpart */\n      dup2\n        /* \"@chainlink/contracts@1.1.1/src/v0.8/vendor/BufferChainlink.sol\":3901:3909  destpart */\n      dup2\n        /* \"@chainlink/contracts@1.1.1/src/v0.8/vendor/BufferChainlink.sol\":3898:3919  or(destpart, srcpart) */\n      or\n        /* \"@chainlink/contracts@1.1.1/src/v0.8/vendor/BufferChainlink.sol\":3892:3896  dest */\n      dup6\n        /* \"@chainlink/contracts@1.1.1/src/v0.8/vendor/BufferChainlink.sol\":3885:3920  mstore(dest, or(destpart, srcpart)) */\n      mstore\n        /* \"@chainlink/contracts@1.1.1/src/v0.8/vendor/BufferChainlink.sol\":3778:3928  {... */\n      pop\n      pop\n      pop\n        /* \"@chainlink/contracts@1.1.1/src/v0.8/vendor/BufferChainlink.sol\":3947:3950  buf */\n      dup7\n        /* \"@chainlink/contracts@1.1.1/src/v0.8/vendor/BufferChainlink.sol\":3940:3950  return buf */\n      swap3\n      pop\n      pop\n      pop\n        /* \"@chainlink/contracts@1.1.1/src/v0.8/vendor/BufferChainlink.sol\":2745:3955  function write(... */\n      swap5\n      swap4\n      pop\n      pop\n      pop\n      pop\n      jump\t// out\n        /* \"@chainlink/contracts@1.1.1/src/v0.8/vendor/BufferChainlink.sol\":5148:5787  function writeUint8(... */\n    tag_212:\n        /* \"@chainlink/contracts@1.1.1/src/v0.8/vendor/BufferChainlink.sol\":5251:5264  buffer memory */\n      tag_236\n      tag_165\n      jump\t// in\n    tag_236:\n        /* \"@chainlink/contracts@1.1.1/src/v0.8/vendor/BufferChainlink.sol\":5283:5286  buf */\n      dup4\n        /* \"@chainlink/contracts@1.1.1/src/v0.8/vendor/BufferChainlink.sol\":5283:5295  buf.capacity */\n      0x20\n      add\n      mload\n        /* \"@chainlink/contracts@1.1.1/src/v0.8/vendor/BufferChainlink.sol\":5276:5279  off */\n      dup4\n        /* \"@chainlink/contracts@1.1.1/src/v0.8/vendor/BufferChainlink.sol\":5276:5295  off >= buf.capacity */\n      lt\n        /* \"@chainlink/contracts@1.1.1/src/v0.8/vendor/BufferChainlink.sol\":5272:5341  if (off >= buf.capacity) {... */\n      tag_238\n      jumpi\n        /* \"@chainlink/contracts@1.1.1/src/v0.8/vendor/BufferChainlink.sol\":5305:5334  resize(buf, buf.capacity * 2) */\n      tag_239\n        /* \"@chainlink/contracts@1.1.1/src/v0.8/vendor/BufferChainlink.sol\":5312:5315  buf */\n      dup5\n        /* \"@chainlink/contracts@1.1.1/src/v0.8/vendor/BufferChainlink.sol\":5332:5333  2 */\n      0x02\n        /* \"@chainlink/contracts@1.1.1/src/v0.8/vendor/BufferChainlink.sol\":5317:5320  buf */\n      dup7\n        /* \"@chainlink/contracts@1.1.1/src/v0.8/vendor/BufferChainlink.sol\":5317:5329  buf.capacity */\n      0x20\n      add\n      mload\n        /* \"@chainlink/contracts@1.1.1/src/v0.8/vendor/BufferChainlink.sol\":5317:5333  buf.capacity * 2 */\n      tag_240\n      swap2\n      swap1\n      tag_227\n      jump\t// in\n    tag_240:\n        /* \"@chainlink/contracts@1.1.1/src/v0.8/vendor/BufferChainlink.sol\":5305:5311  resize */\n      tag_228\n        /* \"@chainlink/contracts@1.1.1/src/v0.8/vendor/BufferChainlink.sol\":5305:5334  resize(buf, buf.capacity * 2) */\n      jump\t// in\n    tag_239:\n        /* \"@chainlink/contracts@1.1.1/src/v0.8/vendor/BufferChainlink.sol\":5272:5341  if (off >= buf.capacity) {... */\n    tag_238:\n        /* \"@chainlink/contracts@1.1.1/src/v0.8/vendor/BufferChainlink.sol\":5427:5430  buf */\n      dup4\n        /* \"@chainlink/contracts@1.1.1/src/v0.8/vendor/BufferChainlink.sol\":5421:5431  mload(buf) */\n      mload\n        /* \"@chainlink/contracts@1.1.1/src/v0.8/vendor/BufferChainlink.sol\":5498:5504  bufptr */\n      dup1\n        /* \"@chainlink/contracts@1.1.1/src/v0.8/vendor/BufferChainlink.sol\":5492:5505  mload(bufptr) */\n      mload\n        /* \"@chainlink/contracts@1.1.1/src/v0.8/vendor/BufferChainlink.sol\":5610:5612  32 */\n      0x20\n        /* \"@chainlink/contracts@1.1.1/src/v0.8/vendor/BufferChainlink.sol\":5604:5607  off */\n      dup6\n        /* \"@chainlink/contracts@1.1.1/src/v0.8/vendor/BufferChainlink.sol\":5596:5602  bufptr */\n      dup4\n        /* \"@chainlink/contracts@1.1.1/src/v0.8/vendor/BufferChainlink.sol\":5592:5608  add(bufptr, off) */\n      add\n        /* \"@chainlink/contracts@1.1.1/src/v0.8/vendor/BufferChainlink.sol\":5588:5613  add(add(bufptr, off), 32) */\n      add\n        /* \"@chainlink/contracts@1.1.1/src/v0.8/vendor/BufferChainlink.sol\":5634:5638  data */\n      dup5\n        /* \"@chainlink/contracts@1.1.1/src/v0.8/vendor/BufferChainlink.sol\":5628:5632  dest */\n      dup2\n        /* \"@chainlink/contracts@1.1.1/src/v0.8/vendor/BufferChainlink.sol\":5620:5639  mstore8(dest, data) */\n      mstore8\n        /* \"@chainlink/contracts@1.1.1/src/v0.8/vendor/BufferChainlink.sol\":5705:5711  buflen */\n      dup2\n        /* \"@chainlink/contracts@1.1.1/src/v0.8/vendor/BufferChainlink.sol\":5700:5703  off */\n      dup7\n        /* \"@chainlink/contracts@1.1.1/src/v0.8/vendor/BufferChainlink.sol\":5697:5712  eq(off, buflen) */\n      sub\n        /* \"@chainlink/contracts@1.1.1/src/v0.8/vendor/BufferChainlink.sol\":5694:5761  if eq(off, buflen) {... */\n      tag_241\n      jumpi\n        /* \"@chainlink/contracts@1.1.1/src/v0.8/vendor/BufferChainlink.sol\":5750:5751  1 */\n      0x01\n        /* \"@chainlink/contracts@1.1.1/src/v0.8/vendor/BufferChainlink.sol\":5742:5748  buflen */\n      dup3\n        /* \"@chainlink/contracts@1.1.1/src/v0.8/vendor/BufferChainlink.sol\":5738:5752  add(buflen, 1) */\n      add\n        /* \"@chainlink/contracts@1.1.1/src/v0.8/vendor/BufferChainlink.sol\":5730:5736  bufptr */\n      dup4\n        /* \"@chainlink/contracts@1.1.1/src/v0.8/vendor/BufferChainlink.sol\":5723:5753  mstore(bufptr, add(buflen, 1)) */\n      mstore\n        /* \"@chainlink/contracts@1.1.1/src/v0.8/vendor/BufferChainlink.sol\":5694:5761  if eq(off, buflen) {... */\n    tag_241:\n        /* \"@chainlink/contracts@1.1.1/src/v0.8/vendor/BufferChainlink.sol\":5356:5767  {... */\n      pop\n      pop\n      pop\n        /* \"@chainlink/contracts@1.1.1/src/v0.8/vendor/BufferChainlink.sol\":5779:5782  buf */\n      dup4\n        /* \"@chainlink/contracts@1.1.1/src/v0.8/vendor/BufferChainlink.sol\":5772:5782  return buf */\n      swap1\n      pop\n        /* \"@chainlink/contracts@1.1.1/src/v0.8/vendor/BufferChainlink.sol\":5148:5787  function writeUint8(... */\n      swap4\n      swap3\n      pop\n      pop\n      pop\n      jump\t// out\n        /* \"@chainlink/contracts@1.1.1/src/v0.8/vendor/BufferChainlink.sol\":8974:9649  function writeInt(... */\n    tag_216:\n        /* \"@chainlink/contracts@1.1.1/src/v0.8/vendor/BufferChainlink.sol\":9093:9106  buffer memory */\n      tag_242\n      tag_165\n      jump\t// in\n    tag_242:\n        /* \"@chainlink/contracts@1.1.1/src/v0.8/vendor/BufferChainlink.sol\":9130:9133  buf */\n      dup5\n        /* \"@chainlink/contracts@1.1.1/src/v0.8/vendor/BufferChainlink.sol\":9130:9142  buf.capacity */\n      0x20\n      add\n      mload\n        /* \"@chainlink/contracts@1.1.1/src/v0.8/vendor/BufferChainlink.sol\":9124:9127  off */\n      dup5\n        /* \"@chainlink/contracts@1.1.1/src/v0.8/vendor/BufferChainlink.sol\":9118:9121  len */\n      dup4\n        /* \"@chainlink/contracts@1.1.1/src/v0.8/vendor/BufferChainlink.sol\":9118:9127  len + off */\n      tag_244\n      swap2\n      swap1\n      tag_159\n      jump\t// in\n    tag_244:\n        /* \"@chainlink/contracts@1.1.1/src/v0.8/vendor/BufferChainlink.sol\":9118:9142  len + off > buf.capacity */\n      gt\n        /* \"@chainlink/contracts@1.1.1/src/v0.8/vendor/BufferChainlink.sol\":9114:9187  if (len + off > buf.capacity) {... */\n      iszero\n      tag_245\n      jumpi\n        /* \"@chainlink/contracts@1.1.1/src/v0.8/vendor/BufferChainlink.sol\":9152:9180  resize(buf, (len + off) * 2) */\n      tag_246\n        /* \"@chainlink/contracts@1.1.1/src/v0.8/vendor/BufferChainlink.sol\":9159:9162  buf */\n      dup6\n        /* \"@chainlink/contracts@1.1.1/src/v0.8/vendor/BufferChainlink.sol\":9178:9179  2 */\n      0x02\n        /* \"@chainlink/contracts@1.1.1/src/v0.8/vendor/BufferChainlink.sol\":9171:9174  off */\n      dup7\n        /* \"@chainlink/contracts@1.1.1/src/v0.8/vendor/BufferChainlink.sol\":9165:9168  len */\n      dup6\n        /* \"@chainlink/contracts@1.1.1/src/v0.8/vendor/BufferChainlink.sol\":9165:9174  len + off */\n      tag_247\n      swap2\n      swap1\n      tag_159\n      jump\t// in\n    tag_247:\n        /* \"@chainlink/contracts@1.1.1/src/v0.8/vendor/BufferChainlink.sol\":9164:9179  (len + off) * 2 */\n      tag_248\n      swap2\n      swap1\n      tag_227\n      jump\t// in\n    tag_248:\n        /* \"@chainlink/contracts@1.1.1/src/v0.8/vendor/BufferChainlink.sol\":9152:9158  resize */\n      tag_228\n        /* \"@chainlink/contracts@1.1.1/src/v0.8/vendor/BufferChainlink.sol\":9152:9180  resize(buf, (len + off) * 2) */\n      jump\t// in\n    tag_246:\n        /* \"@chainlink/contracts@1.1.1/src/v0.8/vendor/BufferChainlink.sol\":9114:9187  if (len + off > buf.capacity) {... */\n    tag_245:\n        /* \"@chainlink/contracts@1.1.1/src/v0.8/vendor/BufferChainlink.sol\":9193:9205  uint256 mask */\n      0x00\n        /* \"@chainlink/contracts@1.1.1/src/v0.8/vendor/BufferChainlink.sol\":9221:9222  1 */\n      0x01\n        /* \"@chainlink/contracts@1.1.1/src/v0.8/vendor/BufferChainlink.sol\":9214:9217  len */\n      dup4\n        /* \"@chainlink/contracts@1.1.1/src/v0.8/vendor/BufferChainlink.sol\":9209:9212  256 */\n      0x0100\n        /* \"@chainlink/contracts@1.1.1/src/v0.8/vendor/BufferChainlink.sol\":9209:9217  256**len */\n      tag_249\n      swap2\n      swap1\n      tag_250\n      jump\t// in\n    tag_249:\n        /* \"@chainlink/contracts@1.1.1/src/v0.8/vendor/BufferChainlink.sol\":9208:9222  (256**len) - 1 */\n      tag_251\n      swap2\n      swap1\n      tag_172\n      jump\t// in\n    tag_251:\n        /* \"@chainlink/contracts@1.1.1/src/v0.8/vendor/BufferChainlink.sol\":9193:9222  uint256 mask = (256**len) - 1 */\n      swap1\n      pop\n        /* \"@chainlink/contracts@1.1.1/src/v0.8/vendor/BufferChainlink.sol\":9308:9311  buf */\n      dup6\n        /* \"@chainlink/contracts@1.1.1/src/v0.8/vendor/BufferChainlink.sol\":9302:9312  mload(buf) */\n      mload\n        /* \"@chainlink/contracts@1.1.1/src/v0.8/vendor/BufferChainlink.sol\":9423:9426  len */\n      dup4\n        /* \"@chainlink/contracts@1.1.1/src/v0.8/vendor/BufferChainlink.sol\":9417:9420  off */\n      dup7\n        /* \"@chainlink/contracts@1.1.1/src/v0.8/vendor/BufferChainlink.sol\":9409:9415  bufptr */\n      dup3\n        /* \"@chainlink/contracts@1.1.1/src/v0.8/vendor/BufferChainlink.sol\":9405:9421  add(bufptr, off) */\n      add\n        /* \"@chainlink/contracts@1.1.1/src/v0.8/vendor/BufferChainlink.sol\":9401:9427  add(add(bufptr, off), len) */\n      add\n        /* \"@chainlink/contracts@1.1.1/src/v0.8/vendor/BufferChainlink.sol\":9479:9483  data */\n      dup6\n        /* \"@chainlink/contracts@1.1.1/src/v0.8/vendor/BufferChainlink.sol\":9471:9475  mask */\n      dup4\n        /* \"@chainlink/contracts@1.1.1/src/v0.8/vendor/BufferChainlink.sol\":9467:9476  not(mask) */\n      not\n        /* \"@chainlink/contracts@1.1.1/src/v0.8/vendor/BufferChainlink.sol\":9460:9464  dest */\n      dup3\n        /* \"@chainlink/contracts@1.1.1/src/v0.8/vendor/BufferChainlink.sol\":9454:9465  mload(dest) */\n      mload\n        /* \"@chainlink/contracts@1.1.1/src/v0.8/vendor/BufferChainlink.sol\":9450:9477  and(mload(dest), not(mask)) */\n      and\n        /* \"@chainlink/contracts@1.1.1/src/v0.8/vendor/BufferChainlink.sol\":9447:9484  or(and(mload(dest), not(mask)), data) */\n      or\n        /* \"@chainlink/contracts@1.1.1/src/v0.8/vendor/BufferChainlink.sol\":9441:9445  dest */\n      dup2\n        /* \"@chainlink/contracts@1.1.1/src/v0.8/vendor/BufferChainlink.sol\":9434:9485  mstore(dest, or(and(mload(dest), not(mask)), data)) */\n      mstore\n        /* \"@chainlink/contracts@1.1.1/src/v0.8/vendor/BufferChainlink.sol\":9567:9573  bufptr */\n      dup2\n        /* \"@chainlink/contracts@1.1.1/src/v0.8/vendor/BufferChainlink.sol\":9561:9574  mload(bufptr) */\n      mload\n        /* \"@chainlink/contracts@1.1.1/src/v0.8/vendor/BufferChainlink.sol\":9555:9558  len */\n      dup6\n        /* \"@chainlink/contracts@1.1.1/src/v0.8/vendor/BufferChainlink.sol\":9550:9553  off */\n      dup9\n        /* \"@chainlink/contracts@1.1.1/src/v0.8/vendor/BufferChainlink.sol\":9546:9559  add(off, len) */\n      add\n        /* \"@chainlink/contracts@1.1.1/src/v0.8/vendor/BufferChainlink.sol\":9543:9575  gt(add(off, len), mload(bufptr)) */\n      gt\n        /* \"@chainlink/contracts@1.1.1/src/v0.8/vendor/BufferChainlink.sol\":9540:9623  if gt(add(off, len), mload(bufptr)) {... */\n      iszero\n      tag_252\n      jumpi\n        /* \"@chainlink/contracts@1.1.1/src/v0.8/vendor/BufferChainlink.sol\":9610:9613  len */\n      dup5\n        /* \"@chainlink/contracts@1.1.1/src/v0.8/vendor/BufferChainlink.sol\":9605:9608  off */\n      dup8\n        /* \"@chainlink/contracts@1.1.1/src/v0.8/vendor/BufferChainlink.sol\":9601:9614  add(off, len) */\n      add\n        /* \"@chainlink/contracts@1.1.1/src/v0.8/vendor/BufferChainlink.sol\":9593:9599  bufptr */\n      dup3\n        /* \"@chainlink/contracts@1.1.1/src/v0.8/vendor/BufferChainlink.sol\":9586:9615  mstore(bufptr, add(off, len)) */\n      mstore\n        /* \"@chainlink/contracts@1.1.1/src/v0.8/vendor/BufferChainlink.sol\":9540:9623  if gt(add(off, len), mload(bufptr)) {... */\n    tag_252:\n        /* \"@chainlink/contracts@1.1.1/src/v0.8/vendor/BufferChainlink.sol\":9237:9629  {... */\n      pop\n      pop\n        /* \"@chainlink/contracts@1.1.1/src/v0.8/vendor/BufferChainlink.sol\":9641:9644  buf */\n      dup6\n        /* \"@chainlink/contracts@1.1.1/src/v0.8/vendor/BufferChainlink.sol\":9634:9644  return buf */\n      swap2\n      pop\n      pop\n        /* \"@chainlink/contracts@1.1.1/src/v0.8/vendor/BufferChainlink.sol\":8974:9649  function writeInt(... */\n      swap5\n      swap4\n      pop\n      pop\n      pop\n      pop\n      jump\t// out\n        /* \"@chainlink/contracts@1.1.1/src/v0.8/vendor/BufferChainlink.sol\":1961:2085  function max(uint256 a, uint256 b) private pure returns (uint256) {... */\n    tag_225:\n        /* \"@chainlink/contracts@1.1.1/src/v0.8/vendor/BufferChainlink.sol\":2018:2025  uint256 */\n      0x00\n        /* \"@chainlink/contracts@1.1.1/src/v0.8/vendor/BufferChainlink.sol\":2041:2042  b */\n      dup2\n        /* \"@chainlink/contracts@1.1.1/src/v0.8/vendor/BufferChainlink.sol\":2037:2038  a */\n      dup4\n        /* \"@chainlink/contracts@1.1.1/src/v0.8/vendor/BufferChainlink.sol\":2037:2042  a > b */\n      gt\n        /* \"@chainlink/contracts@1.1.1/src/v0.8/vendor/BufferChainlink.sol\":2033:2067  if (a > b) {... */\n      iszero\n      tag_254\n      jumpi\n        /* \"@chainlink/contracts@1.1.1/src/v0.8/vendor/BufferChainlink.sol\":2059:2060  a */\n      dup3\n        /* \"@chainlink/contracts@1.1.1/src/v0.8/vendor/BufferChainlink.sol\":2052:2060  return a */\n      swap1\n      pop\n      jump(tag_253)\n        /* \"@chainlink/contracts@1.1.1/src/v0.8/vendor/BufferChainlink.sol\":2033:2067  if (a > b) {... */\n    tag_254:\n        /* \"@chainlink/contracts@1.1.1/src/v0.8/vendor/BufferChainlink.sol\":2079:2080  b */\n      dup2\n        /* \"@chainlink/contracts@1.1.1/src/v0.8/vendor/BufferChainlink.sol\":2072:2080  return b */\n      swap1\n      pop\n        /* \"@chainlink/contracts@1.1.1/src/v0.8/vendor/BufferChainlink.sol\":1961:2085  function max(uint256 a, uint256 b) private pure returns (uint256) {... */\n    tag_253:\n      swap3\n      swap2\n      pop\n      pop\n      jump\t// out\n        /* \"@chainlink/contracts@1.1.1/src/v0.8/vendor/BufferChainlink.sol\":1801:1957  function resize(buffer memory buf, uint256 capacity) private pure {... */\n    tag_228:\n        /* \"@chainlink/contracts@1.1.1/src/v0.8/vendor/BufferChainlink.sol\":1873:1892  bytes memory oldbuf */\n      0x00\n        /* \"@chainlink/contracts@1.1.1/src/v0.8/vendor/BufferChainlink.sol\":1895:1898  buf */\n      dup3\n        /* \"@chainlink/contracts@1.1.1/src/v0.8/vendor/BufferChainlink.sol\":1895:1902  buf.buf */\n      0x00\n      add\n      mload\n        /* \"@chainlink/contracts@1.1.1/src/v0.8/vendor/BufferChainlink.sol\":1873:1902  bytes memory oldbuf = buf.buf */\n      swap1\n      pop\n        /* \"@chainlink/contracts@1.1.1/src/v0.8/vendor/BufferChainlink.sol\":1908:1927  init(buf, capacity) */\n      tag_256\n        /* \"@chainlink/contracts@1.1.1/src/v0.8/vendor/BufferChainlink.sol\":1913:1916  buf */\n      dup4\n        /* \"@chainlink/contracts@1.1.1/src/v0.8/vendor/BufferChainlink.sol\":1918:1926  capacity */\n      dup4\n        /* \"@chainlink/contracts@1.1.1/src/v0.8/vendor/BufferChainlink.sol\":1908:1912  init */\n      tag_151\n        /* \"@chainlink/contracts@1.1.1/src/v0.8/vendor/BufferChainlink.sol\":1908:1927  init(buf, capacity) */\n      jump\t// in\n    tag_256:\n      pop\n        /* \"@chainlink/contracts@1.1.1/src/v0.8/vendor/BufferChainlink.sol\":1933:1952  append(buf, oldbuf) */\n      tag_257\n        /* \"@chainlink/contracts@1.1.1/src/v0.8/vendor/BufferChainlink.sol\":1940:1943  buf */\n      dup4\n        /* \"@chainlink/contracts@1.1.1/src/v0.8/vendor/BufferChainlink.sol\":1945:1951  oldbuf */\n      dup3\n        /* \"@chainlink/contracts@1.1.1/src/v0.8/vendor/BufferChainlink.sol\":1933:1939  append */\n      tag_156\n        /* \"@chainlink/contracts@1.1.1/src/v0.8/vendor/BufferChainlink.sol\":1933:1952  append(buf, oldbuf) */\n      jump\t// in\n    tag_257:\n      pop\n        /* \"@chainlink/contracts@1.1.1/src/v0.8/vendor/BufferChainlink.sol\":1867:1957  {... */\n      pop\n        /* \"@chainlink/contracts@1.1.1/src/v0.8/vendor/BufferChainlink.sol\":1801:1957  function resize(buffer memory buf, uint256 capacity) private pure {... */\n      pop\n      pop\n      jump\t// out\n    tag_127:\n      mload(0x40)\n      dup1\n      0xa0\n      add\n      0x40\n      mstore\n      dup1\n      0x00\n      dup1\n      not\n      and\n      dup2\n      mstore\n      0x20\n      add\n      and(0xffffffffffffffffffffffffffffffffffffffff, 0x00)\n      dup2\n      mstore\n      0x20\n      add\n      and(not(0xffffffffffffffffffffffffffffffffffffffffffffffffffffffff), 0x00)\n      dup2\n      mstore\n      0x20\n      add\n      0x00\n      dup2\n      mstore\n      0x20\n      add\n      tag_258\n      tag_165\n      jump\t// in\n    tag_258:\n      dup2\n      mstore\n      pop\n      swap1\n      jump\t// out\n    tag_165:\n      mload(0x40)\n      dup1\n      0x40\n      add\n      0x40\n      mstore\n      dup1\n      0x60\n      dup2\n      mstore\n      0x20\n      add\n      0x00\n      dup2\n      mstore\n      pop\n      swap1\n      jump\t// out\n        /* \"#utility.yul\":7:82   */\n    tag_259:\n        /* \"#utility.yul\":40:46   */\n      0x00\n        /* \"#utility.yul\":73:75   */\n      0x40\n        /* \"#utility.yul\":67:76   */\n      mload\n        /* \"#utility.yul\":57:76   */\n      swap1\n      pop\n        /* \"#utility.yul\":7:82   */\n      swap1\n      jump\t// out\n        /* \"#utility.yul\":88:205   */\n    tag_260:\n        /* \"#utility.yul\":197:198   */\n      0x00\n        /* \"#utility.yul\":194:195   */\n      dup1\n        /* \"#utility.yul\":187:199   */\n      revert\n        /* \"#utility.yul\":211:328   */\n    tag_261:\n        /* \"#utility.yul\":320:321   */\n      0x00\n        /* \"#utility.yul\":317:318   */\n      dup1\n        /* \"#utility.yul\":310:322   */\n      revert\n        /* \"#utility.yul\":334:411   */\n    tag_262:\n        /* \"#utility.yul\":371:378   */\n      0x00\n        /* \"#utility.yul\":400:405   */\n      dup2\n        /* \"#utility.yul\":389:405   */\n      swap1\n      pop\n        /* \"#utility.yul\":334:411   */\n      swap2\n      swap1\n      pop\n      jump\t// out\n        /* \"#utility.yul\":417:539   */\n    tag_263:\n        /* \"#utility.yul\":490:514   */\n      tag_346\n        /* \"#utility.yul\":508:513   */\n      dup2\n        /* \"#utility.yul\":490:514   */\n      tag_262\n      jump\t// in\n    tag_346:\n        /* \"#utility.yul\":483:488   */\n      dup2\n        /* \"#utility.yul\":480:515   */\n      eq\n        /* \"#utility.yul\":470:533   */\n      tag_347\n      jumpi\n        /* \"#utility.yul\":529:530   */\n      0x00\n        /* \"#utility.yul\":526:527   */\n      dup1\n        /* \"#utility.yul\":519:531   */\n      revert\n        /* \"#utility.yul\":470:533   */\n    tag_347:\n        /* \"#utility.yul\":417:539   */\n      pop\n      jump\t// out\n        /* \"#utility.yul\":545:684   */\n    tag_264:\n        /* \"#utility.yul\":591:596   */\n      0x00\n        /* \"#utility.yul\":629:635   */\n      dup2\n        /* \"#utility.yul\":616:636   */\n      calldataload\n        /* \"#utility.yul\":607:636   */\n      swap1\n      pop\n        /* \"#utility.yul\":645:678   */\n      tag_349\n        /* \"#utility.yul\":672:677   */\n      dup2\n        /* \"#utility.yul\":645:678   */\n      tag_263\n      jump\t// in\n    tag_349:\n        /* \"#utility.yul\":545:684   */\n      swap3\n      swap2\n      pop\n      pop\n      jump\t// out\n        /* \"#utility.yul\":690:807   */\n    tag_265:\n        /* \"#utility.yul\":799:800   */\n      0x00\n        /* \"#utility.yul\":796:797   */\n      dup1\n        /* \"#utility.yul\":789:801   */\n      revert\n        /* \"#utility.yul\":813:930   */\n    tag_266:\n        /* \"#utility.yul\":922:923   */\n      0x00\n        /* \"#utility.yul\":919:920   */\n      dup1\n        /* \"#utility.yul\":912:924   */\n      revert\n        /* \"#utility.yul\":936:1038   */\n    tag_267:\n        /* \"#utility.yul\":977:983   */\n      0x00\n        /* \"#utility.yul\":1028:1030   */\n      0x1f\n        /* \"#utility.yul\":1024:1031   */\n      not\n        /* \"#utility.yul\":1019:1021   */\n      0x1f\n        /* \"#utility.yul\":1012:1017   */\n      dup4\n        /* \"#utility.yul\":1008:1022   */\n      add\n        /* \"#utility.yul\":1004:1032   */\n      and\n        /* \"#utility.yul\":994:1032   */\n      swap1\n      pop\n        /* \"#utility.yul\":936:1038   */\n      swap2\n      swap1\n      pop\n      jump\t// out\n        /* \"#utility.yul\":1044:1224   */\n    tag_268:\n        /* \"#utility.yul\":1092:1169   */\n      0x4e487b7100000000000000000000000000000000000000000000000000000000\n        /* \"#utility.yul\":1089:1090   */\n      0x00\n        /* \"#utility.yul\":1082:1170   */\n      mstore\n        /* \"#utility.yul\":1189:1193   */\n      0x41\n        /* \"#utility.yul\":1186:1187   */\n      0x04\n        /* \"#utility.yul\":1179:1194   */\n      mstore\n        /* \"#utility.yul\":1213:1217   */\n      0x24\n        /* \"#utility.yul\":1210:1211   */\n      0x00\n        /* \"#utility.yul\":1203:1218   */\n      revert\n        /* \"#utility.yul\":1230:1511   */\n    tag_269:\n        /* \"#utility.yul\":1313:1340   */\n      tag_355\n        /* \"#utility.yul\":1335:1339   */\n      dup3\n        /* \"#utility.yul\":1313:1340   */\n      tag_267\n      jump\t// in\n    tag_355:\n        /* \"#utility.yul\":1305:1311   */\n      dup2\n        /* \"#utility.yul\":1301:1341   */\n      add\n        /* \"#utility.yul\":1443:1449   */\n      dup2\n        /* \"#utility.yul\":1431:1441   */\n      dup2\n        /* \"#utility.yul\":1428:1450   */\n      lt\n        /* \"#utility.yul\":1407:1425   */\n      0xffffffffffffffff\n        /* \"#utility.yul\":1395:1405   */\n      dup3\n        /* \"#utility.yul\":1392:1426   */\n      gt\n        /* \"#utility.yul\":1389:1451   */\n      or\n        /* \"#utility.yul\":1386:1474   */\n      iszero\n      tag_356\n      jumpi\n        /* \"#utility.yul\":1454:1472   */\n      tag_357\n      tag_268\n      jump\t// in\n    tag_357:\n        /* \"#utility.yul\":1386:1474   */\n    tag_356:\n        /* \"#utility.yul\":1494:1504   */\n      dup1\n        /* \"#utility.yul\":1490:1492   */\n      0x40\n        /* \"#utility.yul\":1483:1505   */\n      mstore\n        /* \"#utility.yul\":1273:1511   */\n      pop\n        /* \"#utility.yul\":1230:1511   */\n      pop\n      pop\n      jump\t// out\n        /* \"#utility.yul\":1517:1646   */\n    tag_270:\n        /* \"#utility.yul\":1551:1557   */\n      0x00\n        /* \"#utility.yul\":1578:1598   */\n      tag_359\n      tag_259\n      jump\t// in\n    tag_359:\n        /* \"#utility.yul\":1568:1598   */\n      swap1\n      pop\n        /* \"#utility.yul\":1607:1640   */\n      tag_360\n        /* \"#utility.yul\":1635:1639   */\n      dup3\n        /* \"#utility.yul\":1627:1633   */\n      dup3\n        /* \"#utility.yul\":1607:1640   */\n      tag_269\n      jump\t// in\n    tag_360:\n        /* \"#utility.yul\":1517:1646   */\n      swap2\n      swap1\n      pop\n      jump\t// out\n        /* \"#utility.yul\":1652:1960   */\n    tag_271:\n        /* \"#utility.yul\":1714:1718   */\n      0x00\n        /* \"#utility.yul\":1804:1822   */\n      0xffffffffffffffff\n        /* \"#utility.yul\":1796:1802   */\n      dup3\n        /* \"#utility.yul\":1793:1823   */\n      gt\n        /* \"#utility.yul\":1790:1846   */\n      iszero\n      tag_362\n      jumpi\n        /* \"#utility.yul\":1826:1844   */\n      tag_363\n      tag_268\n      jump\t// in\n    tag_363:\n        /* \"#utility.yul\":1790:1846   */\n    tag_362:\n        /* \"#utility.yul\":1864:1893   */\n      tag_364\n        /* \"#utility.yul\":1886:1892   */\n      dup3\n        /* \"#utility.yul\":1864:1893   */\n      tag_267\n      jump\t// in\n    tag_364:\n        /* \"#utility.yul\":1856:1893   */\n      swap1\n      pop\n        /* \"#utility.yul\":1948:1952   */\n      0x20\n        /* \"#utility.yul\":1942:1946   */\n      dup2\n        /* \"#utility.yul\":1938:1953   */\n      add\n        /* \"#utility.yul\":1930:1953   */\n      swap1\n      pop\n        /* \"#utility.yul\":1652:1960   */\n      swap2\n      swap1\n      pop\n      jump\t// out\n        /* \"#utility.yul\":1966:2112   */\n    tag_272:\n        /* \"#utility.yul\":2063:2069   */\n      dup3\n        /* \"#utility.yul\":2058:2061   */\n      dup2\n        /* \"#utility.yul\":2053:2056   */\n      dup4\n        /* \"#utility.yul\":2040:2070   */\n      calldatacopy\n        /* \"#utility.yul\":2104:2105   */\n      0x00\n        /* \"#utility.yul\":2095:2101   */\n      dup4\n        /* \"#utility.yul\":2090:2093   */\n      dup4\n        /* \"#utility.yul\":2086:2102   */\n      add\n        /* \"#utility.yul\":2079:2106   */\n      mstore\n        /* \"#utility.yul\":1966:2112   */\n      pop\n      pop\n      pop\n      jump\t// out\n        /* \"#utility.yul\":2118:2543   */\n    tag_273:\n        /* \"#utility.yul\":2196:2201   */\n      0x00\n        /* \"#utility.yul\":2221:2287   */\n      tag_367\n        /* \"#utility.yul\":2237:2286   */\n      tag_368\n        /* \"#utility.yul\":2279:2285   */\n      dup5\n        /* \"#utility.yul\":2237:2286   */\n      tag_271\n      jump\t// in\n    tag_368:\n        /* \"#utility.yul\":2221:2287   */\n      tag_270\n      jump\t// in\n    tag_367:\n        /* \"#utility.yul\":2212:2287   */\n      swap1\n      pop\n        /* \"#utility.yul\":2310:2316   */\n      dup3\n        /* \"#utility.yul\":2303:2308   */\n      dup2\n        /* \"#utility.yul\":2296:2317   */\n      mstore\n        /* \"#utility.yul\":2348:2352   */\n      0x20\n        /* \"#utility.yul\":2341:2346   */\n      dup2\n        /* \"#utility.yul\":2337:2353   */\n      add\n        /* \"#utility.yul\":2386:2389   */\n      dup5\n        /* \"#utility.yul\":2377:2383   */\n      dup5\n        /* \"#utility.yul\":2372:2375   */\n      dup5\n        /* \"#utility.yul\":2368:2384   */\n      add\n        /* \"#utility.yul\":2365:2390   */\n      gt\n        /* \"#utility.yul\":2362:2474   */\n      iszero\n      tag_369\n      jumpi\n        /* \"#utility.yul\":2393:2472   */\n      tag_370\n      tag_266\n      jump\t// in\n    tag_370:\n        /* \"#utility.yul\":2362:2474   */\n    tag_369:\n        /* \"#utility.yul\":2483:2537   */\n      tag_371\n        /* \"#utility.yul\":2530:2536   */\n      dup5\n        /* \"#utility.yul\":2525:2528   */\n      dup3\n        /* \"#utility.yul\":2520:2523   */\n      dup6\n        /* \"#utility.yul\":2483:2537   */\n      tag_272\n      jump\t// in\n    tag_371:\n        /* \"#utility.yul\":2202:2543   */\n      pop\n        /* \"#utility.yul\":2118:2543   */\n      swap4\n      swap3\n      pop\n      pop\n      pop\n      jump\t// out\n        /* \"#utility.yul\":2563:2903   */\n    tag_274:\n        /* \"#utility.yul\":2619:2624   */\n      0x00\n        /* \"#utility.yul\":2668:2671   */\n      dup3\n        /* \"#utility.yul\":2661:2665   */\n      0x1f\n        /* \"#utility.yul\":2653:2659   */\n      dup4\n        /* \"#utility.yul\":2649:2666   */\n      add\n        /* \"#utility.yul\":2645:2672   */\n      slt\n        /* \"#utility.yul\":2635:2757   */\n      tag_373\n      jumpi\n        /* \"#utility.yul\":2676:2755   */\n      tag_374\n      tag_265\n      jump\t// in\n    tag_374:\n        /* \"#utility.yul\":2635:2757   */\n    tag_373:\n        /* \"#utility.yul\":2793:2799   */\n      dup2\n        /* \"#utility.yul\":2780:2800   */\n      calldataload\n        /* \"#utility.yul\":2818:2897   */\n      tag_375\n        /* \"#utility.yul\":2893:2896   */\n      dup5\n        /* \"#utility.yul\":2885:2891   */\n      dup3\n        /* \"#utility.yul\":2878:2882   */\n      0x20\n        /* \"#utility.yul\":2870:2876   */\n      dup7\n        /* \"#utility.yul\":2866:2883   */\n      add\n        /* \"#utility.yul\":2818:2897   */\n      tag_273\n      jump\t// in\n    tag_375:\n        /* \"#utility.yul\":2809:2897   */\n      swap2\n      pop\n        /* \"#utility.yul\":2625:2903   */\n      pop\n        /* \"#utility.yul\":2563:2903   */\n      swap3\n      swap2\n      pop\n      pop\n      jump\t// out\n        /* \"#utility.yul\":2909:3563   */\n    tag_18:\n        /* \"#utility.yul\":2987:2993   */\n      0x00\n        /* \"#utility.yul\":2995:3001   */\n      dup1\n        /* \"#utility.yul\":3044:3046   */\n      0x40\n        /* \"#utility.yul\":3032:3041   */\n      dup4\n        /* \"#utility.yul\":3023:3030   */\n      dup6\n        /* \"#utility.yul\":3019:3042   */\n      sub\n        /* \"#utility.yul\":3015:3047   */\n      slt\n        /* \"#utility.yul\":3012:3131   */\n      iszero\n      tag_377\n      jumpi\n        /* \"#utility.yul\":3050:3129   */\n      tag_378\n      tag_260\n      jump\t// in\n    tag_378:\n        /* \"#utility.yul\":3012:3131   */\n    tag_377:\n        /* \"#utility.yul\":3170:3171   */\n      0x00\n        /* \"#utility.yul\":3195:3248   */\n      tag_379\n        /* \"#utility.yul\":3240:3247   */\n      dup6\n        /* \"#utility.yul\":3231:3237   */\n      dup3\n        /* \"#utility.yul\":3220:3229   */\n      dup7\n        /* \"#utility.yul\":3216:3238   */\n      add\n        /* \"#utility.yul\":3195:3248   */\n      tag_264\n      jump\t// in\n    tag_379:\n        /* \"#utility.yul\":3185:3248   */\n      swap3\n      pop\n        /* \"#utility.yul\":3141:3258   */\n      pop\n        /* \"#utility.yul\":3325:3327   */\n      0x20\n        /* \"#utility.yul\":3314:3323   */\n      dup4\n        /* \"#utility.yul\":3310:3328   */\n      add\n        /* \"#utility.yul\":3297:3329   */\n      calldataload\n        /* \"#utility.yul\":3356:3374   */\n      0xffffffffffffffff\n        /* \"#utility.yul\":3348:3354   */\n      dup2\n        /* \"#utility.yul\":3345:3375   */\n      gt\n        /* \"#utility.yul\":3342:3459   */\n      iszero\n      tag_380\n      jumpi\n        /* \"#utility.yul\":3378:3457   */\n      tag_381\n      tag_261\n      jump\t// in\n    tag_381:\n        /* \"#utility.yul\":3342:3459   */\n    tag_380:\n        /* \"#utility.yul\":3483:3546   */\n      tag_382\n        /* \"#utility.yul\":3538:3545   */\n      dup6\n        /* \"#utility.yul\":3529:3535   */\n      dup3\n        /* \"#utility.yul\":3518:3527   */\n      dup7\n        /* \"#utility.yul\":3514:3536   */\n      add\n        /* \"#utility.yul\":3483:3546   */\n      tag_274\n      jump\t// in\n    tag_382:\n        /* \"#utility.yul\":3473:3546   */\n      swap2\n      pop\n        /* \"#utility.yul\":3268:3556   */\n      pop\n        /* \"#utility.yul\":2909:3563   */\n      swap3\n      pop\n      swap3\n      swap1\n      pop\n      jump\t// out\n        /* \"#utility.yul\":3569:3646   */\n    tag_275:\n        /* \"#utility.yul\":3606:3613   */\n      0x00\n        /* \"#utility.yul\":3635:3640   */\n      dup2\n        /* \"#utility.yul\":3624:3640   */\n      swap1\n      pop\n        /* \"#utility.yul\":3569:3646   */\n      swap2\n      swap1\n      pop\n      jump\t// out\n        /* \"#utility.yul\":3652:3770   */\n    tag_276:\n        /* \"#utility.yul\":3739:3763   */\n      tag_385\n        /* \"#utility.yul\":3757:3762   */\n      dup2\n        /* \"#utility.yul\":3739:3763   */\n      tag_275\n      jump\t// in\n    tag_385:\n        /* \"#utility.yul\":3734:3737   */\n      dup3\n        /* \"#utility.yul\":3727:3764   */\n      mstore\n        /* \"#utility.yul\":3652:3770   */\n      pop\n      pop\n      jump\t// out\n        /* \"#utility.yul\":3776:3998   */\n    tag_23:\n        /* \"#utility.yul\":3869:3873   */\n      0x00\n        /* \"#utility.yul\":3907:3909   */\n      0x20\n        /* \"#utility.yul\":3896:3905   */\n      dup3\n        /* \"#utility.yul\":3892:3910   */\n      add\n        /* \"#utility.yul\":3884:3910   */\n      swap1\n      pop\n        /* \"#utility.yul\":3920:3991   */\n      tag_387\n        /* \"#utility.yul\":3988:3989   */\n      0x00\n        /* \"#utility.yul\":3977:3986   */\n      dup4\n        /* \"#utility.yul\":3973:3990   */\n      add\n        /* \"#utility.yul\":3964:3970   */\n      dup5\n        /* \"#utility.yul\":3920:3991   */\n      tag_276\n      jump\t// in\n    tag_387:\n        /* \"#utility.yul\":3776:3998   */\n      swap3\n      swap2\n      pop\n      pop\n      jump\t// out\n        /* \"#utility.yul\":4004:4103   */\n    tag_277:\n        /* \"#utility.yul\":4056:4062   */\n      0x00\n        /* \"#utility.yul\":4090:4095   */\n      dup2\n        /* \"#utility.yul\":4084:4096   */\n      mload\n        /* \"#utility.yul\":4074:4096   */\n      swap1\n      pop\n        /* \"#utility.yul\":4004:4103   */\n      swap2\n      swap1\n      pop\n      jump\t// out\n        /* \"#utility.yul\":4109:4278   */\n    tag_278:\n        /* \"#utility.yul\":4193:4204   */\n      0x00\n        /* \"#utility.yul\":4227:4233   */\n      dup3\n        /* \"#utility.yul\":4222:4225   */\n      dup3\n        /* \"#utility.yul\":4215:4234   */\n      mstore\n        /* \"#utility.yul\":4267:4271   */\n      0x20\n        /* \"#utility.yul\":4262:4265   */\n      dup3\n        /* \"#utility.yul\":4258:4272   */\n      add\n        /* \"#utility.yul\":4243:4272   */\n      swap1\n      pop\n        /* \"#utility.yul\":4109:4278   */\n      swap3\n      swap2\n      pop\n      pop\n      jump\t// out\n        /* \"#utility.yul\":4284:4530   */\n    tag_279:\n        /* \"#utility.yul\":4365:4366   */\n      0x00\n        /* \"#utility.yul\":4375:4488   */\n    tag_391:\n        /* \"#utility.yul\":4389:4395   */\n      dup4\n        /* \"#utility.yul\":4386:4387   */\n      dup2\n        /* \"#utility.yul\":4383:4396   */\n      lt\n        /* \"#utility.yul\":4375:4488   */\n      iszero\n      tag_393\n      jumpi\n        /* \"#utility.yul\":4474:4475   */\n      dup1\n        /* \"#utility.yul\":4469:4472   */\n      dup3\n        /* \"#utility.yul\":4465:4476   */\n      add\n        /* \"#utility.yul\":4459:4477   */\n      mload\n        /* \"#utility.yul\":4455:4456   */\n      dup2\n        /* \"#utility.yul\":4450:4453   */\n      dup5\n        /* \"#utility.yul\":4446:4457   */\n      add\n        /* \"#utility.yul\":4439:4478   */\n      mstore\n        /* \"#utility.yul\":4411:4413   */\n      0x20\n        /* \"#utility.yul\":4408:4409   */\n      dup2\n        /* \"#utility.yul\":4404:4414   */\n      add\n        /* \"#utility.yul\":4399:4414   */\n      swap1\n      pop\n        /* \"#utility.yul\":4375:4488   */\n      jump(tag_391)\n    tag_393:\n        /* \"#utility.yul\":4522:4523   */\n      0x00\n        /* \"#utility.yul\":4513:4519   */\n      dup5\n        /* \"#utility.yul\":4508:4511   */\n      dup5\n        /* \"#utility.yul\":4504:4520   */\n      add\n        /* \"#utility.yul\":4497:4524   */\n      mstore\n        /* \"#utility.yul\":4346:4530   */\n      pop\n        /* \"#utility.yul\":4284:4530   */\n      pop\n      pop\n      pop\n      jump\t// out\n        /* \"#utility.yul\":4536:4913   */\n    tag_280:\n        /* \"#utility.yul\":4624:4627   */\n      0x00\n        /* \"#utility.yul\":4652:4691   */\n      tag_395\n        /* \"#utility.yul\":4685:4690   */\n      dup3\n        /* \"#utility.yul\":4652:4691   */\n      tag_277\n      jump\t// in\n    tag_395:\n        /* \"#utility.yul\":4707:4778   */\n      tag_396\n        /* \"#utility.yul\":4771:4777   */\n      dup2\n        /* \"#utility.yul\":4766:4769   */\n      dup6\n        /* \"#utility.yul\":4707:4778   */\n      tag_278\n      jump\t// in\n    tag_396:\n        /* \"#utility.yul\":4700:4778   */\n      swap4\n      pop\n        /* \"#utility.yul\":4787:4852   */\n      tag_397\n        /* \"#utility.yul\":4845:4851   */\n      dup2\n        /* \"#utility.yul\":4840:4843   */\n      dup6\n        /* \"#utility.yul\":4833:4837   */\n      0x20\n        /* \"#utility.yul\":4826:4831   */\n      dup7\n        /* \"#utility.yul\":4822:4838   */\n      add\n        /* \"#utility.yul\":4787:4852   */\n      tag_279\n      jump\t// in\n    tag_397:\n        /* \"#utility.yul\":4877:4906   */\n      tag_398\n        /* \"#utility.yul\":4899:4905   */\n      dup2\n        /* \"#utility.yul\":4877:4906   */\n      tag_267\n      jump\t// in\n    tag_398:\n        /* \"#utility.yul\":4872:4875   */\n      dup5\n        /* \"#utility.yul\":4868:4907   */\n      add\n        /* \"#utility.yul\":4861:4907   */\n      swap2\n      pop\n        /* \"#utility.yul\":4628:4913   */\n      pop\n        /* \"#utility.yul\":4536:4913   */\n      swap3\n      swap2\n      pop\n      pop\n      jump\t// out\n        /* \"#utility.yul\":4919:5232   */\n    tag_29:\n        /* \"#utility.yul\":5032:5036   */\n      0x00\n        /* \"#utility.yul\":5070:5072   */\n      0x20\n        /* \"#utility.yul\":5059:5068   */\n      dup3\n        /* \"#utility.yul\":5055:5073   */\n      add\n        /* \"#utility.yul\":5047:5073   */\n      swap1\n      pop\n        /* \"#utility.yul\":5119:5128   */\n      dup2\n        /* \"#utility.yul\":5113:5117   */\n      dup2\n        /* \"#utility.yul\":5109:5129   */\n      sub\n        /* \"#utility.yul\":5105:5106   */\n      0x00\n        /* \"#utility.yul\":5094:5103   */\n      dup4\n        /* \"#utility.yul\":5090:5107   */\n      add\n        /* \"#utility.yul\":5083:5130   */\n      mstore\n        /* \"#utility.yul\":5147:5225   */\n      tag_400\n        /* \"#utility.yul\":5220:5224   */\n      dup2\n        /* \"#utility.yul\":5211:5217   */\n      dup5\n        /* \"#utility.yul\":5147:5225   */\n      tag_280\n      jump\t// in\n    tag_400:\n        /* \"#utility.yul\":5139:5225   */\n      swap1\n      pop\n        /* \"#utility.yul\":4919:5232   */\n      swap3\n      swap2\n      pop\n      pop\n      jump\t// out\n        /* \"#utility.yul\":5238:5356   */\n    tag_281:\n        /* \"#utility.yul\":5325:5349   */\n      tag_402\n        /* \"#utility.yul\":5343:5348   */\n      dup2\n        /* \"#utility.yul\":5325:5349   */\n      tag_262\n      jump\t// in\n    tag_402:\n        /* \"#utility.yul\":5320:5323   */\n      dup3\n        /* \"#utility.yul\":5313:5350   */\n      mstore\n        /* \"#utility.yul\":5238:5356   */\n      pop\n      pop\n      jump\t// out\n        /* \"#utility.yul\":5362:5584   */\n    tag_33:\n        /* \"#utility.yul\":5455:5459   */\n      0x00\n        /* \"#utility.yul\":5493:5495   */\n      0x20\n        /* \"#utility.yul\":5482:5491   */\n      dup3\n        /* \"#utility.yul\":5478:5496   */\n      add\n        /* \"#utility.yul\":5470:5496   */\n      swap1\n      pop\n        /* \"#utility.yul\":5506:5577   */\n      tag_404\n        /* \"#utility.yul\":5574:5575   */\n      0x00\n        /* \"#utility.yul\":5563:5572   */\n      dup4\n        /* \"#utility.yul\":5559:5576   */\n      add\n        /* \"#utility.yul\":5550:5556   */\n      dup5\n        /* \"#utility.yul\":5506:5577   */\n      tag_281\n      jump\t// in\n    tag_404:\n        /* \"#utility.yul\":5362:5584   */\n      swap3\n      swap2\n      pop\n      pop\n      jump\t// out\n        /* \"#utility.yul\":5590:5716   */\n    tag_282:\n        /* \"#utility.yul\":5627:5634   */\n      0x00\n        /* \"#utility.yul\":5667:5709   */\n      0xffffffffffffffffffffffffffffffffffffffff\n        /* \"#utility.yul\":5660:5665   */\n      dup3\n        /* \"#utility.yul\":5656:5710   */\n      and\n        /* \"#utility.yul\":5645:5710   */\n      swap1\n      pop\n        /* \"#utility.yul\":5590:5716   */\n      swap2\n      swap1\n      pop\n      jump\t// out\n        /* \"#utility.yul\":5722:5818   */\n    tag_283:\n        /* \"#utility.yul\":5759:5766   */\n      0x00\n        /* \"#utility.yul\":5788:5812   */\n      tag_407\n        /* \"#utility.yul\":5806:5811   */\n      dup3\n        /* \"#utility.yul\":5788:5812   */\n      tag_282\n      jump\t// in\n    tag_407:\n        /* \"#utility.yul\":5777:5812   */\n      swap1\n      pop\n        /* \"#utility.yul\":5722:5818   */\n      swap2\n      swap1\n      pop\n      jump\t// out\n        /* \"#utility.yul\":5824:5942   */\n    tag_284:\n        /* \"#utility.yul\":5911:5935   */\n      tag_409\n        /* \"#utility.yul\":5929:5934   */\n      dup2\n        /* \"#utility.yul\":5911:5935   */\n      tag_283\n      jump\t// in\n    tag_409:\n        /* \"#utility.yul\":5906:5909   */\n      dup3\n        /* \"#utility.yul\":5899:5936   */\n      mstore\n        /* \"#utility.yul\":5824:5942   */\n      pop\n      pop\n      jump\t// out\n        /* \"#utility.yul\":5948:6170   */\n    tag_39:\n        /* \"#utility.yul\":6041:6045   */\n      0x00\n        /* \"#utility.yul\":6079:6081   */\n      0x20\n        /* \"#utility.yul\":6068:6077   */\n      dup3\n        /* \"#utility.yul\":6064:6082   */\n      add\n        /* \"#utility.yul\":6056:6082   */\n      swap1\n      pop\n        /* \"#utility.yul\":6092:6163   */\n      tag_411\n        /* \"#utility.yul\":6160:6161   */\n      0x00\n        /* \"#utility.yul\":6149:6158   */\n      dup4\n        /* \"#utility.yul\":6145:6162   */\n      add\n        /* \"#utility.yul\":6136:6142   */\n      dup5\n        /* \"#utility.yul\":6092:6163   */\n      tag_284\n      jump\t// in\n    tag_411:\n        /* \"#utility.yul\":5948:6170   */\n      swap3\n      swap2\n      pop\n      pop\n      jump\t// out\n        /* \"#utility.yul\":6176:6298   */\n    tag_285:\n        /* \"#utility.yul\":6249:6273   */\n      tag_413\n        /* \"#utility.yul\":6267:6272   */\n      dup2\n        /* \"#utility.yul\":6249:6273   */\n      tag_283\n      jump\t// in\n    tag_413:\n        /* \"#utility.yul\":6242:6247   */\n      dup2\n        /* \"#utility.yul\":6239:6274   */\n      eq\n        /* \"#utility.yul\":6229:6292   */\n      tag_414\n      jumpi\n        /* \"#utility.yul\":6288:6289   */\n      0x00\n        /* \"#utility.yul\":6285:6286   */\n      dup1\n        /* \"#utility.yul\":6278:6290   */\n      revert\n        /* \"#utility.yul\":6229:6292   */\n    tag_414:\n        /* \"#utility.yul\":6176:6298   */\n      pop\n      jump\t// out\n        /* \"#utility.yul\":6304:6443   */\n    tag_286:\n        /* \"#utility.yul\":6350:6355   */\n      0x00\n        /* \"#utility.yul\":6388:6394   */\n      dup2\n        /* \"#utility.yul\":6375:6395   */\n      calldataload\n        /* \"#utility.yul\":6366:6395   */\n      swap1\n      pop\n        /* \"#utility.yul\":6404:6437   */\n      tag_416\n        /* \"#utility.yul\":6431:6436   */\n      dup2\n        /* \"#utility.yul\":6404:6437   */\n      tag_285\n      jump\t// in\n    tag_416:\n        /* \"#utility.yul\":6304:6443   */\n      swap3\n      swap2\n      pop\n      pop\n      jump\t// out\n        /* \"#utility.yul\":6449:6778   */\n    tag_50:\n        /* \"#utility.yul\":6508:6514   */\n      0x00\n        /* \"#utility.yul\":6557:6559   */\n      0x20\n        /* \"#utility.yul\":6545:6554   */\n      dup3\n        /* \"#utility.yul\":6536:6543   */\n      dup5\n        /* \"#utility.yul\":6532:6555   */\n      sub\n        /* \"#utility.yul\":6528:6560   */\n      slt\n        /* \"#utility.yul\":6525:6644   */\n      iszero\n      tag_418\n      jumpi\n        /* \"#utility.yul\":6563:6642   */\n      tag_419\n      tag_260\n      jump\t// in\n    tag_419:\n        /* \"#utility.yul\":6525:6644   */\n    tag_418:\n        /* \"#utility.yul\":6683:6684   */\n      0x00\n        /* \"#utility.yul\":6708:6761   */\n      tag_420\n        /* \"#utility.yul\":6753:6760   */\n      dup5\n        /* \"#utility.yul\":6744:6750   */\n      dup3\n        /* \"#utility.yul\":6733:6742   */\n      dup6\n        /* \"#utility.yul\":6729:6751   */\n      add\n        /* \"#utility.yul\":6708:6761   */\n      tag_286\n      jump\t// in\n    tag_420:\n        /* \"#utility.yul\":6698:6761   */\n      swap2\n      pop\n        /* \"#utility.yul\":6654:6771   */\n      pop\n        /* \"#utility.yul\":6449:6778   */\n      swap3\n      swap2\n      pop\n      pop\n      jump\t// out\n        /* \"#utility.yul\":6784:6906   */\n    tag_287:\n        /* \"#utility.yul\":6857:6881   */\n      tag_422\n        /* \"#utility.yul\":6875:6880   */\n      dup2\n        /* \"#utility.yul\":6857:6881   */\n      tag_275\n      jump\t// in\n    tag_422:\n        /* \"#utility.yul\":6850:6855   */\n      dup2\n        /* \"#utility.yul\":6847:6882   */\n      eq\n        /* \"#utility.yul\":6837:6900   */\n      tag_423\n      jumpi\n        /* \"#utility.yul\":6896:6897   */\n      0x00\n        /* \"#utility.yul\":6893:6894   */\n      dup1\n        /* \"#utility.yul\":6886:6898   */\n      revert\n        /* \"#utility.yul\":6837:6900   */\n    tag_423:\n        /* \"#utility.yul\":6784:6906   */\n      pop\n      jump\t// out\n        /* \"#utility.yul\":6912:7051   */\n    tag_288:\n        /* \"#utility.yul\":6958:6963   */\n      0x00\n        /* \"#utility.yul\":6996:7002   */\n      dup2\n        /* \"#utility.yul\":6983:7003   */\n      calldataload\n        /* \"#utility.yul\":6974:7003   */\n      swap1\n      pop\n        /* \"#utility.yul\":7012:7045   */\n      tag_425\n        /* \"#utility.yul\":7039:7044   */\n      dup2\n        /* \"#utility.yul\":7012:7045   */\n      tag_287\n      jump\t// in\n    tag_425:\n        /* \"#utility.yul\":6912:7051   */\n      swap3\n      swap2\n      pop\n      pop\n      jump\t// out\n        /* \"#utility.yul\":7057:7822   */\n    tag_54:\n        /* \"#utility.yul\":7143:7149   */\n      0x00\n        /* \"#utility.yul\":7151:7157   */\n      dup1\n        /* \"#utility.yul\":7159:7165   */\n      0x00\n        /* \"#utility.yul\":7167:7173   */\n      dup1\n        /* \"#utility.yul\":7216:7219   */\n      0x80\n        /* \"#utility.yul\":7204:7213   */\n      dup6\n        /* \"#utility.yul\":7195:7202   */\n      dup8\n        /* \"#utility.yul\":7191:7214   */\n      sub\n        /* \"#utility.yul\":7187:7220   */\n      slt\n        /* \"#utility.yul\":7184:7304   */\n      iszero\n      tag_427\n      jumpi\n        /* \"#utility.yul\":7223:7302   */\n      tag_428\n      tag_260\n      jump\t// in\n    tag_428:\n        /* \"#utility.yul\":7184:7304   */\n    tag_427:\n        /* \"#utility.yul\":7343:7344   */\n      0x00\n        /* \"#utility.yul\":7368:7421   */\n      tag_429\n        /* \"#utility.yul\":7413:7420   */\n      dup8\n        /* \"#utility.yul\":7404:7410   */\n      dup3\n        /* \"#utility.yul\":7393:7402   */\n      dup9\n        /* \"#utility.yul\":7389:7411   */\n      add\n        /* \"#utility.yul\":7368:7421   */\n      tag_264\n      jump\t// in\n    tag_429:\n        /* \"#utility.yul\":7358:7421   */\n      swap5\n      pop\n        /* \"#utility.yul\":7314:7431   */\n      pop\n        /* \"#utility.yul\":7470:7472   */\n      0x20\n        /* \"#utility.yul\":7496:7549   */\n      tag_430\n        /* \"#utility.yul\":7541:7548   */\n      dup8\n        /* \"#utility.yul\":7532:7538   */\n      dup3\n        /* \"#utility.yul\":7521:7530   */\n      dup9\n        /* \"#utility.yul\":7517:7539   */\n      add\n        /* \"#utility.yul\":7496:7549   */\n      tag_288\n      jump\t// in\n    tag_430:\n        /* \"#utility.yul\":7486:7549   */\n      swap4\n      pop\n        /* \"#utility.yul\":7441:7559   */\n      pop\n        /* \"#utility.yul\":7598:7600   */\n      0x40\n        /* \"#utility.yul\":7624:7677   */\n      tag_431\n        /* \"#utility.yul\":7669:7676   */\n      dup8\n        /* \"#utility.yul\":7660:7666   */\n      dup3\n        /* \"#utility.yul\":7649:7658   */\n      dup9\n        /* \"#utility.yul\":7645:7667   */\n      add\n        /* \"#utility.yul\":7624:7677   */\n      tag_288\n      jump\t// in\n    tag_431:\n        /* \"#utility.yul\":7614:7677   */\n      swap3\n      pop\n        /* \"#utility.yul\":7569:7687   */\n      pop\n        /* \"#utility.yul\":7726:7728   */\n      0x60\n        /* \"#utility.yul\":7752:7805   */\n      tag_432\n        /* \"#utility.yul\":7797:7804   */\n      dup8\n        /* \"#utility.yul\":7788:7794   */\n      dup3\n        /* \"#utility.yul\":7777:7786   */\n      dup9\n        /* \"#utility.yul\":7773:7795   */\n      add\n        /* \"#utility.yul\":7752:7805   */\n      tag_288\n      jump\t// in\n    tag_432:\n        /* \"#utility.yul\":7742:7805   */\n      swap2\n      pop\n        /* \"#utility.yul\":7697:7815   */\n      pop\n        /* \"#utility.yul\":7057:7822   */\n      swap3\n      swap6\n      swap2\n      swap5\n      pop\n      swap3\n      pop\n      jump\t// out\n        /* \"#utility.yul\":7828:8055   */\n    tag_289:\n        /* \"#utility.yul\":7968:8002   */\n      0x536f75726365206d75737420626520746865206f7261636c65206f6620746865\n        /* \"#utility.yul\":7964:7965   */\n      0x00\n        /* \"#utility.yul\":7956:7962   */\n      dup3\n        /* \"#utility.yul\":7952:7966   */\n      add\n        /* \"#utility.yul\":7945:8003   */\n      mstore\n        /* \"#utility.yul\":8037:8047   */\n      0x2072657175657374000000000000000000000000000000000000000000000000\n        /* \"#utility.yul\":8032:8034   */\n      0x20\n        /* \"#utility.yul\":8024:8030   */\n      dup3\n        /* \"#utility.yul\":8020:8035   */\n      add\n        /* \"#utility.yul\":8013:8048   */\n      mstore\n        /* \"#utility.yul\":7828:8055   */\n      pop\n      jump\t// out\n        /* \"#utility.yul\":8061:8427   */\n    tag_290:\n        /* \"#utility.yul\":8203:8206   */\n      0x00\n        /* \"#utility.yul\":8224:8291   */\n      tag_435\n        /* \"#utility.yul\":8288:8290   */\n      0x28\n        /* \"#utility.yul\":8283:8286   */\n      dup4\n        /* \"#utility.yul\":8224:8291   */\n      tag_278\n      jump\t// in\n    tag_435:\n        /* \"#utility.yul\":8217:8291   */\n      swap2\n      pop\n        /* \"#utility.yul\":8300:8393   */\n      tag_436\n        /* \"#utility.yul\":8389:8392   */\n      dup3\n        /* \"#utility.yul\":8300:8393   */\n      tag_289\n      jump\t// in\n    tag_436:\n        /* \"#utility.yul\":8418:8420   */\n      0x40\n        /* \"#utility.yul\":8413:8416   */\n      dup3\n        /* \"#utility.yul\":8409:8421   */\n      add\n        /* \"#utility.yul\":8402:8421   */\n      swap1\n      pop\n        /* \"#utility.yul\":8061:8427   */\n      swap2\n      swap1\n      pop\n      jump\t// out\n        /* \"#utility.yul\":8433:8852   */\n    tag_59:\n        /* \"#utility.yul\":8599:8603   */\n      0x00\n        /* \"#utility.yul\":8637:8639   */\n      0x20\n        /* \"#utility.yul\":8626:8635   */\n      dup3\n        /* \"#utility.yul\":8622:8640   */\n      add\n        /* \"#utility.yul\":8614:8640   */\n      swap1\n      pop\n        /* \"#utility.yul\":8686:8695   */\n      dup2\n        /* \"#utility.yul\":8680:8684   */\n      dup2\n        /* \"#utility.yul\":8676:8696   */\n      sub\n        /* \"#utility.yul\":8672:8673   */\n      0x00\n        /* \"#utility.yul\":8661:8670   */\n      dup4\n        /* \"#utility.yul\":8657:8674   */\n      add\n        /* \"#utility.yul\":8650:8697   */\n      mstore\n        /* \"#utility.yul\":8714:8845   */\n      tag_438\n        /* \"#utility.yul\":8840:8844   */\n      dup2\n        /* \"#utility.yul\":8714:8845   */\n      tag_290\n      jump\t// in\n    tag_438:\n        /* \"#utility.yul\":8706:8845   */\n      swap1\n      pop\n        /* \"#utility.yul\":8433:8852   */\n      swap2\n      swap1\n      pop\n      jump\t// out\n        /* \"#utility.yul\":8858:9038   */\n    tag_291:\n        /* \"#utility.yul\":8906:8983   */\n      0x4e487b7100000000000000000000000000000000000000000000000000000000\n        /* \"#utility.yul\":8903:8904   */\n      0x00\n        /* \"#utility.yul\":8896:8984   */\n      mstore\n        /* \"#utility.yul\":9003:9007   */\n      0x22\n        /* \"#utility.yul\":9000:9001   */\n      0x04\n        /* \"#utility.yul\":8993:9008   */\n      mstore\n        /* \"#utility.yul\":9027:9031   */\n      0x24\n        /* \"#utility.yul\":9024:9025   */\n      0x00\n        /* \"#utility.yul\":9017:9032   */\n      revert\n        /* \"#utility.yul\":9044:9364   */\n    tag_76:\n        /* \"#utility.yul\":9088:9094   */\n      0x00\n        /* \"#utility.yul\":9125:9126   */\n      0x02\n        /* \"#utility.yul\":9119:9123   */\n      dup3\n        /* \"#utility.yul\":9115:9127   */\n      div\n        /* \"#utility.yul\":9105:9127   */\n      swap1\n      pop\n        /* \"#utility.yul\":9172:9173   */\n      0x01\n        /* \"#utility.yul\":9166:9170   */\n      dup3\n        /* \"#utility.yul\":9162:9174   */\n      and\n        /* \"#utility.yul\":9193:9211   */\n      dup1\n        /* \"#utility.yul\":9183:9264   */\n      tag_441\n      jumpi\n        /* \"#utility.yul\":9249:9253   */\n      0x7f\n        /* \"#utility.yul\":9241:9247   */\n      dup3\n        /* \"#utility.yul\":9237:9254   */\n      and\n        /* \"#utility.yul\":9227:9254   */\n      swap2\n      pop\n        /* \"#utility.yul\":9183:9264   */\n    tag_441:\n        /* \"#utility.yul\":9311:9313   */\n      0x20\n        /* \"#utility.yul\":9303:9309   */\n      dup3\n        /* \"#utility.yul\":9300:9314   */\n      lt\n        /* \"#utility.yul\":9280:9298   */\n      dup2\n        /* \"#utility.yul\":9277:9315   */\n      sub\n        /* \"#utility.yul\":9274:9358   */\n      tag_442\n      jumpi\n        /* \"#utility.yul\":9330:9348   */\n      tag_443\n      tag_291\n      jump\t// in\n    tag_443:\n        /* \"#utility.yul\":9274:9358   */\n    tag_442:\n        /* \"#utility.yul\":9095:9364   */\n      pop\n        /* \"#utility.yul\":9044:9364   */\n      swap2\n      swap1\n      pop\n      jump\t// out\n        /* \"#utility.yul\":9370:9511   */\n    tag_292:\n        /* \"#utility.yul\":9419:9423   */\n      0x00\n        /* \"#utility.yul\":9442:9445   */\n      dup2\n        /* \"#utility.yul\":9434:9445   */\n      swap1\n      pop\n        /* \"#utility.yul\":9465:9468   */\n      dup2\n        /* \"#utility.yul\":9462:9463   */\n      0x00\n        /* \"#utility.yul\":9455:9469   */\n      mstore\n        /* \"#utility.yul\":9499:9503   */\n      0x20\n        /* \"#utility.yul\":9496:9497   */\n      0x00\n        /* \"#utility.yul\":9486:9504   */\n      keccak256\n        /* \"#utility.yul\":9478:9504   */\n      swap1\n      pop\n        /* \"#utility.yul\":9370:9511   */\n      swap2\n      swap1\n      pop\n      jump\t// out\n        /* \"#utility.yul\":9517:9610   */\n    tag_293:\n        /* \"#utility.yul\":9554:9560   */\n      0x00\n        /* \"#utility.yul\":9601:9603   */\n      0x20\n        /* \"#utility.yul\":9596:9598   */\n      0x1f\n        /* \"#utility.yul\":9589:9594   */\n      dup4\n        /* \"#utility.yul\":9585:9599   */\n      add\n        /* \"#utility.yul\":9581:9604   */\n      div\n        /* \"#utility.yul\":9571:9604   */\n      swap1\n      pop\n        /* \"#utility.yul\":9517:9610   */\n      swap2\n      swap1\n      pop\n      jump\t// out\n        /* \"#utility.yul\":9616:9723   */\n    tag_294:\n        /* \"#utility.yul\":9660:9668   */\n      0x00\n        /* \"#utility.yul\":9710:9715   */\n      dup3\n        /* \"#utility.yul\":9704:9708   */\n      dup3\n        /* \"#utility.yul\":9700:9716   */\n      shl\n        /* \"#utility.yul\":9679:9716   */\n      swap1\n      pop\n        /* \"#utility.yul\":9616:9723   */\n      swap3\n      swap2\n      pop\n      pop\n      jump\t// out\n        /* \"#utility.yul\":9729:10122   */\n    tag_295:\n        /* \"#utility.yul\":9798:9804   */\n      0x00\n        /* \"#utility.yul\":9848:9849   */\n      0x08\n        /* \"#utility.yul\":9836:9846   */\n      dup4\n        /* \"#utility.yul\":9832:9850   */\n      mul\n        /* \"#utility.yul\":9871:9968   */\n      tag_448\n        /* \"#utility.yul\":9901:9967   */\n      0xffffffffffffffffffffffffffffffffffffffffffffffffffffffffffffffff\n        /* \"#utility.yul\":9890:9899   */\n      dup3\n        /* \"#utility.yul\":9871:9968   */\n      tag_294\n      jump\t// in\n    tag_448:\n        /* \"#utility.yul\":9989:10028   */\n      tag_449\n        /* \"#utility.yul\":10019:10027   */\n      dup7\n        /* \"#utility.yul\":10008:10017   */\n      dup4\n        /* \"#utility.yul\":9989:10028   */\n      tag_294\n      jump\t// in\n    tag_449:\n        /* \"#utility.yul\":9977:10028   */\n      swap6\n      pop\n        /* \"#utility.yul\":10061:10065   */\n      dup1\n        /* \"#utility.yul\":10057:10066   */\n      not\n        /* \"#utility.yul\":10050:10055   */\n      dup5\n        /* \"#utility.yul\":10046:10067   */\n      and\n        /* \"#utility.yul\":10037:10067   */\n      swap4\n      pop\n        /* \"#utility.yul\":10110:10114   */\n      dup1\n        /* \"#utility.yul\":10100:10108   */\n      dup7\n        /* \"#utility.yul\":10096:10115   */\n      and\n        /* \"#utility.yul\":10089:10094   */\n      dup5\n        /* \"#utility.yul\":10086:10116   */\n      or\n        /* \"#utility.yul\":10076:10116   */\n      swap3\n      pop\n        /* \"#utility.yul\":9805:10122   */\n      pop\n      pop\n        /* \"#utility.yul\":9729:10122   */\n      swap4\n      swap3\n      pop\n      pop\n      pop\n      jump\t// out\n        /* \"#utility.yul\":10128:10188   */\n    tag_296:\n        /* \"#utility.yul\":10156:10159   */\n      0x00\n        /* \"#utility.yul\":10177:10182   */\n      dup2\n        /* \"#utility.yul\":10170:10182   */\n      swap1\n      pop\n        /* \"#utility.yul\":10128:10188   */\n      swap2\n      swap1\n      pop\n      jump\t// out\n        /* \"#utility.yul\":10194:10336   */\n    tag_297:\n        /* \"#utility.yul\":10244:10253   */\n      0x00\n        /* \"#utility.yul\":10277:10330   */\n      tag_452\n        /* \"#utility.yul\":10295:10329   */\n      tag_453\n        /* \"#utility.yul\":10304:10328   */\n      tag_454\n        /* \"#utility.yul\":10322:10327   */\n      dup5\n        /* \"#utility.yul\":10304:10328   */\n      tag_275\n      jump\t// in\n    tag_454:\n        /* \"#utility.yul\":10295:10329   */\n      tag_296\n      jump\t// in\n    tag_453:\n        /* \"#utility.yul\":10277:10330   */\n      tag_275\n      jump\t// in\n    tag_452:\n        /* \"#utility.yul\":10264:10330   */\n      swap1\n      pop\n        /* \"#utility.yul\":10194:10336   */\n      swap2\n      swap1\n      pop\n      jump\t// out\n        /* \"#utility.yul\":10342:10417   */\n    tag_298:\n        /* \"#utility.yul\":10385:10388   */\n      0x00\n        /* \"#utility.yul\":10406:10411   */\n      dup2\n        /* \"#utility.yul\":10399:10411   */\n      swap1\n      pop\n        /* \"#utility.yul\":10342:10417   */\n      swap2\n      swap1\n      pop\n      jump\t// out\n        /* \"#utility.yul\":10423:10692   */\n    tag_299:\n        /* \"#utility.yul\":10533:10572   */\n      tag_457\n        /* \"#utility.yul\":10564:10571   */\n      dup4\n        /* \"#utility.yul\":10533:10572   */\n      tag_297\n      jump\t// in\n    tag_457:\n        /* \"#utility.yul\":10594:10685   */\n      tag_458\n        /* \"#utility.yul\":10643:10684   */\n      tag_459\n        /* \"#utility.yul\":10667:10683   */\n      dup3\n        /* \"#utility.yul\":10643:10684   */\n      tag_298\n      jump\t// in\n    tag_459:\n        /* \"#utility.yul\":10635:10641   */\n      dup5\n        /* \"#utility.yul\":10628:10632   */\n      dup5\n        /* \"#utility.yul\":10622:10633   */\n      sload\n        /* \"#utility.yul\":10594:10685   */\n      tag_295\n      jump\t// in\n    tag_458:\n        /* \"#utility.yul\":10588:10592   */\n      dup3\n        /* \"#utility.yul\":10581:10686   */\n      sstore\n        /* \"#utility.yul\":10499:10692   */\n      pop\n        /* \"#utility.yul\":10423:10692   */\n      pop\n      pop\n      pop\n      jump\t// out\n        /* \"#utility.yul\":10698:10771   */\n    tag_300:\n        /* \"#utility.yul\":10743:10746   */\n      0x00\n        /* \"#utility.yul\":10698:10771   */\n      swap1\n      jump\t// out\n        /* \"#utility.yul\":10777:10966   */\n    tag_301:\n        /* \"#utility.yul\":10854:10886   */\n      tag_462\n      tag_300\n      jump\t// in\n    tag_462:\n        /* \"#utility.yul\":10895:10960   */\n      tag_463\n        /* \"#utility.yul\":10953:10959   */\n      dup2\n        /* \"#utility.yul\":10945:10951   */\n      dup5\n        /* \"#utility.yul\":10939:10943   */\n      dup5\n        /* \"#utility.yul\":10895:10960   */\n      tag_299\n      jump\t// in\n    tag_463:\n        /* \"#utility.yul\":10830:10966   */\n      pop\n        /* \"#utility.yul\":10777:10966   */\n      pop\n      pop\n      jump\t// out\n        /* \"#utility.yul\":10972:11158   */\n    tag_302:\n        /* \"#utility.yul\":11032:11152   */\n    tag_465:\n        /* \"#utility.yul\":11049:11052   */\n      dup2\n        /* \"#utility.yul\":11042:11047   */\n      dup2\n        /* \"#utility.yul\":11039:11053   */\n      lt\n        /* \"#utility.yul\":11032:11152   */\n      iszero\n      tag_467\n      jumpi\n        /* \"#utility.yul\":11103:11142   */\n      tag_468\n        /* \"#utility.yul\":11140:11141   */\n      0x00\n        /* \"#utility.yul\":11133:11138   */\n      dup3\n        /* \"#utility.yul\":11103:11142   */\n      tag_301\n      jump\t// in\n    tag_468:\n        /* \"#utility.yul\":11076:11077   */\n      0x01\n        /* \"#utility.yul\":11069:11074   */\n      dup2\n        /* \"#utility.yul\":11065:11078   */\n      add\n        /* \"#utility.yul\":11056:11078   */\n      swap1\n      pop\n        /* \"#utility.yul\":11032:11152   */\n      jump(tag_465)\n    tag_467:\n        /* \"#utility.yul\":10972:11158   */\n      pop\n      pop\n      jump\t// out\n        /* \"#utility.yul\":11164:11707   */\n    tag_303:\n        /* \"#utility.yul\":11265:11267   */\n      0x1f\n        /* \"#utility.yul\":11260:11263   */\n      dup3\n        /* \"#utility.yul\":11257:11268   */\n      gt\n        /* \"#utility.yul\":11254:11700   */\n      iszero\n      tag_470\n      jumpi\n        /* \"#utility.yul\":11299:11337   */\n      tag_471\n        /* \"#utility.yul\":11331:11336   */\n      dup2\n        /* \"#utility.yul\":11299:11337   */\n      tag_292\n      jump\t// in\n    tag_471:\n        /* \"#utility.yul\":11383:11412   */\n      tag_472\n        /* \"#utility.yul\":11401:11411   */\n      dup5\n        /* \"#utility.yul\":11383:11412   */\n      tag_293\n      jump\t// in\n    tag_472:\n        /* \"#utility.yul\":11373:11381   */\n      dup2\n        /* \"#utility.yul\":11369:11413   */\n      add\n        /* \"#utility.yul\":11566:11568   */\n      0x20\n        /* \"#utility.yul\":11554:11564   */\n      dup6\n        /* \"#utility.yul\":11551:11569   */\n      lt\n        /* \"#utility.yul\":11548:11597   */\n      iszero\n      tag_473\n      jumpi\n        /* \"#utility.yul\":11587:11595   */\n      dup2\n        /* \"#utility.yul\":11572:11595   */\n      swap1\n      pop\n        /* \"#utility.yul\":11548:11597   */\n    tag_473:\n        /* \"#utility.yul\":11610:11690   */\n      tag_474\n        /* \"#utility.yul\":11666:11688   */\n      tag_475\n        /* \"#utility.yul\":11684:11687   */\n      dup6\n        /* \"#utility.yul\":11666:11688   */\n      tag_293\n      jump\t// in\n    tag_475:\n        /* \"#utility.yul\":11656:11664   */\n      dup4\n        /* \"#utility.yul\":11652:11689   */\n      add\n        /* \"#utility.yul\":11639:11650   */\n      dup3\n        /* \"#utility.yul\":11610:11690   */\n      tag_302\n      jump\t// in\n    tag_474:\n        /* \"#utility.yul\":11269:11700   */\n      pop\n      pop\n        /* \"#utility.yul\":11254:11700   */\n    tag_470:\n        /* \"#utility.yul\":11164:11707   */\n      pop\n      pop\n      pop\n      jump\t// out\n        /* \"#utility.yul\":11713:11830   */\n    tag_304:\n        /* \"#utility.yul\":11767:11775   */\n      0x00\n        /* \"#utility.yul\":11817:11822   */\n      dup3\n        /* \"#utility.yul\":11811:11815   */\n      dup3\n        /* \"#utility.yul\":11807:11823   */\n      shr\n        /* \"#utility.yul\":11786:11823   */\n      swap1\n      pop\n        /* \"#utility.yul\":11713:11830   */\n      swap3\n      swap2\n      pop\n      pop\n      jump\t// out\n        /* \"#utility.yul\":11836:12005   */\n    tag_305:\n        /* \"#utility.yul\":11880:11886   */\n      0x00\n        /* \"#utility.yul\":11913:11964   */\n      tag_478\n        /* \"#utility.yul\":11961:11962   */\n      0x00\n        /* \"#utility.yul\":11957:11963   */\n      not\n        /* \"#utility.yul\":11949:11954   */\n      dup5\n        /* \"#utility.yul\":11946:11947   */\n      0x08\n        /* \"#utility.yul\":11942:11955   */\n      mul\n        /* \"#utility.yul\":11913:11964   */\n      tag_304\n      jump\t// in\n    tag_478:\n        /* \"#utility.yul\":11909:11965   */\n      not\n        /* \"#utility.yul\":11994:11998   */\n      dup1\n        /* \"#utility.yul\":11988:11992   */\n      dup4\n        /* \"#utility.yul\":11984:11999   */\n      and\n        /* \"#utility.yul\":11974:11999   */\n      swap2\n      pop\n        /* \"#utility.yul\":11887:12005   */\n      pop\n        /* \"#utility.yul\":11836:12005   */\n      swap3\n      swap2\n      pop\n      pop\n      jump\t// out\n        /* \"#utility.yul\":12010:12305   */\n    tag_306:\n        /* \"#utility.yul\":12086:12090   */\n      0x00\n        /* \"#utility.yul\":12232:12261   */\n      tag_480\n        /* \"#utility.yul\":12257:12260   */\n      dup4\n        /* \"#utility.yul\":12251:12255   */\n      dup4\n        /* \"#utility.yul\":12232:12261   */\n      tag_305\n      jump\t// in\n    tag_480:\n        /* \"#utility.yul\":12224:12261   */\n      swap2\n      pop\n        /* \"#utility.yul\":12294:12297   */\n      dup3\n        /* \"#utility.yul\":12291:12292   */\n      0x02\n        /* \"#utility.yul\":12287:12298   */\n      mul\n        /* \"#utility.yul\":12281:12285   */\n      dup3\n        /* \"#utility.yul\":12278:12299   */\n      or\n        /* \"#utility.yul\":12270:12299   */\n      swap1\n      pop\n        /* \"#utility.yul\":12010:12305   */\n      swap3\n      swap2\n      pop\n      pop\n      jump\t// out\n        /* \"#utility.yul\":12310:13705   */\n    tag_62:\n        /* \"#utility.yul\":12427:12464   */\n      tag_482\n        /* \"#utility.yul\":12460:12463   */\n      dup3\n        /* \"#utility.yul\":12427:12464   */\n      tag_277\n      jump\t// in\n    tag_482:\n        /* \"#utility.yul\":12529:12547   */\n      0xffffffffffffffff\n        /* \"#utility.yul\":12521:12527   */\n      dup2\n        /* \"#utility.yul\":12518:12548   */\n      gt\n        /* \"#utility.yul\":12515:12571   */\n      iszero\n      tag_483\n      jumpi\n        /* \"#utility.yul\":12551:12569   */\n      tag_484\n      tag_268\n      jump\t// in\n    tag_484:\n        /* \"#utility.yul\":12515:12571   */\n    tag_483:\n        /* \"#utility.yul\":12595:12633   */\n      tag_485\n        /* \"#utility.yul\":12627:12631   */\n      dup3\n        /* \"#utility.yul\":12621:12632   */\n      sload\n        /* \"#utility.yul\":12595:12633   */\n      tag_76\n      jump\t// in\n    tag_485:\n        /* \"#utility.yul\":12680:12747   */\n      tag_486\n        /* \"#utility.yul\":12740:12746   */\n      dup3\n        /* \"#utility.yul\":12732:12738   */\n      dup3\n        /* \"#utility.yul\":12726:12730   */\n      dup6\n        /* \"#utility.yul\":12680:12747   */\n      tag_303\n      jump\t// in\n    tag_486:\n        /* \"#utility.yul\":12774:12775   */\n      0x00\n        /* \"#utility.yul\":12798:12802   */\n      0x20\n        /* \"#utility.yul\":12785:12802   */\n      swap1\n      pop\n        /* \"#utility.yul\":12830:12832   */\n      0x1f\n        /* \"#utility.yul\":12822:12828   */\n      dup4\n        /* \"#utility.yul\":12819:12833   */\n      gt\n        /* \"#utility.yul\":12847:12848   */\n      0x01\n        /* \"#utility.yul\":12842:13460   */\n      dup2\n      eq\n      tag_488\n      jumpi\n        /* \"#utility.yul\":13504:13505   */\n      0x00\n        /* \"#utility.yul\":13521:13527   */\n      dup5\n        /* \"#utility.yul\":13518:13595   */\n      iszero\n      tag_489\n      jumpi\n        /* \"#utility.yul\":13570:13579   */\n      dup3\n        /* \"#utility.yul\":13565:13568   */\n      dup8\n        /* \"#utility.yul\":13561:13580   */\n      add\n        /* \"#utility.yul\":13555:13581   */\n      mload\n        /* \"#utility.yul\":13546:13581   */\n      swap1\n      pop\n        /* \"#utility.yul\":13518:13595   */\n    tag_489:\n        /* \"#utility.yul\":13621:13688   */\n      tag_490\n        /* \"#utility.yul\":13681:13687   */\n      dup6\n        /* \"#utility.yul\":13674:13679   */\n      dup3\n        /* \"#utility.yul\":13621:13688   */\n      tag_306\n      jump\t// in\n    tag_490:\n        /* \"#utility.yul\":13615:13619   */\n      dup7\n        /* \"#utility.yul\":13608:13689   */\n      sstore\n        /* \"#utility.yul\":13477:13699   */\n      pop\n        /* \"#utility.yul\":12812:13699   */\n      jump(tag_487)\n        /* \"#utility.yul\":12842:13460   */\n    tag_488:\n        /* \"#utility.yul\":12894:12898   */\n      0x1f\n        /* \"#utility.yul\":12890:12899   */\n      not\n        /* \"#utility.yul\":12882:12888   */\n      dup5\n        /* \"#utility.yul\":12878:12900   */\n      and\n        /* \"#utility.yul\":12928:12965   */\n      tag_491\n        /* \"#utility.yul\":12960:12964   */\n      dup7\n        /* \"#utility.yul\":12928:12965   */\n      tag_292\n      jump\t// in\n    tag_491:\n        /* \"#utility.yul\":12987:12988   */\n      0x00\n        /* \"#utility.yul\":13001:13209   */\n    tag_492:\n        /* \"#utility.yul\":13015:13022   */\n      dup3\n        /* \"#utility.yul\":13012:13013   */\n      dup2\n        /* \"#utility.yul\":13009:13023   */\n      lt\n        /* \"#utility.yul\":13001:13209   */\n      iszero\n      tag_494\n      jumpi\n        /* \"#utility.yul\":13094:13103   */\n      dup5\n        /* \"#utility.yul\":13089:13092   */\n      dup10\n        /* \"#utility.yul\":13085:13104   */\n      add\n        /* \"#utility.yul\":13079:13105   */\n      mload\n        /* \"#utility.yul\":13071:13077   */\n      dup3\n        /* \"#utility.yul\":13064:13106   */\n      sstore\n        /* \"#utility.yul\":13145:13146   */\n      0x01\n        /* \"#utility.yul\":13137:13143   */\n      dup3\n        /* \"#utility.yul\":13133:13147   */\n      add\n        /* \"#utility.yul\":13123:13147   */\n      swap2\n      pop\n        /* \"#utility.yul\":13192:13194   */\n      0x20\n        /* \"#utility.yul\":13181:13190   */\n      dup6\n        /* \"#utility.yul\":13177:13195   */\n      add\n        /* \"#utility.yul\":13164:13195   */\n      swap5\n      pop\n        /* \"#utility.yul\":13038:13042   */\n      0x20\n        /* \"#utility.yul\":13035:13036   */\n      dup2\n        /* \"#utility.yul\":13031:13043   */\n      add\n        /* \"#utility.yul\":13026:13043   */\n      swap1\n      pop\n        /* \"#utility.yul\":13001:13209   */\n      jump(tag_492)\n    tag_494:\n        /* \"#utility.yul\":13237:13243   */\n      dup7\n        /* \"#utility.yul\":13228:13235   */\n      dup4\n        /* \"#utility.yul\":13225:13244   */\n      lt\n        /* \"#utility.yul\":13222:13401   */\n      iszero\n      tag_495\n      jumpi\n        /* \"#utility.yul\":13295:13304   */\n      dup5\n        /* \"#utility.yul\":13290:13293   */\n      dup10\n        /* \"#utility.yul\":13286:13305   */\n      add\n        /* \"#utility.yul\":13280:13306   */\n      mload\n        /* \"#utility.yul\":13338:13386   */\n      tag_496\n        /* \"#utility.yul\":13380:13384   */\n      0x1f\n        /* \"#utility.yul\":13372:13378   */\n      dup10\n        /* \"#utility.yul\":13368:13385   */\n      and\n        /* \"#utility.yul\":13357:13366   */\n      dup3\n        /* \"#utility.yul\":13338:13386   */\n      tag_305\n      jump\t// in\n    tag_496:\n        /* \"#utility.yul\":13330:13336   */\n      dup4\n        /* \"#utility.yul\":13323:13387   */\n      sstore\n        /* \"#utility.yul\":13245:13401   */\n      pop\n        /* \"#utility.yul\":13222:13401   */\n    tag_495:\n        /* \"#utility.yul\":13447:13448   */\n      0x01\n        /* \"#utility.yul\":13443:13444   */\n      0x02\n        /* \"#utility.yul\":13435:13441   */\n      dup9\n        /* \"#utility.yul\":13431:13445   */\n      mul\n        /* \"#utility.yul\":13427:13449   */\n      add\n        /* \"#utility.yul\":13421:13425   */\n      dup9\n        /* \"#utility.yul\":13414:13450   */\n      sstore\n        /* \"#utility.yul\":12849:13460   */\n      pop\n      pop\n      pop\n        /* \"#utility.yul\":12812:13699   */\n    tag_487:\n      pop\n        /* \"#utility.yul\":12402:13705   */\n      pop\n      pop\n      pop\n        /* \"#utility.yul\":12310:13705   */\n      pop\n      pop\n      jump\t// out\n        /* \"#utility.yul\":13711:13883   */\n    tag_307:\n        /* \"#utility.yul\":13851:13875   */\n      0x4d7573742062652070726f706f736564206f776e657200000000000000000000\n        /* \"#utility.yul\":13847:13848   */\n      0x00\n        /* \"#utility.yul\":13839:13845   */\n      dup3\n        /* \"#utility.yul\":13835:13849   */\n      add\n        /* \"#utility.yul\":13828:13876   */\n      mstore\n        /* \"#utility.yul\":13711:13883   */\n      pop\n      jump\t// out\n        /* \"#utility.yul\":13889:14255   */\n    tag_308:\n        /* \"#utility.yul\":14031:14034   */\n      0x00\n        /* \"#utility.yul\":14052:14119   */\n      tag_499\n        /* \"#utility.yul\":14116:14118   */\n      0x16\n        /* \"#utility.yul\":14111:14114   */\n      dup4\n        /* \"#utility.yul\":14052:14119   */\n      tag_278\n      jump\t// in\n    tag_499:\n        /* \"#utility.yul\":14045:14119   */\n      swap2\n      pop\n        /* \"#utility.yul\":14128:14221   */\n      tag_500\n        /* \"#utility.yul\":14217:14220   */\n      dup3\n        /* \"#utility.yul\":14128:14221   */\n      tag_307\n      jump\t// in\n    tag_500:\n        /* \"#utility.yul\":14246:14248   */\n      0x20\n        /* \"#utility.yul\":14241:14244   */\n      dup3\n        /* \"#utility.yul\":14237:14249   */\n      add\n        /* \"#utility.yul\":14230:14249   */\n      swap1\n      pop\n        /* \"#utility.yul\":13889:14255   */\n      swap2\n      swap1\n      pop\n      jump\t// out\n        /* \"#utility.yul\":14261:14680   */\n    tag_89:\n        /* \"#utility.yul\":14427:14431   */\n      0x00\n        /* \"#utility.yul\":14465:14467   */\n      0x20\n        /* \"#utility.yul\":14454:14463   */\n      dup3\n        /* \"#utility.yul\":14450:14468   */\n      add\n        /* \"#utility.yul\":14442:14468   */\n      swap1\n      pop\n        /* \"#utility.yul\":14514:14523   */\n      dup2\n        /* \"#utility.yul\":14508:14512   */\n      dup2\n        /* \"#utility.yul\":14504:14524   */\n      sub\n        /* \"#utility.yul\":14500:14501   */\n      0x00\n        /* \"#utility.yul\":14489:14498   */\n      dup4\n        /* \"#utility.yul\":14485:14502   */\n      add\n        /* \"#utility.yul\":14478:14525   */\n      mstore\n        /* \"#utility.yul\":14542:14673   */\n      tag_502\n        /* \"#utility.yul\":14668:14672   */\n      dup2\n        /* \"#utility.yul\":14542:14673   */\n      tag_308\n      jump\t// in\n    tag_502:\n        /* \"#utility.yul\":14534:14673   */\n      swap1\n      pop\n        /* \"#utility.yul\":14261:14680   */\n      swap2\n      swap1\n      pop\n      jump\t// out\n        /* \"#utility.yul\":14686:14829   */\n    tag_309:\n        /* \"#utility.yul\":14743:14748   */\n      0x00\n        /* \"#utility.yul\":14774:14780   */\n      dup2\n        /* \"#utility.yul\":14768:14781   */\n      mload\n        /* \"#utility.yul\":14759:14781   */\n      swap1\n      pop\n        /* \"#utility.yul\":14790:14823   */\n      tag_504\n        /* \"#utility.yul\":14817:14822   */\n      dup2\n        /* \"#utility.yul\":14790:14823   */\n      tag_287\n      jump\t// in\n    tag_504:\n        /* \"#utility.yul\":14686:14829   */\n      swap3\n      swap2\n      pop\n      pop\n      jump\t// out\n        /* \"#utility.yul\":14835:15186   */\n    tag_101:\n        /* \"#utility.yul\":14905:14911   */\n      0x00\n        /* \"#utility.yul\":14954:14956   */\n      0x20\n        /* \"#utility.yul\":14942:14951   */\n      dup3\n        /* \"#utility.yul\":14933:14940   */\n      dup5\n        /* \"#utility.yul\":14929:14952   */\n      sub\n        /* \"#utility.yul\":14925:14957   */\n      slt\n        /* \"#utility.yul\":14922:15041   */\n      iszero\n      tag_506\n      jumpi\n        /* \"#utility.yul\":14960:15039   */\n      tag_507\n      tag_260\n      jump\t// in\n    tag_507:\n        /* \"#utility.yul\":14922:15041   */\n    tag_506:\n        /* \"#utility.yul\":15080:15081   */\n      0x00\n        /* \"#utility.yul\":15105:15169   */\n      tag_508\n        /* \"#utility.yul\":15161:15168   */\n      dup5\n        /* \"#utility.yul\":15152:15158   */\n      dup3\n        /* \"#utility.yul\":15141:15150   */\n      dup6\n        /* \"#utility.yul\":15137:15159   */\n      add\n        /* \"#utility.yul\":15105:15169   */\n      tag_309\n      jump\t// in\n    tag_508:\n        /* \"#utility.yul\":15095:15169   */\n      swap2\n      pop\n        /* \"#utility.yul\":15051:15179   */\n      pop\n        /* \"#utility.yul\":14835:15186   */\n      swap3\n      swap2\n      pop\n      pop\n      jump\t// out\n        /* \"#utility.yul\":15192:15524   */\n    tag_103:\n        /* \"#utility.yul\":15313:15317   */\n      0x00\n        /* \"#utility.yul\":15351:15353   */\n      0x40\n        /* \"#utility.yul\":15340:15349   */\n      dup3\n        /* \"#utility.yul\":15336:15354   */\n      add\n        /* \"#utility.yul\":15328:15354   */\n      swap1\n      pop\n        /* \"#utility.yul\":15364:15435   */\n      tag_510\n        /* \"#utility.yul\":15432:15433   */\n      0x00\n        /* \"#utility.yul\":15421:15430   */\n      dup4\n        /* \"#utility.yul\":15417:15434   */\n      add\n        /* \"#utility.yul\":15408:15414   */\n      dup6\n        /* \"#utility.yul\":15364:15435   */\n      tag_284\n      jump\t// in\n    tag_510:\n        /* \"#utility.yul\":15445:15517   */\n      tag_511\n        /* \"#utility.yul\":15513:15515   */\n      0x20\n        /* \"#utility.yul\":15502:15511   */\n      dup4\n        /* \"#utility.yul\":15498:15516   */\n      add\n        /* \"#utility.yul\":15489:15495   */\n      dup5\n        /* \"#utility.yul\":15445:15517   */\n      tag_276\n      jump\t// in\n    tag_511:\n        /* \"#utility.yul\":15192:15524   */\n      swap4\n      swap3\n      pop\n      pop\n      pop\n      jump\t// out\n        /* \"#utility.yul\":15530:15620   */\n    tag_310:\n        /* \"#utility.yul\":15564:15571   */\n      0x00\n        /* \"#utility.yul\":15607:15612   */\n      dup2\n        /* \"#utility.yul\":15600:15613   */\n      iszero\n        /* \"#utility.yul\":15593:15614   */\n      iszero\n        /* \"#utility.yul\":15582:15614   */\n      swap1\n      pop\n        /* \"#utility.yul\":15530:15620   */\n      swap2\n      swap1\n      pop\n      jump\t// out\n        /* \"#utility.yul\":15626:15742   */\n    tag_311:\n        /* \"#utility.yul\":15696:15717   */\n      tag_514\n        /* \"#utility.yul\":15711:15716   */\n      dup2\n        /* \"#utility.yul\":15696:15717   */\n      tag_310\n      jump\t// in\n    tag_514:\n        /* \"#utility.yul\":15689:15694   */\n      dup2\n        /* \"#utility.yul\":15686:15718   */\n      eq\n        /* \"#utility.yul\":15676:15736   */\n      tag_515\n      jumpi\n        /* \"#utility.yul\":15732:15733   */\n      0x00\n        /* \"#utility.yul\":15729:15730   */\n      dup1\n        /* \"#utility.yul\":15722:15734   */\n      revert\n        /* \"#utility.yul\":15676:15736   */\n    tag_515:\n        /* \"#utility.yul\":15626:15742   */\n      pop\n      jump\t// out\n        /* \"#utility.yul\":15748:15885   */\n    tag_312:\n        /* \"#utility.yul\":15802:15807   */\n      0x00\n        /* \"#utility.yul\":15833:15839   */\n      dup2\n        /* \"#utility.yul\":15827:15840   */\n      mload\n        /* \"#utility.yul\":15818:15840   */\n      swap1\n      pop\n        /* \"#utility.yul\":15849:15879   */\n      tag_517\n        /* \"#utility.yul\":15873:15878   */\n      dup2\n        /* \"#utility.yul\":15849:15879   */\n      tag_311\n      jump\t// in\n    tag_517:\n        /* \"#utility.yul\":15748:15885   */\n      swap3\n      swap2\n      pop\n      pop\n      jump\t// out\n        /* \"#utility.yul\":15891:16236   */\n    tag_107:\n        /* \"#utility.yul\":15958:15964   */\n      0x00\n        /* \"#utility.yul\":16007:16009   */\n      0x20\n        /* \"#utility.yul\":15995:16004   */\n      dup3\n        /* \"#utility.yul\":15986:15993   */\n      dup5\n        /* \"#utility.yul\":15982:16005   */\n      sub\n        /* \"#utility.yul\":15978:16010   */\n      slt\n        /* \"#utility.yul\":15975:16094   */\n      iszero\n      tag_519\n      jumpi\n        /* \"#utility.yul\":16013:16092   */\n      tag_520\n      tag_260\n      jump\t// in\n    tag_520:\n        /* \"#utility.yul\":15975:16094   */\n    tag_519:\n        /* \"#utility.yul\":16133:16134   */\n      0x00\n        /* \"#utility.yul\":16158:16219   */\n      tag_521\n        /* \"#utility.yul\":16211:16218   */\n      dup5\n        /* \"#utility.yul\":16202:16208   */\n      dup3\n        /* \"#utility.yul\":16191:16200   */\n      dup6\n        /* \"#utility.yul\":16187:16209   */\n      add\n        /* \"#utility.yul\":16158:16219   */\n      tag_312\n      jump\t// in\n    tag_521:\n        /* \"#utility.yul\":16148:16219   */\n      swap2\n      pop\n        /* \"#utility.yul\":16104:16229   */\n      pop\n        /* \"#utility.yul\":15891:16236   */\n      swap3\n      swap2\n      pop\n      pop\n      jump\t// out\n        /* \"#utility.yul\":16242:16410   */\n    tag_313:\n        /* \"#utility.yul\":16382:16402   */\n      0x556e61626c6520746f207472616e736665720000000000000000000000000000\n        /* \"#utility.yul\":16378:16379   */\n      0x00\n        /* \"#utility.yul\":16370:16376   */\n      dup3\n        /* \"#utility.yul\":16366:16380   */\n      add\n        /* \"#utility.yul\":16359:16403   */\n      mstore\n        /* \"#utility.yul\":16242:16410   */\n      pop\n      jump\t// out\n        /* \"#utility.yul\":16416:16782   */\n    tag_314:\n        /* \"#utility.yul\":16558:16561   */\n      0x00\n        /* \"#utility.yul\":16579:16646   */\n      tag_524\n        /* \"#utility.yul\":16643:16645   */\n      0x12\n        /* \"#utility.yul\":16638:16641   */\n      dup4\n        /* \"#utility.yul\":16579:16646   */\n      tag_278\n      jump\t// in\n    tag_524:\n        /* \"#utility.yul\":16572:16646   */\n      swap2\n      pop\n        /* \"#utility.yul\":16655:16748   */\n      tag_525\n        /* \"#utility.yul\":16744:16747   */\n      dup3\n        /* \"#utility.yul\":16655:16748   */\n      tag_313\n      jump\t// in\n    tag_525:\n        /* \"#utility.yul\":16773:16775   */\n      0x20\n        /* \"#utility.yul\":16768:16771   */\n      dup3\n        /* \"#utility.yul\":16764:16776   */\n      add\n        /* \"#utility.yul\":16757:16776   */\n      swap1\n      pop\n        /* \"#utility.yul\":16416:16782   */\n      swap2\n      swap1\n      pop\n      jump\t// out\n        /* \"#utility.yul\":16788:17207   */\n    tag_110:\n        /* \"#utility.yul\":16954:16958   */\n      0x00\n        /* \"#utility.yul\":16992:16994   */\n      0x20\n        /* \"#utility.yul\":16981:16990   */\n      dup3\n        /* \"#utility.yul\":16977:16995   */\n      add\n        /* \"#utility.yul\":16969:16995   */\n      swap1\n      pop\n        /* \"#utility.yul\":17041:17050   */\n      dup2\n        /* \"#utility.yul\":17035:17039   */\n      dup2\n        /* \"#utility.yul\":17031:17051   */\n      sub\n        /* \"#utility.yul\":17027:17028   */\n      0x00\n        /* \"#utility.yul\":17016:17025   */\n      dup4\n        /* \"#utility.yul\":17012:17029   */\n      add\n        /* \"#utility.yul\":17005:17052   */\n      mstore\n        /* \"#utility.yul\":17069:17200   */\n      tag_527\n        /* \"#utility.yul\":17195:17199   */\n      dup2\n        /* \"#utility.yul\":17069:17200   */\n      tag_314\n      jump\t// in\n    tag_527:\n        /* \"#utility.yul\":17061:17200   */\n      swap1\n      pop\n        /* \"#utility.yul\":16788:17207   */\n      swap2\n      swap1\n      pop\n      jump\t// out\n        /* \"#utility.yul\":17213:17655   */\n    tag_121:\n        /* \"#utility.yul\":17362:17366   */\n      0x00\n        /* \"#utility.yul\":17400:17402   */\n      0x60\n        /* \"#utility.yul\":17389:17398   */\n      dup3\n        /* \"#utility.yul\":17385:17403   */\n      add\n        /* \"#utility.yul\":17377:17403   */\n      swap1\n      pop\n        /* \"#utility.yul\":17413:17484   */\n      tag_529\n        /* \"#utility.yul\":17481:17482   */\n      0x00\n        /* \"#utility.yul\":17470:17479   */\n      dup4\n        /* \"#utility.yul\":17466:17483   */\n      add\n        /* \"#utility.yul\":17457:17463   */\n      dup7\n        /* \"#utility.yul\":17413:17484   */\n      tag_276\n      jump\t// in\n    tag_529:\n        /* \"#utility.yul\":17494:17566   */\n      tag_530\n        /* \"#utility.yul\":17562:17564   */\n      0x20\n        /* \"#utility.yul\":17551:17560   */\n      dup4\n        /* \"#utility.yul\":17547:17565   */\n      add\n        /* \"#utility.yul\":17538:17544   */\n      dup6\n        /* \"#utility.yul\":17494:17566   */\n      tag_276\n      jump\t// in\n    tag_530:\n        /* \"#utility.yul\":17576:17648   */\n      tag_531\n        /* \"#utility.yul\":17644:17646   */\n      0x40\n        /* \"#utility.yul\":17633:17642   */\n      dup4\n        /* \"#utility.yul\":17629:17647   */\n      add\n        /* \"#utility.yul\":17620:17626   */\n      dup5\n        /* \"#utility.yul\":17576:17648   */\n      tag_276\n      jump\t// in\n    tag_531:\n        /* \"#utility.yul\":17213:17655   */\n      swap5\n      swap4\n      pop\n      pop\n      pop\n      pop\n      jump\t// out\n        /* \"#utility.yul\":17661:17841   */\n    tag_315:\n        /* \"#utility.yul\":17709:17786   */\n      0x4e487b7100000000000000000000000000000000000000000000000000000000\n        /* \"#utility.yul\":17706:17707   */\n      0x00\n        /* \"#utility.yul\":17699:17787   */\n      mstore\n        /* \"#utility.yul\":17806:17810   */\n      0x12\n        /* \"#utility.yul\":17803:17804   */\n      0x04\n        /* \"#utility.yul\":17796:17811   */\n      mstore\n        /* \"#utility.yul\":17830:17834   */\n      0x24\n        /* \"#utility.yul\":17827:17828   */\n      0x00\n        /* \"#utility.yul\":17820:17835   */\n      revert\n        /* \"#utility.yul\":17847:18027   */\n    tag_316:\n        /* \"#utility.yul\":17895:17972   */\n      0x4e487b7100000000000000000000000000000000000000000000000000000000\n        /* \"#utility.yul\":17892:17893   */\n      0x00\n        /* \"#utility.yul\":17885:17973   */\n      mstore\n        /* \"#utility.yul\":17992:17996   */\n      0x11\n        /* \"#utility.yul\":17989:17990   */\n      0x04\n        /* \"#utility.yul\":17982:17997   */\n      mstore\n        /* \"#utility.yul\":18016:18020   */\n      0x24\n        /* \"#utility.yul\":18013:18014   */\n      0x00\n        /* \"#utility.yul\":18006:18021   */\n      revert\n        /* \"#utility.yul\":18033:18218   */\n    tag_123:\n        /* \"#utility.yul\":18073:18074   */\n      0x00\n        /* \"#utility.yul\":18090:18110   */\n      tag_535\n        /* \"#utility.yul\":18108:18109   */\n      dup3\n        /* \"#utility.yul\":18090:18110   */\n      tag_275\n      jump\t// in\n    tag_535:\n        /* \"#utility.yul\":18085:18110   */\n      swap2\n      pop\n        /* \"#utility.yul\":18124:18144   */\n      tag_536\n        /* \"#utility.yul\":18142:18143   */\n      dup4\n        /* \"#utility.yul\":18124:18144   */\n      tag_275\n      jump\t// in\n    tag_536:\n        /* \"#utility.yul\":18119:18144   */\n      swap3\n      pop\n        /* \"#utility.yul\":18163:18164   */\n      dup3\n        /* \"#utility.yul\":18153:18188   */\n      tag_537\n      jumpi\n        /* \"#utility.yul\":18168:18186   */\n      tag_538\n      tag_315\n      jump\t// in\n    tag_538:\n        /* \"#utility.yul\":18153:18188   */\n    tag_537:\n        /* \"#utility.yul\":18210:18211   */\n      dup3\n        /* \"#utility.yul\":18207:18208   */\n      dup3\n        /* \"#utility.yul\":18203:18212   */\n      div\n        /* \"#utility.yul\":18198:18212   */\n      swap1\n      pop\n        /* \"#utility.yul\":18033:18218   */\n      swap3\n      swap2\n      pop\n      pop\n      jump\t// out\n        /* \"#utility.yul\":18224:18396   */\n    tag_317:\n        /* \"#utility.yul\":18364:18388   */\n      0x4f6e6c792063616c6c61626c65206279206f776e657200000000000000000000\n        /* \"#utility.yul\":18360:18361   */\n      0x00\n        /* \"#utility.yul\":18352:18358   */\n      dup3\n        /* \"#utility.yul\":18348:18362   */\n      add\n        /* \"#utility.yul\":18341:18389   */\n      mstore\n        /* \"#utility.yul\":18224:18396   */\n      pop\n      jump\t// out\n        /* \"#utility.yul\":18402:18768   */\n    tag_318:\n        /* \"#utility.yul\":18544:18547   */\n      0x00\n        /* \"#utility.yul\":18565:18632   */\n      tag_541\n        /* \"#utility.yul\":18629:18631   */\n      0x16\n        /* \"#utility.yul\":18624:18627   */\n      dup4\n        /* \"#utility.yul\":18565:18632   */\n      tag_278\n      jump\t// in\n    tag_541:\n        /* \"#utility.yul\":18558:18632   */\n      swap2\n      pop\n        /* \"#utility.yul\":18641:18734   */\n      tag_542\n        /* \"#utility.yul\":18730:18733   */\n      dup3\n        /* \"#utility.yul\":18641:18734   */\n      tag_317\n      jump\t// in\n    tag_542:\n        /* \"#utility.yul\":18759:18761   */\n      0x20\n        /* \"#utility.yul\":18754:18757   */\n      dup3\n        /* \"#utility.yul\":18750:18762   */\n      add\n        /* \"#utility.yul\":18743:18762   */\n      swap1\n      pop\n        /* \"#utility.yul\":18402:18768   */\n      swap2\n      swap1\n      pop\n      jump\t// out\n        /* \"#utility.yul\":18774:19193   */\n    tag_142:\n        /* \"#utility.yul\":18940:18944   */\n      0x00\n        /* \"#utility.yul\":18978:18980   */\n      0x20\n        /* \"#utility.yul\":18967:18976   */\n      dup3\n        /* \"#utility.yul\":18963:18981   */\n      add\n        /* \"#utility.yul\":18955:18981   */\n      swap1\n      pop\n        /* \"#utility.yul\":19027:19036   */\n      dup2\n        /* \"#utility.yul\":19021:19025   */\n      dup2\n        /* \"#utility.yul\":19017:19037   */\n      sub\n        /* \"#utility.yul\":19013:19014   */\n      0x00\n        /* \"#utility.yul\":19002:19011   */\n      dup4\n        /* \"#utility.yul\":18998:19015   */\n      add\n        /* \"#utility.yul\":18991:19038   */\n      mstore\n        /* \"#utility.yul\":19055:19186   */\n      tag_544\n        /* \"#utility.yul\":19181:19185   */\n      dup2\n        /* \"#utility.yul\":19055:19186   */\n      tag_318\n      jump\t// in\n    tag_544:\n        /* \"#utility.yul\":19047:19186   */\n      swap1\n      pop\n        /* \"#utility.yul\":18774:19193   */\n      swap2\n      swap1\n      pop\n      jump\t// out\n        /* \"#utility.yul\":19199:19372   */\n    tag_319:\n        /* \"#utility.yul\":19339:19364   */\n      0x43616e6e6f74207472616e7366657220746f2073656c66000000000000000000\n        /* \"#utility.yul\":19335:19336   */\n      0x00\n        /* \"#utility.yul\":19327:19333   */\n      dup3\n        /* \"#utility.yul\":19323:19337   */\n      add\n        /* \"#utility.yul\":19316:19365   */\n      mstore\n        /* \"#utility.yul\":19199:19372   */\n      pop\n      jump\t// out\n        /* \"#utility.yul\":19378:19744   */\n    tag_320:\n        /* \"#utility.yul\":19520:19523   */\n      0x00\n        /* \"#utility.yul\":19541:19608   */\n      tag_547\n        /* \"#utility.yul\":19605:19607   */\n      0x17\n        /* \"#utility.yul\":19600:19603   */\n      dup4\n        /* \"#utility.yul\":19541:19608   */\n      tag_278\n      jump\t// in\n    tag_547:\n        /* \"#utility.yul\":19534:19608   */\n      swap2\n      pop\n        /* \"#utility.yul\":19617:19710   */\n      tag_548\n        /* \"#utility.yul\":19706:19709   */\n      dup3\n        /* \"#utility.yul\":19617:19710   */\n      tag_319\n      jump\t// in\n    tag_548:\n        /* \"#utility.yul\":19735:19737   */\n      0x20\n        /* \"#utility.yul\":19730:19733   */\n      dup3\n        /* \"#utility.yul\":19726:19738   */\n      add\n        /* \"#utility.yul\":19719:19738   */\n      swap1\n      pop\n        /* \"#utility.yul\":19378:19744   */\n      swap2\n      swap1\n      pop\n      jump\t// out\n        /* \"#utility.yul\":19750:20169   */\n    tag_147:\n        /* \"#utility.yul\":19916:19920   */\n      0x00\n        /* \"#utility.yul\":19954:19956   */\n      0x20\n        /* \"#utility.yul\":19943:19952   */\n      dup3\n        /* \"#utility.yul\":19939:19957   */\n      add\n        /* \"#utility.yul\":19931:19957   */\n      swap1\n      pop\n        /* \"#utility.yul\":20003:20012   */\n      dup2\n        /* \"#utility.yul\":19997:20001   */\n      dup2\n        /* \"#utility.yul\":19993:20013   */\n      sub\n        /* \"#utility.yul\":19989:19990   */\n      0x00\n        /* \"#utility.yul\":19978:19987   */\n      dup4\n        /* \"#utility.yul\":19974:19991   */\n      add\n        /* \"#utility.yul\":19967:20014   */\n      mstore\n        /* \"#utility.yul\":20031:20162   */\n      tag_550\n        /* \"#utility.yul\":20157:20161   */\n      dup2\n        /* \"#utility.yul\":20031:20162   */\n      tag_320\n      jump\t// in\n    tag_550:\n        /* \"#utility.yul\":20023:20162   */\n      swap1\n      pop\n        /* \"#utility.yul\":19750:20169   */\n      swap2\n      swap1\n      pop\n      jump\t// out\n        /* \"#utility.yul\":20175:20366   */\n    tag_159:\n        /* \"#utility.yul\":20215:20218   */\n      0x00\n        /* \"#utility.yul\":20234:20254   */\n      tag_552\n        /* \"#utility.yul\":20252:20253   */\n      dup3\n        /* \"#utility.yul\":20234:20254   */\n      tag_275\n      jump\t// in\n    tag_552:\n        /* \"#utility.yul\":20229:20254   */\n      swap2\n      pop\n        /* \"#utility.yul\":20268:20288   */\n      tag_553\n        /* \"#utility.yul\":20286:20287   */\n      dup4\n        /* \"#utility.yul\":20268:20288   */\n      tag_275\n      jump\t// in\n    tag_553:\n        /* \"#utility.yul\":20263:20288   */\n      swap3\n      pop\n        /* \"#utility.yul\":20311:20312   */\n      dup3\n        /* \"#utility.yul\":20308:20309   */\n      dup3\n        /* \"#utility.yul\":20304:20313   */\n      add\n        /* \"#utility.yul\":20297:20313   */\n      swap1\n      pop\n        /* \"#utility.yul\":20332:20335   */\n      dup1\n        /* \"#utility.yul\":20329:20330   */\n      dup3\n        /* \"#utility.yul\":20326:20336   */\n      gt\n        /* \"#utility.yul\":20323:20359   */\n      iszero\n      tag_554\n      jumpi\n        /* \"#utility.yul\":20339:20357   */\n      tag_555\n      tag_316\n      jump\t// in\n    tag_555:\n        /* \"#utility.yul\":20323:20359   */\n    tag_554:\n        /* \"#utility.yul\":20175:20366   */\n      swap3\n      swap2\n      pop\n      pop\n      jump\t// out\n        /* \"#utility.yul\":20372:20521   */\n    tag_321:\n        /* \"#utility.yul\":20408:20415   */\n      0x00\n        /* \"#utility.yul\":20448:20514   */\n      0xffffffff00000000000000000000000000000000000000000000000000000000\n        /* \"#utility.yul\":20441:20446   */\n      dup3\n        /* \"#utility.yul\":20437:20515   */\n      and\n        /* \"#utility.yul\":20426:20515   */\n      swap1\n      pop\n        /* \"#utility.yul\":20372:20521   */\n      swap2\n      swap1\n      pop\n      jump\t// out\n        /* \"#utility.yul\":20527:20642   */\n    tag_322:\n        /* \"#utility.yul\":20612:20635   */\n      tag_558\n        /* \"#utility.yul\":20629:20634   */\n      dup2\n        /* \"#utility.yul\":20612:20635   */\n      tag_321\n      jump\t// in\n    tag_558:\n        /* \"#utility.yul\":20607:20610   */\n      dup3\n        /* \"#utility.yul\":20600:20636   */\n      mstore\n        /* \"#utility.yul\":20527:20642   */\n      pop\n      pop\n      jump\t// out\n        /* \"#utility.yul\":20648:20746   */\n    tag_323:\n        /* \"#utility.yul\":20699:20705   */\n      0x00\n        /* \"#utility.yul\":20733:20738   */\n      dup2\n        /* \"#utility.yul\":20727:20739   */\n      mload\n        /* \"#utility.yul\":20717:20739   */\n      swap1\n      pop\n        /* \"#utility.yul\":20648:20746   */\n      swap2\n      swap1\n      pop\n      jump\t// out\n        /* \"#utility.yul\":20752:20920   */\n    tag_324:\n        /* \"#utility.yul\":20835:20846   */\n      0x00\n        /* \"#utility.yul\":20869:20875   */\n      dup3\n        /* \"#utility.yul\":20864:20867   */\n      dup3\n        /* \"#utility.yul\":20857:20876   */\n      mstore\n        /* \"#utility.yul\":20909:20913   */\n      0x20\n        /* \"#utility.yul\":20904:20907   */\n      dup3\n        /* \"#utility.yul\":20900:20914   */\n      add\n        /* \"#utility.yul\":20885:20914   */\n      swap1\n      pop\n        /* \"#utility.yul\":20752:20920   */\n      swap3\n      swap2\n      pop\n      pop\n      jump\t// out\n        /* \"#utility.yul\":20926:21299   */\n    tag_325:\n        /* \"#utility.yul\":21012:21015   */\n      0x00\n        /* \"#utility.yul\":21040:21078   */\n      tag_562\n        /* \"#utility.yul\":21072:21077   */\n      dup3\n        /* \"#utility.yul\":21040:21078   */\n      tag_323\n      jump\t// in\n    tag_562:\n        /* \"#utility.yul\":21094:21164   */\n      tag_563\n        /* \"#utility.yul\":21157:21163   */\n      dup2\n        /* \"#utility.yul\":21152:21155   */\n      dup6\n        /* \"#utility.yul\":21094:21164   */\n      tag_324\n      jump\t// in\n    tag_563:\n        /* \"#utility.yul\":21087:21164   */\n      swap4\n      pop\n        /* \"#utility.yul\":21173:21238   */\n      tag_564\n        /* \"#utility.yul\":21231:21237   */\n      dup2\n        /* \"#utility.yul\":21226:21229   */\n      dup6\n        /* \"#utility.yul\":21219:21223   */\n      0x20\n        /* \"#utility.yul\":21212:21217   */\n      dup7\n        /* \"#utility.yul\":21208:21224   */\n      add\n        /* \"#utility.yul\":21173:21238   */\n      tag_279\n      jump\t// in\n    tag_564:\n        /* \"#utility.yul\":21263:21292   */\n      tag_565\n        /* \"#utility.yul\":21285:21291   */\n      dup2\n        /* \"#utility.yul\":21263:21292   */\n      tag_267\n      jump\t// in\n    tag_565:\n        /* \"#utility.yul\":21258:21261   */\n      dup5\n        /* \"#utility.yul\":21254:21293   */\n      add\n        /* \"#utility.yul\":21247:21293   */\n      swap2\n      pop\n        /* \"#utility.yul\":21016:21299   */\n      pop\n        /* \"#utility.yul\":20926:21299   */\n      swap3\n      swap2\n      pop\n      pop\n      jump\t// out\n        /* \"#utility.yul\":21305:22385   */\n    tag_161:\n        /* \"#utility.yul\":21610:21614   */\n      0x00\n        /* \"#utility.yul\":21648:21651   */\n      0x0100\n        /* \"#utility.yul\":21637:21646   */\n      dup3\n        /* \"#utility.yul\":21633:21652   */\n      add\n        /* \"#utility.yul\":21625:21652   */\n      swap1\n      pop\n        /* \"#utility.yul\":21662:21733   */\n      tag_567\n        /* \"#utility.yul\":21730:21731   */\n      0x00\n        /* \"#utility.yul\":21719:21728   */\n      dup4\n        /* \"#utility.yul\":21715:21732   */\n      add\n        /* \"#utility.yul\":21706:21712   */\n      dup12\n        /* \"#utility.yul\":21662:21733   */\n      tag_284\n      jump\t// in\n    tag_567:\n        /* \"#utility.yul\":21743:21815   */\n      tag_568\n        /* \"#utility.yul\":21811:21813   */\n      0x20\n        /* \"#utility.yul\":21800:21809   */\n      dup4\n        /* \"#utility.yul\":21796:21814   */\n      add\n        /* \"#utility.yul\":21787:21793   */\n      dup11\n        /* \"#utility.yul\":21743:21815   */\n      tag_276\n      jump\t// in\n    tag_568:\n        /* \"#utility.yul\":21825:21897   */\n      tag_569\n        /* \"#utility.yul\":21893:21895   */\n      0x40\n        /* \"#utility.yul\":21882:21891   */\n      dup4\n        /* \"#utility.yul\":21878:21896   */\n      add\n        /* \"#utility.yul\":21869:21875   */\n      dup10\n        /* \"#utility.yul\":21825:21897   */\n      tag_281\n      jump\t// in\n    tag_569:\n        /* \"#utility.yul\":21907:21979   */\n      tag_570\n        /* \"#utility.yul\":21975:21977   */\n      0x60\n        /* \"#utility.yul\":21964:21973   */\n      dup4\n        /* \"#utility.yul\":21960:21978   */\n      add\n        /* \"#utility.yul\":21951:21957   */\n      dup9\n        /* \"#utility.yul\":21907:21979   */\n      tag_284\n      jump\t// in\n    tag_570:\n        /* \"#utility.yul\":21989:22060   */\n      tag_571\n        /* \"#utility.yul\":22055:22058   */\n      0x80\n        /* \"#utility.yul\":22044:22053   */\n      dup4\n        /* \"#utility.yul\":22040:22059   */\n      add\n        /* \"#utility.yul\":22031:22037   */\n      dup8\n        /* \"#utility.yul\":21989:22060   */\n      tag_322\n      jump\t// in\n    tag_571:\n        /* \"#utility.yul\":22070:22143   */\n      tag_572\n        /* \"#utility.yul\":22138:22141   */\n      0xa0\n        /* \"#utility.yul\":22127:22136   */\n      dup4\n        /* \"#utility.yul\":22123:22142   */\n      add\n        /* \"#utility.yul\":22114:22120   */\n      dup7\n        /* \"#utility.yul\":22070:22143   */\n      tag_276\n      jump\t// in\n    tag_572:\n        /* \"#utility.yul\":22153:22226   */\n      tag_573\n        /* \"#utility.yul\":22221:22224   */\n      0xc0\n        /* \"#utility.yul\":22210:22219   */\n      dup4\n        /* \"#utility.yul\":22206:22225   */\n      add\n        /* \"#utility.yul\":22197:22203   */\n      dup6\n        /* \"#utility.yul\":22153:22226   */\n      tag_276\n      jump\t// in\n    tag_573:\n        /* \"#utility.yul\":22274:22283   */\n      dup2\n        /* \"#utility.yul\":22268:22272   */\n      dup2\n        /* \"#utility.yul\":22264:22284   */\n      sub\n        /* \"#utility.yul\":22258:22261   */\n      0xe0\n        /* \"#utility.yul\":22247:22256   */\n      dup4\n        /* \"#utility.yul\":22243:22262   */\n      add\n        /* \"#utility.yul\":22236:22285   */\n      mstore\n        /* \"#utility.yul\":22302:22378   */\n      tag_574\n        /* \"#utility.yul\":22373:22377   */\n      dup2\n        /* \"#utility.yul\":22364:22370   */\n      dup5\n        /* \"#utility.yul\":22302:22378   */\n      tag_325\n      jump\t// in\n    tag_574:\n        /* \"#utility.yul\":22294:22378   */\n      swap1\n      pop\n        /* \"#utility.yul\":21305:22385   */\n      swap10\n      swap9\n      pop\n      pop\n      pop\n      pop\n      pop\n      pop\n      pop\n      pop\n      pop\n      jump\t// out\n        /* \"#utility.yul\":22391:22567   */\n    tag_168:\n        /* \"#utility.yul\":22423:22424   */\n      0x00\n        /* \"#utility.yul\":22440:22460   */\n      tag_576\n        /* \"#utility.yul\":22458:22459   */\n      dup3\n        /* \"#utility.yul\":22440:22460   */\n      tag_275\n      jump\t// in\n    tag_576:\n        /* \"#utility.yul\":22435:22460   */\n      swap2\n      pop\n        /* \"#utility.yul\":22474:22494   */\n      tag_577\n        /* \"#utility.yul\":22492:22493   */\n      dup4\n        /* \"#utility.yul\":22474:22494   */\n      tag_275\n      jump\t// in\n    tag_577:\n        /* \"#utility.yul\":22469:22494   */\n      swap3\n      pop\n        /* \"#utility.yul\":22513:22514   */\n      dup3\n        /* \"#utility.yul\":22503:22538   */\n      tag_578\n      jumpi\n        /* \"#utility.yul\":22518:22536   */\n      tag_579\n      tag_315\n      jump\t// in\n    tag_579:\n        /* \"#utility.yul\":22503:22538   */\n    tag_578:\n        /* \"#utility.yul\":22559:22560   */\n      dup3\n        /* \"#utility.yul\":22556:22557   */\n      dup3\n        /* \"#utility.yul\":22552:22561   */\n      mod\n        /* \"#utility.yul\":22547:22561   */\n      swap1\n      pop\n        /* \"#utility.yul\":22391:22567   */\n      swap3\n      swap2\n      pop\n      pop\n      jump\t// out\n        /* \"#utility.yul\":22573:22767   */\n    tag_172:\n        /* \"#utility.yul\":22613:22617   */\n      0x00\n        /* \"#utility.yul\":22633:22653   */\n      tag_581\n        /* \"#utility.yul\":22651:22652   */\n      dup3\n        /* \"#utility.yul\":22633:22653   */\n      tag_275\n      jump\t// in\n    tag_581:\n        /* \"#utility.yul\":22628:22653   */\n      swap2\n      pop\n        /* \"#utility.yul\":22667:22687   */\n      tag_582\n        /* \"#utility.yul\":22685:22686   */\n      dup4\n        /* \"#utility.yul\":22667:22687   */\n      tag_275\n      jump\t// in\n    tag_582:\n        /* \"#utility.yul\":22662:22687   */\n      swap3\n      pop\n        /* \"#utility.yul\":22711:22712   */\n      dup3\n        /* \"#utility.yul\":22708:22709   */\n      dup3\n        /* \"#utility.yul\":22704:22713   */\n      sub\n        /* \"#utility.yul\":22696:22713   */\n      swap1\n      pop\n        /* \"#utility.yul\":22735:22736   */\n      dup2\n        /* \"#utility.yul\":22729:22733   */\n      dup2\n        /* \"#utility.yul\":22726:22737   */\n      gt\n        /* \"#utility.yul\":22723:22760   */\n      iszero\n      tag_583\n      jumpi\n        /* \"#utility.yul\":22740:22758   */\n      tag_584\n      tag_316\n      jump\t// in\n    tag_584:\n        /* \"#utility.yul\":22723:22760   */\n    tag_583:\n        /* \"#utility.yul\":22573:22767   */\n      swap3\n      swap2\n      pop\n      pop\n      jump\t// out\n        /* \"#utility.yul\":22773:22915   */\n    tag_326:\n        /* \"#utility.yul\":22823:22832   */\n      0x00\n        /* \"#utility.yul\":22856:22909   */\n      tag_586\n        /* \"#utility.yul\":22874:22908   */\n      tag_587\n        /* \"#utility.yul\":22883:22907   */\n      tag_588\n        /* \"#utility.yul\":22901:22906   */\n      dup5\n        /* \"#utility.yul\":22883:22907   */\n      tag_282\n      jump\t// in\n    tag_588:\n        /* \"#utility.yul\":22874:22908   */\n      tag_296\n      jump\t// in\n    tag_587:\n        /* \"#utility.yul\":22856:22909   */\n      tag_282\n      jump\t// in\n    tag_586:\n        /* \"#utility.yul\":22843:22909   */\n      swap1\n      pop\n        /* \"#utility.yul\":22773:22915   */\n      swap2\n      swap1\n      pop\n      jump\t// out\n        /* \"#utility.yul\":22921:23047   */\n    tag_327:\n        /* \"#utility.yul\":22971:22980   */\n      0x00\n        /* \"#utility.yul\":23004:23041   */\n      tag_590\n        /* \"#utility.yul\":23035:23040   */\n      dup3\n        /* \"#utility.yul\":23004:23041   */\n      tag_326\n      jump\t// in\n    tag_590:\n        /* \"#utility.yul\":22991:23041   */\n      swap1\n      pop\n        /* \"#utility.yul\":22921:23047   */\n      swap2\n      swap1\n      pop\n      jump\t// out\n        /* \"#utility.yul\":23053:23202   */\n    tag_328:\n        /* \"#utility.yul\":23126:23135   */\n      0x00\n        /* \"#utility.yul\":23159:23196   */\n      tag_592\n        /* \"#utility.yul\":23190:23195   */\n      dup3\n        /* \"#utility.yul\":23159:23196   */\n      tag_327\n      jump\t// in\n    tag_592:\n        /* \"#utility.yul\":23146:23196   */\n      swap1\n      pop\n        /* \"#utility.yul\":23053:23202   */\n      swap2\n      swap1\n      pop\n      jump\t// out\n        /* \"#utility.yul\":23208:23302   */\n    tag_329:\n        /* \"#utility.yul\":23241:23249   */\n      0x00\n        /* \"#utility.yul\":23289:23294   */\n      dup2\n        /* \"#utility.yul\":23285:23287   */\n      0x60\n        /* \"#utility.yul\":23281:23295   */\n      shl\n        /* \"#utility.yul\":23260:23295   */\n      swap1\n      pop\n        /* \"#utility.yul\":23208:23302   */\n      swap2\n      swap1\n      pop\n      jump\t// out\n        /* \"#utility.yul\":23308:23402   */\n    tag_330:\n        /* \"#utility.yul\":23347:23354   */\n      0x00\n        /* \"#utility.yul\":23376:23396   */\n      tag_595\n        /* \"#utility.yul\":23390:23395   */\n      dup3\n        /* \"#utility.yul\":23376:23396   */\n      tag_329\n      jump\t// in\n    tag_595:\n        /* \"#utility.yul\":23365:23396   */\n      swap1\n      pop\n        /* \"#utility.yul\":23308:23402   */\n      swap2\n      swap1\n      pop\n      jump\t// out\n        /* \"#utility.yul\":23408:23508   */\n    tag_331:\n        /* \"#utility.yul\":23447:23454   */\n      0x00\n        /* \"#utility.yul\":23476:23502   */\n      tag_597\n        /* \"#utility.yul\":23496:23501   */\n      dup3\n        /* \"#utility.yul\":23476:23502   */\n      tag_330\n      jump\t// in\n    tag_597:\n        /* \"#utility.yul\":23465:23502   */\n      swap1\n      pop\n        /* \"#utility.yul\":23408:23508   */\n      swap2\n      swap1\n      pop\n      jump\t// out\n        /* \"#utility.yul\":23514:23730   */\n    tag_332:\n        /* \"#utility.yul\":23642:23723   */\n      tag_599\n        /* \"#utility.yul\":23662:23722   */\n      tag_600\n        /* \"#utility.yul\":23716:23721   */\n      dup3\n        /* \"#utility.yul\":23662:23722   */\n      tag_328\n      jump\t// in\n    tag_600:\n        /* \"#utility.yul\":23642:23723   */\n      tag_331\n      jump\t// in\n    tag_599:\n        /* \"#utility.yul\":23637:23640   */\n      dup3\n        /* \"#utility.yul\":23630:23724   */\n      mstore\n        /* \"#utility.yul\":23514:23730   */\n      pop\n      pop\n      jump\t// out\n        /* \"#utility.yul\":23736:23815   */\n    tag_333:\n        /* \"#utility.yul\":23775:23782   */\n      0x00\n        /* \"#utility.yul\":23804:23809   */\n      dup2\n        /* \"#utility.yul\":23793:23809   */\n      swap1\n      pop\n        /* \"#utility.yul\":23736:23815   */\n      swap2\n      swap1\n      pop\n      jump\t// out\n        /* \"#utility.yul\":23821:23978   */\n    tag_334:\n        /* \"#utility.yul\":23926:23971   */\n      tag_603\n        /* \"#utility.yul\":23946:23970   */\n      tag_604\n        /* \"#utility.yul\":23964:23969   */\n      dup3\n        /* \"#utility.yul\":23946:23970   */\n      tag_275\n      jump\t// in\n    tag_604:\n        /* \"#utility.yul\":23926:23971   */\n      tag_333\n      jump\t// in\n    tag_603:\n        /* \"#utility.yul\":23921:23924   */\n      dup3\n        /* \"#utility.yul\":23914:23972   */\n      mstore\n        /* \"#utility.yul\":23821:23978   */\n      pop\n      pop\n      jump\t// out\n        /* \"#utility.yul\":23984:24427   */\n    tag_200:\n        /* \"#utility.yul\":24147:24150   */\n      0x00\n        /* \"#utility.yul\":24162:24260   */\n      tag_606\n        /* \"#utility.yul\":24256:24259   */\n      dup3\n        /* \"#utility.yul\":24247:24253   */\n      dup6\n        /* \"#utility.yul\":24162:24260   */\n      tag_332\n      jump\t// in\n    tag_606:\n        /* \"#utility.yul\":24285:24287   */\n      0x14\n        /* \"#utility.yul\":24280:24283   */\n      dup3\n        /* \"#utility.yul\":24276:24288   */\n      add\n        /* \"#utility.yul\":24269:24288   */\n      swap2\n      pop\n        /* \"#utility.yul\":24298:24373   */\n      tag_607\n        /* \"#utility.yul\":24369:24372   */\n      dup3\n        /* \"#utility.yul\":24360:24366   */\n      dup5\n        /* \"#utility.yul\":24298:24373   */\n      tag_334\n      jump\t// in\n    tag_607:\n        /* \"#utility.yul\":24398:24400   */\n      0x20\n        /* \"#utility.yul\":24393:24396   */\n      dup3\n        /* \"#utility.yul\":24389:24401   */\n      add\n        /* \"#utility.yul\":24382:24401   */\n      swap2\n      pop\n        /* \"#utility.yul\":24418:24421   */\n      dup2\n        /* \"#utility.yul\":24411:24421   */\n      swap1\n      pop\n        /* \"#utility.yul\":23984:24427   */\n      swap4\n      swap3\n      pop\n      pop\n      pop\n      jump\t// out\n        /* \"#utility.yul\":24433:24962   */\n    tag_202:\n        /* \"#utility.yul\":24600:24604   */\n      0x00\n        /* \"#utility.yul\":24638:24640   */\n      0x60\n        /* \"#utility.yul\":24627:24636   */\n      dup3\n        /* \"#utility.yul\":24623:24641   */\n      add\n        /* \"#utility.yul\":24615:24641   */\n      swap1\n      pop\n        /* \"#utility.yul\":24651:24722   */\n      tag_609\n        /* \"#utility.yul\":24719:24720   */\n      0x00\n        /* \"#utility.yul\":24708:24717   */\n      dup4\n        /* \"#utility.yul\":24704:24721   */\n      add\n        /* \"#utility.yul\":24695:24701   */\n      dup7\n        /* \"#utility.yul\":24651:24722   */\n      tag_284\n      jump\t// in\n    tag_609:\n        /* \"#utility.yul\":24732:24804   */\n      tag_610\n        /* \"#utility.yul\":24800:24802   */\n      0x20\n        /* \"#utility.yul\":24789:24798   */\n      dup4\n        /* \"#utility.yul\":24785:24803   */\n      add\n        /* \"#utility.yul\":24776:24782   */\n      dup6\n        /* \"#utility.yul\":24732:24804   */\n      tag_276\n      jump\t// in\n    tag_610:\n        /* \"#utility.yul\":24851:24860   */\n      dup2\n        /* \"#utility.yul\":24845:24849   */\n      dup2\n        /* \"#utility.yul\":24841:24861   */\n      sub\n        /* \"#utility.yul\":24836:24838   */\n      0x40\n        /* \"#utility.yul\":24825:24834   */\n      dup4\n        /* \"#utility.yul\":24821:24839   */\n      add\n        /* \"#utility.yul\":24814:24862   */\n      mstore\n        /* \"#utility.yul\":24879:24955   */\n      tag_611\n        /* \"#utility.yul\":24950:24954   */\n      dup2\n        /* \"#utility.yul\":24941:24947   */\n      dup5\n        /* \"#utility.yul\":24879:24955   */\n      tag_325\n      jump\t// in\n    tag_611:\n        /* \"#utility.yul\":24871:24955   */\n      swap1\n      pop\n        /* \"#utility.yul\":24433:24962   */\n      swap5\n      swap4\n      pop\n      pop\n      pop\n      pop\n      jump\t// out\n        /* \"#utility.yul\":24968:25190   */\n    tag_335:\n        /* \"#utility.yul\":25108:25142   */\n      0x756e61626c6520746f207472616e73666572416e6443616c6c20746f206f7261\n        /* \"#utility.yul\":25104:25105   */\n      0x00\n        /* \"#utility.yul\":25096:25102   */\n      dup3\n        /* \"#utility.yul\":25092:25106   */\n      add\n        /* \"#utility.yul\":25085:25143   */\n      mstore\n        /* \"#utility.yul\":25177:25182   */\n      0x636c650000000000000000000000000000000000000000000000000000000000\n        /* \"#utility.yul\":25172:25174   */\n      0x20\n        /* \"#utility.yul\":25164:25170   */\n      dup3\n        /* \"#utility.yul\":25160:25175   */\n      add\n        /* \"#utility.yul\":25153:25183   */\n      mstore\n        /* \"#utility.yul\":24968:25190   */\n      pop\n      jump\t// out\n        /* \"#utility.yul\":25196:25562   */\n    tag_336:\n        /* \"#utility.yul\":25338:25341   */\n      0x00\n        /* \"#utility.yul\":25359:25426   */\n      tag_614\n        /* \"#utility.yul\":25423:25425   */\n      0x23\n        /* \"#utility.yul\":25418:25421   */\n      dup4\n        /* \"#utility.yul\":25359:25426   */\n      tag_278\n      jump\t// in\n    tag_614:\n        /* \"#utility.yul\":25352:25426   */\n      swap2\n      pop\n        /* \"#utility.yul\":25435:25528   */\n      tag_615\n        /* \"#utility.yul\":25524:25527   */\n      dup3\n        /* \"#utility.yul\":25435:25528   */\n      tag_335\n      jump\t// in\n    tag_615:\n        /* \"#utility.yul\":25553:25555   */\n      0x40\n        /* \"#utility.yul\":25548:25551   */\n      dup3\n        /* \"#utility.yul\":25544:25556   */\n      add\n        /* \"#utility.yul\":25537:25556   */\n      swap1\n      pop\n        /* \"#utility.yul\":25196:25562   */\n      swap2\n      swap1\n      pop\n      jump\t// out\n        /* \"#utility.yul\":25568:25987   */\n    tag_208:\n        /* \"#utility.yul\":25734:25738   */\n      0x00\n        /* \"#utility.yul\":25772:25774   */\n      0x20\n        /* \"#utility.yul\":25761:25770   */\n      dup3\n        /* \"#utility.yul\":25757:25775   */\n      add\n        /* \"#utility.yul\":25749:25775   */\n      swap1\n      pop\n        /* \"#utility.yul\":25821:25830   */\n      dup2\n        /* \"#utility.yul\":25815:25819   */\n      dup2\n        /* \"#utility.yul\":25811:25831   */\n      sub\n        /* \"#utility.yul\":25807:25808   */\n      0x00\n        /* \"#utility.yul\":25796:25805   */\n      dup4\n        /* \"#utility.yul\":25792:25809   */\n      add\n        /* \"#utility.yul\":25785:25832   */\n      mstore\n        /* \"#utility.yul\":25849:25980   */\n      tag_617\n        /* \"#utility.yul\":25975:25979   */\n      dup2\n        /* \"#utility.yul\":25849:25980   */\n      tag_336\n      jump\t// in\n    tag_617:\n        /* \"#utility.yul\":25841:25980   */\n      swap1\n      pop\n        /* \"#utility.yul\":25568:25987   */\n      swap2\n      swap1\n      pop\n      jump\t// out\n        /* \"#utility.yul\":25993:26403   */\n    tag_227:\n        /* \"#utility.yul\":26033:26040   */\n      0x00\n        /* \"#utility.yul\":26056:26076   */\n      tag_619\n        /* \"#utility.yul\":26074:26075   */\n      dup3\n        /* \"#utility.yul\":26056:26076   */\n      tag_275\n      jump\t// in\n    tag_619:\n        /* \"#utility.yul\":26051:26076   */\n      swap2\n      pop\n        /* \"#utility.yul\":26090:26110   */\n      tag_620\n        /* \"#utility.yul\":26108:26109   */\n      dup4\n        /* \"#utility.yul\":26090:26110   */\n      tag_275\n      jump\t// in\n    tag_620:\n        /* \"#utility.yul\":26085:26110   */\n      swap3\n      pop\n        /* \"#utility.yul\":26145:26146   */\n      dup3\n        /* \"#utility.yul\":26142:26143   */\n      dup3\n        /* \"#utility.yul\":26138:26147   */\n      mul\n        /* \"#utility.yul\":26167:26197   */\n      tag_621\n        /* \"#utility.yul\":26185:26196   */\n      dup2\n        /* \"#utility.yul\":26167:26197   */\n      tag_275\n      jump\t// in\n    tag_621:\n        /* \"#utility.yul\":26156:26197   */\n      swap2\n      pop\n        /* \"#utility.yul\":26346:26347   */\n      dup3\n        /* \"#utility.yul\":26337:26344   */\n      dup3\n        /* \"#utility.yul\":26333:26348   */\n      div\n        /* \"#utility.yul\":26330:26331   */\n      dup5\n        /* \"#utility.yul\":26327:26349   */\n      eq\n        /* \"#utility.yul\":26307:26308   */\n      dup4\n        /* \"#utility.yul\":26300:26309   */\n      iszero\n        /* \"#utility.yul\":26280:26363   */\n      or\n        /* \"#utility.yul\":26257:26396   */\n      tag_622\n      jumpi\n        /* \"#utility.yul\":26376:26394   */\n      tag_623\n      tag_316\n      jump\t// in\n    tag_623:\n        /* \"#utility.yul\":26257:26396   */\n    tag_622:\n        /* \"#utility.yul\":26041:26403   */\n      pop\n        /* \"#utility.yul\":25993:26403   */\n      swap3\n      swap2\n      pop\n      pop\n      jump\t// out\n        /* \"#utility.yul\":26409:26511   */\n    tag_337:\n        /* \"#utility.yul\":26451:26459   */\n      0x00\n        /* \"#utility.yul\":26498:26503   */\n      dup2\n        /* \"#utility.yul\":26495:26496   */\n      0x01\n        /* \"#utility.yul\":26491:26504   */\n      shr\n        /* \"#utility.yul\":26470:26504   */\n      swap1\n      pop\n        /* \"#utility.yul\":26409:26511   */\n      swap2\n      swap1\n      pop\n      jump\t// out\n        /* \"#utility.yul\":26517:27365   */\n    tag_338:\n        /* \"#utility.yul\":26578:26583   */\n      0x00\n        /* \"#utility.yul\":26585:26589   */\n      dup1\n        /* \"#utility.yul\":26609:26615   */\n      dup3\n        /* \"#utility.yul\":26600:26615   */\n      swap2\n      pop\n        /* \"#utility.yul\":26633:26638   */\n      dup4\n        /* \"#utility.yul\":26624:26638   */\n      swap1\n      pop\n        /* \"#utility.yul\":26647:27359   */\n    tag_626:\n        /* \"#utility.yul\":26668:26669   */\n      0x01\n        /* \"#utility.yul\":26658:26666   */\n      dup6\n        /* \"#utility.yul\":26655:26670   */\n      gt\n        /* \"#utility.yul\":26647:27359   */\n      iszero\n      tag_628\n      jumpi\n        /* \"#utility.yul\":26763:26767   */\n      dup1\n        /* \"#utility.yul\":26758:26761   */\n      dup7\n        /* \"#utility.yul\":26754:26768   */\n      div\n        /* \"#utility.yul\":26748:26752   */\n      dup2\n        /* \"#utility.yul\":26745:26769   */\n      gt\n        /* \"#utility.yul\":26742:26792   */\n      iszero\n      tag_629\n      jumpi\n        /* \"#utility.yul\":26772:26790   */\n      tag_630\n      tag_316\n      jump\t// in\n    tag_630:\n        /* \"#utility.yul\":26742:26792   */\n    tag_629:\n        /* \"#utility.yul\":26822:26823   */\n      0x01\n        /* \"#utility.yul\":26812:26820   */\n      dup6\n        /* \"#utility.yul\":26808:26824   */\n      and\n        /* \"#utility.yul\":26805:27256   */\n      iszero\n      tag_631\n      jumpi\n        /* \"#utility.yul\":27237:27241   */\n      dup1\n        /* \"#utility.yul\":27230:27235   */\n      dup3\n        /* \"#utility.yul\":27226:27242   */\n      mul\n        /* \"#utility.yul\":27217:27242   */\n      swap2\n      pop\n        /* \"#utility.yul\":26805:27256   */\n    tag_631:\n        /* \"#utility.yul\":27287:27291   */\n      dup1\n        /* \"#utility.yul\":27281:27285   */\n      dup2\n        /* \"#utility.yul\":27277:27292   */\n      mul\n        /* \"#utility.yul\":27269:27292   */\n      swap1\n      pop\n        /* \"#utility.yul\":27317:27349   */\n      tag_632\n        /* \"#utility.yul\":27340:27348   */\n      dup6\n        /* \"#utility.yul\":27317:27349   */\n      tag_337\n      jump\t// in\n    tag_632:\n        /* \"#utility.yul\":27305:27349   */\n      swap5\n      pop\n        /* \"#utility.yul\":26647:27359   */\n      jump(tag_626)\n    tag_628:\n        /* \"#utility.yul\":26517:27365   */\n      swap5\n      pop\n      swap5\n      swap3\n      pop\n      pop\n      pop\n      jump\t// out\n        /* \"#utility.yul\":27371:28444   */\n    tag_339:\n        /* \"#utility.yul\":27425:27430   */\n      0x00\n        /* \"#utility.yul\":27616:27624   */\n      dup3\n        /* \"#utility.yul\":27606:27646   */\n      tag_634\n      jumpi\n        /* \"#utility.yul\":27637:27638   */\n      0x01\n        /* \"#utility.yul\":27628:27638   */\n      swap1\n      pop\n        /* \"#utility.yul\":27639:27644   */\n      jump(tag_633)\n        /* \"#utility.yul\":27606:27646   */\n    tag_634:\n        /* \"#utility.yul\":27665:27669   */\n      dup2\n        /* \"#utility.yul\":27655:27691   */\n      tag_635\n      jumpi\n        /* \"#utility.yul\":27682:27683   */\n      0x00\n        /* \"#utility.yul\":27673:27683   */\n      swap1\n      pop\n        /* \"#utility.yul\":27684:27689   */\n      jump(tag_633)\n        /* \"#utility.yul\":27655:27691   */\n    tag_635:\n        /* \"#utility.yul\":27751:27755   */\n      dup2\n        /* \"#utility.yul\":27799:27800   */\n      0x01\n        /* \"#utility.yul\":27794:27821   */\n      dup2\n      eq\n      tag_637\n      jumpi\n        /* \"#utility.yul\":27835:27836   */\n      0x02\n        /* \"#utility.yul\":27830:28021   */\n      dup2\n      eq\n      tag_638\n      jumpi\n        /* \"#utility.yul\":27744:28021   */\n      jump(tag_636)\n        /* \"#utility.yul\":27794:27821   */\n    tag_637:\n        /* \"#utility.yul\":27812:27813   */\n      0x01\n        /* \"#utility.yul\":27803:27813   */\n      swap2\n      pop\n        /* \"#utility.yul\":27814:27819   */\n      pop\n      jump(tag_633)\n        /* \"#utility.yul\":27830:28021   */\n    tag_638:\n        /* \"#utility.yul\":27875:27878   */\n      0xff\n        /* \"#utility.yul\":27865:27873   */\n      dup5\n        /* \"#utility.yul\":27862:27879   */\n      gt\n        /* \"#utility.yul\":27859:27902   */\n      iszero\n      tag_639\n      jumpi\n        /* \"#utility.yul\":27882:27900   */\n      tag_640\n      tag_316\n      jump\t// in\n    tag_640:\n        /* \"#utility.yul\":27859:27902   */\n    tag_639:\n        /* \"#utility.yul\":27931:27939   */\n      dup4\n        /* \"#utility.yul\":27928:27929   */\n      0x02\n        /* \"#utility.yul\":27924:27940   */\n      exp\n        /* \"#utility.yul\":27915:27940   */\n      swap2\n      pop\n        /* \"#utility.yul\":27966:27969   */\n      dup5\n        /* \"#utility.yul\":27959:27964   */\n      dup3\n        /* \"#utility.yul\":27956:27970   */\n      gt\n        /* \"#utility.yul\":27953:27993   */\n      iszero\n      tag_641\n      jumpi\n        /* \"#utility.yul\":27973:27991   */\n      tag_642\n      tag_316\n      jump\t// in\n    tag_642:\n        /* \"#utility.yul\":27953:27993   */\n    tag_641:\n        /* \"#utility.yul\":28006:28011   */\n      pop\n      jump(tag_633)\n        /* \"#utility.yul\":27744:28021   */\n    tag_636:\n      pop\n        /* \"#utility.yul\":28130:28132   */\n      0x20\n        /* \"#utility.yul\":28120:28128   */\n      dup4\n        /* \"#utility.yul\":28117:28133   */\n      lt\n        /* \"#utility.yul\":28111:28114   */\n      0x0133\n        /* \"#utility.yul\":28105:28109   */\n      dup4\n        /* \"#utility.yul\":28102:28115   */\n      lt\n        /* \"#utility.yul\":28098:28134   */\n      and\n        /* \"#utility.yul\":28080:28082   */\n      0x4e\n        /* \"#utility.yul\":28070:28078   */\n      dup5\n        /* \"#utility.yul\":28067:28083   */\n      lt\n        /* \"#utility.yul\":28062:28064   */\n      0x0b\n        /* \"#utility.yul\":28056:28060   */\n      dup5\n        /* \"#utility.yul\":28053:28065   */\n      lt\n        /* \"#utility.yul\":28049:28084   */\n      and\n        /* \"#utility.yul\":28033:28144   */\n      or\n        /* \"#utility.yul\":28030:28276   */\n      iszero\n      tag_643\n      jumpi\n        /* \"#utility.yul\":28186:28194   */\n      dup3\n        /* \"#utility.yul\":28180:28184   */\n      dup3\n        /* \"#utility.yul\":28176:28195   */\n      exp\n        /* \"#utility.yul\":28167:28195   */\n      swap1\n      pop\n        /* \"#utility.yul\":28221:28224   */\n      dup4\n        /* \"#utility.yul\":28214:28219   */\n      dup2\n        /* \"#utility.yul\":28211:28225   */\n      gt\n        /* \"#utility.yul\":28208:28248   */\n      iszero\n      tag_644\n      jumpi\n        /* \"#utility.yul\":28228:28246   */\n      tag_645\n      tag_316\n      jump\t// in\n    tag_645:\n        /* \"#utility.yul\":28208:28248   */\n    tag_644:\n        /* \"#utility.yul\":28261:28266   */\n      jump(tag_633)\n        /* \"#utility.yul\":28030:28276   */\n    tag_643:\n        /* \"#utility.yul\":28301:28343   */\n      tag_646\n        /* \"#utility.yul\":28339:28342   */\n      dup5\n        /* \"#utility.yul\":28329:28337   */\n      dup5\n        /* \"#utility.yul\":28323:28327   */\n      dup5\n        /* \"#utility.yul\":28320:28321   */\n      0x01\n        /* \"#utility.yul\":28301:28343   */\n      tag_338\n      jump\t// in\n    tag_646:\n        /* \"#utility.yul\":28286:28343   */\n      swap3\n      pop\n      swap1\n      pop\n        /* \"#utility.yul\":28375:28379   */\n      dup2\n        /* \"#utility.yul\":28370:28373   */\n      dup5\n        /* \"#utility.yul\":28366:28380   */\n      div\n        /* \"#utility.yul\":28359:28364   */\n      dup2\n        /* \"#utility.yul\":28356:28381   */\n      gt\n        /* \"#utility.yul\":28353:28404   */\n      iszero\n      tag_647\n      jumpi\n        /* \"#utility.yul\":28384:28402   */\n      tag_648\n      tag_316\n      jump\t// in\n    tag_648:\n        /* \"#utility.yul\":28353:28404   */\n    tag_647:\n        /* \"#utility.yul\":28433:28437   */\n      dup2\n        /* \"#utility.yul\":28426:28431   */\n      dup2\n        /* \"#utility.yul\":28422:28438   */\n      mul\n        /* \"#utility.yul\":28413:28438   */\n      swap1\n      pop\n        /* \"#utility.yul\":27371:28444   */\n    tag_633:\n      swap4\n      swap3\n      pop\n      pop\n      pop\n      jump\t// out\n        /* \"#utility.yul\":28450:28735   */\n    tag_250:\n        /* \"#utility.yul\":28510:28515   */\n      0x00\n        /* \"#utility.yul\":28534:28557   */\n      tag_650\n        /* \"#utility.yul\":28552:28556   */\n      dup3\n        /* \"#utility.yul\":28534:28557   */\n      tag_275\n      jump\t// in\n    tag_650:\n        /* \"#utility.yul\":28526:28557   */\n      swap2\n      pop\n        /* \"#utility.yul\":28578:28605   */\n      tag_651\n        /* \"#utility.yul\":28596:28604   */\n      dup4\n        /* \"#utility.yul\":28578:28605   */\n      tag_275\n      jump\t// in\n    tag_651:\n        /* \"#utility.yul\":28566:28605   */\n      swap3\n      pop\n        /* \"#utility.yul\":28624:28728   */\n      tag_652\n        /* \"#utility.yul\":28661:28727   */\n      0xffffffffffffffffffffffffffffffffffffffffffffffffffffffffffffffff\n        /* \"#utility.yul\":28651:28659   */\n      dup5\n        /* \"#utility.yul\":28645:28649   */\n      dup5\n        /* \"#utility.yul\":28624:28728   */\n      tag_339\n      jump\t// in\n    tag_652:\n        /* \"#utility.yul\":28615:28728   */\n      swap1\n      pop\n        /* \"#utility.yul\":28450:28735   */\n      swap3\n      swap2\n      pop\n      pop\n      jump\t// out\n    stop\n    data_cf8a2b156957b9e6a5cd1b8e61fbd7ab31a01ed93730364287febf74a507e2cc 68747470733a2f2f67656e69656261636b626f6e652e617a75726577656273697465732e6e65742f6170692f70726f706572746965732f64656d6f\n\n    auxdata: 0xa264697066735822122049b6a5be861b15f938fce9f84e01524249a91c3dfa9faece03ebe794efb1701964736f6c63430008140033\n}\n",
				"bytecode": {
					"linkReferences": {},
					"object": "6080604052600160045534801562000015575f80fd5b5033805f8073ffffffffffffffffffffffffffffffffffffffff168273ffffffffffffffffffffffffffffffffffffffff16036200008a576040517f08c379a00000000000000000000000000000000000000000000000000000000081526004016200008190620003ef565b60405180910390fd5b8160065f6101000a81548173ffffffffffffffffffffffffffffffffffffffff021916908373ffffffffffffffffffffffffffffffffffffffff1602179055505f73ffffffffffffffffffffffffffffffffffffffff168173ffffffffffffffffffffffffffffffffffffffff161462000110576200010f81620001dc60201b60201c565b5b5050506200013873779877a7b0d9e8603169ddbd7836e478b46247896200030b60201b60201c565b6200015d736090149792daaee9d1d568c9f9a6f6b46aa29efd6200034e60201b60201c565b7f35336639373535393230636434353161386665343666353038373436383339356008819055507f3764383061363338366566353433613361626235323831376636373037653362600981905550600a670de0b6b3a76400006001620001c4919062000445565b620001d09190620004bc565b600a8190555062000561565b3373ffffffffffffffffffffffffffffffffffffffff168173ffffffffffffffffffffffffffffffffffffffff16036200024d576040517f08c379a0000000000000000000000000000000000000000000000000000000008152600401620002449062000541565b60405180910390fd5b8060075f6101000a81548173ffffffffffffffffffffffffffffffffffffffff021916908373ffffffffffffffffffffffffffffffffffffffff1602179055508073ffffffffffffffffffffffffffffffffffffffff1660065f9054906101000a900473ffffffffffffffffffffffffffffffffffffffff1673ffffffffffffffffffffffffffffffffffffffff167fed8889f560326eb138920d842192f0eb3dd22b4f139c87a2c57538e05bae127860405160405180910390a350565b8060025f6101000a81548173ffffffffffffffffffffffffffffffffffffffff021916908373ffffffffffffffffffffffffffffffffffffffff16021790555050565b8060035f6101000a81548173ffffffffffffffffffffffffffffffffffffffff021916908373ffffffffffffffffffffffffffffffffffffffff16021790555050565b5f82825260208201905092915050565b7f43616e6e6f7420736574206f776e657220746f207a65726f00000000000000005f82015250565b5f620003d760188362000391565b9150620003e482620003a1565b602082019050919050565b5f6020820190508181035f8301526200040881620003c9565b9050919050565b5f819050919050565b7f4e487b71000000000000000000000000000000000000000000000000000000005f52601160045260245ffd5b5f62000451826200040f565b91506200045e836200040f565b92508282026200046e816200040f565b9150828204841483151762000488576200048762000418565b5b5092915050565b7f4e487b71000000000000000000000000000000000000000000000000000000005f52601260045260245ffd5b5f620004c8826200040f565b9150620004d5836200040f565b925082620004e857620004e76200048f565b5b828204905092915050565b7f43616e6e6f74207472616e7366657220746f2073656c660000000000000000005f82015250565b5f6200052960178362000391565b91506200053682620004f3565b602082019050919050565b5f6020820190508181035f8301526200055a816200051b565b9050919050565b61266b806200056f5f395ff3fe608060405234801561000f575f80fd5b50600436106100b2575f3560e01c80638da5cb5b1161006f5780638da5cb5b146101405780638dc654a21461015e578063ab0d92dd14610168578063b252c8f214610186578063f2fde38b146101a4578063fda4417b146101c0576100b2565b806337441996146100b65780634942f65f146100d25780634a3afb47146100f0578063516f279e146100fa5780636021abac1461011857806379ba509714610136575b5f80fd5b6100d060048036038101906100cb91906117fa565b6101dc565b005b6100da6102f0565b6040516100e7919061186c565b60405180910390f35b6100f86102f6565b005b6101026105c0565b60405161010f91906118ff565b60405180910390f35b61012061064c565b60405161012d919061192e565b60405180910390f35b61013e610757565b005b6101486108e8565b6040516101559190611986565b60405180910390f35b610166610910565b005b610170610a57565b60405161017d919061186c565b60405180910390f35b61018e610a5d565b60405161019b919061186c565b60405180910390f35b6101be60048036038101906101b991906119c9565b610a63565b005b6101da60048036038101906101d59190611a1e565b610a77565b005b8160055f8281526020019081526020015f205f9054906101000a900473ffffffffffffffffffffffffffffffffffffffff1673ffffffffffffffffffffffffffffffffffffffff163373ffffffffffffffffffffffffffffffffffffffff161461027b576040517f08c379a000000000000000000000000000000000000000000000000000000000815260040161027290611af2565b60405180910390fd5b60055f8281526020019081526020015f205f6101000a81549073ffffffffffffffffffffffffffffffffffffffff0219169055807f7cc135e0cebb02c3480ae5d74d377283180a2601f8f644edf7987b009316c63a60405160405180910390a281600e90816102ea9190611d0a565b50505050565b600b5481565b5f61030b6008543063fda4417b60e01b610bf8565b905061036f6040518060400160405280600681526020017f75726c42544300000000000000000000000000000000000000000000000000008152506040518060600160405280603b81526020016125fb603b913983610c299092919063ffffffff16565b6103ee6040518060400160405280600781526020017f70617468425443000000000000000000000000000000000000000000000000008152506040518060400160405280600c81526020017f646174612c6c6f7453697a65000000000000000000000000000000000000000081525083610c299092919063ffffffff16565b6104506040518060400160405280600681526020017f75726c55534400000000000000000000000000000000000000000000000000008152506040518060600160405280603b81526020016125fb603b913983610c299092919063ffffffff16565b6104cf6040518060400160405280600781526020017f70617468555344000000000000000000000000000000000000000000000000008152506040518060400160405280600f81526020017f646174612c746f74616c5072696365000000000000000000000000000000000081525083610c299092919063ffffffff16565b6105316040518060400160405280600681526020017f75726c45555200000000000000000000000000000000000000000000000000008152506040518060600160405280603b81526020016125fb603b913983610c299092919063ffffffff16565b6105b06040518060400160405280600781526020017f70617468455552000000000000000000000000000000000000000000000000008152506040518060400160405280601581526020017f646174612c746178417373657373656456616c7565000000000000000000000081525083610c299092919063ffffffff16565b6105bc81600a54610c5c565b5050565b600e80546105cd90611b3d565b80601f01602080910402602001604051908101604052809291908181526020018280546105f990611b3d565b80156106445780601f1061061b57610100808354040283529160200191610644565b820191905f5260205f20905b81548152906001019060200180831161062757829003601f168201915b505050505081565b5f8061066260095430633744199660e01b610bf8565b90506106c66040518060400160405280600381526020017f67657400000000000000000000000000000000000000000000000000000000008152506040518060600160405280603b81526020016125fb603b913983610c299092919063ffffffff16565b6107456040518060400160405280600481526020017f70617468000000000000000000000000000000000000000000000000000000008152506040518060400160405280600d81526020017f646174612c6c6f636174696f6e0000000000000000000000000000000000000081525083610c299092919063ffffffff16565b61075181600a54610c5c565b91505090565b60075f9054906101000a900473ffffffffffffffffffffffffffffffffffffffff1673ffffffffffffffffffffffffffffffffffffffff163373ffffffffffffffffffffffffffffffffffffffff16146107e6576040517f08c379a00000000000000000000000000000000000000000000000000000000081526004016107dd90611e23565b60405180910390fd5b5f60065f9054906101000a900473ffffffffffffffffffffffffffffffffffffffff1690503360065f6101000a81548173ffffffffffffffffffffffffffffffffffffffff021916908373ffffffffffffffffffffffffffffffffffffffff1602179055505f60075f6101000a81548173ffffffffffffffffffffffffffffffffffffffff021916908373ffffffffffffffffffffffffffffffffffffffff1602179055503373ffffffffffffffffffffffffffffffffffffffff168173ffffffffffffffffffffffffffffffffffffffff167f8be0079c531659141344cd1fd0a4f28419497f9722a3daafe3b4186f6b6457e060405160405180910390a350565b5f60065f9054906101000a900473ffffffffffffffffffffffffffffffffffffffff16905090565b610918610c91565b5f610921610d22565b90508073ffffffffffffffffffffffffffffffffffffffff1663a9059cbb338373ffffffffffffffffffffffffffffffffffffffff166370a08231306040518263ffffffff1660e01b81526004016109799190611986565b602060405180830381865afa158015610994573d5f803e3d5ffd5b505050506040513d601f19601f820116820180604052508101906109b89190611e55565b6040518363ffffffff1660e01b81526004016109d5929190611e80565b6020604051808303815f875af11580156109f1573d5f803e3d5ffd5b505050506040513d601f19601f82011682018060405250810190610a159190611edc565b610a54576040517f08c379a0000000000000000000000000000000000000000000000000000000008152600401610a4b90611f51565b60405180910390fd5b50565b600c5481565b600d5481565b610a6b610c91565b610a7481610d4a565b50565b8360055f8281526020019081526020015f205f9054906101000a900473ffffffffffffffffffffffffffffffffffffffff1673ffffffffffffffffffffffffffffffffffffffff163373ffffffffffffffffffffffffffffffffffffffff1614610b16576040517f08c379a0000000000000000000000000000000000000000000000000000000008152600401610b0d90611af2565b60405180910390fd5b60055f8281526020019081526020015f205f6101000a81549073ffffffffffffffffffffffffffffffffffffffff0219169055807f7cc135e0cebb02c3480ae5d74d377283180a2601f8f644edf7987b009316c63a60405160405180910390a2847fd8422588c680817fe4971ef8a5fe6a6b5df0d7cd4537eabef7fb17750e4187a7858585604051610baa93929190611f6f565b60405180910390a2620186a084610bc19190611ffe565b600b81905550620186a083610bd69190611ffe565b600c81905550620186a082610beb9190611ffe565b600d819055505050505050565b610c006115f8565b610c086115f8565b610c1f85858584610e76909392919063ffffffff16565b9150509392505050565b610c40828460800151610f2590919063ffffffff16565b610c57818460800151610f2590919063ffffffff16565b505050565b5f610c8960035f9054906101000a900473ffffffffffffffffffffffffffffffffffffffff168484610f4a565b905092915050565b60065f9054906101000a900473ffffffffffffffffffffffffffffffffffffffff1673ffffffffffffffffffffffffffffffffffffffff163373ffffffffffffffffffffffffffffffffffffffff1614610d20576040517f08c379a0000000000000000000000000000000000000000000000000000000008152600401610d1790612078565b60405180910390fd5b565b5f60025f9054906101000a900473ffffffffffffffffffffffffffffffffffffffff16905090565b3373ffffffffffffffffffffffffffffffffffffffff168173ffffffffffffffffffffffffffffffffffffffff1603610db8576040517f08c379a0000000000000000000000000000000000000000000000000000000008152600401610daf906120e0565b60405180910390fd5b8060075f6101000a81548173ffffffffffffffffffffffffffffffffffffffff021916908373ffffffffffffffffffffffffffffffffffffffff1602179055508073ffffffffffffffffffffffffffffffffffffffff1660065f9054906101000a900473ffffffffffffffffffffffffffffffffffffffff1673ffffffffffffffffffffffffffffffffffffffff167fed8889f560326eb138920d842192f0eb3dd22b4f139c87a2c57538e05bae127860405160405180910390a350565b610e7e6115f8565b610e8e8560800151610100611011565b5083855f01818152505082856020019073ffffffffffffffffffffffffffffffffffffffff16908173ffffffffffffffffffffffffffffffffffffffff16815250508185604001907bffffffffffffffffffffffffffffffffffffffffffffffffffffffff191690817bffffffffffffffffffffffffffffffffffffffffffffffffffffffff191681525050849050949350505050565b610f328260038351611079565b610f4581836111fe90919063ffffffff16565b505050565b5f806004549050600181610f5e91906120fe565b6004819055505f634042994660e01b5f80875f01513089604001518760018c608001515f0151604051602401610f9b9897969594939291906121bd565b604051602081830303815290604052907bffffffffffffffffffffffffffffffffffffffffffffffffffffffff19166020820180517bffffffffffffffffffffffffffffffffffffffffffffffffffffffff838183161783525050505090506110068683868461121f565b925050509392505050565b611019611661565b5f6020836110279190612240565b14611053576020826110399190612240565b60206110459190612270565b8261105091906120fe565b91505b818360200181815250506040518084525f81528281016020016040525082905092915050565b60178167ffffffffffffffff16116110b0576110aa8160058460ff16901b60ff1617846113ac90919063ffffffff16565b506111f9565b60ff8167ffffffffffffffff1611611106576110df601860058460ff16901b17846113ac90919063ffffffff16565b506111008167ffffffffffffffff166001856113cb9092919063ffffffff16565b506111f8565b61ffff8167ffffffffffffffff161161115d57611136601960058460ff16901b17846113ac90919063ffffffff16565b506111578167ffffffffffffffff166002856113cb9092919063ffffffff16565b506111f7565b63ffffffff8167ffffffffffffffff16116111b65761118f601a60058460ff16901b17846113ac90919063ffffffff16565b506111b08167ffffffffffffffff166004856113cb9092919063ffffffff16565b506111f6565b6111d3601b60058460ff16901b17846113ac90919063ffffffff16565b506111f48167ffffffffffffffff166008856113cb9092919063ffffffff16565b505b5b5b5b505050565b611206611661565b61121783845f0151518485516113ec565b905092915050565b5f308460405160200161123392919061234b565b6040516020818303038152906040528051906020012090508460055f8381526020019081526020015f205f6101000a81548173ffffffffffffffffffffffffffffffffffffffff021916908373ffffffffffffffffffffffffffffffffffffffff160217905550807fb5e6e01e79f91267dc17b4e6314d5d4d03593d2ceee0fbb452b750bd70ea5af960405160405180910390a260025f9054906101000a900473ffffffffffffffffffffffffffffffffffffffff1673ffffffffffffffffffffffffffffffffffffffff16634000aea08685856040518463ffffffff1660e01b815260040161132593929190612376565b6020604051808303815f875af1158015611341573d5f803e3d5ffd5b505050506040513d601f19601f820116820180604052508101906113659190611edc565b6113a4576040517f08c379a000000000000000000000000000000000000000000000000000000000815260040161139b90612422565b60405180910390fd5b949350505050565b6113b4611661565b6113c383845f015151846114d8565b905092915050565b6113d3611661565b6113e384855f015151858561152e565b90509392505050565b6113f4611661565b8251821115611401575f80fd5b8460200151828561141291906120fe565b1115611447576114468560026114378860200151888761143291906120fe565b6115bb565b6114419190612440565b6115d6565b5b5f808651805187602083010193508088870111156114655787860182525b60208701925050505b602084106114ac578051825260208261148791906120fe565b915060208161149691906120fe565b90506020846114a59190612270565b935061146e565b5f6001856020036101000a03905080198251168184511681811785525050508692505050949350505050565b6114e0611661565b836020015183106115065761150584600286602001516115009190612440565b6115d6565b5b83518051602085830101848153818603611521576001820183525b5050508390509392505050565b611536611661565b8460200151848361154791906120fe565b111561156f5761156e856002868561155f91906120fe565b6115699190612440565b6115d6565b5b5f60018361010061158091906125b0565b61158a9190612270565b905085518386820101858319825116178152815185880111156115ad5784870182525b505085915050949350505050565b5f818311156115cc578290506115d0565b8190505b92915050565b5f825f015190506115e78383611011565b506115f283826111fe565b50505050565b6040518060a001604052805f80191681526020015f73ffffffffffffffffffffffffffffffffffffffff1681526020015f7bffffffffffffffffffffffffffffffffffffffffffffffffffffffff191681526020015f815260200161165b611661565b81525090565b6040518060400160405280606081526020015f81525090565b5f604051905090565b5f80fd5b5f80fd5b5f819050919050565b61169d8161168b565b81146116a7575f80fd5b50565b5f813590506116b881611694565b92915050565b5f80fd5b5f80fd5b5f601f19601f8301169050919050565b7f4e487b71000000000000000000000000000000000000000000000000000000005f52604160045260245ffd5b61170c826116c6565b810181811067ffffffffffffffff8211171561172b5761172a6116d6565b5b80604052505050565b5f61173d61167a565b90506117498282611703565b919050565b5f67ffffffffffffffff821115611768576117676116d6565b5b611771826116c6565b9050602081019050919050565b828183375f83830152505050565b5f61179e6117998461174e565b611734565b9050828152602081018484840111156117ba576117b96116c2565b5b6117c584828561177e565b509392505050565b5f82601f8301126117e1576117e06116be565b5b81356117f184826020860161178c565b91505092915050565b5f80604083850312156118105761180f611683565b5b5f61181d858286016116aa565b925050602083013567ffffffffffffffff81111561183e5761183d611687565b5b61184a858286016117cd565b9150509250929050565b5f819050919050565b61186681611854565b82525050565b5f60208201905061187f5f83018461185d565b92915050565b5f81519050919050565b5f82825260208201905092915050565b5f5b838110156118bc5780820151818401526020810190506118a1565b5f8484015250505050565b5f6118d182611885565b6118db818561188f565b93506118eb81856020860161189f565b6118f4816116c6565b840191505092915050565b5f6020820190508181035f83015261191781846118c7565b905092915050565b6119288161168b565b82525050565b5f6020820190506119415f83018461191f565b92915050565b5f73ffffffffffffffffffffffffffffffffffffffff82169050919050565b5f61197082611947565b9050919050565b61198081611966565b82525050565b5f6020820190506119995f830184611977565b92915050565b6119a881611966565b81146119b2575f80fd5b50565b5f813590506119c38161199f565b92915050565b5f602082840312156119de576119dd611683565b5b5f6119eb848285016119b5565b91505092915050565b6119fd81611854565b8114611a07575f80fd5b50565b5f81359050611a18816119f4565b92915050565b5f805f8060808587031215611a3657611a35611683565b5b5f611a43878288016116aa565b9450506020611a5487828801611a0a565b9350506040611a6587828801611a0a565b9250506060611a7687828801611a0a565b91505092959194509250565b7f536f75726365206d75737420626520746865206f7261636c65206f66207468655f8201527f2072657175657374000000000000000000000000000000000000000000000000602082015250565b5f611adc60288361188f565b9150611ae782611a82565b604082019050919050565b5f6020820190508181035f830152611b0981611ad0565b9050919050565b7f4e487b71000000000000000000000000000000000000000000000000000000005f52602260045260245ffd5b5f6002820490506001821680611b5457607f821691505b602082108103611b6757611b66611b10565b5b50919050565b5f819050815f5260205f209050919050565b5f6020601f8301049050919050565b5f82821b905092915050565b5f60088302611bc97fffffffffffffffffffffffffffffffffffffffffffffffffffffffffffffffff82611b8e565b611bd38683611b8e565b95508019841693508086168417925050509392505050565b5f819050919050565b5f611c0e611c09611c0484611854565b611beb565b611854565b9050919050565b5f819050919050565b611c2783611bf4565b611c3b611c3382611c15565b848454611b9a565b825550505050565b5f90565b611c4f611c43565b611c5a818484611c1e565b505050565b5b81811015611c7d57611c725f82611c47565b600181019050611c60565b5050565b601f821115611cc257611c9381611b6d565b611c9c84611b7f565b81016020851015611cab578190505b611cbf611cb785611b7f565b830182611c5f565b50505b505050565b5f82821c905092915050565b5f611ce25f1984600802611cc7565b1980831691505092915050565b5f611cfa8383611cd3565b9150826002028217905092915050565b611d1382611885565b67ffffffffffffffff811115611d2c57611d2b6116d6565b5b611d368254611b3d565b611d41828285611c81565b5f60209050601f831160018114611d72575f8415611d60578287015190505b611d6a8582611cef565b865550611dd1565b601f198416611d8086611b6d565b5f5b82811015611da757848901518255600182019150602085019450602081019050611d82565b86831015611dc45784890151611dc0601f891682611cd3565b8355505b6001600288020188555050505b505050505050565b7f4d7573742062652070726f706f736564206f776e6572000000000000000000005f82015250565b5f611e0d60168361188f565b9150611e1882611dd9565b602082019050919050565b5f6020820190508181035f830152611e3a81611e01565b9050919050565b5f81519050611e4f816119f4565b92915050565b5f60208284031215611e6a57611e69611683565b5b5f611e7784828501611e41565b91505092915050565b5f604082019050611e935f830185611977565b611ea0602083018461185d565b9392505050565b5f8115159050919050565b611ebb81611ea7565b8114611ec5575f80fd5b50565b5f81519050611ed681611eb2565b92915050565b5f60208284031215611ef157611ef0611683565b5b5f611efe84828501611ec8565b91505092915050565b7f556e61626c6520746f207472616e7366657200000000000000000000000000005f82015250565b5f611f3b60128361188f565b9150611f4682611f07565b602082019050919050565b5f6020820190508181035f830152611f6881611f2f565b9050919050565b5f606082019050611f825f83018661185d565b611f8f602083018561185d565b611f9c604083018461185d565b949350505050565b7f4e487b71000000000000000000000000000000000000000000000000000000005f52601260045260245ffd5b7f4e487b71000000000000000000000000000000000000000000000000000000005f52601160045260245ffd5b5f61200882611854565b915061201383611854565b92508261202357612022611fa4565b5b828204905092915050565b7f4f6e6c792063616c6c61626c65206279206f776e6572000000000000000000005f82015250565b5f61206260168361188f565b915061206d8261202e565b602082019050919050565b5f6020820190508181035f83015261208f81612056565b9050919050565b7f43616e6e6f74207472616e7366657220746f2073656c660000000000000000005f82015250565b5f6120ca60178361188f565b91506120d582612096565b602082019050919050565b5f6020820190508181035f8301526120f7816120be565b9050919050565b5f61210882611854565b915061211383611854565b925082820190508082111561212b5761212a611fd1565b5b92915050565b5f7fffffffff0000000000000000000000000000000000000000000000000000000082169050919050565b61216581612131565b82525050565b5f81519050919050565b5f82825260208201905092915050565b5f61218f8261216b565b6121998185612175565b93506121a981856020860161189f565b6121b2816116c6565b840191505092915050565b5f610100820190506121d15f83018b611977565b6121de602083018a61185d565b6121eb604083018961191f565b6121f86060830188611977565b612205608083018761215c565b61221260a083018661185d565b61221f60c083018561185d565b81810360e08301526122318184612185565b90509998505050505050505050565b5f61224a82611854565b915061225583611854565b92508261226557612264611fa4565b5b828206905092915050565b5f61227a82611854565b915061228583611854565b925082820390508181111561229d5761229c611fd1565b5b92915050565b5f6122bd6122b86122b384611947565b611beb565b611947565b9050919050565b5f6122ce826122a3565b9050919050565b5f6122df826122c4565b9050919050565b5f8160601b9050919050565b5f6122fc826122e6565b9050919050565b5f61230d826122f2565b9050919050565b612325612320826122d5565b612303565b82525050565b5f819050919050565b61234561234082611854565b61232b565b82525050565b5f6123568285612314565b6014820191506123668284612334565b6020820191508190509392505050565b5f6060820190506123895f830186611977565b612396602083018561185d565b81810360408301526123a88184612185565b9050949350505050565b7f756e61626c6520746f207472616e73666572416e6443616c6c20746f206f72615f8201527f636c650000000000000000000000000000000000000000000000000000000000602082015250565b5f61240c60238361188f565b9150612417826123b2565b604082019050919050565b5f6020820190508181035f83015261243981612400565b9050919050565b5f61244a82611854565b915061245583611854565b925082820261246381611854565b9150828204841483151761247a57612479611fd1565b5b5092915050565b5f8160011c9050919050565b5f808291508390505b60018511156124d6578086048111156124b2576124b1611fd1565b5b60018516156124c15780820291505b80810290506124cf85612481565b9450612496565b94509492505050565b5f826124ee57600190506125a9565b816124fb575f90506125a9565b8160018114612511576002811461251b5761254a565b60019150506125a9565b60ff84111561252d5761252c611fd1565b5b8360020a91508482111561254457612543611fd1565b5b506125a9565b5060208310610133831016604e8410600b841016171561257f5782820a90508381111561257a57612579611fd1565b5b6125a9565b61258c848484600161248d565b925090508184048111156125a3576125a2611fd1565b5b81810290505b9392505050565b5f6125ba82611854565b91506125c583611854565b92506125f27fffffffffffffffffffffffffffffffffffffffffffffffffffffffffffffffff84846124df565b90509291505056fe68747470733a2f2f67656e69656261636b626f6e652e617a75726577656273697465732e6e65742f6170692f70726f706572746965732f64656d6fa264697066735822122049b6a5be861b15f938fce9f84e01524249a91c3dfa9faece03ebe794efb1701964736f6c63430008140033",
					"opcodes": "PUSH1 0x80 PUSH1 0x40 MSTORE PUSH1 0x1 PUSH1 0x4 SSTORE CALLVALUE DUP1 ISZERO PUSH3 0x15 JUMPI PUSH0 DUP1 REVERT JUMPDEST POP CALLER DUP1 PUSH0 DUP1 PUSH20 0xFFFFFFFFFFFFFFFFFFFFFFFFFFFFFFFFFFFFFFFF AND DUP3 PUSH20 0xFFFFFFFFFFFFFFFFFFFFFFFFFFFFFFFFFFFFFFFF AND SUB PUSH3 0x8A JUMPI PUSH1 0x40 MLOAD PUSH32 0x8C379A000000000000000000000000000000000000000000000000000000000 DUP2 MSTORE PUSH1 0x4 ADD PUSH3 0x81 SWAP1 PUSH3 0x3EF JUMP JUMPDEST PUSH1 0x40 MLOAD DUP1 SWAP2 SUB SWAP1 REVERT JUMPDEST DUP2 PUSH1 0x6 PUSH0 PUSH2 0x100 EXP DUP2 SLOAD DUP2 PUSH20 0xFFFFFFFFFFFFFFFFFFFFFFFFFFFFFFFFFFFFFFFF MUL NOT AND SWAP1 DUP4 PUSH20 0xFFFFFFFFFFFFFFFFFFFFFFFFFFFFFFFFFFFFFFFF AND MUL OR SWAP1 SSTORE POP PUSH0 PUSH20 0xFFFFFFFFFFFFFFFFFFFFFFFFFFFFFFFFFFFFFFFF AND DUP2 PUSH20 0xFFFFFFFFFFFFFFFFFFFFFFFFFFFFFFFFFFFFFFFF AND EQ PUSH3 0x110 JUMPI PUSH3 0x10F DUP2 PUSH3 0x1DC PUSH1 0x20 SHL PUSH1 0x20 SHR JUMP JUMPDEST JUMPDEST POP POP POP PUSH3 0x138 PUSH20 0x779877A7B0D9E8603169DDBD7836E478B4624789 PUSH3 0x30B PUSH1 0x20 SHL PUSH1 0x20 SHR JUMP JUMPDEST PUSH3 0x15D PUSH20 0x6090149792DAAEE9D1D568C9F9A6F6B46AA29EFD PUSH3 0x34E PUSH1 0x20 SHL PUSH1 0x20 SHR JUMP JUMPDEST PUSH32 0x3533663937353539323063643435316138666534366635303837343638333935 PUSH1 0x8 DUP2 SWAP1 SSTORE POP PUSH32 0x3764383061363338366566353433613361626235323831376636373037653362 PUSH1 0x9 DUP2 SWAP1 SSTORE POP PUSH1 0xA PUSH8 0xDE0B6B3A7640000 PUSH1 0x1 PUSH3 0x1C4 SWAP2 SWAP1 PUSH3 0x445 JUMP JUMPDEST PUSH3 0x1D0 SWAP2 SWAP1 PUSH3 0x4BC JUMP JUMPDEST PUSH1 0xA DUP2 SWAP1 SSTORE POP PUSH3 0x561 JUMP JUMPDEST CALLER PUSH20 0xFFFFFFFFFFFFFFFFFFFFFFFFFFFFFFFFFFFFFFFF AND DUP2 PUSH20 0xFFFFFFFFFFFFFFFFFFFFFFFFFFFFFFFFFFFFFFFF AND SUB PUSH3 0x24D JUMPI PUSH1 0x40 MLOAD PUSH32 0x8C379A000000000000000000000000000000000000000000000000000000000 DUP2 MSTORE PUSH1 0x4 ADD PUSH3 0x244 SWAP1 PUSH3 0x541 JUMP JUMPDEST PUSH1 0x40 MLOAD DUP1 SWAP2 SUB SWAP1 REVERT JUMPDEST DUP1 PUSH1 0x7 PUSH0 PUSH2 0x100 EXP DUP2 SLOAD DUP2 PUSH20 0xFFFFFFFFFFFFFFFFFFFFFFFFFFFFFFFFFFFFFFFF MUL NOT AND SWAP1 DUP4 PUSH20 0xFFFFFFFFFFFFFFFFFFFFFFFFFFFFFFFFFFFFFFFF AND MUL OR SWAP1 SSTORE POP DUP1 PUSH20 0xFFFFFFFFFFFFFFFFFFFFFFFFFFFFFFFFFFFFFFFF AND PUSH1 0x6 PUSH0 SWAP1 SLOAD SWAP1 PUSH2 0x100 EXP SWAP1 DIV PUSH20 0xFFFFFFFFFFFFFFFFFFFFFFFFFFFFFFFFFFFFFFFF AND PUSH20 0xFFFFFFFFFFFFFFFFFFFFFFFFFFFFFFFFFFFFFFFF AND PUSH32 0xED8889F560326EB138920D842192F0EB3DD22B4F139C87A2C57538E05BAE1278 PUSH1 0x40 MLOAD PUSH1 0x40 MLOAD DUP1 SWAP2 SUB SWAP1 LOG3 POP JUMP JUMPDEST DUP1 PUSH1 0x2 PUSH0 PUSH2 0x100 EXP DUP2 SLOAD DUP2 PUSH20 0xFFFFFFFFFFFFFFFFFFFFFFFFFFFFFFFFFFFFFFFF MUL NOT AND SWAP1 DUP4 PUSH20 0xFFFFFFFFFFFFFFFFFFFFFFFFFFFFFFFFFFFFFFFF AND MUL OR SWAP1 SSTORE POP POP JUMP JUMPDEST DUP1 PUSH1 0x3 PUSH0 PUSH2 0x100 EXP DUP2 SLOAD DUP2 PUSH20 0xFFFFFFFFFFFFFFFFFFFFFFFFFFFFFFFFFFFFFFFF MUL NOT AND SWAP1 DUP4 PUSH20 0xFFFFFFFFFFFFFFFFFFFFFFFFFFFFFFFFFFFFFFFF AND MUL OR SWAP1 SSTORE POP POP JUMP JUMPDEST PUSH0 DUP3 DUP3 MSTORE PUSH1 0x20 DUP3 ADD SWAP1 POP SWAP3 SWAP2 POP POP JUMP JUMPDEST PUSH32 0x43616E6E6F7420736574206F776E657220746F207A65726F0000000000000000 PUSH0 DUP3 ADD MSTORE POP JUMP JUMPDEST PUSH0 PUSH3 0x3D7 PUSH1 0x18 DUP4 PUSH3 0x391 JUMP JUMPDEST SWAP2 POP PUSH3 0x3E4 DUP3 PUSH3 0x3A1 JUMP JUMPDEST PUSH1 0x20 DUP3 ADD SWAP1 POP SWAP2 SWAP1 POP JUMP JUMPDEST PUSH0 PUSH1 0x20 DUP3 ADD SWAP1 POP DUP2 DUP2 SUB PUSH0 DUP4 ADD MSTORE PUSH3 0x408 DUP2 PUSH3 0x3C9 JUMP JUMPDEST SWAP1 POP SWAP2 SWAP1 POP JUMP JUMPDEST PUSH0 DUP2 SWAP1 POP SWAP2 SWAP1 POP JUMP JUMPDEST PUSH32 0x4E487B7100000000000000000000000000000000000000000000000000000000 PUSH0 MSTORE PUSH1 0x11 PUSH1 0x4 MSTORE PUSH1 0x24 PUSH0 REVERT JUMPDEST PUSH0 PUSH3 0x451 DUP3 PUSH3 0x40F JUMP JUMPDEST SWAP2 POP PUSH3 0x45E DUP4 PUSH3 0x40F JUMP JUMPDEST SWAP3 POP DUP3 DUP3 MUL PUSH3 0x46E DUP2 PUSH3 0x40F JUMP JUMPDEST SWAP2 POP DUP3 DUP3 DIV DUP5 EQ DUP4 ISZERO OR PUSH3 0x488 JUMPI PUSH3 0x487 PUSH3 0x418 JUMP JUMPDEST JUMPDEST POP SWAP3 SWAP2 POP POP JUMP JUMPDEST PUSH32 0x4E487B7100000000000000000000000000000000000000000000000000000000 PUSH0 MSTORE PUSH1 0x12 PUSH1 0x4 MSTORE PUSH1 0x24 PUSH0 REVERT JUMPDEST PUSH0 PUSH3 0x4C8 DUP3 PUSH3 0x40F JUMP JUMPDEST SWAP2 POP PUSH3 0x4D5 DUP4 PUSH3 0x40F JUMP JUMPDEST SWAP3 POP DUP3 PUSH3 0x4E8 JUMPI PUSH3 0x4E7 PUSH3 0x48F JUMP JUMPDEST JUMPDEST DUP3 DUP3 DIV SWAP1 POP SWAP3 SWAP2 POP POP JUMP JUMPDEST PUSH32 0x43616E6E6F74207472616E7366657220746F2073656C66000000000000000000 PUSH0 DUP3 ADD MSTORE POP JUMP JUMPDEST PUSH0 PUSH3 0x529 PUSH1 0x17 DUP4 PUSH3 0x391 JUMP JUMPDEST SWAP2 POP PUSH3 0x536 DUP3 PUSH3 0x4F3 JUMP JUMPDEST PUSH1 0x20 DUP3 ADD SWAP1 POP SWAP2 SWAP1 POP JUMP JUMPDEST PUSH0 PUSH1 0x20 DUP3 ADD SWAP1 POP DUP2 DUP2 SUB PUSH0 DUP4 ADD MSTORE PUSH3 0x55A DUP2 PUSH3 0x51B JUMP JUMPDEST SWAP1 POP SWAP2 SWAP1 POP JUMP JUMPDEST PUSH2 0x266B DUP1 PUSH3 0x56F PUSH0 CODECOPY PUSH0 RETURN INVALID PUSH1 0x80 PUSH1 0x40 MSTORE CALLVALUE DUP1 ISZERO PUSH2 0xF JUMPI PUSH0 DUP1 REVERT JUMPDEST POP PUSH1 0x4 CALLDATASIZE LT PUSH2 0xB2 JUMPI PUSH0 CALLDATALOAD PUSH1 0xE0 SHR DUP1 PUSH4 0x8DA5CB5B GT PUSH2 0x6F JUMPI DUP1 PUSH4 0x8DA5CB5B EQ PUSH2 0x140 JUMPI DUP1 PUSH4 0x8DC654A2 EQ PUSH2 0x15E JUMPI DUP1 PUSH4 0xAB0D92DD EQ PUSH2 0x168 JUMPI DUP1 PUSH4 0xB252C8F2 EQ PUSH2 0x186 JUMPI DUP1 PUSH4 0xF2FDE38B EQ PUSH2 0x1A4 JUMPI DUP1 PUSH4 0xFDA4417B EQ PUSH2 0x1C0 JUMPI PUSH2 0xB2 JUMP JUMPDEST DUP1 PUSH4 0x37441996 EQ PUSH2 0xB6 JUMPI DUP1 PUSH4 0x4942F65F EQ PUSH2 0xD2 JUMPI DUP1 PUSH4 0x4A3AFB47 EQ PUSH2 0xF0 JUMPI DUP1 PUSH4 0x516F279E EQ PUSH2 0xFA JUMPI DUP1 PUSH4 0x6021ABAC EQ PUSH2 0x118 JUMPI DUP1 PUSH4 0x79BA5097 EQ PUSH2 0x136 JUMPI JUMPDEST PUSH0 DUP1 REVERT JUMPDEST PUSH2 0xD0 PUSH1 0x4 DUP1 CALLDATASIZE SUB DUP2 ADD SWAP1 PUSH2 0xCB SWAP2 SWAP1 PUSH2 0x17FA JUMP JUMPDEST PUSH2 0x1DC JUMP JUMPDEST STOP JUMPDEST PUSH2 0xDA PUSH2 0x2F0 JUMP JUMPDEST PUSH1 0x40 MLOAD PUSH2 0xE7 SWAP2 SWAP1 PUSH2 0x186C JUMP JUMPDEST PUSH1 0x40 MLOAD DUP1 SWAP2 SUB SWAP1 RETURN JUMPDEST PUSH2 0xF8 PUSH2 0x2F6 JUMP JUMPDEST STOP JUMPDEST PUSH2 0x102 PUSH2 0x5C0 JUMP JUMPDEST PUSH1 0x40 MLOAD PUSH2 0x10F SWAP2 SWAP1 PUSH2 0x18FF JUMP JUMPDEST PUSH1 0x40 MLOAD DUP1 SWAP2 SUB SWAP1 RETURN JUMPDEST PUSH2 0x120 PUSH2 0x64C JUMP JUMPDEST PUSH1 0x40 MLOAD PUSH2 0x12D SWAP2 SWAP1 PUSH2 0x192E JUMP JUMPDEST PUSH1 0x40 MLOAD DUP1 SWAP2 SUB SWAP1 RETURN JUMPDEST PUSH2 0x13E PUSH2 0x757 JUMP JUMPDEST STOP JUMPDEST PUSH2 0x148 PUSH2 0x8E8 JUMP JUMPDEST PUSH1 0x40 MLOAD PUSH2 0x155 SWAP2 SWAP1 PUSH2 0x1986 JUMP JUMPDEST PUSH1 0x40 MLOAD DUP1 SWAP2 SUB SWAP1 RETURN JUMPDEST PUSH2 0x166 PUSH2 0x910 JUMP JUMPDEST STOP JUMPDEST PUSH2 0x170 PUSH2 0xA57 JUMP JUMPDEST PUSH1 0x40 MLOAD PUSH2 0x17D SWAP2 SWAP1 PUSH2 0x186C JUMP JUMPDEST PUSH1 0x40 MLOAD DUP1 SWAP2 SUB SWAP1 RETURN JUMPDEST PUSH2 0x18E PUSH2 0xA5D JUMP JUMPDEST PUSH1 0x40 MLOAD PUSH2 0x19B SWAP2 SWAP1 PUSH2 0x186C JUMP JUMPDEST PUSH1 0x40 MLOAD DUP1 SWAP2 SUB SWAP1 RETURN JUMPDEST PUSH2 0x1BE PUSH1 0x4 DUP1 CALLDATASIZE SUB DUP2 ADD SWAP1 PUSH2 0x1B9 SWAP2 SWAP1 PUSH2 0x19C9 JUMP JUMPDEST PUSH2 0xA63 JUMP JUMPDEST STOP JUMPDEST PUSH2 0x1DA PUSH1 0x4 DUP1 CALLDATASIZE SUB DUP2 ADD SWAP1 PUSH2 0x1D5 SWAP2 SWAP1 PUSH2 0x1A1E JUMP JUMPDEST PUSH2 0xA77 JUMP JUMPDEST STOP JUMPDEST DUP2 PUSH1 0x5 PUSH0 DUP3 DUP2 MSTORE PUSH1 0x20 ADD SWAP1 DUP2 MSTORE PUSH1 0x20 ADD PUSH0 KECCAK256 PUSH0 SWAP1 SLOAD SWAP1 PUSH2 0x100 EXP SWAP1 DIV PUSH20 0xFFFFFFFFFFFFFFFFFFFFFFFFFFFFFFFFFFFFFFFF AND PUSH20 0xFFFFFFFFFFFFFFFFFFFFFFFFFFFFFFFFFFFFFFFF AND CALLER PUSH20 0xFFFFFFFFFFFFFFFFFFFFFFFFFFFFFFFFFFFFFFFF AND EQ PUSH2 0x27B JUMPI PUSH1 0x40 MLOAD PUSH32 0x8C379A000000000000000000000000000000000000000000000000000000000 DUP2 MSTORE PUSH1 0x4 ADD PUSH2 0x272 SWAP1 PUSH2 0x1AF2 JUMP JUMPDEST PUSH1 0x40 MLOAD DUP1 SWAP2 SUB SWAP1 REVERT JUMPDEST PUSH1 0x5 PUSH0 DUP3 DUP2 MSTORE PUSH1 0x20 ADD SWAP1 DUP2 MSTORE PUSH1 0x20 ADD PUSH0 KECCAK256 PUSH0 PUSH2 0x100 EXP DUP2 SLOAD SWAP1 PUSH20 0xFFFFFFFFFFFFFFFFFFFFFFFFFFFFFFFFFFFFFFFF MUL NOT AND SWAP1 SSTORE DUP1 PUSH32 0x7CC135E0CEBB02C3480AE5D74D377283180A2601F8F644EDF7987B009316C63A PUSH1 0x40 MLOAD PUSH1 0x40 MLOAD DUP1 SWAP2 SUB SWAP1 LOG2 DUP2 PUSH1 0xE SWAP1 DUP2 PUSH2 0x2EA SWAP2 SWAP1 PUSH2 0x1D0A JUMP JUMPDEST POP POP POP POP JUMP JUMPDEST PUSH1 0xB SLOAD DUP2 JUMP JUMPDEST PUSH0 PUSH2 0x30B PUSH1 0x8 SLOAD ADDRESS PUSH4 0xFDA4417B PUSH1 0xE0 SHL PUSH2 0xBF8 JUMP JUMPDEST SWAP1 POP PUSH2 0x36F PUSH1 0x40 MLOAD DUP1 PUSH1 0x40 ADD PUSH1 0x40 MSTORE DUP1 PUSH1 0x6 DUP2 MSTORE PUSH1 0x20 ADD PUSH32 0x75726C4254430000000000000000000000000000000000000000000000000000 DUP2 MSTORE POP PUSH1 0x40 MLOAD DUP1 PUSH1 0x60 ADD PUSH1 0x40 MSTORE DUP1 PUSH1 0x3B DUP2 MSTORE PUSH1 0x20 ADD PUSH2 0x25FB PUSH1 0x3B SWAP2 CODECOPY DUP4 PUSH2 0xC29 SWAP1 SWAP3 SWAP2 SWAP1 PUSH4 0xFFFFFFFF AND JUMP JUMPDEST PUSH2 0x3EE PUSH1 0x40 MLOAD DUP1 PUSH1 0x40 ADD PUSH1 0x40 MSTORE DUP1 PUSH1 0x7 DUP2 MSTORE PUSH1 0x20 ADD PUSH32 0x7061746842544300000000000000000000000000000000000000000000000000 DUP2 MSTORE POP PUSH1 0x40 MLOAD DUP1 PUSH1 0x40 ADD PUSH1 0x40 MSTORE DUP1 PUSH1 0xC DUP2 MSTORE PUSH1 0x20 ADD PUSH32 0x646174612C6C6F7453697A650000000000000000000000000000000000000000 DUP2 MSTORE POP DUP4 PUSH2 0xC29 SWAP1 SWAP3 SWAP2 SWAP1 PUSH4 0xFFFFFFFF AND JUMP JUMPDEST PUSH2 0x450 PUSH1 0x40 MLOAD DUP1 PUSH1 0x40 ADD PUSH1 0x40 MSTORE DUP1 PUSH1 0x6 DUP2 MSTORE PUSH1 0x20 ADD PUSH32 0x75726C5553440000000000000000000000000000000000000000000000000000 DUP2 MSTORE POP PUSH1 0x40 MLOAD DUP1 PUSH1 0x60 ADD PUSH1 0x40 MSTORE DUP1 PUSH1 0x3B DUP2 MSTORE PUSH1 0x20 ADD PUSH2 0x25FB PUSH1 0x3B SWAP2 CODECOPY DUP4 PUSH2 0xC29 SWAP1 SWAP3 SWAP2 SWAP1 PUSH4 0xFFFFFFFF AND JUMP JUMPDEST PUSH2 0x4CF PUSH1 0x40 MLOAD DUP1 PUSH1 0x40 ADD PUSH1 0x40 MSTORE DUP1 PUSH1 0x7 DUP2 MSTORE PUSH1 0x20 ADD PUSH32 0x7061746855534400000000000000000000000000000000000000000000000000 DUP2 MSTORE POP PUSH1 0x40 MLOAD DUP1 PUSH1 0x40 ADD PUSH1 0x40 MSTORE DUP1 PUSH1 0xF DUP2 MSTORE PUSH1 0x20 ADD PUSH32 0x646174612C746F74616C50726963650000000000000000000000000000000000 DUP2 MSTORE POP DUP4 PUSH2 0xC29 SWAP1 SWAP3 SWAP2 SWAP1 PUSH4 0xFFFFFFFF AND JUMP JUMPDEST PUSH2 0x531 PUSH1 0x40 MLOAD DUP1 PUSH1 0x40 ADD PUSH1 0x40 MSTORE DUP1 PUSH1 0x6 DUP2 MSTORE PUSH1 0x20 ADD PUSH32 0x75726C4555520000000000000000000000000000000000000000000000000000 DUP2 MSTORE POP PUSH1 0x40 MLOAD DUP1 PUSH1 0x60 ADD PUSH1 0x40 MSTORE DUP1 PUSH1 0x3B DUP2 MSTORE PUSH1 0x20 ADD PUSH2 0x25FB PUSH1 0x3B SWAP2 CODECOPY DUP4 PUSH2 0xC29 SWAP1 SWAP3 SWAP2 SWAP1 PUSH4 0xFFFFFFFF AND JUMP JUMPDEST PUSH2 0x5B0 PUSH1 0x40 MLOAD DUP1 PUSH1 0x40 ADD PUSH1 0x40 MSTORE DUP1 PUSH1 0x7 DUP2 MSTORE PUSH1 0x20 ADD PUSH32 0x7061746845555200000000000000000000000000000000000000000000000000 DUP2 MSTORE POP PUSH1 0x40 MLOAD DUP1 PUSH1 0x40 ADD PUSH1 0x40 MSTORE DUP1 PUSH1 0x15 DUP2 MSTORE PUSH1 0x20 ADD PUSH32 0x646174612C746178417373657373656456616C75650000000000000000000000 DUP2 MSTORE POP DUP4 PUSH2 0xC29 SWAP1 SWAP3 SWAP2 SWAP1 PUSH4 0xFFFFFFFF AND JUMP JUMPDEST PUSH2 0x5BC DUP2 PUSH1 0xA SLOAD PUSH2 0xC5C JUMP JUMPDEST POP POP JUMP JUMPDEST PUSH1 0xE DUP1 SLOAD PUSH2 0x5CD SWAP1 PUSH2 0x1B3D JUMP JUMPDEST DUP1 PUSH1 0x1F ADD PUSH1 0x20 DUP1 SWAP2 DIV MUL PUSH1 0x20 ADD PUSH1 0x40 MLOAD SWAP1 DUP2 ADD PUSH1 0x40 MSTORE DUP1 SWAP3 SWAP2 SWAP1 DUP2 DUP2 MSTORE PUSH1 0x20 ADD DUP3 DUP1 SLOAD PUSH2 0x5F9 SWAP1 PUSH2 0x1B3D JUMP JUMPDEST DUP1 ISZERO PUSH2 0x644 JUMPI DUP1 PUSH1 0x1F LT PUSH2 0x61B JUMPI PUSH2 0x100 DUP1 DUP4 SLOAD DIV MUL DUP4 MSTORE SWAP2 PUSH1 0x20 ADD SWAP2 PUSH2 0x644 JUMP JUMPDEST DUP3 ADD SWAP2 SWAP1 PUSH0 MSTORE PUSH1 0x20 PUSH0 KECCAK256 SWAP1 JUMPDEST DUP2 SLOAD DUP2 MSTORE SWAP1 PUSH1 0x1 ADD SWAP1 PUSH1 0x20 ADD DUP1 DUP4 GT PUSH2 0x627 JUMPI DUP3 SWAP1 SUB PUSH1 0x1F AND DUP3 ADD SWAP2 JUMPDEST POP POP POP POP POP DUP2 JUMP JUMPDEST PUSH0 DUP1 PUSH2 0x662 PUSH1 0x9 SLOAD ADDRESS PUSH4 0x37441996 PUSH1 0xE0 SHL PUSH2 0xBF8 JUMP JUMPDEST SWAP1 POP PUSH2 0x6C6 PUSH1 0x40 MLOAD DUP1 PUSH1 0x40 ADD PUSH1 0x40 MSTORE DUP1 PUSH1 0x3 DUP2 MSTORE PUSH1 0x20 ADD PUSH32 0x6765740000000000000000000000000000000000000000000000000000000000 DUP2 MSTORE POP PUSH1 0x40 MLOAD DUP1 PUSH1 0x60 ADD PUSH1 0x40 MSTORE DUP1 PUSH1 0x3B DUP2 MSTORE PUSH1 0x20 ADD PUSH2 0x25FB PUSH1 0x3B SWAP2 CODECOPY DUP4 PUSH2 0xC29 SWAP1 SWAP3 SWAP2 SWAP1 PUSH4 0xFFFFFFFF AND JUMP JUMPDEST PUSH2 0x745 PUSH1 0x40 MLOAD DUP1 PUSH1 0x40 ADD PUSH1 0x40 MSTORE DUP1 PUSH1 0x4 DUP2 MSTORE PUSH1 0x20 ADD PUSH32 0x7061746800000000000000000000000000000000000000000000000000000000 DUP2 MSTORE POP PUSH1 0x40 MLOAD DUP1 PUSH1 0x40 ADD PUSH1 0x40 MSTORE DUP1 PUSH1 0xD DUP2 MSTORE PUSH1 0x20 ADD PUSH32 0x646174612C6C6F636174696F6E00000000000000000000000000000000000000 DUP2 MSTORE POP DUP4 PUSH2 0xC29 SWAP1 SWAP3 SWAP2 SWAP1 PUSH4 0xFFFFFFFF AND JUMP JUMPDEST PUSH2 0x751 DUP2 PUSH1 0xA SLOAD PUSH2 0xC5C JUMP JUMPDEST SWAP2 POP POP SWAP1 JUMP JUMPDEST PUSH1 0x7 PUSH0 SWAP1 SLOAD SWAP1 PUSH2 0x100 EXP SWAP1 DIV PUSH20 0xFFFFFFFFFFFFFFFFFFFFFFFFFFFFFFFFFFFFFFFF AND PUSH20 0xFFFFFFFFFFFFFFFFFFFFFFFFFFFFFFFFFFFFFFFF AND CALLER PUSH20 0xFFFFFFFFFFFFFFFFFFFFFFFFFFFFFFFFFFFFFFFF AND EQ PUSH2 0x7E6 JUMPI PUSH1 0x40 MLOAD PUSH32 0x8C379A000000000000000000000000000000000000000000000000000000000 DUP2 MSTORE PUSH1 0x4 ADD PUSH2 0x7DD SWAP1 PUSH2 0x1E23 JUMP JUMPDEST PUSH1 0x40 MLOAD DUP1 SWAP2 SUB SWAP1 REVERT JUMPDEST PUSH0 PUSH1 0x6 PUSH0 SWAP1 SLOAD SWAP1 PUSH2 0x100 EXP SWAP1 DIV PUSH20 0xFFFFFFFFFFFFFFFFFFFFFFFFFFFFFFFFFFFFFFFF AND SWAP1 POP CALLER PUSH1 0x6 PUSH0 PUSH2 0x100 EXP DUP2 SLOAD DUP2 PUSH20 0xFFFFFFFFFFFFFFFFFFFFFFFFFFFFFFFFFFFFFFFF MUL NOT AND SWAP1 DUP4 PUSH20 0xFFFFFFFFFFFFFFFFFFFFFFFFFFFFFFFFFFFFFFFF AND MUL OR SWAP1 SSTORE POP PUSH0 PUSH1 0x7 PUSH0 PUSH2 0x100 EXP DUP2 SLOAD DUP2 PUSH20 0xFFFFFFFFFFFFFFFFFFFFFFFFFFFFFFFFFFFFFFFF MUL NOT AND SWAP1 DUP4 PUSH20 0xFFFFFFFFFFFFFFFFFFFFFFFFFFFFFFFFFFFFFFFF AND MUL OR SWAP1 SSTORE POP CALLER PUSH20 0xFFFFFFFFFFFFFFFFFFFFFFFFFFFFFFFFFFFFFFFF AND DUP2 PUSH20 0xFFFFFFFFFFFFFFFFFFFFFFFFFFFFFFFFFFFFFFFF AND PUSH32 0x8BE0079C531659141344CD1FD0A4F28419497F9722A3DAAFE3B4186F6B6457E0 PUSH1 0x40 MLOAD PUSH1 0x40 MLOAD DUP1 SWAP2 SUB SWAP1 LOG3 POP JUMP JUMPDEST PUSH0 PUSH1 0x6 PUSH0 SWAP1 SLOAD SWAP1 PUSH2 0x100 EXP SWAP1 DIV PUSH20 0xFFFFFFFFFFFFFFFFFFFFFFFFFFFFFFFFFFFFFFFF AND SWAP1 POP SWAP1 JUMP JUMPDEST PUSH2 0x918 PUSH2 0xC91 JUMP JUMPDEST PUSH0 PUSH2 0x921 PUSH2 0xD22 JUMP JUMPDEST SWAP1 POP DUP1 PUSH20 0xFFFFFFFFFFFFFFFFFFFFFFFFFFFFFFFFFFFFFFFF AND PUSH4 0xA9059CBB CALLER DUP4 PUSH20 0xFFFFFFFFFFFFFFFFFFFFFFFFFFFFFFFFFFFFFFFF AND PUSH4 0x70A08231 ADDRESS PUSH1 0x40 MLOAD DUP3 PUSH4 0xFFFFFFFF AND PUSH1 0xE0 SHL DUP2 MSTORE PUSH1 0x4 ADD PUSH2 0x979 SWAP2 SWAP1 PUSH2 0x1986 JUMP JUMPDEST PUSH1 0x20 PUSH1 0x40 MLOAD DUP1 DUP4 SUB DUP2 DUP7 GAS STATICCALL ISZERO DUP1 ISZERO PUSH2 0x994 JUMPI RETURNDATASIZE PUSH0 DUP1 RETURNDATACOPY RETURNDATASIZE PUSH0 REVERT JUMPDEST POP POP POP POP PUSH1 0x40 MLOAD RETURNDATASIZE PUSH1 0x1F NOT PUSH1 0x1F DUP3 ADD AND DUP3 ADD DUP1 PUSH1 0x40 MSTORE POP DUP2 ADD SWAP1 PUSH2 0x9B8 SWAP2 SWAP1 PUSH2 0x1E55 JUMP JUMPDEST PUSH1 0x40 MLOAD DUP4 PUSH4 0xFFFFFFFF AND PUSH1 0xE0 SHL DUP2 MSTORE PUSH1 0x4 ADD PUSH2 0x9D5 SWAP3 SWAP2 SWAP1 PUSH2 0x1E80 JUMP JUMPDEST PUSH1 0x20 PUSH1 0x40 MLOAD DUP1 DUP4 SUB DUP2 PUSH0 DUP8 GAS CALL ISZERO DUP1 ISZERO PUSH2 0x9F1 JUMPI RETURNDATASIZE PUSH0 DUP1 RETURNDATACOPY RETURNDATASIZE PUSH0 REVERT JUMPDEST POP POP POP POP PUSH1 0x40 MLOAD RETURNDATASIZE PUSH1 0x1F NOT PUSH1 0x1F DUP3 ADD AND DUP3 ADD DUP1 PUSH1 0x40 MSTORE POP DUP2 ADD SWAP1 PUSH2 0xA15 SWAP2 SWAP1 PUSH2 0x1EDC JUMP JUMPDEST PUSH2 0xA54 JUMPI PUSH1 0x40 MLOAD PUSH32 0x8C379A000000000000000000000000000000000000000000000000000000000 DUP2 MSTORE PUSH1 0x4 ADD PUSH2 0xA4B SWAP1 PUSH2 0x1F51 JUMP JUMPDEST PUSH1 0x40 MLOAD DUP1 SWAP2 SUB SWAP1 REVERT JUMPDEST POP JUMP JUMPDEST PUSH1 0xC SLOAD DUP2 JUMP JUMPDEST PUSH1 0xD SLOAD DUP2 JUMP JUMPDEST PUSH2 0xA6B PUSH2 0xC91 JUMP JUMPDEST PUSH2 0xA74 DUP2 PUSH2 0xD4A JUMP JUMPDEST POP JUMP JUMPDEST DUP4 PUSH1 0x5 PUSH0 DUP3 DUP2 MSTORE PUSH1 0x20 ADD SWAP1 DUP2 MSTORE PUSH1 0x20 ADD PUSH0 KECCAK256 PUSH0 SWAP1 SLOAD SWAP1 PUSH2 0x100 EXP SWAP1 DIV PUSH20 0xFFFFFFFFFFFFFFFFFFFFFFFFFFFFFFFFFFFFFFFF AND PUSH20 0xFFFFFFFFFFFFFFFFFFFFFFFFFFFFFFFFFFFFFFFF AND CALLER PUSH20 0xFFFFFFFFFFFFFFFFFFFFFFFFFFFFFFFFFFFFFFFF AND EQ PUSH2 0xB16 JUMPI PUSH1 0x40 MLOAD PUSH32 0x8C379A000000000000000000000000000000000000000000000000000000000 DUP2 MSTORE PUSH1 0x4 ADD PUSH2 0xB0D SWAP1 PUSH2 0x1AF2 JUMP JUMPDEST PUSH1 0x40 MLOAD DUP1 SWAP2 SUB SWAP1 REVERT JUMPDEST PUSH1 0x5 PUSH0 DUP3 DUP2 MSTORE PUSH1 0x20 ADD SWAP1 DUP2 MSTORE PUSH1 0x20 ADD PUSH0 KECCAK256 PUSH0 PUSH2 0x100 EXP DUP2 SLOAD SWAP1 PUSH20 0xFFFFFFFFFFFFFFFFFFFFFFFFFFFFFFFFFFFFFFFF MUL NOT AND SWAP1 SSTORE DUP1 PUSH32 0x7CC135E0CEBB02C3480AE5D74D377283180A2601F8F644EDF7987B009316C63A PUSH1 0x40 MLOAD PUSH1 0x40 MLOAD DUP1 SWAP2 SUB SWAP1 LOG2 DUP5 PUSH32 0xD8422588C680817FE4971EF8A5FE6A6B5DF0D7CD4537EABEF7FB17750E4187A7 DUP6 DUP6 DUP6 PUSH1 0x40 MLOAD PUSH2 0xBAA SWAP4 SWAP3 SWAP2 SWAP1 PUSH2 0x1F6F JUMP JUMPDEST PUSH1 0x40 MLOAD DUP1 SWAP2 SUB SWAP1 LOG2 PUSH3 0x186A0 DUP5 PUSH2 0xBC1 SWAP2 SWAP1 PUSH2 0x1FFE JUMP JUMPDEST PUSH1 0xB DUP2 SWAP1 SSTORE POP PUSH3 0x186A0 DUP4 PUSH2 0xBD6 SWAP2 SWAP1 PUSH2 0x1FFE JUMP JUMPDEST PUSH1 0xC DUP2 SWAP1 SSTORE POP PUSH3 0x186A0 DUP3 PUSH2 0xBEB SWAP2 SWAP1 PUSH2 0x1FFE JUMP JUMPDEST PUSH1 0xD DUP2 SWAP1 SSTORE POP POP POP POP POP POP JUMP JUMPDEST PUSH2 0xC00 PUSH2 0x15F8 JUMP JUMPDEST PUSH2 0xC08 PUSH2 0x15F8 JUMP JUMPDEST PUSH2 0xC1F DUP6 DUP6 DUP6 DUP5 PUSH2 0xE76 SWAP1 SWAP4 SWAP3 SWAP2 SWAP1 PUSH4 0xFFFFFFFF AND JUMP JUMPDEST SWAP2 POP POP SWAP4 SWAP3 POP POP POP JUMP JUMPDEST PUSH2 0xC40 DUP3 DUP5 PUSH1 0x80 ADD MLOAD PUSH2 0xF25 SWAP1 SWAP2 SWAP1 PUSH4 0xFFFFFFFF AND JUMP JUMPDEST PUSH2 0xC57 DUP2 DUP5 PUSH1 0x80 ADD MLOAD PUSH2 0xF25 SWAP1 SWAP2 SWAP1 PUSH4 0xFFFFFFFF AND JUMP JUMPDEST POP POP POP JUMP JUMPDEST PUSH0 PUSH2 0xC89 PUSH1 0x3 PUSH0 SWAP1 SLOAD SWAP1 PUSH2 0x100 EXP SWAP1 DIV PUSH20 0xFFFFFFFFFFFFFFFFFFFFFFFFFFFFFFFFFFFFFFFF AND DUP5 DUP5 PUSH2 0xF4A JUMP JUMPDEST SWAP1 POP SWAP3 SWAP2 POP POP JUMP JUMPDEST PUSH1 0x6 PUSH0 SWAP1 SLOAD SWAP1 PUSH2 0x100 EXP SWAP1 DIV PUSH20 0xFFFFFFFFFFFFFFFFFFFFFFFFFFFFFFFFFFFFFFFF AND PUSH20 0xFFFFFFFFFFFFFFFFFFFFFFFFFFFFFFFFFFFFFFFF AND CALLER PUSH20 0xFFFFFFFFFFFFFFFFFFFFFFFFFFFFFFFFFFFFFFFF AND EQ PUSH2 0xD20 JUMPI PUSH1 0x40 MLOAD PUSH32 0x8C379A000000000000000000000000000000000000000000000000000000000 DUP2 MSTORE PUSH1 0x4 ADD PUSH2 0xD17 SWAP1 PUSH2 0x2078 JUMP JUMPDEST PUSH1 0x40 MLOAD DUP1 SWAP2 SUB SWAP1 REVERT JUMPDEST JUMP JUMPDEST PUSH0 PUSH1 0x2 PUSH0 SWAP1 SLOAD SWAP1 PUSH2 0x100 EXP SWAP1 DIV PUSH20 0xFFFFFFFFFFFFFFFFFFFFFFFFFFFFFFFFFFFFFFFF AND SWAP1 POP SWAP1 JUMP JUMPDEST CALLER PUSH20 0xFFFFFFFFFFFFFFFFFFFFFFFFFFFFFFFFFFFFFFFF AND DUP2 PUSH20 0xFFFFFFFFFFFFFFFFFFFFFFFFFFFFFFFFFFFFFFFF AND SUB PUSH2 0xDB8 JUMPI PUSH1 0x40 MLOAD PUSH32 0x8C379A000000000000000000000000000000000000000000000000000000000 DUP2 MSTORE PUSH1 0x4 ADD PUSH2 0xDAF SWAP1 PUSH2 0x20E0 JUMP JUMPDEST PUSH1 0x40 MLOAD DUP1 SWAP2 SUB SWAP1 REVERT JUMPDEST DUP1 PUSH1 0x7 PUSH0 PUSH2 0x100 EXP DUP2 SLOAD DUP2 PUSH20 0xFFFFFFFFFFFFFFFFFFFFFFFFFFFFFFFFFFFFFFFF MUL NOT AND SWAP1 DUP4 PUSH20 0xFFFFFFFFFFFFFFFFFFFFFFFFFFFFFFFFFFFFFFFF AND MUL OR SWAP1 SSTORE POP DUP1 PUSH20 0xFFFFFFFFFFFFFFFFFFFFFFFFFFFFFFFFFFFFFFFF AND PUSH1 0x6 PUSH0 SWAP1 SLOAD SWAP1 PUSH2 0x100 EXP SWAP1 DIV PUSH20 0xFFFFFFFFFFFFFFFFFFFFFFFFFFFFFFFFFFFFFFFF AND PUSH20 0xFFFFFFFFFFFFFFFFFFFFFFFFFFFFFFFFFFFFFFFF AND PUSH32 0xED8889F560326EB138920D842192F0EB3DD22B4F139C87A2C57538E05BAE1278 PUSH1 0x40 MLOAD PUSH1 0x40 MLOAD DUP1 SWAP2 SUB SWAP1 LOG3 POP JUMP JUMPDEST PUSH2 0xE7E PUSH2 0x15F8 JUMP JUMPDEST PUSH2 0xE8E DUP6 PUSH1 0x80 ADD MLOAD PUSH2 0x100 PUSH2 0x1011 JUMP JUMPDEST POP DUP4 DUP6 PUSH0 ADD DUP2 DUP2 MSTORE POP POP DUP3 DUP6 PUSH1 0x20 ADD SWAP1 PUSH20 0xFFFFFFFFFFFFFFFFFFFFFFFFFFFFFFFFFFFFFFFF AND SWAP1 DUP2 PUSH20 0xFFFFFFFFFFFFFFFFFFFFFFFFFFFFFFFFFFFFFFFF AND DUP2 MSTORE POP POP DUP2 DUP6 PUSH1 0x40 ADD SWAP1 PUSH28 0xFFFFFFFFFFFFFFFFFFFFFFFFFFFFFFFFFFFFFFFFFFFFFFFFFFFFFFFF NOT AND SWAP1 DUP2 PUSH28 0xFFFFFFFFFFFFFFFFFFFFFFFFFFFFFFFFFFFFFFFFFFFFFFFFFFFFFFFF NOT AND DUP2 MSTORE POP POP DUP5 SWAP1 POP SWAP5 SWAP4 POP POP POP POP JUMP JUMPDEST PUSH2 0xF32 DUP3 PUSH1 0x3 DUP4 MLOAD PUSH2 0x1079 JUMP JUMPDEST PUSH2 0xF45 DUP2 DUP4 PUSH2 0x11FE SWAP1 SWAP2 SWAP1 PUSH4 0xFFFFFFFF AND JUMP JUMPDEST POP POP POP JUMP JUMPDEST PUSH0 DUP1 PUSH1 0x4 SLOAD SWAP1 POP PUSH1 0x1 DUP2 PUSH2 0xF5E SWAP2 SWAP1 PUSH2 0x20FE JUMP JUMPDEST PUSH1 0x4 DUP2 SWAP1 SSTORE POP PUSH0 PUSH4 0x40429946 PUSH1 0xE0 SHL PUSH0 DUP1 DUP8 PUSH0 ADD MLOAD ADDRESS DUP10 PUSH1 0x40 ADD MLOAD DUP8 PUSH1 0x1 DUP13 PUSH1 0x80 ADD MLOAD PUSH0 ADD MLOAD PUSH1 0x40 MLOAD PUSH1 0x24 ADD PUSH2 0xF9B SWAP9 SWAP8 SWAP7 SWAP6 SWAP5 SWAP4 SWAP3 SWAP2 SWAP1 PUSH2 0x21BD JUMP JUMPDEST PUSH1 0x40 MLOAD PUSH1 0x20 DUP2 DUP4 SUB SUB DUP2 MSTORE SWAP1 PUSH1 0x40 MSTORE SWAP1 PUSH28 0xFFFFFFFFFFFFFFFFFFFFFFFFFFFFFFFFFFFFFFFFFFFFFFFFFFFFFFFF NOT AND PUSH1 0x20 DUP3 ADD DUP1 MLOAD PUSH28 0xFFFFFFFFFFFFFFFFFFFFFFFFFFFFFFFFFFFFFFFFFFFFFFFFFFFFFFFF DUP4 DUP2 DUP4 AND OR DUP4 MSTORE POP POP POP POP SWAP1 POP PUSH2 0x1006 DUP7 DUP4 DUP7 DUP5 PUSH2 0x121F JUMP JUMPDEST SWAP3 POP POP POP SWAP4 SWAP3 POP POP POP JUMP JUMPDEST PUSH2 0x1019 PUSH2 0x1661 JUMP JUMPDEST PUSH0 PUSH1 0x20 DUP4 PUSH2 0x1027 SWAP2 SWAP1 PUSH2 0x2240 JUMP JUMPDEST EQ PUSH2 0x1053 JUMPI PUSH1 0x20 DUP3 PUSH2 0x1039 SWAP2 SWAP1 PUSH2 0x2240 JUMP JUMPDEST PUSH1 0x20 PUSH2 0x1045 SWAP2 SWAP1 PUSH2 0x2270 JUMP JUMPDEST DUP3 PUSH2 0x1050 SWAP2 SWAP1 PUSH2 0x20FE JUMP JUMPDEST SWAP2 POP JUMPDEST DUP2 DUP4 PUSH1 0x20 ADD DUP2 DUP2 MSTORE POP POP PUSH1 0x40 MLOAD DUP1 DUP5 MSTORE PUSH0 DUP2 MSTORE DUP3 DUP2 ADD PUSH1 0x20 ADD PUSH1 0x40 MSTORE POP DUP3 SWAP1 POP SWAP3 SWAP2 POP POP JUMP JUMPDEST PUSH1 0x17 DUP2 PUSH8 0xFFFFFFFFFFFFFFFF AND GT PUSH2 0x10B0 JUMPI PUSH2 0x10AA DUP2 PUSH1 0x5 DUP5 PUSH1 0xFF AND SWAP1 SHL PUSH1 0xFF AND OR DUP5 PUSH2 0x13AC SWAP1 SWAP2 SWAP1 PUSH4 0xFFFFFFFF AND JUMP JUMPDEST POP PUSH2 0x11F9 JUMP JUMPDEST PUSH1 0xFF DUP2 PUSH8 0xFFFFFFFFFFFFFFFF AND GT PUSH2 0x1106 JUMPI PUSH2 0x10DF PUSH1 0x18 PUSH1 0x5 DUP5 PUSH1 0xFF AND SWAP1 SHL OR DUP5 PUSH2 0x13AC SWAP1 SWAP2 SWAP1 PUSH4 0xFFFFFFFF AND JUMP JUMPDEST POP PUSH2 0x1100 DUP2 PUSH8 0xFFFFFFFFFFFFFFFF AND PUSH1 0x1 DUP6 PUSH2 0x13CB SWAP1 SWAP3 SWAP2 SWAP1 PUSH4 0xFFFFFFFF AND JUMP JUMPDEST POP PUSH2 0x11F8 JUMP JUMPDEST PUSH2 0xFFFF DUP2 PUSH8 0xFFFFFFFFFFFFFFFF AND GT PUSH2 0x115D JUMPI PUSH2 0x1136 PUSH1 0x19 PUSH1 0x5 DUP5 PUSH1 0xFF AND SWAP1 SHL OR DUP5 PUSH2 0x13AC SWAP1 SWAP2 SWAP1 PUSH4 0xFFFFFFFF AND JUMP JUMPDEST POP PUSH2 0x1157 DUP2 PUSH8 0xFFFFFFFFFFFFFFFF AND PUSH1 0x2 DUP6 PUSH2 0x13CB SWAP1 SWAP3 SWAP2 SWAP1 PUSH4 0xFFFFFFFF AND JUMP JUMPDEST POP PUSH2 0x11F7 JUMP JUMPDEST PUSH4 0xFFFFFFFF DUP2 PUSH8 0xFFFFFFFFFFFFFFFF AND GT PUSH2 0x11B6 JUMPI PUSH2 0x118F PUSH1 0x1A PUSH1 0x5 DUP5 PUSH1 0xFF AND SWAP1 SHL OR DUP5 PUSH2 0x13AC SWAP1 SWAP2 SWAP1 PUSH4 0xFFFFFFFF AND JUMP JUMPDEST POP PUSH2 0x11B0 DUP2 PUSH8 0xFFFFFFFFFFFFFFFF AND PUSH1 0x4 DUP6 PUSH2 0x13CB SWAP1 SWAP3 SWAP2 SWAP1 PUSH4 0xFFFFFFFF AND JUMP JUMPDEST POP PUSH2 0x11F6 JUMP JUMPDEST PUSH2 0x11D3 PUSH1 0x1B PUSH1 0x5 DUP5 PUSH1 0xFF AND SWAP1 SHL OR DUP5 PUSH2 0x13AC SWAP1 SWAP2 SWAP1 PUSH4 0xFFFFFFFF AND JUMP JUMPDEST POP PUSH2 0x11F4 DUP2 PUSH8 0xFFFFFFFFFFFFFFFF AND PUSH1 0x8 DUP6 PUSH2 0x13CB SWAP1 SWAP3 SWAP2 SWAP1 PUSH4 0xFFFFFFFF AND JUMP JUMPDEST POP JUMPDEST JUMPDEST JUMPDEST JUMPDEST POP POP POP JUMP JUMPDEST PUSH2 0x1206 PUSH2 0x1661 JUMP JUMPDEST PUSH2 0x1217 DUP4 DUP5 PUSH0 ADD MLOAD MLOAD DUP5 DUP6 MLOAD PUSH2 0x13EC JUMP JUMPDEST SWAP1 POP SWAP3 SWAP2 POP POP JUMP JUMPDEST PUSH0 ADDRESS DUP5 PUSH1 0x40 MLOAD PUSH1 0x20 ADD PUSH2 0x1233 SWAP3 SWAP2 SWAP1 PUSH2 0x234B JUMP JUMPDEST PUSH1 0x40 MLOAD PUSH1 0x20 DUP2 DUP4 SUB SUB DUP2 MSTORE SWAP1 PUSH1 0x40 MSTORE DUP1 MLOAD SWAP1 PUSH1 0x20 ADD KECCAK256 SWAP1 POP DUP5 PUSH1 0x5 PUSH0 DUP4 DUP2 MSTORE PUSH1 0x20 ADD SWAP1 DUP2 MSTORE PUSH1 0x20 ADD PUSH0 KECCAK256 PUSH0 PUSH2 0x100 EXP DUP2 SLOAD DUP2 PUSH20 0xFFFFFFFFFFFFFFFFFFFFFFFFFFFFFFFFFFFFFFFF MUL NOT AND SWAP1 DUP4 PUSH20 0xFFFFFFFFFFFFFFFFFFFFFFFFFFFFFFFFFFFFFFFF AND MUL OR SWAP1 SSTORE POP DUP1 PUSH32 0xB5E6E01E79F91267DC17B4E6314D5D4D03593D2CEEE0FBB452B750BD70EA5AF9 PUSH1 0x40 MLOAD PUSH1 0x40 MLOAD DUP1 SWAP2 SUB SWAP1 LOG2 PUSH1 0x2 PUSH0 SWAP1 SLOAD SWAP1 PUSH2 0x100 EXP SWAP1 DIV PUSH20 0xFFFFFFFFFFFFFFFFFFFFFFFFFFFFFFFFFFFFFFFF AND PUSH20 0xFFFFFFFFFFFFFFFFFFFFFFFFFFFFFFFFFFFFFFFF AND PUSH4 0x4000AEA0 DUP7 DUP6 DUP6 PUSH1 0x40 MLOAD DUP5 PUSH4 0xFFFFFFFF AND PUSH1 0xE0 SHL DUP2 MSTORE PUSH1 0x4 ADD PUSH2 0x1325 SWAP4 SWAP3 SWAP2 SWAP1 PUSH2 0x2376 JUMP JUMPDEST PUSH1 0x20 PUSH1 0x40 MLOAD DUP1 DUP4 SUB DUP2 PUSH0 DUP8 GAS CALL ISZERO DUP1 ISZERO PUSH2 0x1341 JUMPI RETURNDATASIZE PUSH0 DUP1 RETURNDATACOPY RETURNDATASIZE PUSH0 REVERT JUMPDEST POP POP POP POP PUSH1 0x40 MLOAD RETURNDATASIZE PUSH1 0x1F NOT PUSH1 0x1F DUP3 ADD AND DUP3 ADD DUP1 PUSH1 0x40 MSTORE POP DUP2 ADD SWAP1 PUSH2 0x1365 SWAP2 SWAP1 PUSH2 0x1EDC JUMP JUMPDEST PUSH2 0x13A4 JUMPI PUSH1 0x40 MLOAD PUSH32 0x8C379A000000000000000000000000000000000000000000000000000000000 DUP2 MSTORE PUSH1 0x4 ADD PUSH2 0x139B SWAP1 PUSH2 0x2422 JUMP JUMPDEST PUSH1 0x40 MLOAD DUP1 SWAP2 SUB SWAP1 REVERT JUMPDEST SWAP5 SWAP4 POP POP POP POP JUMP JUMPDEST PUSH2 0x13B4 PUSH2 0x1661 JUMP JUMPDEST PUSH2 0x13C3 DUP4 DUP5 PUSH0 ADD MLOAD MLOAD DUP5 PUSH2 0x14D8 JUMP JUMPDEST SWAP1 POP SWAP3 SWAP2 POP POP JUMP JUMPDEST PUSH2 0x13D3 PUSH2 0x1661 JUMP JUMPDEST PUSH2 0x13E3 DUP5 DUP6 PUSH0 ADD MLOAD MLOAD DUP6 DUP6 PUSH2 0x152E JUMP JUMPDEST SWAP1 POP SWAP4 SWAP3 POP POP POP JUMP JUMPDEST PUSH2 0x13F4 PUSH2 0x1661 JUMP JUMPDEST DUP3 MLOAD DUP3 GT ISZERO PUSH2 0x1401 JUMPI PUSH0 DUP1 REVERT JUMPDEST DUP5 PUSH1 0x20 ADD MLOAD DUP3 DUP6 PUSH2 0x1412 SWAP2 SWAP1 PUSH2 0x20FE JUMP JUMPDEST GT ISZERO PUSH2 0x1447 JUMPI PUSH2 0x1446 DUP6 PUSH1 0x2 PUSH2 0x1437 DUP9 PUSH1 0x20 ADD MLOAD DUP9 DUP8 PUSH2 0x1432 SWAP2 SWAP1 PUSH2 0x20FE JUMP JUMPDEST PUSH2 0x15BB JUMP JUMPDEST PUSH2 0x1441 SWAP2 SWAP1 PUSH2 0x2440 JUMP JUMPDEST PUSH2 0x15D6 JUMP JUMPDEST JUMPDEST PUSH0 DUP1 DUP7 MLOAD DUP1 MLOAD DUP8 PUSH1 0x20 DUP4 ADD ADD SWAP4 POP DUP1 DUP9 DUP8 ADD GT ISZERO PUSH2 0x1465 JUMPI DUP8 DUP7 ADD DUP3 MSTORE JUMPDEST PUSH1 0x20 DUP8 ADD SWAP3 POP POP POP JUMPDEST PUSH1 0x20 DUP5 LT PUSH2 0x14AC JUMPI DUP1 MLOAD DUP3 MSTORE PUSH1 0x20 DUP3 PUSH2 0x1487 SWAP2 SWAP1 PUSH2 0x20FE JUMP JUMPDEST SWAP2 POP PUSH1 0x20 DUP2 PUSH2 0x1496 SWAP2 SWAP1 PUSH2 0x20FE JUMP JUMPDEST SWAP1 POP PUSH1 0x20 DUP5 PUSH2 0x14A5 SWAP2 SWAP1 PUSH2 0x2270 JUMP JUMPDEST SWAP4 POP PUSH2 0x146E JUMP JUMPDEST PUSH0 PUSH1 0x1 DUP6 PUSH1 0x20 SUB PUSH2 0x100 EXP SUB SWAP1 POP DUP1 NOT DUP3 MLOAD AND DUP2 DUP5 MLOAD AND DUP2 DUP2 OR DUP6 MSTORE POP POP POP DUP7 SWAP3 POP POP POP SWAP5 SWAP4 POP POP POP POP JUMP JUMPDEST PUSH2 0x14E0 PUSH2 0x1661 JUMP JUMPDEST DUP4 PUSH1 0x20 ADD MLOAD DUP4 LT PUSH2 0x1506 JUMPI PUSH2 0x1505 DUP5 PUSH1 0x2 DUP7 PUSH1 0x20 ADD MLOAD PUSH2 0x1500 SWAP2 SWAP1 PUSH2 0x2440 JUMP JUMPDEST PUSH2 0x15D6 JUMP JUMPDEST JUMPDEST DUP4 MLOAD DUP1 MLOAD PUSH1 0x20 DUP6 DUP4 ADD ADD DUP5 DUP2 MSTORE8 DUP2 DUP7 SUB PUSH2 0x1521 JUMPI PUSH1 0x1 DUP3 ADD DUP4 MSTORE JUMPDEST POP POP POP DUP4 SWAP1 POP SWAP4 SWAP3 POP POP POP JUMP JUMPDEST PUSH2 0x1536 PUSH2 0x1661 JUMP JUMPDEST DUP5 PUSH1 0x20 ADD MLOAD DUP5 DUP4 PUSH2 0x1547 SWAP2 SWAP1 PUSH2 0x20FE JUMP JUMPDEST GT ISZERO PUSH2 0x156F JUMPI PUSH2 0x156E DUP6 PUSH1 0x2 DUP7 DUP6 PUSH2 0x155F SWAP2 SWAP1 PUSH2 0x20FE JUMP JUMPDEST PUSH2 0x1569 SWAP2 SWAP1 PUSH2 0x2440 JUMP JUMPDEST PUSH2 0x15D6 JUMP JUMPDEST JUMPDEST PUSH0 PUSH1 0x1 DUP4 PUSH2 0x100 PUSH2 0x1580 SWAP2 SWAP1 PUSH2 0x25B0 JUMP JUMPDEST PUSH2 0x158A SWAP2 SWAP1 PUSH2 0x2270 JUMP JUMPDEST SWAP1 POP DUP6 MLOAD DUP4 DUP7 DUP3 ADD ADD DUP6 DUP4 NOT DUP3 MLOAD AND OR DUP2 MSTORE DUP2 MLOAD DUP6 DUP9 ADD GT ISZERO PUSH2 0x15AD JUMPI DUP5 DUP8 ADD DUP3 MSTORE JUMPDEST POP POP DUP6 SWAP2 POP POP SWAP5 SWAP4 POP POP POP POP JUMP JUMPDEST PUSH0 DUP2 DUP4 GT ISZERO PUSH2 0x15CC JUMPI DUP3 SWAP1 POP PUSH2 0x15D0 JUMP JUMPDEST DUP2 SWAP1 POP JUMPDEST SWAP3 SWAP2 POP POP JUMP JUMPDEST PUSH0 DUP3 PUSH0 ADD MLOAD SWAP1 POP PUSH2 0x15E7 DUP4 DUP4 PUSH2 0x1011 JUMP JUMPDEST POP PUSH2 0x15F2 DUP4 DUP3 PUSH2 0x11FE JUMP JUMPDEST POP POP POP POP JUMP JUMPDEST PUSH1 0x40 MLOAD DUP1 PUSH1 0xA0 ADD PUSH1 0x40 MSTORE DUP1 PUSH0 DUP1 NOT AND DUP2 MSTORE PUSH1 0x20 ADD PUSH0 PUSH20 0xFFFFFFFFFFFFFFFFFFFFFFFFFFFFFFFFFFFFFFFF AND DUP2 MSTORE PUSH1 0x20 ADD PUSH0 PUSH28 0xFFFFFFFFFFFFFFFFFFFFFFFFFFFFFFFFFFFFFFFFFFFFFFFFFFFFFFFF NOT AND DUP2 MSTORE PUSH1 0x20 ADD PUSH0 DUP2 MSTORE PUSH1 0x20 ADD PUSH2 0x165B PUSH2 0x1661 JUMP JUMPDEST DUP2 MSTORE POP SWAP1 JUMP JUMPDEST PUSH1 0x40 MLOAD DUP1 PUSH1 0x40 ADD PUSH1 0x40 MSTORE DUP1 PUSH1 0x60 DUP2 MSTORE PUSH1 0x20 ADD PUSH0 DUP2 MSTORE POP SWAP1 JUMP JUMPDEST PUSH0 PUSH1 0x40 MLOAD SWAP1 POP SWAP1 JUMP JUMPDEST PUSH0 DUP1 REVERT JUMPDEST PUSH0 DUP1 REVERT JUMPDEST PUSH0 DUP2 SWAP1 POP SWAP2 SWAP1 POP JUMP JUMPDEST PUSH2 0x169D DUP2 PUSH2 0x168B JUMP JUMPDEST DUP2 EQ PUSH2 0x16A7 JUMPI PUSH0 DUP1 REVERT JUMPDEST POP JUMP JUMPDEST PUSH0 DUP2 CALLDATALOAD SWAP1 POP PUSH2 0x16B8 DUP2 PUSH2 0x1694 JUMP JUMPDEST SWAP3 SWAP2 POP POP JUMP JUMPDEST PUSH0 DUP1 REVERT JUMPDEST PUSH0 DUP1 REVERT JUMPDEST PUSH0 PUSH1 0x1F NOT PUSH1 0x1F DUP4 ADD AND SWAP1 POP SWAP2 SWAP1 POP JUMP JUMPDEST PUSH32 0x4E487B7100000000000000000000000000000000000000000000000000000000 PUSH0 MSTORE PUSH1 0x41 PUSH1 0x4 MSTORE PUSH1 0x24 PUSH0 REVERT JUMPDEST PUSH2 0x170C DUP3 PUSH2 0x16C6 JUMP JUMPDEST DUP2 ADD DUP2 DUP2 LT PUSH8 0xFFFFFFFFFFFFFFFF DUP3 GT OR ISZERO PUSH2 0x172B JUMPI PUSH2 0x172A PUSH2 0x16D6 JUMP JUMPDEST JUMPDEST DUP1 PUSH1 0x40 MSTORE POP POP POP JUMP JUMPDEST PUSH0 PUSH2 0x173D PUSH2 0x167A JUMP JUMPDEST SWAP1 POP PUSH2 0x1749 DUP3 DUP3 PUSH2 0x1703 JUMP JUMPDEST SWAP2 SWAP1 POP JUMP JUMPDEST PUSH0 PUSH8 0xFFFFFFFFFFFFFFFF DUP3 GT ISZERO PUSH2 0x1768 JUMPI PUSH2 0x1767 PUSH2 0x16D6 JUMP JUMPDEST JUMPDEST PUSH2 0x1771 DUP3 PUSH2 0x16C6 JUMP JUMPDEST SWAP1 POP PUSH1 0x20 DUP2 ADD SWAP1 POP SWAP2 SWAP1 POP JUMP JUMPDEST DUP3 DUP2 DUP4 CALLDATACOPY PUSH0 DUP4 DUP4 ADD MSTORE POP POP POP JUMP JUMPDEST PUSH0 PUSH2 0x179E PUSH2 0x1799 DUP5 PUSH2 0x174E JUMP JUMPDEST PUSH2 0x1734 JUMP JUMPDEST SWAP1 POP DUP3 DUP2 MSTORE PUSH1 0x20 DUP2 ADD DUP5 DUP5 DUP5 ADD GT ISZERO PUSH2 0x17BA JUMPI PUSH2 0x17B9 PUSH2 0x16C2 JUMP JUMPDEST JUMPDEST PUSH2 0x17C5 DUP5 DUP3 DUP6 PUSH2 0x177E JUMP JUMPDEST POP SWAP4 SWAP3 POP POP POP JUMP JUMPDEST PUSH0 DUP3 PUSH1 0x1F DUP4 ADD SLT PUSH2 0x17E1 JUMPI PUSH2 0x17E0 PUSH2 0x16BE JUMP JUMPDEST JUMPDEST DUP2 CALLDATALOAD PUSH2 0x17F1 DUP5 DUP3 PUSH1 0x20 DUP7 ADD PUSH2 0x178C JUMP JUMPDEST SWAP2 POP POP SWAP3 SWAP2 POP POP JUMP JUMPDEST PUSH0 DUP1 PUSH1 0x40 DUP4 DUP6 SUB SLT ISZERO PUSH2 0x1810 JUMPI PUSH2 0x180F PUSH2 0x1683 JUMP JUMPDEST JUMPDEST PUSH0 PUSH2 0x181D DUP6 DUP3 DUP7 ADD PUSH2 0x16AA JUMP JUMPDEST SWAP3 POP POP PUSH1 0x20 DUP4 ADD CALLDATALOAD PUSH8 0xFFFFFFFFFFFFFFFF DUP2 GT ISZERO PUSH2 0x183E JUMPI PUSH2 0x183D PUSH2 0x1687 JUMP JUMPDEST JUMPDEST PUSH2 0x184A DUP6 DUP3 DUP7 ADD PUSH2 0x17CD JUMP JUMPDEST SWAP2 POP POP SWAP3 POP SWAP3 SWAP1 POP JUMP JUMPDEST PUSH0 DUP2 SWAP1 POP SWAP2 SWAP1 POP JUMP JUMPDEST PUSH2 0x1866 DUP2 PUSH2 0x1854 JUMP JUMPDEST DUP3 MSTORE POP POP JUMP JUMPDEST PUSH0 PUSH1 0x20 DUP3 ADD SWAP1 POP PUSH2 0x187F PUSH0 DUP4 ADD DUP5 PUSH2 0x185D JUMP JUMPDEST SWAP3 SWAP2 POP POP JUMP JUMPDEST PUSH0 DUP2 MLOAD SWAP1 POP SWAP2 SWAP1 POP JUMP JUMPDEST PUSH0 DUP3 DUP3 MSTORE PUSH1 0x20 DUP3 ADD SWAP1 POP SWAP3 SWAP2 POP POP JUMP JUMPDEST PUSH0 JUMPDEST DUP4 DUP2 LT ISZERO PUSH2 0x18BC JUMPI DUP1 DUP3 ADD MLOAD DUP2 DUP5 ADD MSTORE PUSH1 0x20 DUP2 ADD SWAP1 POP PUSH2 0x18A1 JUMP JUMPDEST PUSH0 DUP5 DUP5 ADD MSTORE POP POP POP POP JUMP JUMPDEST PUSH0 PUSH2 0x18D1 DUP3 PUSH2 0x1885 JUMP JUMPDEST PUSH2 0x18DB DUP2 DUP6 PUSH2 0x188F JUMP JUMPDEST SWAP4 POP PUSH2 0x18EB DUP2 DUP6 PUSH1 0x20 DUP7 ADD PUSH2 0x189F JUMP JUMPDEST PUSH2 0x18F4 DUP2 PUSH2 0x16C6 JUMP JUMPDEST DUP5 ADD SWAP2 POP POP SWAP3 SWAP2 POP POP JUMP JUMPDEST PUSH0 PUSH1 0x20 DUP3 ADD SWAP1 POP DUP2 DUP2 SUB PUSH0 DUP4 ADD MSTORE PUSH2 0x1917 DUP2 DUP5 PUSH2 0x18C7 JUMP JUMPDEST SWAP1 POP SWAP3 SWAP2 POP POP JUMP JUMPDEST PUSH2 0x1928 DUP2 PUSH2 0x168B JUMP JUMPDEST DUP3 MSTORE POP POP JUMP JUMPDEST PUSH0 PUSH1 0x20 DUP3 ADD SWAP1 POP PUSH2 0x1941 PUSH0 DUP4 ADD DUP5 PUSH2 0x191F JUMP JUMPDEST SWAP3 SWAP2 POP POP JUMP JUMPDEST PUSH0 PUSH20 0xFFFFFFFFFFFFFFFFFFFFFFFFFFFFFFFFFFFFFFFF DUP3 AND SWAP1 POP SWAP2 SWAP1 POP JUMP JUMPDEST PUSH0 PUSH2 0x1970 DUP3 PUSH2 0x1947 JUMP JUMPDEST SWAP1 POP SWAP2 SWAP1 POP JUMP JUMPDEST PUSH2 0x1980 DUP2 PUSH2 0x1966 JUMP JUMPDEST DUP3 MSTORE POP POP JUMP JUMPDEST PUSH0 PUSH1 0x20 DUP3 ADD SWAP1 POP PUSH2 0x1999 PUSH0 DUP4 ADD DUP5 PUSH2 0x1977 JUMP JUMPDEST SWAP3 SWAP2 POP POP JUMP JUMPDEST PUSH2 0x19A8 DUP2 PUSH2 0x1966 JUMP JUMPDEST DUP2 EQ PUSH2 0x19B2 JUMPI PUSH0 DUP1 REVERT JUMPDEST POP JUMP JUMPDEST PUSH0 DUP2 CALLDATALOAD SWAP1 POP PUSH2 0x19C3 DUP2 PUSH2 0x199F JUMP JUMPDEST SWAP3 SWAP2 POP POP JUMP JUMPDEST PUSH0 PUSH1 0x20 DUP3 DUP5 SUB SLT ISZERO PUSH2 0x19DE JUMPI PUSH2 0x19DD PUSH2 0x1683 JUMP JUMPDEST JUMPDEST PUSH0 PUSH2 0x19EB DUP5 DUP3 DUP6 ADD PUSH2 0x19B5 JUMP JUMPDEST SWAP2 POP POP SWAP3 SWAP2 POP POP JUMP JUMPDEST PUSH2 0x19FD DUP2 PUSH2 0x1854 JUMP JUMPDEST DUP2 EQ PUSH2 0x1A07 JUMPI PUSH0 DUP1 REVERT JUMPDEST POP JUMP JUMPDEST PUSH0 DUP2 CALLDATALOAD SWAP1 POP PUSH2 0x1A18 DUP2 PUSH2 0x19F4 JUMP JUMPDEST SWAP3 SWAP2 POP POP JUMP JUMPDEST PUSH0 DUP1 PUSH0 DUP1 PUSH1 0x80 DUP6 DUP8 SUB SLT ISZERO PUSH2 0x1A36 JUMPI PUSH2 0x1A35 PUSH2 0x1683 JUMP JUMPDEST JUMPDEST PUSH0 PUSH2 0x1A43 DUP8 DUP3 DUP9 ADD PUSH2 0x16AA JUMP JUMPDEST SWAP5 POP POP PUSH1 0x20 PUSH2 0x1A54 DUP8 DUP3 DUP9 ADD PUSH2 0x1A0A JUMP JUMPDEST SWAP4 POP POP PUSH1 0x40 PUSH2 0x1A65 DUP8 DUP3 DUP9 ADD PUSH2 0x1A0A JUMP JUMPDEST SWAP3 POP POP PUSH1 0x60 PUSH2 0x1A76 DUP8 DUP3 DUP9 ADD PUSH2 0x1A0A JUMP JUMPDEST SWAP2 POP POP SWAP3 SWAP6 SWAP2 SWAP5 POP SWAP3 POP JUMP JUMPDEST PUSH32 0x536F75726365206D75737420626520746865206F7261636C65206F6620746865 PUSH0 DUP3 ADD MSTORE PUSH32 0x2072657175657374000000000000000000000000000000000000000000000000 PUSH1 0x20 DUP3 ADD MSTORE POP JUMP JUMPDEST PUSH0 PUSH2 0x1ADC PUSH1 0x28 DUP4 PUSH2 0x188F JUMP JUMPDEST SWAP2 POP PUSH2 0x1AE7 DUP3 PUSH2 0x1A82 JUMP JUMPDEST PUSH1 0x40 DUP3 ADD SWAP1 POP SWAP2 SWAP1 POP JUMP JUMPDEST PUSH0 PUSH1 0x20 DUP3 ADD SWAP1 POP DUP2 DUP2 SUB PUSH0 DUP4 ADD MSTORE PUSH2 0x1B09 DUP2 PUSH2 0x1AD0 JUMP JUMPDEST SWAP1 POP SWAP2 SWAP1 POP JUMP JUMPDEST PUSH32 0x4E487B7100000000000000000000000000000000000000000000000000000000 PUSH0 MSTORE PUSH1 0x22 PUSH1 0x4 MSTORE PUSH1 0x24 PUSH0 REVERT JUMPDEST PUSH0 PUSH1 0x2 DUP3 DIV SWAP1 POP PUSH1 0x1 DUP3 AND DUP1 PUSH2 0x1B54 JUMPI PUSH1 0x7F DUP3 AND SWAP2 POP JUMPDEST PUSH1 0x20 DUP3 LT DUP2 SUB PUSH2 0x1B67 JUMPI PUSH2 0x1B66 PUSH2 0x1B10 JUMP JUMPDEST JUMPDEST POP SWAP2 SWAP1 POP JUMP JUMPDEST PUSH0 DUP2 SWAP1 POP DUP2 PUSH0 MSTORE PUSH1 0x20 PUSH0 KECCAK256 SWAP1 POP SWAP2 SWAP1 POP JUMP JUMPDEST PUSH0 PUSH1 0x20 PUSH1 0x1F DUP4 ADD DIV SWAP1 POP SWAP2 SWAP1 POP JUMP JUMPDEST PUSH0 DUP3 DUP3 SHL SWAP1 POP SWAP3 SWAP2 POP POP JUMP JUMPDEST PUSH0 PUSH1 0x8 DUP4 MUL PUSH2 0x1BC9 PUSH32 0xFFFFFFFFFFFFFFFFFFFFFFFFFFFFFFFFFFFFFFFFFFFFFFFFFFFFFFFFFFFFFFFF DUP3 PUSH2 0x1B8E JUMP JUMPDEST PUSH2 0x1BD3 DUP7 DUP4 PUSH2 0x1B8E JUMP JUMPDEST SWAP6 POP DUP1 NOT DUP5 AND SWAP4 POP DUP1 DUP7 AND DUP5 OR SWAP3 POP POP POP SWAP4 SWAP3 POP POP POP JUMP JUMPDEST PUSH0 DUP2 SWAP1 POP SWAP2 SWAP1 POP JUMP JUMPDEST PUSH0 PUSH2 0x1C0E PUSH2 0x1C09 PUSH2 0x1C04 DUP5 PUSH2 0x1854 JUMP JUMPDEST PUSH2 0x1BEB JUMP JUMPDEST PUSH2 0x1854 JUMP JUMPDEST SWAP1 POP SWAP2 SWAP1 POP JUMP JUMPDEST PUSH0 DUP2 SWAP1 POP SWAP2 SWAP1 POP JUMP JUMPDEST PUSH2 0x1C27 DUP4 PUSH2 0x1BF4 JUMP JUMPDEST PUSH2 0x1C3B PUSH2 0x1C33 DUP3 PUSH2 0x1C15 JUMP JUMPDEST DUP5 DUP5 SLOAD PUSH2 0x1B9A JUMP JUMPDEST DUP3 SSTORE POP POP POP POP JUMP JUMPDEST PUSH0 SWAP1 JUMP JUMPDEST PUSH2 0x1C4F PUSH2 0x1C43 JUMP JUMPDEST PUSH2 0x1C5A DUP2 DUP5 DUP5 PUSH2 0x1C1E JUMP JUMPDEST POP POP POP JUMP JUMPDEST JUMPDEST DUP2 DUP2 LT ISZERO PUSH2 0x1C7D JUMPI PUSH2 0x1C72 PUSH0 DUP3 PUSH2 0x1C47 JUMP JUMPDEST PUSH1 0x1 DUP2 ADD SWAP1 POP PUSH2 0x1C60 JUMP JUMPDEST POP POP JUMP JUMPDEST PUSH1 0x1F DUP3 GT ISZERO PUSH2 0x1CC2 JUMPI PUSH2 0x1C93 DUP2 PUSH2 0x1B6D JUMP JUMPDEST PUSH2 0x1C9C DUP5 PUSH2 0x1B7F JUMP JUMPDEST DUP2 ADD PUSH1 0x20 DUP6 LT ISZERO PUSH2 0x1CAB JUMPI DUP2 SWAP1 POP JUMPDEST PUSH2 0x1CBF PUSH2 0x1CB7 DUP6 PUSH2 0x1B7F JUMP JUMPDEST DUP4 ADD DUP3 PUSH2 0x1C5F JUMP JUMPDEST POP POP JUMPDEST POP POP POP JUMP JUMPDEST PUSH0 DUP3 DUP3 SHR SWAP1 POP SWAP3 SWAP2 POP POP JUMP JUMPDEST PUSH0 PUSH2 0x1CE2 PUSH0 NOT DUP5 PUSH1 0x8 MUL PUSH2 0x1CC7 JUMP JUMPDEST NOT DUP1 DUP4 AND SWAP2 POP POP SWAP3 SWAP2 POP POP JUMP JUMPDEST PUSH0 PUSH2 0x1CFA DUP4 DUP4 PUSH2 0x1CD3 JUMP JUMPDEST SWAP2 POP DUP3 PUSH1 0x2 MUL DUP3 OR SWAP1 POP SWAP3 SWAP2 POP POP JUMP JUMPDEST PUSH2 0x1D13 DUP3 PUSH2 0x1885 JUMP JUMPDEST PUSH8 0xFFFFFFFFFFFFFFFF DUP2 GT ISZERO PUSH2 0x1D2C JUMPI PUSH2 0x1D2B PUSH2 0x16D6 JUMP JUMPDEST JUMPDEST PUSH2 0x1D36 DUP3 SLOAD PUSH2 0x1B3D JUMP JUMPDEST PUSH2 0x1D41 DUP3 DUP3 DUP6 PUSH2 0x1C81 JUMP JUMPDEST PUSH0 PUSH1 0x20 SWAP1 POP PUSH1 0x1F DUP4 GT PUSH1 0x1 DUP2 EQ PUSH2 0x1D72 JUMPI PUSH0 DUP5 ISZERO PUSH2 0x1D60 JUMPI DUP3 DUP8 ADD MLOAD SWAP1 POP JUMPDEST PUSH2 0x1D6A DUP6 DUP3 PUSH2 0x1CEF JUMP JUMPDEST DUP7 SSTORE POP PUSH2 0x1DD1 JUMP JUMPDEST PUSH1 0x1F NOT DUP5 AND PUSH2 0x1D80 DUP7 PUSH2 0x1B6D JUMP JUMPDEST PUSH0 JUMPDEST DUP3 DUP2 LT ISZERO PUSH2 0x1DA7 JUMPI DUP5 DUP10 ADD MLOAD DUP3 SSTORE PUSH1 0x1 DUP3 ADD SWAP2 POP PUSH1 0x20 DUP6 ADD SWAP5 POP PUSH1 0x20 DUP2 ADD SWAP1 POP PUSH2 0x1D82 JUMP JUMPDEST DUP7 DUP4 LT ISZERO PUSH2 0x1DC4 JUMPI DUP5 DUP10 ADD MLOAD PUSH2 0x1DC0 PUSH1 0x1F DUP10 AND DUP3 PUSH2 0x1CD3 JUMP JUMPDEST DUP4 SSTORE POP JUMPDEST PUSH1 0x1 PUSH1 0x2 DUP9 MUL ADD DUP9 SSTORE POP POP POP JUMPDEST POP POP POP POP POP POP JUMP JUMPDEST PUSH32 0x4D7573742062652070726F706F736564206F776E657200000000000000000000 PUSH0 DUP3 ADD MSTORE POP JUMP JUMPDEST PUSH0 PUSH2 0x1E0D PUSH1 0x16 DUP4 PUSH2 0x188F JUMP JUMPDEST SWAP2 POP PUSH2 0x1E18 DUP3 PUSH2 0x1DD9 JUMP JUMPDEST PUSH1 0x20 DUP3 ADD SWAP1 POP SWAP2 SWAP1 POP JUMP JUMPDEST PUSH0 PUSH1 0x20 DUP3 ADD SWAP1 POP DUP2 DUP2 SUB PUSH0 DUP4 ADD MSTORE PUSH2 0x1E3A DUP2 PUSH2 0x1E01 JUMP JUMPDEST SWAP1 POP SWAP2 SWAP1 POP JUMP JUMPDEST PUSH0 DUP2 MLOAD SWAP1 POP PUSH2 0x1E4F DUP2 PUSH2 0x19F4 JUMP JUMPDEST SWAP3 SWAP2 POP POP JUMP JUMPDEST PUSH0 PUSH1 0x20 DUP3 DUP5 SUB SLT ISZERO PUSH2 0x1E6A JUMPI PUSH2 0x1E69 PUSH2 0x1683 JUMP JUMPDEST JUMPDEST PUSH0 PUSH2 0x1E77 DUP5 DUP3 DUP6 ADD PUSH2 0x1E41 JUMP JUMPDEST SWAP2 POP POP SWAP3 SWAP2 POP POP JUMP JUMPDEST PUSH0 PUSH1 0x40 DUP3 ADD SWAP1 POP PUSH2 0x1E93 PUSH0 DUP4 ADD DUP6 PUSH2 0x1977 JUMP JUMPDEST PUSH2 0x1EA0 PUSH1 0x20 DUP4 ADD DUP5 PUSH2 0x185D JUMP JUMPDEST SWAP4 SWAP3 POP POP POP JUMP JUMPDEST PUSH0 DUP2 ISZERO ISZERO SWAP1 POP SWAP2 SWAP1 POP JUMP JUMPDEST PUSH2 0x1EBB DUP2 PUSH2 0x1EA7 JUMP JUMPDEST DUP2 EQ PUSH2 0x1EC5 JUMPI PUSH0 DUP1 REVERT JUMPDEST POP JUMP JUMPDEST PUSH0 DUP2 MLOAD SWAP1 POP PUSH2 0x1ED6 DUP2 PUSH2 0x1EB2 JUMP JUMPDEST SWAP3 SWAP2 POP POP JUMP JUMPDEST PUSH0 PUSH1 0x20 DUP3 DUP5 SUB SLT ISZERO PUSH2 0x1EF1 JUMPI PUSH2 0x1EF0 PUSH2 0x1683 JUMP JUMPDEST JUMPDEST PUSH0 PUSH2 0x1EFE DUP5 DUP3 DUP6 ADD PUSH2 0x1EC8 JUMP JUMPDEST SWAP2 POP POP SWAP3 SWAP2 POP POP JUMP JUMPDEST PUSH32 0x556E61626C6520746F207472616E736665720000000000000000000000000000 PUSH0 DUP3 ADD MSTORE POP JUMP JUMPDEST PUSH0 PUSH2 0x1F3B PUSH1 0x12 DUP4 PUSH2 0x188F JUMP JUMPDEST SWAP2 POP PUSH2 0x1F46 DUP3 PUSH2 0x1F07 JUMP JUMPDEST PUSH1 0x20 DUP3 ADD SWAP1 POP SWAP2 SWAP1 POP JUMP JUMPDEST PUSH0 PUSH1 0x20 DUP3 ADD SWAP1 POP DUP2 DUP2 SUB PUSH0 DUP4 ADD MSTORE PUSH2 0x1F68 DUP2 PUSH2 0x1F2F JUMP JUMPDEST SWAP1 POP SWAP2 SWAP1 POP JUMP JUMPDEST PUSH0 PUSH1 0x60 DUP3 ADD SWAP1 POP PUSH2 0x1F82 PUSH0 DUP4 ADD DUP7 PUSH2 0x185D JUMP JUMPDEST PUSH2 0x1F8F PUSH1 0x20 DUP4 ADD DUP6 PUSH2 0x185D JUMP JUMPDEST PUSH2 0x1F9C PUSH1 0x40 DUP4 ADD DUP5 PUSH2 0x185D JUMP JUMPDEST SWAP5 SWAP4 POP POP POP POP JUMP JUMPDEST PUSH32 0x4E487B7100000000000000000000000000000000000000000000000000000000 PUSH0 MSTORE PUSH1 0x12 PUSH1 0x4 MSTORE PUSH1 0x24 PUSH0 REVERT JUMPDEST PUSH32 0x4E487B7100000000000000000000000000000000000000000000000000000000 PUSH0 MSTORE PUSH1 0x11 PUSH1 0x4 MSTORE PUSH1 0x24 PUSH0 REVERT JUMPDEST PUSH0 PUSH2 0x2008 DUP3 PUSH2 0x1854 JUMP JUMPDEST SWAP2 POP PUSH2 0x2013 DUP4 PUSH2 0x1854 JUMP JUMPDEST SWAP3 POP DUP3 PUSH2 0x2023 JUMPI PUSH2 0x2022 PUSH2 0x1FA4 JUMP JUMPDEST JUMPDEST DUP3 DUP3 DIV SWAP1 POP SWAP3 SWAP2 POP POP JUMP JUMPDEST PUSH32 0x4F6E6C792063616C6C61626C65206279206F776E657200000000000000000000 PUSH0 DUP3 ADD MSTORE POP JUMP JUMPDEST PUSH0 PUSH2 0x2062 PUSH1 0x16 DUP4 PUSH2 0x188F JUMP JUMPDEST SWAP2 POP PUSH2 0x206D DUP3 PUSH2 0x202E JUMP JUMPDEST PUSH1 0x20 DUP3 ADD SWAP1 POP SWAP2 SWAP1 POP JUMP JUMPDEST PUSH0 PUSH1 0x20 DUP3 ADD SWAP1 POP DUP2 DUP2 SUB PUSH0 DUP4 ADD MSTORE PUSH2 0x208F DUP2 PUSH2 0x2056 JUMP JUMPDEST SWAP1 POP SWAP2 SWAP1 POP JUMP JUMPDEST PUSH32 0x43616E6E6F74207472616E7366657220746F2073656C66000000000000000000 PUSH0 DUP3 ADD MSTORE POP JUMP JUMPDEST PUSH0 PUSH2 0x20CA PUSH1 0x17 DUP4 PUSH2 0x188F JUMP JUMPDEST SWAP2 POP PUSH2 0x20D5 DUP3 PUSH2 0x2096 JUMP JUMPDEST PUSH1 0x20 DUP3 ADD SWAP1 POP SWAP2 SWAP1 POP JUMP JUMPDEST PUSH0 PUSH1 0x20 DUP3 ADD SWAP1 POP DUP2 DUP2 SUB PUSH0 DUP4 ADD MSTORE PUSH2 0x20F7 DUP2 PUSH2 0x20BE JUMP JUMPDEST SWAP1 POP SWAP2 SWAP1 POP JUMP JUMPDEST PUSH0 PUSH2 0x2108 DUP3 PUSH2 0x1854 JUMP JUMPDEST SWAP2 POP PUSH2 0x2113 DUP4 PUSH2 0x1854 JUMP JUMPDEST SWAP3 POP DUP3 DUP3 ADD SWAP1 POP DUP1 DUP3 GT ISZERO PUSH2 0x212B JUMPI PUSH2 0x212A PUSH2 0x1FD1 JUMP JUMPDEST JUMPDEST SWAP3 SWAP2 POP POP JUMP JUMPDEST PUSH0 PUSH32 0xFFFFFFFF00000000000000000000000000000000000000000000000000000000 DUP3 AND SWAP1 POP SWAP2 SWAP1 POP JUMP JUMPDEST PUSH2 0x2165 DUP2 PUSH2 0x2131 JUMP JUMPDEST DUP3 MSTORE POP POP JUMP JUMPDEST PUSH0 DUP2 MLOAD SWAP1 POP SWAP2 SWAP1 POP JUMP JUMPDEST PUSH0 DUP3 DUP3 MSTORE PUSH1 0x20 DUP3 ADD SWAP1 POP SWAP3 SWAP2 POP POP JUMP JUMPDEST PUSH0 PUSH2 0x218F DUP3 PUSH2 0x216B JUMP JUMPDEST PUSH2 0x2199 DUP2 DUP6 PUSH2 0x2175 JUMP JUMPDEST SWAP4 POP PUSH2 0x21A9 DUP2 DUP6 PUSH1 0x20 DUP7 ADD PUSH2 0x189F JUMP JUMPDEST PUSH2 0x21B2 DUP2 PUSH2 0x16C6 JUMP JUMPDEST DUP5 ADD SWAP2 POP POP SWAP3 SWAP2 POP POP JUMP JUMPDEST PUSH0 PUSH2 0x100 DUP3 ADD SWAP1 POP PUSH2 0x21D1 PUSH0 DUP4 ADD DUP12 PUSH2 0x1977 JUMP JUMPDEST PUSH2 0x21DE PUSH1 0x20 DUP4 ADD DUP11 PUSH2 0x185D JUMP JUMPDEST PUSH2 0x21EB PUSH1 0x40 DUP4 ADD DUP10 PUSH2 0x191F JUMP JUMPDEST PUSH2 0x21F8 PUSH1 0x60 DUP4 ADD DUP9 PUSH2 0x1977 JUMP JUMPDEST PUSH2 0x2205 PUSH1 0x80 DUP4 ADD DUP8 PUSH2 0x215C JUMP JUMPDEST PUSH2 0x2212 PUSH1 0xA0 DUP4 ADD DUP7 PUSH2 0x185D JUMP JUMPDEST PUSH2 0x221F PUSH1 0xC0 DUP4 ADD DUP6 PUSH2 0x185D JUMP JUMPDEST DUP2 DUP2 SUB PUSH1 0xE0 DUP4 ADD MSTORE PUSH2 0x2231 DUP2 DUP5 PUSH2 0x2185 JUMP JUMPDEST SWAP1 POP SWAP10 SWAP9 POP POP POP POP POP POP POP POP POP JUMP JUMPDEST PUSH0 PUSH2 0x224A DUP3 PUSH2 0x1854 JUMP JUMPDEST SWAP2 POP PUSH2 0x2255 DUP4 PUSH2 0x1854 JUMP JUMPDEST SWAP3 POP DUP3 PUSH2 0x2265 JUMPI PUSH2 0x2264 PUSH2 0x1FA4 JUMP JUMPDEST JUMPDEST DUP3 DUP3 MOD SWAP1 POP SWAP3 SWAP2 POP POP JUMP JUMPDEST PUSH0 PUSH2 0x227A DUP3 PUSH2 0x1854 JUMP JUMPDEST SWAP2 POP PUSH2 0x2285 DUP4 PUSH2 0x1854 JUMP JUMPDEST SWAP3 POP DUP3 DUP3 SUB SWAP1 POP DUP2 DUP2 GT ISZERO PUSH2 0x229D JUMPI PUSH2 0x229C PUSH2 0x1FD1 JUMP JUMPDEST JUMPDEST SWAP3 SWAP2 POP POP JUMP JUMPDEST PUSH0 PUSH2 0x22BD PUSH2 0x22B8 PUSH2 0x22B3 DUP5 PUSH2 0x1947 JUMP JUMPDEST PUSH2 0x1BEB JUMP JUMPDEST PUSH2 0x1947 JUMP JUMPDEST SWAP1 POP SWAP2 SWAP1 POP JUMP JUMPDEST PUSH0 PUSH2 0x22CE DUP3 PUSH2 0x22A3 JUMP JUMPDEST SWAP1 POP SWAP2 SWAP1 POP JUMP JUMPDEST PUSH0 PUSH2 0x22DF DUP3 PUSH2 0x22C4 JUMP JUMPDEST SWAP1 POP SWAP2 SWAP1 POP JUMP JUMPDEST PUSH0 DUP2 PUSH1 0x60 SHL SWAP1 POP SWAP2 SWAP1 POP JUMP JUMPDEST PUSH0 PUSH2 0x22FC DUP3 PUSH2 0x22E6 JUMP JUMPDEST SWAP1 POP SWAP2 SWAP1 POP JUMP JUMPDEST PUSH0 PUSH2 0x230D DUP3 PUSH2 0x22F2 JUMP JUMPDEST SWAP1 POP SWAP2 SWAP1 POP JUMP JUMPDEST PUSH2 0x2325 PUSH2 0x2320 DUP3 PUSH2 0x22D5 JUMP JUMPDEST PUSH2 0x2303 JUMP JUMPDEST DUP3 MSTORE POP POP JUMP JUMPDEST PUSH0 DUP2 SWAP1 POP SWAP2 SWAP1 POP JUMP JUMPDEST PUSH2 0x2345 PUSH2 0x2340 DUP3 PUSH2 0x1854 JUMP JUMPDEST PUSH2 0x232B JUMP JUMPDEST DUP3 MSTORE POP POP JUMP JUMPDEST PUSH0 PUSH2 0x2356 DUP3 DUP6 PUSH2 0x2314 JUMP JUMPDEST PUSH1 0x14 DUP3 ADD SWAP2 POP PUSH2 0x2366 DUP3 DUP5 PUSH2 0x2334 JUMP JUMPDEST PUSH1 0x20 DUP3 ADD SWAP2 POP DUP2 SWAP1 POP SWAP4 SWAP3 POP POP POP JUMP JUMPDEST PUSH0 PUSH1 0x60 DUP3 ADD SWAP1 POP PUSH2 0x2389 PUSH0 DUP4 ADD DUP7 PUSH2 0x1977 JUMP JUMPDEST PUSH2 0x2396 PUSH1 0x20 DUP4 ADD DUP6 PUSH2 0x185D JUMP JUMPDEST DUP2 DUP2 SUB PUSH1 0x40 DUP4 ADD MSTORE PUSH2 0x23A8 DUP2 DUP5 PUSH2 0x2185 JUMP JUMPDEST SWAP1 POP SWAP5 SWAP4 POP POP POP POP JUMP JUMPDEST PUSH32 0x756E61626C6520746F207472616E73666572416E6443616C6C20746F206F7261 PUSH0 DUP3 ADD MSTORE PUSH32 0x636C650000000000000000000000000000000000000000000000000000000000 PUSH1 0x20 DUP3 ADD MSTORE POP JUMP JUMPDEST PUSH0 PUSH2 0x240C PUSH1 0x23 DUP4 PUSH2 0x188F JUMP JUMPDEST SWAP2 POP PUSH2 0x2417 DUP3 PUSH2 0x23B2 JUMP JUMPDEST PUSH1 0x40 DUP3 ADD SWAP1 POP SWAP2 SWAP1 POP JUMP JUMPDEST PUSH0 PUSH1 0x20 DUP3 ADD SWAP1 POP DUP2 DUP2 SUB PUSH0 DUP4 ADD MSTORE PUSH2 0x2439 DUP2 PUSH2 0x2400 JUMP JUMPDEST SWAP1 POP SWAP2 SWAP1 POP JUMP JUMPDEST PUSH0 PUSH2 0x244A DUP3 PUSH2 0x1854 JUMP JUMPDEST SWAP2 POP PUSH2 0x2455 DUP4 PUSH2 0x1854 JUMP JUMPDEST SWAP3 POP DUP3 DUP3 MUL PUSH2 0x2463 DUP2 PUSH2 0x1854 JUMP JUMPDEST SWAP2 POP DUP3 DUP3 DIV DUP5 EQ DUP4 ISZERO OR PUSH2 0x247A JUMPI PUSH2 0x2479 PUSH2 0x1FD1 JUMP JUMPDEST JUMPDEST POP SWAP3 SWAP2 POP POP JUMP JUMPDEST PUSH0 DUP2 PUSH1 0x1 SHR SWAP1 POP SWAP2 SWAP1 POP JUMP JUMPDEST PUSH0 DUP1 DUP3 SWAP2 POP DUP4 SWAP1 POP JUMPDEST PUSH1 0x1 DUP6 GT ISZERO PUSH2 0x24D6 JUMPI DUP1 DUP7 DIV DUP2 GT ISZERO PUSH2 0x24B2 JUMPI PUSH2 0x24B1 PUSH2 0x1FD1 JUMP JUMPDEST JUMPDEST PUSH1 0x1 DUP6 AND ISZERO PUSH2 0x24C1 JUMPI DUP1 DUP3 MUL SWAP2 POP JUMPDEST DUP1 DUP2 MUL SWAP1 POP PUSH2 0x24CF DUP6 PUSH2 0x2481 JUMP JUMPDEST SWAP5 POP PUSH2 0x2496 JUMP JUMPDEST SWAP5 POP SWAP5 SWAP3 POP POP POP JUMP JUMPDEST PUSH0 DUP3 PUSH2 0x24EE JUMPI PUSH1 0x1 SWAP1 POP PUSH2 0x25A9 JUMP JUMPDEST DUP2 PUSH2 0x24FB JUMPI PUSH0 SWAP1 POP PUSH2 0x25A9 JUMP JUMPDEST DUP2 PUSH1 0x1 DUP2 EQ PUSH2 0x2511 JUMPI PUSH1 0x2 DUP2 EQ PUSH2 0x251B JUMPI PUSH2 0x254A JUMP JUMPDEST PUSH1 0x1 SWAP2 POP POP PUSH2 0x25A9 JUMP JUMPDEST PUSH1 0xFF DUP5 GT ISZERO PUSH2 0x252D JUMPI PUSH2 0x252C PUSH2 0x1FD1 JUMP JUMPDEST JUMPDEST DUP4 PUSH1 0x2 EXP SWAP2 POP DUP5 DUP3 GT ISZERO PUSH2 0x2544 JUMPI PUSH2 0x2543 PUSH2 0x1FD1 JUMP JUMPDEST JUMPDEST POP PUSH2 0x25A9 JUMP JUMPDEST POP PUSH1 0x20 DUP4 LT PUSH2 0x133 DUP4 LT AND PUSH1 0x4E DUP5 LT PUSH1 0xB DUP5 LT AND OR ISZERO PUSH2 0x257F JUMPI DUP3 DUP3 EXP SWAP1 POP DUP4 DUP2 GT ISZERO PUSH2 0x257A JUMPI PUSH2 0x2579 PUSH2 0x1FD1 JUMP JUMPDEST JUMPDEST PUSH2 0x25A9 JUMP JUMPDEST PUSH2 0x258C DUP5 DUP5 DUP5 PUSH1 0x1 PUSH2 0x248D JUMP JUMPDEST SWAP3 POP SWAP1 POP DUP2 DUP5 DIV DUP2 GT ISZERO PUSH2 0x25A3 JUMPI PUSH2 0x25A2 PUSH2 0x1FD1 JUMP JUMPDEST JUMPDEST DUP2 DUP2 MUL SWAP1 POP JUMPDEST SWAP4 SWAP3 POP POP POP JUMP JUMPDEST PUSH0 PUSH2 0x25BA DUP3 PUSH2 0x1854 JUMP JUMPDEST SWAP2 POP PUSH2 0x25C5 DUP4 PUSH2 0x1854 JUMP JUMPDEST SWAP3 POP PUSH2 0x25F2 PUSH32 0xFFFFFFFFFFFFFFFFFFFFFFFFFFFFFFFFFFFFFFFFFFFFFFFFFFFFFFFFFFFFFFFF DUP5 DUP5 PUSH2 0x24DF JUMP JUMPDEST SWAP1 POP SWAP3 SWAP2 POP POP JUMP INVALID PUSH9 0x747470733A2F2F6765 PUSH15 0x69656261636B626F6E652E617A7572 PUSH6 0x776562736974 PUSH6 0x732E6E65742F PUSH2 0x7069 0x2F PUSH17 0x726F706572746965732F64656D6FA26469 PUSH17 0x66735822122049B6A5BE861B15F938FCE9 0xF8 0x4E ADD MSTORE TIMESTAMP 0x49 0xA9 SHR RETURNDATASIZE STATICCALL SWAP16 0xAE 0xCE SUB 0xEB 0xE7 SWAP5 0xEF 0xB1 PUSH17 0x1964736F6C634300081400330000000000 "
				},
				"gasEstimates": {
					"creation": {
						"codeDepositCost": "1967000",
						"executionCost": "infinite",
						"totalCost": "infinite"
					},
					"external": {
						"acceptOwnership()": "54644",
						"fulfill(bytes32,string)": "infinite",
						"fulfillMultipleParameters(bytes32,uint256,uint256,uint256)": "infinite",
						"location()": "infinite",
						"lotSize()": "2448",
						"owner()": "2515",
						"requestMultipleParameters()": "infinite",
						"requestVolumeData()": "infinite",
						"taxAssessedValue()": "2491",
						"totalPrice()": "2469",
						"transferOwnership(address)": "30739",
						"withdrawLink()": "infinite"
					}
				},
				"methodIdentifiers": {
					"acceptOwnership()": "79ba5097",
					"fulfill(bytes32,string)": "37441996",
					"fulfillMultipleParameters(bytes32,uint256,uint256,uint256)": "fda4417b",
					"location()": "516f279e",
					"lotSize()": "4942f65f",
					"owner()": "8da5cb5b",
					"requestMultipleParameters()": "4a3afb47",
					"requestVolumeData()": "6021abac",
					"taxAssessedValue()": "b252c8f2",
					"totalPrice()": "ab0d92dd",
					"transferOwnership(address)": "f2fde38b",
					"withdrawLink()": "8dc654a2"
				}
			},
			"storageLayout": {
				"storage": [
					{
						"astId": 325,
						"contract": "PropertyData.sol:getPropertyDetails",
						"label": "s_ens",
						"offset": 0,
						"slot": "0",
						"type": "t_contract(ENSInterface)982"
					},
					{
						"astId": 327,
						"contract": "PropertyData.sol:getPropertyDetails",
						"label": "s_ensNode",
						"offset": 0,
						"slot": "1",
						"type": "t_bytes32"
					},
					{
						"astId": 330,
						"contract": "PropertyData.sol:getPropertyDetails",
						"label": "s_link",
						"offset": 0,
						"slot": "2",
						"type": "t_contract(LinkTokenInterface)1382"
					},
					{
						"astId": 333,
						"contract": "PropertyData.sol:getPropertyDetails",
						"label": "s_oracle",
						"offset": 0,
						"slot": "3",
						"type": "t_contract(OperatorInterface)1047"
					},
					{
						"astId": 336,
						"contract": "PropertyData.sol:getPropertyDetails",
						"label": "s_requestCount",
						"offset": 0,
						"slot": "4",
						"type": "t_uint256"
					},
					{
						"astId": 340,
						"contract": "PropertyData.sol:getPropertyDetails",
						"label": "s_pendingRequests",
						"offset": 0,
						"slot": "5",
						"type": "t_mapping(t_bytes32,t_address)"
					},
					{
						"astId": 1117,
						"contract": "PropertyData.sol:getPropertyDetails",
						"label": "s_owner",
						"offset": 0,
						"slot": "6",
						"type": "t_address"
					},
					{
						"astId": 1119,
						"contract": "PropertyData.sol:getPropertyDetails",
						"label": "s_pendingOwner",
						"offset": 0,
						"slot": "7",
						"type": "t_address"
					},
					{
						"astId": 2381,
						"contract": "PropertyData.sol:getPropertyDetails",
						"label": "jobId1",
						"offset": 0,
						"slot": "8",
						"type": "t_bytes32"
					},
					{
						"astId": 2383,
						"contract": "PropertyData.sol:getPropertyDetails",
						"label": "jobId2",
						"offset": 0,
						"slot": "9",
						"type": "t_bytes32"
					},
					{
						"astId": 2385,
						"contract": "PropertyData.sol:getPropertyDetails",
						"label": "fee",
						"offset": 0,
						"slot": "10",
						"type": "t_uint256"
					},
					{
						"astId": 2387,
						"contract": "PropertyData.sol:getPropertyDetails",
						"label": "lotSize",
						"offset": 0,
						"slot": "11",
						"type": "t_uint256"
					},
					{
						"astId": 2389,
						"contract": "PropertyData.sol:getPropertyDetails",
						"label": "totalPrice",
						"offset": 0,
						"slot": "12",
						"type": "t_uint256"
					},
					{
						"astId": 2391,
						"contract": "PropertyData.sol:getPropertyDetails",
						"label": "taxAssessedValue",
						"offset": 0,
						"slot": "13",
						"type": "t_uint256"
					},
					{
						"astId": 2393,
						"contract": "PropertyData.sol:getPropertyDetails",
						"label": "location",
						"offset": 0,
						"slot": "14",
						"type": "t_string_storage"
					}
				],
				"types": {
					"t_address": {
						"encoding": "inplace",
						"label": "address",
						"numberOfBytes": "20"
					},
					"t_bytes32": {
						"encoding": "inplace",
						"label": "bytes32",
						"numberOfBytes": "32"
					},
					"t_contract(ENSInterface)982": {
						"encoding": "inplace",
						"label": "contract ENSInterface",
						"numberOfBytes": "20"
					},
					"t_contract(LinkTokenInterface)1382": {
						"encoding": "inplace",
						"label": "contract LinkTokenInterface",
						"numberOfBytes": "20"
					},
					"t_contract(OperatorInterface)1047": {
						"encoding": "inplace",
						"label": "contract OperatorInterface",
						"numberOfBytes": "20"
					},
					"t_mapping(t_bytes32,t_address)": {
						"encoding": "mapping",
						"key": "t_bytes32",
						"label": "mapping(bytes32 => address)",
						"numberOfBytes": "32",
						"value": "t_address"
					},
					"t_string_storage": {
						"encoding": "bytes",
						"label": "string",
						"numberOfBytes": "32"
					},
					"t_uint256": {
						"encoding": "inplace",
						"label": "uint256",
						"numberOfBytes": "32"
					}
				}
			},
			"userdoc": {
				"kind": "user",
				"methods": {
					"acceptOwnership()": {
						"notice": "Allows an ownership transfer to be completed by the recipient."
					},
					"owner()": {
						"notice": "Get the current owner"
					},
					"transferOwnership(address)": {
						"notice": "Allows an owner to begin transferring ownership to a new address."
					}
				},
				"version": 1
			}
		}
	}
}