{
	"data": {
		"bytecode": {
			"linkReferences": {},
			"object": "60a060405273b83e47c2bc239b3bf370bc41e1459a34b41238d060055f6101000a81548173ffffffffffffffffffffffffffffffffffffffff021916908373ffffffffffffffffffffffffffffffffffffffff16021790555060405180610280016040528061024e815260200162002c5461024e913960069081620000859190620005c6565b50620493e060075f6101000a81548163ffffffff021916908363ffffffff1602179055507f66756e2d657468657265756d2d7365706f6c69612d31000000000000000000005f1b600855348015620000db575f80fd5b5033805f60055f9054906101000a900473ffffffffffffffffffffffffffffffffffffffff168073ffffffffffffffffffffffffffffffffffffffff1660808173ffffffffffffffffffffffffffffffffffffffff1681525050505f73ffffffffffffffffffffffffffffffffffffffff168273ffffffffffffffffffffffffffffffffffffffff1603620001a7576040517f08c379a00000000000000000000000000000000000000000000000000000000081526004016200019e9062000708565b60405180910390fd5b815f806101000a81548173ffffffffffffffffffffffffffffffffffffffff021916908373ffffffffffffffffffffffffffffffffffffffff1602179055505f73ffffffffffffffffffffffffffffffffffffffff168173ffffffffffffffffffffffffffffffffffffffff16146200022c576200022b816200023560201b60201c565b5b50505062000796565b3373ffffffffffffffffffffffffffffffffffffffff168173ffffffffffffffffffffffffffffffffffffffff1603620002a6576040517f08c379a00000000000000000000000000000000000000000000000000000000081526004016200029d9062000776565b60405180910390fd5b8060015f6101000a81548173ffffffffffffffffffffffffffffffffffffffff021916908373ffffffffffffffffffffffffffffffffffffffff1602179055508073ffffffffffffffffffffffffffffffffffffffff165f8054906101000a900473ffffffffffffffffffffffffffffffffffffffff1673ffffffffffffffffffffffffffffffffffffffff167fed8889f560326eb138920d842192f0eb3dd22b4f139c87a2c57538e05bae127860405160405180910390a350565b5f81519050919050565b7f4e487b71000000000000000000000000000000000000000000000000000000005f52604160045260245ffd5b7f4e487b71000000000000000000000000000000000000000000000000000000005f52602260045260245ffd5b5f6002820490506001821680620003de57607f821691505b602082108103620003f457620003f362000399565b5b50919050565b5f819050815f5260205f209050919050565b5f6020601f8301049050919050565b5f82821b905092915050565b5f60088302620004587fffffffffffffffffffffffffffffffffffffffffffffffffffffffffffffffff826200041b565b6200046486836200041b565b95508019841693508086168417925050509392505050565b5f819050919050565b5f819050919050565b5f620004ae620004a8620004a2846200047c565b62000485565b6200047c565b9050919050565b5f819050919050565b620004c9836200048e565b620004e1620004d882620004b5565b84845462000427565b825550505050565b5f90565b620004f7620004e9565b62000504818484620004be565b505050565b5b818110156200052b576200051f5f82620004ed565b6001810190506200050a565b5050565b601f8211156200057a576200054481620003fa565b6200054f846200040c565b810160208510156200055f578190505b620005776200056e856200040c565b83018262000509565b50505b505050565b5f82821c905092915050565b5f6200059c5f19846008026200057f565b1980831691505092915050565b5f620005b683836200058b565b9150826002028217905092915050565b620005d18262000362565b67ffffffffffffffff811115620005ed57620005ec6200036c565b5b620005f98254620003c6565b620006068282856200052f565b5f60209050601f8311600181146200063c575f841562000627578287015190505b620006338582620005a9565b865550620006a2565b601f1984166200064c86620003fa565b5f5b8281101562000675578489015182556001820191506020850194506020810190506200064e565b8683101562000695578489015162000691601f8916826200058b565b8355505b6001600288020188555050505b505050505050565b5f82825260208201905092915050565b7f43616e6e6f7420736574206f776e657220746f207a65726f00000000000000005f82015250565b5f620006f0601883620006aa565b9150620006fd82620006ba565b602082019050919050565b5f6020820190508181035f8301526200072181620006e2565b9050919050565b7f43616e6e6f74207472616e7366657220746f2073656c660000000000000000005f82015250565b5f6200075e601783620006aa565b91506200076b8262000728565b602082019050919050565b5f6020820190508181035f8301526200078f8162000750565b9050919050565b60805161249e620007b65f395f818161019f0152610b49015261249e5ff3fe608060405234801561000f575f80fd5b5060043610610091575f3560e01c806379ba50971161006457806379ba50971461011d5780638da5cb5b14610127578063ab0d92dd14610145578063b252c8f214610163578063f2fde38b1461018157610091565b80630ca76175146100955780632f9d6254146100b15780634942f65f146100e1578063516f279e146100ff575b5f80fd5b6100af60048036038101906100aa9190611575565b61019d565b005b6100cb60048036038101906100c6919061163a565b61025f565b6040516100d89190611674565b60405180910390f35b6100e9610343565b6040516100f691906116a5565b60405180910390f35b610107610349565b6040516101149190611738565b60405180910390f35b6101256103d5565b005b61012f610564565b60405161013c9190611797565b60405180910390f35b61014d61058b565b60405161015a91906116a5565b60405180910390f35b61016b610591565b60405161017891906116a5565b60405180910390f35b61019b600480360381019061019691906117da565b610597565b005b7f000000000000000000000000000000000000000000000000000000000000000073ffffffffffffffffffffffffffffffffffffffff163373ffffffffffffffffffffffffffffffffffffffff1614610222576040517fc6829f8300000000000000000000000000000000000000000000000000000000815260040160405180910390fd5b61022d8383836105ab565b827f85e1543bf2f84fe80c6badbce3648c8539ad1df4d2b3d822938ca0538be727e660405160405180910390a2505050565b5f610268610695565b61027061134e565b61030b6006805461028090611832565b80601f01602080910402602001604051908101604052809291908181526020018280546102ac90611832565b80156102f75780601f106102ce576101008083540402835291602001916102f7565b820191905f5260205f20905b8154815290600101906020018083116102da57829003601f168201915b50505050508261072490919063ffffffff16565b61033261031782610734565b8460075f9054906101000a900463ffffffff16600854610b45565b600281905550600254915050919050565b600a5481565b6009805461035690611832565b80601f016020809104026020016040519081016040528092919081815260200182805461038290611832565b80156103cd5780601f106103a4576101008083540402835291602001916103cd565b820191905f5260205f20905b8154815290600101906020018083116103b057829003601f168201915b505050505081565b60015f9054906101000a900473ffffffffffffffffffffffffffffffffffffffff1673ffffffffffffffffffffffffffffffffffffffff163373ffffffffffffffffffffffffffffffffffffffff1614610464576040517f08c379a000000000000000000000000000000000000000000000000000000000815260040161045b906118ac565b60405180910390fd5b5f805f9054906101000a900473ffffffffffffffffffffffffffffffffffffffff169050335f806101000a81548173ffffffffffffffffffffffffffffffffffffffff021916908373ffffffffffffffffffffffffffffffffffffffff1602179055505f60015f6101000a81548173ffffffffffffffffffffffffffffffffffffffff021916908373ffffffffffffffffffffffffffffffffffffffff1602179055503373ffffffffffffffffffffffffffffffffffffffff168173ffffffffffffffffffffffffffffffffffffffff167f8be0079c531659141344cd1fd0a4f28419497f9722a3daafe3b4186f6b6457e060405160405180910390a350565b5f805f9054906101000a900473ffffffffffffffffffffffffffffffffffffffff16905090565b600b5481565b600c5481565b61059f610695565b6105a881610c24565b50565b82600254146105f157826040517fd068bf5b0000000000000000000000000000000000000000000000000000000081526004016105e89190611674565b60405180910390fd5b818060200190518101906106059190611992565b60095f600a5f600b5f600c5f8891905055879190505586919050558591905090816106309190611baf565b505050505080600490816106449190611ce0565b50827f07cee4eeecce4c378bcabac3921fe1ee240f2f7a24775769790937e3a8165c076009600a54600b54600c546003600460405161068896959493929190611ec1565b60405180910390a2505050565b5f8054906101000a900473ffffffffffffffffffffffffffffffffffffffff1673ffffffffffffffffffffffffffffffffffffffff163373ffffffffffffffffffffffffffffffffffffffff1614610722576040517f08c379a000000000000000000000000000000000000000000000000000000000815260040161071990611f7f565b60405180910390fd5b565b610730825f8084610d4e565b5050565b60605f610742610100610df4565b905061078c6040518060400160405280600c81526020017f636f64654c6f636174696f6e000000000000000000000000000000000000000081525082610e1990919063ffffffff16565b6107b4835f015160028111156107a5576107a4611f9d565b5b82610e4190919063ffffffff16565b6107fc6040518060400160405280600881526020017f6c616e677561676500000000000000000000000000000000000000000000000081525082610e1990919063ffffffff16565b61082483604001515f81111561081557610814611f9d565b5b82610e4190919063ffffffff16565b61086c6040518060400160405280600681526020017f736f75726365000000000000000000000000000000000000000000000000000081525082610e1990919063ffffffff16565b610883836060015182610e1990919063ffffffff16565b5f8360a0015151111561093d576108d86040518060400160405280600481526020017f617267730000000000000000000000000000000000000000000000000000000081525082610e1990919063ffffffff16565b6108e181610e90565b5f5b8360a0015151811015610932576109218460a00151828151811061090a57610909611fca565b5b602002602001015183610e1990919063ffffffff16565b8061092b90612024565b90506108e3565b5061093c81610eb8565b5b5f8360800151511115610a7c575f600281111561095d5761095c611f9d565b5b8360200151600281111561097457610973611f9d565b5b036109ab576040517fa80d31f700000000000000000000000000000000000000000000000000000000815260040160405180910390fd5b6109f36040518060400160405280600f81526020017f736563726574734c6f636174696f6e000000000000000000000000000000000081525082610e1990919063ffffffff16565b610a1c83602001516002811115610a0d57610a0c611f9d565b5b82610e4190919063ffffffff16565b610a646040518060400160405280600781526020017f736563726574730000000000000000000000000000000000000000000000000081525082610e1990919063ffffffff16565b610a7b836080015182610ee090919063ffffffff16565b5b5f8360c00151511115610b3657610ad16040518060400160405280600981526020017f627974657341726773000000000000000000000000000000000000000000000081525082610e1990919063ffffffff16565b610ada81610e90565b5f5b8360c0015151811015610b2b57610b1a8460c001518281518110610b0357610b02611fca565b5b602002602001015183610ee090919063ffffffff16565b80610b2490612024565b9050610adc565b50610b3581610eb8565b5b805f01515f0151915050919050565b5f807f000000000000000000000000000000000000000000000000000000000000000073ffffffffffffffffffffffffffffffffffffffff1663461d27628688600188886040518663ffffffff1660e01b8152600401610ba99594939291906120ec565b6020604051808303815f875af1158015610bc5573d5f803e3d5ffd5b505050506040513d601f19601f82011682018060405250810190610be99190612158565b9050807f1131472297a800fee664d1d89cfa8f7676ff07189ecc53f80bbb5f4969099db860405160405180910390a280915050949350505050565b3373ffffffffffffffffffffffffffffffffffffffff168173ffffffffffffffffffffffffffffffffffffffff1603610c92576040517f08c379a0000000000000000000000000000000000000000000000000000000008152600401610c89906121cd565b60405180910390fd5b8060015f6101000a81548173ffffffffffffffffffffffffffffffffffffffff021916908373ffffffffffffffffffffffffffffffffffffffff1602179055508073ffffffffffffffffffffffffffffffffffffffff165f8054906101000a900473ffffffffffffffffffffffffffffffffffffffff1673ffffffffffffffffffffffffffffffffffffffff167fed8889f560326eb138920d842192f0eb3dd22b4f139c87a2c57538e05bae127860405160405180910390a350565b5f815103610d88576040517f22ce3edd00000000000000000000000000000000000000000000000000000000815260040160405180910390fd5b82845f01906002811115610d9f57610d9e611f9d565b5b90816002811115610db357610db2611f9d565b5b815250508184604001905f811115610dce57610dcd611f9d565b5b90815f811115610de157610de0611f9d565b5b8152505080846060018190525050505050565b610dfc6113bd565b610e09815f015183610f08565b505f816020018181525050919050565b610e268260038351610f7e565b610e3c81835f015161111e90919063ffffffff16565b505050565b610e6260026005600660ff16901b17835f015161113a90919063ffffffff16565b50610e8c8282604051602001610e7891906116a5565b604051602081830303815290604052610ee0565b5050565b610e9b8160046111a1565b600181602001818151610eae91906121eb565b9150818152505050565b610ec38160076111a1565b600181602001818151610ed6919061221e565b9150818152505050565b610eed8260028351610f7e565b610f0381835f015161111e90919063ffffffff16565b505050565b610f106113dc565b5f602083610f1e919061227e565b14610f4a57602082610f30919061227e565b6020610f3c919061221e565b82610f4791906121eb565b91505b818360200181815250506040518084525f815282810160200181811015610f6f575f80fd5b80604052505082905092915050565b60178167ffffffffffffffff1611610fb857610fb28160058460ff16901b60ff1617845f015161113a90919063ffffffff16565b50611119565b60ff8167ffffffffffffffff161161101457610fea601860058460ff16901b17845f015161113a90919063ffffffff16565b5061100e8167ffffffffffffffff166001855f01516111c69092919063ffffffff16565b50611118565b61ffff8167ffffffffffffffff161161107157611047601960058460ff16901b17845f015161113a90919063ffffffff16565b5061106b8167ffffffffffffffff166002855f01516111c69092919063ffffffff16565b50611117565b63ffffffff8167ffffffffffffffff16116110d0576110a6601a60058460ff16901b17845f015161113a90919063ffffffff16565b506110ca8167ffffffffffffffff166004855f01516111c69092919063ffffffff16565b50611116565b6110f0601b60058460ff16901b17845f015161113a90919063ffffffff16565b506111148167ffffffffffffffff166008855f01516111c69092919063ffffffff16565b505b5b5b5b505050565b6111266113dc565b6111328383845161124f565b905092915050565b6111426113dc565b5f835f01515190505f60018261115891906121eb565b90508460200151821061117c5761117b8560028361117691906122ae565b61132c565b5b84516020838201018581538151831115611194578282525b5050849250505092915050565b6111c1601f60058360ff16901b17835f015161113a90919063ffffffff16565b505050565b6111ce6113dc565b5f845f01515190505f81846111e391906121eb565b90508560200151811115611208576112078660028361120291906122ae565b61132c565b5b5f600185610100611219919061241e565b611223919061221e565b905086518281018783198251161781528151841115611240578382525b50508693505050509392505050565b6112576113dc565b8251821115611264575f80fd5b5f845f01515190505f838261127991906121eb565b9050856020015181111561129e5761129d8660028361129891906122ae565b61132c565b5b5f80875180518560208301019350808511156112b8578482525b60208901925050505b602086106112ff57805182526020826112da91906121eb565b91506020816112e991906121eb565b90506020866112f8919061221e565b95506112c1565b5f6001876020036101000a0390508019825116818451168181178552505050879450505050509392505050565b5f825f0151905061133d8383610f08565b50611348838261111e565b50505050565b6040518060e001604052805f600281111561136c5761136b611f9d565b5b81526020015f600281111561138457611383611f9d565b5b81526020015f8081111561139b5761139a611f9d565b5b8152602001606081526020016060815260200160608152602001606081525090565b60405180604001604052806113d06113dc565b81526020015f81525090565b6040518060400160405280606081526020015f81525090565b5f604051905090565b5f80fd5b5f80fd5b5f819050919050565b61141881611406565b8114611422575f80fd5b50565b5f813590506114338161140f565b92915050565b5f80fd5b5f80fd5b5f601f19601f8301169050919050565b7f4e487b71000000000000000000000000000000000000000000000000000000005f52604160045260245ffd5b61148782611441565b810181811067ffffffffffffffff821117156114a6576114a5611451565b5b80604052505050565b5f6114b86113f5565b90506114c4828261147e565b919050565b5f67ffffffffffffffff8211156114e3576114e2611451565b5b6114ec82611441565b9050602081019050919050565b828183375f83830152505050565b5f611519611514846114c9565b6114af565b9050828152602081018484840111156115355761153461143d565b5b6115408482856114f9565b509392505050565b5f82601f83011261155c5761155b611439565b5b813561156c848260208601611507565b91505092915050565b5f805f6060848603121561158c5761158b6113fe565b5b5f61159986828701611425565b935050602084013567ffffffffffffffff8111156115ba576115b9611402565b5b6115c686828701611548565b925050604084013567ffffffffffffffff8111156115e7576115e6611402565b5b6115f386828701611548565b9150509250925092565b5f67ffffffffffffffff82169050919050565b611619816115fd565b8114611623575f80fd5b50565b5f8135905061163481611610565b92915050565b5f6020828403121561164f5761164e6113fe565b5b5f61165c84828501611626565b91505092915050565b61166e81611406565b82525050565b5f6020820190506116875f830184611665565b92915050565b5f819050919050565b61169f8161168d565b82525050565b5f6020820190506116b85f830184611696565b92915050565b5f81519050919050565b5f82825260208201905092915050565b5f5b838110156116f55780820151818401526020810190506116da565b5f8484015250505050565b5f61170a826116be565b61171481856116c8565b93506117248185602086016116d8565b61172d81611441565b840191505092915050565b5f6020820190508181035f8301526117508184611700565b905092915050565b5f73ffffffffffffffffffffffffffffffffffffffff82169050919050565b5f61178182611758565b9050919050565b61179181611777565b82525050565b5f6020820190506117aa5f830184611788565b92915050565b6117b981611777565b81146117c3575f80fd5b50565b5f813590506117d4816117b0565b92915050565b5f602082840312156117ef576117ee6113fe565b5b5f6117fc848285016117c6565b91505092915050565b7f4e487b71000000000000000000000000000000000000000000000000000000005f52602260045260245ffd5b5f600282049050600182168061184957607f821691505b60208210810361185c5761185b611805565b5b50919050565b7f4d7573742062652070726f706f736564206f776e6572000000000000000000005f82015250565b5f6118966016836116c8565b91506118a182611862565b602082019050919050565b5f6020820190508181035f8301526118c38161188a565b9050919050565b5f67ffffffffffffffff8211156118e4576118e3611451565b5b6118ed82611441565b9050602081019050919050565b5f61190c611907846118ca565b6114af565b9050828152602081018484840111156119285761192761143d565b5b6119338482856116d8565b509392505050565b5f82601f83011261194f5761194e611439565b5b815161195f8482602086016118fa565b91505092915050565b6119718161168d565b811461197b575f80fd5b50565b5f8151905061198c81611968565b92915050565b5f805f80608085870312156119aa576119a96113fe565b5b5f85015167ffffffffffffffff8111156119c7576119c6611402565b5b6119d38782880161193b565b94505060206119e48782880161197e565b93505060406119f58782880161197e565b9250506060611a068782880161197e565b91505092959194509250565b5f819050815f5260205f209050919050565b5f6020601f8301049050919050565b5f82821b905092915050565b5f60088302611a6e7fffffffffffffffffffffffffffffffffffffffffffffffffffffffffffffffff82611a33565b611a788683611a33565b95508019841693508086168417925050509392505050565b5f819050919050565b5f611ab3611aae611aa98461168d565b611a90565b61168d565b9050919050565b5f819050919050565b611acc83611a99565b611ae0611ad882611aba565b848454611a3f565b825550505050565b5f90565b611af4611ae8565b611aff818484611ac3565b505050565b5b81811015611b2257611b175f82611aec565b600181019050611b05565b5050565b601f821115611b6757611b3881611a12565b611b4184611a24565b81016020851015611b50578190505b611b64611b5c85611a24565b830182611b04565b50505b505050565b5f82821c905092915050565b5f611b875f1984600802611b6c565b1980831691505092915050565b5f611b9f8383611b78565b9150826002028217905092915050565b611bb8826116be565b67ffffffffffffffff811115611bd157611bd0611451565b5b611bdb8254611832565b611be6828285611b26565b5f60209050601f831160018114611c17575f8415611c05578287015190505b611c0f8582611b94565b865550611c76565b601f198416611c2586611a12565b5f5b82811015611c4c57848901518255600182019150602085019450602081019050611c27565b86831015611c695784890151611c65601f891682611b78565b8355505b6001600288020188555050505b505050505050565b5f81519050919050565b5f819050815f5260205f209050919050565b601f821115611cdb57611cac81611c88565b611cb584611a24565b81016020851015611cc4578190505b611cd8611cd085611a24565b830182611b04565b50505b505050565b611ce982611c7e565b67ffffffffffffffff811115611d0257611d01611451565b5b611d0c8254611832565b611d17828285611c9a565b5f60209050601f831160018114611d48575f8415611d36578287015190505b611d408582611b94565b865550611da7565b601f198416611d5686611c88565b5f5b82811015611d7d57848901518255600182019150602085019450602081019050611d58565b86831015611d9a5784890151611d96601f891682611b78565b8355505b6001600288020188555050505b505050505050565b5f8154611dbb81611832565b611dc581866116c8565b9450600182165f8114611ddf5760018114611df557611e27565b60ff198316865281151560200286019350611e27565b611dfe85611a12565b5f5b83811015611e1f57815481890152600182019150602081019050611e00565b808801955050505b50505092915050565b5f82825260208201905092915050565b5f8154611e4c81611832565b611e568186611e30565b9450600182165f8114611e705760018114611e8657611eb8565b60ff198316865281151560200286019350611eb8565b611e8f85611c88565b5f5b83811015611eb057815481890152600182019150602081019050611e91565b808801955050505b50505092915050565b5f60c0820190508181035f830152611ed98189611daf565b9050611ee86020830188611696565b611ef56040830187611696565b611f026060830186611696565b8181036080830152611f148185611e40565b905081810360a0830152611f288184611e40565b9050979650505050505050565b7f4f6e6c792063616c6c61626c65206279206f776e6572000000000000000000005f82015250565b5f611f696016836116c8565b9150611f7482611f35565b602082019050919050565b5f6020820190508181035f830152611f9681611f5d565b9050919050565b7f4e487b71000000000000000000000000000000000000000000000000000000005f52602160045260245ffd5b7f4e487b71000000000000000000000000000000000000000000000000000000005f52603260045260245ffd5b7f4e487b71000000000000000000000000000000000000000000000000000000005f52601160045260245ffd5b5f61202e8261168d565b91507fffffffffffffffffffffffffffffffffffffffffffffffffffffffffffffffff82036120605761205f611ff7565b5b600182019050919050565b612074816115fd565b82525050565b5f61208482611c7e565b61208e8185611e30565b935061209e8185602086016116d8565b6120a781611441565b840191505092915050565b5f61ffff82169050919050565b6120c8816120b2565b82525050565b5f63ffffffff82169050919050565b6120e6816120ce565b82525050565b5f60a0820190506120ff5f83018861206b565b8181036020830152612111818761207a565b905061212060408301866120bf565b61212d60608301856120dd565b61213a6080830184611665565b9695505050505050565b5f815190506121528161140f565b92915050565b5f6020828403121561216d5761216c6113fe565b5b5f61217a84828501612144565b91505092915050565b7f43616e6e6f74207472616e7366657220746f2073656c660000000000000000005f82015250565b5f6121b76017836116c8565b91506121c282612183565b602082019050919050565b5f6020820190508181035f8301526121e4816121ab565b9050919050565b5f6121f58261168d565b91506122008361168d565b925082820190508082111561221857612217611ff7565b5b92915050565b5f6122288261168d565b91506122338361168d565b925082820390508181111561224b5761224a611ff7565b5b92915050565b7f4e487b71000000000000000000000000000000000000000000000000000000005f52601260045260245ffd5b5f6122888261168d565b91506122938361168d565b9250826122a3576122a2612251565b5b828206905092915050565b5f6122b88261168d565b91506122c38361168d565b92508282026122d18161168d565b915082820484148315176122e8576122e7611ff7565b5b5092915050565b5f8160011c9050919050565b5f808291508390505b6001851115612344578086048111156123205761231f611ff7565b5b600185161561232f5780820291505b808102905061233d856122ef565b9450612304565b94509492505050565b5f8261235c5760019050612417565b81612369575f9050612417565b816001811461237f5760028114612389576123b8565b6001915050612417565b60ff84111561239b5761239a611ff7565b5b8360020a9150848211156123b2576123b1611ff7565b5b50612417565b5060208310610133831016604e8410600b84101617156123ed5782820a9050838111156123e8576123e7611ff7565b5b612417565b6123fa84848460016122fb565b9250905081840481111561241157612410611ff7565b5b81810290505b9392505050565b5f6124288261168d565b91506124338361168d565b92506124607fffffffffffffffffffffffffffffffffffffffffffffffffffffffffffffffff848461234d565b90509291505056fea2646970667358221220c5967c5c165850a28cf8a7f0d0e5cc16455b4964d220b99aa7e005f624aaf3a964736f6c63430008140033636f6e7374207b20657468657273207d203d20617761697420696d706f727428276e706d3a65746865727340362e31302e3027293b636f6e737420616269436f646572203d206574686572732e416269436f6465722e64656661756c74416269436f64657228293b636f6e737420617069526573706f6e7365203d2061776169742046756e6374696f6e732e6d616b654874747052657175657374287b2020202075726c3a202768747470733a2f2f67656e69656261636b626f6e652e617a75726577656273697465732e6e65742f6170692f70726f706572746965732f64656d6f277d293b636f6e7374207b2064617461207d203d20617069526573706f6e73652e646174613b636f6e7374206c6f636174696f6e203d20646174612e6c6f636174696f6e3b636f6e7374206c6f7453697a65203d204e756d62657228646174612e6c6f7453697a65293b636f6e737420746f74616c5072696365203d204e756d62657228646174612e746f74616c5072696365293b636f6e737420746178417373657373656456616c7565203d204e756d62657228646174612e746178417373657373656456616c7565293b636f6e737420656e636f646564203d20616269436f6465722e656e636f6465285b60737472696e67602c206075696e74323536602c206075696e74323536602c206075696e74323536605d2c205b6c6f636174696f6e2c206c6f7453697a652c20746f74616c50726963652c20746178417373657373656456616c75655d293b72657475726e206574686572732e676574427974657328656e636f646564293b",
			"opcodes": "PUSH1 0xA0 PUSH1 0x40 MSTORE PUSH20 0xB83E47C2BC239B3BF370BC41E1459A34B41238D0 PUSH1 0x5 PUSH0 PUSH2 0x100 EXP DUP2 SLOAD DUP2 PUSH20 0xFFFFFFFFFFFFFFFFFFFFFFFFFFFFFFFFFFFFFFFF MUL NOT AND SWAP1 DUP4 PUSH20 0xFFFFFFFFFFFFFFFFFFFFFFFFFFFFFFFFFFFFFFFF AND MUL OR SWAP1 SSTORE POP PUSH1 0x40 MLOAD DUP1 PUSH2 0x280 ADD PUSH1 0x40 MSTORE DUP1 PUSH2 0x24E DUP2 MSTORE PUSH1 0x20 ADD PUSH3 0x2C54 PUSH2 0x24E SWAP2 CODECOPY PUSH1 0x6 SWAP1 DUP2 PUSH3 0x85 SWAP2 SWAP1 PUSH3 0x5C6 JUMP JUMPDEST POP PUSH3 0x493E0 PUSH1 0x7 PUSH0 PUSH2 0x100 EXP DUP2 SLOAD DUP2 PUSH4 0xFFFFFFFF MUL NOT AND SWAP1 DUP4 PUSH4 0xFFFFFFFF AND MUL OR SWAP1 SSTORE POP PUSH32 0x66756E2D657468657265756D2D7365706F6C69612D3100000000000000000000 PUSH0 SHL PUSH1 0x8 SSTORE CALLVALUE DUP1 ISZERO PUSH3 0xDB JUMPI PUSH0 DUP1 REVERT JUMPDEST POP CALLER DUP1 PUSH0 PUSH1 0x5 PUSH0 SWAP1 SLOAD SWAP1 PUSH2 0x100 EXP SWAP1 DIV PUSH20 0xFFFFFFFFFFFFFFFFFFFFFFFFFFFFFFFFFFFFFFFF AND DUP1 PUSH20 0xFFFFFFFFFFFFFFFFFFFFFFFFFFFFFFFFFFFFFFFF AND PUSH1 0x80 DUP2 PUSH20 0xFFFFFFFFFFFFFFFFFFFFFFFFFFFFFFFFFFFFFFFF AND DUP2 MSTORE POP POP POP PUSH0 PUSH20 0xFFFFFFFFFFFFFFFFFFFFFFFFFFFFFFFFFFFFFFFF AND DUP3 PUSH20 0xFFFFFFFFFFFFFFFFFFFFFFFFFFFFFFFFFFFFFFFF AND SUB PUSH3 0x1A7 JUMPI PUSH1 0x40 MLOAD PUSH32 0x8C379A000000000000000000000000000000000000000000000000000000000 DUP2 MSTORE PUSH1 0x4 ADD PUSH3 0x19E SWAP1 PUSH3 0x708 JUMP JUMPDEST PUSH1 0x40 MLOAD DUP1 SWAP2 SUB SWAP1 REVERT JUMPDEST DUP2 PUSH0 DUP1 PUSH2 0x100 EXP DUP2 SLOAD DUP2 PUSH20 0xFFFFFFFFFFFFFFFFFFFFFFFFFFFFFFFFFFFFFFFF MUL NOT AND SWAP1 DUP4 PUSH20 0xFFFFFFFFFFFFFFFFFFFFFFFFFFFFFFFFFFFFFFFF AND MUL OR SWAP1 SSTORE POP PUSH0 PUSH20 0xFFFFFFFFFFFFFFFFFFFFFFFFFFFFFFFFFFFFFFFF AND DUP2 PUSH20 0xFFFFFFFFFFFFFFFFFFFFFFFFFFFFFFFFFFFFFFFF AND EQ PUSH3 0x22C JUMPI PUSH3 0x22B DUP2 PUSH3 0x235 PUSH1 0x20 SHL PUSH1 0x20 SHR JUMP JUMPDEST JUMPDEST POP POP POP PUSH3 0x796 JUMP JUMPDEST CALLER PUSH20 0xFFFFFFFFFFFFFFFFFFFFFFFFFFFFFFFFFFFFFFFF AND DUP2 PUSH20 0xFFFFFFFFFFFFFFFFFFFFFFFFFFFFFFFFFFFFFFFF AND SUB PUSH3 0x2A6 JUMPI PUSH1 0x40 MLOAD PUSH32 0x8C379A000000000000000000000000000000000000000000000000000000000 DUP2 MSTORE PUSH1 0x4 ADD PUSH3 0x29D SWAP1 PUSH3 0x776 JUMP JUMPDEST PUSH1 0x40 MLOAD DUP1 SWAP2 SUB SWAP1 REVERT JUMPDEST DUP1 PUSH1 0x1 PUSH0 PUSH2 0x100 EXP DUP2 SLOAD DUP2 PUSH20 0xFFFFFFFFFFFFFFFFFFFFFFFFFFFFFFFFFFFFFFFF MUL NOT AND SWAP1 DUP4 PUSH20 0xFFFFFFFFFFFFFFFFFFFFFFFFFFFFFFFFFFFFFFFF AND MUL OR SWAP1 SSTORE POP DUP1 PUSH20 0xFFFFFFFFFFFFFFFFFFFFFFFFFFFFFFFFFFFFFFFF AND PUSH0 DUP1 SLOAD SWAP1 PUSH2 0x100 EXP SWAP1 DIV PUSH20 0xFFFFFFFFFFFFFFFFFFFFFFFFFFFFFFFFFFFFFFFF AND PUSH20 0xFFFFFFFFFFFFFFFFFFFFFFFFFFFFFFFFFFFFFFFF AND PUSH32 0xED8889F560326EB138920D842192F0EB3DD22B4F139C87A2C57538E05BAE1278 PUSH1 0x40 MLOAD PUSH1 0x40 MLOAD DUP1 SWAP2 SUB SWAP1 LOG3 POP JUMP JUMPDEST PUSH0 DUP2 MLOAD SWAP1 POP SWAP2 SWAP1 POP JUMP JUMPDEST PUSH32 0x4E487B7100000000000000000000000000000000000000000000000000000000 PUSH0 MSTORE PUSH1 0x41 PUSH1 0x4 MSTORE PUSH1 0x24 PUSH0 REVERT JUMPDEST PUSH32 0x4E487B7100000000000000000000000000000000000000000000000000000000 PUSH0 MSTORE PUSH1 0x22 PUSH1 0x4 MSTORE PUSH1 0x24 PUSH0 REVERT JUMPDEST PUSH0 PUSH1 0x2 DUP3 DIV SWAP1 POP PUSH1 0x1 DUP3 AND DUP1 PUSH3 0x3DE JUMPI PUSH1 0x7F DUP3 AND SWAP2 POP JUMPDEST PUSH1 0x20 DUP3 LT DUP2 SUB PUSH3 0x3F4 JUMPI PUSH3 0x3F3 PUSH3 0x399 JUMP JUMPDEST JUMPDEST POP SWAP2 SWAP1 POP JUMP JUMPDEST PUSH0 DUP2 SWAP1 POP DUP2 PUSH0 MSTORE PUSH1 0x20 PUSH0 KECCAK256 SWAP1 POP SWAP2 SWAP1 POP JUMP JUMPDEST PUSH0 PUSH1 0x20 PUSH1 0x1F DUP4 ADD DIV SWAP1 POP SWAP2 SWAP1 POP JUMP JUMPDEST PUSH0 DUP3 DUP3 SHL SWAP1 POP SWAP3 SWAP2 POP POP JUMP JUMPDEST PUSH0 PUSH1 0x8 DUP4 MUL PUSH3 0x458 PUSH32 0xFFFFFFFFFFFFFFFFFFFFFFFFFFFFFFFFFFFFFFFFFFFFFFFFFFFFFFFFFFFFFFFF DUP3 PUSH3 0x41B JUMP JUMPDEST PUSH3 0x464 DUP7 DUP4 PUSH3 0x41B JUMP JUMPDEST SWAP6 POP DUP1 NOT DUP5 AND SWAP4 POP DUP1 DUP7 AND DUP5 OR SWAP3 POP POP POP SWAP4 SWAP3 POP POP POP JUMP JUMPDEST PUSH0 DUP2 SWAP1 POP SWAP2 SWAP1 POP JUMP JUMPDEST PUSH0 DUP2 SWAP1 POP SWAP2 SWAP1 POP JUMP JUMPDEST PUSH0 PUSH3 0x4AE PUSH3 0x4A8 PUSH3 0x4A2 DUP5 PUSH3 0x47C JUMP JUMPDEST PUSH3 0x485 JUMP JUMPDEST PUSH3 0x47C JUMP JUMPDEST SWAP1 POP SWAP2 SWAP1 POP JUMP JUMPDEST PUSH0 DUP2 SWAP1 POP SWAP2 SWAP1 POP JUMP JUMPDEST PUSH3 0x4C9 DUP4 PUSH3 0x48E JUMP JUMPDEST PUSH3 0x4E1 PUSH3 0x4D8 DUP3 PUSH3 0x4B5 JUMP JUMPDEST DUP5 DUP5 SLOAD PUSH3 0x427 JUMP JUMPDEST DUP3 SSTORE POP POP POP POP JUMP JUMPDEST PUSH0 SWAP1 JUMP JUMPDEST PUSH3 0x4F7 PUSH3 0x4E9 JUMP JUMPDEST PUSH3 0x504 DUP2 DUP5 DUP5 PUSH3 0x4BE JUMP JUMPDEST POP POP POP JUMP JUMPDEST JUMPDEST DUP2 DUP2 LT ISZERO PUSH3 0x52B JUMPI PUSH3 0x51F PUSH0 DUP3 PUSH3 0x4ED JUMP JUMPDEST PUSH1 0x1 DUP2 ADD SWAP1 POP PUSH3 0x50A JUMP JUMPDEST POP POP JUMP JUMPDEST PUSH1 0x1F DUP3 GT ISZERO PUSH3 0x57A JUMPI PUSH3 0x544 DUP2 PUSH3 0x3FA JUMP JUMPDEST PUSH3 0x54F DUP5 PUSH3 0x40C JUMP JUMPDEST DUP2 ADD PUSH1 0x20 DUP6 LT ISZERO PUSH3 0x55F JUMPI DUP2 SWAP1 POP JUMPDEST PUSH3 0x577 PUSH3 0x56E DUP6 PUSH3 0x40C JUMP JUMPDEST DUP4 ADD DUP3 PUSH3 0x509 JUMP JUMPDEST POP POP JUMPDEST POP POP POP JUMP JUMPDEST PUSH0 DUP3 DUP3 SHR SWAP1 POP SWAP3 SWAP2 POP POP JUMP JUMPDEST PUSH0 PUSH3 0x59C PUSH0 NOT DUP5 PUSH1 0x8 MUL PUSH3 0x57F JUMP JUMPDEST NOT DUP1 DUP4 AND SWAP2 POP POP SWAP3 SWAP2 POP POP JUMP JUMPDEST PUSH0 PUSH3 0x5B6 DUP4 DUP4 PUSH3 0x58B JUMP JUMPDEST SWAP2 POP DUP3 PUSH1 0x2 MUL DUP3 OR SWAP1 POP SWAP3 SWAP2 POP POP JUMP JUMPDEST PUSH3 0x5D1 DUP3 PUSH3 0x362 JUMP JUMPDEST PUSH8 0xFFFFFFFFFFFFFFFF DUP2 GT ISZERO PUSH3 0x5ED JUMPI PUSH3 0x5EC PUSH3 0x36C JUMP JUMPDEST JUMPDEST PUSH3 0x5F9 DUP3 SLOAD PUSH3 0x3C6 JUMP JUMPDEST PUSH3 0x606 DUP3 DUP3 DUP6 PUSH3 0x52F JUMP JUMPDEST PUSH0 PUSH1 0x20 SWAP1 POP PUSH1 0x1F DUP4 GT PUSH1 0x1 DUP2 EQ PUSH3 0x63C JUMPI PUSH0 DUP5 ISZERO PUSH3 0x627 JUMPI DUP3 DUP8 ADD MLOAD SWAP1 POP JUMPDEST PUSH3 0x633 DUP6 DUP3 PUSH3 0x5A9 JUMP JUMPDEST DUP7 SSTORE POP PUSH3 0x6A2 JUMP JUMPDEST PUSH1 0x1F NOT DUP5 AND PUSH3 0x64C DUP7 PUSH3 0x3FA JUMP JUMPDEST PUSH0 JUMPDEST DUP3 DUP2 LT ISZERO PUSH3 0x675 JUMPI DUP5 DUP10 ADD MLOAD DUP3 SSTORE PUSH1 0x1 DUP3 ADD SWAP2 POP PUSH1 0x20 DUP6 ADD SWAP5 POP PUSH1 0x20 DUP2 ADD SWAP1 POP PUSH3 0x64E JUMP JUMPDEST DUP7 DUP4 LT ISZERO PUSH3 0x695 JUMPI DUP5 DUP10 ADD MLOAD PUSH3 0x691 PUSH1 0x1F DUP10 AND DUP3 PUSH3 0x58B JUMP JUMPDEST DUP4 SSTORE POP JUMPDEST PUSH1 0x1 PUSH1 0x2 DUP9 MUL ADD DUP9 SSTORE POP POP POP JUMPDEST POP POP POP POP POP POP JUMP JUMPDEST PUSH0 DUP3 DUP3 MSTORE PUSH1 0x20 DUP3 ADD SWAP1 POP SWAP3 SWAP2 POP POP JUMP JUMPDEST PUSH32 0x43616E6E6F7420736574206F776E657220746F207A65726F0000000000000000 PUSH0 DUP3 ADD MSTORE POP JUMP JUMPDEST PUSH0 PUSH3 0x6F0 PUSH1 0x18 DUP4 PUSH3 0x6AA JUMP JUMPDEST SWAP2 POP PUSH3 0x6FD DUP3 PUSH3 0x6BA JUMP JUMPDEST PUSH1 0x20 DUP3 ADD SWAP1 POP SWAP2 SWAP1 POP JUMP JUMPDEST PUSH0 PUSH1 0x20 DUP3 ADD SWAP1 POP DUP2 DUP2 SUB PUSH0 DUP4 ADD MSTORE PUSH3 0x721 DUP2 PUSH3 0x6E2 JUMP JUMPDEST SWAP1 POP SWAP2 SWAP1 POP JUMP JUMPDEST PUSH32 0x43616E6E6F74207472616E7366657220746F2073656C66000000000000000000 PUSH0 DUP3 ADD MSTORE POP JUMP JUMPDEST PUSH0 PUSH3 0x75E PUSH1 0x17 DUP4 PUSH3 0x6AA JUMP JUMPDEST SWAP2 POP PUSH3 0x76B DUP3 PUSH3 0x728 JUMP JUMPDEST PUSH1 0x20 DUP3 ADD SWAP1 POP SWAP2 SWAP1 POP JUMP JUMPDEST PUSH0 PUSH1 0x20 DUP3 ADD SWAP1 POP DUP2 DUP2 SUB PUSH0 DUP4 ADD MSTORE PUSH3 0x78F DUP2 PUSH3 0x750 JUMP JUMPDEST SWAP1 POP SWAP2 SWAP1 POP JUMP JUMPDEST PUSH1 0x80 MLOAD PUSH2 0x249E PUSH3 0x7B6 PUSH0 CODECOPY PUSH0 DUP2 DUP2 PUSH2 0x19F ADD MSTORE PUSH2 0xB49 ADD MSTORE PUSH2 0x249E PUSH0 RETURN INVALID PUSH1 0x80 PUSH1 0x40 MSTORE CALLVALUE DUP1 ISZERO PUSH2 0xF JUMPI PUSH0 DUP1 REVERT JUMPDEST POP PUSH1 0x4 CALLDATASIZE LT PUSH2 0x91 JUMPI PUSH0 CALLDATALOAD PUSH1 0xE0 SHR DUP1 PUSH4 0x79BA5097 GT PUSH2 0x64 JUMPI DUP1 PUSH4 0x79BA5097 EQ PUSH2 0x11D JUMPI DUP1 PUSH4 0x8DA5CB5B EQ PUSH2 0x127 JUMPI DUP1 PUSH4 0xAB0D92DD EQ PUSH2 0x145 JUMPI DUP1 PUSH4 0xB252C8F2 EQ PUSH2 0x163 JUMPI DUP1 PUSH4 0xF2FDE38B EQ PUSH2 0x181 JUMPI PUSH2 0x91 JUMP JUMPDEST DUP1 PUSH4 0xCA76175 EQ PUSH2 0x95 JUMPI DUP1 PUSH4 0x2F9D6254 EQ PUSH2 0xB1 JUMPI DUP1 PUSH4 0x4942F65F EQ PUSH2 0xE1 JUMPI DUP1 PUSH4 0x516F279E EQ PUSH2 0xFF JUMPI JUMPDEST PUSH0 DUP1 REVERT JUMPDEST PUSH2 0xAF PUSH1 0x4 DUP1 CALLDATASIZE SUB DUP2 ADD SWAP1 PUSH2 0xAA SWAP2 SWAP1 PUSH2 0x1575 JUMP JUMPDEST PUSH2 0x19D JUMP JUMPDEST STOP JUMPDEST PUSH2 0xCB PUSH1 0x4 DUP1 CALLDATASIZE SUB DUP2 ADD SWAP1 PUSH2 0xC6 SWAP2 SWAP1 PUSH2 0x163A JUMP JUMPDEST PUSH2 0x25F JUMP JUMPDEST PUSH1 0x40 MLOAD PUSH2 0xD8 SWAP2 SWAP1 PUSH2 0x1674 JUMP JUMPDEST PUSH1 0x40 MLOAD DUP1 SWAP2 SUB SWAP1 RETURN JUMPDEST PUSH2 0xE9 PUSH2 0x343 JUMP JUMPDEST PUSH1 0x40 MLOAD PUSH2 0xF6 SWAP2 SWAP1 PUSH2 0x16A5 JUMP JUMPDEST PUSH1 0x40 MLOAD DUP1 SWAP2 SUB SWAP1 RETURN JUMPDEST PUSH2 0x107 PUSH2 0x349 JUMP JUMPDEST PUSH1 0x40 MLOAD PUSH2 0x114 SWAP2 SWAP1 PUSH2 0x1738 JUMP JUMPDEST PUSH1 0x40 MLOAD DUP1 SWAP2 SUB SWAP1 RETURN JUMPDEST PUSH2 0x125 PUSH2 0x3D5 JUMP JUMPDEST STOP JUMPDEST PUSH2 0x12F PUSH2 0x564 JUMP JUMPDEST PUSH1 0x40 MLOAD PUSH2 0x13C SWAP2 SWAP1 PUSH2 0x1797 JUMP JUMPDEST PUSH1 0x40 MLOAD DUP1 SWAP2 SUB SWAP1 RETURN JUMPDEST PUSH2 0x14D PUSH2 0x58B JUMP JUMPDEST PUSH1 0x40 MLOAD PUSH2 0x15A SWAP2 SWAP1 PUSH2 0x16A5 JUMP JUMPDEST PUSH1 0x40 MLOAD DUP1 SWAP2 SUB SWAP1 RETURN JUMPDEST PUSH2 0x16B PUSH2 0x591 JUMP JUMPDEST PUSH1 0x40 MLOAD PUSH2 0x178 SWAP2 SWAP1 PUSH2 0x16A5 JUMP JUMPDEST PUSH1 0x40 MLOAD DUP1 SWAP2 SUB SWAP1 RETURN JUMPDEST PUSH2 0x19B PUSH1 0x4 DUP1 CALLDATASIZE SUB DUP2 ADD SWAP1 PUSH2 0x196 SWAP2 SWAP1 PUSH2 0x17DA JUMP JUMPDEST PUSH2 0x597 JUMP JUMPDEST STOP JUMPDEST PUSH32 0x0 PUSH20 0xFFFFFFFFFFFFFFFFFFFFFFFFFFFFFFFFFFFFFFFF AND CALLER PUSH20 0xFFFFFFFFFFFFFFFFFFFFFFFFFFFFFFFFFFFFFFFF AND EQ PUSH2 0x222 JUMPI PUSH1 0x40 MLOAD PUSH32 0xC6829F8300000000000000000000000000000000000000000000000000000000 DUP2 MSTORE PUSH1 0x4 ADD PUSH1 0x40 MLOAD DUP1 SWAP2 SUB SWAP1 REVERT JUMPDEST PUSH2 0x22D DUP4 DUP4 DUP4 PUSH2 0x5AB JUMP JUMPDEST DUP3 PUSH32 0x85E1543BF2F84FE80C6BADBCE3648C8539AD1DF4D2B3D822938CA0538BE727E6 PUSH1 0x40 MLOAD PUSH1 0x40 MLOAD DUP1 SWAP2 SUB SWAP1 LOG2 POP POP POP JUMP JUMPDEST PUSH0 PUSH2 0x268 PUSH2 0x695 JUMP JUMPDEST PUSH2 0x270 PUSH2 0x134E JUMP JUMPDEST PUSH2 0x30B PUSH1 0x6 DUP1 SLOAD PUSH2 0x280 SWAP1 PUSH2 0x1832 JUMP JUMPDEST DUP1 PUSH1 0x1F ADD PUSH1 0x20 DUP1 SWAP2 DIV MUL PUSH1 0x20 ADD PUSH1 0x40 MLOAD SWAP1 DUP2 ADD PUSH1 0x40 MSTORE DUP1 SWAP3 SWAP2 SWAP1 DUP2 DUP2 MSTORE PUSH1 0x20 ADD DUP3 DUP1 SLOAD PUSH2 0x2AC SWAP1 PUSH2 0x1832 JUMP JUMPDEST DUP1 ISZERO PUSH2 0x2F7 JUMPI DUP1 PUSH1 0x1F LT PUSH2 0x2CE JUMPI PUSH2 0x100 DUP1 DUP4 SLOAD DIV MUL DUP4 MSTORE SWAP2 PUSH1 0x20 ADD SWAP2 PUSH2 0x2F7 JUMP JUMPDEST DUP3 ADD SWAP2 SWAP1 PUSH0 MSTORE PUSH1 0x20 PUSH0 KECCAK256 SWAP1 JUMPDEST DUP2 SLOAD DUP2 MSTORE SWAP1 PUSH1 0x1 ADD SWAP1 PUSH1 0x20 ADD DUP1 DUP4 GT PUSH2 0x2DA JUMPI DUP3 SWAP1 SUB PUSH1 0x1F AND DUP3 ADD SWAP2 JUMPDEST POP POP POP POP POP DUP3 PUSH2 0x724 SWAP1 SWAP2 SWAP1 PUSH4 0xFFFFFFFF AND JUMP JUMPDEST PUSH2 0x332 PUSH2 0x317 DUP3 PUSH2 0x734 JUMP JUMPDEST DUP5 PUSH1 0x7 PUSH0 SWAP1 SLOAD SWAP1 PUSH2 0x100 EXP SWAP1 DIV PUSH4 0xFFFFFFFF AND PUSH1 0x8 SLOAD PUSH2 0xB45 JUMP JUMPDEST PUSH1 0x2 DUP2 SWAP1 SSTORE POP PUSH1 0x2 SLOAD SWAP2 POP POP SWAP2 SWAP1 POP JUMP JUMPDEST PUSH1 0xA SLOAD DUP2 JUMP JUMPDEST PUSH1 0x9 DUP1 SLOAD PUSH2 0x356 SWAP1 PUSH2 0x1832 JUMP JUMPDEST DUP1 PUSH1 0x1F ADD PUSH1 0x20 DUP1 SWAP2 DIV MUL PUSH1 0x20 ADD PUSH1 0x40 MLOAD SWAP1 DUP2 ADD PUSH1 0x40 MSTORE DUP1 SWAP3 SWAP2 SWAP1 DUP2 DUP2 MSTORE PUSH1 0x20 ADD DUP3 DUP1 SLOAD PUSH2 0x382 SWAP1 PUSH2 0x1832 JUMP JUMPDEST DUP1 ISZERO PUSH2 0x3CD JUMPI DUP1 PUSH1 0x1F LT PUSH2 0x3A4 JUMPI PUSH2 0x100 DUP1 DUP4 SLOAD DIV MUL DUP4 MSTORE SWAP2 PUSH1 0x20 ADD SWAP2 PUSH2 0x3CD JUMP JUMPDEST DUP3 ADD SWAP2 SWAP1 PUSH0 MSTORE PUSH1 0x20 PUSH0 KECCAK256 SWAP1 JUMPDEST DUP2 SLOAD DUP2 MSTORE SWAP1 PUSH1 0x1 ADD SWAP1 PUSH1 0x20 ADD DUP1 DUP4 GT PUSH2 0x3B0 JUMPI DUP3 SWAP1 SUB PUSH1 0x1F AND DUP3 ADD SWAP2 JUMPDEST POP POP POP POP POP DUP2 JUMP JUMPDEST PUSH1 0x1 PUSH0 SWAP1 SLOAD SWAP1 PUSH2 0x100 EXP SWAP1 DIV PUSH20 0xFFFFFFFFFFFFFFFFFFFFFFFFFFFFFFFFFFFFFFFF AND PUSH20 0xFFFFFFFFFFFFFFFFFFFFFFFFFFFFFFFFFFFFFFFF AND CALLER PUSH20 0xFFFFFFFFFFFFFFFFFFFFFFFFFFFFFFFFFFFFFFFF AND EQ PUSH2 0x464 JUMPI PUSH1 0x40 MLOAD PUSH32 0x8C379A000000000000000000000000000000000000000000000000000000000 DUP2 MSTORE PUSH1 0x4 ADD PUSH2 0x45B SWAP1 PUSH2 0x18AC JUMP JUMPDEST PUSH1 0x40 MLOAD DUP1 SWAP2 SUB SWAP1 REVERT JUMPDEST PUSH0 DUP1 PUSH0 SWAP1 SLOAD SWAP1 PUSH2 0x100 EXP SWAP1 DIV PUSH20 0xFFFFFFFFFFFFFFFFFFFFFFFFFFFFFFFFFFFFFFFF AND SWAP1 POP CALLER PUSH0 DUP1 PUSH2 0x100 EXP DUP2 SLOAD DUP2 PUSH20 0xFFFFFFFFFFFFFFFFFFFFFFFFFFFFFFFFFFFFFFFF MUL NOT AND SWAP1 DUP4 PUSH20 0xFFFFFFFFFFFFFFFFFFFFFFFFFFFFFFFFFFFFFFFF AND MUL OR SWAP1 SSTORE POP PUSH0 PUSH1 0x1 PUSH0 PUSH2 0x100 EXP DUP2 SLOAD DUP2 PUSH20 0xFFFFFFFFFFFFFFFFFFFFFFFFFFFFFFFFFFFFFFFF MUL NOT AND SWAP1 DUP4 PUSH20 0xFFFFFFFFFFFFFFFFFFFFFFFFFFFFFFFFFFFFFFFF AND MUL OR SWAP1 SSTORE POP CALLER PUSH20 0xFFFFFFFFFFFFFFFFFFFFFFFFFFFFFFFFFFFFFFFF AND DUP2 PUSH20 0xFFFFFFFFFFFFFFFFFFFFFFFFFFFFFFFFFFFFFFFF AND PUSH32 0x8BE0079C531659141344CD1FD0A4F28419497F9722A3DAAFE3B4186F6B6457E0 PUSH1 0x40 MLOAD PUSH1 0x40 MLOAD DUP1 SWAP2 SUB SWAP1 LOG3 POP JUMP JUMPDEST PUSH0 DUP1 PUSH0 SWAP1 SLOAD SWAP1 PUSH2 0x100 EXP SWAP1 DIV PUSH20 0xFFFFFFFFFFFFFFFFFFFFFFFFFFFFFFFFFFFFFFFF AND SWAP1 POP SWAP1 JUMP JUMPDEST PUSH1 0xB SLOAD DUP2 JUMP JUMPDEST PUSH1 0xC SLOAD DUP2 JUMP JUMPDEST PUSH2 0x59F PUSH2 0x695 JUMP JUMPDEST PUSH2 0x5A8 DUP2 PUSH2 0xC24 JUMP JUMPDEST POP JUMP JUMPDEST DUP3 PUSH1 0x2 SLOAD EQ PUSH2 0x5F1 JUMPI DUP3 PUSH1 0x40 MLOAD PUSH32 0xD068BF5B00000000000000000000000000000000000000000000000000000000 DUP2 MSTORE PUSH1 0x4 ADD PUSH2 0x5E8 SWAP2 SWAP1 PUSH2 0x1674 JUMP JUMPDEST PUSH1 0x40 MLOAD DUP1 SWAP2 SUB SWAP1 REVERT JUMPDEST DUP2 DUP1 PUSH1 0x20 ADD SWAP1 MLOAD DUP2 ADD SWAP1 PUSH2 0x605 SWAP2 SWAP1 PUSH2 0x1992 JUMP JUMPDEST PUSH1 0x9 PUSH0 PUSH1 0xA PUSH0 PUSH1 0xB PUSH0 PUSH1 0xC PUSH0 DUP9 SWAP2 SWAP1 POP SSTORE DUP8 SWAP2 SWAP1 POP SSTORE DUP7 SWAP2 SWAP1 POP SSTORE DUP6 SWAP2 SWAP1 POP SWAP1 DUP2 PUSH2 0x630 SWAP2 SWAP1 PUSH2 0x1BAF JUMP JUMPDEST POP POP POP POP POP DUP1 PUSH1 0x4 SWAP1 DUP2 PUSH2 0x644 SWAP2 SWAP1 PUSH2 0x1CE0 JUMP JUMPDEST POP DUP3 PUSH32 0x7CEE4EEECCE4C378BCABAC3921FE1EE240F2F7A24775769790937E3A8165C07 PUSH1 0x9 PUSH1 0xA SLOAD PUSH1 0xB SLOAD PUSH1 0xC SLOAD PUSH1 0x3 PUSH1 0x4 PUSH1 0x40 MLOAD PUSH2 0x688 SWAP7 SWAP6 SWAP5 SWAP4 SWAP3 SWAP2 SWAP1 PUSH2 0x1EC1 JUMP JUMPDEST PUSH1 0x40 MLOAD DUP1 SWAP2 SUB SWAP1 LOG2 POP POP POP JUMP JUMPDEST PUSH0 DUP1 SLOAD SWAP1 PUSH2 0x100 EXP SWAP1 DIV PUSH20 0xFFFFFFFFFFFFFFFFFFFFFFFFFFFFFFFFFFFFFFFF AND PUSH20 0xFFFFFFFFFFFFFFFFFFFFFFFFFFFFFFFFFFFFFFFF AND CALLER PUSH20 0xFFFFFFFFFFFFFFFFFFFFFFFFFFFFFFFFFFFFFFFF AND EQ PUSH2 0x722 JUMPI PUSH1 0x40 MLOAD PUSH32 0x8C379A000000000000000000000000000000000000000000000000000000000 DUP2 MSTORE PUSH1 0x4 ADD PUSH2 0x719 SWAP1 PUSH2 0x1F7F JUMP JUMPDEST PUSH1 0x40 MLOAD DUP1 SWAP2 SUB SWAP1 REVERT JUMPDEST JUMP JUMPDEST PUSH2 0x730 DUP3 PUSH0 DUP1 DUP5 PUSH2 0xD4E JUMP JUMPDEST POP POP JUMP JUMPDEST PUSH1 0x60 PUSH0 PUSH2 0x742 PUSH2 0x100 PUSH2 0xDF4 JUMP JUMPDEST SWAP1 POP PUSH2 0x78C PUSH1 0x40 MLOAD DUP1 PUSH1 0x40 ADD PUSH1 0x40 MSTORE DUP1 PUSH1 0xC DUP2 MSTORE PUSH1 0x20 ADD PUSH32 0x636F64654C6F636174696F6E0000000000000000000000000000000000000000 DUP2 MSTORE POP DUP3 PUSH2 0xE19 SWAP1 SWAP2 SWAP1 PUSH4 0xFFFFFFFF AND JUMP JUMPDEST PUSH2 0x7B4 DUP4 PUSH0 ADD MLOAD PUSH1 0x2 DUP2 GT ISZERO PUSH2 0x7A5 JUMPI PUSH2 0x7A4 PUSH2 0x1F9D JUMP JUMPDEST JUMPDEST DUP3 PUSH2 0xE41 SWAP1 SWAP2 SWAP1 PUSH4 0xFFFFFFFF AND JUMP JUMPDEST PUSH2 0x7FC PUSH1 0x40 MLOAD DUP1 PUSH1 0x40 ADD PUSH1 0x40 MSTORE DUP1 PUSH1 0x8 DUP2 MSTORE PUSH1 0x20 ADD PUSH32 0x6C616E6775616765000000000000000000000000000000000000000000000000 DUP2 MSTORE POP DUP3 PUSH2 0xE19 SWAP1 SWAP2 SWAP1 PUSH4 0xFFFFFFFF AND JUMP JUMPDEST PUSH2 0x824 DUP4 PUSH1 0x40 ADD MLOAD PUSH0 DUP2 GT ISZERO PUSH2 0x815 JUMPI PUSH2 0x814 PUSH2 0x1F9D JUMP JUMPDEST JUMPDEST DUP3 PUSH2 0xE41 SWAP1 SWAP2 SWAP1 PUSH4 0xFFFFFFFF AND JUMP JUMPDEST PUSH2 0x86C PUSH1 0x40 MLOAD DUP1 PUSH1 0x40 ADD PUSH1 0x40 MSTORE DUP1 PUSH1 0x6 DUP2 MSTORE PUSH1 0x20 ADD PUSH32 0x736F757263650000000000000000000000000000000000000000000000000000 DUP2 MSTORE POP DUP3 PUSH2 0xE19 SWAP1 SWAP2 SWAP1 PUSH4 0xFFFFFFFF AND JUMP JUMPDEST PUSH2 0x883 DUP4 PUSH1 0x60 ADD MLOAD DUP3 PUSH2 0xE19 SWAP1 SWAP2 SWAP1 PUSH4 0xFFFFFFFF AND JUMP JUMPDEST PUSH0 DUP4 PUSH1 0xA0 ADD MLOAD MLOAD GT ISZERO PUSH2 0x93D JUMPI PUSH2 0x8D8 PUSH1 0x40 MLOAD DUP1 PUSH1 0x40 ADD PUSH1 0x40 MSTORE DUP1 PUSH1 0x4 DUP2 MSTORE PUSH1 0x20 ADD PUSH32 0x6172677300000000000000000000000000000000000000000000000000000000 DUP2 MSTORE POP DUP3 PUSH2 0xE19 SWAP1 SWAP2 SWAP1 PUSH4 0xFFFFFFFF AND JUMP JUMPDEST PUSH2 0x8E1 DUP2 PUSH2 0xE90 JUMP JUMPDEST PUSH0 JUMPDEST DUP4 PUSH1 0xA0 ADD MLOAD MLOAD DUP2 LT ISZERO PUSH2 0x932 JUMPI PUSH2 0x921 DUP5 PUSH1 0xA0 ADD MLOAD DUP3 DUP2 MLOAD DUP2 LT PUSH2 0x90A JUMPI PUSH2 0x909 PUSH2 0x1FCA JUMP JUMPDEST JUMPDEST PUSH1 0x20 MUL PUSH1 0x20 ADD ADD MLOAD DUP4 PUSH2 0xE19 SWAP1 SWAP2 SWAP1 PUSH4 0xFFFFFFFF AND JUMP JUMPDEST DUP1 PUSH2 0x92B SWAP1 PUSH2 0x2024 JUMP JUMPDEST SWAP1 POP PUSH2 0x8E3 JUMP JUMPDEST POP PUSH2 0x93C DUP2 PUSH2 0xEB8 JUMP JUMPDEST JUMPDEST PUSH0 DUP4 PUSH1 0x80 ADD MLOAD MLOAD GT ISZERO PUSH2 0xA7C JUMPI PUSH0 PUSH1 0x2 DUP2 GT ISZERO PUSH2 0x95D JUMPI PUSH2 0x95C PUSH2 0x1F9D JUMP JUMPDEST JUMPDEST DUP4 PUSH1 0x20 ADD MLOAD PUSH1 0x2 DUP2 GT ISZERO PUSH2 0x974 JUMPI PUSH2 0x973 PUSH2 0x1F9D JUMP JUMPDEST JUMPDEST SUB PUSH2 0x9AB JUMPI PUSH1 0x40 MLOAD PUSH32 0xA80D31F700000000000000000000000000000000000000000000000000000000 DUP2 MSTORE PUSH1 0x4 ADD PUSH1 0x40 MLOAD DUP1 SWAP2 SUB SWAP1 REVERT JUMPDEST PUSH2 0x9F3 PUSH1 0x40 MLOAD DUP1 PUSH1 0x40 ADD PUSH1 0x40 MSTORE DUP1 PUSH1 0xF DUP2 MSTORE PUSH1 0x20 ADD PUSH32 0x736563726574734C6F636174696F6E0000000000000000000000000000000000 DUP2 MSTORE POP DUP3 PUSH2 0xE19 SWAP1 SWAP2 SWAP1 PUSH4 0xFFFFFFFF AND JUMP JUMPDEST PUSH2 0xA1C DUP4 PUSH1 0x20 ADD MLOAD PUSH1 0x2 DUP2 GT ISZERO PUSH2 0xA0D JUMPI PUSH2 0xA0C PUSH2 0x1F9D JUMP JUMPDEST JUMPDEST DUP3 PUSH2 0xE41 SWAP1 SWAP2 SWAP1 PUSH4 0xFFFFFFFF AND JUMP JUMPDEST PUSH2 0xA64 PUSH1 0x40 MLOAD DUP1 PUSH1 0x40 ADD PUSH1 0x40 MSTORE DUP1 PUSH1 0x7 DUP2 MSTORE PUSH1 0x20 ADD PUSH32 0x7365637265747300000000000000000000000000000000000000000000000000 DUP2 MSTORE POP DUP3 PUSH2 0xE19 SWAP1 SWAP2 SWAP1 PUSH4 0xFFFFFFFF AND JUMP JUMPDEST PUSH2 0xA7B DUP4 PUSH1 0x80 ADD MLOAD DUP3 PUSH2 0xEE0 SWAP1 SWAP2 SWAP1 PUSH4 0xFFFFFFFF AND JUMP JUMPDEST JUMPDEST PUSH0 DUP4 PUSH1 0xC0 ADD MLOAD MLOAD GT ISZERO PUSH2 0xB36 JUMPI PUSH2 0xAD1 PUSH1 0x40 MLOAD DUP1 PUSH1 0x40 ADD PUSH1 0x40 MSTORE DUP1 PUSH1 0x9 DUP2 MSTORE PUSH1 0x20 ADD PUSH32 0x6279746573417267730000000000000000000000000000000000000000000000 DUP2 MSTORE POP DUP3 PUSH2 0xE19 SWAP1 SWAP2 SWAP1 PUSH4 0xFFFFFFFF AND JUMP JUMPDEST PUSH2 0xADA DUP2 PUSH2 0xE90 JUMP JUMPDEST PUSH0 JUMPDEST DUP4 PUSH1 0xC0 ADD MLOAD MLOAD DUP2 LT ISZERO PUSH2 0xB2B JUMPI PUSH2 0xB1A DUP5 PUSH1 0xC0 ADD MLOAD DUP3 DUP2 MLOAD DUP2 LT PUSH2 0xB03 JUMPI PUSH2 0xB02 PUSH2 0x1FCA JUMP JUMPDEST JUMPDEST PUSH1 0x20 MUL PUSH1 0x20 ADD ADD MLOAD DUP4 PUSH2 0xEE0 SWAP1 SWAP2 SWAP1 PUSH4 0xFFFFFFFF AND JUMP JUMPDEST DUP1 PUSH2 0xB24 SWAP1 PUSH2 0x2024 JUMP JUMPDEST SWAP1 POP PUSH2 0xADC JUMP JUMPDEST POP PUSH2 0xB35 DUP2 PUSH2 0xEB8 JUMP JUMPDEST JUMPDEST DUP1 PUSH0 ADD MLOAD PUSH0 ADD MLOAD SWAP2 POP POP SWAP2 SWAP1 POP JUMP JUMPDEST PUSH0 DUP1 PUSH32 0x0 PUSH20 0xFFFFFFFFFFFFFFFFFFFFFFFFFFFFFFFFFFFFFFFF AND PUSH4 0x461D2762 DUP7 DUP9 PUSH1 0x1 DUP9 DUP9 PUSH1 0x40 MLOAD DUP7 PUSH4 0xFFFFFFFF AND PUSH1 0xE0 SHL DUP2 MSTORE PUSH1 0x4 ADD PUSH2 0xBA9 SWAP6 SWAP5 SWAP4 SWAP3 SWAP2 SWAP1 PUSH2 0x20EC JUMP JUMPDEST PUSH1 0x20 PUSH1 0x40 MLOAD DUP1 DUP4 SUB DUP2 PUSH0 DUP8 GAS CALL ISZERO DUP1 ISZERO PUSH2 0xBC5 JUMPI RETURNDATASIZE PUSH0 DUP1 RETURNDATACOPY RETURNDATASIZE PUSH0 REVERT JUMPDEST POP POP POP POP PUSH1 0x40 MLOAD RETURNDATASIZE PUSH1 0x1F NOT PUSH1 0x1F DUP3 ADD AND DUP3 ADD DUP1 PUSH1 0x40 MSTORE POP DUP2 ADD SWAP1 PUSH2 0xBE9 SWAP2 SWAP1 PUSH2 0x2158 JUMP JUMPDEST SWAP1 POP DUP1 PUSH32 0x1131472297A800FEE664D1D89CFA8F7676FF07189ECC53F80BBB5F4969099DB8 PUSH1 0x40 MLOAD PUSH1 0x40 MLOAD DUP1 SWAP2 SUB SWAP1 LOG2 DUP1 SWAP2 POP POP SWAP5 SWAP4 POP POP POP POP JUMP JUMPDEST CALLER PUSH20 0xFFFFFFFFFFFFFFFFFFFFFFFFFFFFFFFFFFFFFFFF AND DUP2 PUSH20 0xFFFFFFFFFFFFFFFFFFFFFFFFFFFFFFFFFFFFFFFF AND SUB PUSH2 0xC92 JUMPI PUSH1 0x40 MLOAD PUSH32 0x8C379A000000000000000000000000000000000000000000000000000000000 DUP2 MSTORE PUSH1 0x4 ADD PUSH2 0xC89 SWAP1 PUSH2 0x21CD JUMP JUMPDEST PUSH1 0x40 MLOAD DUP1 SWAP2 SUB SWAP1 REVERT JUMPDEST DUP1 PUSH1 0x1 PUSH0 PUSH2 0x100 EXP DUP2 SLOAD DUP2 PUSH20 0xFFFFFFFFFFFFFFFFFFFFFFFFFFFFFFFFFFFFFFFF MUL NOT AND SWAP1 DUP4 PUSH20 0xFFFFFFFFFFFFFFFFFFFFFFFFFFFFFFFFFFFFFFFF AND MUL OR SWAP1 SSTORE POP DUP1 PUSH20 0xFFFFFFFFFFFFFFFFFFFFFFFFFFFFFFFFFFFFFFFF AND PUSH0 DUP1 SLOAD SWAP1 PUSH2 0x100 EXP SWAP1 DIV PUSH20 0xFFFFFFFFFFFFFFFFFFFFFFFFFFFFFFFFFFFFFFFF AND PUSH20 0xFFFFFFFFFFFFFFFFFFFFFFFFFFFFFFFFFFFFFFFF AND PUSH32 0xED8889F560326EB138920D842192F0EB3DD22B4F139C87A2C57538E05BAE1278 PUSH1 0x40 MLOAD PUSH1 0x40 MLOAD DUP1 SWAP2 SUB SWAP1 LOG3 POP JUMP JUMPDEST PUSH0 DUP2 MLOAD SUB PUSH2 0xD88 JUMPI PUSH1 0x40 MLOAD PUSH32 0x22CE3EDD00000000000000000000000000000000000000000000000000000000 DUP2 MSTORE PUSH1 0x4 ADD PUSH1 0x40 MLOAD DUP1 SWAP2 SUB SWAP1 REVERT JUMPDEST DUP3 DUP5 PUSH0 ADD SWAP1 PUSH1 0x2 DUP2 GT ISZERO PUSH2 0xD9F JUMPI PUSH2 0xD9E PUSH2 0x1F9D JUMP JUMPDEST JUMPDEST SWAP1 DUP2 PUSH1 0x2 DUP2 GT ISZERO PUSH2 0xDB3 JUMPI PUSH2 0xDB2 PUSH2 0x1F9D JUMP JUMPDEST JUMPDEST DUP2 MSTORE POP POP DUP2 DUP5 PUSH1 0x40 ADD SWAP1 PUSH0 DUP2 GT ISZERO PUSH2 0xDCE JUMPI PUSH2 0xDCD PUSH2 0x1F9D JUMP JUMPDEST JUMPDEST SWAP1 DUP2 PUSH0 DUP2 GT ISZERO PUSH2 0xDE1 JUMPI PUSH2 0xDE0 PUSH2 0x1F9D JUMP JUMPDEST JUMPDEST DUP2 MSTORE POP POP DUP1 DUP5 PUSH1 0x60 ADD DUP2 SWAP1 MSTORE POP POP POP POP POP JUMP JUMPDEST PUSH2 0xDFC PUSH2 0x13BD JUMP JUMPDEST PUSH2 0xE09 DUP2 PUSH0 ADD MLOAD DUP4 PUSH2 0xF08 JUMP JUMPDEST POP PUSH0 DUP2 PUSH1 0x20 ADD DUP2 DUP2 MSTORE POP POP SWAP2 SWAP1 POP JUMP JUMPDEST PUSH2 0xE26 DUP3 PUSH1 0x3 DUP4 MLOAD PUSH2 0xF7E JUMP JUMPDEST PUSH2 0xE3C DUP2 DUP4 PUSH0 ADD MLOAD PUSH2 0x111E SWAP1 SWAP2 SWAP1 PUSH4 0xFFFFFFFF AND JUMP JUMPDEST POP POP POP JUMP JUMPDEST PUSH2 0xE62 PUSH1 0x2 PUSH1 0x5 PUSH1 0x6 PUSH1 0xFF AND SWAP1 SHL OR DUP4 PUSH0 ADD MLOAD PUSH2 0x113A SWAP1 SWAP2 SWAP1 PUSH4 0xFFFFFFFF AND JUMP JUMPDEST POP PUSH2 0xE8C DUP3 DUP3 PUSH1 0x40 MLOAD PUSH1 0x20 ADD PUSH2 0xE78 SWAP2 SWAP1 PUSH2 0x16A5 JUMP JUMPDEST PUSH1 0x40 MLOAD PUSH1 0x20 DUP2 DUP4 SUB SUB DUP2 MSTORE SWAP1 PUSH1 0x40 MSTORE PUSH2 0xEE0 JUMP JUMPDEST POP POP JUMP JUMPDEST PUSH2 0xE9B DUP2 PUSH1 0x4 PUSH2 0x11A1 JUMP JUMPDEST PUSH1 0x1 DUP2 PUSH1 0x20 ADD DUP2 DUP2 MLOAD PUSH2 0xEAE SWAP2 SWAP1 PUSH2 0x21EB JUMP JUMPDEST SWAP2 POP DUP2 DUP2 MSTORE POP POP POP JUMP JUMPDEST PUSH2 0xEC3 DUP2 PUSH1 0x7 PUSH2 0x11A1 JUMP JUMPDEST PUSH1 0x1 DUP2 PUSH1 0x20 ADD DUP2 DUP2 MLOAD PUSH2 0xED6 SWAP2 SWAP1 PUSH2 0x221E JUMP JUMPDEST SWAP2 POP DUP2 DUP2 MSTORE POP POP POP JUMP JUMPDEST PUSH2 0xEED DUP3 PUSH1 0x2 DUP4 MLOAD PUSH2 0xF7E JUMP JUMPDEST PUSH2 0xF03 DUP2 DUP4 PUSH0 ADD MLOAD PUSH2 0x111E SWAP1 SWAP2 SWAP1 PUSH4 0xFFFFFFFF AND JUMP JUMPDEST POP POP POP JUMP JUMPDEST PUSH2 0xF10 PUSH2 0x13DC JUMP JUMPDEST PUSH0 PUSH1 0x20 DUP4 PUSH2 0xF1E SWAP2 SWAP1 PUSH2 0x227E JUMP JUMPDEST EQ PUSH2 0xF4A JUMPI PUSH1 0x20 DUP3 PUSH2 0xF30 SWAP2 SWAP1 PUSH2 0x227E JUMP JUMPDEST PUSH1 0x20 PUSH2 0xF3C SWAP2 SWAP1 PUSH2 0x221E JUMP JUMPDEST DUP3 PUSH2 0xF47 SWAP2 SWAP1 PUSH2 0x21EB JUMP JUMPDEST SWAP2 POP JUMPDEST DUP2 DUP4 PUSH1 0x20 ADD DUP2 DUP2 MSTORE POP POP PUSH1 0x40 MLOAD DUP1 DUP5 MSTORE PUSH0 DUP2 MSTORE DUP3 DUP2 ADD PUSH1 0x20 ADD DUP2 DUP2 LT ISZERO PUSH2 0xF6F JUMPI PUSH0 DUP1 REVERT JUMPDEST DUP1 PUSH1 0x40 MSTORE POP POP DUP3 SWAP1 POP SWAP3 SWAP2 POP POP JUMP JUMPDEST PUSH1 0x17 DUP2 PUSH8 0xFFFFFFFFFFFFFFFF AND GT PUSH2 0xFB8 JUMPI PUSH2 0xFB2 DUP2 PUSH1 0x5 DUP5 PUSH1 0xFF AND SWAP1 SHL PUSH1 0xFF AND OR DUP5 PUSH0 ADD MLOAD PUSH2 0x113A SWAP1 SWAP2 SWAP1 PUSH4 0xFFFFFFFF AND JUMP JUMPDEST POP PUSH2 0x1119 JUMP JUMPDEST PUSH1 0xFF DUP2 PUSH8 0xFFFFFFFFFFFFFFFF AND GT PUSH2 0x1014 JUMPI PUSH2 0xFEA PUSH1 0x18 PUSH1 0x5 DUP5 PUSH1 0xFF AND SWAP1 SHL OR DUP5 PUSH0 ADD MLOAD PUSH2 0x113A SWAP1 SWAP2 SWAP1 PUSH4 0xFFFFFFFF AND JUMP JUMPDEST POP PUSH2 0x100E DUP2 PUSH8 0xFFFFFFFFFFFFFFFF AND PUSH1 0x1 DUP6 PUSH0 ADD MLOAD PUSH2 0x11C6 SWAP1 SWAP3 SWAP2 SWAP1 PUSH4 0xFFFFFFFF AND JUMP JUMPDEST POP PUSH2 0x1118 JUMP JUMPDEST PUSH2 0xFFFF DUP2 PUSH8 0xFFFFFFFFFFFFFFFF AND GT PUSH2 0x1071 JUMPI PUSH2 0x1047 PUSH1 0x19 PUSH1 0x5 DUP5 PUSH1 0xFF AND SWAP1 SHL OR DUP5 PUSH0 ADD MLOAD PUSH2 0x113A SWAP1 SWAP2 SWAP1 PUSH4 0xFFFFFFFF AND JUMP JUMPDEST POP PUSH2 0x106B DUP2 PUSH8 0xFFFFFFFFFFFFFFFF AND PUSH1 0x2 DUP6 PUSH0 ADD MLOAD PUSH2 0x11C6 SWAP1 SWAP3 SWAP2 SWAP1 PUSH4 0xFFFFFFFF AND JUMP JUMPDEST POP PUSH2 0x1117 JUMP JUMPDEST PUSH4 0xFFFFFFFF DUP2 PUSH8 0xFFFFFFFFFFFFFFFF AND GT PUSH2 0x10D0 JUMPI PUSH2 0x10A6 PUSH1 0x1A PUSH1 0x5 DUP5 PUSH1 0xFF AND SWAP1 SHL OR DUP5 PUSH0 ADD MLOAD PUSH2 0x113A SWAP1 SWAP2 SWAP1 PUSH4 0xFFFFFFFF AND JUMP JUMPDEST POP PUSH2 0x10CA DUP2 PUSH8 0xFFFFFFFFFFFFFFFF AND PUSH1 0x4 DUP6 PUSH0 ADD MLOAD PUSH2 0x11C6 SWAP1 SWAP3 SWAP2 SWAP1 PUSH4 0xFFFFFFFF AND JUMP JUMPDEST POP PUSH2 0x1116 JUMP JUMPDEST PUSH2 0x10F0 PUSH1 0x1B PUSH1 0x5 DUP5 PUSH1 0xFF AND SWAP1 SHL OR DUP5 PUSH0 ADD MLOAD PUSH2 0x113A SWAP1 SWAP2 SWAP1 PUSH4 0xFFFFFFFF AND JUMP JUMPDEST POP PUSH2 0x1114 DUP2 PUSH8 0xFFFFFFFFFFFFFFFF AND PUSH1 0x8 DUP6 PUSH0 ADD MLOAD PUSH2 0x11C6 SWAP1 SWAP3 SWAP2 SWAP1 PUSH4 0xFFFFFFFF AND JUMP JUMPDEST POP JUMPDEST JUMPDEST JUMPDEST JUMPDEST POP POP POP JUMP JUMPDEST PUSH2 0x1126 PUSH2 0x13DC JUMP JUMPDEST PUSH2 0x1132 DUP4 DUP4 DUP5 MLOAD PUSH2 0x124F JUMP JUMPDEST SWAP1 POP SWAP3 SWAP2 POP POP JUMP JUMPDEST PUSH2 0x1142 PUSH2 0x13DC JUMP JUMPDEST PUSH0 DUP4 PUSH0 ADD MLOAD MLOAD SWAP1 POP PUSH0 PUSH1 0x1 DUP3 PUSH2 0x1158 SWAP2 SWAP1 PUSH2 0x21EB JUMP JUMPDEST SWAP1 POP DUP5 PUSH1 0x20 ADD MLOAD DUP3 LT PUSH2 0x117C JUMPI PUSH2 0x117B DUP6 PUSH1 0x2 DUP4 PUSH2 0x1176 SWAP2 SWAP1 PUSH2 0x22AE JUMP JUMPDEST PUSH2 0x132C JUMP JUMPDEST JUMPDEST DUP5 MLOAD PUSH1 0x20 DUP4 DUP3 ADD ADD DUP6 DUP2 MSTORE8 DUP2 MLOAD DUP4 GT ISZERO PUSH2 0x1194 JUMPI DUP3 DUP3 MSTORE JUMPDEST POP POP DUP5 SWAP3 POP POP POP SWAP3 SWAP2 POP POP JUMP JUMPDEST PUSH2 0x11C1 PUSH1 0x1F PUSH1 0x5 DUP4 PUSH1 0xFF AND SWAP1 SHL OR DUP4 PUSH0 ADD MLOAD PUSH2 0x113A SWAP1 SWAP2 SWAP1 PUSH4 0xFFFFFFFF AND JUMP JUMPDEST POP POP POP JUMP JUMPDEST PUSH2 0x11CE PUSH2 0x13DC JUMP JUMPDEST PUSH0 DUP5 PUSH0 ADD MLOAD MLOAD SWAP1 POP PUSH0 DUP2 DUP5 PUSH2 0x11E3 SWAP2 SWAP1 PUSH2 0x21EB JUMP JUMPDEST SWAP1 POP DUP6 PUSH1 0x20 ADD MLOAD DUP2 GT ISZERO PUSH2 0x1208 JUMPI PUSH2 0x1207 DUP7 PUSH1 0x2 DUP4 PUSH2 0x1202 SWAP2 SWAP1 PUSH2 0x22AE JUMP JUMPDEST PUSH2 0x132C JUMP JUMPDEST JUMPDEST PUSH0 PUSH1 0x1 DUP6 PUSH2 0x100 PUSH2 0x1219 SWAP2 SWAP1 PUSH2 0x241E JUMP JUMPDEST PUSH2 0x1223 SWAP2 SWAP1 PUSH2 0x221E JUMP JUMPDEST SWAP1 POP DUP7 MLOAD DUP3 DUP2 ADD DUP8 DUP4 NOT DUP3 MLOAD AND OR DUP2 MSTORE DUP2 MLOAD DUP5 GT ISZERO PUSH2 0x1240 JUMPI DUP4 DUP3 MSTORE JUMPDEST POP POP DUP7 SWAP4 POP POP POP POP SWAP4 SWAP3 POP POP POP JUMP JUMPDEST PUSH2 0x1257 PUSH2 0x13DC JUMP JUMPDEST DUP3 MLOAD DUP3 GT ISZERO PUSH2 0x1264 JUMPI PUSH0 DUP1 REVERT JUMPDEST PUSH0 DUP5 PUSH0 ADD MLOAD MLOAD SWAP1 POP PUSH0 DUP4 DUP3 PUSH2 0x1279 SWAP2 SWAP1 PUSH2 0x21EB JUMP JUMPDEST SWAP1 POP DUP6 PUSH1 0x20 ADD MLOAD DUP2 GT ISZERO PUSH2 0x129E JUMPI PUSH2 0x129D DUP7 PUSH1 0x2 DUP4 PUSH2 0x1298 SWAP2 SWAP1 PUSH2 0x22AE JUMP JUMPDEST PUSH2 0x132C JUMP JUMPDEST JUMPDEST PUSH0 DUP1 DUP8 MLOAD DUP1 MLOAD DUP6 PUSH1 0x20 DUP4 ADD ADD SWAP4 POP DUP1 DUP6 GT ISZERO PUSH2 0x12B8 JUMPI DUP5 DUP3 MSTORE JUMPDEST PUSH1 0x20 DUP10 ADD SWAP3 POP POP POP JUMPDEST PUSH1 0x20 DUP7 LT PUSH2 0x12FF JUMPI DUP1 MLOAD DUP3 MSTORE PUSH1 0x20 DUP3 PUSH2 0x12DA SWAP2 SWAP1 PUSH2 0x21EB JUMP JUMPDEST SWAP2 POP PUSH1 0x20 DUP2 PUSH2 0x12E9 SWAP2 SWAP1 PUSH2 0x21EB JUMP JUMPDEST SWAP1 POP PUSH1 0x20 DUP7 PUSH2 0x12F8 SWAP2 SWAP1 PUSH2 0x221E JUMP JUMPDEST SWAP6 POP PUSH2 0x12C1 JUMP JUMPDEST PUSH0 PUSH1 0x1 DUP8 PUSH1 0x20 SUB PUSH2 0x100 EXP SUB SWAP1 POP DUP1 NOT DUP3 MLOAD AND DUP2 DUP5 MLOAD AND DUP2 DUP2 OR DUP6 MSTORE POP POP POP DUP8 SWAP5 POP POP POP POP POP SWAP4 SWAP3 POP POP POP JUMP JUMPDEST PUSH0 DUP3 PUSH0 ADD MLOAD SWAP1 POP PUSH2 0x133D DUP4 DUP4 PUSH2 0xF08 JUMP JUMPDEST POP PUSH2 0x1348 DUP4 DUP3 PUSH2 0x111E JUMP JUMPDEST POP POP POP POP JUMP JUMPDEST PUSH1 0x40 MLOAD DUP1 PUSH1 0xE0 ADD PUSH1 0x40 MSTORE DUP1 PUSH0 PUSH1 0x2 DUP2 GT ISZERO PUSH2 0x136C JUMPI PUSH2 0x136B PUSH2 0x1F9D JUMP JUMPDEST JUMPDEST DUP2 MSTORE PUSH1 0x20 ADD PUSH0 PUSH1 0x2 DUP2 GT ISZERO PUSH2 0x1384 JUMPI PUSH2 0x1383 PUSH2 0x1F9D JUMP JUMPDEST JUMPDEST DUP2 MSTORE PUSH1 0x20 ADD PUSH0 DUP1 DUP2 GT ISZERO PUSH2 0x139B JUMPI PUSH2 0x139A PUSH2 0x1F9D JUMP JUMPDEST JUMPDEST DUP2 MSTORE PUSH1 0x20 ADD PUSH1 0x60 DUP2 MSTORE PUSH1 0x20 ADD PUSH1 0x60 DUP2 MSTORE PUSH1 0x20 ADD PUSH1 0x60 DUP2 MSTORE PUSH1 0x20 ADD PUSH1 0x60 DUP2 MSTORE POP SWAP1 JUMP JUMPDEST PUSH1 0x40 MLOAD DUP1 PUSH1 0x40 ADD PUSH1 0x40 MSTORE DUP1 PUSH2 0x13D0 PUSH2 0x13DC JUMP JUMPDEST DUP2 MSTORE PUSH1 0x20 ADD PUSH0 DUP2 MSTORE POP SWAP1 JUMP JUMPDEST PUSH1 0x40 MLOAD DUP1 PUSH1 0x40 ADD PUSH1 0x40 MSTORE DUP1 PUSH1 0x60 DUP2 MSTORE PUSH1 0x20 ADD PUSH0 DUP2 MSTORE POP SWAP1 JUMP JUMPDEST PUSH0 PUSH1 0x40 MLOAD SWAP1 POP SWAP1 JUMP JUMPDEST PUSH0 DUP1 REVERT JUMPDEST PUSH0 DUP1 REVERT JUMPDEST PUSH0 DUP2 SWAP1 POP SWAP2 SWAP1 POP JUMP JUMPDEST PUSH2 0x1418 DUP2 PUSH2 0x1406 JUMP JUMPDEST DUP2 EQ PUSH2 0x1422 JUMPI PUSH0 DUP1 REVERT JUMPDEST POP JUMP JUMPDEST PUSH0 DUP2 CALLDATALOAD SWAP1 POP PUSH2 0x1433 DUP2 PUSH2 0x140F JUMP JUMPDEST SWAP3 SWAP2 POP POP JUMP JUMPDEST PUSH0 DUP1 REVERT JUMPDEST PUSH0 DUP1 REVERT JUMPDEST PUSH0 PUSH1 0x1F NOT PUSH1 0x1F DUP4 ADD AND SWAP1 POP SWAP2 SWAP1 POP JUMP JUMPDEST PUSH32 0x4E487B7100000000000000000000000000000000000000000000000000000000 PUSH0 MSTORE PUSH1 0x41 PUSH1 0x4 MSTORE PUSH1 0x24 PUSH0 REVERT JUMPDEST PUSH2 0x1487 DUP3 PUSH2 0x1441 JUMP JUMPDEST DUP2 ADD DUP2 DUP2 LT PUSH8 0xFFFFFFFFFFFFFFFF DUP3 GT OR ISZERO PUSH2 0x14A6 JUMPI PUSH2 0x14A5 PUSH2 0x1451 JUMP JUMPDEST JUMPDEST DUP1 PUSH1 0x40 MSTORE POP POP POP JUMP JUMPDEST PUSH0 PUSH2 0x14B8 PUSH2 0x13F5 JUMP JUMPDEST SWAP1 POP PUSH2 0x14C4 DUP3 DUP3 PUSH2 0x147E JUMP JUMPDEST SWAP2 SWAP1 POP JUMP JUMPDEST PUSH0 PUSH8 0xFFFFFFFFFFFFFFFF DUP3 GT ISZERO PUSH2 0x14E3 JUMPI PUSH2 0x14E2 PUSH2 0x1451 JUMP JUMPDEST JUMPDEST PUSH2 0x14EC DUP3 PUSH2 0x1441 JUMP JUMPDEST SWAP1 POP PUSH1 0x20 DUP2 ADD SWAP1 POP SWAP2 SWAP1 POP JUMP JUMPDEST DUP3 DUP2 DUP4 CALLDATACOPY PUSH0 DUP4 DUP4 ADD MSTORE POP POP POP JUMP JUMPDEST PUSH0 PUSH2 0x1519 PUSH2 0x1514 DUP5 PUSH2 0x14C9 JUMP JUMPDEST PUSH2 0x14AF JUMP JUMPDEST SWAP1 POP DUP3 DUP2 MSTORE PUSH1 0x20 DUP2 ADD DUP5 DUP5 DUP5 ADD GT ISZERO PUSH2 0x1535 JUMPI PUSH2 0x1534 PUSH2 0x143D JUMP JUMPDEST JUMPDEST PUSH2 0x1540 DUP5 DUP3 DUP6 PUSH2 0x14F9 JUMP JUMPDEST POP SWAP4 SWAP3 POP POP POP JUMP JUMPDEST PUSH0 DUP3 PUSH1 0x1F DUP4 ADD SLT PUSH2 0x155C JUMPI PUSH2 0x155B PUSH2 0x1439 JUMP JUMPDEST JUMPDEST DUP2 CALLDATALOAD PUSH2 0x156C DUP5 DUP3 PUSH1 0x20 DUP7 ADD PUSH2 0x1507 JUMP JUMPDEST SWAP2 POP POP SWAP3 SWAP2 POP POP JUMP JUMPDEST PUSH0 DUP1 PUSH0 PUSH1 0x60 DUP5 DUP7 SUB SLT ISZERO PUSH2 0x158C JUMPI PUSH2 0x158B PUSH2 0x13FE JUMP JUMPDEST JUMPDEST PUSH0 PUSH2 0x1599 DUP7 DUP3 DUP8 ADD PUSH2 0x1425 JUMP JUMPDEST SWAP4 POP POP PUSH1 0x20 DUP5 ADD CALLDATALOAD PUSH8 0xFFFFFFFFFFFFFFFF DUP2 GT ISZERO PUSH2 0x15BA JUMPI PUSH2 0x15B9 PUSH2 0x1402 JUMP JUMPDEST JUMPDEST PUSH2 0x15C6 DUP7 DUP3 DUP8 ADD PUSH2 0x1548 JUMP JUMPDEST SWAP3 POP POP PUSH1 0x40 DUP5 ADD CALLDATALOAD PUSH8 0xFFFFFFFFFFFFFFFF DUP2 GT ISZERO PUSH2 0x15E7 JUMPI PUSH2 0x15E6 PUSH2 0x1402 JUMP JUMPDEST JUMPDEST PUSH2 0x15F3 DUP7 DUP3 DUP8 ADD PUSH2 0x1548 JUMP JUMPDEST SWAP2 POP POP SWAP3 POP SWAP3 POP SWAP3 JUMP JUMPDEST PUSH0 PUSH8 0xFFFFFFFFFFFFFFFF DUP3 AND SWAP1 POP SWAP2 SWAP1 POP JUMP JUMPDEST PUSH2 0x1619 DUP2 PUSH2 0x15FD JUMP JUMPDEST DUP2 EQ PUSH2 0x1623 JUMPI PUSH0 DUP1 REVERT JUMPDEST POP JUMP JUMPDEST PUSH0 DUP2 CALLDATALOAD SWAP1 POP PUSH2 0x1634 DUP2 PUSH2 0x1610 JUMP JUMPDEST SWAP3 SWAP2 POP POP JUMP JUMPDEST PUSH0 PUSH1 0x20 DUP3 DUP5 SUB SLT ISZERO PUSH2 0x164F JUMPI PUSH2 0x164E PUSH2 0x13FE JUMP JUMPDEST JUMPDEST PUSH0 PUSH2 0x165C DUP5 DUP3 DUP6 ADD PUSH2 0x1626 JUMP JUMPDEST SWAP2 POP POP SWAP3 SWAP2 POP POP JUMP JUMPDEST PUSH2 0x166E DUP2 PUSH2 0x1406 JUMP JUMPDEST DUP3 MSTORE POP POP JUMP JUMPDEST PUSH0 PUSH1 0x20 DUP3 ADD SWAP1 POP PUSH2 0x1687 PUSH0 DUP4 ADD DUP5 PUSH2 0x1665 JUMP JUMPDEST SWAP3 SWAP2 POP POP JUMP JUMPDEST PUSH0 DUP2 SWAP1 POP SWAP2 SWAP1 POP JUMP JUMPDEST PUSH2 0x169F DUP2 PUSH2 0x168D JUMP JUMPDEST DUP3 MSTORE POP POP JUMP JUMPDEST PUSH0 PUSH1 0x20 DUP3 ADD SWAP1 POP PUSH2 0x16B8 PUSH0 DUP4 ADD DUP5 PUSH2 0x1696 JUMP JUMPDEST SWAP3 SWAP2 POP POP JUMP JUMPDEST PUSH0 DUP2 MLOAD SWAP1 POP SWAP2 SWAP1 POP JUMP JUMPDEST PUSH0 DUP3 DUP3 MSTORE PUSH1 0x20 DUP3 ADD SWAP1 POP SWAP3 SWAP2 POP POP JUMP JUMPDEST PUSH0 JUMPDEST DUP4 DUP2 LT ISZERO PUSH2 0x16F5 JUMPI DUP1 DUP3 ADD MLOAD DUP2 DUP5 ADD MSTORE PUSH1 0x20 DUP2 ADD SWAP1 POP PUSH2 0x16DA JUMP JUMPDEST PUSH0 DUP5 DUP5 ADD MSTORE POP POP POP POP JUMP JUMPDEST PUSH0 PUSH2 0x170A DUP3 PUSH2 0x16BE JUMP JUMPDEST PUSH2 0x1714 DUP2 DUP6 PUSH2 0x16C8 JUMP JUMPDEST SWAP4 POP PUSH2 0x1724 DUP2 DUP6 PUSH1 0x20 DUP7 ADD PUSH2 0x16D8 JUMP JUMPDEST PUSH2 0x172D DUP2 PUSH2 0x1441 JUMP JUMPDEST DUP5 ADD SWAP2 POP POP SWAP3 SWAP2 POP POP JUMP JUMPDEST PUSH0 PUSH1 0x20 DUP3 ADD SWAP1 POP DUP2 DUP2 SUB PUSH0 DUP4 ADD MSTORE PUSH2 0x1750 DUP2 DUP5 PUSH2 0x1700 JUMP JUMPDEST SWAP1 POP SWAP3 SWAP2 POP POP JUMP JUMPDEST PUSH0 PUSH20 0xFFFFFFFFFFFFFFFFFFFFFFFFFFFFFFFFFFFFFFFF DUP3 AND SWAP1 POP SWAP2 SWAP1 POP JUMP JUMPDEST PUSH0 PUSH2 0x1781 DUP3 PUSH2 0x1758 JUMP JUMPDEST SWAP1 POP SWAP2 SWAP1 POP JUMP JUMPDEST PUSH2 0x1791 DUP2 PUSH2 0x1777 JUMP JUMPDEST DUP3 MSTORE POP POP JUMP JUMPDEST PUSH0 PUSH1 0x20 DUP3 ADD SWAP1 POP PUSH2 0x17AA PUSH0 DUP4 ADD DUP5 PUSH2 0x1788 JUMP JUMPDEST SWAP3 SWAP2 POP POP JUMP JUMPDEST PUSH2 0x17B9 DUP2 PUSH2 0x1777 JUMP JUMPDEST DUP2 EQ PUSH2 0x17C3 JUMPI PUSH0 DUP1 REVERT JUMPDEST POP JUMP JUMPDEST PUSH0 DUP2 CALLDATALOAD SWAP1 POP PUSH2 0x17D4 DUP2 PUSH2 0x17B0 JUMP JUMPDEST SWAP3 SWAP2 POP POP JUMP JUMPDEST PUSH0 PUSH1 0x20 DUP3 DUP5 SUB SLT ISZERO PUSH2 0x17EF JUMPI PUSH2 0x17EE PUSH2 0x13FE JUMP JUMPDEST JUMPDEST PUSH0 PUSH2 0x17FC DUP5 DUP3 DUP6 ADD PUSH2 0x17C6 JUMP JUMPDEST SWAP2 POP POP SWAP3 SWAP2 POP POP JUMP JUMPDEST PUSH32 0x4E487B7100000000000000000000000000000000000000000000000000000000 PUSH0 MSTORE PUSH1 0x22 PUSH1 0x4 MSTORE PUSH1 0x24 PUSH0 REVERT JUMPDEST PUSH0 PUSH1 0x2 DUP3 DIV SWAP1 POP PUSH1 0x1 DUP3 AND DUP1 PUSH2 0x1849 JUMPI PUSH1 0x7F DUP3 AND SWAP2 POP JUMPDEST PUSH1 0x20 DUP3 LT DUP2 SUB PUSH2 0x185C JUMPI PUSH2 0x185B PUSH2 0x1805 JUMP JUMPDEST JUMPDEST POP SWAP2 SWAP1 POP JUMP JUMPDEST PUSH32 0x4D7573742062652070726F706F736564206F776E657200000000000000000000 PUSH0 DUP3 ADD MSTORE POP JUMP JUMPDEST PUSH0 PUSH2 0x1896 PUSH1 0x16 DUP4 PUSH2 0x16C8 JUMP JUMPDEST SWAP2 POP PUSH2 0x18A1 DUP3 PUSH2 0x1862 JUMP JUMPDEST PUSH1 0x20 DUP3 ADD SWAP1 POP SWAP2 SWAP1 POP JUMP JUMPDEST PUSH0 PUSH1 0x20 DUP3 ADD SWAP1 POP DUP2 DUP2 SUB PUSH0 DUP4 ADD MSTORE PUSH2 0x18C3 DUP2 PUSH2 0x188A JUMP JUMPDEST SWAP1 POP SWAP2 SWAP1 POP JUMP JUMPDEST PUSH0 PUSH8 0xFFFFFFFFFFFFFFFF DUP3 GT ISZERO PUSH2 0x18E4 JUMPI PUSH2 0x18E3 PUSH2 0x1451 JUMP JUMPDEST JUMPDEST PUSH2 0x18ED DUP3 PUSH2 0x1441 JUMP JUMPDEST SWAP1 POP PUSH1 0x20 DUP2 ADD SWAP1 POP SWAP2 SWAP1 POP JUMP JUMPDEST PUSH0 PUSH2 0x190C PUSH2 0x1907 DUP5 PUSH2 0x18CA JUMP JUMPDEST PUSH2 0x14AF JUMP JUMPDEST SWAP1 POP DUP3 DUP2 MSTORE PUSH1 0x20 DUP2 ADD DUP5 DUP5 DUP5 ADD GT ISZERO PUSH2 0x1928 JUMPI PUSH2 0x1927 PUSH2 0x143D JUMP JUMPDEST JUMPDEST PUSH2 0x1933 DUP5 DUP3 DUP6 PUSH2 0x16D8 JUMP JUMPDEST POP SWAP4 SWAP3 POP POP POP JUMP JUMPDEST PUSH0 DUP3 PUSH1 0x1F DUP4 ADD SLT PUSH2 0x194F JUMPI PUSH2 0x194E PUSH2 0x1439 JUMP JUMPDEST JUMPDEST DUP2 MLOAD PUSH2 0x195F DUP5 DUP3 PUSH1 0x20 DUP7 ADD PUSH2 0x18FA JUMP JUMPDEST SWAP2 POP POP SWAP3 SWAP2 POP POP JUMP JUMPDEST PUSH2 0x1971 DUP2 PUSH2 0x168D JUMP JUMPDEST DUP2 EQ PUSH2 0x197B JUMPI PUSH0 DUP1 REVERT JUMPDEST POP JUMP JUMPDEST PUSH0 DUP2 MLOAD SWAP1 POP PUSH2 0x198C DUP2 PUSH2 0x1968 JUMP JUMPDEST SWAP3 SWAP2 POP POP JUMP JUMPDEST PUSH0 DUP1 PUSH0 DUP1 PUSH1 0x80 DUP6 DUP8 SUB SLT ISZERO PUSH2 0x19AA JUMPI PUSH2 0x19A9 PUSH2 0x13FE JUMP JUMPDEST JUMPDEST PUSH0 DUP6 ADD MLOAD PUSH8 0xFFFFFFFFFFFFFFFF DUP2 GT ISZERO PUSH2 0x19C7 JUMPI PUSH2 0x19C6 PUSH2 0x1402 JUMP JUMPDEST JUMPDEST PUSH2 0x19D3 DUP8 DUP3 DUP9 ADD PUSH2 0x193B JUMP JUMPDEST SWAP5 POP POP PUSH1 0x20 PUSH2 0x19E4 DUP8 DUP3 DUP9 ADD PUSH2 0x197E JUMP JUMPDEST SWAP4 POP POP PUSH1 0x40 PUSH2 0x19F5 DUP8 DUP3 DUP9 ADD PUSH2 0x197E JUMP JUMPDEST SWAP3 POP POP PUSH1 0x60 PUSH2 0x1A06 DUP8 DUP3 DUP9 ADD PUSH2 0x197E JUMP JUMPDEST SWAP2 POP POP SWAP3 SWAP6 SWAP2 SWAP5 POP SWAP3 POP JUMP JUMPDEST PUSH0 DUP2 SWAP1 POP DUP2 PUSH0 MSTORE PUSH1 0x20 PUSH0 KECCAK256 SWAP1 POP SWAP2 SWAP1 POP JUMP JUMPDEST PUSH0 PUSH1 0x20 PUSH1 0x1F DUP4 ADD DIV SWAP1 POP SWAP2 SWAP1 POP JUMP JUMPDEST PUSH0 DUP3 DUP3 SHL SWAP1 POP SWAP3 SWAP2 POP POP JUMP JUMPDEST PUSH0 PUSH1 0x8 DUP4 MUL PUSH2 0x1A6E PUSH32 0xFFFFFFFFFFFFFFFFFFFFFFFFFFFFFFFFFFFFFFFFFFFFFFFFFFFFFFFFFFFFFFFF DUP3 PUSH2 0x1A33 JUMP JUMPDEST PUSH2 0x1A78 DUP7 DUP4 PUSH2 0x1A33 JUMP JUMPDEST SWAP6 POP DUP1 NOT DUP5 AND SWAP4 POP DUP1 DUP7 AND DUP5 OR SWAP3 POP POP POP SWAP4 SWAP3 POP POP POP JUMP JUMPDEST PUSH0 DUP2 SWAP1 POP SWAP2 SWAP1 POP JUMP JUMPDEST PUSH0 PUSH2 0x1AB3 PUSH2 0x1AAE PUSH2 0x1AA9 DUP5 PUSH2 0x168D JUMP JUMPDEST PUSH2 0x1A90 JUMP JUMPDEST PUSH2 0x168D JUMP JUMPDEST SWAP1 POP SWAP2 SWAP1 POP JUMP JUMPDEST PUSH0 DUP2 SWAP1 POP SWAP2 SWAP1 POP JUMP JUMPDEST PUSH2 0x1ACC DUP4 PUSH2 0x1A99 JUMP JUMPDEST PUSH2 0x1AE0 PUSH2 0x1AD8 DUP3 PUSH2 0x1ABA JUMP JUMPDEST DUP5 DUP5 SLOAD PUSH2 0x1A3F JUMP JUMPDEST DUP3 SSTORE POP POP POP POP JUMP JUMPDEST PUSH0 SWAP1 JUMP JUMPDEST PUSH2 0x1AF4 PUSH2 0x1AE8 JUMP JUMPDEST PUSH2 0x1AFF DUP2 DUP5 DUP5 PUSH2 0x1AC3 JUMP JUMPDEST POP POP POP JUMP JUMPDEST JUMPDEST DUP2 DUP2 LT ISZERO PUSH2 0x1B22 JUMPI PUSH2 0x1B17 PUSH0 DUP3 PUSH2 0x1AEC JUMP JUMPDEST PUSH1 0x1 DUP2 ADD SWAP1 POP PUSH2 0x1B05 JUMP JUMPDEST POP POP JUMP JUMPDEST PUSH1 0x1F DUP3 GT ISZERO PUSH2 0x1B67 JUMPI PUSH2 0x1B38 DUP2 PUSH2 0x1A12 JUMP JUMPDEST PUSH2 0x1B41 DUP5 PUSH2 0x1A24 JUMP JUMPDEST DUP2 ADD PUSH1 0x20 DUP6 LT ISZERO PUSH2 0x1B50 JUMPI DUP2 SWAP1 POP JUMPDEST PUSH2 0x1B64 PUSH2 0x1B5C DUP6 PUSH2 0x1A24 JUMP JUMPDEST DUP4 ADD DUP3 PUSH2 0x1B04 JUMP JUMPDEST POP POP JUMPDEST POP POP POP JUMP JUMPDEST PUSH0 DUP3 DUP3 SHR SWAP1 POP SWAP3 SWAP2 POP POP JUMP JUMPDEST PUSH0 PUSH2 0x1B87 PUSH0 NOT DUP5 PUSH1 0x8 MUL PUSH2 0x1B6C JUMP JUMPDEST NOT DUP1 DUP4 AND SWAP2 POP POP SWAP3 SWAP2 POP POP JUMP JUMPDEST PUSH0 PUSH2 0x1B9F DUP4 DUP4 PUSH2 0x1B78 JUMP JUMPDEST SWAP2 POP DUP3 PUSH1 0x2 MUL DUP3 OR SWAP1 POP SWAP3 SWAP2 POP POP JUMP JUMPDEST PUSH2 0x1BB8 DUP3 PUSH2 0x16BE JUMP JUMPDEST PUSH8 0xFFFFFFFFFFFFFFFF DUP2 GT ISZERO PUSH2 0x1BD1 JUMPI PUSH2 0x1BD0 PUSH2 0x1451 JUMP JUMPDEST JUMPDEST PUSH2 0x1BDB DUP3 SLOAD PUSH2 0x1832 JUMP JUMPDEST PUSH2 0x1BE6 DUP3 DUP3 DUP6 PUSH2 0x1B26 JUMP JUMPDEST PUSH0 PUSH1 0x20 SWAP1 POP PUSH1 0x1F DUP4 GT PUSH1 0x1 DUP2 EQ PUSH2 0x1C17 JUMPI PUSH0 DUP5 ISZERO PUSH2 0x1C05 JUMPI DUP3 DUP8 ADD MLOAD SWAP1 POP JUMPDEST PUSH2 0x1C0F DUP6 DUP3 PUSH2 0x1B94 JUMP JUMPDEST DUP7 SSTORE POP PUSH2 0x1C76 JUMP JUMPDEST PUSH1 0x1F NOT DUP5 AND PUSH2 0x1C25 DUP7 PUSH2 0x1A12 JUMP JUMPDEST PUSH0 JUMPDEST DUP3 DUP2 LT ISZERO PUSH2 0x1C4C JUMPI DUP5 DUP10 ADD MLOAD DUP3 SSTORE PUSH1 0x1 DUP3 ADD SWAP2 POP PUSH1 0x20 DUP6 ADD SWAP5 POP PUSH1 0x20 DUP2 ADD SWAP1 POP PUSH2 0x1C27 JUMP JUMPDEST DUP7 DUP4 LT ISZERO PUSH2 0x1C69 JUMPI DUP5 DUP10 ADD MLOAD PUSH2 0x1C65 PUSH1 0x1F DUP10 AND DUP3 PUSH2 0x1B78 JUMP JUMPDEST DUP4 SSTORE POP JUMPDEST PUSH1 0x1 PUSH1 0x2 DUP9 MUL ADD DUP9 SSTORE POP POP POP JUMPDEST POP POP POP POP POP POP JUMP JUMPDEST PUSH0 DUP2 MLOAD SWAP1 POP SWAP2 SWAP1 POP JUMP JUMPDEST PUSH0 DUP2 SWAP1 POP DUP2 PUSH0 MSTORE PUSH1 0x20 PUSH0 KECCAK256 SWAP1 POP SWAP2 SWAP1 POP JUMP JUMPDEST PUSH1 0x1F DUP3 GT ISZERO PUSH2 0x1CDB JUMPI PUSH2 0x1CAC DUP2 PUSH2 0x1C88 JUMP JUMPDEST PUSH2 0x1CB5 DUP5 PUSH2 0x1A24 JUMP JUMPDEST DUP2 ADD PUSH1 0x20 DUP6 LT ISZERO PUSH2 0x1CC4 JUMPI DUP2 SWAP1 POP JUMPDEST PUSH2 0x1CD8 PUSH2 0x1CD0 DUP6 PUSH2 0x1A24 JUMP JUMPDEST DUP4 ADD DUP3 PUSH2 0x1B04 JUMP JUMPDEST POP POP JUMPDEST POP POP POP JUMP JUMPDEST PUSH2 0x1CE9 DUP3 PUSH2 0x1C7E JUMP JUMPDEST PUSH8 0xFFFFFFFFFFFFFFFF DUP2 GT ISZERO PUSH2 0x1D02 JUMPI PUSH2 0x1D01 PUSH2 0x1451 JUMP JUMPDEST JUMPDEST PUSH2 0x1D0C DUP3 SLOAD PUSH2 0x1832 JUMP JUMPDEST PUSH2 0x1D17 DUP3 DUP3 DUP6 PUSH2 0x1C9A JUMP JUMPDEST PUSH0 PUSH1 0x20 SWAP1 POP PUSH1 0x1F DUP4 GT PUSH1 0x1 DUP2 EQ PUSH2 0x1D48 JUMPI PUSH0 DUP5 ISZERO PUSH2 0x1D36 JUMPI DUP3 DUP8 ADD MLOAD SWAP1 POP JUMPDEST PUSH2 0x1D40 DUP6 DUP3 PUSH2 0x1B94 JUMP JUMPDEST DUP7 SSTORE POP PUSH2 0x1DA7 JUMP JUMPDEST PUSH1 0x1F NOT DUP5 AND PUSH2 0x1D56 DUP7 PUSH2 0x1C88 JUMP JUMPDEST PUSH0 JUMPDEST DUP3 DUP2 LT ISZERO PUSH2 0x1D7D JUMPI DUP5 DUP10 ADD MLOAD DUP3 SSTORE PUSH1 0x1 DUP3 ADD SWAP2 POP PUSH1 0x20 DUP6 ADD SWAP5 POP PUSH1 0x20 DUP2 ADD SWAP1 POP PUSH2 0x1D58 JUMP JUMPDEST DUP7 DUP4 LT ISZERO PUSH2 0x1D9A JUMPI DUP5 DUP10 ADD MLOAD PUSH2 0x1D96 PUSH1 0x1F DUP10 AND DUP3 PUSH2 0x1B78 JUMP JUMPDEST DUP4 SSTORE POP JUMPDEST PUSH1 0x1 PUSH1 0x2 DUP9 MUL ADD DUP9 SSTORE POP POP POP JUMPDEST POP POP POP POP POP POP JUMP JUMPDEST PUSH0 DUP2 SLOAD PUSH2 0x1DBB DUP2 PUSH2 0x1832 JUMP JUMPDEST PUSH2 0x1DC5 DUP2 DUP7 PUSH2 0x16C8 JUMP JUMPDEST SWAP5 POP PUSH1 0x1 DUP3 AND PUSH0 DUP2 EQ PUSH2 0x1DDF JUMPI PUSH1 0x1 DUP2 EQ PUSH2 0x1DF5 JUMPI PUSH2 0x1E27 JUMP JUMPDEST PUSH1 0xFF NOT DUP4 AND DUP7 MSTORE DUP2 ISZERO ISZERO PUSH1 0x20 MUL DUP7 ADD SWAP4 POP PUSH2 0x1E27 JUMP JUMPDEST PUSH2 0x1DFE DUP6 PUSH2 0x1A12 JUMP JUMPDEST PUSH0 JUMPDEST DUP4 DUP2 LT ISZERO PUSH2 0x1E1F JUMPI DUP2 SLOAD DUP2 DUP10 ADD MSTORE PUSH1 0x1 DUP3 ADD SWAP2 POP PUSH1 0x20 DUP2 ADD SWAP1 POP PUSH2 0x1E00 JUMP JUMPDEST DUP1 DUP9 ADD SWAP6 POP POP POP JUMPDEST POP POP POP SWAP3 SWAP2 POP POP JUMP JUMPDEST PUSH0 DUP3 DUP3 MSTORE PUSH1 0x20 DUP3 ADD SWAP1 POP SWAP3 SWAP2 POP POP JUMP JUMPDEST PUSH0 DUP2 SLOAD PUSH2 0x1E4C DUP2 PUSH2 0x1832 JUMP JUMPDEST PUSH2 0x1E56 DUP2 DUP7 PUSH2 0x1E30 JUMP JUMPDEST SWAP5 POP PUSH1 0x1 DUP3 AND PUSH0 DUP2 EQ PUSH2 0x1E70 JUMPI PUSH1 0x1 DUP2 EQ PUSH2 0x1E86 JUMPI PUSH2 0x1EB8 JUMP JUMPDEST PUSH1 0xFF NOT DUP4 AND DUP7 MSTORE DUP2 ISZERO ISZERO PUSH1 0x20 MUL DUP7 ADD SWAP4 POP PUSH2 0x1EB8 JUMP JUMPDEST PUSH2 0x1E8F DUP6 PUSH2 0x1C88 JUMP JUMPDEST PUSH0 JUMPDEST DUP4 DUP2 LT ISZERO PUSH2 0x1EB0 JUMPI DUP2 SLOAD DUP2 DUP10 ADD MSTORE PUSH1 0x1 DUP3 ADD SWAP2 POP PUSH1 0x20 DUP2 ADD SWAP1 POP PUSH2 0x1E91 JUMP JUMPDEST DUP1 DUP9 ADD SWAP6 POP POP POP JUMPDEST POP POP POP SWAP3 SWAP2 POP POP JUMP JUMPDEST PUSH0 PUSH1 0xC0 DUP3 ADD SWAP1 POP DUP2 DUP2 SUB PUSH0 DUP4 ADD MSTORE PUSH2 0x1ED9 DUP2 DUP10 PUSH2 0x1DAF JUMP JUMPDEST SWAP1 POP PUSH2 0x1EE8 PUSH1 0x20 DUP4 ADD DUP9 PUSH2 0x1696 JUMP JUMPDEST PUSH2 0x1EF5 PUSH1 0x40 DUP4 ADD DUP8 PUSH2 0x1696 JUMP JUMPDEST PUSH2 0x1F02 PUSH1 0x60 DUP4 ADD DUP7 PUSH2 0x1696 JUMP JUMPDEST DUP2 DUP2 SUB PUSH1 0x80 DUP4 ADD MSTORE PUSH2 0x1F14 DUP2 DUP6 PUSH2 0x1E40 JUMP JUMPDEST SWAP1 POP DUP2 DUP2 SUB PUSH1 0xA0 DUP4 ADD MSTORE PUSH2 0x1F28 DUP2 DUP5 PUSH2 0x1E40 JUMP JUMPDEST SWAP1 POP SWAP8 SWAP7 POP POP POP POP POP POP POP JUMP JUMPDEST PUSH32 0x4F6E6C792063616C6C61626C65206279206F776E657200000000000000000000 PUSH0 DUP3 ADD MSTORE POP JUMP JUMPDEST PUSH0 PUSH2 0x1F69 PUSH1 0x16 DUP4 PUSH2 0x16C8 JUMP JUMPDEST SWAP2 POP PUSH2 0x1F74 DUP3 PUSH2 0x1F35 JUMP JUMPDEST PUSH1 0x20 DUP3 ADD SWAP1 POP SWAP2 SWAP1 POP JUMP JUMPDEST PUSH0 PUSH1 0x20 DUP3 ADD SWAP1 POP DUP2 DUP2 SUB PUSH0 DUP4 ADD MSTORE PUSH2 0x1F96 DUP2 PUSH2 0x1F5D JUMP JUMPDEST SWAP1 POP SWAP2 SWAP1 POP JUMP JUMPDEST PUSH32 0x4E487B7100000000000000000000000000000000000000000000000000000000 PUSH0 MSTORE PUSH1 0x21 PUSH1 0x4 MSTORE PUSH1 0x24 PUSH0 REVERT JUMPDEST PUSH32 0x4E487B7100000000000000000000000000000000000000000000000000000000 PUSH0 MSTORE PUSH1 0x32 PUSH1 0x4 MSTORE PUSH1 0x24 PUSH0 REVERT JUMPDEST PUSH32 0x4E487B7100000000000000000000000000000000000000000000000000000000 PUSH0 MSTORE PUSH1 0x11 PUSH1 0x4 MSTORE PUSH1 0x24 PUSH0 REVERT JUMPDEST PUSH0 PUSH2 0x202E DUP3 PUSH2 0x168D JUMP JUMPDEST SWAP2 POP PUSH32 0xFFFFFFFFFFFFFFFFFFFFFFFFFFFFFFFFFFFFFFFFFFFFFFFFFFFFFFFFFFFFFFFF DUP3 SUB PUSH2 0x2060 JUMPI PUSH2 0x205F PUSH2 0x1FF7 JUMP JUMPDEST JUMPDEST PUSH1 0x1 DUP3 ADD SWAP1 POP SWAP2 SWAP1 POP JUMP JUMPDEST PUSH2 0x2074 DUP2 PUSH2 0x15FD JUMP JUMPDEST DUP3 MSTORE POP POP JUMP JUMPDEST PUSH0 PUSH2 0x2084 DUP3 PUSH2 0x1C7E JUMP JUMPDEST PUSH2 0x208E DUP2 DUP6 PUSH2 0x1E30 JUMP JUMPDEST SWAP4 POP PUSH2 0x209E DUP2 DUP6 PUSH1 0x20 DUP7 ADD PUSH2 0x16D8 JUMP JUMPDEST PUSH2 0x20A7 DUP2 PUSH2 0x1441 JUMP JUMPDEST DUP5 ADD SWAP2 POP POP SWAP3 SWAP2 POP POP JUMP JUMPDEST PUSH0 PUSH2 0xFFFF DUP3 AND SWAP1 POP SWAP2 SWAP1 POP JUMP JUMPDEST PUSH2 0x20C8 DUP2 PUSH2 0x20B2 JUMP JUMPDEST DUP3 MSTORE POP POP JUMP JUMPDEST PUSH0 PUSH4 0xFFFFFFFF DUP3 AND SWAP1 POP SWAP2 SWAP1 POP JUMP JUMPDEST PUSH2 0x20E6 DUP2 PUSH2 0x20CE JUMP JUMPDEST DUP3 MSTORE POP POP JUMP JUMPDEST PUSH0 PUSH1 0xA0 DUP3 ADD SWAP1 POP PUSH2 0x20FF PUSH0 DUP4 ADD DUP9 PUSH2 0x206B JUMP JUMPDEST DUP2 DUP2 SUB PUSH1 0x20 DUP4 ADD MSTORE PUSH2 0x2111 DUP2 DUP8 PUSH2 0x207A JUMP JUMPDEST SWAP1 POP PUSH2 0x2120 PUSH1 0x40 DUP4 ADD DUP7 PUSH2 0x20BF JUMP JUMPDEST PUSH2 0x212D PUSH1 0x60 DUP4 ADD DUP6 PUSH2 0x20DD JUMP JUMPDEST PUSH2 0x213A PUSH1 0x80 DUP4 ADD DUP5 PUSH2 0x1665 JUMP JUMPDEST SWAP7 SWAP6 POP POP POP POP POP POP JUMP JUMPDEST PUSH0 DUP2 MLOAD SWAP1 POP PUSH2 0x2152 DUP2 PUSH2 0x140F JUMP JUMPDEST SWAP3 SWAP2 POP POP JUMP JUMPDEST PUSH0 PUSH1 0x20 DUP3 DUP5 SUB SLT ISZERO PUSH2 0x216D JUMPI PUSH2 0x216C PUSH2 0x13FE JUMP JUMPDEST JUMPDEST PUSH0 PUSH2 0x217A DUP5 DUP3 DUP6 ADD PUSH2 0x2144 JUMP JUMPDEST SWAP2 POP POP SWAP3 SWAP2 POP POP JUMP JUMPDEST PUSH32 0x43616E6E6F74207472616E7366657220746F2073656C66000000000000000000 PUSH0 DUP3 ADD MSTORE POP JUMP JUMPDEST PUSH0 PUSH2 0x21B7 PUSH1 0x17 DUP4 PUSH2 0x16C8 JUMP JUMPDEST SWAP2 POP PUSH2 0x21C2 DUP3 PUSH2 0x2183 JUMP JUMPDEST PUSH1 0x20 DUP3 ADD SWAP1 POP SWAP2 SWAP1 POP JUMP JUMPDEST PUSH0 PUSH1 0x20 DUP3 ADD SWAP1 POP DUP2 DUP2 SUB PUSH0 DUP4 ADD MSTORE PUSH2 0x21E4 DUP2 PUSH2 0x21AB JUMP JUMPDEST SWAP1 POP SWAP2 SWAP1 POP JUMP JUMPDEST PUSH0 PUSH2 0x21F5 DUP3 PUSH2 0x168D JUMP JUMPDEST SWAP2 POP PUSH2 0x2200 DUP4 PUSH2 0x168D JUMP JUMPDEST SWAP3 POP DUP3 DUP3 ADD SWAP1 POP DUP1 DUP3 GT ISZERO PUSH2 0x2218 JUMPI PUSH2 0x2217 PUSH2 0x1FF7 JUMP JUMPDEST JUMPDEST SWAP3 SWAP2 POP POP JUMP JUMPDEST PUSH0 PUSH2 0x2228 DUP3 PUSH2 0x168D JUMP JUMPDEST SWAP2 POP PUSH2 0x2233 DUP4 PUSH2 0x168D JUMP JUMPDEST SWAP3 POP DUP3 DUP3 SUB SWAP1 POP DUP2 DUP2 GT ISZERO PUSH2 0x224B JUMPI PUSH2 0x224A PUSH2 0x1FF7 JUMP JUMPDEST JUMPDEST SWAP3 SWAP2 POP POP JUMP JUMPDEST PUSH32 0x4E487B7100000000000000000000000000000000000000000000000000000000 PUSH0 MSTORE PUSH1 0x12 PUSH1 0x4 MSTORE PUSH1 0x24 PUSH0 REVERT JUMPDEST PUSH0 PUSH2 0x2288 DUP3 PUSH2 0x168D JUMP JUMPDEST SWAP2 POP PUSH2 0x2293 DUP4 PUSH2 0x168D JUMP JUMPDEST SWAP3 POP DUP3 PUSH2 0x22A3 JUMPI PUSH2 0x22A2 PUSH2 0x2251 JUMP JUMPDEST JUMPDEST DUP3 DUP3 MOD SWAP1 POP SWAP3 SWAP2 POP POP JUMP JUMPDEST PUSH0 PUSH2 0x22B8 DUP3 PUSH2 0x168D JUMP JUMPDEST SWAP2 POP PUSH2 0x22C3 DUP4 PUSH2 0x168D JUMP JUMPDEST SWAP3 POP DUP3 DUP3 MUL PUSH2 0x22D1 DUP2 PUSH2 0x168D JUMP JUMPDEST SWAP2 POP DUP3 DUP3 DIV DUP5 EQ DUP4 ISZERO OR PUSH2 0x22E8 JUMPI PUSH2 0x22E7 PUSH2 0x1FF7 JUMP JUMPDEST JUMPDEST POP SWAP3 SWAP2 POP POP JUMP JUMPDEST PUSH0 DUP2 PUSH1 0x1 SHR SWAP1 POP SWAP2 SWAP1 POP JUMP JUMPDEST PUSH0 DUP1 DUP3 SWAP2 POP DUP4 SWAP1 POP JUMPDEST PUSH1 0x1 DUP6 GT ISZERO PUSH2 0x2344 JUMPI DUP1 DUP7 DIV DUP2 GT ISZERO PUSH2 0x2320 JUMPI PUSH2 0x231F PUSH2 0x1FF7 JUMP JUMPDEST JUMPDEST PUSH1 0x1 DUP6 AND ISZERO PUSH2 0x232F JUMPI DUP1 DUP3 MUL SWAP2 POP JUMPDEST DUP1 DUP2 MUL SWAP1 POP PUSH2 0x233D DUP6 PUSH2 0x22EF JUMP JUMPDEST SWAP5 POP PUSH2 0x2304 JUMP JUMPDEST SWAP5 POP SWAP5 SWAP3 POP POP POP JUMP JUMPDEST PUSH0 DUP3 PUSH2 0x235C JUMPI PUSH1 0x1 SWAP1 POP PUSH2 0x2417 JUMP JUMPDEST DUP2 PUSH2 0x2369 JUMPI PUSH0 SWAP1 POP PUSH2 0x2417 JUMP JUMPDEST DUP2 PUSH1 0x1 DUP2 EQ PUSH2 0x237F JUMPI PUSH1 0x2 DUP2 EQ PUSH2 0x2389 JUMPI PUSH2 0x23B8 JUMP JUMPDEST PUSH1 0x1 SWAP2 POP POP PUSH2 0x2417 JUMP JUMPDEST PUSH1 0xFF DUP5 GT ISZERO PUSH2 0x239B JUMPI PUSH2 0x239A PUSH2 0x1FF7 JUMP JUMPDEST JUMPDEST DUP4 PUSH1 0x2 EXP SWAP2 POP DUP5 DUP3 GT ISZERO PUSH2 0x23B2 JUMPI PUSH2 0x23B1 PUSH2 0x1FF7 JUMP JUMPDEST JUMPDEST POP PUSH2 0x2417 JUMP JUMPDEST POP PUSH1 0x20 DUP4 LT PUSH2 0x133 DUP4 LT AND PUSH1 0x4E DUP5 LT PUSH1 0xB DUP5 LT AND OR ISZERO PUSH2 0x23ED JUMPI DUP3 DUP3 EXP SWAP1 POP DUP4 DUP2 GT ISZERO PUSH2 0x23E8 JUMPI PUSH2 0x23E7 PUSH2 0x1FF7 JUMP JUMPDEST JUMPDEST PUSH2 0x2417 JUMP JUMPDEST PUSH2 0x23FA DUP5 DUP5 DUP5 PUSH1 0x1 PUSH2 0x22FB JUMP JUMPDEST SWAP3 POP SWAP1 POP DUP2 DUP5 DIV DUP2 GT ISZERO PUSH2 0x2411 JUMPI PUSH2 0x2410 PUSH2 0x1FF7 JUMP JUMPDEST JUMPDEST DUP2 DUP2 MUL SWAP1 POP JUMPDEST SWAP4 SWAP3 POP POP POP JUMP JUMPDEST PUSH0 PUSH2 0x2428 DUP3 PUSH2 0x168D JUMP JUMPDEST SWAP2 POP PUSH2 0x2433 DUP4 PUSH2 0x168D JUMP JUMPDEST SWAP3 POP PUSH2 0x2460 PUSH32 0xFFFFFFFFFFFFFFFFFFFFFFFFFFFFFFFFFFFFFFFFFFFFFFFFFFFFFFFFFFFFFFFF DUP5 DUP5 PUSH2 0x234D JUMP JUMPDEST SWAP1 POP SWAP3 SWAP2 POP POP JUMP INVALID LOG2 PUSH5 0x6970667358 0x22 SLT KECCAK256 0xC5 SWAP7 PUSH29 0x5C165850A28CF8A7F0D0E5CC16455B4964D220B99AA7E005F624AAF3A9 PUSH5 0x736F6C6343 STOP ADDMOD EQ STOP CALLER PUSH4 0x6F6E7374 KECCAK256 PUSH28 0x20657468657273207D203D20617761697420696D706F727428276E70 PUSH14 0x3A65746865727340362E31302E30 0x27 0x29 EXTCODESIZE PUSH4 0x6F6E7374 KECCAK256 PUSH2 0x6269 NUMBER PUSH16 0x646572203D206574686572732E416269 NUMBER PUSH16 0x6465722E64656661756C74416269436F PUSH5 0x657228293B PUSH4 0x6F6E7374 KECCAK256 PUSH2 0x7069 MSTORE PUSH6 0x73706F6E7365 KECCAK256 RETURNDATASIZE KECCAK256 PUSH2 0x7761 PUSH10 0x742046756E6374696F6E PUSH20 0x2E6D616B654874747052657175657374287B2020 KECCAK256 KECCAK256 PUSH22 0x726C3A202768747470733A2F2F67656E69656261636B PUSH3 0x6F6E65 0x2E PUSH2 0x7A75 PUSH19 0x6577656273697465732E6E65742F6170692F70 PUSH19 0x6F706572746965732F64656D6F277D293B636F PUSH15 0x7374207B2064617461207D203D2061 PUSH17 0x69526573706F6E73652E646174613B636F PUSH15 0x7374206C6F636174696F6E203D2064 PUSH2 0x7461 0x2E PUSH13 0x6F636174696F6E3B636F6E7374 KECCAK256 PUSH13 0x6F7453697A65203D204E756D62 PUSH6 0x722864617461 0x2E PUSH13 0x6F7453697A65293B636F6E7374 KECCAK256 PUSH21 0x6F74616C5072696365203D204E756D626572286461 PUSH21 0x612E746F74616C5072696365293B636F6E73742074 PUSH2 0x7841 PUSH20 0x73657373656456616C7565203D204E756D626572 0x28 PUSH5 0x6174612E74 PUSH2 0x7841 PUSH20 0x73657373656456616C7565293B636F6E73742065 PUSH15 0x636F646564203D20616269436F6465 PUSH19 0x2E656E636F6465285B60737472696E67602C20 PUSH1 0x75 PUSH10 0x6E74323536602C206075 PUSH10 0x6E74323536602C206075 PUSH10 0x6E74323536605D2C205B PUSH13 0x6F636174696F6E2C206C6F7453 PUSH10 0x7A652C20746F74616C50 PUSH19 0x6963652C20746178417373657373656456616C PUSH22 0x655D293B72657475726E206574686572732E67657442 PUSH26 0x74657328656E636F646564293B00000000000000000000000000 "
		},
		"gasEstimates": {
			"creation": {
				"codeDepositCost": "1874800",
				"executionCost": "infinite",
				"totalCost": "infinite"
			},
			"external": {
				"acceptOwnership()": "54533",
				"handleOracleFulfillment(bytes32,bytes,bytes)": "infinite",
				"location()": "infinite",
				"lotSize()": "2470",
				"owner()": "2537",
				"sendRequest(uint64)": "infinite",
				"taxAssessedValue()": "2491",
				"totalPrice()": "2469",
				"transferOwnership(address)": "30733"
			},
			"internal": {
				"fulfillRequest(bytes32,bytes memory,bytes memory)": "infinite"
			}
		},
		"methodIdentifiers": {
			"acceptOwnership()": "79ba5097",
			"handleOracleFulfillment(bytes32,bytes,bytes)": "0ca76175",
			"location()": "516f279e",
			"lotSize()": "4942f65f",
			"owner()": "8da5cb5b",
			"sendRequest(uint64)": "2f9d6254",
			"taxAssessedValue()": "b252c8f2",
			"totalPrice()": "ab0d92dd",
			"transferOwnership(address)": "f2fde38b"
		}
	},
	"abi": [
		{
			"inputs": [],
			"stateMutability": "nonpayable",
			"type": "constructor"
		},
		{
			"inputs": [],
			"name": "EmptySource",
			"type": "error"
		},
		{
			"inputs": [],
			"name": "NoInlineSecrets",
			"type": "error"
		},
		{
			"inputs": [],
			"name": "OnlyRouterCanFulfill",
			"type": "error"
		},
		{
			"inputs": [
				{
					"internalType": "bytes32",
					"name": "requestId",
					"type": "bytes32"
				}
			],
			"name": "UnexpectedRequestID",
			"type": "error"
		},
		{
			"anonymous": false,
			"inputs": [
				{
					"indexed": true,
					"internalType": "address",
					"name": "from",
					"type": "address"
				},
				{
					"indexed": true,
					"internalType": "address",
					"name": "to",
					"type": "address"
				}
			],
			"name": "OwnershipTransferRequested",
			"type": "event"
		},
		{
			"anonymous": false,
			"inputs": [
				{
					"indexed": true,
					"internalType": "address",
					"name": "from",
					"type": "address"
				},
				{
					"indexed": true,
					"internalType": "address",
					"name": "to",
					"type": "address"
				}
			],
			"name": "OwnershipTransferred",
			"type": "event"
		},
		{
			"anonymous": false,
			"inputs": [
				{
					"indexed": true,
					"internalType": "bytes32",
					"name": "id",
					"type": "bytes32"
				}
			],
			"name": "RequestFulfilled",
			"type": "event"
		},
		{
			"anonymous": false,
			"inputs": [
				{
					"indexed": true,
					"internalType": "bytes32",
					"name": "id",
					"type": "bytes32"
				}
			],
			"name": "RequestSent",
			"type": "event"
		},
		{
			"anonymous": false,
			"inputs": [
				{
					"indexed": true,
					"internalType": "bytes32",
					"name": "requestId",
					"type": "bytes32"
				},
				{
					"indexed": false,
					"internalType": "string",
					"name": "location",
					"type": "string"
				},
				{
					"indexed": false,
					"internalType": "uint256",
					"name": "areaSquareFeet",
					"type": "uint256"
				},
				{
					"indexed": false,
					"internalType": "uint256",
					"name": "price",
					"type": "uint256"
				},
				{
					"indexed": false,
					"internalType": "uint256",
					"name": "taxAssessedValue",
					"type": "uint256"
				},
				{
					"indexed": false,
					"internalType": "bytes",
					"name": "response",
					"type": "bytes"
				},
				{
					"indexed": false,
					"internalType": "bytes",
					"name": "err",
					"type": "bytes"
				}
			],
			"name": "Response",
			"type": "event"
		},
		{
			"inputs": [],
			"name": "acceptOwnership",
			"outputs": [],
			"stateMutability": "nonpayable",
			"type": "function"
		},
		{
			"inputs": [
				{
					"internalType": "bytes32",
					"name": "requestId",
					"type": "bytes32"
				},
				{
					"internalType": "bytes",
					"name": "response",
					"type": "bytes"
				},
				{
					"internalType": "bytes",
					"name": "err",
					"type": "bytes"
				}
			],
			"name": "handleOracleFulfillment",
			"outputs": [],
			"stateMutability": "nonpayable",
			"type": "function"
		},
		{
			"inputs": [],
			"name": "location",
			"outputs": [
				{
					"internalType": "string",
					"name": "",
					"type": "string"
				}
			],
			"stateMutability": "view",
			"type": "function"
		},
		{
			"inputs": [],
			"name": "lotSize",
			"outputs": [
				{
					"internalType": "uint256",
					"name": "",
					"type": "uint256"
				}
			],
			"stateMutability": "view",
			"type": "function"
		},
		{
			"inputs": [],
			"name": "owner",
			"outputs": [
				{
					"internalType": "address",
					"name": "",
					"type": "address"
				}
			],
			"stateMutability": "view",
			"type": "function"
		},
		{
			"inputs": [
				{
					"internalType": "uint64",
					"name": "subscriptionId",
					"type": "uint64"
				}
			],
			"name": "sendRequest",
			"outputs": [
				{
					"internalType": "bytes32",
					"name": "requestId",
					"type": "bytes32"
				}
			],
			"stateMutability": "nonpayable",
			"type": "function"
		},
		{
			"inputs": [],
			"name": "taxAssessedValue",
			"outputs": [
				{
					"internalType": "uint256",
					"name": "",
					"type": "uint256"
				}
			],
			"stateMutability": "view",
			"type": "function"
		},
		{
			"inputs": [],
			"name": "totalPrice",
			"outputs": [
				{
					"internalType": "uint256",
					"name": "",
					"type": "uint256"
				}
			],
			"stateMutability": "view",
			"type": "function"
		},
		{
			"inputs": [
				{
					"internalType": "address",
					"name": "to",
					"type": "address"
				}
			],
			"name": "transferOwnership",
			"outputs": [],
			"stateMutability": "nonpayable",
			"type": "function"
		}
	]
}