{
	"data": {
		"bytecode": {
			"linkReferences": {},
			"object": "6101006040525f600c5f6101000a81548160ff0219169083151502179055505f60115560405180610280016040528061024e8152602001620052cd61024e9139601590816200004f9190620005b2565b50620493e063ffffffff1660a09063ffffffff1681525073b83e47c2bc239b3bf370bc41e1459a34b41238d073ffffffffffffffffffffffffffffffffffffffff1660c09073ffffffffffffffffffffffffffffffffffffffff168152507f66756e2d657468657265756d2d7365706f6c69612d31000000000000000000005f1b60e090815250348015620000e2575f80fd5b506040518060400160405280601381526020017f5265616c576f726c644173736574546f6b656e000000000000000000000000008152506040518060400160405280600481526020017f52574154000000000000000000000000000000000000000000000000000000008152503360c0518073ffffffffffffffffffffffffffffffffffffffff1660808173ffffffffffffffffffffffffffffffffffffffff1681525050505f73ffffffffffffffffffffffffffffffffffffffff168173ffffffffffffffffffffffffffffffffffffffff1603620001fb575f6040517f1e4fbdf7000000000000000000000000000000000000000000000000000000008152600401620001f29190620006d9565b60405180910390fd5b6200020c816200028d60201b60201c565b5081600190816200021e9190620005b2565b508060029081620002309190620005b2565b50505073a2f78ab2355fe2f984d808b5cee7fd0a93d5270e60165f6101000a81548173ffffffffffffffffffffffffffffffffffffffff021916908373ffffffffffffffffffffffffffffffffffffffff160217905550620006f4565b5f805f9054906101000a900473ffffffffffffffffffffffffffffffffffffffff169050815f806101000a81548173ffffffffffffffffffffffffffffffffffffffff021916908373ffffffffffffffffffffffffffffffffffffffff1602179055508173ffffffffffffffffffffffffffffffffffffffff168173ffffffffffffffffffffffffffffffffffffffff167f8be0079c531659141344cd1fd0a4f28419497f9722a3daafe3b4186f6b6457e060405160405180910390a35050565b5f81519050919050565b7f4e487b71000000000000000000000000000000000000000000000000000000005f52604160045260245ffd5b7f4e487b71000000000000000000000000000000000000000000000000000000005f52602260045260245ffd5b5f6002820490506001821680620003ca57607f821691505b602082108103620003e057620003df62000385565b5b50919050565b5f819050815f5260205f209050919050565b5f6020601f8301049050919050565b5f82821b905092915050565b5f60088302620004447fffffffffffffffffffffffffffffffffffffffffffffffffffffffffffffffff8262000407565b62000450868362000407565b95508019841693508086168417925050509392505050565b5f819050919050565b5f819050919050565b5f6200049a620004946200048e8462000468565b62000471565b62000468565b9050919050565b5f819050919050565b620004b5836200047a565b620004cd620004c482620004a1565b84845462000413565b825550505050565b5f90565b620004e3620004d5565b620004f0818484620004aa565b505050565b5b8181101562000517576200050b5f82620004d9565b600181019050620004f6565b5050565b601f82111562000566576200053081620003e6565b6200053b84620003f8565b810160208510156200054b578190505b620005636200055a85620003f8565b830182620004f5565b50505b505050565b5f82821c905092915050565b5f620005885f19846008026200056b565b1980831691505092915050565b5f620005a2838362000577565b9150826002028217905092915050565b620005bd826200034e565b67ffffffffffffffff811115620005d957620005d862000358565b5b620005e58254620003b2565b620005f28282856200051b565b5f60209050601f83116001811462000628575f841562000613578287015190505b6200061f858262000595565b8655506200068e565b601f1984166200063886620003e6565b5f5b8281101562000661578489015182556001820191506020850194506020810190506200063a565b868310156200068157848901516200067d601f89168262000577565b8355505b6001600288020188555050505b505050505050565b5f73ffffffffffffffffffffffffffffffffffffffff82169050919050565b5f620006c18262000696565b9050919050565b620006d381620006b5565b82525050565b5f602082019050620006ee5f830184620006c8565b92915050565b60805160a05160c05160e051614ba16200072c5f395f6109c801525f50505f6109a701525f818161067801526119f40152614ba15ff3fe608060405234801561000f575f80fd5b50600436106101c2575f3560e01c8063676c0d77116100f7578063a22cb46511610095578063c87b56dd1161006f578063c87b56dd146104bb578063e985e9c5146104eb578063f24133651461051b578063f2fde38b14610539576101c2565b8063a22cb46514610465578063b534b5b714610481578063b88d4fde1461049f576101c2565b80637e1c0c09116100d15780637e1c0c09146104015780638da5cb5b1461041f5780638e15f4731461043d57806395d89b4114610447576101c2565b8063676c0d77146103ab57806370a08231146103c7578063715018a6146103f7576101c2565b806323b872dd1161016457806342842e0e1161013e57806342842e0e1461032557806354e35ba2146103415780636352211e1461035d57806364492e7d1461038d576101c2565b806323b872dd146102bb5780632f9d6254146102d7578063407fcc3114610307576101c2565b8063095ea7b3116101a0578063095ea7b3146102445780630ca7617514610260578063176fd3f01461027c578063192ddae51461029d576101c2565b806301ffc9a7146101c657806306fdde03146101f6578063081812fc14610214575b5f80fd5b6101e060048036038101906101db9190612f75565b610555565b6040516101ed9190612fba565b60405180910390f35b6101fe6105b5565b60405161020b919061305d565b60405180910390f35b61022e600480360381019061022991906130b0565b610645565b60405161023b919061311a565b60405180910390f35b61025e6004803603810190610259919061315d565b610660565b005b61027a600480360381019061027591906132fa565b610676565b005b610284610738565b6040516102949493929190613391565b60405180910390f35b6102a56107db565b6040516102b29190612fba565b60405180910390f35b6102d560048036038101906102d091906133db565b6107ed565b005b6102f160048036038101906102ec9190613468565b6108ec565b6040516102fe91906134a2565b60405180910390f35b61030f6109fd565b60405161031c91906134bb565b60405180910390f35b61033f600480360381019061033a91906133db565b610a03565b005b61035b600480360381019061035691906134d4565b610a22565b005b610377600480360381019061037291906130b0565b610b59565b604051610384919061311a565b60405180910390f35b610395610b6a565b6040516103a2919061352a565b60405180910390f35b6103c560048036038101906103c091906130b0565b610b70565b005b6103e160048036038101906103dc9190613543565b610c03565b6040516103ee91906134bb565b60405180910390f35b6103ff610cb9565b005b610409610ccc565b60405161041691906134bb565b60405180910390f35b610427610cd2565b604051610434919061311a565b60405180910390f35b610445610cf9565b005b61044f610d98565b60405161045c919061305d565b60405180910390f35b61047f600480360381019061047a9190613598565b610e28565b005b610489610e3e565b60405161049691906134bb565b60405180910390f35b6104b960048036038101906104b491906135d6565b610e44565b005b6104d560048036038101906104d091906130b0565b610e61565b6040516104e2919061305d565b60405180910390f35b61050560048036038101906105009190613656565b610f6c565b6040516105129190612fba565b60405180910390f35b610523610ffa565b60405161053091906134bb565b60405180910390f35b610553600480360381019061054e9190613543565b611000565b005b5f634906490660e01b7bffffffffffffffffffffffffffffffffffffffffffffffffffffffff1916827bffffffffffffffffffffffffffffffffffffffffffffffffffffffff191614806105ae57506105ad82611084565b5b9050919050565b6060600180546105c4906136c1565b80601f01602080910402602001604051908101604052809291908181526020018280546105f0906136c1565b801561063b5780601f106106125761010080835404028352916020019161063b565b820191905f5260205f20905b81548152906001019060200180831161061e57829003601f168201915b5050505050905090565b5f61064f82611165565b50610659826111eb565b9050919050565b610672828261066d611224565b61122b565b5050565b7f000000000000000000000000000000000000000000000000000000000000000073ffffffffffffffffffffffffffffffffffffffff163373ffffffffffffffffffffffffffffffffffffffff16146106fb576040517fc6829f8300000000000000000000000000000000000000000000000000000000815260040160405180910390fd5b61070683838361123d565b827f85e1543bf2f84fe80c6badbce3648c8539ad1df4d2b3d822938ca0538be727e660405160405180910390a2505050565b6008805f018054610748906136c1565b80601f0160208091040260200160405190810160405280929190818152602001828054610774906136c1565b80156107bf5780601f10610796576101008083540402835291602001916107bf565b820191905f5260205f20905b8154815290600101906020018083116107a257829003601f168201915b5050505050908060010154908060020154908060030154905084565b600c5f9054906101000a900460ff1681565b5f73ffffffffffffffffffffffffffffffffffffffff168273ffffffffffffffffffffffffffffffffffffffff160361085d575f6040517f64a0ae92000000000000000000000000000000000000000000000000000000008152600401610854919061311a565b60405180910390fd5b5f610870838361086b611224565b61133d565b90508373ffffffffffffffffffffffffffffffffffffffff168173ffffffffffffffffffffffffffffffffffffffff16146108e6578382826040517f64283d7b0000000000000000000000000000000000000000000000000000000081526004016108dd939291906136f1565b60405180910390fd5b50505050565b5f6108f5611548565b6108fd612e68565b6109986015805461090d906136c1565b80601f0160208091040260200160405190810160405280929190818152602001828054610939906136c1565b80156109845780601f1061095b57610100808354040283529160200191610984565b820191905f5260205f20905b81548152906001019060200180831161096757829003601f168201915b5050505050826115cf90919063ffffffff16565b6109ec6109a4826115df565b847f00000000000000000000000000000000000000000000000000000000000000007f00000000000000000000000000000000000000000000000000000000000000006119f0565b601281905550601254915050919050565b600e5481565b610a1d83838360405180602001604052805f815250610e44565b505050565b610a2a611548565b600c5f9054906101000a900460ff1615610a79576040517f08c379a0000000000000000000000000000000000000000000000000000000008152600401610a7090613770565b60405180910390fd5b8160108190555080600e81905550620f42406305f5e100600d54600e54610aa091906137bb565b610aaa9190613829565b610ab491906137bb565b600f819055506001600c5f6101000a81548160ff0219169083151502179055505f610add611acf565b90505f600190505b838111610b1357610af63382611b57565b610b008183611c4a565b8080610b0b90613859565b915050610ae5565b50826011819055507f08a3ad1d54f9e72ce7885341976027e04c0c26bddba427e8768f04879f82dc6e8383604051610b4c9291906138a0565b60405180910390a1505050565b5f610b6382611165565b9050919050565b600d5481565b610b78611548565b600c5f9054906101000a900460ff16610bc6576040517f08c379a0000000000000000000000000000000000000000000000000000000008152600401610bbd90613911565b60405180910390fd5b80600e81905550620f42406305f5e100600d54600e54610be691906137bb565b610bf09190613829565b610bfa91906137bb565b600f8190555050565b5f8073ffffffffffffffffffffffffffffffffffffffff168273ffffffffffffffffffffffffffffffffffffffff1603610c74575f6040517f89c62b64000000000000000000000000000000000000000000000000000000008152600401610c6b919061311a565b60405180910390fd5b60045f8373ffffffffffffffffffffffffffffffffffffffff1673ffffffffffffffffffffffffffffffffffffffff1681526020019081526020015f20549050919050565b610cc1611548565b610cca5f611ca4565b565b60105481565b5f805f9054906101000a900473ffffffffffffffffffffffffffffffffffffffff16905090565b5f60165f9054906101000a900473ffffffffffffffffffffffffffffffffffffffff1673ffffffffffffffffffffffffffffffffffffffff1663feaf968c6040518163ffffffff1660e01b815260040160a060405180830381865afa158015610d64573d5f803e3d5ffd5b505050506040513d601f19601f82011682018060405250810190610d8891906139ac565b50505091505080600d8190555050565b606060028054610da7906136c1565b80601f0160208091040260200160405190810160405280929190818152602001828054610dd3906136c1565b8015610e1e5780601f10610df557610100808354040283529160200191610e1e565b820191905f5260205f20905b815481529060010190602001808311610e0157829003601f168201915b5050505050905090565b610e3a610e33611224565b8383611d65565b5050565b60115481565b610e4f8484846107ed565b610e5b84848484611ece565b50505050565b6060610e6c82611165565b505f60075f8481526020019081526020015f208054610e8a906136c1565b80601f0160208091040260200160405190810160405280929190818152602001828054610eb6906136c1565b8015610f015780601f10610ed857610100808354040283529160200191610f01565b820191905f5260205f20905b815481529060010190602001808311610ee457829003601f168201915b505050505090505f610f11612080565b90505f815103610f25578192505050610f67565b5f82511115610f59578082604051602001610f41929190613a5d565b60405160208183030381529060405292505050610f67565b610f6284612096565b925050505b919050565b5f60065f8473ffffffffffffffffffffffffffffffffffffffff1673ffffffffffffffffffffffffffffffffffffffff1681526020019081526020015f205f8373ffffffffffffffffffffffffffffffffffffffff1673ffffffffffffffffffffffffffffffffffffffff1681526020019081526020015f205f9054906101000a900460ff16905092915050565b600f5481565b611008611548565b5f73ffffffffffffffffffffffffffffffffffffffff168173ffffffffffffffffffffffffffffffffffffffff1603611078575f6040517f1e4fbdf700000000000000000000000000000000000000000000000000000000815260040161106f919061311a565b60405180910390fd5b61108181611ca4565b50565b5f7f80ac58cd000000000000000000000000000000000000000000000000000000007bffffffffffffffffffffffffffffffffffffffffffffffffffffffff1916827bffffffffffffffffffffffffffffffffffffffffffffffffffffffff1916148061114e57507f5b5e139f000000000000000000000000000000000000000000000000000000007bffffffffffffffffffffffffffffffffffffffffffffffffffffffff1916827bffffffffffffffffffffffffffffffffffffffffffffffffffffffff1916145b8061115e575061115d826120fc565b5b9050919050565b5f8061117083612165565b90505f73ffffffffffffffffffffffffffffffffffffffff168173ffffffffffffffffffffffffffffffffffffffff16036111e257826040517f7e2732890000000000000000000000000000000000000000000000000000000081526004016111d991906134bb565b60405180910390fd5b80915050919050565b5f60055f8381526020019081526020015f205f9054906101000a900473ffffffffffffffffffffffffffffffffffffffff169050919050565b5f33905090565b611238838383600161219e565b505050565b826012541461128357826040517fd068bf5b00000000000000000000000000000000000000000000000000000000815260040161127a91906134a2565b60405180910390fd5b818060200190518101906112979190613b1e565b60085f015f60086001015f60086002015f60086003015f8891905055879190505586919050558591905090816112cd9190613d3b565b505050505080601490816112e19190613e6c565b50827f07cee4eeecce4c378bcabac3921fe1ee240f2f7a24775769790937e3a8165c0760085f01600860010154600860020154600860030154601360146040516113309695949392919061404d565b60405180910390a2505050565b5f8061134884612165565b90505f73ffffffffffffffffffffffffffffffffffffffff168373ffffffffffffffffffffffffffffffffffffffff16146113895761138881848661235d565b5b5f73ffffffffffffffffffffffffffffffffffffffff168173ffffffffffffffffffffffffffffffffffffffff1614611414576113c85f855f8061219e565b600160045f8373ffffffffffffffffffffffffffffffffffffffff1673ffffffffffffffffffffffffffffffffffffffff1681526020019081526020015f205f82825403925050819055505b5f73ffffffffffffffffffffffffffffffffffffffff168573ffffffffffffffffffffffffffffffffffffffff161461149357600160045f8773ffffffffffffffffffffffffffffffffffffffff1673ffffffffffffffffffffffffffffffffffffffff1681526020019081526020015f205f82825401925050819055505b8460035f8681526020019081526020015f205f6101000a81548173ffffffffffffffffffffffffffffffffffffffff021916908373ffffffffffffffffffffffffffffffffffffffff160217905550838573ffffffffffffffffffffffffffffffffffffffff168273ffffffffffffffffffffffffffffffffffffffff167fddf252ad1be2c89b69c2b068fc378daa952ba7f163c4a11628f55a4df523b3ef60405160405180910390a4809150509392505050565b611550611224565b73ffffffffffffffffffffffffffffffffffffffff1661156e610cd2565b73ffffffffffffffffffffffffffffffffffffffff16146115cd57611591611224565b6040517f118cdaa70000000000000000000000000000000000000000000000000000000081526004016115c4919061311a565b60405180910390fd5b565b6115db825f8084612420565b5050565b60605f6115ed6101006124c6565b90506116376040518060400160405280600c81526020017f636f64654c6f636174696f6e0000000000000000000000000000000000000000815250826124eb90919063ffffffff16565b61165f835f015160028111156116505761164f6140c1565b5b8261251390919063ffffffff16565b6116a76040518060400160405280600881526020017f6c616e6775616765000000000000000000000000000000000000000000000000815250826124eb90919063ffffffff16565b6116cf83604001515f8111156116c0576116bf6140c1565b5b8261251390919063ffffffff16565b6117176040518060400160405280600681526020017f736f757263650000000000000000000000000000000000000000000000000000815250826124eb90919063ffffffff16565b61172e8360600151826124eb90919063ffffffff16565b5f8360a001515111156117e8576117836040518060400160405280600481526020017f6172677300000000000000000000000000000000000000000000000000000000815250826124eb90919063ffffffff16565b61178c81612562565b5f5b8360a00151518110156117dd576117cc8460a0015182815181106117b5576117b46140ee565b5b6020026020010151836124eb90919063ffffffff16565b806117d690613859565b905061178e565b506117e78161258a565b5b5f8360800151511115611927575f6002811115611808576118076140c1565b5b8360200151600281111561181f5761181e6140c1565b5b03611856576040517fa80d31f700000000000000000000000000000000000000000000000000000000815260040160405180910390fd5b61189e6040518060400160405280600f81526020017f736563726574734c6f636174696f6e0000000000000000000000000000000000815250826124eb90919063ffffffff16565b6118c7836020015160028111156118b8576118b76140c1565b5b8261251390919063ffffffff16565b61190f6040518060400160405280600781526020017f7365637265747300000000000000000000000000000000000000000000000000815250826124eb90919063ffffffff16565b6119268360800151826125b290919063ffffffff16565b5b5f8360c001515111156119e15761197c6040518060400160405280600981526020017f6279746573417267730000000000000000000000000000000000000000000000815250826124eb90919063ffffffff16565b61198581612562565b5f5b8360c00151518110156119d6576119c58460c0015182815181106119ae576119ad6140ee565b5b6020026020010151836125b290919063ffffffff16565b806119cf90613859565b9050611987565b506119e08161258a565b5b805f01515f0151915050919050565b5f807f000000000000000000000000000000000000000000000000000000000000000073ffffffffffffffffffffffffffffffffffffffff1663461d27628688600188886040518663ffffffff1660e01b8152600401611a5495949392919061419c565b6020604051808303815f875af1158015611a70573d5f803e3d5ffd5b505050506040513d601f19601f82011682018060405250810190611a949190614208565b9050807f1131472297a800fee664d1d89cfa8f7676ff07189ecc53f80bbb5f4969099db860405160405180910390a280915050949350505050565b60605f60085f01611ae46008600101546125da565b611af26008600201546125da565b611b006008600301546125da565b604051602001611b139493929190614735565b60405160208183030381529060405290505f611b2e826126a4565b905080604051602001611b41919061484b565b6040516020818303038152906040529250505090565b5f73ffffffffffffffffffffffffffffffffffffffff168273ffffffffffffffffffffffffffffffffffffffff1603611bc7575f6040517f64a0ae92000000000000000000000000000000000000000000000000000000008152600401611bbe919061311a565b60405180910390fd5b5f611bd383835f61133d565b90505f73ffffffffffffffffffffffffffffffffffffffff168173ffffffffffffffffffffffffffffffffffffffff1614611c45575f6040517f73c6ac6e000000000000000000000000000000000000000000000000000000008152600401611c3c919061311a565b60405180910390fd5b505050565b8060075f8481526020019081526020015f209081611c689190613d3b565b507ff8e1a15aba9398e019f0b49df1a4fde98ee17ae345cb5f6b5e2c27f5033e8ce782604051611c9891906134bb565b60405180910390a15050565b5f805f9054906101000a900473ffffffffffffffffffffffffffffffffffffffff169050815f806101000a81548173ffffffffffffffffffffffffffffffffffffffff021916908373ffffffffffffffffffffffffffffffffffffffff1602179055508173ffffffffffffffffffffffffffffffffffffffff168173ffffffffffffffffffffffffffffffffffffffff167f8be0079c531659141344cd1fd0a4f28419497f9722a3daafe3b4186f6b6457e060405160405180910390a35050565b5f73ffffffffffffffffffffffffffffffffffffffff168273ffffffffffffffffffffffffffffffffffffffff1603611dd557816040517f5b08ba18000000000000000000000000000000000000000000000000000000008152600401611dcc919061311a565b60405180910390fd5b8060065f8573ffffffffffffffffffffffffffffffffffffffff1673ffffffffffffffffffffffffffffffffffffffff1681526020019081526020015f205f8473ffffffffffffffffffffffffffffffffffffffff1673ffffffffffffffffffffffffffffffffffffffff1681526020019081526020015f205f6101000a81548160ff0219169083151502179055508173ffffffffffffffffffffffffffffffffffffffff168373ffffffffffffffffffffffffffffffffffffffff167f17307eab39ab6107e8899845ad3d59bd9653f200f220920489ca2b5937696c3183604051611ec19190612fba565b60405180910390a3505050565b5f8373ffffffffffffffffffffffffffffffffffffffff163b111561207a578273ffffffffffffffffffffffffffffffffffffffff1663150b7a02611f11611224565b8685856040518563ffffffff1660e01b8152600401611f33949392919061486c565b6020604051808303815f875af1925050508015611f6e57506040513d601f19601f82011682018060405250810190611f6b91906148ca565b60015b611fef573d805f8114611f9c576040519150601f19603f3d011682016040523d82523d5f602084013e611fa1565b606091505b505f815103611fe757836040517f64a0ae92000000000000000000000000000000000000000000000000000000008152600401611fde919061311a565b60405180910390fd5b805181602001fd5b63150b7a0260e01b7bffffffffffffffffffffffffffffffffffffffffffffffffffffffff1916817bffffffffffffffffffffffffffffffffffffffffffffffffffffffff19161461207857836040517f64a0ae9200000000000000000000000000000000000000000000000000000000815260040161206f919061311a565b60405180910390fd5b505b50505050565b606060405180602001604052805f815250905090565b60606120a182611165565b505f6120ab612080565b90505f8151116120c95760405180602001604052805f8152506120f4565b806120d3846125da565b6040516020016120e4929190613a5d565b6040516020818303038152906040525b915050919050565b5f7f01ffc9a7000000000000000000000000000000000000000000000000000000007bffffffffffffffffffffffffffffffffffffffffffffffffffffffff1916827bffffffffffffffffffffffffffffffffffffffffffffffffffffffff1916149050919050565b5f60035f8381526020019081526020015f205f9054906101000a900473ffffffffffffffffffffffffffffffffffffffff169050919050565b80806121d657505f73ffffffffffffffffffffffffffffffffffffffff168273ffffffffffffffffffffffffffffffffffffffff1614155b15612308575f6121e584611165565b90505f73ffffffffffffffffffffffffffffffffffffffff168373ffffffffffffffffffffffffffffffffffffffff161415801561224f57508273ffffffffffffffffffffffffffffffffffffffff168173ffffffffffffffffffffffffffffffffffffffff1614155b801561226257506122608184610f6c565b155b156122a457826040517fa9fbf51f00000000000000000000000000000000000000000000000000000000815260040161229b919061311a565b60405180910390fd5b811561230657838573ffffffffffffffffffffffffffffffffffffffff168273ffffffffffffffffffffffffffffffffffffffff167f8c5be1e5ebec7d5bd14f71427d1e84f3dd0314c0f7b2291e5b200ac8c7c3b92560405160405180910390a45b505b8360055f8581526020019081526020015f205f6101000a81548173ffffffffffffffffffffffffffffffffffffffff021916908373ffffffffffffffffffffffffffffffffffffffff16021790555050505050565b612368838383612811565b61241b575f73ffffffffffffffffffffffffffffffffffffffff168373ffffffffffffffffffffffffffffffffffffffff16036123dc57806040517f7e2732890000000000000000000000000000000000000000000000000000000081526004016123d391906134bb565b60405180910390fd5b81816040517f177e802f0000000000000000000000000000000000000000000000000000000081526004016124129291906148f5565b60405180910390fd5b505050565b5f81510361245a576040517f22ce3edd00000000000000000000000000000000000000000000000000000000815260040160405180910390fd5b82845f01906002811115612471576124706140c1565b5b90816002811115612485576124846140c1565b5b815250508184604001905f8111156124a05761249f6140c1565b5b90815f8111156124b3576124b26140c1565b5b8152505080846060018190525050505050565b6124ce612ed7565b6124db815f0151836128d1565b505f816020018181525050919050565b6124f88260038351612947565b61250e81835f0151612ae790919063ffffffff16565b505050565b61253460026005600660ff16901b17835f0151612b0390919063ffffffff16565b5061255e828260405160200161254a91906134bb565b6040516020818303038152906040526125b2565b5050565b61256d816004612b6a565b600181602001818151612580919061491c565b9150818152505050565b612595816007612b6a565b6001816020018181516125a8919061494f565b9150818152505050565b6125bf8260028351612947565b6125d581835f0151612ae790919063ffffffff16565b505050565b60605f60016125e884612b8f565b0190505f8167ffffffffffffffff811115612606576126056131d6565b5b6040519080825280601f01601f1916602001820160405280156126385781602001600182028036833780820191505090505b5090505f82602001820190505b600115612699578080600190039150507f3031323334353637383961626364656600000000000000000000000000000000600a86061a8153600a858161268e5761268d6137fc565b5b0494505f8503612645575b819350505050919050565b60605f8251036126c45760405180602001604052805f815250905061280c565b5f604051806060016040528060408152602001614b2c6040913990505f6003600285516126f1919061491c565b6126fb9190613829565b600461270791906137bb565b67ffffffffffffffff8111156127205761271f6131d6565b5b6040519080825280601f01601f1916602001820160405280156127525781602001600182028036833780820191505090505b509050600182016020820185865187016020810180515f82525b828410156127c7576003840193508351603f8160121c168701518653600186019550603f81600c1c168701518653600186019550603f8160061c168701518653600186019550603f811687015186536001860195505061276c565b80825260038a5106600181146127e457600281146127f7576127ff565b603d6001870353603d60028703536127ff565b603d60018703535b5050505050505080925050505b919050565b5f8073ffffffffffffffffffffffffffffffffffffffff168373ffffffffffffffffffffffffffffffffffffffff16141580156128c857508273ffffffffffffffffffffffffffffffffffffffff168473ffffffffffffffffffffffffffffffffffffffff16148061288957506128888484610f6c565b5b806128c757508273ffffffffffffffffffffffffffffffffffffffff166128af836111eb565b73ffffffffffffffffffffffffffffffffffffffff16145b5b90509392505050565b6128d9612ef6565b5f6020836128e79190614982565b14612913576020826128f99190614982565b6020612905919061494f565b82612910919061491c565b91505b818360200181815250506040518084525f815282810160200181811015612938575f80fd5b80604052505082905092915050565b60178167ffffffffffffffff16116129815761297b8160058460ff16901b60ff1617845f0151612b0390919063ffffffff16565b50612ae2565b60ff8167ffffffffffffffff16116129dd576129b3601860058460ff16901b17845f0151612b0390919063ffffffff16565b506129d78167ffffffffffffffff166001855f0151612ce09092919063ffffffff16565b50612ae1565b61ffff8167ffffffffffffffff1611612a3a57612a10601960058460ff16901b17845f0151612b0390919063ffffffff16565b50612a348167ffffffffffffffff166002855f0151612ce09092919063ffffffff16565b50612ae0565b63ffffffff8167ffffffffffffffff1611612a9957612a6f601a60058460ff16901b17845f0151612b0390919063ffffffff16565b50612a938167ffffffffffffffff166004855f0151612ce09092919063ffffffff16565b50612adf565b612ab9601b60058460ff16901b17845f0151612b0390919063ffffffff16565b50612add8167ffffffffffffffff166008855f0151612ce09092919063ffffffff16565b505b5b5b5b505050565b612aef612ef6565b612afb83838451612d69565b905092915050565b612b0b612ef6565b5f835f01515190505f600182612b21919061491c565b905084602001518210612b4557612b4485600283612b3f91906137bb565b612e46565b5b84516020838201018581538151831115612b5d578282525b5050849250505092915050565b612b8a601f60058360ff16901b17835f0151612b0390919063ffffffff16565b505050565b5f805f90507a184f03e93ff9f4daa797ed6e38ed64bf6a1f0100000000000000008310612beb577a184f03e93ff9f4daa797ed6e38ed64bf6a1f0100000000000000008381612be157612be06137fc565b5b0492506040810190505b6d04ee2d6d415b85acef81000000008310612c28576d04ee2d6d415b85acef81000000008381612c1e57612c1d6137fc565b5b0492506020810190505b662386f26fc100008310612c5757662386f26fc100008381612c4d57612c4c6137fc565b5b0492506010810190505b6305f5e1008310612c80576305f5e1008381612c7657612c756137fc565b5b0492506008810190505b6127108310612ca5576127108381612c9b57612c9a6137fc565b5b0492506004810190505b60648310612cc85760648381612cbe57612cbd6137fc565b5b0492506002810190505b600a8310612cd7576001810190505b80915050919050565b612ce8612ef6565b5f845f01515190505f8184612cfd919061491c565b90508560200151811115612d2257612d2186600283612d1c91906137bb565b612e46565b5b5f600185610100612d339190614ae1565b612d3d919061494f565b905086518281018783198251161781528151841115612d5a578382525b50508693505050509392505050565b612d71612ef6565b8251821115612d7e575f80fd5b5f845f01515190505f8382612d93919061491c565b90508560200151811115612db857612db786600283612db291906137bb565b612e46565b5b5f8087518051856020830101935080851115612dd2578482525b60208901925050505b60208610612e195780518252602082612df4919061491c565b9150602081612e03919061491c565b9050602086612e12919061494f565b9550612ddb565b5f6001876020036101000a0390508019825116818451168181178552505050879450505050509392505050565b5f825f01519050612e5783836128d1565b50612e628382612ae7565b50505050565b6040518060e001604052805f6002811115612e8657612e856140c1565b5b81526020015f6002811115612e9e57612e9d6140c1565b5b81526020015f80811115612eb557612eb46140c1565b5b8152602001606081526020016060815260200160608152602001606081525090565b6040518060400160405280612eea612ef6565b81526020015f81525090565b6040518060400160405280606081526020015f81525090565b5f604051905090565b5f80fd5b5f80fd5b5f7fffffffff0000000000000000000000000000000000000000000000000000000082169050919050565b612f5481612f20565b8114612f5e575f80fd5b50565b5f81359050612f6f81612f4b565b92915050565b5f60208284031215612f8a57612f89612f18565b5b5f612f9784828501612f61565b91505092915050565b5f8115159050919050565b612fb481612fa0565b82525050565b5f602082019050612fcd5f830184612fab565b92915050565b5f81519050919050565b5f82825260208201905092915050565b5f5b8381101561300a578082015181840152602081019050612fef565b5f8484015250505050565b5f601f19601f8301169050919050565b5f61302f82612fd3565b6130398185612fdd565b9350613049818560208601612fed565b61305281613015565b840191505092915050565b5f6020820190508181035f8301526130758184613025565b905092915050565b5f819050919050565b61308f8161307d565b8114613099575f80fd5b50565b5f813590506130aa81613086565b92915050565b5f602082840312156130c5576130c4612f18565b5b5f6130d28482850161309c565b91505092915050565b5f73ffffffffffffffffffffffffffffffffffffffff82169050919050565b5f613104826130db565b9050919050565b613114816130fa565b82525050565b5f60208201905061312d5f83018461310b565b92915050565b61313c816130fa565b8114613146575f80fd5b50565b5f8135905061315781613133565b92915050565b5f806040838503121561317357613172612f18565b5b5f61318085828601613149565b92505060206131918582860161309c565b9150509250929050565b5f819050919050565b6131ad8161319b565b81146131b7575f80fd5b50565b5f813590506131c8816131a4565b92915050565b5f80fd5b5f80fd5b7f4e487b71000000000000000000000000000000000000000000000000000000005f52604160045260245ffd5b61320c82613015565b810181811067ffffffffffffffff8211171561322b5761322a6131d6565b5b80604052505050565b5f61323d612f0f565b90506132498282613203565b919050565b5f67ffffffffffffffff821115613268576132676131d6565b5b61327182613015565b9050602081019050919050565b828183375f83830152505050565b5f61329e6132998461324e565b613234565b9050828152602081018484840111156132ba576132b96131d2565b5b6132c584828561327e565b509392505050565b5f82601f8301126132e1576132e06131ce565b5b81356132f184826020860161328c565b91505092915050565b5f805f6060848603121561331157613310612f18565b5b5f61331e868287016131ba565b935050602084013567ffffffffffffffff81111561333f5761333e612f1c565b5b61334b868287016132cd565b925050604084013567ffffffffffffffff81111561336c5761336b612f1c565b5b613378868287016132cd565b9150509250925092565b61338b8161307d565b82525050565b5f6080820190508181035f8301526133a98187613025565b90506133b86020830186613382565b6133c56040830185613382565b6133d26060830184613382565b95945050505050565b5f805f606084860312156133f2576133f1612f18565b5b5f6133ff86828701613149565b935050602061341086828701613149565b92505060406134218682870161309c565b9150509250925092565b5f67ffffffffffffffff82169050919050565b6134478161342b565b8114613451575f80fd5b50565b5f813590506134628161343e565b92915050565b5f6020828403121561347d5761347c612f18565b5b5f61348a84828501613454565b91505092915050565b61349c8161319b565b82525050565b5f6020820190506134b55f830184613493565b92915050565b5f6020820190506134ce5f830184613382565b92915050565b5f80604083850312156134ea576134e9612f18565b5b5f6134f78582860161309c565b92505060206135088582860161309c565b9150509250929050565b5f819050919050565b61352481613512565b82525050565b5f60208201905061353d5f83018461351b565b92915050565b5f6020828403121561355857613557612f18565b5b5f61356584828501613149565b91505092915050565b61357781612fa0565b8114613581575f80fd5b50565b5f813590506135928161356e565b92915050565b5f80604083850312156135ae576135ad612f18565b5b5f6135bb85828601613149565b92505060206135cc85828601613584565b9150509250929050565b5f805f80608085870312156135ee576135ed612f18565b5b5f6135fb87828801613149565b945050602061360c87828801613149565b935050604061361d8782880161309c565b925050606085013567ffffffffffffffff81111561363e5761363d612f1c565b5b61364a878288016132cd565b91505092959194509250565b5f806040838503121561366c5761366b612f18565b5b5f61367985828601613149565b925050602061368a85828601613149565b9150509250929050565b7f4e487b71000000000000000000000000000000000000000000000000000000005f52602260045260245ffd5b5f60028204905060018216806136d857607f821691505b6020821081036136eb576136ea613694565b5b50919050565b5f6060820190506137045f83018661310b565b6137116020830185613382565b61371e604083018461310b565b949350505050565b7f546f6b656e73206861766520616c7265616479206265656e20697373756564005f82015250565b5f61375a601f83612fdd565b915061376582613726565b602082019050919050565b5f6020820190508181035f8301526137878161374e565b9050919050565b7f4e487b71000000000000000000000000000000000000000000000000000000005f52601160045260245ffd5b5f6137c58261307d565b91506137d08361307d565b92508282026137de8161307d565b915082820484148315176137f5576137f461378e565b5b5092915050565b7f4e487b71000000000000000000000000000000000000000000000000000000005f52601260045260245ffd5b5f6138338261307d565b915061383e8361307d565b92508261384e5761384d6137fc565b5b828204905092915050565b5f6138638261307d565b91507fffffffffffffffffffffffffffffffffffffffffffffffffffffffffffffffff82036138955761389461378e565b5b600182019050919050565b5f6040820190506138b35f830185613382565b6138c06020830184613382565b9392505050565b7f546f6b656e732068617665206e6f74206265656e2069737375656400000000005f82015250565b5f6138fb601b83612fdd565b9150613906826138c7565b602082019050919050565b5f6020820190508181035f830152613928816138ef565b9050919050565b5f69ffffffffffffffffffff82169050919050565b61394d8161392f565b8114613957575f80fd5b50565b5f8151905061396881613944565b92915050565b61397781613512565b8114613981575f80fd5b50565b5f815190506139928161396e565b92915050565b5f815190506139a681613086565b92915050565b5f805f805f60a086880312156139c5576139c4612f18565b5b5f6139d28882890161395a565b95505060206139e388828901613984565b94505060406139f488828901613998565b9350506060613a0588828901613998565b9250506080613a168882890161395a565b9150509295509295909350565b5f81905092915050565b5f613a3782612fd3565b613a418185613a23565b9350613a51818560208601612fed565b80840191505092915050565b5f613a688285613a2d565b9150613a748284613a2d565b91508190509392505050565b5f67ffffffffffffffff821115613a9a57613a996131d6565b5b613aa382613015565b9050602081019050919050565b5f613ac2613abd84613a80565b613234565b905082815260208101848484011115613ade57613add6131d2565b5b613ae9848285612fed565b509392505050565b5f82601f830112613b0557613b046131ce565b5b8151613b15848260208601613ab0565b91505092915050565b5f805f8060808587031215613b3657613b35612f18565b5b5f85015167ffffffffffffffff811115613b5357613b52612f1c565b5b613b5f87828801613af1565b9450506020613b7087828801613998565b9350506040613b8187828801613998565b9250506060613b9287828801613998565b91505092959194509250565b5f819050815f5260205f209050919050565b5f6020601f8301049050919050565b5f82821b905092915050565b5f60088302613bfa7fffffffffffffffffffffffffffffffffffffffffffffffffffffffffffffffff82613bbf565b613c048683613bbf565b95508019841693508086168417925050509392505050565b5f819050919050565b5f613c3f613c3a613c358461307d565b613c1c565b61307d565b9050919050565b5f819050919050565b613c5883613c25565b613c6c613c6482613c46565b848454613bcb565b825550505050565b5f90565b613c80613c74565b613c8b818484613c4f565b505050565b5b81811015613cae57613ca35f82613c78565b600181019050613c91565b5050565b601f821115613cf357613cc481613b9e565b613ccd84613bb0565b81016020851015613cdc578190505b613cf0613ce885613bb0565b830182613c90565b50505b505050565b5f82821c905092915050565b5f613d135f1984600802613cf8565b1980831691505092915050565b5f613d2b8383613d04565b9150826002028217905092915050565b613d4482612fd3565b67ffffffffffffffff811115613d5d57613d5c6131d6565b5b613d6782546136c1565b613d72828285613cb2565b5f60209050601f831160018114613da3575f8415613d91578287015190505b613d9b8582613d20565b865550613e02565b601f198416613db186613b9e565b5f5b82811015613dd857848901518255600182019150602085019450602081019050613db3565b86831015613df55784890151613df1601f891682613d04565b8355505b6001600288020188555050505b505050505050565b5f81519050919050565b5f819050815f5260205f209050919050565b601f821115613e6757613e3881613e14565b613e4184613bb0565b81016020851015613e50578190505b613e64613e5c85613bb0565b830182613c90565b50505b505050565b613e7582613e0a565b67ffffffffffffffff811115613e8e57613e8d6131d6565b5b613e9882546136c1565b613ea3828285613e26565b5f60209050601f831160018114613ed4575f8415613ec2578287015190505b613ecc8582613d20565b865550613f33565b601f198416613ee286613e14565b5f5b82811015613f0957848901518255600182019150602085019450602081019050613ee4565b86831015613f265784890151613f22601f891682613d04565b8355505b6001600288020188555050505b505050505050565b5f8154613f47816136c1565b613f518186612fdd565b9450600182165f8114613f6b5760018114613f8157613fb3565b60ff198316865281151560200286019350613fb3565b613f8a85613b9e565b5f5b83811015613fab57815481890152600182019150602081019050613f8c565b808801955050505b50505092915050565b5f82825260208201905092915050565b5f8154613fd8816136c1565b613fe28186613fbc565b9450600182165f8114613ffc576001811461401257614044565b60ff198316865281151560200286019350614044565b61401b85613e14565b5f5b8381101561403c5781548189015260018201915060208101905061401d565b808801955050505b50505092915050565b5f60c0820190508181035f8301526140658189613f3b565b90506140746020830188613382565b6140816040830187613382565b61408e6060830186613382565b81810360808301526140a08185613fcc565b905081810360a08301526140b48184613fcc565b9050979650505050505050565b7f4e487b71000000000000000000000000000000000000000000000000000000005f52602160045260245ffd5b7f4e487b71000000000000000000000000000000000000000000000000000000005f52603260045260245ffd5b6141248161342b565b82525050565b5f61413482613e0a565b61413e8185613fbc565b935061414e818560208601612fed565b61415781613015565b840191505092915050565b5f61ffff82169050919050565b61417881614162565b82525050565b5f63ffffffff82169050919050565b6141968161417e565b82525050565b5f60a0820190506141af5f83018861411b565b81810360208301526141c1818761412a565b90506141d0604083018661416f565b6141dd606083018561418d565b6141ea6080830184613493565b9695505050505050565b5f81519050614202816131a4565b92915050565b5f6020828403121561421d5761421c612f18565b5b5f61422a848285016141f4565b91505092915050565b7f7b226e616d65223a2022363239204861726c656d204c4c4d222c0000000000005f82015250565b5f614267601a83613a23565b915061427282614233565b601a82019050919050565b7f226465736372697074696f6e223a20225257415420666f7220363239204861725f8201527f6c656d204c4c4d222c0000000000000000000000000000000000000000000000602082015250565b5f6142d7602983613a23565b91506142e28261427d565b602982019050919050565b7f22696d616765223a2022697066733a2f2f516d59584d4633364d34746e344c6d5f8201527f7554576a617965626f625450737945727762673934717a4c415871644d47792260208201527f2c00000000000000000000000000000000000000000000000000000000000000604082015250565b5f61436d604183613a23565b9150614378826142ed565b604182019050919050565b7f2261747472696275746573223a205b00000000000000000000000000000000005f82015250565b5f6143b7600f83613a23565b91506143c282614383565b600f82019050919050565b7f7b2274726169745f74797065223a20224c6f636174696f6e222c2276616c75655f8201527f223a202200000000000000000000000000000000000000000000000000000000602082015250565b5f614427602483613a23565b9150614432826143cd565b602482019050919050565b5f8154614449816136c1565b6144538186613a23565b9450600182165f811461446d5760018114614482576144b4565b60ff19831686528115158202860193506144b4565b61448b85613b9e565b5f5b838110156144ac5781548189015260018201915060208101905061448d565b838801955050505b50505092915050565b7f227d2c00000000000000000000000000000000000000000000000000000000005f82015250565b5f6144f1600383613a23565b91506144fc826144bd565b600382019050919050565b7f7b2274726169745f74797065223a20224c6f742053697a65222c2276616c75655f8201527f223a200000000000000000000000000000000000000000000000000000000000602082015250565b5f614561602383613a23565b915061456c82614507565b602382019050919050565b7f7d2c0000000000000000000000000000000000000000000000000000000000005f82015250565b5f6145ab600283613a23565b91506145b682614577565b600282019050919050565b7f7b2274726169745f74797065223a2022546f74616c205072696365222c2276615f8201527f6c7565223a200000000000000000000000000000000000000000000000000000602082015250565b5f61461b602683613a23565b9150614626826145c1565b602682019050919050565b7f7b2274726169745f74797065223a20225461782041737365737365642056616c5f8201527f7565222c2276616c7565223a2000000000000000000000000000000000000000602082015250565b5f61468b602d83613a23565b915061469682614631565b602d82019050919050565b7f7d000000000000000000000000000000000000000000000000000000000000005f82015250565b5f6146d5600183613a23565b91506146e0826146a1565b600182019050919050565b7f5d7d0000000000000000000000000000000000000000000000000000000000005f82015250565b5f61471f600283613a23565b915061472a826146eb565b600282019050919050565b5f61473f8261425b565b915061474a826142cb565b915061475582614361565b9150614760826143ab565b915061476b8261441b565b9150614777828761443d565b9150614782826144e5565b915061478d82614555565b91506147998286613a2d565b91506147a48261459f565b91506147af8261460f565b91506147bb8285613a2d565b91506147c68261459f565b91506147d18261467f565b91506147dd8284613a2d565b91506147e8826146c9565b91506147f382614713565b915081905095945050505050565b7f646174613a6170706c69636174696f6e2f6a736f6e3b6261736536342c0000005f82015250565b5f614835601d83613a23565b915061484082614801565b601d82019050919050565b5f61485582614829565b91506148618284613a2d565b915081905092915050565b5f60808201905061487f5f83018761310b565b61488c602083018661310b565b6148996040830185613382565b81810360608301526148ab818461412a565b905095945050505050565b5f815190506148c481612f4b565b92915050565b5f602082840312156148df576148de612f18565b5b5f6148ec848285016148b6565b91505092915050565b5f6040820190506149085f83018561310b565b6149156020830184613382565b9392505050565b5f6149268261307d565b91506149318361307d565b92508282019050808211156149495761494861378e565b5b92915050565b5f6149598261307d565b91506149648361307d565b925082820390508181111561497c5761497b61378e565b5b92915050565b5f61498c8261307d565b91506149978361307d565b9250826149a7576149a66137fc565b5b828206905092915050565b5f8160011c9050919050565b5f808291508390505b6001851115614a07578086048111156149e3576149e261378e565b5b60018516156149f25780820291505b8081029050614a00856149b2565b94506149c7565b94509492505050565b5f82614a1f5760019050614ada565b81614a2c575f9050614ada565b8160018114614a425760028114614a4c57614a7b565b6001915050614ada565b60ff841115614a5e57614a5d61378e565b5b8360020a915084821115614a7557614a7461378e565b5b50614ada565b5060208310610133831016604e8410600b8410161715614ab05782820a905083811115614aab57614aaa61378e565b5b614ada565b614abd84848460016149be565b92509050818404811115614ad457614ad361378e565b5b81810290505b9392505050565b5f614aeb8261307d565b9150614af68361307d565b9250614b237fffffffffffffffffffffffffffffffffffffffffffffffffffffffffffffffff8484614a10565b90509291505056fe4142434445464748494a4b4c4d4e4f505152535455565758595a6162636465666768696a6b6c6d6e6f707172737475767778797a303132333435363738392b2fa2646970667358221220f28dfebc68c96cd294a5adfb77cc511c55a56ecfba39e4f3d98d6896959a973564736f6c63430008140033636f6e7374207b20657468657273207d203d20617761697420696d706f727428276e706d3a65746865727340362e31302e3027293b636f6e737420616269436f646572203d206574686572732e416269436f6465722e64656661756c74416269436f64657228293b636f6e737420617069526573706f6e7365203d2061776169742046756e6374696f6e732e6d616b654874747052657175657374287b2020202075726c3a202768747470733a2f2f67656e69656261636b626f6e652e617a75726577656273697465732e6e65742f6170692f70726f706572746965732f64656d6f277d293b636f6e7374207b2064617461207d203d20617069526573706f6e73652e646174613b636f6e7374206c6f636174696f6e203d20646174612e6c6f636174696f6e3b636f6e7374206c6f7453697a65203d204e756d62657228646174612e6c6f7453697a65293b636f6e737420746f74616c5072696365203d204e756d62657228646174612e746f74616c5072696365293b636f6e737420746178417373657373656456616c7565203d204e756d62657228646174612e746178417373657373656456616c7565293b636f6e737420656e636f646564203d20616269436f6465722e656e636f6465285b60737472696e67602c206075696e74323536602c206075696e74323536602c206075696e74323536605d2c205b6c6f636174696f6e2c206c6f7453697a652c20746f74616c50726963652c20746178417373657373656456616c75655d293b72657475726e206574686572732e676574427974657328656e636f646564293b",
			"opcodes": "PUSH2 0x100 PUSH1 0x40 MSTORE PUSH0 PUSH1 0xC PUSH0 PUSH2 0x100 EXP DUP2 SLOAD DUP2 PUSH1 0xFF MUL NOT AND SWAP1 DUP4 ISZERO ISZERO MUL OR SWAP1 SSTORE POP PUSH0 PUSH1 0x11 SSTORE PUSH1 0x40 MLOAD DUP1 PUSH2 0x280 ADD PUSH1 0x40 MSTORE DUP1 PUSH2 0x24E DUP2 MSTORE PUSH1 0x20 ADD PUSH3 0x52CD PUSH2 0x24E SWAP2 CODECOPY PUSH1 0x15 SWAP1 DUP2 PUSH3 0x4F SWAP2 SWAP1 PUSH3 0x5B2 JUMP JUMPDEST POP PUSH3 0x493E0 PUSH4 0xFFFFFFFF AND PUSH1 0xA0 SWAP1 PUSH4 0xFFFFFFFF AND DUP2 MSTORE POP PUSH20 0xB83E47C2BC239B3BF370BC41E1459A34B41238D0 PUSH20 0xFFFFFFFFFFFFFFFFFFFFFFFFFFFFFFFFFFFFFFFF AND PUSH1 0xC0 SWAP1 PUSH20 0xFFFFFFFFFFFFFFFFFFFFFFFFFFFFFFFFFFFFFFFF AND DUP2 MSTORE POP PUSH32 0x66756E2D657468657265756D2D7365706F6C69612D3100000000000000000000 PUSH0 SHL PUSH1 0xE0 SWAP1 DUP2 MSTORE POP CALLVALUE DUP1 ISZERO PUSH3 0xE2 JUMPI PUSH0 DUP1 REVERT JUMPDEST POP PUSH1 0x40 MLOAD DUP1 PUSH1 0x40 ADD PUSH1 0x40 MSTORE DUP1 PUSH1 0x13 DUP2 MSTORE PUSH1 0x20 ADD PUSH32 0x5265616C576F726C644173736574546F6B656E00000000000000000000000000 DUP2 MSTORE POP PUSH1 0x40 MLOAD DUP1 PUSH1 0x40 ADD PUSH1 0x40 MSTORE DUP1 PUSH1 0x4 DUP2 MSTORE PUSH1 0x20 ADD PUSH32 0x5257415400000000000000000000000000000000000000000000000000000000 DUP2 MSTORE POP CALLER PUSH1 0xC0 MLOAD DUP1 PUSH20 0xFFFFFFFFFFFFFFFFFFFFFFFFFFFFFFFFFFFFFFFF AND PUSH1 0x80 DUP2 PUSH20 0xFFFFFFFFFFFFFFFFFFFFFFFFFFFFFFFFFFFFFFFF AND DUP2 MSTORE POP POP POP PUSH0 PUSH20 0xFFFFFFFFFFFFFFFFFFFFFFFFFFFFFFFFFFFFFFFF AND DUP2 PUSH20 0xFFFFFFFFFFFFFFFFFFFFFFFFFFFFFFFFFFFFFFFF AND SUB PUSH3 0x1FB JUMPI PUSH0 PUSH1 0x40 MLOAD PUSH32 0x1E4FBDF700000000000000000000000000000000000000000000000000000000 DUP2 MSTORE PUSH1 0x4 ADD PUSH3 0x1F2 SWAP2 SWAP1 PUSH3 0x6D9 JUMP JUMPDEST PUSH1 0x40 MLOAD DUP1 SWAP2 SUB SWAP1 REVERT JUMPDEST PUSH3 0x20C DUP2 PUSH3 0x28D PUSH1 0x20 SHL PUSH1 0x20 SHR JUMP JUMPDEST POP DUP2 PUSH1 0x1 SWAP1 DUP2 PUSH3 0x21E SWAP2 SWAP1 PUSH3 0x5B2 JUMP JUMPDEST POP DUP1 PUSH1 0x2 SWAP1 DUP2 PUSH3 0x230 SWAP2 SWAP1 PUSH3 0x5B2 JUMP JUMPDEST POP POP POP PUSH20 0xA2F78AB2355FE2F984D808B5CEE7FD0A93D5270E PUSH1 0x16 PUSH0 PUSH2 0x100 EXP DUP2 SLOAD DUP2 PUSH20 0xFFFFFFFFFFFFFFFFFFFFFFFFFFFFFFFFFFFFFFFF MUL NOT AND SWAP1 DUP4 PUSH20 0xFFFFFFFFFFFFFFFFFFFFFFFFFFFFFFFFFFFFFFFF AND MUL OR SWAP1 SSTORE POP PUSH3 0x6F4 JUMP JUMPDEST PUSH0 DUP1 PUSH0 SWAP1 SLOAD SWAP1 PUSH2 0x100 EXP SWAP1 DIV PUSH20 0xFFFFFFFFFFFFFFFFFFFFFFFFFFFFFFFFFFFFFFFF AND SWAP1 POP DUP2 PUSH0 DUP1 PUSH2 0x100 EXP DUP2 SLOAD DUP2 PUSH20 0xFFFFFFFFFFFFFFFFFFFFFFFFFFFFFFFFFFFFFFFF MUL NOT AND SWAP1 DUP4 PUSH20 0xFFFFFFFFFFFFFFFFFFFFFFFFFFFFFFFFFFFFFFFF AND MUL OR SWAP1 SSTORE POP DUP2 PUSH20 0xFFFFFFFFFFFFFFFFFFFFFFFFFFFFFFFFFFFFFFFF AND DUP2 PUSH20 0xFFFFFFFFFFFFFFFFFFFFFFFFFFFFFFFFFFFFFFFF AND PUSH32 0x8BE0079C531659141344CD1FD0A4F28419497F9722A3DAAFE3B4186F6B6457E0 PUSH1 0x40 MLOAD PUSH1 0x40 MLOAD DUP1 SWAP2 SUB SWAP1 LOG3 POP POP JUMP JUMPDEST PUSH0 DUP2 MLOAD SWAP1 POP SWAP2 SWAP1 POP JUMP JUMPDEST PUSH32 0x4E487B7100000000000000000000000000000000000000000000000000000000 PUSH0 MSTORE PUSH1 0x41 PUSH1 0x4 MSTORE PUSH1 0x24 PUSH0 REVERT JUMPDEST PUSH32 0x4E487B7100000000000000000000000000000000000000000000000000000000 PUSH0 MSTORE PUSH1 0x22 PUSH1 0x4 MSTORE PUSH1 0x24 PUSH0 REVERT JUMPDEST PUSH0 PUSH1 0x2 DUP3 DIV SWAP1 POP PUSH1 0x1 DUP3 AND DUP1 PUSH3 0x3CA JUMPI PUSH1 0x7F DUP3 AND SWAP2 POP JUMPDEST PUSH1 0x20 DUP3 LT DUP2 SUB PUSH3 0x3E0 JUMPI PUSH3 0x3DF PUSH3 0x385 JUMP JUMPDEST JUMPDEST POP SWAP2 SWAP1 POP JUMP JUMPDEST PUSH0 DUP2 SWAP1 POP DUP2 PUSH0 MSTORE PUSH1 0x20 PUSH0 KECCAK256 SWAP1 POP SWAP2 SWAP1 POP JUMP JUMPDEST PUSH0 PUSH1 0x20 PUSH1 0x1F DUP4 ADD DIV SWAP1 POP SWAP2 SWAP1 POP JUMP JUMPDEST PUSH0 DUP3 DUP3 SHL SWAP1 POP SWAP3 SWAP2 POP POP JUMP JUMPDEST PUSH0 PUSH1 0x8 DUP4 MUL PUSH3 0x444 PUSH32 0xFFFFFFFFFFFFFFFFFFFFFFFFFFFFFFFFFFFFFFFFFFFFFFFFFFFFFFFFFFFFFFFF DUP3 PUSH3 0x407 JUMP JUMPDEST PUSH3 0x450 DUP7 DUP4 PUSH3 0x407 JUMP JUMPDEST SWAP6 POP DUP1 NOT DUP5 AND SWAP4 POP DUP1 DUP7 AND DUP5 OR SWAP3 POP POP POP SWAP4 SWAP3 POP POP POP JUMP JUMPDEST PUSH0 DUP2 SWAP1 POP SWAP2 SWAP1 POP JUMP JUMPDEST PUSH0 DUP2 SWAP1 POP SWAP2 SWAP1 POP JUMP JUMPDEST PUSH0 PUSH3 0x49A PUSH3 0x494 PUSH3 0x48E DUP5 PUSH3 0x468 JUMP JUMPDEST PUSH3 0x471 JUMP JUMPDEST PUSH3 0x468 JUMP JUMPDEST SWAP1 POP SWAP2 SWAP1 POP JUMP JUMPDEST PUSH0 DUP2 SWAP1 POP SWAP2 SWAP1 POP JUMP JUMPDEST PUSH3 0x4B5 DUP4 PUSH3 0x47A JUMP JUMPDEST PUSH3 0x4CD PUSH3 0x4C4 DUP3 PUSH3 0x4A1 JUMP JUMPDEST DUP5 DUP5 SLOAD PUSH3 0x413 JUMP JUMPDEST DUP3 SSTORE POP POP POP POP JUMP JUMPDEST PUSH0 SWAP1 JUMP JUMPDEST PUSH3 0x4E3 PUSH3 0x4D5 JUMP JUMPDEST PUSH3 0x4F0 DUP2 DUP5 DUP5 PUSH3 0x4AA JUMP JUMPDEST POP POP POP JUMP JUMPDEST JUMPDEST DUP2 DUP2 LT ISZERO PUSH3 0x517 JUMPI PUSH3 0x50B PUSH0 DUP3 PUSH3 0x4D9 JUMP JUMPDEST PUSH1 0x1 DUP2 ADD SWAP1 POP PUSH3 0x4F6 JUMP JUMPDEST POP POP JUMP JUMPDEST PUSH1 0x1F DUP3 GT ISZERO PUSH3 0x566 JUMPI PUSH3 0x530 DUP2 PUSH3 0x3E6 JUMP JUMPDEST PUSH3 0x53B DUP5 PUSH3 0x3F8 JUMP JUMPDEST DUP2 ADD PUSH1 0x20 DUP6 LT ISZERO PUSH3 0x54B JUMPI DUP2 SWAP1 POP JUMPDEST PUSH3 0x563 PUSH3 0x55A DUP6 PUSH3 0x3F8 JUMP JUMPDEST DUP4 ADD DUP3 PUSH3 0x4F5 JUMP JUMPDEST POP POP JUMPDEST POP POP POP JUMP JUMPDEST PUSH0 DUP3 DUP3 SHR SWAP1 POP SWAP3 SWAP2 POP POP JUMP JUMPDEST PUSH0 PUSH3 0x588 PUSH0 NOT DUP5 PUSH1 0x8 MUL PUSH3 0x56B JUMP JUMPDEST NOT DUP1 DUP4 AND SWAP2 POP POP SWAP3 SWAP2 POP POP JUMP JUMPDEST PUSH0 PUSH3 0x5A2 DUP4 DUP4 PUSH3 0x577 JUMP JUMPDEST SWAP2 POP DUP3 PUSH1 0x2 MUL DUP3 OR SWAP1 POP SWAP3 SWAP2 POP POP JUMP JUMPDEST PUSH3 0x5BD DUP3 PUSH3 0x34E JUMP JUMPDEST PUSH8 0xFFFFFFFFFFFFFFFF DUP2 GT ISZERO PUSH3 0x5D9 JUMPI PUSH3 0x5D8 PUSH3 0x358 JUMP JUMPDEST JUMPDEST PUSH3 0x5E5 DUP3 SLOAD PUSH3 0x3B2 JUMP JUMPDEST PUSH3 0x5F2 DUP3 DUP3 DUP6 PUSH3 0x51B JUMP JUMPDEST PUSH0 PUSH1 0x20 SWAP1 POP PUSH1 0x1F DUP4 GT PUSH1 0x1 DUP2 EQ PUSH3 0x628 JUMPI PUSH0 DUP5 ISZERO PUSH3 0x613 JUMPI DUP3 DUP8 ADD MLOAD SWAP1 POP JUMPDEST PUSH3 0x61F DUP6 DUP3 PUSH3 0x595 JUMP JUMPDEST DUP7 SSTORE POP PUSH3 0x68E JUMP JUMPDEST PUSH1 0x1F NOT DUP5 AND PUSH3 0x638 DUP7 PUSH3 0x3E6 JUMP JUMPDEST PUSH0 JUMPDEST DUP3 DUP2 LT ISZERO PUSH3 0x661 JUMPI DUP5 DUP10 ADD MLOAD DUP3 SSTORE PUSH1 0x1 DUP3 ADD SWAP2 POP PUSH1 0x20 DUP6 ADD SWAP5 POP PUSH1 0x20 DUP2 ADD SWAP1 POP PUSH3 0x63A JUMP JUMPDEST DUP7 DUP4 LT ISZERO PUSH3 0x681 JUMPI DUP5 DUP10 ADD MLOAD PUSH3 0x67D PUSH1 0x1F DUP10 AND DUP3 PUSH3 0x577 JUMP JUMPDEST DUP4 SSTORE POP JUMPDEST PUSH1 0x1 PUSH1 0x2 DUP9 MUL ADD DUP9 SSTORE POP POP POP JUMPDEST POP POP POP POP POP POP JUMP JUMPDEST PUSH0 PUSH20 0xFFFFFFFFFFFFFFFFFFFFFFFFFFFFFFFFFFFFFFFF DUP3 AND SWAP1 POP SWAP2 SWAP1 POP JUMP JUMPDEST PUSH0 PUSH3 0x6C1 DUP3 PUSH3 0x696 JUMP JUMPDEST SWAP1 POP SWAP2 SWAP1 POP JUMP JUMPDEST PUSH3 0x6D3 DUP2 PUSH3 0x6B5 JUMP JUMPDEST DUP3 MSTORE POP POP JUMP JUMPDEST PUSH0 PUSH1 0x20 DUP3 ADD SWAP1 POP PUSH3 0x6EE PUSH0 DUP4 ADD DUP5 PUSH3 0x6C8 JUMP JUMPDEST SWAP3 SWAP2 POP POP JUMP JUMPDEST PUSH1 0x80 MLOAD PUSH1 0xA0 MLOAD PUSH1 0xC0 MLOAD PUSH1 0xE0 MLOAD PUSH2 0x4BA1 PUSH3 0x72C PUSH0 CODECOPY PUSH0 PUSH2 0x9C8 ADD MSTORE PUSH0 POP POP PUSH0 PUSH2 0x9A7 ADD MSTORE PUSH0 DUP2 DUP2 PUSH2 0x678 ADD MSTORE PUSH2 0x19F4 ADD MSTORE PUSH2 0x4BA1 PUSH0 RETURN INVALID PUSH1 0x80 PUSH1 0x40 MSTORE CALLVALUE DUP1 ISZERO PUSH2 0xF JUMPI PUSH0 DUP1 REVERT JUMPDEST POP PUSH1 0x4 CALLDATASIZE LT PUSH2 0x1C2 JUMPI PUSH0 CALLDATALOAD PUSH1 0xE0 SHR DUP1 PUSH4 0x676C0D77 GT PUSH2 0xF7 JUMPI DUP1 PUSH4 0xA22CB465 GT PUSH2 0x95 JUMPI DUP1 PUSH4 0xC87B56DD GT PUSH2 0x6F JUMPI DUP1 PUSH4 0xC87B56DD EQ PUSH2 0x4BB JUMPI DUP1 PUSH4 0xE985E9C5 EQ PUSH2 0x4EB JUMPI DUP1 PUSH4 0xF2413365 EQ PUSH2 0x51B JUMPI DUP1 PUSH4 0xF2FDE38B EQ PUSH2 0x539 JUMPI PUSH2 0x1C2 JUMP JUMPDEST DUP1 PUSH4 0xA22CB465 EQ PUSH2 0x465 JUMPI DUP1 PUSH4 0xB534B5B7 EQ PUSH2 0x481 JUMPI DUP1 PUSH4 0xB88D4FDE EQ PUSH2 0x49F JUMPI PUSH2 0x1C2 JUMP JUMPDEST DUP1 PUSH4 0x7E1C0C09 GT PUSH2 0xD1 JUMPI DUP1 PUSH4 0x7E1C0C09 EQ PUSH2 0x401 JUMPI DUP1 PUSH4 0x8DA5CB5B EQ PUSH2 0x41F JUMPI DUP1 PUSH4 0x8E15F473 EQ PUSH2 0x43D JUMPI DUP1 PUSH4 0x95D89B41 EQ PUSH2 0x447 JUMPI PUSH2 0x1C2 JUMP JUMPDEST DUP1 PUSH4 0x676C0D77 EQ PUSH2 0x3AB JUMPI DUP1 PUSH4 0x70A08231 EQ PUSH2 0x3C7 JUMPI DUP1 PUSH4 0x715018A6 EQ PUSH2 0x3F7 JUMPI PUSH2 0x1C2 JUMP JUMPDEST DUP1 PUSH4 0x23B872DD GT PUSH2 0x164 JUMPI DUP1 PUSH4 0x42842E0E GT PUSH2 0x13E JUMPI DUP1 PUSH4 0x42842E0E EQ PUSH2 0x325 JUMPI DUP1 PUSH4 0x54E35BA2 EQ PUSH2 0x341 JUMPI DUP1 PUSH4 0x6352211E EQ PUSH2 0x35D JUMPI DUP1 PUSH4 0x64492E7D EQ PUSH2 0x38D JUMPI PUSH2 0x1C2 JUMP JUMPDEST DUP1 PUSH4 0x23B872DD EQ PUSH2 0x2BB JUMPI DUP1 PUSH4 0x2F9D6254 EQ PUSH2 0x2D7 JUMPI DUP1 PUSH4 0x407FCC31 EQ PUSH2 0x307 JUMPI PUSH2 0x1C2 JUMP JUMPDEST DUP1 PUSH4 0x95EA7B3 GT PUSH2 0x1A0 JUMPI DUP1 PUSH4 0x95EA7B3 EQ PUSH2 0x244 JUMPI DUP1 PUSH4 0xCA76175 EQ PUSH2 0x260 JUMPI DUP1 PUSH4 0x176FD3F0 EQ PUSH2 0x27C JUMPI DUP1 PUSH4 0x192DDAE5 EQ PUSH2 0x29D JUMPI PUSH2 0x1C2 JUMP JUMPDEST DUP1 PUSH4 0x1FFC9A7 EQ PUSH2 0x1C6 JUMPI DUP1 PUSH4 0x6FDDE03 EQ PUSH2 0x1F6 JUMPI DUP1 PUSH4 0x81812FC EQ PUSH2 0x214 JUMPI JUMPDEST PUSH0 DUP1 REVERT JUMPDEST PUSH2 0x1E0 PUSH1 0x4 DUP1 CALLDATASIZE SUB DUP2 ADD SWAP1 PUSH2 0x1DB SWAP2 SWAP1 PUSH2 0x2F75 JUMP JUMPDEST PUSH2 0x555 JUMP JUMPDEST PUSH1 0x40 MLOAD PUSH2 0x1ED SWAP2 SWAP1 PUSH2 0x2FBA JUMP JUMPDEST PUSH1 0x40 MLOAD DUP1 SWAP2 SUB SWAP1 RETURN JUMPDEST PUSH2 0x1FE PUSH2 0x5B5 JUMP JUMPDEST PUSH1 0x40 MLOAD PUSH2 0x20B SWAP2 SWAP1 PUSH2 0x305D JUMP JUMPDEST PUSH1 0x40 MLOAD DUP1 SWAP2 SUB SWAP1 RETURN JUMPDEST PUSH2 0x22E PUSH1 0x4 DUP1 CALLDATASIZE SUB DUP2 ADD SWAP1 PUSH2 0x229 SWAP2 SWAP1 PUSH2 0x30B0 JUMP JUMPDEST PUSH2 0x645 JUMP JUMPDEST PUSH1 0x40 MLOAD PUSH2 0x23B SWAP2 SWAP1 PUSH2 0x311A JUMP JUMPDEST PUSH1 0x40 MLOAD DUP1 SWAP2 SUB SWAP1 RETURN JUMPDEST PUSH2 0x25E PUSH1 0x4 DUP1 CALLDATASIZE SUB DUP2 ADD SWAP1 PUSH2 0x259 SWAP2 SWAP1 PUSH2 0x315D JUMP JUMPDEST PUSH2 0x660 JUMP JUMPDEST STOP JUMPDEST PUSH2 0x27A PUSH1 0x4 DUP1 CALLDATASIZE SUB DUP2 ADD SWAP1 PUSH2 0x275 SWAP2 SWAP1 PUSH2 0x32FA JUMP JUMPDEST PUSH2 0x676 JUMP JUMPDEST STOP JUMPDEST PUSH2 0x284 PUSH2 0x738 JUMP JUMPDEST PUSH1 0x40 MLOAD PUSH2 0x294 SWAP5 SWAP4 SWAP3 SWAP2 SWAP1 PUSH2 0x3391 JUMP JUMPDEST PUSH1 0x40 MLOAD DUP1 SWAP2 SUB SWAP1 RETURN JUMPDEST PUSH2 0x2A5 PUSH2 0x7DB JUMP JUMPDEST PUSH1 0x40 MLOAD PUSH2 0x2B2 SWAP2 SWAP1 PUSH2 0x2FBA JUMP JUMPDEST PUSH1 0x40 MLOAD DUP1 SWAP2 SUB SWAP1 RETURN JUMPDEST PUSH2 0x2D5 PUSH1 0x4 DUP1 CALLDATASIZE SUB DUP2 ADD SWAP1 PUSH2 0x2D0 SWAP2 SWAP1 PUSH2 0x33DB JUMP JUMPDEST PUSH2 0x7ED JUMP JUMPDEST STOP JUMPDEST PUSH2 0x2F1 PUSH1 0x4 DUP1 CALLDATASIZE SUB DUP2 ADD SWAP1 PUSH2 0x2EC SWAP2 SWAP1 PUSH2 0x3468 JUMP JUMPDEST PUSH2 0x8EC JUMP JUMPDEST PUSH1 0x40 MLOAD PUSH2 0x2FE SWAP2 SWAP1 PUSH2 0x34A2 JUMP JUMPDEST PUSH1 0x40 MLOAD DUP1 SWAP2 SUB SWAP1 RETURN JUMPDEST PUSH2 0x30F PUSH2 0x9FD JUMP JUMPDEST PUSH1 0x40 MLOAD PUSH2 0x31C SWAP2 SWAP1 PUSH2 0x34BB JUMP JUMPDEST PUSH1 0x40 MLOAD DUP1 SWAP2 SUB SWAP1 RETURN JUMPDEST PUSH2 0x33F PUSH1 0x4 DUP1 CALLDATASIZE SUB DUP2 ADD SWAP1 PUSH2 0x33A SWAP2 SWAP1 PUSH2 0x33DB JUMP JUMPDEST PUSH2 0xA03 JUMP JUMPDEST STOP JUMPDEST PUSH2 0x35B PUSH1 0x4 DUP1 CALLDATASIZE SUB DUP2 ADD SWAP1 PUSH2 0x356 SWAP2 SWAP1 PUSH2 0x34D4 JUMP JUMPDEST PUSH2 0xA22 JUMP JUMPDEST STOP JUMPDEST PUSH2 0x377 PUSH1 0x4 DUP1 CALLDATASIZE SUB DUP2 ADD SWAP1 PUSH2 0x372 SWAP2 SWAP1 PUSH2 0x30B0 JUMP JUMPDEST PUSH2 0xB59 JUMP JUMPDEST PUSH1 0x40 MLOAD PUSH2 0x384 SWAP2 SWAP1 PUSH2 0x311A JUMP JUMPDEST PUSH1 0x40 MLOAD DUP1 SWAP2 SUB SWAP1 RETURN JUMPDEST PUSH2 0x395 PUSH2 0xB6A JUMP JUMPDEST PUSH1 0x40 MLOAD PUSH2 0x3A2 SWAP2 SWAP1 PUSH2 0x352A JUMP JUMPDEST PUSH1 0x40 MLOAD DUP1 SWAP2 SUB SWAP1 RETURN JUMPDEST PUSH2 0x3C5 PUSH1 0x4 DUP1 CALLDATASIZE SUB DUP2 ADD SWAP1 PUSH2 0x3C0 SWAP2 SWAP1 PUSH2 0x30B0 JUMP JUMPDEST PUSH2 0xB70 JUMP JUMPDEST STOP JUMPDEST PUSH2 0x3E1 PUSH1 0x4 DUP1 CALLDATASIZE SUB DUP2 ADD SWAP1 PUSH2 0x3DC SWAP2 SWAP1 PUSH2 0x3543 JUMP JUMPDEST PUSH2 0xC03 JUMP JUMPDEST PUSH1 0x40 MLOAD PUSH2 0x3EE SWAP2 SWAP1 PUSH2 0x34BB JUMP JUMPDEST PUSH1 0x40 MLOAD DUP1 SWAP2 SUB SWAP1 RETURN JUMPDEST PUSH2 0x3FF PUSH2 0xCB9 JUMP JUMPDEST STOP JUMPDEST PUSH2 0x409 PUSH2 0xCCC JUMP JUMPDEST PUSH1 0x40 MLOAD PUSH2 0x416 SWAP2 SWAP1 PUSH2 0x34BB JUMP JUMPDEST PUSH1 0x40 MLOAD DUP1 SWAP2 SUB SWAP1 RETURN JUMPDEST PUSH2 0x427 PUSH2 0xCD2 JUMP JUMPDEST PUSH1 0x40 MLOAD PUSH2 0x434 SWAP2 SWAP1 PUSH2 0x311A JUMP JUMPDEST PUSH1 0x40 MLOAD DUP1 SWAP2 SUB SWAP1 RETURN JUMPDEST PUSH2 0x445 PUSH2 0xCF9 JUMP JUMPDEST STOP JUMPDEST PUSH2 0x44F PUSH2 0xD98 JUMP JUMPDEST PUSH1 0x40 MLOAD PUSH2 0x45C SWAP2 SWAP1 PUSH2 0x305D JUMP JUMPDEST PUSH1 0x40 MLOAD DUP1 SWAP2 SUB SWAP1 RETURN JUMPDEST PUSH2 0x47F PUSH1 0x4 DUP1 CALLDATASIZE SUB DUP2 ADD SWAP1 PUSH2 0x47A SWAP2 SWAP1 PUSH2 0x3598 JUMP JUMPDEST PUSH2 0xE28 JUMP JUMPDEST STOP JUMPDEST PUSH2 0x489 PUSH2 0xE3E JUMP JUMPDEST PUSH1 0x40 MLOAD PUSH2 0x496 SWAP2 SWAP1 PUSH2 0x34BB JUMP JUMPDEST PUSH1 0x40 MLOAD DUP1 SWAP2 SUB SWAP1 RETURN JUMPDEST PUSH2 0x4B9 PUSH1 0x4 DUP1 CALLDATASIZE SUB DUP2 ADD SWAP1 PUSH2 0x4B4 SWAP2 SWAP1 PUSH2 0x35D6 JUMP JUMPDEST PUSH2 0xE44 JUMP JUMPDEST STOP JUMPDEST PUSH2 0x4D5 PUSH1 0x4 DUP1 CALLDATASIZE SUB DUP2 ADD SWAP1 PUSH2 0x4D0 SWAP2 SWAP1 PUSH2 0x30B0 JUMP JUMPDEST PUSH2 0xE61 JUMP JUMPDEST PUSH1 0x40 MLOAD PUSH2 0x4E2 SWAP2 SWAP1 PUSH2 0x305D JUMP JUMPDEST PUSH1 0x40 MLOAD DUP1 SWAP2 SUB SWAP1 RETURN JUMPDEST PUSH2 0x505 PUSH1 0x4 DUP1 CALLDATASIZE SUB DUP2 ADD SWAP1 PUSH2 0x500 SWAP2 SWAP1 PUSH2 0x3656 JUMP JUMPDEST PUSH2 0xF6C JUMP JUMPDEST PUSH1 0x40 MLOAD PUSH2 0x512 SWAP2 SWAP1 PUSH2 0x2FBA JUMP JUMPDEST PUSH1 0x40 MLOAD DUP1 SWAP2 SUB SWAP1 RETURN JUMPDEST PUSH2 0x523 PUSH2 0xFFA JUMP JUMPDEST PUSH1 0x40 MLOAD PUSH2 0x530 SWAP2 SWAP1 PUSH2 0x34BB JUMP JUMPDEST PUSH1 0x40 MLOAD DUP1 SWAP2 SUB SWAP1 RETURN JUMPDEST PUSH2 0x553 PUSH1 0x4 DUP1 CALLDATASIZE SUB DUP2 ADD SWAP1 PUSH2 0x54E SWAP2 SWAP1 PUSH2 0x3543 JUMP JUMPDEST PUSH2 0x1000 JUMP JUMPDEST STOP JUMPDEST PUSH0 PUSH4 0x49064906 PUSH1 0xE0 SHL PUSH28 0xFFFFFFFFFFFFFFFFFFFFFFFFFFFFFFFFFFFFFFFFFFFFFFFFFFFFFFFF NOT AND DUP3 PUSH28 0xFFFFFFFFFFFFFFFFFFFFFFFFFFFFFFFFFFFFFFFFFFFFFFFFFFFFFFFF NOT AND EQ DUP1 PUSH2 0x5AE JUMPI POP PUSH2 0x5AD DUP3 PUSH2 0x1084 JUMP JUMPDEST JUMPDEST SWAP1 POP SWAP2 SWAP1 POP JUMP JUMPDEST PUSH1 0x60 PUSH1 0x1 DUP1 SLOAD PUSH2 0x5C4 SWAP1 PUSH2 0x36C1 JUMP JUMPDEST DUP1 PUSH1 0x1F ADD PUSH1 0x20 DUP1 SWAP2 DIV MUL PUSH1 0x20 ADD PUSH1 0x40 MLOAD SWAP1 DUP2 ADD PUSH1 0x40 MSTORE DUP1 SWAP3 SWAP2 SWAP1 DUP2 DUP2 MSTORE PUSH1 0x20 ADD DUP3 DUP1 SLOAD PUSH2 0x5F0 SWAP1 PUSH2 0x36C1 JUMP JUMPDEST DUP1 ISZERO PUSH2 0x63B JUMPI DUP1 PUSH1 0x1F LT PUSH2 0x612 JUMPI PUSH2 0x100 DUP1 DUP4 SLOAD DIV MUL DUP4 MSTORE SWAP2 PUSH1 0x20 ADD SWAP2 PUSH2 0x63B JUMP JUMPDEST DUP3 ADD SWAP2 SWAP1 PUSH0 MSTORE PUSH1 0x20 PUSH0 KECCAK256 SWAP1 JUMPDEST DUP2 SLOAD DUP2 MSTORE SWAP1 PUSH1 0x1 ADD SWAP1 PUSH1 0x20 ADD DUP1 DUP4 GT PUSH2 0x61E JUMPI DUP3 SWAP1 SUB PUSH1 0x1F AND DUP3 ADD SWAP2 JUMPDEST POP POP POP POP POP SWAP1 POP SWAP1 JUMP JUMPDEST PUSH0 PUSH2 0x64F DUP3 PUSH2 0x1165 JUMP JUMPDEST POP PUSH2 0x659 DUP3 PUSH2 0x11EB JUMP JUMPDEST SWAP1 POP SWAP2 SWAP1 POP JUMP JUMPDEST PUSH2 0x672 DUP3 DUP3 PUSH2 0x66D PUSH2 0x1224 JUMP JUMPDEST PUSH2 0x122B JUMP JUMPDEST POP POP JUMP JUMPDEST PUSH32 0x0 PUSH20 0xFFFFFFFFFFFFFFFFFFFFFFFFFFFFFFFFFFFFFFFF AND CALLER PUSH20 0xFFFFFFFFFFFFFFFFFFFFFFFFFFFFFFFFFFFFFFFF AND EQ PUSH2 0x6FB JUMPI PUSH1 0x40 MLOAD PUSH32 0xC6829F8300000000000000000000000000000000000000000000000000000000 DUP2 MSTORE PUSH1 0x4 ADD PUSH1 0x40 MLOAD DUP1 SWAP2 SUB SWAP1 REVERT JUMPDEST PUSH2 0x706 DUP4 DUP4 DUP4 PUSH2 0x123D JUMP JUMPDEST DUP3 PUSH32 0x85E1543BF2F84FE80C6BADBCE3648C8539AD1DF4D2B3D822938CA0538BE727E6 PUSH1 0x40 MLOAD PUSH1 0x40 MLOAD DUP1 SWAP2 SUB SWAP1 LOG2 POP POP POP JUMP JUMPDEST PUSH1 0x8 DUP1 PUSH0 ADD DUP1 SLOAD PUSH2 0x748 SWAP1 PUSH2 0x36C1 JUMP JUMPDEST DUP1 PUSH1 0x1F ADD PUSH1 0x20 DUP1 SWAP2 DIV MUL PUSH1 0x20 ADD PUSH1 0x40 MLOAD SWAP1 DUP2 ADD PUSH1 0x40 MSTORE DUP1 SWAP3 SWAP2 SWAP1 DUP2 DUP2 MSTORE PUSH1 0x20 ADD DUP3 DUP1 SLOAD PUSH2 0x774 SWAP1 PUSH2 0x36C1 JUMP JUMPDEST DUP1 ISZERO PUSH2 0x7BF JUMPI DUP1 PUSH1 0x1F LT PUSH2 0x796 JUMPI PUSH2 0x100 DUP1 DUP4 SLOAD DIV MUL DUP4 MSTORE SWAP2 PUSH1 0x20 ADD SWAP2 PUSH2 0x7BF JUMP JUMPDEST DUP3 ADD SWAP2 SWAP1 PUSH0 MSTORE PUSH1 0x20 PUSH0 KECCAK256 SWAP1 JUMPDEST DUP2 SLOAD DUP2 MSTORE SWAP1 PUSH1 0x1 ADD SWAP1 PUSH1 0x20 ADD DUP1 DUP4 GT PUSH2 0x7A2 JUMPI DUP3 SWAP1 SUB PUSH1 0x1F AND DUP3 ADD SWAP2 JUMPDEST POP POP POP POP POP SWAP1 DUP1 PUSH1 0x1 ADD SLOAD SWAP1 DUP1 PUSH1 0x2 ADD SLOAD SWAP1 DUP1 PUSH1 0x3 ADD SLOAD SWAP1 POP DUP5 JUMP JUMPDEST PUSH1 0xC PUSH0 SWAP1 SLOAD SWAP1 PUSH2 0x100 EXP SWAP1 DIV PUSH1 0xFF AND DUP2 JUMP JUMPDEST PUSH0 PUSH20 0xFFFFFFFFFFFFFFFFFFFFFFFFFFFFFFFFFFFFFFFF AND DUP3 PUSH20 0xFFFFFFFFFFFFFFFFFFFFFFFFFFFFFFFFFFFFFFFF AND SUB PUSH2 0x85D JUMPI PUSH0 PUSH1 0x40 MLOAD PUSH32 0x64A0AE9200000000000000000000000000000000000000000000000000000000 DUP2 MSTORE PUSH1 0x4 ADD PUSH2 0x854 SWAP2 SWAP1 PUSH2 0x311A JUMP JUMPDEST PUSH1 0x40 MLOAD DUP1 SWAP2 SUB SWAP1 REVERT JUMPDEST PUSH0 PUSH2 0x870 DUP4 DUP4 PUSH2 0x86B PUSH2 0x1224 JUMP JUMPDEST PUSH2 0x133D JUMP JUMPDEST SWAP1 POP DUP4 PUSH20 0xFFFFFFFFFFFFFFFFFFFFFFFFFFFFFFFFFFFFFFFF AND DUP2 PUSH20 0xFFFFFFFFFFFFFFFFFFFFFFFFFFFFFFFFFFFFFFFF AND EQ PUSH2 0x8E6 JUMPI DUP4 DUP3 DUP3 PUSH1 0x40 MLOAD PUSH32 0x64283D7B00000000000000000000000000000000000000000000000000000000 DUP2 MSTORE PUSH1 0x4 ADD PUSH2 0x8DD SWAP4 SWAP3 SWAP2 SWAP1 PUSH2 0x36F1 JUMP JUMPDEST PUSH1 0x40 MLOAD DUP1 SWAP2 SUB SWAP1 REVERT JUMPDEST POP POP POP POP JUMP JUMPDEST PUSH0 PUSH2 0x8F5 PUSH2 0x1548 JUMP JUMPDEST PUSH2 0x8FD PUSH2 0x2E68 JUMP JUMPDEST PUSH2 0x998 PUSH1 0x15 DUP1 SLOAD PUSH2 0x90D SWAP1 PUSH2 0x36C1 JUMP JUMPDEST DUP1 PUSH1 0x1F ADD PUSH1 0x20 DUP1 SWAP2 DIV MUL PUSH1 0x20 ADD PUSH1 0x40 MLOAD SWAP1 DUP2 ADD PUSH1 0x40 MSTORE DUP1 SWAP3 SWAP2 SWAP1 DUP2 DUP2 MSTORE PUSH1 0x20 ADD DUP3 DUP1 SLOAD PUSH2 0x939 SWAP1 PUSH2 0x36C1 JUMP JUMPDEST DUP1 ISZERO PUSH2 0x984 JUMPI DUP1 PUSH1 0x1F LT PUSH2 0x95B JUMPI PUSH2 0x100 DUP1 DUP4 SLOAD DIV MUL DUP4 MSTORE SWAP2 PUSH1 0x20 ADD SWAP2 PUSH2 0x984 JUMP JUMPDEST DUP3 ADD SWAP2 SWAP1 PUSH0 MSTORE PUSH1 0x20 PUSH0 KECCAK256 SWAP1 JUMPDEST DUP2 SLOAD DUP2 MSTORE SWAP1 PUSH1 0x1 ADD SWAP1 PUSH1 0x20 ADD DUP1 DUP4 GT PUSH2 0x967 JUMPI DUP3 SWAP1 SUB PUSH1 0x1F AND DUP3 ADD SWAP2 JUMPDEST POP POP POP POP POP DUP3 PUSH2 0x15CF SWAP1 SWAP2 SWAP1 PUSH4 0xFFFFFFFF AND JUMP JUMPDEST PUSH2 0x9EC PUSH2 0x9A4 DUP3 PUSH2 0x15DF JUMP JUMPDEST DUP5 PUSH32 0x0 PUSH32 0x0 PUSH2 0x19F0 JUMP JUMPDEST PUSH1 0x12 DUP2 SWAP1 SSTORE POP PUSH1 0x12 SLOAD SWAP2 POP POP SWAP2 SWAP1 POP JUMP JUMPDEST PUSH1 0xE SLOAD DUP2 JUMP JUMPDEST PUSH2 0xA1D DUP4 DUP4 DUP4 PUSH1 0x40 MLOAD DUP1 PUSH1 0x20 ADD PUSH1 0x40 MSTORE DUP1 PUSH0 DUP2 MSTORE POP PUSH2 0xE44 JUMP JUMPDEST POP POP POP JUMP JUMPDEST PUSH2 0xA2A PUSH2 0x1548 JUMP JUMPDEST PUSH1 0xC PUSH0 SWAP1 SLOAD SWAP1 PUSH2 0x100 EXP SWAP1 DIV PUSH1 0xFF AND ISZERO PUSH2 0xA79 JUMPI PUSH1 0x40 MLOAD PUSH32 0x8C379A000000000000000000000000000000000000000000000000000000000 DUP2 MSTORE PUSH1 0x4 ADD PUSH2 0xA70 SWAP1 PUSH2 0x3770 JUMP JUMPDEST PUSH1 0x40 MLOAD DUP1 SWAP2 SUB SWAP1 REVERT JUMPDEST DUP2 PUSH1 0x10 DUP2 SWAP1 SSTORE POP DUP1 PUSH1 0xE DUP2 SWAP1 SSTORE POP PUSH3 0xF4240 PUSH4 0x5F5E100 PUSH1 0xD SLOAD PUSH1 0xE SLOAD PUSH2 0xAA0 SWAP2 SWAP1 PUSH2 0x37BB JUMP JUMPDEST PUSH2 0xAAA SWAP2 SWAP1 PUSH2 0x3829 JUMP JUMPDEST PUSH2 0xAB4 SWAP2 SWAP1 PUSH2 0x37BB JUMP JUMPDEST PUSH1 0xF DUP2 SWAP1 SSTORE POP PUSH1 0x1 PUSH1 0xC PUSH0 PUSH2 0x100 EXP DUP2 SLOAD DUP2 PUSH1 0xFF MUL NOT AND SWAP1 DUP4 ISZERO ISZERO MUL OR SWAP1 SSTORE POP PUSH0 PUSH2 0xADD PUSH2 0x1ACF JUMP JUMPDEST SWAP1 POP PUSH0 PUSH1 0x1 SWAP1 POP JUMPDEST DUP4 DUP2 GT PUSH2 0xB13 JUMPI PUSH2 0xAF6 CALLER DUP3 PUSH2 0x1B57 JUMP JUMPDEST PUSH2 0xB00 DUP2 DUP4 PUSH2 0x1C4A JUMP JUMPDEST DUP1 DUP1 PUSH2 0xB0B SWAP1 PUSH2 0x3859 JUMP JUMPDEST SWAP2 POP POP PUSH2 0xAE5 JUMP JUMPDEST POP DUP3 PUSH1 0x11 DUP2 SWAP1 SSTORE POP PUSH32 0x8A3AD1D54F9E72CE7885341976027E04C0C26BDDBA427E8768F04879F82DC6E DUP4 DUP4 PUSH1 0x40 MLOAD PUSH2 0xB4C SWAP3 SWAP2 SWAP1 PUSH2 0x38A0 JUMP JUMPDEST PUSH1 0x40 MLOAD DUP1 SWAP2 SUB SWAP1 LOG1 POP POP POP JUMP JUMPDEST PUSH0 PUSH2 0xB63 DUP3 PUSH2 0x1165 JUMP JUMPDEST SWAP1 POP SWAP2 SWAP1 POP JUMP JUMPDEST PUSH1 0xD SLOAD DUP2 JUMP JUMPDEST PUSH2 0xB78 PUSH2 0x1548 JUMP JUMPDEST PUSH1 0xC PUSH0 SWAP1 SLOAD SWAP1 PUSH2 0x100 EXP SWAP1 DIV PUSH1 0xFF AND PUSH2 0xBC6 JUMPI PUSH1 0x40 MLOAD PUSH32 0x8C379A000000000000000000000000000000000000000000000000000000000 DUP2 MSTORE PUSH1 0x4 ADD PUSH2 0xBBD SWAP1 PUSH2 0x3911 JUMP JUMPDEST PUSH1 0x40 MLOAD DUP1 SWAP2 SUB SWAP1 REVERT JUMPDEST DUP1 PUSH1 0xE DUP2 SWAP1 SSTORE POP PUSH3 0xF4240 PUSH4 0x5F5E100 PUSH1 0xD SLOAD PUSH1 0xE SLOAD PUSH2 0xBE6 SWAP2 SWAP1 PUSH2 0x37BB JUMP JUMPDEST PUSH2 0xBF0 SWAP2 SWAP1 PUSH2 0x3829 JUMP JUMPDEST PUSH2 0xBFA SWAP2 SWAP1 PUSH2 0x37BB JUMP JUMPDEST PUSH1 0xF DUP2 SWAP1 SSTORE POP POP JUMP JUMPDEST PUSH0 DUP1 PUSH20 0xFFFFFFFFFFFFFFFFFFFFFFFFFFFFFFFFFFFFFFFF AND DUP3 PUSH20 0xFFFFFFFFFFFFFFFFFFFFFFFFFFFFFFFFFFFFFFFF AND SUB PUSH2 0xC74 JUMPI PUSH0 PUSH1 0x40 MLOAD PUSH32 0x89C62B6400000000000000000000000000000000000000000000000000000000 DUP2 MSTORE PUSH1 0x4 ADD PUSH2 0xC6B SWAP2 SWAP1 PUSH2 0x311A JUMP JUMPDEST PUSH1 0x40 MLOAD DUP1 SWAP2 SUB SWAP1 REVERT JUMPDEST PUSH1 0x4 PUSH0 DUP4 PUSH20 0xFFFFFFFFFFFFFFFFFFFFFFFFFFFFFFFFFFFFFFFF AND PUSH20 0xFFFFFFFFFFFFFFFFFFFFFFFFFFFFFFFFFFFFFFFF AND DUP2 MSTORE PUSH1 0x20 ADD SWAP1 DUP2 MSTORE PUSH1 0x20 ADD PUSH0 KECCAK256 SLOAD SWAP1 POP SWAP2 SWAP1 POP JUMP JUMPDEST PUSH2 0xCC1 PUSH2 0x1548 JUMP JUMPDEST PUSH2 0xCCA PUSH0 PUSH2 0x1CA4 JUMP JUMPDEST JUMP JUMPDEST PUSH1 0x10 SLOAD DUP2 JUMP JUMPDEST PUSH0 DUP1 PUSH0 SWAP1 SLOAD SWAP1 PUSH2 0x100 EXP SWAP1 DIV PUSH20 0xFFFFFFFFFFFFFFFFFFFFFFFFFFFFFFFFFFFFFFFF AND SWAP1 POP SWAP1 JUMP JUMPDEST PUSH0 PUSH1 0x16 PUSH0 SWAP1 SLOAD SWAP1 PUSH2 0x100 EXP SWAP1 DIV PUSH20 0xFFFFFFFFFFFFFFFFFFFFFFFFFFFFFFFFFFFFFFFF AND PUSH20 0xFFFFFFFFFFFFFFFFFFFFFFFFFFFFFFFFFFFFFFFF AND PUSH4 0xFEAF968C PUSH1 0x40 MLOAD DUP2 PUSH4 0xFFFFFFFF AND PUSH1 0xE0 SHL DUP2 MSTORE PUSH1 0x4 ADD PUSH1 0xA0 PUSH1 0x40 MLOAD DUP1 DUP4 SUB DUP2 DUP7 GAS STATICCALL ISZERO DUP1 ISZERO PUSH2 0xD64 JUMPI RETURNDATASIZE PUSH0 DUP1 RETURNDATACOPY RETURNDATASIZE PUSH0 REVERT JUMPDEST POP POP POP POP PUSH1 0x40 MLOAD RETURNDATASIZE PUSH1 0x1F NOT PUSH1 0x1F DUP3 ADD AND DUP3 ADD DUP1 PUSH1 0x40 MSTORE POP DUP2 ADD SWAP1 PUSH2 0xD88 SWAP2 SWAP1 PUSH2 0x39AC JUMP JUMPDEST POP POP POP SWAP2 POP POP DUP1 PUSH1 0xD DUP2 SWAP1 SSTORE POP POP JUMP JUMPDEST PUSH1 0x60 PUSH1 0x2 DUP1 SLOAD PUSH2 0xDA7 SWAP1 PUSH2 0x36C1 JUMP JUMPDEST DUP1 PUSH1 0x1F ADD PUSH1 0x20 DUP1 SWAP2 DIV MUL PUSH1 0x20 ADD PUSH1 0x40 MLOAD SWAP1 DUP2 ADD PUSH1 0x40 MSTORE DUP1 SWAP3 SWAP2 SWAP1 DUP2 DUP2 MSTORE PUSH1 0x20 ADD DUP3 DUP1 SLOAD PUSH2 0xDD3 SWAP1 PUSH2 0x36C1 JUMP JUMPDEST DUP1 ISZERO PUSH2 0xE1E JUMPI DUP1 PUSH1 0x1F LT PUSH2 0xDF5 JUMPI PUSH2 0x100 DUP1 DUP4 SLOAD DIV MUL DUP4 MSTORE SWAP2 PUSH1 0x20 ADD SWAP2 PUSH2 0xE1E JUMP JUMPDEST DUP3 ADD SWAP2 SWAP1 PUSH0 MSTORE PUSH1 0x20 PUSH0 KECCAK256 SWAP1 JUMPDEST DUP2 SLOAD DUP2 MSTORE SWAP1 PUSH1 0x1 ADD SWAP1 PUSH1 0x20 ADD DUP1 DUP4 GT PUSH2 0xE01 JUMPI DUP3 SWAP1 SUB PUSH1 0x1F AND DUP3 ADD SWAP2 JUMPDEST POP POP POP POP POP SWAP1 POP SWAP1 JUMP JUMPDEST PUSH2 0xE3A PUSH2 0xE33 PUSH2 0x1224 JUMP JUMPDEST DUP4 DUP4 PUSH2 0x1D65 JUMP JUMPDEST POP POP JUMP JUMPDEST PUSH1 0x11 SLOAD DUP2 JUMP JUMPDEST PUSH2 0xE4F DUP5 DUP5 DUP5 PUSH2 0x7ED JUMP JUMPDEST PUSH2 0xE5B DUP5 DUP5 DUP5 DUP5 PUSH2 0x1ECE JUMP JUMPDEST POP POP POP POP JUMP JUMPDEST PUSH1 0x60 PUSH2 0xE6C DUP3 PUSH2 0x1165 JUMP JUMPDEST POP PUSH0 PUSH1 0x7 PUSH0 DUP5 DUP2 MSTORE PUSH1 0x20 ADD SWAP1 DUP2 MSTORE PUSH1 0x20 ADD PUSH0 KECCAK256 DUP1 SLOAD PUSH2 0xE8A SWAP1 PUSH2 0x36C1 JUMP JUMPDEST DUP1 PUSH1 0x1F ADD PUSH1 0x20 DUP1 SWAP2 DIV MUL PUSH1 0x20 ADD PUSH1 0x40 MLOAD SWAP1 DUP2 ADD PUSH1 0x40 MSTORE DUP1 SWAP3 SWAP2 SWAP1 DUP2 DUP2 MSTORE PUSH1 0x20 ADD DUP3 DUP1 SLOAD PUSH2 0xEB6 SWAP1 PUSH2 0x36C1 JUMP JUMPDEST DUP1 ISZERO PUSH2 0xF01 JUMPI DUP1 PUSH1 0x1F LT PUSH2 0xED8 JUMPI PUSH2 0x100 DUP1 DUP4 SLOAD DIV MUL DUP4 MSTORE SWAP2 PUSH1 0x20 ADD SWAP2 PUSH2 0xF01 JUMP JUMPDEST DUP3 ADD SWAP2 SWAP1 PUSH0 MSTORE PUSH1 0x20 PUSH0 KECCAK256 SWAP1 JUMPDEST DUP2 SLOAD DUP2 MSTORE SWAP1 PUSH1 0x1 ADD SWAP1 PUSH1 0x20 ADD DUP1 DUP4 GT PUSH2 0xEE4 JUMPI DUP3 SWAP1 SUB PUSH1 0x1F AND DUP3 ADD SWAP2 JUMPDEST POP POP POP POP POP SWAP1 POP PUSH0 PUSH2 0xF11 PUSH2 0x2080 JUMP JUMPDEST SWAP1 POP PUSH0 DUP2 MLOAD SUB PUSH2 0xF25 JUMPI DUP2 SWAP3 POP POP POP PUSH2 0xF67 JUMP JUMPDEST PUSH0 DUP3 MLOAD GT ISZERO PUSH2 0xF59 JUMPI DUP1 DUP3 PUSH1 0x40 MLOAD PUSH1 0x20 ADD PUSH2 0xF41 SWAP3 SWAP2 SWAP1 PUSH2 0x3A5D JUMP JUMPDEST PUSH1 0x40 MLOAD PUSH1 0x20 DUP2 DUP4 SUB SUB DUP2 MSTORE SWAP1 PUSH1 0x40 MSTORE SWAP3 POP POP POP PUSH2 0xF67 JUMP JUMPDEST PUSH2 0xF62 DUP5 PUSH2 0x2096 JUMP JUMPDEST SWAP3 POP POP POP JUMPDEST SWAP2 SWAP1 POP JUMP JUMPDEST PUSH0 PUSH1 0x6 PUSH0 DUP5 PUSH20 0xFFFFFFFFFFFFFFFFFFFFFFFFFFFFFFFFFFFFFFFF AND PUSH20 0xFFFFFFFFFFFFFFFFFFFFFFFFFFFFFFFFFFFFFFFF AND DUP2 MSTORE PUSH1 0x20 ADD SWAP1 DUP2 MSTORE PUSH1 0x20 ADD PUSH0 KECCAK256 PUSH0 DUP4 PUSH20 0xFFFFFFFFFFFFFFFFFFFFFFFFFFFFFFFFFFFFFFFF AND PUSH20 0xFFFFFFFFFFFFFFFFFFFFFFFFFFFFFFFFFFFFFFFF AND DUP2 MSTORE PUSH1 0x20 ADD SWAP1 DUP2 MSTORE PUSH1 0x20 ADD PUSH0 KECCAK256 PUSH0 SWAP1 SLOAD SWAP1 PUSH2 0x100 EXP SWAP1 DIV PUSH1 0xFF AND SWAP1 POP SWAP3 SWAP2 POP POP JUMP JUMPDEST PUSH1 0xF SLOAD DUP2 JUMP JUMPDEST PUSH2 0x1008 PUSH2 0x1548 JUMP JUMPDEST PUSH0 PUSH20 0xFFFFFFFFFFFFFFFFFFFFFFFFFFFFFFFFFFFFFFFF AND DUP2 PUSH20 0xFFFFFFFFFFFFFFFFFFFFFFFFFFFFFFFFFFFFFFFF AND SUB PUSH2 0x1078 JUMPI PUSH0 PUSH1 0x40 MLOAD PUSH32 0x1E4FBDF700000000000000000000000000000000000000000000000000000000 DUP2 MSTORE PUSH1 0x4 ADD PUSH2 0x106F SWAP2 SWAP1 PUSH2 0x311A JUMP JUMPDEST PUSH1 0x40 MLOAD DUP1 SWAP2 SUB SWAP1 REVERT JUMPDEST PUSH2 0x1081 DUP2 PUSH2 0x1CA4 JUMP JUMPDEST POP JUMP JUMPDEST PUSH0 PUSH32 0x80AC58CD00000000000000000000000000000000000000000000000000000000 PUSH28 0xFFFFFFFFFFFFFFFFFFFFFFFFFFFFFFFFFFFFFFFFFFFFFFFFFFFFFFFF NOT AND DUP3 PUSH28 0xFFFFFFFFFFFFFFFFFFFFFFFFFFFFFFFFFFFFFFFFFFFFFFFFFFFFFFFF NOT AND EQ DUP1 PUSH2 0x114E JUMPI POP PUSH32 0x5B5E139F00000000000000000000000000000000000000000000000000000000 PUSH28 0xFFFFFFFFFFFFFFFFFFFFFFFFFFFFFFFFFFFFFFFFFFFFFFFFFFFFFFFF NOT AND DUP3 PUSH28 0xFFFFFFFFFFFFFFFFFFFFFFFFFFFFFFFFFFFFFFFFFFFFFFFFFFFFFFFF NOT AND EQ JUMPDEST DUP1 PUSH2 0x115E JUMPI POP PUSH2 0x115D DUP3 PUSH2 0x20FC JUMP JUMPDEST JUMPDEST SWAP1 POP SWAP2 SWAP1 POP JUMP JUMPDEST PUSH0 DUP1 PUSH2 0x1170 DUP4 PUSH2 0x2165 JUMP JUMPDEST SWAP1 POP PUSH0 PUSH20 0xFFFFFFFFFFFFFFFFFFFFFFFFFFFFFFFFFFFFFFFF AND DUP2 PUSH20 0xFFFFFFFFFFFFFFFFFFFFFFFFFFFFFFFFFFFFFFFF AND SUB PUSH2 0x11E2 JUMPI DUP3 PUSH1 0x40 MLOAD PUSH32 0x7E27328900000000000000000000000000000000000000000000000000000000 DUP2 MSTORE PUSH1 0x4 ADD PUSH2 0x11D9 SWAP2 SWAP1 PUSH2 0x34BB JUMP JUMPDEST PUSH1 0x40 MLOAD DUP1 SWAP2 SUB SWAP1 REVERT JUMPDEST DUP1 SWAP2 POP POP SWAP2 SWAP1 POP JUMP JUMPDEST PUSH0 PUSH1 0x5 PUSH0 DUP4 DUP2 MSTORE PUSH1 0x20 ADD SWAP1 DUP2 MSTORE PUSH1 0x20 ADD PUSH0 KECCAK256 PUSH0 SWAP1 SLOAD SWAP1 PUSH2 0x100 EXP SWAP1 DIV PUSH20 0xFFFFFFFFFFFFFFFFFFFFFFFFFFFFFFFFFFFFFFFF AND SWAP1 POP SWAP2 SWAP1 POP JUMP JUMPDEST PUSH0 CALLER SWAP1 POP SWAP1 JUMP JUMPDEST PUSH2 0x1238 DUP4 DUP4 DUP4 PUSH1 0x1 PUSH2 0x219E JUMP JUMPDEST POP POP POP JUMP JUMPDEST DUP3 PUSH1 0x12 SLOAD EQ PUSH2 0x1283 JUMPI DUP3 PUSH1 0x40 MLOAD PUSH32 0xD068BF5B00000000000000000000000000000000000000000000000000000000 DUP2 MSTORE PUSH1 0x4 ADD PUSH2 0x127A SWAP2 SWAP1 PUSH2 0x34A2 JUMP JUMPDEST PUSH1 0x40 MLOAD DUP1 SWAP2 SUB SWAP1 REVERT JUMPDEST DUP2 DUP1 PUSH1 0x20 ADD SWAP1 MLOAD DUP2 ADD SWAP1 PUSH2 0x1297 SWAP2 SWAP1 PUSH2 0x3B1E JUMP JUMPDEST PUSH1 0x8 PUSH0 ADD PUSH0 PUSH1 0x8 PUSH1 0x1 ADD PUSH0 PUSH1 0x8 PUSH1 0x2 ADD PUSH0 PUSH1 0x8 PUSH1 0x3 ADD PUSH0 DUP9 SWAP2 SWAP1 POP SSTORE DUP8 SWAP2 SWAP1 POP SSTORE DUP7 SWAP2 SWAP1 POP SSTORE DUP6 SWAP2 SWAP1 POP SWAP1 DUP2 PUSH2 0x12CD SWAP2 SWAP1 PUSH2 0x3D3B JUMP JUMPDEST POP POP POP POP POP DUP1 PUSH1 0x14 SWAP1 DUP2 PUSH2 0x12E1 SWAP2 SWAP1 PUSH2 0x3E6C JUMP JUMPDEST POP DUP3 PUSH32 0x7CEE4EEECCE4C378BCABAC3921FE1EE240F2F7A24775769790937E3A8165C07 PUSH1 0x8 PUSH0 ADD PUSH1 0x8 PUSH1 0x1 ADD SLOAD PUSH1 0x8 PUSH1 0x2 ADD SLOAD PUSH1 0x8 PUSH1 0x3 ADD SLOAD PUSH1 0x13 PUSH1 0x14 PUSH1 0x40 MLOAD PUSH2 0x1330 SWAP7 SWAP6 SWAP5 SWAP4 SWAP3 SWAP2 SWAP1 PUSH2 0x404D JUMP JUMPDEST PUSH1 0x40 MLOAD DUP1 SWAP2 SUB SWAP1 LOG2 POP POP POP JUMP JUMPDEST PUSH0 DUP1 PUSH2 0x1348 DUP5 PUSH2 0x2165 JUMP JUMPDEST SWAP1 POP PUSH0 PUSH20 0xFFFFFFFFFFFFFFFFFFFFFFFFFFFFFFFFFFFFFFFF AND DUP4 PUSH20 0xFFFFFFFFFFFFFFFFFFFFFFFFFFFFFFFFFFFFFFFF AND EQ PUSH2 0x1389 JUMPI PUSH2 0x1388 DUP2 DUP5 DUP7 PUSH2 0x235D JUMP JUMPDEST JUMPDEST PUSH0 PUSH20 0xFFFFFFFFFFFFFFFFFFFFFFFFFFFFFFFFFFFFFFFF AND DUP2 PUSH20 0xFFFFFFFFFFFFFFFFFFFFFFFFFFFFFFFFFFFFFFFF AND EQ PUSH2 0x1414 JUMPI PUSH2 0x13C8 PUSH0 DUP6 PUSH0 DUP1 PUSH2 0x219E JUMP JUMPDEST PUSH1 0x1 PUSH1 0x4 PUSH0 DUP4 PUSH20 0xFFFFFFFFFFFFFFFFFFFFFFFFFFFFFFFFFFFFFFFF AND PUSH20 0xFFFFFFFFFFFFFFFFFFFFFFFFFFFFFFFFFFFFFFFF AND DUP2 MSTORE PUSH1 0x20 ADD SWAP1 DUP2 MSTORE PUSH1 0x20 ADD PUSH0 KECCAK256 PUSH0 DUP3 DUP3 SLOAD SUB SWAP3 POP POP DUP2 SWAP1 SSTORE POP JUMPDEST PUSH0 PUSH20 0xFFFFFFFFFFFFFFFFFFFFFFFFFFFFFFFFFFFFFFFF AND DUP6 PUSH20 0xFFFFFFFFFFFFFFFFFFFFFFFFFFFFFFFFFFFFFFFF AND EQ PUSH2 0x1493 JUMPI PUSH1 0x1 PUSH1 0x4 PUSH0 DUP8 PUSH20 0xFFFFFFFFFFFFFFFFFFFFFFFFFFFFFFFFFFFFFFFF AND PUSH20 0xFFFFFFFFFFFFFFFFFFFFFFFFFFFFFFFFFFFFFFFF AND DUP2 MSTORE PUSH1 0x20 ADD SWAP1 DUP2 MSTORE PUSH1 0x20 ADD PUSH0 KECCAK256 PUSH0 DUP3 DUP3 SLOAD ADD SWAP3 POP POP DUP2 SWAP1 SSTORE POP JUMPDEST DUP5 PUSH1 0x3 PUSH0 DUP7 DUP2 MSTORE PUSH1 0x20 ADD SWAP1 DUP2 MSTORE PUSH1 0x20 ADD PUSH0 KECCAK256 PUSH0 PUSH2 0x100 EXP DUP2 SLOAD DUP2 PUSH20 0xFFFFFFFFFFFFFFFFFFFFFFFFFFFFFFFFFFFFFFFF MUL NOT AND SWAP1 DUP4 PUSH20 0xFFFFFFFFFFFFFFFFFFFFFFFFFFFFFFFFFFFFFFFF AND MUL OR SWAP1 SSTORE POP DUP4 DUP6 PUSH20 0xFFFFFFFFFFFFFFFFFFFFFFFFFFFFFFFFFFFFFFFF AND DUP3 PUSH20 0xFFFFFFFFFFFFFFFFFFFFFFFFFFFFFFFFFFFFFFFF AND PUSH32 0xDDF252AD1BE2C89B69C2B068FC378DAA952BA7F163C4A11628F55A4DF523B3EF PUSH1 0x40 MLOAD PUSH1 0x40 MLOAD DUP1 SWAP2 SUB SWAP1 LOG4 DUP1 SWAP2 POP POP SWAP4 SWAP3 POP POP POP JUMP JUMPDEST PUSH2 0x1550 PUSH2 0x1224 JUMP JUMPDEST PUSH20 0xFFFFFFFFFFFFFFFFFFFFFFFFFFFFFFFFFFFFFFFF AND PUSH2 0x156E PUSH2 0xCD2 JUMP JUMPDEST PUSH20 0xFFFFFFFFFFFFFFFFFFFFFFFFFFFFFFFFFFFFFFFF AND EQ PUSH2 0x15CD JUMPI PUSH2 0x1591 PUSH2 0x1224 JUMP JUMPDEST PUSH1 0x40 MLOAD PUSH32 0x118CDAA700000000000000000000000000000000000000000000000000000000 DUP2 MSTORE PUSH1 0x4 ADD PUSH2 0x15C4 SWAP2 SWAP1 PUSH2 0x311A JUMP JUMPDEST PUSH1 0x40 MLOAD DUP1 SWAP2 SUB SWAP1 REVERT JUMPDEST JUMP JUMPDEST PUSH2 0x15DB DUP3 PUSH0 DUP1 DUP5 PUSH2 0x2420 JUMP JUMPDEST POP POP JUMP JUMPDEST PUSH1 0x60 PUSH0 PUSH2 0x15ED PUSH2 0x100 PUSH2 0x24C6 JUMP JUMPDEST SWAP1 POP PUSH2 0x1637 PUSH1 0x40 MLOAD DUP1 PUSH1 0x40 ADD PUSH1 0x40 MSTORE DUP1 PUSH1 0xC DUP2 MSTORE PUSH1 0x20 ADD PUSH32 0x636F64654C6F636174696F6E0000000000000000000000000000000000000000 DUP2 MSTORE POP DUP3 PUSH2 0x24EB SWAP1 SWAP2 SWAP1 PUSH4 0xFFFFFFFF AND JUMP JUMPDEST PUSH2 0x165F DUP4 PUSH0 ADD MLOAD PUSH1 0x2 DUP2 GT ISZERO PUSH2 0x1650 JUMPI PUSH2 0x164F PUSH2 0x40C1 JUMP JUMPDEST JUMPDEST DUP3 PUSH2 0x2513 SWAP1 SWAP2 SWAP1 PUSH4 0xFFFFFFFF AND JUMP JUMPDEST PUSH2 0x16A7 PUSH1 0x40 MLOAD DUP1 PUSH1 0x40 ADD PUSH1 0x40 MSTORE DUP1 PUSH1 0x8 DUP2 MSTORE PUSH1 0x20 ADD PUSH32 0x6C616E6775616765000000000000000000000000000000000000000000000000 DUP2 MSTORE POP DUP3 PUSH2 0x24EB SWAP1 SWAP2 SWAP1 PUSH4 0xFFFFFFFF AND JUMP JUMPDEST PUSH2 0x16CF DUP4 PUSH1 0x40 ADD MLOAD PUSH0 DUP2 GT ISZERO PUSH2 0x16C0 JUMPI PUSH2 0x16BF PUSH2 0x40C1 JUMP JUMPDEST JUMPDEST DUP3 PUSH2 0x2513 SWAP1 SWAP2 SWAP1 PUSH4 0xFFFFFFFF AND JUMP JUMPDEST PUSH2 0x1717 PUSH1 0x40 MLOAD DUP1 PUSH1 0x40 ADD PUSH1 0x40 MSTORE DUP1 PUSH1 0x6 DUP2 MSTORE PUSH1 0x20 ADD PUSH32 0x736F757263650000000000000000000000000000000000000000000000000000 DUP2 MSTORE POP DUP3 PUSH2 0x24EB SWAP1 SWAP2 SWAP1 PUSH4 0xFFFFFFFF AND JUMP JUMPDEST PUSH2 0x172E DUP4 PUSH1 0x60 ADD MLOAD DUP3 PUSH2 0x24EB SWAP1 SWAP2 SWAP1 PUSH4 0xFFFFFFFF AND JUMP JUMPDEST PUSH0 DUP4 PUSH1 0xA0 ADD MLOAD MLOAD GT ISZERO PUSH2 0x17E8 JUMPI PUSH2 0x1783 PUSH1 0x40 MLOAD DUP1 PUSH1 0x40 ADD PUSH1 0x40 MSTORE DUP1 PUSH1 0x4 DUP2 MSTORE PUSH1 0x20 ADD PUSH32 0x6172677300000000000000000000000000000000000000000000000000000000 DUP2 MSTORE POP DUP3 PUSH2 0x24EB SWAP1 SWAP2 SWAP1 PUSH4 0xFFFFFFFF AND JUMP JUMPDEST PUSH2 0x178C DUP2 PUSH2 0x2562 JUMP JUMPDEST PUSH0 JUMPDEST DUP4 PUSH1 0xA0 ADD MLOAD MLOAD DUP2 LT ISZERO PUSH2 0x17DD JUMPI PUSH2 0x17CC DUP5 PUSH1 0xA0 ADD MLOAD DUP3 DUP2 MLOAD DUP2 LT PUSH2 0x17B5 JUMPI PUSH2 0x17B4 PUSH2 0x40EE JUMP JUMPDEST JUMPDEST PUSH1 0x20 MUL PUSH1 0x20 ADD ADD MLOAD DUP4 PUSH2 0x24EB SWAP1 SWAP2 SWAP1 PUSH4 0xFFFFFFFF AND JUMP JUMPDEST DUP1 PUSH2 0x17D6 SWAP1 PUSH2 0x3859 JUMP JUMPDEST SWAP1 POP PUSH2 0x178E JUMP JUMPDEST POP PUSH2 0x17E7 DUP2 PUSH2 0x258A JUMP JUMPDEST JUMPDEST PUSH0 DUP4 PUSH1 0x80 ADD MLOAD MLOAD GT ISZERO PUSH2 0x1927 JUMPI PUSH0 PUSH1 0x2 DUP2 GT ISZERO PUSH2 0x1808 JUMPI PUSH2 0x1807 PUSH2 0x40C1 JUMP JUMPDEST JUMPDEST DUP4 PUSH1 0x20 ADD MLOAD PUSH1 0x2 DUP2 GT ISZERO PUSH2 0x181F JUMPI PUSH2 0x181E PUSH2 0x40C1 JUMP JUMPDEST JUMPDEST SUB PUSH2 0x1856 JUMPI PUSH1 0x40 MLOAD PUSH32 0xA80D31F700000000000000000000000000000000000000000000000000000000 DUP2 MSTORE PUSH1 0x4 ADD PUSH1 0x40 MLOAD DUP1 SWAP2 SUB SWAP1 REVERT JUMPDEST PUSH2 0x189E PUSH1 0x40 MLOAD DUP1 PUSH1 0x40 ADD PUSH1 0x40 MSTORE DUP1 PUSH1 0xF DUP2 MSTORE PUSH1 0x20 ADD PUSH32 0x736563726574734C6F636174696F6E0000000000000000000000000000000000 DUP2 MSTORE POP DUP3 PUSH2 0x24EB SWAP1 SWAP2 SWAP1 PUSH4 0xFFFFFFFF AND JUMP JUMPDEST PUSH2 0x18C7 DUP4 PUSH1 0x20 ADD MLOAD PUSH1 0x2 DUP2 GT ISZERO PUSH2 0x18B8 JUMPI PUSH2 0x18B7 PUSH2 0x40C1 JUMP JUMPDEST JUMPDEST DUP3 PUSH2 0x2513 SWAP1 SWAP2 SWAP1 PUSH4 0xFFFFFFFF AND JUMP JUMPDEST PUSH2 0x190F PUSH1 0x40 MLOAD DUP1 PUSH1 0x40 ADD PUSH1 0x40 MSTORE DUP1 PUSH1 0x7 DUP2 MSTORE PUSH1 0x20 ADD PUSH32 0x7365637265747300000000000000000000000000000000000000000000000000 DUP2 MSTORE POP DUP3 PUSH2 0x24EB SWAP1 SWAP2 SWAP1 PUSH4 0xFFFFFFFF AND JUMP JUMPDEST PUSH2 0x1926 DUP4 PUSH1 0x80 ADD MLOAD DUP3 PUSH2 0x25B2 SWAP1 SWAP2 SWAP1 PUSH4 0xFFFFFFFF AND JUMP JUMPDEST JUMPDEST PUSH0 DUP4 PUSH1 0xC0 ADD MLOAD MLOAD GT ISZERO PUSH2 0x19E1 JUMPI PUSH2 0x197C PUSH1 0x40 MLOAD DUP1 PUSH1 0x40 ADD PUSH1 0x40 MSTORE DUP1 PUSH1 0x9 DUP2 MSTORE PUSH1 0x20 ADD PUSH32 0x6279746573417267730000000000000000000000000000000000000000000000 DUP2 MSTORE POP DUP3 PUSH2 0x24EB SWAP1 SWAP2 SWAP1 PUSH4 0xFFFFFFFF AND JUMP JUMPDEST PUSH2 0x1985 DUP2 PUSH2 0x2562 JUMP JUMPDEST PUSH0 JUMPDEST DUP4 PUSH1 0xC0 ADD MLOAD MLOAD DUP2 LT ISZERO PUSH2 0x19D6 JUMPI PUSH2 0x19C5 DUP5 PUSH1 0xC0 ADD MLOAD DUP3 DUP2 MLOAD DUP2 LT PUSH2 0x19AE JUMPI PUSH2 0x19AD PUSH2 0x40EE JUMP JUMPDEST JUMPDEST PUSH1 0x20 MUL PUSH1 0x20 ADD ADD MLOAD DUP4 PUSH2 0x25B2 SWAP1 SWAP2 SWAP1 PUSH4 0xFFFFFFFF AND JUMP JUMPDEST DUP1 PUSH2 0x19CF SWAP1 PUSH2 0x3859 JUMP JUMPDEST SWAP1 POP PUSH2 0x1987 JUMP JUMPDEST POP PUSH2 0x19E0 DUP2 PUSH2 0x258A JUMP JUMPDEST JUMPDEST DUP1 PUSH0 ADD MLOAD PUSH0 ADD MLOAD SWAP2 POP POP SWAP2 SWAP1 POP JUMP JUMPDEST PUSH0 DUP1 PUSH32 0x0 PUSH20 0xFFFFFFFFFFFFFFFFFFFFFFFFFFFFFFFFFFFFFFFF AND PUSH4 0x461D2762 DUP7 DUP9 PUSH1 0x1 DUP9 DUP9 PUSH1 0x40 MLOAD DUP7 PUSH4 0xFFFFFFFF AND PUSH1 0xE0 SHL DUP2 MSTORE PUSH1 0x4 ADD PUSH2 0x1A54 SWAP6 SWAP5 SWAP4 SWAP3 SWAP2 SWAP1 PUSH2 0x419C JUMP JUMPDEST PUSH1 0x20 PUSH1 0x40 MLOAD DUP1 DUP4 SUB DUP2 PUSH0 DUP8 GAS CALL ISZERO DUP1 ISZERO PUSH2 0x1A70 JUMPI RETURNDATASIZE PUSH0 DUP1 RETURNDATACOPY RETURNDATASIZE PUSH0 REVERT JUMPDEST POP POP POP POP PUSH1 0x40 MLOAD RETURNDATASIZE PUSH1 0x1F NOT PUSH1 0x1F DUP3 ADD AND DUP3 ADD DUP1 PUSH1 0x40 MSTORE POP DUP2 ADD SWAP1 PUSH2 0x1A94 SWAP2 SWAP1 PUSH2 0x4208 JUMP JUMPDEST SWAP1 POP DUP1 PUSH32 0x1131472297A800FEE664D1D89CFA8F7676FF07189ECC53F80BBB5F4969099DB8 PUSH1 0x40 MLOAD PUSH1 0x40 MLOAD DUP1 SWAP2 SUB SWAP1 LOG2 DUP1 SWAP2 POP POP SWAP5 SWAP4 POP POP POP POP JUMP JUMPDEST PUSH1 0x60 PUSH0 PUSH1 0x8 PUSH0 ADD PUSH2 0x1AE4 PUSH1 0x8 PUSH1 0x1 ADD SLOAD PUSH2 0x25DA JUMP JUMPDEST PUSH2 0x1AF2 PUSH1 0x8 PUSH1 0x2 ADD SLOAD PUSH2 0x25DA JUMP JUMPDEST PUSH2 0x1B00 PUSH1 0x8 PUSH1 0x3 ADD SLOAD PUSH2 0x25DA JUMP JUMPDEST PUSH1 0x40 MLOAD PUSH1 0x20 ADD PUSH2 0x1B13 SWAP5 SWAP4 SWAP3 SWAP2 SWAP1 PUSH2 0x4735 JUMP JUMPDEST PUSH1 0x40 MLOAD PUSH1 0x20 DUP2 DUP4 SUB SUB DUP2 MSTORE SWAP1 PUSH1 0x40 MSTORE SWAP1 POP PUSH0 PUSH2 0x1B2E DUP3 PUSH2 0x26A4 JUMP JUMPDEST SWAP1 POP DUP1 PUSH1 0x40 MLOAD PUSH1 0x20 ADD PUSH2 0x1B41 SWAP2 SWAP1 PUSH2 0x484B JUMP JUMPDEST PUSH1 0x40 MLOAD PUSH1 0x20 DUP2 DUP4 SUB SUB DUP2 MSTORE SWAP1 PUSH1 0x40 MSTORE SWAP3 POP POP POP SWAP1 JUMP JUMPDEST PUSH0 PUSH20 0xFFFFFFFFFFFFFFFFFFFFFFFFFFFFFFFFFFFFFFFF AND DUP3 PUSH20 0xFFFFFFFFFFFFFFFFFFFFFFFFFFFFFFFFFFFFFFFF AND SUB PUSH2 0x1BC7 JUMPI PUSH0 PUSH1 0x40 MLOAD PUSH32 0x64A0AE9200000000000000000000000000000000000000000000000000000000 DUP2 MSTORE PUSH1 0x4 ADD PUSH2 0x1BBE SWAP2 SWAP1 PUSH2 0x311A JUMP JUMPDEST PUSH1 0x40 MLOAD DUP1 SWAP2 SUB SWAP1 REVERT JUMPDEST PUSH0 PUSH2 0x1BD3 DUP4 DUP4 PUSH0 PUSH2 0x133D JUMP JUMPDEST SWAP1 POP PUSH0 PUSH20 0xFFFFFFFFFFFFFFFFFFFFFFFFFFFFFFFFFFFFFFFF AND DUP2 PUSH20 0xFFFFFFFFFFFFFFFFFFFFFFFFFFFFFFFFFFFFFFFF AND EQ PUSH2 0x1C45 JUMPI PUSH0 PUSH1 0x40 MLOAD PUSH32 0x73C6AC6E00000000000000000000000000000000000000000000000000000000 DUP2 MSTORE PUSH1 0x4 ADD PUSH2 0x1C3C SWAP2 SWAP1 PUSH2 0x311A JUMP JUMPDEST PUSH1 0x40 MLOAD DUP1 SWAP2 SUB SWAP1 REVERT JUMPDEST POP POP POP JUMP JUMPDEST DUP1 PUSH1 0x7 PUSH0 DUP5 DUP2 MSTORE PUSH1 0x20 ADD SWAP1 DUP2 MSTORE PUSH1 0x20 ADD PUSH0 KECCAK256 SWAP1 DUP2 PUSH2 0x1C68 SWAP2 SWAP1 PUSH2 0x3D3B JUMP JUMPDEST POP PUSH32 0xF8E1A15ABA9398E019F0B49DF1A4FDE98EE17AE345CB5F6B5E2C27F5033E8CE7 DUP3 PUSH1 0x40 MLOAD PUSH2 0x1C98 SWAP2 SWAP1 PUSH2 0x34BB JUMP JUMPDEST PUSH1 0x40 MLOAD DUP1 SWAP2 SUB SWAP1 LOG1 POP POP JUMP JUMPDEST PUSH0 DUP1 PUSH0 SWAP1 SLOAD SWAP1 PUSH2 0x100 EXP SWAP1 DIV PUSH20 0xFFFFFFFFFFFFFFFFFFFFFFFFFFFFFFFFFFFFFFFF AND SWAP1 POP DUP2 PUSH0 DUP1 PUSH2 0x100 EXP DUP2 SLOAD DUP2 PUSH20 0xFFFFFFFFFFFFFFFFFFFFFFFFFFFFFFFFFFFFFFFF MUL NOT AND SWAP1 DUP4 PUSH20 0xFFFFFFFFFFFFFFFFFFFFFFFFFFFFFFFFFFFFFFFF AND MUL OR SWAP1 SSTORE POP DUP2 PUSH20 0xFFFFFFFFFFFFFFFFFFFFFFFFFFFFFFFFFFFFFFFF AND DUP2 PUSH20 0xFFFFFFFFFFFFFFFFFFFFFFFFFFFFFFFFFFFFFFFF AND PUSH32 0x8BE0079C531659141344CD1FD0A4F28419497F9722A3DAAFE3B4186F6B6457E0 PUSH1 0x40 MLOAD PUSH1 0x40 MLOAD DUP1 SWAP2 SUB SWAP1 LOG3 POP POP JUMP JUMPDEST PUSH0 PUSH20 0xFFFFFFFFFFFFFFFFFFFFFFFFFFFFFFFFFFFFFFFF AND DUP3 PUSH20 0xFFFFFFFFFFFFFFFFFFFFFFFFFFFFFFFFFFFFFFFF AND SUB PUSH2 0x1DD5 JUMPI DUP2 PUSH1 0x40 MLOAD PUSH32 0x5B08BA1800000000000000000000000000000000000000000000000000000000 DUP2 MSTORE PUSH1 0x4 ADD PUSH2 0x1DCC SWAP2 SWAP1 PUSH2 0x311A JUMP JUMPDEST PUSH1 0x40 MLOAD DUP1 SWAP2 SUB SWAP1 REVERT JUMPDEST DUP1 PUSH1 0x6 PUSH0 DUP6 PUSH20 0xFFFFFFFFFFFFFFFFFFFFFFFFFFFFFFFFFFFFFFFF AND PUSH20 0xFFFFFFFFFFFFFFFFFFFFFFFFFFFFFFFFFFFFFFFF AND DUP2 MSTORE PUSH1 0x20 ADD SWAP1 DUP2 MSTORE PUSH1 0x20 ADD PUSH0 KECCAK256 PUSH0 DUP5 PUSH20 0xFFFFFFFFFFFFFFFFFFFFFFFFFFFFFFFFFFFFFFFF AND PUSH20 0xFFFFFFFFFFFFFFFFFFFFFFFFFFFFFFFFFFFFFFFF AND DUP2 MSTORE PUSH1 0x20 ADD SWAP1 DUP2 MSTORE PUSH1 0x20 ADD PUSH0 KECCAK256 PUSH0 PUSH2 0x100 EXP DUP2 SLOAD DUP2 PUSH1 0xFF MUL NOT AND SWAP1 DUP4 ISZERO ISZERO MUL OR SWAP1 SSTORE POP DUP2 PUSH20 0xFFFFFFFFFFFFFFFFFFFFFFFFFFFFFFFFFFFFFFFF AND DUP4 PUSH20 0xFFFFFFFFFFFFFFFFFFFFFFFFFFFFFFFFFFFFFFFF AND PUSH32 0x17307EAB39AB6107E8899845AD3D59BD9653F200F220920489CA2B5937696C31 DUP4 PUSH1 0x40 MLOAD PUSH2 0x1EC1 SWAP2 SWAP1 PUSH2 0x2FBA JUMP JUMPDEST PUSH1 0x40 MLOAD DUP1 SWAP2 SUB SWAP1 LOG3 POP POP POP JUMP JUMPDEST PUSH0 DUP4 PUSH20 0xFFFFFFFFFFFFFFFFFFFFFFFFFFFFFFFFFFFFFFFF AND EXTCODESIZE GT ISZERO PUSH2 0x207A JUMPI DUP3 PUSH20 0xFFFFFFFFFFFFFFFFFFFFFFFFFFFFFFFFFFFFFFFF AND PUSH4 0x150B7A02 PUSH2 0x1F11 PUSH2 0x1224 JUMP JUMPDEST DUP7 DUP6 DUP6 PUSH1 0x40 MLOAD DUP6 PUSH4 0xFFFFFFFF AND PUSH1 0xE0 SHL DUP2 MSTORE PUSH1 0x4 ADD PUSH2 0x1F33 SWAP5 SWAP4 SWAP3 SWAP2 SWAP1 PUSH2 0x486C JUMP JUMPDEST PUSH1 0x20 PUSH1 0x40 MLOAD DUP1 DUP4 SUB DUP2 PUSH0 DUP8 GAS CALL SWAP3 POP POP POP DUP1 ISZERO PUSH2 0x1F6E JUMPI POP PUSH1 0x40 MLOAD RETURNDATASIZE PUSH1 0x1F NOT PUSH1 0x1F DUP3 ADD AND DUP3 ADD DUP1 PUSH1 0x40 MSTORE POP DUP2 ADD SWAP1 PUSH2 0x1F6B SWAP2 SWAP1 PUSH2 0x48CA JUMP JUMPDEST PUSH1 0x1 JUMPDEST PUSH2 0x1FEF JUMPI RETURNDATASIZE DUP1 PUSH0 DUP2 EQ PUSH2 0x1F9C JUMPI PUSH1 0x40 MLOAD SWAP2 POP PUSH1 0x1F NOT PUSH1 0x3F RETURNDATASIZE ADD AND DUP3 ADD PUSH1 0x40 MSTORE RETURNDATASIZE DUP3 MSTORE RETURNDATASIZE PUSH0 PUSH1 0x20 DUP5 ADD RETURNDATACOPY PUSH2 0x1FA1 JUMP JUMPDEST PUSH1 0x60 SWAP2 POP JUMPDEST POP PUSH0 DUP2 MLOAD SUB PUSH2 0x1FE7 JUMPI DUP4 PUSH1 0x40 MLOAD PUSH32 0x64A0AE9200000000000000000000000000000000000000000000000000000000 DUP2 MSTORE PUSH1 0x4 ADD PUSH2 0x1FDE SWAP2 SWAP1 PUSH2 0x311A JUMP JUMPDEST PUSH1 0x40 MLOAD DUP1 SWAP2 SUB SWAP1 REVERT JUMPDEST DUP1 MLOAD DUP2 PUSH1 0x20 ADD REVERT JUMPDEST PUSH4 0x150B7A02 PUSH1 0xE0 SHL PUSH28 0xFFFFFFFFFFFFFFFFFFFFFFFFFFFFFFFFFFFFFFFFFFFFFFFFFFFFFFFF NOT AND DUP2 PUSH28 0xFFFFFFFFFFFFFFFFFFFFFFFFFFFFFFFFFFFFFFFFFFFFFFFFFFFFFFFF NOT AND EQ PUSH2 0x2078 JUMPI DUP4 PUSH1 0x40 MLOAD PUSH32 0x64A0AE9200000000000000000000000000000000000000000000000000000000 DUP2 MSTORE PUSH1 0x4 ADD PUSH2 0x206F SWAP2 SWAP1 PUSH2 0x311A JUMP JUMPDEST PUSH1 0x40 MLOAD DUP1 SWAP2 SUB SWAP1 REVERT JUMPDEST POP JUMPDEST POP POP POP POP JUMP JUMPDEST PUSH1 0x60 PUSH1 0x40 MLOAD DUP1 PUSH1 0x20 ADD PUSH1 0x40 MSTORE DUP1 PUSH0 DUP2 MSTORE POP SWAP1 POP SWAP1 JUMP JUMPDEST PUSH1 0x60 PUSH2 0x20A1 DUP3 PUSH2 0x1165 JUMP JUMPDEST POP PUSH0 PUSH2 0x20AB PUSH2 0x2080 JUMP JUMPDEST SWAP1 POP PUSH0 DUP2 MLOAD GT PUSH2 0x20C9 JUMPI PUSH1 0x40 MLOAD DUP1 PUSH1 0x20 ADD PUSH1 0x40 MSTORE DUP1 PUSH0 DUP2 MSTORE POP PUSH2 0x20F4 JUMP JUMPDEST DUP1 PUSH2 0x20D3 DUP5 PUSH2 0x25DA JUMP JUMPDEST PUSH1 0x40 MLOAD PUSH1 0x20 ADD PUSH2 0x20E4 SWAP3 SWAP2 SWAP1 PUSH2 0x3A5D JUMP JUMPDEST PUSH1 0x40 MLOAD PUSH1 0x20 DUP2 DUP4 SUB SUB DUP2 MSTORE SWAP1 PUSH1 0x40 MSTORE JUMPDEST SWAP2 POP POP SWAP2 SWAP1 POP JUMP JUMPDEST PUSH0 PUSH32 0x1FFC9A700000000000000000000000000000000000000000000000000000000 PUSH28 0xFFFFFFFFFFFFFFFFFFFFFFFFFFFFFFFFFFFFFFFFFFFFFFFFFFFFFFFF NOT AND DUP3 PUSH28 0xFFFFFFFFFFFFFFFFFFFFFFFFFFFFFFFFFFFFFFFFFFFFFFFFFFFFFFFF NOT AND EQ SWAP1 POP SWAP2 SWAP1 POP JUMP JUMPDEST PUSH0 PUSH1 0x3 PUSH0 DUP4 DUP2 MSTORE PUSH1 0x20 ADD SWAP1 DUP2 MSTORE PUSH1 0x20 ADD PUSH0 KECCAK256 PUSH0 SWAP1 SLOAD SWAP1 PUSH2 0x100 EXP SWAP1 DIV PUSH20 0xFFFFFFFFFFFFFFFFFFFFFFFFFFFFFFFFFFFFFFFF AND SWAP1 POP SWAP2 SWAP1 POP JUMP JUMPDEST DUP1 DUP1 PUSH2 0x21D6 JUMPI POP PUSH0 PUSH20 0xFFFFFFFFFFFFFFFFFFFFFFFFFFFFFFFFFFFFFFFF AND DUP3 PUSH20 0xFFFFFFFFFFFFFFFFFFFFFFFFFFFFFFFFFFFFFFFF AND EQ ISZERO JUMPDEST ISZERO PUSH2 0x2308 JUMPI PUSH0 PUSH2 0x21E5 DUP5 PUSH2 0x1165 JUMP JUMPDEST SWAP1 POP PUSH0 PUSH20 0xFFFFFFFFFFFFFFFFFFFFFFFFFFFFFFFFFFFFFFFF AND DUP4 PUSH20 0xFFFFFFFFFFFFFFFFFFFFFFFFFFFFFFFFFFFFFFFF AND EQ ISZERO DUP1 ISZERO PUSH2 0x224F JUMPI POP DUP3 PUSH20 0xFFFFFFFFFFFFFFFFFFFFFFFFFFFFFFFFFFFFFFFF AND DUP2 PUSH20 0xFFFFFFFFFFFFFFFFFFFFFFFFFFFFFFFFFFFFFFFF AND EQ ISZERO JUMPDEST DUP1 ISZERO PUSH2 0x2262 JUMPI POP PUSH2 0x2260 DUP2 DUP5 PUSH2 0xF6C JUMP JUMPDEST ISZERO JUMPDEST ISZERO PUSH2 0x22A4 JUMPI DUP3 PUSH1 0x40 MLOAD PUSH32 0xA9FBF51F00000000000000000000000000000000000000000000000000000000 DUP2 MSTORE PUSH1 0x4 ADD PUSH2 0x229B SWAP2 SWAP1 PUSH2 0x311A JUMP JUMPDEST PUSH1 0x40 MLOAD DUP1 SWAP2 SUB SWAP1 REVERT JUMPDEST DUP2 ISZERO PUSH2 0x2306 JUMPI DUP4 DUP6 PUSH20 0xFFFFFFFFFFFFFFFFFFFFFFFFFFFFFFFFFFFFFFFF AND DUP3 PUSH20 0xFFFFFFFFFFFFFFFFFFFFFFFFFFFFFFFFFFFFFFFF AND PUSH32 0x8C5BE1E5EBEC7D5BD14F71427D1E84F3DD0314C0F7B2291E5B200AC8C7C3B925 PUSH1 0x40 MLOAD PUSH1 0x40 MLOAD DUP1 SWAP2 SUB SWAP1 LOG4 JUMPDEST POP JUMPDEST DUP4 PUSH1 0x5 PUSH0 DUP6 DUP2 MSTORE PUSH1 0x20 ADD SWAP1 DUP2 MSTORE PUSH1 0x20 ADD PUSH0 KECCAK256 PUSH0 PUSH2 0x100 EXP DUP2 SLOAD DUP2 PUSH20 0xFFFFFFFFFFFFFFFFFFFFFFFFFFFFFFFFFFFFFFFF MUL NOT AND SWAP1 DUP4 PUSH20 0xFFFFFFFFFFFFFFFFFFFFFFFFFFFFFFFFFFFFFFFF AND MUL OR SWAP1 SSTORE POP POP POP POP POP JUMP JUMPDEST PUSH2 0x2368 DUP4 DUP4 DUP4 PUSH2 0x2811 JUMP JUMPDEST PUSH2 0x241B JUMPI PUSH0 PUSH20 0xFFFFFFFFFFFFFFFFFFFFFFFFFFFFFFFFFFFFFFFF AND DUP4 PUSH20 0xFFFFFFFFFFFFFFFFFFFFFFFFFFFFFFFFFFFFFFFF AND SUB PUSH2 0x23DC JUMPI DUP1 PUSH1 0x40 MLOAD PUSH32 0x7E27328900000000000000000000000000000000000000000000000000000000 DUP2 MSTORE PUSH1 0x4 ADD PUSH2 0x23D3 SWAP2 SWAP1 PUSH2 0x34BB JUMP JUMPDEST PUSH1 0x40 MLOAD DUP1 SWAP2 SUB SWAP1 REVERT JUMPDEST DUP2 DUP2 PUSH1 0x40 MLOAD PUSH32 0x177E802F00000000000000000000000000000000000000000000000000000000 DUP2 MSTORE PUSH1 0x4 ADD PUSH2 0x2412 SWAP3 SWAP2 SWAP1 PUSH2 0x48F5 JUMP JUMPDEST PUSH1 0x40 MLOAD DUP1 SWAP2 SUB SWAP1 REVERT JUMPDEST POP POP POP JUMP JUMPDEST PUSH0 DUP2 MLOAD SUB PUSH2 0x245A JUMPI PUSH1 0x40 MLOAD PUSH32 0x22CE3EDD00000000000000000000000000000000000000000000000000000000 DUP2 MSTORE PUSH1 0x4 ADD PUSH1 0x40 MLOAD DUP1 SWAP2 SUB SWAP1 REVERT JUMPDEST DUP3 DUP5 PUSH0 ADD SWAP1 PUSH1 0x2 DUP2 GT ISZERO PUSH2 0x2471 JUMPI PUSH2 0x2470 PUSH2 0x40C1 JUMP JUMPDEST JUMPDEST SWAP1 DUP2 PUSH1 0x2 DUP2 GT ISZERO PUSH2 0x2485 JUMPI PUSH2 0x2484 PUSH2 0x40C1 JUMP JUMPDEST JUMPDEST DUP2 MSTORE POP POP DUP2 DUP5 PUSH1 0x40 ADD SWAP1 PUSH0 DUP2 GT ISZERO PUSH2 0x24A0 JUMPI PUSH2 0x249F PUSH2 0x40C1 JUMP JUMPDEST JUMPDEST SWAP1 DUP2 PUSH0 DUP2 GT ISZERO PUSH2 0x24B3 JUMPI PUSH2 0x24B2 PUSH2 0x40C1 JUMP JUMPDEST JUMPDEST DUP2 MSTORE POP POP DUP1 DUP5 PUSH1 0x60 ADD DUP2 SWAP1 MSTORE POP POP POP POP POP JUMP JUMPDEST PUSH2 0x24CE PUSH2 0x2ED7 JUMP JUMPDEST PUSH2 0x24DB DUP2 PUSH0 ADD MLOAD DUP4 PUSH2 0x28D1 JUMP JUMPDEST POP PUSH0 DUP2 PUSH1 0x20 ADD DUP2 DUP2 MSTORE POP POP SWAP2 SWAP1 POP JUMP JUMPDEST PUSH2 0x24F8 DUP3 PUSH1 0x3 DUP4 MLOAD PUSH2 0x2947 JUMP JUMPDEST PUSH2 0x250E DUP2 DUP4 PUSH0 ADD MLOAD PUSH2 0x2AE7 SWAP1 SWAP2 SWAP1 PUSH4 0xFFFFFFFF AND JUMP JUMPDEST POP POP POP JUMP JUMPDEST PUSH2 0x2534 PUSH1 0x2 PUSH1 0x5 PUSH1 0x6 PUSH1 0xFF AND SWAP1 SHL OR DUP4 PUSH0 ADD MLOAD PUSH2 0x2B03 SWAP1 SWAP2 SWAP1 PUSH4 0xFFFFFFFF AND JUMP JUMPDEST POP PUSH2 0x255E DUP3 DUP3 PUSH1 0x40 MLOAD PUSH1 0x20 ADD PUSH2 0x254A SWAP2 SWAP1 PUSH2 0x34BB JUMP JUMPDEST PUSH1 0x40 MLOAD PUSH1 0x20 DUP2 DUP4 SUB SUB DUP2 MSTORE SWAP1 PUSH1 0x40 MSTORE PUSH2 0x25B2 JUMP JUMPDEST POP POP JUMP JUMPDEST PUSH2 0x256D DUP2 PUSH1 0x4 PUSH2 0x2B6A JUMP JUMPDEST PUSH1 0x1 DUP2 PUSH1 0x20 ADD DUP2 DUP2 MLOAD PUSH2 0x2580 SWAP2 SWAP1 PUSH2 0x491C JUMP JUMPDEST SWAP2 POP DUP2 DUP2 MSTORE POP POP POP JUMP JUMPDEST PUSH2 0x2595 DUP2 PUSH1 0x7 PUSH2 0x2B6A JUMP JUMPDEST PUSH1 0x1 DUP2 PUSH1 0x20 ADD DUP2 DUP2 MLOAD PUSH2 0x25A8 SWAP2 SWAP1 PUSH2 0x494F JUMP JUMPDEST SWAP2 POP DUP2 DUP2 MSTORE POP POP POP JUMP JUMPDEST PUSH2 0x25BF DUP3 PUSH1 0x2 DUP4 MLOAD PUSH2 0x2947 JUMP JUMPDEST PUSH2 0x25D5 DUP2 DUP4 PUSH0 ADD MLOAD PUSH2 0x2AE7 SWAP1 SWAP2 SWAP1 PUSH4 0xFFFFFFFF AND JUMP JUMPDEST POP POP POP JUMP JUMPDEST PUSH1 0x60 PUSH0 PUSH1 0x1 PUSH2 0x25E8 DUP5 PUSH2 0x2B8F JUMP JUMPDEST ADD SWAP1 POP PUSH0 DUP2 PUSH8 0xFFFFFFFFFFFFFFFF DUP2 GT ISZERO PUSH2 0x2606 JUMPI PUSH2 0x2605 PUSH2 0x31D6 JUMP JUMPDEST JUMPDEST PUSH1 0x40 MLOAD SWAP1 DUP1 DUP3 MSTORE DUP1 PUSH1 0x1F ADD PUSH1 0x1F NOT AND PUSH1 0x20 ADD DUP3 ADD PUSH1 0x40 MSTORE DUP1 ISZERO PUSH2 0x2638 JUMPI DUP2 PUSH1 0x20 ADD PUSH1 0x1 DUP3 MUL DUP1 CALLDATASIZE DUP4 CALLDATACOPY DUP1 DUP3 ADD SWAP2 POP POP SWAP1 POP JUMPDEST POP SWAP1 POP PUSH0 DUP3 PUSH1 0x20 ADD DUP3 ADD SWAP1 POP JUMPDEST PUSH1 0x1 ISZERO PUSH2 0x2699 JUMPI DUP1 DUP1 PUSH1 0x1 SWAP1 SUB SWAP2 POP POP PUSH32 0x3031323334353637383961626364656600000000000000000000000000000000 PUSH1 0xA DUP7 MOD BYTE DUP2 MSTORE8 PUSH1 0xA DUP6 DUP2 PUSH2 0x268E JUMPI PUSH2 0x268D PUSH2 0x37FC JUMP JUMPDEST JUMPDEST DIV SWAP5 POP PUSH0 DUP6 SUB PUSH2 0x2645 JUMPI JUMPDEST DUP2 SWAP4 POP POP POP POP SWAP2 SWAP1 POP JUMP JUMPDEST PUSH1 0x60 PUSH0 DUP3 MLOAD SUB PUSH2 0x26C4 JUMPI PUSH1 0x40 MLOAD DUP1 PUSH1 0x20 ADD PUSH1 0x40 MSTORE DUP1 PUSH0 DUP2 MSTORE POP SWAP1 POP PUSH2 0x280C JUMP JUMPDEST PUSH0 PUSH1 0x40 MLOAD DUP1 PUSH1 0x60 ADD PUSH1 0x40 MSTORE DUP1 PUSH1 0x40 DUP2 MSTORE PUSH1 0x20 ADD PUSH2 0x4B2C PUSH1 0x40 SWAP2 CODECOPY SWAP1 POP PUSH0 PUSH1 0x3 PUSH1 0x2 DUP6 MLOAD PUSH2 0x26F1 SWAP2 SWAP1 PUSH2 0x491C JUMP JUMPDEST PUSH2 0x26FB SWAP2 SWAP1 PUSH2 0x3829 JUMP JUMPDEST PUSH1 0x4 PUSH2 0x2707 SWAP2 SWAP1 PUSH2 0x37BB JUMP JUMPDEST PUSH8 0xFFFFFFFFFFFFFFFF DUP2 GT ISZERO PUSH2 0x2720 JUMPI PUSH2 0x271F PUSH2 0x31D6 JUMP JUMPDEST JUMPDEST PUSH1 0x40 MLOAD SWAP1 DUP1 DUP3 MSTORE DUP1 PUSH1 0x1F ADD PUSH1 0x1F NOT AND PUSH1 0x20 ADD DUP3 ADD PUSH1 0x40 MSTORE DUP1 ISZERO PUSH2 0x2752 JUMPI DUP2 PUSH1 0x20 ADD PUSH1 0x1 DUP3 MUL DUP1 CALLDATASIZE DUP4 CALLDATACOPY DUP1 DUP3 ADD SWAP2 POP POP SWAP1 POP JUMPDEST POP SWAP1 POP PUSH1 0x1 DUP3 ADD PUSH1 0x20 DUP3 ADD DUP6 DUP7 MLOAD DUP8 ADD PUSH1 0x20 DUP2 ADD DUP1 MLOAD PUSH0 DUP3 MSTORE JUMPDEST DUP3 DUP5 LT ISZERO PUSH2 0x27C7 JUMPI PUSH1 0x3 DUP5 ADD SWAP4 POP DUP4 MLOAD PUSH1 0x3F DUP2 PUSH1 0x12 SHR AND DUP8 ADD MLOAD DUP7 MSTORE8 PUSH1 0x1 DUP7 ADD SWAP6 POP PUSH1 0x3F DUP2 PUSH1 0xC SHR AND DUP8 ADD MLOAD DUP7 MSTORE8 PUSH1 0x1 DUP7 ADD SWAP6 POP PUSH1 0x3F DUP2 PUSH1 0x6 SHR AND DUP8 ADD MLOAD DUP7 MSTORE8 PUSH1 0x1 DUP7 ADD SWAP6 POP PUSH1 0x3F DUP2 AND DUP8 ADD MLOAD DUP7 MSTORE8 PUSH1 0x1 DUP7 ADD SWAP6 POP POP PUSH2 0x276C JUMP JUMPDEST DUP1 DUP3 MSTORE PUSH1 0x3 DUP11 MLOAD MOD PUSH1 0x1 DUP2 EQ PUSH2 0x27E4 JUMPI PUSH1 0x2 DUP2 EQ PUSH2 0x27F7 JUMPI PUSH2 0x27FF JUMP JUMPDEST PUSH1 0x3D PUSH1 0x1 DUP8 SUB MSTORE8 PUSH1 0x3D PUSH1 0x2 DUP8 SUB MSTORE8 PUSH2 0x27FF JUMP JUMPDEST PUSH1 0x3D PUSH1 0x1 DUP8 SUB MSTORE8 JUMPDEST POP POP POP POP POP POP POP DUP1 SWAP3 POP POP POP JUMPDEST SWAP2 SWAP1 POP JUMP JUMPDEST PUSH0 DUP1 PUSH20 0xFFFFFFFFFFFFFFFFFFFFFFFFFFFFFFFFFFFFFFFF AND DUP4 PUSH20 0xFFFFFFFFFFFFFFFFFFFFFFFFFFFFFFFFFFFFFFFF AND EQ ISZERO DUP1 ISZERO PUSH2 0x28C8 JUMPI POP DUP3 PUSH20 0xFFFFFFFFFFFFFFFFFFFFFFFFFFFFFFFFFFFFFFFF AND DUP5 PUSH20 0xFFFFFFFFFFFFFFFFFFFFFFFFFFFFFFFFFFFFFFFF AND EQ DUP1 PUSH2 0x2889 JUMPI POP PUSH2 0x2888 DUP5 DUP5 PUSH2 0xF6C JUMP JUMPDEST JUMPDEST DUP1 PUSH2 0x28C7 JUMPI POP DUP3 PUSH20 0xFFFFFFFFFFFFFFFFFFFFFFFFFFFFFFFFFFFFFFFF AND PUSH2 0x28AF DUP4 PUSH2 0x11EB JUMP JUMPDEST PUSH20 0xFFFFFFFFFFFFFFFFFFFFFFFFFFFFFFFFFFFFFFFF AND EQ JUMPDEST JUMPDEST SWAP1 POP SWAP4 SWAP3 POP POP POP JUMP JUMPDEST PUSH2 0x28D9 PUSH2 0x2EF6 JUMP JUMPDEST PUSH0 PUSH1 0x20 DUP4 PUSH2 0x28E7 SWAP2 SWAP1 PUSH2 0x4982 JUMP JUMPDEST EQ PUSH2 0x2913 JUMPI PUSH1 0x20 DUP3 PUSH2 0x28F9 SWAP2 SWAP1 PUSH2 0x4982 JUMP JUMPDEST PUSH1 0x20 PUSH2 0x2905 SWAP2 SWAP1 PUSH2 0x494F JUMP JUMPDEST DUP3 PUSH2 0x2910 SWAP2 SWAP1 PUSH2 0x491C JUMP JUMPDEST SWAP2 POP JUMPDEST DUP2 DUP4 PUSH1 0x20 ADD DUP2 DUP2 MSTORE POP POP PUSH1 0x40 MLOAD DUP1 DUP5 MSTORE PUSH0 DUP2 MSTORE DUP3 DUP2 ADD PUSH1 0x20 ADD DUP2 DUP2 LT ISZERO PUSH2 0x2938 JUMPI PUSH0 DUP1 REVERT JUMPDEST DUP1 PUSH1 0x40 MSTORE POP POP DUP3 SWAP1 POP SWAP3 SWAP2 POP POP JUMP JUMPDEST PUSH1 0x17 DUP2 PUSH8 0xFFFFFFFFFFFFFFFF AND GT PUSH2 0x2981 JUMPI PUSH2 0x297B DUP2 PUSH1 0x5 DUP5 PUSH1 0xFF AND SWAP1 SHL PUSH1 0xFF AND OR DUP5 PUSH0 ADD MLOAD PUSH2 0x2B03 SWAP1 SWAP2 SWAP1 PUSH4 0xFFFFFFFF AND JUMP JUMPDEST POP PUSH2 0x2AE2 JUMP JUMPDEST PUSH1 0xFF DUP2 PUSH8 0xFFFFFFFFFFFFFFFF AND GT PUSH2 0x29DD JUMPI PUSH2 0x29B3 PUSH1 0x18 PUSH1 0x5 DUP5 PUSH1 0xFF AND SWAP1 SHL OR DUP5 PUSH0 ADD MLOAD PUSH2 0x2B03 SWAP1 SWAP2 SWAP1 PUSH4 0xFFFFFFFF AND JUMP JUMPDEST POP PUSH2 0x29D7 DUP2 PUSH8 0xFFFFFFFFFFFFFFFF AND PUSH1 0x1 DUP6 PUSH0 ADD MLOAD PUSH2 0x2CE0 SWAP1 SWAP3 SWAP2 SWAP1 PUSH4 0xFFFFFFFF AND JUMP JUMPDEST POP PUSH2 0x2AE1 JUMP JUMPDEST PUSH2 0xFFFF DUP2 PUSH8 0xFFFFFFFFFFFFFFFF AND GT PUSH2 0x2A3A JUMPI PUSH2 0x2A10 PUSH1 0x19 PUSH1 0x5 DUP5 PUSH1 0xFF AND SWAP1 SHL OR DUP5 PUSH0 ADD MLOAD PUSH2 0x2B03 SWAP1 SWAP2 SWAP1 PUSH4 0xFFFFFFFF AND JUMP JUMPDEST POP PUSH2 0x2A34 DUP2 PUSH8 0xFFFFFFFFFFFFFFFF AND PUSH1 0x2 DUP6 PUSH0 ADD MLOAD PUSH2 0x2CE0 SWAP1 SWAP3 SWAP2 SWAP1 PUSH4 0xFFFFFFFF AND JUMP JUMPDEST POP PUSH2 0x2AE0 JUMP JUMPDEST PUSH4 0xFFFFFFFF DUP2 PUSH8 0xFFFFFFFFFFFFFFFF AND GT PUSH2 0x2A99 JUMPI PUSH2 0x2A6F PUSH1 0x1A PUSH1 0x5 DUP5 PUSH1 0xFF AND SWAP1 SHL OR DUP5 PUSH0 ADD MLOAD PUSH2 0x2B03 SWAP1 SWAP2 SWAP1 PUSH4 0xFFFFFFFF AND JUMP JUMPDEST POP PUSH2 0x2A93 DUP2 PUSH8 0xFFFFFFFFFFFFFFFF AND PUSH1 0x4 DUP6 PUSH0 ADD MLOAD PUSH2 0x2CE0 SWAP1 SWAP3 SWAP2 SWAP1 PUSH4 0xFFFFFFFF AND JUMP JUMPDEST POP PUSH2 0x2ADF JUMP JUMPDEST PUSH2 0x2AB9 PUSH1 0x1B PUSH1 0x5 DUP5 PUSH1 0xFF AND SWAP1 SHL OR DUP5 PUSH0 ADD MLOAD PUSH2 0x2B03 SWAP1 SWAP2 SWAP1 PUSH4 0xFFFFFFFF AND JUMP JUMPDEST POP PUSH2 0x2ADD DUP2 PUSH8 0xFFFFFFFFFFFFFFFF AND PUSH1 0x8 DUP6 PUSH0 ADD MLOAD PUSH2 0x2CE0 SWAP1 SWAP3 SWAP2 SWAP1 PUSH4 0xFFFFFFFF AND JUMP JUMPDEST POP JUMPDEST JUMPDEST JUMPDEST JUMPDEST POP POP POP JUMP JUMPDEST PUSH2 0x2AEF PUSH2 0x2EF6 JUMP JUMPDEST PUSH2 0x2AFB DUP4 DUP4 DUP5 MLOAD PUSH2 0x2D69 JUMP JUMPDEST SWAP1 POP SWAP3 SWAP2 POP POP JUMP JUMPDEST PUSH2 0x2B0B PUSH2 0x2EF6 JUMP JUMPDEST PUSH0 DUP4 PUSH0 ADD MLOAD MLOAD SWAP1 POP PUSH0 PUSH1 0x1 DUP3 PUSH2 0x2B21 SWAP2 SWAP1 PUSH2 0x491C JUMP JUMPDEST SWAP1 POP DUP5 PUSH1 0x20 ADD MLOAD DUP3 LT PUSH2 0x2B45 JUMPI PUSH2 0x2B44 DUP6 PUSH1 0x2 DUP4 PUSH2 0x2B3F SWAP2 SWAP1 PUSH2 0x37BB JUMP JUMPDEST PUSH2 0x2E46 JUMP JUMPDEST JUMPDEST DUP5 MLOAD PUSH1 0x20 DUP4 DUP3 ADD ADD DUP6 DUP2 MSTORE8 DUP2 MLOAD DUP4 GT ISZERO PUSH2 0x2B5D JUMPI DUP3 DUP3 MSTORE JUMPDEST POP POP DUP5 SWAP3 POP POP POP SWAP3 SWAP2 POP POP JUMP JUMPDEST PUSH2 0x2B8A PUSH1 0x1F PUSH1 0x5 DUP4 PUSH1 0xFF AND SWAP1 SHL OR DUP4 PUSH0 ADD MLOAD PUSH2 0x2B03 SWAP1 SWAP2 SWAP1 PUSH4 0xFFFFFFFF AND JUMP JUMPDEST POP POP POP JUMP JUMPDEST PUSH0 DUP1 PUSH0 SWAP1 POP PUSH27 0x184F03E93FF9F4DAA797ED6E38ED64BF6A1F010000000000000000 DUP4 LT PUSH2 0x2BEB JUMPI PUSH27 0x184F03E93FF9F4DAA797ED6E38ED64BF6A1F010000000000000000 DUP4 DUP2 PUSH2 0x2BE1 JUMPI PUSH2 0x2BE0 PUSH2 0x37FC JUMP JUMPDEST JUMPDEST DIV SWAP3 POP PUSH1 0x40 DUP2 ADD SWAP1 POP JUMPDEST PUSH14 0x4EE2D6D415B85ACEF8100000000 DUP4 LT PUSH2 0x2C28 JUMPI PUSH14 0x4EE2D6D415B85ACEF8100000000 DUP4 DUP2 PUSH2 0x2C1E JUMPI PUSH2 0x2C1D PUSH2 0x37FC JUMP JUMPDEST JUMPDEST DIV SWAP3 POP PUSH1 0x20 DUP2 ADD SWAP1 POP JUMPDEST PUSH7 0x2386F26FC10000 DUP4 LT PUSH2 0x2C57 JUMPI PUSH7 0x2386F26FC10000 DUP4 DUP2 PUSH2 0x2C4D JUMPI PUSH2 0x2C4C PUSH2 0x37FC JUMP JUMPDEST JUMPDEST DIV SWAP3 POP PUSH1 0x10 DUP2 ADD SWAP1 POP JUMPDEST PUSH4 0x5F5E100 DUP4 LT PUSH2 0x2C80 JUMPI PUSH4 0x5F5E100 DUP4 DUP2 PUSH2 0x2C76 JUMPI PUSH2 0x2C75 PUSH2 0x37FC JUMP JUMPDEST JUMPDEST DIV SWAP3 POP PUSH1 0x8 DUP2 ADD SWAP1 POP JUMPDEST PUSH2 0x2710 DUP4 LT PUSH2 0x2CA5 JUMPI PUSH2 0x2710 DUP4 DUP2 PUSH2 0x2C9B JUMPI PUSH2 0x2C9A PUSH2 0x37FC JUMP JUMPDEST JUMPDEST DIV SWAP3 POP PUSH1 0x4 DUP2 ADD SWAP1 POP JUMPDEST PUSH1 0x64 DUP4 LT PUSH2 0x2CC8 JUMPI PUSH1 0x64 DUP4 DUP2 PUSH2 0x2CBE JUMPI PUSH2 0x2CBD PUSH2 0x37FC JUMP JUMPDEST JUMPDEST DIV SWAP3 POP PUSH1 0x2 DUP2 ADD SWAP1 POP JUMPDEST PUSH1 0xA DUP4 LT PUSH2 0x2CD7 JUMPI PUSH1 0x1 DUP2 ADD SWAP1 POP JUMPDEST DUP1 SWAP2 POP POP SWAP2 SWAP1 POP JUMP JUMPDEST PUSH2 0x2CE8 PUSH2 0x2EF6 JUMP JUMPDEST PUSH0 DUP5 PUSH0 ADD MLOAD MLOAD SWAP1 POP PUSH0 DUP2 DUP5 PUSH2 0x2CFD SWAP2 SWAP1 PUSH2 0x491C JUMP JUMPDEST SWAP1 POP DUP6 PUSH1 0x20 ADD MLOAD DUP2 GT ISZERO PUSH2 0x2D22 JUMPI PUSH2 0x2D21 DUP7 PUSH1 0x2 DUP4 PUSH2 0x2D1C SWAP2 SWAP1 PUSH2 0x37BB JUMP JUMPDEST PUSH2 0x2E46 JUMP JUMPDEST JUMPDEST PUSH0 PUSH1 0x1 DUP6 PUSH2 0x100 PUSH2 0x2D33 SWAP2 SWAP1 PUSH2 0x4AE1 JUMP JUMPDEST PUSH2 0x2D3D SWAP2 SWAP1 PUSH2 0x494F JUMP JUMPDEST SWAP1 POP DUP7 MLOAD DUP3 DUP2 ADD DUP8 DUP4 NOT DUP3 MLOAD AND OR DUP2 MSTORE DUP2 MLOAD DUP5 GT ISZERO PUSH2 0x2D5A JUMPI DUP4 DUP3 MSTORE JUMPDEST POP POP DUP7 SWAP4 POP POP POP POP SWAP4 SWAP3 POP POP POP JUMP JUMPDEST PUSH2 0x2D71 PUSH2 0x2EF6 JUMP JUMPDEST DUP3 MLOAD DUP3 GT ISZERO PUSH2 0x2D7E JUMPI PUSH0 DUP1 REVERT JUMPDEST PUSH0 DUP5 PUSH0 ADD MLOAD MLOAD SWAP1 POP PUSH0 DUP4 DUP3 PUSH2 0x2D93 SWAP2 SWAP1 PUSH2 0x491C JUMP JUMPDEST SWAP1 POP DUP6 PUSH1 0x20 ADD MLOAD DUP2 GT ISZERO PUSH2 0x2DB8 JUMPI PUSH2 0x2DB7 DUP7 PUSH1 0x2 DUP4 PUSH2 0x2DB2 SWAP2 SWAP1 PUSH2 0x37BB JUMP JUMPDEST PUSH2 0x2E46 JUMP JUMPDEST JUMPDEST PUSH0 DUP1 DUP8 MLOAD DUP1 MLOAD DUP6 PUSH1 0x20 DUP4 ADD ADD SWAP4 POP DUP1 DUP6 GT ISZERO PUSH2 0x2DD2 JUMPI DUP5 DUP3 MSTORE JUMPDEST PUSH1 0x20 DUP10 ADD SWAP3 POP POP POP JUMPDEST PUSH1 0x20 DUP7 LT PUSH2 0x2E19 JUMPI DUP1 MLOAD DUP3 MSTORE PUSH1 0x20 DUP3 PUSH2 0x2DF4 SWAP2 SWAP1 PUSH2 0x491C JUMP JUMPDEST SWAP2 POP PUSH1 0x20 DUP2 PUSH2 0x2E03 SWAP2 SWAP1 PUSH2 0x491C JUMP JUMPDEST SWAP1 POP PUSH1 0x20 DUP7 PUSH2 0x2E12 SWAP2 SWAP1 PUSH2 0x494F JUMP JUMPDEST SWAP6 POP PUSH2 0x2DDB JUMP JUMPDEST PUSH0 PUSH1 0x1 DUP8 PUSH1 0x20 SUB PUSH2 0x100 EXP SUB SWAP1 POP DUP1 NOT DUP3 MLOAD AND DUP2 DUP5 MLOAD AND DUP2 DUP2 OR DUP6 MSTORE POP POP POP DUP8 SWAP5 POP POP POP POP POP SWAP4 SWAP3 POP POP POP JUMP JUMPDEST PUSH0 DUP3 PUSH0 ADD MLOAD SWAP1 POP PUSH2 0x2E57 DUP4 DUP4 PUSH2 0x28D1 JUMP JUMPDEST POP PUSH2 0x2E62 DUP4 DUP3 PUSH2 0x2AE7 JUMP JUMPDEST POP POP POP POP JUMP JUMPDEST PUSH1 0x40 MLOAD DUP1 PUSH1 0xE0 ADD PUSH1 0x40 MSTORE DUP1 PUSH0 PUSH1 0x2 DUP2 GT ISZERO PUSH2 0x2E86 JUMPI PUSH2 0x2E85 PUSH2 0x40C1 JUMP JUMPDEST JUMPDEST DUP2 MSTORE PUSH1 0x20 ADD PUSH0 PUSH1 0x2 DUP2 GT ISZERO PUSH2 0x2E9E JUMPI PUSH2 0x2E9D PUSH2 0x40C1 JUMP JUMPDEST JUMPDEST DUP2 MSTORE PUSH1 0x20 ADD PUSH0 DUP1 DUP2 GT ISZERO PUSH2 0x2EB5 JUMPI PUSH2 0x2EB4 PUSH2 0x40C1 JUMP JUMPDEST JUMPDEST DUP2 MSTORE PUSH1 0x20 ADD PUSH1 0x60 DUP2 MSTORE PUSH1 0x20 ADD PUSH1 0x60 DUP2 MSTORE PUSH1 0x20 ADD PUSH1 0x60 DUP2 MSTORE PUSH1 0x20 ADD PUSH1 0x60 DUP2 MSTORE POP SWAP1 JUMP JUMPDEST PUSH1 0x40 MLOAD DUP1 PUSH1 0x40 ADD PUSH1 0x40 MSTORE DUP1 PUSH2 0x2EEA PUSH2 0x2EF6 JUMP JUMPDEST DUP2 MSTORE PUSH1 0x20 ADD PUSH0 DUP2 MSTORE POP SWAP1 JUMP JUMPDEST PUSH1 0x40 MLOAD DUP1 PUSH1 0x40 ADD PUSH1 0x40 MSTORE DUP1 PUSH1 0x60 DUP2 MSTORE PUSH1 0x20 ADD PUSH0 DUP2 MSTORE POP SWAP1 JUMP JUMPDEST PUSH0 PUSH1 0x40 MLOAD SWAP1 POP SWAP1 JUMP JUMPDEST PUSH0 DUP1 REVERT JUMPDEST PUSH0 DUP1 REVERT JUMPDEST PUSH0 PUSH32 0xFFFFFFFF00000000000000000000000000000000000000000000000000000000 DUP3 AND SWAP1 POP SWAP2 SWAP1 POP JUMP JUMPDEST PUSH2 0x2F54 DUP2 PUSH2 0x2F20 JUMP JUMPDEST DUP2 EQ PUSH2 0x2F5E JUMPI PUSH0 DUP1 REVERT JUMPDEST POP JUMP JUMPDEST PUSH0 DUP2 CALLDATALOAD SWAP1 POP PUSH2 0x2F6F DUP2 PUSH2 0x2F4B JUMP JUMPDEST SWAP3 SWAP2 POP POP JUMP JUMPDEST PUSH0 PUSH1 0x20 DUP3 DUP5 SUB SLT ISZERO PUSH2 0x2F8A JUMPI PUSH2 0x2F89 PUSH2 0x2F18 JUMP JUMPDEST JUMPDEST PUSH0 PUSH2 0x2F97 DUP5 DUP3 DUP6 ADD PUSH2 0x2F61 JUMP JUMPDEST SWAP2 POP POP SWAP3 SWAP2 POP POP JUMP JUMPDEST PUSH0 DUP2 ISZERO ISZERO SWAP1 POP SWAP2 SWAP1 POP JUMP JUMPDEST PUSH2 0x2FB4 DUP2 PUSH2 0x2FA0 JUMP JUMPDEST DUP3 MSTORE POP POP JUMP JUMPDEST PUSH0 PUSH1 0x20 DUP3 ADD SWAP1 POP PUSH2 0x2FCD PUSH0 DUP4 ADD DUP5 PUSH2 0x2FAB JUMP JUMPDEST SWAP3 SWAP2 POP POP JUMP JUMPDEST PUSH0 DUP2 MLOAD SWAP1 POP SWAP2 SWAP1 POP JUMP JUMPDEST PUSH0 DUP3 DUP3 MSTORE PUSH1 0x20 DUP3 ADD SWAP1 POP SWAP3 SWAP2 POP POP JUMP JUMPDEST PUSH0 JUMPDEST DUP4 DUP2 LT ISZERO PUSH2 0x300A JUMPI DUP1 DUP3 ADD MLOAD DUP2 DUP5 ADD MSTORE PUSH1 0x20 DUP2 ADD SWAP1 POP PUSH2 0x2FEF JUMP JUMPDEST PUSH0 DUP5 DUP5 ADD MSTORE POP POP POP POP JUMP JUMPDEST PUSH0 PUSH1 0x1F NOT PUSH1 0x1F DUP4 ADD AND SWAP1 POP SWAP2 SWAP1 POP JUMP JUMPDEST PUSH0 PUSH2 0x302F DUP3 PUSH2 0x2FD3 JUMP JUMPDEST PUSH2 0x3039 DUP2 DUP6 PUSH2 0x2FDD JUMP JUMPDEST SWAP4 POP PUSH2 0x3049 DUP2 DUP6 PUSH1 0x20 DUP7 ADD PUSH2 0x2FED JUMP JUMPDEST PUSH2 0x3052 DUP2 PUSH2 0x3015 JUMP JUMPDEST DUP5 ADD SWAP2 POP POP SWAP3 SWAP2 POP POP JUMP JUMPDEST PUSH0 PUSH1 0x20 DUP3 ADD SWAP1 POP DUP2 DUP2 SUB PUSH0 DUP4 ADD MSTORE PUSH2 0x3075 DUP2 DUP5 PUSH2 0x3025 JUMP JUMPDEST SWAP1 POP SWAP3 SWAP2 POP POP JUMP JUMPDEST PUSH0 DUP2 SWAP1 POP SWAP2 SWAP1 POP JUMP JUMPDEST PUSH2 0x308F DUP2 PUSH2 0x307D JUMP JUMPDEST DUP2 EQ PUSH2 0x3099 JUMPI PUSH0 DUP1 REVERT JUMPDEST POP JUMP JUMPDEST PUSH0 DUP2 CALLDATALOAD SWAP1 POP PUSH2 0x30AA DUP2 PUSH2 0x3086 JUMP JUMPDEST SWAP3 SWAP2 POP POP JUMP JUMPDEST PUSH0 PUSH1 0x20 DUP3 DUP5 SUB SLT ISZERO PUSH2 0x30C5 JUMPI PUSH2 0x30C4 PUSH2 0x2F18 JUMP JUMPDEST JUMPDEST PUSH0 PUSH2 0x30D2 DUP5 DUP3 DUP6 ADD PUSH2 0x309C JUMP JUMPDEST SWAP2 POP POP SWAP3 SWAP2 POP POP JUMP JUMPDEST PUSH0 PUSH20 0xFFFFFFFFFFFFFFFFFFFFFFFFFFFFFFFFFFFFFFFF DUP3 AND SWAP1 POP SWAP2 SWAP1 POP JUMP JUMPDEST PUSH0 PUSH2 0x3104 DUP3 PUSH2 0x30DB JUMP JUMPDEST SWAP1 POP SWAP2 SWAP1 POP JUMP JUMPDEST PUSH2 0x3114 DUP2 PUSH2 0x30FA JUMP JUMPDEST DUP3 MSTORE POP POP JUMP JUMPDEST PUSH0 PUSH1 0x20 DUP3 ADD SWAP1 POP PUSH2 0x312D PUSH0 DUP4 ADD DUP5 PUSH2 0x310B JUMP JUMPDEST SWAP3 SWAP2 POP POP JUMP JUMPDEST PUSH2 0x313C DUP2 PUSH2 0x30FA JUMP JUMPDEST DUP2 EQ PUSH2 0x3146 JUMPI PUSH0 DUP1 REVERT JUMPDEST POP JUMP JUMPDEST PUSH0 DUP2 CALLDATALOAD SWAP1 POP PUSH2 0x3157 DUP2 PUSH2 0x3133 JUMP JUMPDEST SWAP3 SWAP2 POP POP JUMP JUMPDEST PUSH0 DUP1 PUSH1 0x40 DUP4 DUP6 SUB SLT ISZERO PUSH2 0x3173 JUMPI PUSH2 0x3172 PUSH2 0x2F18 JUMP JUMPDEST JUMPDEST PUSH0 PUSH2 0x3180 DUP6 DUP3 DUP7 ADD PUSH2 0x3149 JUMP JUMPDEST SWAP3 POP POP PUSH1 0x20 PUSH2 0x3191 DUP6 DUP3 DUP7 ADD PUSH2 0x309C JUMP JUMPDEST SWAP2 POP POP SWAP3 POP SWAP3 SWAP1 POP JUMP JUMPDEST PUSH0 DUP2 SWAP1 POP SWAP2 SWAP1 POP JUMP JUMPDEST PUSH2 0x31AD DUP2 PUSH2 0x319B JUMP JUMPDEST DUP2 EQ PUSH2 0x31B7 JUMPI PUSH0 DUP1 REVERT JUMPDEST POP JUMP JUMPDEST PUSH0 DUP2 CALLDATALOAD SWAP1 POP PUSH2 0x31C8 DUP2 PUSH2 0x31A4 JUMP JUMPDEST SWAP3 SWAP2 POP POP JUMP JUMPDEST PUSH0 DUP1 REVERT JUMPDEST PUSH0 DUP1 REVERT JUMPDEST PUSH32 0x4E487B7100000000000000000000000000000000000000000000000000000000 PUSH0 MSTORE PUSH1 0x41 PUSH1 0x4 MSTORE PUSH1 0x24 PUSH0 REVERT JUMPDEST PUSH2 0x320C DUP3 PUSH2 0x3015 JUMP JUMPDEST DUP2 ADD DUP2 DUP2 LT PUSH8 0xFFFFFFFFFFFFFFFF DUP3 GT OR ISZERO PUSH2 0x322B JUMPI PUSH2 0x322A PUSH2 0x31D6 JUMP JUMPDEST JUMPDEST DUP1 PUSH1 0x40 MSTORE POP POP POP JUMP JUMPDEST PUSH0 PUSH2 0x323D PUSH2 0x2F0F JUMP JUMPDEST SWAP1 POP PUSH2 0x3249 DUP3 DUP3 PUSH2 0x3203 JUMP JUMPDEST SWAP2 SWAP1 POP JUMP JUMPDEST PUSH0 PUSH8 0xFFFFFFFFFFFFFFFF DUP3 GT ISZERO PUSH2 0x3268 JUMPI PUSH2 0x3267 PUSH2 0x31D6 JUMP JUMPDEST JUMPDEST PUSH2 0x3271 DUP3 PUSH2 0x3015 JUMP JUMPDEST SWAP1 POP PUSH1 0x20 DUP2 ADD SWAP1 POP SWAP2 SWAP1 POP JUMP JUMPDEST DUP3 DUP2 DUP4 CALLDATACOPY PUSH0 DUP4 DUP4 ADD MSTORE POP POP POP JUMP JUMPDEST PUSH0 PUSH2 0x329E PUSH2 0x3299 DUP5 PUSH2 0x324E JUMP JUMPDEST PUSH2 0x3234 JUMP JUMPDEST SWAP1 POP DUP3 DUP2 MSTORE PUSH1 0x20 DUP2 ADD DUP5 DUP5 DUP5 ADD GT ISZERO PUSH2 0x32BA JUMPI PUSH2 0x32B9 PUSH2 0x31D2 JUMP JUMPDEST JUMPDEST PUSH2 0x32C5 DUP5 DUP3 DUP6 PUSH2 0x327E JUMP JUMPDEST POP SWAP4 SWAP3 POP POP POP JUMP JUMPDEST PUSH0 DUP3 PUSH1 0x1F DUP4 ADD SLT PUSH2 0x32E1 JUMPI PUSH2 0x32E0 PUSH2 0x31CE JUMP JUMPDEST JUMPDEST DUP2 CALLDATALOAD PUSH2 0x32F1 DUP5 DUP3 PUSH1 0x20 DUP7 ADD PUSH2 0x328C JUMP JUMPDEST SWAP2 POP POP SWAP3 SWAP2 POP POP JUMP JUMPDEST PUSH0 DUP1 PUSH0 PUSH1 0x60 DUP5 DUP7 SUB SLT ISZERO PUSH2 0x3311 JUMPI PUSH2 0x3310 PUSH2 0x2F18 JUMP JUMPDEST JUMPDEST PUSH0 PUSH2 0x331E DUP7 DUP3 DUP8 ADD PUSH2 0x31BA JUMP JUMPDEST SWAP4 POP POP PUSH1 0x20 DUP5 ADD CALLDATALOAD PUSH8 0xFFFFFFFFFFFFFFFF DUP2 GT ISZERO PUSH2 0x333F JUMPI PUSH2 0x333E PUSH2 0x2F1C JUMP JUMPDEST JUMPDEST PUSH2 0x334B DUP7 DUP3 DUP8 ADD PUSH2 0x32CD JUMP JUMPDEST SWAP3 POP POP PUSH1 0x40 DUP5 ADD CALLDATALOAD PUSH8 0xFFFFFFFFFFFFFFFF DUP2 GT ISZERO PUSH2 0x336C JUMPI PUSH2 0x336B PUSH2 0x2F1C JUMP JUMPDEST JUMPDEST PUSH2 0x3378 DUP7 DUP3 DUP8 ADD PUSH2 0x32CD JUMP JUMPDEST SWAP2 POP POP SWAP3 POP SWAP3 POP SWAP3 JUMP JUMPDEST PUSH2 0x338B DUP2 PUSH2 0x307D JUMP JUMPDEST DUP3 MSTORE POP POP JUMP JUMPDEST PUSH0 PUSH1 0x80 DUP3 ADD SWAP1 POP DUP2 DUP2 SUB PUSH0 DUP4 ADD MSTORE PUSH2 0x33A9 DUP2 DUP8 PUSH2 0x3025 JUMP JUMPDEST SWAP1 POP PUSH2 0x33B8 PUSH1 0x20 DUP4 ADD DUP7 PUSH2 0x3382 JUMP JUMPDEST PUSH2 0x33C5 PUSH1 0x40 DUP4 ADD DUP6 PUSH2 0x3382 JUMP JUMPDEST PUSH2 0x33D2 PUSH1 0x60 DUP4 ADD DUP5 PUSH2 0x3382 JUMP JUMPDEST SWAP6 SWAP5 POP POP POP POP POP JUMP JUMPDEST PUSH0 DUP1 PUSH0 PUSH1 0x60 DUP5 DUP7 SUB SLT ISZERO PUSH2 0x33F2 JUMPI PUSH2 0x33F1 PUSH2 0x2F18 JUMP JUMPDEST JUMPDEST PUSH0 PUSH2 0x33FF DUP7 DUP3 DUP8 ADD PUSH2 0x3149 JUMP JUMPDEST SWAP4 POP POP PUSH1 0x20 PUSH2 0x3410 DUP7 DUP3 DUP8 ADD PUSH2 0x3149 JUMP JUMPDEST SWAP3 POP POP PUSH1 0x40 PUSH2 0x3421 DUP7 DUP3 DUP8 ADD PUSH2 0x309C JUMP JUMPDEST SWAP2 POP POP SWAP3 POP SWAP3 POP SWAP3 JUMP JUMPDEST PUSH0 PUSH8 0xFFFFFFFFFFFFFFFF DUP3 AND SWAP1 POP SWAP2 SWAP1 POP JUMP JUMPDEST PUSH2 0x3447 DUP2 PUSH2 0x342B JUMP JUMPDEST DUP2 EQ PUSH2 0x3451 JUMPI PUSH0 DUP1 REVERT JUMPDEST POP JUMP JUMPDEST PUSH0 DUP2 CALLDATALOAD SWAP1 POP PUSH2 0x3462 DUP2 PUSH2 0x343E JUMP JUMPDEST SWAP3 SWAP2 POP POP JUMP JUMPDEST PUSH0 PUSH1 0x20 DUP3 DUP5 SUB SLT ISZERO PUSH2 0x347D JUMPI PUSH2 0x347C PUSH2 0x2F18 JUMP JUMPDEST JUMPDEST PUSH0 PUSH2 0x348A DUP5 DUP3 DUP6 ADD PUSH2 0x3454 JUMP JUMPDEST SWAP2 POP POP SWAP3 SWAP2 POP POP JUMP JUMPDEST PUSH2 0x349C DUP2 PUSH2 0x319B JUMP JUMPDEST DUP3 MSTORE POP POP JUMP JUMPDEST PUSH0 PUSH1 0x20 DUP3 ADD SWAP1 POP PUSH2 0x34B5 PUSH0 DUP4 ADD DUP5 PUSH2 0x3493 JUMP JUMPDEST SWAP3 SWAP2 POP POP JUMP JUMPDEST PUSH0 PUSH1 0x20 DUP3 ADD SWAP1 POP PUSH2 0x34CE PUSH0 DUP4 ADD DUP5 PUSH2 0x3382 JUMP JUMPDEST SWAP3 SWAP2 POP POP JUMP JUMPDEST PUSH0 DUP1 PUSH1 0x40 DUP4 DUP6 SUB SLT ISZERO PUSH2 0x34EA JUMPI PUSH2 0x34E9 PUSH2 0x2F18 JUMP JUMPDEST JUMPDEST PUSH0 PUSH2 0x34F7 DUP6 DUP3 DUP7 ADD PUSH2 0x309C JUMP JUMPDEST SWAP3 POP POP PUSH1 0x20 PUSH2 0x3508 DUP6 DUP3 DUP7 ADD PUSH2 0x309C JUMP JUMPDEST SWAP2 POP POP SWAP3 POP SWAP3 SWAP1 POP JUMP JUMPDEST PUSH0 DUP2 SWAP1 POP SWAP2 SWAP1 POP JUMP JUMPDEST PUSH2 0x3524 DUP2 PUSH2 0x3512 JUMP JUMPDEST DUP3 MSTORE POP POP JUMP JUMPDEST PUSH0 PUSH1 0x20 DUP3 ADD SWAP1 POP PUSH2 0x353D PUSH0 DUP4 ADD DUP5 PUSH2 0x351B JUMP JUMPDEST SWAP3 SWAP2 POP POP JUMP JUMPDEST PUSH0 PUSH1 0x20 DUP3 DUP5 SUB SLT ISZERO PUSH2 0x3558 JUMPI PUSH2 0x3557 PUSH2 0x2F18 JUMP JUMPDEST JUMPDEST PUSH0 PUSH2 0x3565 DUP5 DUP3 DUP6 ADD PUSH2 0x3149 JUMP JUMPDEST SWAP2 POP POP SWAP3 SWAP2 POP POP JUMP JUMPDEST PUSH2 0x3577 DUP2 PUSH2 0x2FA0 JUMP JUMPDEST DUP2 EQ PUSH2 0x3581 JUMPI PUSH0 DUP1 REVERT JUMPDEST POP JUMP JUMPDEST PUSH0 DUP2 CALLDATALOAD SWAP1 POP PUSH2 0x3592 DUP2 PUSH2 0x356E JUMP JUMPDEST SWAP3 SWAP2 POP POP JUMP JUMPDEST PUSH0 DUP1 PUSH1 0x40 DUP4 DUP6 SUB SLT ISZERO PUSH2 0x35AE JUMPI PUSH2 0x35AD PUSH2 0x2F18 JUMP JUMPDEST JUMPDEST PUSH0 PUSH2 0x35BB DUP6 DUP3 DUP7 ADD PUSH2 0x3149 JUMP JUMPDEST SWAP3 POP POP PUSH1 0x20 PUSH2 0x35CC DUP6 DUP3 DUP7 ADD PUSH2 0x3584 JUMP JUMPDEST SWAP2 POP POP SWAP3 POP SWAP3 SWAP1 POP JUMP JUMPDEST PUSH0 DUP1 PUSH0 DUP1 PUSH1 0x80 DUP6 DUP8 SUB SLT ISZERO PUSH2 0x35EE JUMPI PUSH2 0x35ED PUSH2 0x2F18 JUMP JUMPDEST JUMPDEST PUSH0 PUSH2 0x35FB DUP8 DUP3 DUP9 ADD PUSH2 0x3149 JUMP JUMPDEST SWAP5 POP POP PUSH1 0x20 PUSH2 0x360C DUP8 DUP3 DUP9 ADD PUSH2 0x3149 JUMP JUMPDEST SWAP4 POP POP PUSH1 0x40 PUSH2 0x361D DUP8 DUP3 DUP9 ADD PUSH2 0x309C JUMP JUMPDEST SWAP3 POP POP PUSH1 0x60 DUP6 ADD CALLDATALOAD PUSH8 0xFFFFFFFFFFFFFFFF DUP2 GT ISZERO PUSH2 0x363E JUMPI PUSH2 0x363D PUSH2 0x2F1C JUMP JUMPDEST JUMPDEST PUSH2 0x364A DUP8 DUP3 DUP9 ADD PUSH2 0x32CD JUMP JUMPDEST SWAP2 POP POP SWAP3 SWAP6 SWAP2 SWAP5 POP SWAP3 POP JUMP JUMPDEST PUSH0 DUP1 PUSH1 0x40 DUP4 DUP6 SUB SLT ISZERO PUSH2 0x366C JUMPI PUSH2 0x366B PUSH2 0x2F18 JUMP JUMPDEST JUMPDEST PUSH0 PUSH2 0x3679 DUP6 DUP3 DUP7 ADD PUSH2 0x3149 JUMP JUMPDEST SWAP3 POP POP PUSH1 0x20 PUSH2 0x368A DUP6 DUP3 DUP7 ADD PUSH2 0x3149 JUMP JUMPDEST SWAP2 POP POP SWAP3 POP SWAP3 SWAP1 POP JUMP JUMPDEST PUSH32 0x4E487B7100000000000000000000000000000000000000000000000000000000 PUSH0 MSTORE PUSH1 0x22 PUSH1 0x4 MSTORE PUSH1 0x24 PUSH0 REVERT JUMPDEST PUSH0 PUSH1 0x2 DUP3 DIV SWAP1 POP PUSH1 0x1 DUP3 AND DUP1 PUSH2 0x36D8 JUMPI PUSH1 0x7F DUP3 AND SWAP2 POP JUMPDEST PUSH1 0x20 DUP3 LT DUP2 SUB PUSH2 0x36EB JUMPI PUSH2 0x36EA PUSH2 0x3694 JUMP JUMPDEST JUMPDEST POP SWAP2 SWAP1 POP JUMP JUMPDEST PUSH0 PUSH1 0x60 DUP3 ADD SWAP1 POP PUSH2 0x3704 PUSH0 DUP4 ADD DUP7 PUSH2 0x310B JUMP JUMPDEST PUSH2 0x3711 PUSH1 0x20 DUP4 ADD DUP6 PUSH2 0x3382 JUMP JUMPDEST PUSH2 0x371E PUSH1 0x40 DUP4 ADD DUP5 PUSH2 0x310B JUMP JUMPDEST SWAP5 SWAP4 POP POP POP POP JUMP JUMPDEST PUSH32 0x546F6B656E73206861766520616C7265616479206265656E2069737375656400 PUSH0 DUP3 ADD MSTORE POP JUMP JUMPDEST PUSH0 PUSH2 0x375A PUSH1 0x1F DUP4 PUSH2 0x2FDD JUMP JUMPDEST SWAP2 POP PUSH2 0x3765 DUP3 PUSH2 0x3726 JUMP JUMPDEST PUSH1 0x20 DUP3 ADD SWAP1 POP SWAP2 SWAP1 POP JUMP JUMPDEST PUSH0 PUSH1 0x20 DUP3 ADD SWAP1 POP DUP2 DUP2 SUB PUSH0 DUP4 ADD MSTORE PUSH2 0x3787 DUP2 PUSH2 0x374E JUMP JUMPDEST SWAP1 POP SWAP2 SWAP1 POP JUMP JUMPDEST PUSH32 0x4E487B7100000000000000000000000000000000000000000000000000000000 PUSH0 MSTORE PUSH1 0x11 PUSH1 0x4 MSTORE PUSH1 0x24 PUSH0 REVERT JUMPDEST PUSH0 PUSH2 0x37C5 DUP3 PUSH2 0x307D JUMP JUMPDEST SWAP2 POP PUSH2 0x37D0 DUP4 PUSH2 0x307D JUMP JUMPDEST SWAP3 POP DUP3 DUP3 MUL PUSH2 0x37DE DUP2 PUSH2 0x307D JUMP JUMPDEST SWAP2 POP DUP3 DUP3 DIV DUP5 EQ DUP4 ISZERO OR PUSH2 0x37F5 JUMPI PUSH2 0x37F4 PUSH2 0x378E JUMP JUMPDEST JUMPDEST POP SWAP3 SWAP2 POP POP JUMP JUMPDEST PUSH32 0x4E487B7100000000000000000000000000000000000000000000000000000000 PUSH0 MSTORE PUSH1 0x12 PUSH1 0x4 MSTORE PUSH1 0x24 PUSH0 REVERT JUMPDEST PUSH0 PUSH2 0x3833 DUP3 PUSH2 0x307D JUMP JUMPDEST SWAP2 POP PUSH2 0x383E DUP4 PUSH2 0x307D JUMP JUMPDEST SWAP3 POP DUP3 PUSH2 0x384E JUMPI PUSH2 0x384D PUSH2 0x37FC JUMP JUMPDEST JUMPDEST DUP3 DUP3 DIV SWAP1 POP SWAP3 SWAP2 POP POP JUMP JUMPDEST PUSH0 PUSH2 0x3863 DUP3 PUSH2 0x307D JUMP JUMPDEST SWAP2 POP PUSH32 0xFFFFFFFFFFFFFFFFFFFFFFFFFFFFFFFFFFFFFFFFFFFFFFFFFFFFFFFFFFFFFFFF DUP3 SUB PUSH2 0x3895 JUMPI PUSH2 0x3894 PUSH2 0x378E JUMP JUMPDEST JUMPDEST PUSH1 0x1 DUP3 ADD SWAP1 POP SWAP2 SWAP1 POP JUMP JUMPDEST PUSH0 PUSH1 0x40 DUP3 ADD SWAP1 POP PUSH2 0x38B3 PUSH0 DUP4 ADD DUP6 PUSH2 0x3382 JUMP JUMPDEST PUSH2 0x38C0 PUSH1 0x20 DUP4 ADD DUP5 PUSH2 0x3382 JUMP JUMPDEST SWAP4 SWAP3 POP POP POP JUMP JUMPDEST PUSH32 0x546F6B656E732068617665206E6F74206265656E206973737565640000000000 PUSH0 DUP3 ADD MSTORE POP JUMP JUMPDEST PUSH0 PUSH2 0x38FB PUSH1 0x1B DUP4 PUSH2 0x2FDD JUMP JUMPDEST SWAP2 POP PUSH2 0x3906 DUP3 PUSH2 0x38C7 JUMP JUMPDEST PUSH1 0x20 DUP3 ADD SWAP1 POP SWAP2 SWAP1 POP JUMP JUMPDEST PUSH0 PUSH1 0x20 DUP3 ADD SWAP1 POP DUP2 DUP2 SUB PUSH0 DUP4 ADD MSTORE PUSH2 0x3928 DUP2 PUSH2 0x38EF JUMP JUMPDEST SWAP1 POP SWAP2 SWAP1 POP JUMP JUMPDEST PUSH0 PUSH10 0xFFFFFFFFFFFFFFFFFFFF DUP3 AND SWAP1 POP SWAP2 SWAP1 POP JUMP JUMPDEST PUSH2 0x394D DUP2 PUSH2 0x392F JUMP JUMPDEST DUP2 EQ PUSH2 0x3957 JUMPI PUSH0 DUP1 REVERT JUMPDEST POP JUMP JUMPDEST PUSH0 DUP2 MLOAD SWAP1 POP PUSH2 0x3968 DUP2 PUSH2 0x3944 JUMP JUMPDEST SWAP3 SWAP2 POP POP JUMP JUMPDEST PUSH2 0x3977 DUP2 PUSH2 0x3512 JUMP JUMPDEST DUP2 EQ PUSH2 0x3981 JUMPI PUSH0 DUP1 REVERT JUMPDEST POP JUMP JUMPDEST PUSH0 DUP2 MLOAD SWAP1 POP PUSH2 0x3992 DUP2 PUSH2 0x396E JUMP JUMPDEST SWAP3 SWAP2 POP POP JUMP JUMPDEST PUSH0 DUP2 MLOAD SWAP1 POP PUSH2 0x39A6 DUP2 PUSH2 0x3086 JUMP JUMPDEST SWAP3 SWAP2 POP POP JUMP JUMPDEST PUSH0 DUP1 PUSH0 DUP1 PUSH0 PUSH1 0xA0 DUP7 DUP9 SUB SLT ISZERO PUSH2 0x39C5 JUMPI PUSH2 0x39C4 PUSH2 0x2F18 JUMP JUMPDEST JUMPDEST PUSH0 PUSH2 0x39D2 DUP9 DUP3 DUP10 ADD PUSH2 0x395A JUMP JUMPDEST SWAP6 POP POP PUSH1 0x20 PUSH2 0x39E3 DUP9 DUP3 DUP10 ADD PUSH2 0x3984 JUMP JUMPDEST SWAP5 POP POP PUSH1 0x40 PUSH2 0x39F4 DUP9 DUP3 DUP10 ADD PUSH2 0x3998 JUMP JUMPDEST SWAP4 POP POP PUSH1 0x60 PUSH2 0x3A05 DUP9 DUP3 DUP10 ADD PUSH2 0x3998 JUMP JUMPDEST SWAP3 POP POP PUSH1 0x80 PUSH2 0x3A16 DUP9 DUP3 DUP10 ADD PUSH2 0x395A JUMP JUMPDEST SWAP2 POP POP SWAP3 SWAP6 POP SWAP3 SWAP6 SWAP1 SWAP4 POP JUMP JUMPDEST PUSH0 DUP2 SWAP1 POP SWAP3 SWAP2 POP POP JUMP JUMPDEST PUSH0 PUSH2 0x3A37 DUP3 PUSH2 0x2FD3 JUMP JUMPDEST PUSH2 0x3A41 DUP2 DUP6 PUSH2 0x3A23 JUMP JUMPDEST SWAP4 POP PUSH2 0x3A51 DUP2 DUP6 PUSH1 0x20 DUP7 ADD PUSH2 0x2FED JUMP JUMPDEST DUP1 DUP5 ADD SWAP2 POP POP SWAP3 SWAP2 POP POP JUMP JUMPDEST PUSH0 PUSH2 0x3A68 DUP3 DUP6 PUSH2 0x3A2D JUMP JUMPDEST SWAP2 POP PUSH2 0x3A74 DUP3 DUP5 PUSH2 0x3A2D JUMP JUMPDEST SWAP2 POP DUP2 SWAP1 POP SWAP4 SWAP3 POP POP POP JUMP JUMPDEST PUSH0 PUSH8 0xFFFFFFFFFFFFFFFF DUP3 GT ISZERO PUSH2 0x3A9A JUMPI PUSH2 0x3A99 PUSH2 0x31D6 JUMP JUMPDEST JUMPDEST PUSH2 0x3AA3 DUP3 PUSH2 0x3015 JUMP JUMPDEST SWAP1 POP PUSH1 0x20 DUP2 ADD SWAP1 POP SWAP2 SWAP1 POP JUMP JUMPDEST PUSH0 PUSH2 0x3AC2 PUSH2 0x3ABD DUP5 PUSH2 0x3A80 JUMP JUMPDEST PUSH2 0x3234 JUMP JUMPDEST SWAP1 POP DUP3 DUP2 MSTORE PUSH1 0x20 DUP2 ADD DUP5 DUP5 DUP5 ADD GT ISZERO PUSH2 0x3ADE JUMPI PUSH2 0x3ADD PUSH2 0x31D2 JUMP JUMPDEST JUMPDEST PUSH2 0x3AE9 DUP5 DUP3 DUP6 PUSH2 0x2FED JUMP JUMPDEST POP SWAP4 SWAP3 POP POP POP JUMP JUMPDEST PUSH0 DUP3 PUSH1 0x1F DUP4 ADD SLT PUSH2 0x3B05 JUMPI PUSH2 0x3B04 PUSH2 0x31CE JUMP JUMPDEST JUMPDEST DUP2 MLOAD PUSH2 0x3B15 DUP5 DUP3 PUSH1 0x20 DUP7 ADD PUSH2 0x3AB0 JUMP JUMPDEST SWAP2 POP POP SWAP3 SWAP2 POP POP JUMP JUMPDEST PUSH0 DUP1 PUSH0 DUP1 PUSH1 0x80 DUP6 DUP8 SUB SLT ISZERO PUSH2 0x3B36 JUMPI PUSH2 0x3B35 PUSH2 0x2F18 JUMP JUMPDEST JUMPDEST PUSH0 DUP6 ADD MLOAD PUSH8 0xFFFFFFFFFFFFFFFF DUP2 GT ISZERO PUSH2 0x3B53 JUMPI PUSH2 0x3B52 PUSH2 0x2F1C JUMP JUMPDEST JUMPDEST PUSH2 0x3B5F DUP8 DUP3 DUP9 ADD PUSH2 0x3AF1 JUMP JUMPDEST SWAP5 POP POP PUSH1 0x20 PUSH2 0x3B70 DUP8 DUP3 DUP9 ADD PUSH2 0x3998 JUMP JUMPDEST SWAP4 POP POP PUSH1 0x40 PUSH2 0x3B81 DUP8 DUP3 DUP9 ADD PUSH2 0x3998 JUMP JUMPDEST SWAP3 POP POP PUSH1 0x60 PUSH2 0x3B92 DUP8 DUP3 DUP9 ADD PUSH2 0x3998 JUMP JUMPDEST SWAP2 POP POP SWAP3 SWAP6 SWAP2 SWAP5 POP SWAP3 POP JUMP JUMPDEST PUSH0 DUP2 SWAP1 POP DUP2 PUSH0 MSTORE PUSH1 0x20 PUSH0 KECCAK256 SWAP1 POP SWAP2 SWAP1 POP JUMP JUMPDEST PUSH0 PUSH1 0x20 PUSH1 0x1F DUP4 ADD DIV SWAP1 POP SWAP2 SWAP1 POP JUMP JUMPDEST PUSH0 DUP3 DUP3 SHL SWAP1 POP SWAP3 SWAP2 POP POP JUMP JUMPDEST PUSH0 PUSH1 0x8 DUP4 MUL PUSH2 0x3BFA PUSH32 0xFFFFFFFFFFFFFFFFFFFFFFFFFFFFFFFFFFFFFFFFFFFFFFFFFFFFFFFFFFFFFFFF DUP3 PUSH2 0x3BBF JUMP JUMPDEST PUSH2 0x3C04 DUP7 DUP4 PUSH2 0x3BBF JUMP JUMPDEST SWAP6 POP DUP1 NOT DUP5 AND SWAP4 POP DUP1 DUP7 AND DUP5 OR SWAP3 POP POP POP SWAP4 SWAP3 POP POP POP JUMP JUMPDEST PUSH0 DUP2 SWAP1 POP SWAP2 SWAP1 POP JUMP JUMPDEST PUSH0 PUSH2 0x3C3F PUSH2 0x3C3A PUSH2 0x3C35 DUP5 PUSH2 0x307D JUMP JUMPDEST PUSH2 0x3C1C JUMP JUMPDEST PUSH2 0x307D JUMP JUMPDEST SWAP1 POP SWAP2 SWAP1 POP JUMP JUMPDEST PUSH0 DUP2 SWAP1 POP SWAP2 SWAP1 POP JUMP JUMPDEST PUSH2 0x3C58 DUP4 PUSH2 0x3C25 JUMP JUMPDEST PUSH2 0x3C6C PUSH2 0x3C64 DUP3 PUSH2 0x3C46 JUMP JUMPDEST DUP5 DUP5 SLOAD PUSH2 0x3BCB JUMP JUMPDEST DUP3 SSTORE POP POP POP POP JUMP JUMPDEST PUSH0 SWAP1 JUMP JUMPDEST PUSH2 0x3C80 PUSH2 0x3C74 JUMP JUMPDEST PUSH2 0x3C8B DUP2 DUP5 DUP5 PUSH2 0x3C4F JUMP JUMPDEST POP POP POP JUMP JUMPDEST JUMPDEST DUP2 DUP2 LT ISZERO PUSH2 0x3CAE JUMPI PUSH2 0x3CA3 PUSH0 DUP3 PUSH2 0x3C78 JUMP JUMPDEST PUSH1 0x1 DUP2 ADD SWAP1 POP PUSH2 0x3C91 JUMP JUMPDEST POP POP JUMP JUMPDEST PUSH1 0x1F DUP3 GT ISZERO PUSH2 0x3CF3 JUMPI PUSH2 0x3CC4 DUP2 PUSH2 0x3B9E JUMP JUMPDEST PUSH2 0x3CCD DUP5 PUSH2 0x3BB0 JUMP JUMPDEST DUP2 ADD PUSH1 0x20 DUP6 LT ISZERO PUSH2 0x3CDC JUMPI DUP2 SWAP1 POP JUMPDEST PUSH2 0x3CF0 PUSH2 0x3CE8 DUP6 PUSH2 0x3BB0 JUMP JUMPDEST DUP4 ADD DUP3 PUSH2 0x3C90 JUMP JUMPDEST POP POP JUMPDEST POP POP POP JUMP JUMPDEST PUSH0 DUP3 DUP3 SHR SWAP1 POP SWAP3 SWAP2 POP POP JUMP JUMPDEST PUSH0 PUSH2 0x3D13 PUSH0 NOT DUP5 PUSH1 0x8 MUL PUSH2 0x3CF8 JUMP JUMPDEST NOT DUP1 DUP4 AND SWAP2 POP POP SWAP3 SWAP2 POP POP JUMP JUMPDEST PUSH0 PUSH2 0x3D2B DUP4 DUP4 PUSH2 0x3D04 JUMP JUMPDEST SWAP2 POP DUP3 PUSH1 0x2 MUL DUP3 OR SWAP1 POP SWAP3 SWAP2 POP POP JUMP JUMPDEST PUSH2 0x3D44 DUP3 PUSH2 0x2FD3 JUMP JUMPDEST PUSH8 0xFFFFFFFFFFFFFFFF DUP2 GT ISZERO PUSH2 0x3D5D JUMPI PUSH2 0x3D5C PUSH2 0x31D6 JUMP JUMPDEST JUMPDEST PUSH2 0x3D67 DUP3 SLOAD PUSH2 0x36C1 JUMP JUMPDEST PUSH2 0x3D72 DUP3 DUP3 DUP6 PUSH2 0x3CB2 JUMP JUMPDEST PUSH0 PUSH1 0x20 SWAP1 POP PUSH1 0x1F DUP4 GT PUSH1 0x1 DUP2 EQ PUSH2 0x3DA3 JUMPI PUSH0 DUP5 ISZERO PUSH2 0x3D91 JUMPI DUP3 DUP8 ADD MLOAD SWAP1 POP JUMPDEST PUSH2 0x3D9B DUP6 DUP3 PUSH2 0x3D20 JUMP JUMPDEST DUP7 SSTORE POP PUSH2 0x3E02 JUMP JUMPDEST PUSH1 0x1F NOT DUP5 AND PUSH2 0x3DB1 DUP7 PUSH2 0x3B9E JUMP JUMPDEST PUSH0 JUMPDEST DUP3 DUP2 LT ISZERO PUSH2 0x3DD8 JUMPI DUP5 DUP10 ADD MLOAD DUP3 SSTORE PUSH1 0x1 DUP3 ADD SWAP2 POP PUSH1 0x20 DUP6 ADD SWAP5 POP PUSH1 0x20 DUP2 ADD SWAP1 POP PUSH2 0x3DB3 JUMP JUMPDEST DUP7 DUP4 LT ISZERO PUSH2 0x3DF5 JUMPI DUP5 DUP10 ADD MLOAD PUSH2 0x3DF1 PUSH1 0x1F DUP10 AND DUP3 PUSH2 0x3D04 JUMP JUMPDEST DUP4 SSTORE POP JUMPDEST PUSH1 0x1 PUSH1 0x2 DUP9 MUL ADD DUP9 SSTORE POP POP POP JUMPDEST POP POP POP POP POP POP JUMP JUMPDEST PUSH0 DUP2 MLOAD SWAP1 POP SWAP2 SWAP1 POP JUMP JUMPDEST PUSH0 DUP2 SWAP1 POP DUP2 PUSH0 MSTORE PUSH1 0x20 PUSH0 KECCAK256 SWAP1 POP SWAP2 SWAP1 POP JUMP JUMPDEST PUSH1 0x1F DUP3 GT ISZERO PUSH2 0x3E67 JUMPI PUSH2 0x3E38 DUP2 PUSH2 0x3E14 JUMP JUMPDEST PUSH2 0x3E41 DUP5 PUSH2 0x3BB0 JUMP JUMPDEST DUP2 ADD PUSH1 0x20 DUP6 LT ISZERO PUSH2 0x3E50 JUMPI DUP2 SWAP1 POP JUMPDEST PUSH2 0x3E64 PUSH2 0x3E5C DUP6 PUSH2 0x3BB0 JUMP JUMPDEST DUP4 ADD DUP3 PUSH2 0x3C90 JUMP JUMPDEST POP POP JUMPDEST POP POP POP JUMP JUMPDEST PUSH2 0x3E75 DUP3 PUSH2 0x3E0A JUMP JUMPDEST PUSH8 0xFFFFFFFFFFFFFFFF DUP2 GT ISZERO PUSH2 0x3E8E JUMPI PUSH2 0x3E8D PUSH2 0x31D6 JUMP JUMPDEST JUMPDEST PUSH2 0x3E98 DUP3 SLOAD PUSH2 0x36C1 JUMP JUMPDEST PUSH2 0x3EA3 DUP3 DUP3 DUP6 PUSH2 0x3E26 JUMP JUMPDEST PUSH0 PUSH1 0x20 SWAP1 POP PUSH1 0x1F DUP4 GT PUSH1 0x1 DUP2 EQ PUSH2 0x3ED4 JUMPI PUSH0 DUP5 ISZERO PUSH2 0x3EC2 JUMPI DUP3 DUP8 ADD MLOAD SWAP1 POP JUMPDEST PUSH2 0x3ECC DUP6 DUP3 PUSH2 0x3D20 JUMP JUMPDEST DUP7 SSTORE POP PUSH2 0x3F33 JUMP JUMPDEST PUSH1 0x1F NOT DUP5 AND PUSH2 0x3EE2 DUP7 PUSH2 0x3E14 JUMP JUMPDEST PUSH0 JUMPDEST DUP3 DUP2 LT ISZERO PUSH2 0x3F09 JUMPI DUP5 DUP10 ADD MLOAD DUP3 SSTORE PUSH1 0x1 DUP3 ADD SWAP2 POP PUSH1 0x20 DUP6 ADD SWAP5 POP PUSH1 0x20 DUP2 ADD SWAP1 POP PUSH2 0x3EE4 JUMP JUMPDEST DUP7 DUP4 LT ISZERO PUSH2 0x3F26 JUMPI DUP5 DUP10 ADD MLOAD PUSH2 0x3F22 PUSH1 0x1F DUP10 AND DUP3 PUSH2 0x3D04 JUMP JUMPDEST DUP4 SSTORE POP JUMPDEST PUSH1 0x1 PUSH1 0x2 DUP9 MUL ADD DUP9 SSTORE POP POP POP JUMPDEST POP POP POP POP POP POP JUMP JUMPDEST PUSH0 DUP2 SLOAD PUSH2 0x3F47 DUP2 PUSH2 0x36C1 JUMP JUMPDEST PUSH2 0x3F51 DUP2 DUP7 PUSH2 0x2FDD JUMP JUMPDEST SWAP5 POP PUSH1 0x1 DUP3 AND PUSH0 DUP2 EQ PUSH2 0x3F6B JUMPI PUSH1 0x1 DUP2 EQ PUSH2 0x3F81 JUMPI PUSH2 0x3FB3 JUMP JUMPDEST PUSH1 0xFF NOT DUP4 AND DUP7 MSTORE DUP2 ISZERO ISZERO PUSH1 0x20 MUL DUP7 ADD SWAP4 POP PUSH2 0x3FB3 JUMP JUMPDEST PUSH2 0x3F8A DUP6 PUSH2 0x3B9E JUMP JUMPDEST PUSH0 JUMPDEST DUP4 DUP2 LT ISZERO PUSH2 0x3FAB JUMPI DUP2 SLOAD DUP2 DUP10 ADD MSTORE PUSH1 0x1 DUP3 ADD SWAP2 POP PUSH1 0x20 DUP2 ADD SWAP1 POP PUSH2 0x3F8C JUMP JUMPDEST DUP1 DUP9 ADD SWAP6 POP POP POP JUMPDEST POP POP POP SWAP3 SWAP2 POP POP JUMP JUMPDEST PUSH0 DUP3 DUP3 MSTORE PUSH1 0x20 DUP3 ADD SWAP1 POP SWAP3 SWAP2 POP POP JUMP JUMPDEST PUSH0 DUP2 SLOAD PUSH2 0x3FD8 DUP2 PUSH2 0x36C1 JUMP JUMPDEST PUSH2 0x3FE2 DUP2 DUP7 PUSH2 0x3FBC JUMP JUMPDEST SWAP5 POP PUSH1 0x1 DUP3 AND PUSH0 DUP2 EQ PUSH2 0x3FFC JUMPI PUSH1 0x1 DUP2 EQ PUSH2 0x4012 JUMPI PUSH2 0x4044 JUMP JUMPDEST PUSH1 0xFF NOT DUP4 AND DUP7 MSTORE DUP2 ISZERO ISZERO PUSH1 0x20 MUL DUP7 ADD SWAP4 POP PUSH2 0x4044 JUMP JUMPDEST PUSH2 0x401B DUP6 PUSH2 0x3E14 JUMP JUMPDEST PUSH0 JUMPDEST DUP4 DUP2 LT ISZERO PUSH2 0x403C JUMPI DUP2 SLOAD DUP2 DUP10 ADD MSTORE PUSH1 0x1 DUP3 ADD SWAP2 POP PUSH1 0x20 DUP2 ADD SWAP1 POP PUSH2 0x401D JUMP JUMPDEST DUP1 DUP9 ADD SWAP6 POP POP POP JUMPDEST POP POP POP SWAP3 SWAP2 POP POP JUMP JUMPDEST PUSH0 PUSH1 0xC0 DUP3 ADD SWAP1 POP DUP2 DUP2 SUB PUSH0 DUP4 ADD MSTORE PUSH2 0x4065 DUP2 DUP10 PUSH2 0x3F3B JUMP JUMPDEST SWAP1 POP PUSH2 0x4074 PUSH1 0x20 DUP4 ADD DUP9 PUSH2 0x3382 JUMP JUMPDEST PUSH2 0x4081 PUSH1 0x40 DUP4 ADD DUP8 PUSH2 0x3382 JUMP JUMPDEST PUSH2 0x408E PUSH1 0x60 DUP4 ADD DUP7 PUSH2 0x3382 JUMP JUMPDEST DUP2 DUP2 SUB PUSH1 0x80 DUP4 ADD MSTORE PUSH2 0x40A0 DUP2 DUP6 PUSH2 0x3FCC JUMP JUMPDEST SWAP1 POP DUP2 DUP2 SUB PUSH1 0xA0 DUP4 ADD MSTORE PUSH2 0x40B4 DUP2 DUP5 PUSH2 0x3FCC JUMP JUMPDEST SWAP1 POP SWAP8 SWAP7 POP POP POP POP POP POP POP JUMP JUMPDEST PUSH32 0x4E487B7100000000000000000000000000000000000000000000000000000000 PUSH0 MSTORE PUSH1 0x21 PUSH1 0x4 MSTORE PUSH1 0x24 PUSH0 REVERT JUMPDEST PUSH32 0x4E487B7100000000000000000000000000000000000000000000000000000000 PUSH0 MSTORE PUSH1 0x32 PUSH1 0x4 MSTORE PUSH1 0x24 PUSH0 REVERT JUMPDEST PUSH2 0x4124 DUP2 PUSH2 0x342B JUMP JUMPDEST DUP3 MSTORE POP POP JUMP JUMPDEST PUSH0 PUSH2 0x4134 DUP3 PUSH2 0x3E0A JUMP JUMPDEST PUSH2 0x413E DUP2 DUP6 PUSH2 0x3FBC JUMP JUMPDEST SWAP4 POP PUSH2 0x414E DUP2 DUP6 PUSH1 0x20 DUP7 ADD PUSH2 0x2FED JUMP JUMPDEST PUSH2 0x4157 DUP2 PUSH2 0x3015 JUMP JUMPDEST DUP5 ADD SWAP2 POP POP SWAP3 SWAP2 POP POP JUMP JUMPDEST PUSH0 PUSH2 0xFFFF DUP3 AND SWAP1 POP SWAP2 SWAP1 POP JUMP JUMPDEST PUSH2 0x4178 DUP2 PUSH2 0x4162 JUMP JUMPDEST DUP3 MSTORE POP POP JUMP JUMPDEST PUSH0 PUSH4 0xFFFFFFFF DUP3 AND SWAP1 POP SWAP2 SWAP1 POP JUMP JUMPDEST PUSH2 0x4196 DUP2 PUSH2 0x417E JUMP JUMPDEST DUP3 MSTORE POP POP JUMP JUMPDEST PUSH0 PUSH1 0xA0 DUP3 ADD SWAP1 POP PUSH2 0x41AF PUSH0 DUP4 ADD DUP9 PUSH2 0x411B JUMP JUMPDEST DUP2 DUP2 SUB PUSH1 0x20 DUP4 ADD MSTORE PUSH2 0x41C1 DUP2 DUP8 PUSH2 0x412A JUMP JUMPDEST SWAP1 POP PUSH2 0x41D0 PUSH1 0x40 DUP4 ADD DUP7 PUSH2 0x416F JUMP JUMPDEST PUSH2 0x41DD PUSH1 0x60 DUP4 ADD DUP6 PUSH2 0x418D JUMP JUMPDEST PUSH2 0x41EA PUSH1 0x80 DUP4 ADD DUP5 PUSH2 0x3493 JUMP JUMPDEST SWAP7 SWAP6 POP POP POP POP POP POP JUMP JUMPDEST PUSH0 DUP2 MLOAD SWAP1 POP PUSH2 0x4202 DUP2 PUSH2 0x31A4 JUMP JUMPDEST SWAP3 SWAP2 POP POP JUMP JUMPDEST PUSH0 PUSH1 0x20 DUP3 DUP5 SUB SLT ISZERO PUSH2 0x421D JUMPI PUSH2 0x421C PUSH2 0x2F18 JUMP JUMPDEST JUMPDEST PUSH0 PUSH2 0x422A DUP5 DUP3 DUP6 ADD PUSH2 0x41F4 JUMP JUMPDEST SWAP2 POP POP SWAP3 SWAP2 POP POP JUMP JUMPDEST PUSH32 0x7B226E616D65223A2022363239204861726C656D204C4C4D222C000000000000 PUSH0 DUP3 ADD MSTORE POP JUMP JUMPDEST PUSH0 PUSH2 0x4267 PUSH1 0x1A DUP4 PUSH2 0x3A23 JUMP JUMPDEST SWAP2 POP PUSH2 0x4272 DUP3 PUSH2 0x4233 JUMP JUMPDEST PUSH1 0x1A DUP3 ADD SWAP1 POP SWAP2 SWAP1 POP JUMP JUMPDEST PUSH32 0x226465736372697074696F6E223A20225257415420666F722036323920486172 PUSH0 DUP3 ADD MSTORE PUSH32 0x6C656D204C4C4D222C0000000000000000000000000000000000000000000000 PUSH1 0x20 DUP3 ADD MSTORE POP JUMP JUMPDEST PUSH0 PUSH2 0x42D7 PUSH1 0x29 DUP4 PUSH2 0x3A23 JUMP JUMPDEST SWAP2 POP PUSH2 0x42E2 DUP3 PUSH2 0x427D JUMP JUMPDEST PUSH1 0x29 DUP3 ADD SWAP1 POP SWAP2 SWAP1 POP JUMP JUMPDEST PUSH32 0x22696D616765223A2022697066733A2F2F516D59584D4633364D34746E344C6D PUSH0 DUP3 ADD MSTORE PUSH32 0x7554576A617965626F625450737945727762673934717A4C415871644D477922 PUSH1 0x20 DUP3 ADD MSTORE PUSH32 0x2C00000000000000000000000000000000000000000000000000000000000000 PUSH1 0x40 DUP3 ADD MSTORE POP JUMP JUMPDEST PUSH0 PUSH2 0x436D PUSH1 0x41 DUP4 PUSH2 0x3A23 JUMP JUMPDEST SWAP2 POP PUSH2 0x4378 DUP3 PUSH2 0x42ED JUMP JUMPDEST PUSH1 0x41 DUP3 ADD SWAP1 POP SWAP2 SWAP1 POP JUMP JUMPDEST PUSH32 0x2261747472696275746573223A205B0000000000000000000000000000000000 PUSH0 DUP3 ADD MSTORE POP JUMP JUMPDEST PUSH0 PUSH2 0x43B7 PUSH1 0xF DUP4 PUSH2 0x3A23 JUMP JUMPDEST SWAP2 POP PUSH2 0x43C2 DUP3 PUSH2 0x4383 JUMP JUMPDEST PUSH1 0xF DUP3 ADD SWAP1 POP SWAP2 SWAP1 POP JUMP JUMPDEST PUSH32 0x7B2274726169745F74797065223A20224C6F636174696F6E222C2276616C7565 PUSH0 DUP3 ADD MSTORE PUSH32 0x223A202200000000000000000000000000000000000000000000000000000000 PUSH1 0x20 DUP3 ADD MSTORE POP JUMP JUMPDEST PUSH0 PUSH2 0x4427 PUSH1 0x24 DUP4 PUSH2 0x3A23 JUMP JUMPDEST SWAP2 POP PUSH2 0x4432 DUP3 PUSH2 0x43CD JUMP JUMPDEST PUSH1 0x24 DUP3 ADD SWAP1 POP SWAP2 SWAP1 POP JUMP JUMPDEST PUSH0 DUP2 SLOAD PUSH2 0x4449 DUP2 PUSH2 0x36C1 JUMP JUMPDEST PUSH2 0x4453 DUP2 DUP7 PUSH2 0x3A23 JUMP JUMPDEST SWAP5 POP PUSH1 0x1 DUP3 AND PUSH0 DUP2 EQ PUSH2 0x446D JUMPI PUSH1 0x1 DUP2 EQ PUSH2 0x4482 JUMPI PUSH2 0x44B4 JUMP JUMPDEST PUSH1 0xFF NOT DUP4 AND DUP7 MSTORE DUP2 ISZERO ISZERO DUP3 MUL DUP7 ADD SWAP4 POP PUSH2 0x44B4 JUMP JUMPDEST PUSH2 0x448B DUP6 PUSH2 0x3B9E JUMP JUMPDEST PUSH0 JUMPDEST DUP4 DUP2 LT ISZERO PUSH2 0x44AC JUMPI DUP2 SLOAD DUP2 DUP10 ADD MSTORE PUSH1 0x1 DUP3 ADD SWAP2 POP PUSH1 0x20 DUP2 ADD SWAP1 POP PUSH2 0x448D JUMP JUMPDEST DUP4 DUP9 ADD SWAP6 POP POP POP JUMPDEST POP POP POP SWAP3 SWAP2 POP POP JUMP JUMPDEST PUSH32 0x227D2C0000000000000000000000000000000000000000000000000000000000 PUSH0 DUP3 ADD MSTORE POP JUMP JUMPDEST PUSH0 PUSH2 0x44F1 PUSH1 0x3 DUP4 PUSH2 0x3A23 JUMP JUMPDEST SWAP2 POP PUSH2 0x44FC DUP3 PUSH2 0x44BD JUMP JUMPDEST PUSH1 0x3 DUP3 ADD SWAP1 POP SWAP2 SWAP1 POP JUMP JUMPDEST PUSH32 0x7B2274726169745F74797065223A20224C6F742053697A65222C2276616C7565 PUSH0 DUP3 ADD MSTORE PUSH32 0x223A200000000000000000000000000000000000000000000000000000000000 PUSH1 0x20 DUP3 ADD MSTORE POP JUMP JUMPDEST PUSH0 PUSH2 0x4561 PUSH1 0x23 DUP4 PUSH2 0x3A23 JUMP JUMPDEST SWAP2 POP PUSH2 0x456C DUP3 PUSH2 0x4507 JUMP JUMPDEST PUSH1 0x23 DUP3 ADD SWAP1 POP SWAP2 SWAP1 POP JUMP JUMPDEST PUSH32 0x7D2C000000000000000000000000000000000000000000000000000000000000 PUSH0 DUP3 ADD MSTORE POP JUMP JUMPDEST PUSH0 PUSH2 0x45AB PUSH1 0x2 DUP4 PUSH2 0x3A23 JUMP JUMPDEST SWAP2 POP PUSH2 0x45B6 DUP3 PUSH2 0x4577 JUMP JUMPDEST PUSH1 0x2 DUP3 ADD SWAP1 POP SWAP2 SWAP1 POP JUMP JUMPDEST PUSH32 0x7B2274726169745F74797065223A2022546F74616C205072696365222C227661 PUSH0 DUP3 ADD MSTORE PUSH32 0x6C7565223A200000000000000000000000000000000000000000000000000000 PUSH1 0x20 DUP3 ADD MSTORE POP JUMP JUMPDEST PUSH0 PUSH2 0x461B PUSH1 0x26 DUP4 PUSH2 0x3A23 JUMP JUMPDEST SWAP2 POP PUSH2 0x4626 DUP3 PUSH2 0x45C1 JUMP JUMPDEST PUSH1 0x26 DUP3 ADD SWAP1 POP SWAP2 SWAP1 POP JUMP JUMPDEST PUSH32 0x7B2274726169745F74797065223A20225461782041737365737365642056616C PUSH0 DUP3 ADD MSTORE PUSH32 0x7565222C2276616C7565223A2000000000000000000000000000000000000000 PUSH1 0x20 DUP3 ADD MSTORE POP JUMP JUMPDEST PUSH0 PUSH2 0x468B PUSH1 0x2D DUP4 PUSH2 0x3A23 JUMP JUMPDEST SWAP2 POP PUSH2 0x4696 DUP3 PUSH2 0x4631 JUMP JUMPDEST PUSH1 0x2D DUP3 ADD SWAP1 POP SWAP2 SWAP1 POP JUMP JUMPDEST PUSH32 0x7D00000000000000000000000000000000000000000000000000000000000000 PUSH0 DUP3 ADD MSTORE POP JUMP JUMPDEST PUSH0 PUSH2 0x46D5 PUSH1 0x1 DUP4 PUSH2 0x3A23 JUMP JUMPDEST SWAP2 POP PUSH2 0x46E0 DUP3 PUSH2 0x46A1 JUMP JUMPDEST PUSH1 0x1 DUP3 ADD SWAP1 POP SWAP2 SWAP1 POP JUMP JUMPDEST PUSH32 0x5D7D000000000000000000000000000000000000000000000000000000000000 PUSH0 DUP3 ADD MSTORE POP JUMP JUMPDEST PUSH0 PUSH2 0x471F PUSH1 0x2 DUP4 PUSH2 0x3A23 JUMP JUMPDEST SWAP2 POP PUSH2 0x472A DUP3 PUSH2 0x46EB JUMP JUMPDEST PUSH1 0x2 DUP3 ADD SWAP1 POP SWAP2 SWAP1 POP JUMP JUMPDEST PUSH0 PUSH2 0x473F DUP3 PUSH2 0x425B JUMP JUMPDEST SWAP2 POP PUSH2 0x474A DUP3 PUSH2 0x42CB JUMP JUMPDEST SWAP2 POP PUSH2 0x4755 DUP3 PUSH2 0x4361 JUMP JUMPDEST SWAP2 POP PUSH2 0x4760 DUP3 PUSH2 0x43AB JUMP JUMPDEST SWAP2 POP PUSH2 0x476B DUP3 PUSH2 0x441B JUMP JUMPDEST SWAP2 POP PUSH2 0x4777 DUP3 DUP8 PUSH2 0x443D JUMP JUMPDEST SWAP2 POP PUSH2 0x4782 DUP3 PUSH2 0x44E5 JUMP JUMPDEST SWAP2 POP PUSH2 0x478D DUP3 PUSH2 0x4555 JUMP JUMPDEST SWAP2 POP PUSH2 0x4799 DUP3 DUP7 PUSH2 0x3A2D JUMP JUMPDEST SWAP2 POP PUSH2 0x47A4 DUP3 PUSH2 0x459F JUMP JUMPDEST SWAP2 POP PUSH2 0x47AF DUP3 PUSH2 0x460F JUMP JUMPDEST SWAP2 POP PUSH2 0x47BB DUP3 DUP6 PUSH2 0x3A2D JUMP JUMPDEST SWAP2 POP PUSH2 0x47C6 DUP3 PUSH2 0x459F JUMP JUMPDEST SWAP2 POP PUSH2 0x47D1 DUP3 PUSH2 0x467F JUMP JUMPDEST SWAP2 POP PUSH2 0x47DD DUP3 DUP5 PUSH2 0x3A2D JUMP JUMPDEST SWAP2 POP PUSH2 0x47E8 DUP3 PUSH2 0x46C9 JUMP JUMPDEST SWAP2 POP PUSH2 0x47F3 DUP3 PUSH2 0x4713 JUMP JUMPDEST SWAP2 POP DUP2 SWAP1 POP SWAP6 SWAP5 POP POP POP POP POP JUMP JUMPDEST PUSH32 0x646174613A6170706C69636174696F6E2F6A736F6E3B6261736536342C000000 PUSH0 DUP3 ADD MSTORE POP JUMP JUMPDEST PUSH0 PUSH2 0x4835 PUSH1 0x1D DUP4 PUSH2 0x3A23 JUMP JUMPDEST SWAP2 POP PUSH2 0x4840 DUP3 PUSH2 0x4801 JUMP JUMPDEST PUSH1 0x1D DUP3 ADD SWAP1 POP SWAP2 SWAP1 POP JUMP JUMPDEST PUSH0 PUSH2 0x4855 DUP3 PUSH2 0x4829 JUMP JUMPDEST SWAP2 POP PUSH2 0x4861 DUP3 DUP5 PUSH2 0x3A2D JUMP JUMPDEST SWAP2 POP DUP2 SWAP1 POP SWAP3 SWAP2 POP POP JUMP JUMPDEST PUSH0 PUSH1 0x80 DUP3 ADD SWAP1 POP PUSH2 0x487F PUSH0 DUP4 ADD DUP8 PUSH2 0x310B JUMP JUMPDEST PUSH2 0x488C PUSH1 0x20 DUP4 ADD DUP7 PUSH2 0x310B JUMP JUMPDEST PUSH2 0x4899 PUSH1 0x40 DUP4 ADD DUP6 PUSH2 0x3382 JUMP JUMPDEST DUP2 DUP2 SUB PUSH1 0x60 DUP4 ADD MSTORE PUSH2 0x48AB DUP2 DUP5 PUSH2 0x412A JUMP JUMPDEST SWAP1 POP SWAP6 SWAP5 POP POP POP POP POP JUMP JUMPDEST PUSH0 DUP2 MLOAD SWAP1 POP PUSH2 0x48C4 DUP2 PUSH2 0x2F4B JUMP JUMPDEST SWAP3 SWAP2 POP POP JUMP JUMPDEST PUSH0 PUSH1 0x20 DUP3 DUP5 SUB SLT ISZERO PUSH2 0x48DF JUMPI PUSH2 0x48DE PUSH2 0x2F18 JUMP JUMPDEST JUMPDEST PUSH0 PUSH2 0x48EC DUP5 DUP3 DUP6 ADD PUSH2 0x48B6 JUMP JUMPDEST SWAP2 POP POP SWAP3 SWAP2 POP POP JUMP JUMPDEST PUSH0 PUSH1 0x40 DUP3 ADD SWAP1 POP PUSH2 0x4908 PUSH0 DUP4 ADD DUP6 PUSH2 0x310B JUMP JUMPDEST PUSH2 0x4915 PUSH1 0x20 DUP4 ADD DUP5 PUSH2 0x3382 JUMP JUMPDEST SWAP4 SWAP3 POP POP POP JUMP JUMPDEST PUSH0 PUSH2 0x4926 DUP3 PUSH2 0x307D JUMP JUMPDEST SWAP2 POP PUSH2 0x4931 DUP4 PUSH2 0x307D JUMP JUMPDEST SWAP3 POP DUP3 DUP3 ADD SWAP1 POP DUP1 DUP3 GT ISZERO PUSH2 0x4949 JUMPI PUSH2 0x4948 PUSH2 0x378E JUMP JUMPDEST JUMPDEST SWAP3 SWAP2 POP POP JUMP JUMPDEST PUSH0 PUSH2 0x4959 DUP3 PUSH2 0x307D JUMP JUMPDEST SWAP2 POP PUSH2 0x4964 DUP4 PUSH2 0x307D JUMP JUMPDEST SWAP3 POP DUP3 DUP3 SUB SWAP1 POP DUP2 DUP2 GT ISZERO PUSH2 0x497C JUMPI PUSH2 0x497B PUSH2 0x378E JUMP JUMPDEST JUMPDEST SWAP3 SWAP2 POP POP JUMP JUMPDEST PUSH0 PUSH2 0x498C DUP3 PUSH2 0x307D JUMP JUMPDEST SWAP2 POP PUSH2 0x4997 DUP4 PUSH2 0x307D JUMP JUMPDEST SWAP3 POP DUP3 PUSH2 0x49A7 JUMPI PUSH2 0x49A6 PUSH2 0x37FC JUMP JUMPDEST JUMPDEST DUP3 DUP3 MOD SWAP1 POP SWAP3 SWAP2 POP POP JUMP JUMPDEST PUSH0 DUP2 PUSH1 0x1 SHR SWAP1 POP SWAP2 SWAP1 POP JUMP JUMPDEST PUSH0 DUP1 DUP3 SWAP2 POP DUP4 SWAP1 POP JUMPDEST PUSH1 0x1 DUP6 GT ISZERO PUSH2 0x4A07 JUMPI DUP1 DUP7 DIV DUP2 GT ISZERO PUSH2 0x49E3 JUMPI PUSH2 0x49E2 PUSH2 0x378E JUMP JUMPDEST JUMPDEST PUSH1 0x1 DUP6 AND ISZERO PUSH2 0x49F2 JUMPI DUP1 DUP3 MUL SWAP2 POP JUMPDEST DUP1 DUP2 MUL SWAP1 POP PUSH2 0x4A00 DUP6 PUSH2 0x49B2 JUMP JUMPDEST SWAP5 POP PUSH2 0x49C7 JUMP JUMPDEST SWAP5 POP SWAP5 SWAP3 POP POP POP JUMP JUMPDEST PUSH0 DUP3 PUSH2 0x4A1F JUMPI PUSH1 0x1 SWAP1 POP PUSH2 0x4ADA JUMP JUMPDEST DUP2 PUSH2 0x4A2C JUMPI PUSH0 SWAP1 POP PUSH2 0x4ADA JUMP JUMPDEST DUP2 PUSH1 0x1 DUP2 EQ PUSH2 0x4A42 JUMPI PUSH1 0x2 DUP2 EQ PUSH2 0x4A4C JUMPI PUSH2 0x4A7B JUMP JUMPDEST PUSH1 0x1 SWAP2 POP POP PUSH2 0x4ADA JUMP JUMPDEST PUSH1 0xFF DUP5 GT ISZERO PUSH2 0x4A5E JUMPI PUSH2 0x4A5D PUSH2 0x378E JUMP JUMPDEST JUMPDEST DUP4 PUSH1 0x2 EXP SWAP2 POP DUP5 DUP3 GT ISZERO PUSH2 0x4A75 JUMPI PUSH2 0x4A74 PUSH2 0x378E JUMP JUMPDEST JUMPDEST POP PUSH2 0x4ADA JUMP JUMPDEST POP PUSH1 0x20 DUP4 LT PUSH2 0x133 DUP4 LT AND PUSH1 0x4E DUP5 LT PUSH1 0xB DUP5 LT AND OR ISZERO PUSH2 0x4AB0 JUMPI DUP3 DUP3 EXP SWAP1 POP DUP4 DUP2 GT ISZERO PUSH2 0x4AAB JUMPI PUSH2 0x4AAA PUSH2 0x378E JUMP JUMPDEST JUMPDEST PUSH2 0x4ADA JUMP JUMPDEST PUSH2 0x4ABD DUP5 DUP5 DUP5 PUSH1 0x1 PUSH2 0x49BE JUMP JUMPDEST SWAP3 POP SWAP1 POP DUP2 DUP5 DIV DUP2 GT ISZERO PUSH2 0x4AD4 JUMPI PUSH2 0x4AD3 PUSH2 0x378E JUMP JUMPDEST JUMPDEST DUP2 DUP2 MUL SWAP1 POP JUMPDEST SWAP4 SWAP3 POP POP POP JUMP JUMPDEST PUSH0 PUSH2 0x4AEB DUP3 PUSH2 0x307D JUMP JUMPDEST SWAP2 POP PUSH2 0x4AF6 DUP4 PUSH2 0x307D JUMP JUMPDEST SWAP3 POP PUSH2 0x4B23 PUSH32 0xFFFFFFFFFFFFFFFFFFFFFFFFFFFFFFFFFFFFFFFFFFFFFFFFFFFFFFFFFFFFFFFF DUP5 DUP5 PUSH2 0x4A10 JUMP JUMPDEST SWAP1 POP SWAP3 SWAP2 POP POP JUMP INVALID COINBASE TIMESTAMP NUMBER PREVRANDAO GASLIMIT CHAINID SELFBALANCE BASEFEE 0x49 0x4A 0x4B 0x4C 0x4D 0x4E 0x4F POP MLOAD MSTORE MSTORE8 SLOAD SSTORE JUMP JUMPI PC MSIZE GAS PUSH2 0x6263 PUSH5 0x6566676869 PUSH11 0x6B6C6D6E6F707172737475 PUSH23 0x7778797A303132333435363738392B2FA2646970667358 0x22 SLT KECCAK256 CALLCODE DUP14 INVALID 0xBC PUSH9 0xC96CD294A5ADFB77CC MLOAD SHR SSTORE 0xA5 PUSH15 0xCFBA39E4F3D98D6896959A97356473 PUSH16 0x6C63430008140033636F6E7374207B20 PUSH6 0x746865727320 PUSH30 0x203D20617761697420696D706F727428276E706D3A65746865727340362E BALANCE ADDRESS 0x2E ADDRESS 0x27 0x29 EXTCODESIZE PUSH4 0x6F6E7374 KECCAK256 PUSH2 0x6269 NUMBER PUSH16 0x646572203D206574686572732E416269 NUMBER PUSH16 0x6465722E64656661756C74416269436F PUSH5 0x657228293B PUSH4 0x6F6E7374 KECCAK256 PUSH2 0x7069 MSTORE PUSH6 0x73706F6E7365 KECCAK256 RETURNDATASIZE KECCAK256 PUSH2 0x7761 PUSH10 0x742046756E6374696F6E PUSH20 0x2E6D616B654874747052657175657374287B2020 KECCAK256 KECCAK256 PUSH22 0x726C3A202768747470733A2F2F67656E69656261636B PUSH3 0x6F6E65 0x2E PUSH2 0x7A75 PUSH19 0x6577656273697465732E6E65742F6170692F70 PUSH19 0x6F706572746965732F64656D6F277D293B636F PUSH15 0x7374207B2064617461207D203D2061 PUSH17 0x69526573706F6E73652E646174613B636F PUSH15 0x7374206C6F636174696F6E203D2064 PUSH2 0x7461 0x2E PUSH13 0x6F636174696F6E3B636F6E7374 KECCAK256 PUSH13 0x6F7453697A65203D204E756D62 PUSH6 0x722864617461 0x2E PUSH13 0x6F7453697A65293B636F6E7374 KECCAK256 PUSH21 0x6F74616C5072696365203D204E756D626572286461 PUSH21 0x612E746F74616C5072696365293B636F6E73742074 PUSH2 0x7841 PUSH20 0x73657373656456616C7565203D204E756D626572 0x28 PUSH5 0x6174612E74 PUSH2 0x7841 PUSH20 0x73657373656456616C7565293B636F6E73742065 PUSH15 0x636F646564203D20616269436F6465 PUSH19 0x2E656E636F6465285B60737472696E67602C20 PUSH1 0x75 PUSH10 0x6E74323536602C206075 PUSH10 0x6E74323536602C206075 PUSH10 0x6E74323536605D2C205B PUSH13 0x6F636174696F6E2C206C6F7453 PUSH10 0x7A652C20746F74616C50 PUSH19 0x6963652C20746178417373657373656456616C PUSH22 0x655D293B72657475726E206574686572732E67657442 PUSH26 0x74657328656E636F646564293B00000000000000000000000000 "
		},
		"gasEstimates": {
			"creation": {
				"codeDepositCost": "3872200",
				"executionCost": "infinite",
				"totalCost": "infinite"
			},
			"external": {
				"approve(address,uint256)": "infinite",
				"balanceOf(address)": "infinite",
				"getApproved(uint256)": "infinite",
				"getLatestPrice()": "infinite",
				"handleOracleFulfillment(bytes32,bytes,bytes)": "infinite",
				"isApprovedForAll(address,address)": "infinite",
				"issueTokens(uint256,uint256)": "infinite",
				"issuedTokens()": "2492",
				"name()": "infinite",
				"owner()": "2582",
				"ownerOf(uint256)": "infinite",
				"property()": "infinite",
				"propertyTokenized()": "2578",
				"renounceOwnership()": "infinite",
				"safeTransferFrom(address,address,uint256)": "infinite",
				"safeTransferFrom(address,address,uint256,bytes)": "infinite",
				"sendRequest(uint64)": "infinite",
				"setApprovalForAll(address,bool)": "infinite",
				"supportsInterface(bytes4)": "904",
				"symbol()": "infinite",
				"tokenPriceUSD()": "2515",
				"tokenPriceUSDC()": "2513",
				"tokenURI(uint256)": "infinite",
				"totalTokens()": "2470",
				"transferFrom(address,address,uint256)": "infinite",
				"transferOwnership(address)": "infinite",
				"updateTokenPrice(uint256)": "infinite",
				"usdcValue()": "2536"
			},
			"internal": {
				"createTokenUri()": "infinite",
				"fulfillRequest(bytes32,bytes memory,bytes memory)": "infinite"
			}
		},
		"methodIdentifiers": {
			"approve(address,uint256)": "095ea7b3",
			"balanceOf(address)": "70a08231",
			"getApproved(uint256)": "081812fc",
			"getLatestPrice()": "8e15f473",
			"handleOracleFulfillment(bytes32,bytes,bytes)": "0ca76175",
			"isApprovedForAll(address,address)": "e985e9c5",
			"issueTokens(uint256,uint256)": "54e35ba2",
			"issuedTokens()": "b534b5b7",
			"name()": "06fdde03",
			"owner()": "8da5cb5b",
			"ownerOf(uint256)": "6352211e",
			"property()": "176fd3f0",
			"propertyTokenized()": "192ddae5",
			"renounceOwnership()": "715018a6",
			"safeTransferFrom(address,address,uint256)": "42842e0e",
			"safeTransferFrom(address,address,uint256,bytes)": "b88d4fde",
			"sendRequest(uint64)": "2f9d6254",
			"setApprovalForAll(address,bool)": "a22cb465",
			"supportsInterface(bytes4)": "01ffc9a7",
			"symbol()": "95d89b41",
			"tokenPriceUSD()": "407fcc31",
			"tokenPriceUSDC()": "f2413365",
			"tokenURI(uint256)": "c87b56dd",
			"totalTokens()": "7e1c0c09",
			"transferFrom(address,address,uint256)": "23b872dd",
			"transferOwnership(address)": "f2fde38b",
			"updateTokenPrice(uint256)": "676c0d77",
			"usdcValue()": "64492e7d"
		}
	},
	"abi": [
		{
			"inputs": [],
			"stateMutability": "nonpayable",
			"type": "constructor"
		},
		{
			"inputs": [
				{
					"internalType": "address",
					"name": "sender",
					"type": "address"
				},
				{
					"internalType": "uint256",
					"name": "tokenId",
					"type": "uint256"
				},
				{
					"internalType": "address",
					"name": "owner",
					"type": "address"
				}
			],
			"name": "ERC721IncorrectOwner",
			"type": "error"
		},
		{
			"inputs": [
				{
					"internalType": "address",
					"name": "operator",
					"type": "address"
				},
				{
					"internalType": "uint256",
					"name": "tokenId",
					"type": "uint256"
				}
			],
			"name": "ERC721InsufficientApproval",
			"type": "error"
		},
		{
			"inputs": [
				{
					"internalType": "address",
					"name": "approver",
					"type": "address"
				}
			],
			"name": "ERC721InvalidApprover",
			"type": "error"
		},
		{
			"inputs": [
				{
					"internalType": "address",
					"name": "operator",
					"type": "address"
				}
			],
			"name": "ERC721InvalidOperator",
			"type": "error"
		},
		{
			"inputs": [
				{
					"internalType": "address",
					"name": "owner",
					"type": "address"
				}
			],
			"name": "ERC721InvalidOwner",
			"type": "error"
		},
		{
			"inputs": [
				{
					"internalType": "address",
					"name": "receiver",
					"type": "address"
				}
			],
			"name": "ERC721InvalidReceiver",
			"type": "error"
		},
		{
			"inputs": [
				{
					"internalType": "address",
					"name": "sender",
					"type": "address"
				}
			],
			"name": "ERC721InvalidSender",
			"type": "error"
		},
		{
			"inputs": [
				{
					"internalType": "uint256",
					"name": "tokenId",
					"type": "uint256"
				}
			],
			"name": "ERC721NonexistentToken",
			"type": "error"
		},
		{
			"inputs": [],
			"name": "EmptySource",
			"type": "error"
		},
		{
			"inputs": [],
			"name": "NoInlineSecrets",
			"type": "error"
		},
		{
			"inputs": [],
			"name": "OnlyRouterCanFulfill",
			"type": "error"
		},
		{
			"inputs": [
				{
					"internalType": "address",
					"name": "owner",
					"type": "address"
				}
			],
			"name": "OwnableInvalidOwner",
			"type": "error"
		},
		{
			"inputs": [
				{
					"internalType": "address",
					"name": "account",
					"type": "address"
				}
			],
			"name": "OwnableUnauthorizedAccount",
			"type": "error"
		},
		{
			"inputs": [
				{
					"internalType": "bytes32",
					"name": "requestId",
					"type": "bytes32"
				}
			],
			"name": "UnexpectedRequestID",
			"type": "error"
		},
		{
			"anonymous": false,
			"inputs": [
				{
					"indexed": true,
					"internalType": "address",
					"name": "owner",
					"type": "address"
				},
				{
					"indexed": true,
					"internalType": "address",
					"name": "approved",
					"type": "address"
				},
				{
					"indexed": true,
					"internalType": "uint256",
					"name": "tokenId",
					"type": "uint256"
				}
			],
			"name": "Approval",
			"type": "event"
		},
		{
			"anonymous": false,
			"inputs": [
				{
					"indexed": true,
					"internalType": "address",
					"name": "owner",
					"type": "address"
				},
				{
					"indexed": true,
					"internalType": "address",
					"name": "operator",
					"type": "address"
				},
				{
					"indexed": false,
					"internalType": "bool",
					"name": "approved",
					"type": "bool"
				}
			],
			"name": "ApprovalForAll",
			"type": "event"
		},
		{
			"anonymous": false,
			"inputs": [
				{
					"indexed": false,
					"internalType": "uint256",
					"name": "_fromTokenId",
					"type": "uint256"
				},
				{
					"indexed": false,
					"internalType": "uint256",
					"name": "_toTokenId",
					"type": "uint256"
				}
			],
			"name": "BatchMetadataUpdate",
			"type": "event"
		},
		{
			"anonymous": false,
			"inputs": [
				{
					"indexed": false,
					"internalType": "uint256",
					"name": "_tokenId",
					"type": "uint256"
				}
			],
			"name": "MetadataUpdate",
			"type": "event"
		},
		{
			"anonymous": false,
			"inputs": [
				{
					"indexed": true,
					"internalType": "address",
					"name": "previousOwner",
					"type": "address"
				},
				{
					"indexed": true,
					"internalType": "address",
					"name": "newOwner",
					"type": "address"
				}
			],
			"name": "OwnershipTransferred",
			"type": "event"
		},
		{
			"anonymous": false,
			"inputs": [
				{
					"indexed": true,
					"internalType": "bytes32",
					"name": "id",
					"type": "bytes32"
				}
			],
			"name": "RequestFulfilled",
			"type": "event"
		},
		{
			"anonymous": false,
			"inputs": [
				{
					"indexed": true,
					"internalType": "bytes32",
					"name": "id",
					"type": "bytes32"
				}
			],
			"name": "RequestSent",
			"type": "event"
		},
		{
			"anonymous": false,
			"inputs": [
				{
					"indexed": true,
					"internalType": "bytes32",
					"name": "requestId",
					"type": "bytes32"
				},
				{
					"indexed": false,
					"internalType": "string",
					"name": "location",
					"type": "string"
				},
				{
					"indexed": false,
					"internalType": "uint256",
					"name": "areaSquareFeet",
					"type": "uint256"
				},
				{
					"indexed": false,
					"internalType": "uint256",
					"name": "price",
					"type": "uint256"
				},
				{
					"indexed": false,
					"internalType": "uint256",
					"name": "taxAssessedValue",
					"type": "uint256"
				},
				{
					"indexed": false,
					"internalType": "bytes",
					"name": "response",
					"type": "bytes"
				},
				{
					"indexed": false,
					"internalType": "bytes",
					"name": "err",
					"type": "bytes"
				}
			],
			"name": "Response",
			"type": "event"
		},
		{
			"anonymous": false,
			"inputs": [
				{
					"indexed": false,
					"internalType": "uint256",
					"name": "totalTokens",
					"type": "uint256"
				},
				{
					"indexed": false,
					"internalType": "uint256",
					"name": "tokenPrice",
					"type": "uint256"
				}
			],
			"name": "TokensIssued",
			"type": "event"
		},
		{
			"anonymous": false,
			"inputs": [
				{
					"indexed": true,
					"internalType": "address",
					"name": "from",
					"type": "address"
				},
				{
					"indexed": true,
					"internalType": "address",
					"name": "to",
					"type": "address"
				},
				{
					"indexed": true,
					"internalType": "uint256",
					"name": "tokenId",
					"type": "uint256"
				}
			],
			"name": "Transfer",
			"type": "event"
		},
		{
			"inputs": [
				{
					"internalType": "address",
					"name": "to",
					"type": "address"
				},
				{
					"internalType": "uint256",
					"name": "tokenId",
					"type": "uint256"
				}
			],
			"name": "approve",
			"outputs": [],
			"stateMutability": "nonpayable",
			"type": "function"
		},
		{
			"inputs": [
				{
					"internalType": "address",
					"name": "owner",
					"type": "address"
				}
			],
			"name": "balanceOf",
			"outputs": [
				{
					"internalType": "uint256",
					"name": "",
					"type": "uint256"
				}
			],
			"stateMutability": "view",
			"type": "function"
		},
		{
			"inputs": [
				{
					"internalType": "uint256",
					"name": "tokenId",
					"type": "uint256"
				}
			],
			"name": "getApproved",
			"outputs": [
				{
					"internalType": "address",
					"name": "",
					"type": "address"
				}
			],
			"stateMutability": "view",
			"type": "function"
		},
		{
			"inputs": [],
			"name": "getLatestPrice",
			"outputs": [],
			"stateMutability": "nonpayable",
			"type": "function"
		},
		{
			"inputs": [
				{
					"internalType": "bytes32",
					"name": "requestId",
					"type": "bytes32"
				},
				{
					"internalType": "bytes",
					"name": "response",
					"type": "bytes"
				},
				{
					"internalType": "bytes",
					"name": "err",
					"type": "bytes"
				}
			],
			"name": "handleOracleFulfillment",
			"outputs": [],
			"stateMutability": "nonpayable",
			"type": "function"
		},
		{
			"inputs": [
				{
					"internalType": "address",
					"name": "owner",
					"type": "address"
				},
				{
					"internalType": "address",
					"name": "operator",
					"type": "address"
				}
			],
			"name": "isApprovedForAll",
			"outputs": [
				{
					"internalType": "bool",
					"name": "",
					"type": "bool"
				}
			],
			"stateMutability": "view",
			"type": "function"
		},
		{
			"inputs": [
				{
					"internalType": "uint256",
					"name": "_totalTokens",
					"type": "uint256"
				},
				{
					"internalType": "uint256",
					"name": "_tokenPriceUSD",
					"type": "uint256"
				}
			],
			"name": "issueTokens",
			"outputs": [],
			"stateMutability": "nonpayable",
			"type": "function"
		},
		{
			"inputs": [],
			"name": "issuedTokens",
			"outputs": [
				{
					"internalType": "uint256",
					"name": "",
					"type": "uint256"
				}
			],
			"stateMutability": "view",
			"type": "function"
		},
		{
			"inputs": [],
			"name": "name",
			"outputs": [
				{
					"internalType": "string",
					"name": "",
					"type": "string"
				}
			],
			"stateMutability": "view",
			"type": "function"
		},
		{
			"inputs": [],
			"name": "owner",
			"outputs": [
				{
					"internalType": "address",
					"name": "",
					"type": "address"
				}
			],
			"stateMutability": "view",
			"type": "function"
		},
		{
			"inputs": [
				{
					"internalType": "uint256",
					"name": "tokenId",
					"type": "uint256"
				}
			],
			"name": "ownerOf",
			"outputs": [
				{
					"internalType": "address",
					"name": "",
					"type": "address"
				}
			],
			"stateMutability": "view",
			"type": "function"
		},
		{
			"inputs": [],
			"name": "property",
			"outputs": [
				{
					"internalType": "string",
					"name": "location",
					"type": "string"
				},
				{
					"internalType": "uint256",
					"name": "lotSize",
					"type": "uint256"
				},
				{
					"internalType": "uint256",
					"name": "totalPrice",
					"type": "uint256"
				},
				{
					"internalType": "uint256",
					"name": "taxAssessedValue",
					"type": "uint256"
				}
			],
			"stateMutability": "view",
			"type": "function"
		},
		{
			"inputs": [],
			"name": "propertyTokenized",
			"outputs": [
				{
					"internalType": "bool",
					"name": "",
					"type": "bool"
				}
			],
			"stateMutability": "view",
			"type": "function"
		},
		{
			"inputs": [],
			"name": "renounceOwnership",
			"outputs": [],
			"stateMutability": "nonpayable",
			"type": "function"
		},
		{
			"inputs": [
				{
					"internalType": "address",
					"name": "from",
					"type": "address"
				},
				{
					"internalType": "address",
					"name": "to",
					"type": "address"
				},
				{
					"internalType": "uint256",
					"name": "tokenId",
					"type": "uint256"
				}
			],
			"name": "safeTransferFrom",
			"outputs": [],
			"stateMutability": "nonpayable",
			"type": "function"
		},
		{
			"inputs": [
				{
					"internalType": "address",
					"name": "from",
					"type": "address"
				},
				{
					"internalType": "address",
					"name": "to",
					"type": "address"
				},
				{
					"internalType": "uint256",
					"name": "tokenId",
					"type": "uint256"
				},
				{
					"internalType": "bytes",
					"name": "data",
					"type": "bytes"
				}
			],
			"name": "safeTransferFrom",
			"outputs": [],
			"stateMutability": "nonpayable",
			"type": "function"
		},
		{
			"inputs": [
				{
					"internalType": "uint64",
					"name": "subscriptionId",
					"type": "uint64"
				}
			],
			"name": "sendRequest",
			"outputs": [
				{
					"internalType": "bytes32",
					"name": "requestId",
					"type": "bytes32"
				}
			],
			"stateMutability": "nonpayable",
			"type": "function"
		},
		{
			"inputs": [
				{
					"internalType": "address",
					"name": "operator",
					"type": "address"
				},
				{
					"internalType": "bool",
					"name": "approved",
					"type": "bool"
				}
			],
			"name": "setApprovalForAll",
			"outputs": [],
			"stateMutability": "nonpayable",
			"type": "function"
		},
		{
			"inputs": [
				{
					"internalType": "bytes4",
					"name": "interfaceId",
					"type": "bytes4"
				}
			],
			"name": "supportsInterface",
			"outputs": [
				{
					"internalType": "bool",
					"name": "",
					"type": "bool"
				}
			],
			"stateMutability": "view",
			"type": "function"
		},
		{
			"inputs": [],
			"name": "symbol",
			"outputs": [
				{
					"internalType": "string",
					"name": "",
					"type": "string"
				}
			],
			"stateMutability": "view",
			"type": "function"
		},
		{
			"inputs": [],
			"name": "tokenPriceUSD",
			"outputs": [
				{
					"internalType": "uint256",
					"name": "",
					"type": "uint256"
				}
			],
			"stateMutability": "view",
			"type": "function"
		},
		{
			"inputs": [],
			"name": "tokenPriceUSDC",
			"outputs": [
				{
					"internalType": "uint256",
					"name": "",
					"type": "uint256"
				}
			],
			"stateMutability": "view",
			"type": "function"
		},
		{
			"inputs": [
				{
					"internalType": "uint256",
					"name": "tokenId",
					"type": "uint256"
				}
			],
			"name": "tokenURI",
			"outputs": [
				{
					"internalType": "string",
					"name": "",
					"type": "string"
				}
			],
			"stateMutability": "view",
			"type": "function"
		},
		{
			"inputs": [],
			"name": "totalTokens",
			"outputs": [
				{
					"internalType": "uint256",
					"name": "",
					"type": "uint256"
				}
			],
			"stateMutability": "view",
			"type": "function"
		},
		{
			"inputs": [
				{
					"internalType": "address",
					"name": "from",
					"type": "address"
				},
				{
					"internalType": "address",
					"name": "to",
					"type": "address"
				},
				{
					"internalType": "uint256",
					"name": "tokenId",
					"type": "uint256"
				}
			],
			"name": "transferFrom",
			"outputs": [],
			"stateMutability": "nonpayable",
			"type": "function"
		},
		{
			"inputs": [
				{
					"internalType": "address",
					"name": "newOwner",
					"type": "address"
				}
			],
			"name": "transferOwnership",
			"outputs": [],
			"stateMutability": "nonpayable",
			"type": "function"
		},
		{
			"inputs": [
				{
					"internalType": "uint256",
					"name": "_tokenPriceUSD",
					"type": "uint256"
				}
			],
			"name": "updateTokenPrice",
			"outputs": [],
			"stateMutability": "nonpayable",
			"type": "function"
		},
		{
			"inputs": [],
			"name": "usdcValue",
			"outputs": [
				{
					"internalType": "int256",
					"name": "",
					"type": "int256"
				}
			],
			"stateMutability": "view",
			"type": "function"
		}
	]
}