{
	"data": {
		"bytecode": {
			"linkReferences": {},
			"object": "60a060405273b83e47c2bc239b3bf370bc41e1459a34b41238d060055f6101000a81548173ffffffffffffffffffffffffffffffffffffffff021916908373ffffffffffffffffffffffffffffffffffffffff16021790555060405180610280016040528061024e815260200162002e0d61024e913960069081620000859190620005c6565b50620493e060075f6101000a81548163ffffffff021916908363ffffffff1602179055507f66756e2d657468657265756d2d7365706f6c69612d31000000000000000000005f1b600855348015620000db575f80fd5b5033805f60055f9054906101000a900473ffffffffffffffffffffffffffffffffffffffff168073ffffffffffffffffffffffffffffffffffffffff1660808173ffffffffffffffffffffffffffffffffffffffff1681525050505f73ffffffffffffffffffffffffffffffffffffffff168273ffffffffffffffffffffffffffffffffffffffff1603620001a7576040517f08c379a00000000000000000000000000000000000000000000000000000000081526004016200019e9062000708565b60405180910390fd5b815f806101000a81548173ffffffffffffffffffffffffffffffffffffffff021916908373ffffffffffffffffffffffffffffffffffffffff1602179055505f73ffffffffffffffffffffffffffffffffffffffff168173ffffffffffffffffffffffffffffffffffffffff16146200022c576200022b816200023560201b60201c565b5b50505062000796565b3373ffffffffffffffffffffffffffffffffffffffff168173ffffffffffffffffffffffffffffffffffffffff1603620002a6576040517f08c379a00000000000000000000000000000000000000000000000000000000081526004016200029d9062000776565b60405180910390fd5b8060015f6101000a81548173ffffffffffffffffffffffffffffffffffffffff021916908373ffffffffffffffffffffffffffffffffffffffff1602179055508073ffffffffffffffffffffffffffffffffffffffff165f8054906101000a900473ffffffffffffffffffffffffffffffffffffffff1673ffffffffffffffffffffffffffffffffffffffff167fed8889f560326eb138920d842192f0eb3dd22b4f139c87a2c57538e05bae127860405160405180910390a350565b5f81519050919050565b7f4e487b71000000000000000000000000000000000000000000000000000000005f52604160045260245ffd5b7f4e487b71000000000000000000000000000000000000000000000000000000005f52602260045260245ffd5b5f6002820490506001821680620003de57607f821691505b602082108103620003f457620003f362000399565b5b50919050565b5f819050815f5260205f209050919050565b5f6020601f8301049050919050565b5f82821b905092915050565b5f60088302620004587fffffffffffffffffffffffffffffffffffffffffffffffffffffffffffffffff826200041b565b6200046486836200041b565b95508019841693508086168417925050509392505050565b5f819050919050565b5f819050919050565b5f620004ae620004a8620004a2846200047c565b62000485565b6200047c565b9050919050565b5f819050919050565b620004c9836200048e565b620004e1620004d882620004b5565b84845462000427565b825550505050565b5f90565b620004f7620004e9565b62000504818484620004be565b505050565b5b818110156200052b576200051f5f82620004ed565b6001810190506200050a565b5050565b601f8211156200057a576200054481620003fa565b6200054f846200040c565b810160208510156200055f578190505b620005776200056e856200040c565b83018262000509565b50505b505050565b5f82821c905092915050565b5f6200059c5f19846008026200057f565b1980831691505092915050565b5f620005b683836200058b565b9150826002028217905092915050565b620005d18262000362565b67ffffffffffffffff811115620005ed57620005ec6200036c565b5b620005f98254620003c6565b620006068282856200052f565b5f60209050601f8311600181146200063c575f841562000627578287015190505b620006338582620005a9565b865550620006a2565b601f1984166200064c86620003fa565b5f5b8281101562000675578489015182556001820191506020850194506020810190506200064e565b8683101562000695578489015162000691601f8916826200058b565b8355505b6001600288020188555050505b505050505050565b5f82825260208201905092915050565b7f43616e6e6f7420736574206f776e657220746f207a65726f00000000000000005f82015250565b5f620006f0601883620006aa565b9150620006fd82620006ba565b602082019050919050565b5f6020820190508181035f8301526200072181620006e2565b9050919050565b7f43616e6e6f74207472616e7366657220746f2073656c660000000000000000005f82015250565b5f6200075e601783620006aa565b91506200076b8262000728565b602082019050919050565b5f6020820190508181035f8301526200078f8162000750565b9050919050565b608051612657620007b65f395f818161021a0152610ce201526126575ff3fe608060405234801561000f575f80fd5b50600436106100b2575f3560e01c806379ba50971161006f57806379ba50971461017a5780638da5cb5b14610184578063ab0d92dd146101a2578063b1e21749146101c0578063b252c8f2146101de578063f2fde38b146101fc576100b2565b80630ca76175146100b65780632f9d6254146100d25780633944ea3a146101025780634942f65f146101205780634b0795a81461013e578063516f279e1461015c575b5f80fd5b6100d060048036038101906100cb919061170e565b610218565b005b6100ec60048036038101906100e791906117d3565b6102da565b6040516100f9919061180d565b60405180910390f35b61010a6103be565b60405161011791906118a0565b60405180910390f35b61012861044a565b60405161013591906118d8565b60405180910390f35b610146610450565b60405161015391906118a0565b60405180910390f35b6101646104dc565b6040516101719190611943565b60405180910390f35b610182610568565b005b61018c6106f7565b60405161019991906119a2565b60405180910390f35b6101aa61071e565b6040516101b791906118d8565b60405180910390f35b6101c8610724565b6040516101d5919061180d565b60405180910390f35b6101e661072a565b6040516101f391906118d8565b60405180910390f35b610216600480360381019061021191906119e5565b610730565b005b7f000000000000000000000000000000000000000000000000000000000000000073ffffffffffffffffffffffffffffffffffffffff163373ffffffffffffffffffffffffffffffffffffffff161461029d576040517fc6829f8300000000000000000000000000000000000000000000000000000000815260040160405180910390fd5b6102a8838383610744565b827f85e1543bf2f84fe80c6badbce3648c8539ad1df4d2b3d822938ca0538be727e660405160405180910390a2505050565b5f6102e361082e565b6102eb6114e7565b610386600680546102fb90611a3d565b80601f016020809104026020016040519081016040528092919081815260200182805461032790611a3d565b80156103725780601f1061034957610100808354040283529160200191610372565b820191905f5260205f20905b81548152906001019060200180831161035557829003601f168201915b5050505050826108bd90919063ffffffff16565b6103ad610392826108cd565b8460075f9054906101000a900463ffffffff16600854610cde565b600281905550600254915050919050565b600380546103cb90611a3d565b80601f01602080910402602001604051908101604052809291908181526020018280546103f790611a3d565b80156104425780601f1061041957610100808354040283529160200191610442565b820191905f5260205f20905b81548152906001019060200180831161042557829003601f168201915b505050505081565b600a5481565b6004805461045d90611a3d565b80601f016020809104026020016040519081016040528092919081815260200182805461048990611a3d565b80156104d45780601f106104ab576101008083540402835291602001916104d4565b820191905f5260205f20905b8154815290600101906020018083116104b757829003601f168201915b505050505081565b600980546104e990611a3d565b80601f016020809104026020016040519081016040528092919081815260200182805461051590611a3d565b80156105605780601f1061053757610100808354040283529160200191610560565b820191905f5260205f20905b81548152906001019060200180831161054357829003601f168201915b505050505081565b60015f9054906101000a900473ffffffffffffffffffffffffffffffffffffffff1673ffffffffffffffffffffffffffffffffffffffff163373ffffffffffffffffffffffffffffffffffffffff16146105f7576040517f08c379a00000000000000000000000000000000000000000000000000000000081526004016105ee90611ab7565b60405180910390fd5b5f805f9054906101000a900473ffffffffffffffffffffffffffffffffffffffff169050335f806101000a81548173ffffffffffffffffffffffffffffffffffffffff021916908373ffffffffffffffffffffffffffffffffffffffff1602179055505f60015f6101000a81548173ffffffffffffffffffffffffffffffffffffffff021916908373ffffffffffffffffffffffffffffffffffffffff1602179055503373ffffffffffffffffffffffffffffffffffffffff168173ffffffffffffffffffffffffffffffffffffffff167f8be0079c531659141344cd1fd0a4f28419497f9722a3daafe3b4186f6b6457e060405160405180910390a350565b5f805f9054906101000a900473ffffffffffffffffffffffffffffffffffffffff16905090565b600b5481565b60025481565b600c5481565b61073861082e565b61074181610dbd565b50565b826002541461078a57826040517fd068bf5b000000000000000000000000000000000000000000000000000000008152600401610781919061180d565b60405180910390fd5b8180602001905181019061079e9190611b9d565b60095f600a5f600b5f600c5f8891905055879190505586919050558591905090816107c99190611dba565b505050505080600490816107dd9190611ee1565b50827f07cee4eeecce4c378bcabac3921fe1ee240f2f7a24775769790937e3a8165c076009600a54600b54600c5460036004604051610821969594939291906120b2565b60405180910390a2505050565b5f8054906101000a900473ffffffffffffffffffffffffffffffffffffffff1673ffffffffffffffffffffffffffffffffffffffff163373ffffffffffffffffffffffffffffffffffffffff16146108bb576040517f08c379a00000000000000000000000000000000000000000000000000000000081526004016108b290612170565b60405180910390fd5b565b6108c9825f8084610ee7565b5050565b60605f6108db610100610f8d565b90506109256040518060400160405280600c81526020017f636f64654c6f636174696f6e000000000000000000000000000000000000000081525082610fb290919063ffffffff16565b61094d835f0151600281111561093e5761093d61218e565b5b82610fda90919063ffffffff16565b6109956040518060400160405280600881526020017f6c616e677561676500000000000000000000000000000000000000000000000081525082610fb290919063ffffffff16565b6109bd83604001515f8111156109ae576109ad61218e565b5b82610fda90919063ffffffff16565b610a056040518060400160405280600681526020017f736f75726365000000000000000000000000000000000000000000000000000081525082610fb290919063ffffffff16565b610a1c836060015182610fb290919063ffffffff16565b5f8360a00151511115610ad657610a716040518060400160405280600481526020017f617267730000000000000000000000000000000000000000000000000000000081525082610fb290919063ffffffff16565b610a7a81611029565b5f5b8360a0015151811015610acb57610aba8460a001518281518110610aa357610aa26121bb565b5b602002602001015183610fb290919063ffffffff16565b80610ac490612215565b9050610a7c565b50610ad581611051565b5b5f8360800151511115610c15575f6002811115610af657610af561218e565b5b83602001516002811115610b0d57610b0c61218e565b5b03610b44576040517fa80d31f700000000000000000000000000000000000000000000000000000000815260040160405180910390fd5b610b8c6040518060400160405280600f81526020017f736563726574734c6f636174696f6e000000000000000000000000000000000081525082610fb290919063ffffffff16565b610bb583602001516002811115610ba657610ba561218e565b5b82610fda90919063ffffffff16565b610bfd6040518060400160405280600781526020017f736563726574730000000000000000000000000000000000000000000000000081525082610fb290919063ffffffff16565b610c1483608001518261107990919063ffffffff16565b5b5f8360c00151511115610ccf57610c6a6040518060400160405280600981526020017f627974657341726773000000000000000000000000000000000000000000000081525082610fb290919063ffffffff16565b610c7381611029565b5f5b8360c0015151811015610cc457610cb38460c001518281518110610c9c57610c9b6121bb565b5b60200260200101518361107990919063ffffffff16565b80610cbd90612215565b9050610c75565b50610cce81611051565b5b805f01515f0151915050919050565b5f807f000000000000000000000000000000000000000000000000000000000000000073ffffffffffffffffffffffffffffffffffffffff1663461d27628688600188886040518663ffffffff1660e01b8152600401610d429594939291906122a5565b6020604051808303815f875af1158015610d5e573d5f803e3d5ffd5b505050506040513d601f19601f82011682018060405250810190610d829190612311565b9050807f1131472297a800fee664d1d89cfa8f7676ff07189ecc53f80bbb5f4969099db860405160405180910390a280915050949350505050565b3373ffffffffffffffffffffffffffffffffffffffff168173ffffffffffffffffffffffffffffffffffffffff1603610e2b576040517f08c379a0000000000000000000000000000000000000000000000000000000008152600401610e2290612386565b60405180910390fd5b8060015f6101000a81548173ffffffffffffffffffffffffffffffffffffffff021916908373ffffffffffffffffffffffffffffffffffffffff1602179055508073ffffffffffffffffffffffffffffffffffffffff165f8054906101000a900473ffffffffffffffffffffffffffffffffffffffff1673ffffffffffffffffffffffffffffffffffffffff167fed8889f560326eb138920d842192f0eb3dd22b4f139c87a2c57538e05bae127860405160405180910390a350565b5f815103610f21576040517f22ce3edd00000000000000000000000000000000000000000000000000000000815260040160405180910390fd5b82845f01906002811115610f3857610f3761218e565b5b90816002811115610f4c57610f4b61218e565b5b815250508184604001905f811115610f6757610f6661218e565b5b90815f811115610f7a57610f7961218e565b5b8152505080846060018190525050505050565b610f95611556565b610fa2815f0151836110a1565b505f816020018181525050919050565b610fbf8260038351611117565b610fd581835f01516112b790919063ffffffff16565b505050565b610ffb60026005600660ff16901b17835f01516112d390919063ffffffff16565b50611025828260405160200161101191906118d8565b604051602081830303815290604052611079565b5050565b61103481600461133a565b60018160200181815161104791906123a4565b9150818152505050565b61105c81600761133a565b60018160200181815161106f91906123d7565b9150818152505050565b6110868260028351611117565b61109c81835f01516112b790919063ffffffff16565b505050565b6110a9611575565b5f6020836110b79190612437565b146110e3576020826110c99190612437565b60206110d591906123d7565b826110e091906123a4565b91505b818360200181815250506040518084525f815282810160200181811015611108575f80fd5b80604052505082905092915050565b60178167ffffffffffffffff16116111515761114b8160058460ff16901b60ff1617845f01516112d390919063ffffffff16565b506112b2565b60ff8167ffffffffffffffff16116111ad57611183601860058460ff16901b17845f01516112d390919063ffffffff16565b506111a78167ffffffffffffffff166001855f015161135f9092919063ffffffff16565b506112b1565b61ffff8167ffffffffffffffff161161120a576111e0601960058460ff16901b17845f01516112d390919063ffffffff16565b506112048167ffffffffffffffff166002855f015161135f9092919063ffffffff16565b506112b0565b63ffffffff8167ffffffffffffffff16116112695761123f601a60058460ff16901b17845f01516112d390919063ffffffff16565b506112638167ffffffffffffffff166004855f015161135f9092919063ffffffff16565b506112af565b611289601b60058460ff16901b17845f01516112d390919063ffffffff16565b506112ad8167ffffffffffffffff166008855f015161135f9092919063ffffffff16565b505b5b5b5b505050565b6112bf611575565b6112cb838384516113e8565b905092915050565b6112db611575565b5f835f01515190505f6001826112f191906123a4565b905084602001518210611315576113148560028361130f9190612467565b6114c5565b5b8451602083820101858153815183111561132d578282525b5050849250505092915050565b61135a601f60058360ff16901b17835f01516112d390919063ffffffff16565b505050565b611367611575565b5f845f01515190505f818461137c91906123a4565b905085602001518111156113a1576113a08660028361139b9190612467565b6114c5565b5b5f6001856101006113b291906125d7565b6113bc91906123d7565b9050865182810187831982511617815281518411156113d9578382525b50508693505050509392505050565b6113f0611575565b82518211156113fd575f80fd5b5f845f01515190505f838261141291906123a4565b9050856020015181111561143757611436866002836114319190612467565b6114c5565b5b5f8087518051856020830101935080851115611451578482525b60208901925050505b60208610611498578051825260208261147391906123a4565b915060208161148291906123a4565b905060208661149191906123d7565b955061145a565b5f6001876020036101000a0390508019825116818451168181178552505050879450505050509392505050565b5f825f015190506114d683836110a1565b506114e183826112b7565b50505050565b6040518060e001604052805f60028111156115055761150461218e565b5b81526020015f600281111561151d5761151c61218e565b5b81526020015f808111156115345761153361218e565b5b8152602001606081526020016060815260200160608152602001606081525090565b6040518060400160405280611569611575565b81526020015f81525090565b6040518060400160405280606081526020015f81525090565b5f604051905090565b5f80fd5b5f80fd5b5f819050919050565b6115b18161159f565b81146115bb575f80fd5b50565b5f813590506115cc816115a8565b92915050565b5f80fd5b5f80fd5b5f601f19601f8301169050919050565b7f4e487b71000000000000000000000000000000000000000000000000000000005f52604160045260245ffd5b611620826115da565b810181811067ffffffffffffffff8211171561163f5761163e6115ea565b5b80604052505050565b5f61165161158e565b905061165d8282611617565b919050565b5f67ffffffffffffffff82111561167c5761167b6115ea565b5b611685826115da565b9050602081019050919050565b828183375f83830152505050565b5f6116b26116ad84611662565b611648565b9050828152602081018484840111156116ce576116cd6115d6565b5b6116d9848285611692565b509392505050565b5f82601f8301126116f5576116f46115d2565b5b81356117058482602086016116a0565b91505092915050565b5f805f6060848603121561172557611724611597565b5b5f611732868287016115be565b935050602084013567ffffffffffffffff8111156117535761175261159b565b5b61175f868287016116e1565b925050604084013567ffffffffffffffff8111156117805761177f61159b565b5b61178c868287016116e1565b9150509250925092565b5f67ffffffffffffffff82169050919050565b6117b281611796565b81146117bc575f80fd5b50565b5f813590506117cd816117a9565b92915050565b5f602082840312156117e8576117e7611597565b5b5f6117f5848285016117bf565b91505092915050565b6118078161159f565b82525050565b5f6020820190506118205f8301846117fe565b92915050565b5f81519050919050565b5f82825260208201905092915050565b5f5b8381101561185d578082015181840152602081019050611842565b5f8484015250505050565b5f61187282611826565b61187c8185611830565b935061188c818560208601611840565b611895816115da565b840191505092915050565b5f6020820190508181035f8301526118b88184611868565b905092915050565b5f819050919050565b6118d2816118c0565b82525050565b5f6020820190506118eb5f8301846118c9565b92915050565b5f81519050919050565b5f82825260208201905092915050565b5f611915826118f1565b61191f81856118fb565b935061192f818560208601611840565b611938816115da565b840191505092915050565b5f6020820190508181035f83015261195b818461190b565b905092915050565b5f73ffffffffffffffffffffffffffffffffffffffff82169050919050565b5f61198c82611963565b9050919050565b61199c81611982565b82525050565b5f6020820190506119b55f830184611993565b92915050565b6119c481611982565b81146119ce575f80fd5b50565b5f813590506119df816119bb565b92915050565b5f602082840312156119fa576119f9611597565b5b5f611a07848285016119d1565b91505092915050565b7f4e487b71000000000000000000000000000000000000000000000000000000005f52602260045260245ffd5b5f6002820490506001821680611a5457607f821691505b602082108103611a6757611a66611a10565b5b50919050565b7f4d7573742062652070726f706f736564206f776e6572000000000000000000005f82015250565b5f611aa16016836118fb565b9150611aac82611a6d565b602082019050919050565b5f6020820190508181035f830152611ace81611a95565b9050919050565b5f67ffffffffffffffff821115611aef57611aee6115ea565b5b611af8826115da565b9050602081019050919050565b5f611b17611b1284611ad5565b611648565b905082815260208101848484011115611b3357611b326115d6565b5b611b3e848285611840565b509392505050565b5f82601f830112611b5a57611b596115d2565b5b8151611b6a848260208601611b05565b91505092915050565b611b7c816118c0565b8114611b86575f80fd5b50565b5f81519050611b9781611b73565b92915050565b5f805f8060808587031215611bb557611bb4611597565b5b5f85015167ffffffffffffffff811115611bd257611bd161159b565b5b611bde87828801611b46565b9450506020611bef87828801611b89565b9350506040611c0087828801611b89565b9250506060611c1187828801611b89565b91505092959194509250565b5f819050815f5260205f209050919050565b5f6020601f8301049050919050565b5f82821b905092915050565b5f60088302611c797fffffffffffffffffffffffffffffffffffffffffffffffffffffffffffffffff82611c3e565b611c838683611c3e565b95508019841693508086168417925050509392505050565b5f819050919050565b5f611cbe611cb9611cb4846118c0565b611c9b565b6118c0565b9050919050565b5f819050919050565b611cd783611ca4565b611ceb611ce382611cc5565b848454611c4a565b825550505050565b5f90565b611cff611cf3565b611d0a818484611cce565b505050565b5b81811015611d2d57611d225f82611cf7565b600181019050611d10565b5050565b601f821115611d7257611d4381611c1d565b611d4c84611c2f565b81016020851015611d5b578190505b611d6f611d6785611c2f565b830182611d0f565b50505b505050565b5f82821c905092915050565b5f611d925f1984600802611d77565b1980831691505092915050565b5f611daa8383611d83565b9150826002028217905092915050565b611dc3826118f1565b67ffffffffffffffff811115611ddc57611ddb6115ea565b5b611de68254611a3d565b611df1828285611d31565b5f60209050601f831160018114611e22575f8415611e10578287015190505b611e1a8582611d9f565b865550611e81565b601f198416611e3086611c1d565b5f5b82811015611e5757848901518255600182019150602085019450602081019050611e32565b86831015611e745784890151611e70601f891682611d83565b8355505b6001600288020188555050505b505050505050565b5f819050815f5260205f209050919050565b601f821115611edc57611ead81611e89565b611eb684611c2f565b81016020851015611ec5578190505b611ed9611ed185611c2f565b830182611d0f565b50505b505050565b611eea82611826565b67ffffffffffffffff811115611f0357611f026115ea565b5b611f0d8254611a3d565b611f18828285611e9b565b5f60209050601f831160018114611f49575f8415611f37578287015190505b611f418582611d9f565b865550611fa8565b601f198416611f5786611e89565b5f5b82811015611f7e57848901518255600182019150602085019450602081019050611f59565b86831015611f9b5784890151611f97601f891682611d83565b8355505b6001600288020188555050505b505050505050565b5f8154611fbc81611a3d565b611fc681866118fb565b9450600182165f8114611fe05760018114611ff657612028565b60ff198316865281151560200286019350612028565b611fff85611c1d565b5f5b8381101561202057815481890152600182019150602081019050612001565b808801955050505b50505092915050565b5f815461203d81611a3d565b6120478186611830565b9450600182165f81146120615760018114612077576120a9565b60ff1983168652811515602002860193506120a9565b61208085611e89565b5f5b838110156120a157815481890152600182019150602081019050612082565b808801955050505b50505092915050565b5f60c0820190508181035f8301526120ca8189611fb0565b90506120d960208301886118c9565b6120e660408301876118c9565b6120f360608301866118c9565b81810360808301526121058185612031565b905081810360a08301526121198184612031565b9050979650505050505050565b7f4f6e6c792063616c6c61626c65206279206f776e6572000000000000000000005f82015250565b5f61215a6016836118fb565b915061216582612126565b602082019050919050565b5f6020820190508181035f8301526121878161214e565b9050919050565b7f4e487b71000000000000000000000000000000000000000000000000000000005f52602160045260245ffd5b7f4e487b71000000000000000000000000000000000000000000000000000000005f52603260045260245ffd5b7f4e487b71000000000000000000000000000000000000000000000000000000005f52601160045260245ffd5b5f61221f826118c0565b91507fffffffffffffffffffffffffffffffffffffffffffffffffffffffffffffffff8203612251576122506121e8565b5b600182019050919050565b61226581611796565b82525050565b5f61ffff82169050919050565b6122818161226b565b82525050565b5f63ffffffff82169050919050565b61229f81612287565b82525050565b5f60a0820190506122b85f83018861225c565b81810360208301526122ca8187611868565b90506122d96040830186612278565b6122e66060830185612296565b6122f360808301846117fe565b9695505050505050565b5f8151905061230b816115a8565b92915050565b5f6020828403121561232657612325611597565b5b5f612333848285016122fd565b91505092915050565b7f43616e6e6f74207472616e7366657220746f2073656c660000000000000000005f82015250565b5f6123706017836118fb565b915061237b8261233c565b602082019050919050565b5f6020820190508181035f83015261239d81612364565b9050919050565b5f6123ae826118c0565b91506123b9836118c0565b92508282019050808211156123d1576123d06121e8565b5b92915050565b5f6123e1826118c0565b91506123ec836118c0565b9250828203905081811115612404576124036121e8565b5b92915050565b7f4e487b71000000000000000000000000000000000000000000000000000000005f52601260045260245ffd5b5f612441826118c0565b915061244c836118c0565b92508261245c5761245b61240a565b5b828206905092915050565b5f612471826118c0565b915061247c836118c0565b925082820261248a816118c0565b915082820484148315176124a1576124a06121e8565b5b5092915050565b5f8160011c9050919050565b5f808291508390505b60018511156124fd578086048111156124d9576124d86121e8565b5b60018516156124e85780820291505b80810290506124f6856124a8565b94506124bd565b94509492505050565b5f8261251557600190506125d0565b81612522575f90506125d0565b8160018114612538576002811461254257612571565b60019150506125d0565b60ff841115612554576125536121e8565b5b8360020a91508482111561256b5761256a6121e8565b5b506125d0565b5060208310610133831016604e8410600b84101617156125a65782820a9050838111156125a1576125a06121e8565b5b6125d0565b6125b384848460016124b4565b925090508184048111156125ca576125c96121e8565b5b81810290505b9392505050565b5f6125e1826118c0565b91506125ec836118c0565b92506126197fffffffffffffffffffffffffffffffffffffffffffffffffffffffffffffffff8484612506565b90509291505056fea264697066735822122008ef325dbf4c826ed71a6f4b0c44087271726528ec90f27b5b4595e24684f70764736f6c63430008140033636f6e7374207b20657468657273207d203d20617761697420696d706f727428276e706d3a65746865727340362e31302e3027293b636f6e737420616269436f646572203d206574686572732e416269436f6465722e64656661756c74416269436f64657228293b636f6e737420617069526573706f6e7365203d2061776169742046756e6374696f6e732e6d616b654874747052657175657374287b2020202075726c3a202768747470733a2f2f67656e69656261636b626f6e652e617a75726577656273697465732e6e65742f6170692f70726f706572746965732f64656d6f277d293b636f6e7374207b2064617461207d203d20617069526573706f6e73652e646174613b636f6e7374206c6f636174696f6e203d20646174612e6c6f636174696f6e3b636f6e7374206c6f7453697a65203d204e756d62657228646174612e6c6f7453697a65293b636f6e737420746f74616c5072696365203d204e756d62657228646174612e746f74616c5072696365293b636f6e737420746178417373657373656456616c7565203d204e756d62657228646174612e746178417373657373656456616c7565293b636f6e737420656e636f646564203d20616269436f6465722e656e636f6465285b60737472696e67602c206075696e74323536602c206075696e74323536602c206075696e74323536605d2c205b6c6f636174696f6e2c206c6f7453697a652c20746f74616c50726963652c20746178417373657373656456616c75655d293b72657475726e206574686572732e676574427974657328656e636f646564293b",
			"opcodes": "PUSH1 0xA0 PUSH1 0x40 MSTORE PUSH20 0xB83E47C2BC239B3BF370BC41E1459A34B41238D0 PUSH1 0x5 PUSH0 PUSH2 0x100 EXP DUP2 SLOAD DUP2 PUSH20 0xFFFFFFFFFFFFFFFFFFFFFFFFFFFFFFFFFFFFFFFF MUL NOT AND SWAP1 DUP4 PUSH20 0xFFFFFFFFFFFFFFFFFFFFFFFFFFFFFFFFFFFFFFFF AND MUL OR SWAP1 SSTORE POP PUSH1 0x40 MLOAD DUP1 PUSH2 0x280 ADD PUSH1 0x40 MSTORE DUP1 PUSH2 0x24E DUP2 MSTORE PUSH1 0x20 ADD PUSH3 0x2E0D PUSH2 0x24E SWAP2 CODECOPY PUSH1 0x6 SWAP1 DUP2 PUSH3 0x85 SWAP2 SWAP1 PUSH3 0x5C6 JUMP JUMPDEST POP PUSH3 0x493E0 PUSH1 0x7 PUSH0 PUSH2 0x100 EXP DUP2 SLOAD DUP2 PUSH4 0xFFFFFFFF MUL NOT AND SWAP1 DUP4 PUSH4 0xFFFFFFFF AND MUL OR SWAP1 SSTORE POP PUSH32 0x66756E2D657468657265756D2D7365706F6C69612D3100000000000000000000 PUSH0 SHL PUSH1 0x8 SSTORE CALLVALUE DUP1 ISZERO PUSH3 0xDB JUMPI PUSH0 DUP1 REVERT JUMPDEST POP CALLER DUP1 PUSH0 PUSH1 0x5 PUSH0 SWAP1 SLOAD SWAP1 PUSH2 0x100 EXP SWAP1 DIV PUSH20 0xFFFFFFFFFFFFFFFFFFFFFFFFFFFFFFFFFFFFFFFF AND DUP1 PUSH20 0xFFFFFFFFFFFFFFFFFFFFFFFFFFFFFFFFFFFFFFFF AND PUSH1 0x80 DUP2 PUSH20 0xFFFFFFFFFFFFFFFFFFFFFFFFFFFFFFFFFFFFFFFF AND DUP2 MSTORE POP POP POP PUSH0 PUSH20 0xFFFFFFFFFFFFFFFFFFFFFFFFFFFFFFFFFFFFFFFF AND DUP3 PUSH20 0xFFFFFFFFFFFFFFFFFFFFFFFFFFFFFFFFFFFFFFFF AND SUB PUSH3 0x1A7 JUMPI PUSH1 0x40 MLOAD PUSH32 0x8C379A000000000000000000000000000000000000000000000000000000000 DUP2 MSTORE PUSH1 0x4 ADD PUSH3 0x19E SWAP1 PUSH3 0x708 JUMP JUMPDEST PUSH1 0x40 MLOAD DUP1 SWAP2 SUB SWAP1 REVERT JUMPDEST DUP2 PUSH0 DUP1 PUSH2 0x100 EXP DUP2 SLOAD DUP2 PUSH20 0xFFFFFFFFFFFFFFFFFFFFFFFFFFFFFFFFFFFFFFFF MUL NOT AND SWAP1 DUP4 PUSH20 0xFFFFFFFFFFFFFFFFFFFFFFFFFFFFFFFFFFFFFFFF AND MUL OR SWAP1 SSTORE POP PUSH0 PUSH20 0xFFFFFFFFFFFFFFFFFFFFFFFFFFFFFFFFFFFFFFFF AND DUP2 PUSH20 0xFFFFFFFFFFFFFFFFFFFFFFFFFFFFFFFFFFFFFFFF AND EQ PUSH3 0x22C JUMPI PUSH3 0x22B DUP2 PUSH3 0x235 PUSH1 0x20 SHL PUSH1 0x20 SHR JUMP JUMPDEST JUMPDEST POP POP POP PUSH3 0x796 JUMP JUMPDEST CALLER PUSH20 0xFFFFFFFFFFFFFFFFFFFFFFFFFFFFFFFFFFFFFFFF AND DUP2 PUSH20 0xFFFFFFFFFFFFFFFFFFFFFFFFFFFFFFFFFFFFFFFF AND SUB PUSH3 0x2A6 JUMPI PUSH1 0x40 MLOAD PUSH32 0x8C379A000000000000000000000000000000000000000000000000000000000 DUP2 MSTORE PUSH1 0x4 ADD PUSH3 0x29D SWAP1 PUSH3 0x776 JUMP JUMPDEST PUSH1 0x40 MLOAD DUP1 SWAP2 SUB SWAP1 REVERT JUMPDEST DUP1 PUSH1 0x1 PUSH0 PUSH2 0x100 EXP DUP2 SLOAD DUP2 PUSH20 0xFFFFFFFFFFFFFFFFFFFFFFFFFFFFFFFFFFFFFFFF MUL NOT AND SWAP1 DUP4 PUSH20 0xFFFFFFFFFFFFFFFFFFFFFFFFFFFFFFFFFFFFFFFF AND MUL OR SWAP1 SSTORE POP DUP1 PUSH20 0xFFFFFFFFFFFFFFFFFFFFFFFFFFFFFFFFFFFFFFFF AND PUSH0 DUP1 SLOAD SWAP1 PUSH2 0x100 EXP SWAP1 DIV PUSH20 0xFFFFFFFFFFFFFFFFFFFFFFFFFFFFFFFFFFFFFFFF AND PUSH20 0xFFFFFFFFFFFFFFFFFFFFFFFFFFFFFFFFFFFFFFFF AND PUSH32 0xED8889F560326EB138920D842192F0EB3DD22B4F139C87A2C57538E05BAE1278 PUSH1 0x40 MLOAD PUSH1 0x40 MLOAD DUP1 SWAP2 SUB SWAP1 LOG3 POP JUMP JUMPDEST PUSH0 DUP2 MLOAD SWAP1 POP SWAP2 SWAP1 POP JUMP JUMPDEST PUSH32 0x4E487B7100000000000000000000000000000000000000000000000000000000 PUSH0 MSTORE PUSH1 0x41 PUSH1 0x4 MSTORE PUSH1 0x24 PUSH0 REVERT JUMPDEST PUSH32 0x4E487B7100000000000000000000000000000000000000000000000000000000 PUSH0 MSTORE PUSH1 0x22 PUSH1 0x4 MSTORE PUSH1 0x24 PUSH0 REVERT JUMPDEST PUSH0 PUSH1 0x2 DUP3 DIV SWAP1 POP PUSH1 0x1 DUP3 AND DUP1 PUSH3 0x3DE JUMPI PUSH1 0x7F DUP3 AND SWAP2 POP JUMPDEST PUSH1 0x20 DUP3 LT DUP2 SUB PUSH3 0x3F4 JUMPI PUSH3 0x3F3 PUSH3 0x399 JUMP JUMPDEST JUMPDEST POP SWAP2 SWAP1 POP JUMP JUMPDEST PUSH0 DUP2 SWAP1 POP DUP2 PUSH0 MSTORE PUSH1 0x20 PUSH0 KECCAK256 SWAP1 POP SWAP2 SWAP1 POP JUMP JUMPDEST PUSH0 PUSH1 0x20 PUSH1 0x1F DUP4 ADD DIV SWAP1 POP SWAP2 SWAP1 POP JUMP JUMPDEST PUSH0 DUP3 DUP3 SHL SWAP1 POP SWAP3 SWAP2 POP POP JUMP JUMPDEST PUSH0 PUSH1 0x8 DUP4 MUL PUSH3 0x458 PUSH32 0xFFFFFFFFFFFFFFFFFFFFFFFFFFFFFFFFFFFFFFFFFFFFFFFFFFFFFFFFFFFFFFFF DUP3 PUSH3 0x41B JUMP JUMPDEST PUSH3 0x464 DUP7 DUP4 PUSH3 0x41B JUMP JUMPDEST SWAP6 POP DUP1 NOT DUP5 AND SWAP4 POP DUP1 DUP7 AND DUP5 OR SWAP3 POP POP POP SWAP4 SWAP3 POP POP POP JUMP JUMPDEST PUSH0 DUP2 SWAP1 POP SWAP2 SWAP1 POP JUMP JUMPDEST PUSH0 DUP2 SWAP1 POP SWAP2 SWAP1 POP JUMP JUMPDEST PUSH0 PUSH3 0x4AE PUSH3 0x4A8 PUSH3 0x4A2 DUP5 PUSH3 0x47C JUMP JUMPDEST PUSH3 0x485 JUMP JUMPDEST PUSH3 0x47C JUMP JUMPDEST SWAP1 POP SWAP2 SWAP1 POP JUMP JUMPDEST PUSH0 DUP2 SWAP1 POP SWAP2 SWAP1 POP JUMP JUMPDEST PUSH3 0x4C9 DUP4 PUSH3 0x48E JUMP JUMPDEST PUSH3 0x4E1 PUSH3 0x4D8 DUP3 PUSH3 0x4B5 JUMP JUMPDEST DUP5 DUP5 SLOAD PUSH3 0x427 JUMP JUMPDEST DUP3 SSTORE POP POP POP POP JUMP JUMPDEST PUSH0 SWAP1 JUMP JUMPDEST PUSH3 0x4F7 PUSH3 0x4E9 JUMP JUMPDEST PUSH3 0x504 DUP2 DUP5 DUP5 PUSH3 0x4BE JUMP JUMPDEST POP POP POP JUMP JUMPDEST JUMPDEST DUP2 DUP2 LT ISZERO PUSH3 0x52B JUMPI PUSH3 0x51F PUSH0 DUP3 PUSH3 0x4ED JUMP JUMPDEST PUSH1 0x1 DUP2 ADD SWAP1 POP PUSH3 0x50A JUMP JUMPDEST POP POP JUMP JUMPDEST PUSH1 0x1F DUP3 GT ISZERO PUSH3 0x57A JUMPI PUSH3 0x544 DUP2 PUSH3 0x3FA JUMP JUMPDEST PUSH3 0x54F DUP5 PUSH3 0x40C JUMP JUMPDEST DUP2 ADD PUSH1 0x20 DUP6 LT ISZERO PUSH3 0x55F JUMPI DUP2 SWAP1 POP JUMPDEST PUSH3 0x577 PUSH3 0x56E DUP6 PUSH3 0x40C JUMP JUMPDEST DUP4 ADD DUP3 PUSH3 0x509 JUMP JUMPDEST POP POP JUMPDEST POP POP POP JUMP JUMPDEST PUSH0 DUP3 DUP3 SHR SWAP1 POP SWAP3 SWAP2 POP POP JUMP JUMPDEST PUSH0 PUSH3 0x59C PUSH0 NOT DUP5 PUSH1 0x8 MUL PUSH3 0x57F JUMP JUMPDEST NOT DUP1 DUP4 AND SWAP2 POP POP SWAP3 SWAP2 POP POP JUMP JUMPDEST PUSH0 PUSH3 0x5B6 DUP4 DUP4 PUSH3 0x58B JUMP JUMPDEST SWAP2 POP DUP3 PUSH1 0x2 MUL DUP3 OR SWAP1 POP SWAP3 SWAP2 POP POP JUMP JUMPDEST PUSH3 0x5D1 DUP3 PUSH3 0x362 JUMP JUMPDEST PUSH8 0xFFFFFFFFFFFFFFFF DUP2 GT ISZERO PUSH3 0x5ED JUMPI PUSH3 0x5EC PUSH3 0x36C JUMP JUMPDEST JUMPDEST PUSH3 0x5F9 DUP3 SLOAD PUSH3 0x3C6 JUMP JUMPDEST PUSH3 0x606 DUP3 DUP3 DUP6 PUSH3 0x52F JUMP JUMPDEST PUSH0 PUSH1 0x20 SWAP1 POP PUSH1 0x1F DUP4 GT PUSH1 0x1 DUP2 EQ PUSH3 0x63C JUMPI PUSH0 DUP5 ISZERO PUSH3 0x627 JUMPI DUP3 DUP8 ADD MLOAD SWAP1 POP JUMPDEST PUSH3 0x633 DUP6 DUP3 PUSH3 0x5A9 JUMP JUMPDEST DUP7 SSTORE POP PUSH3 0x6A2 JUMP JUMPDEST PUSH1 0x1F NOT DUP5 AND PUSH3 0x64C DUP7 PUSH3 0x3FA JUMP JUMPDEST PUSH0 JUMPDEST DUP3 DUP2 LT ISZERO PUSH3 0x675 JUMPI DUP5 DUP10 ADD MLOAD DUP3 SSTORE PUSH1 0x1 DUP3 ADD SWAP2 POP PUSH1 0x20 DUP6 ADD SWAP5 POP PUSH1 0x20 DUP2 ADD SWAP1 POP PUSH3 0x64E JUMP JUMPDEST DUP7 DUP4 LT ISZERO PUSH3 0x695 JUMPI DUP5 DUP10 ADD MLOAD PUSH3 0x691 PUSH1 0x1F DUP10 AND DUP3 PUSH3 0x58B JUMP JUMPDEST DUP4 SSTORE POP JUMPDEST PUSH1 0x1 PUSH1 0x2 DUP9 MUL ADD DUP9 SSTORE POP POP POP JUMPDEST POP POP POP POP POP POP JUMP JUMPDEST PUSH0 DUP3 DUP3 MSTORE PUSH1 0x20 DUP3 ADD SWAP1 POP SWAP3 SWAP2 POP POP JUMP JUMPDEST PUSH32 0x43616E6E6F7420736574206F776E657220746F207A65726F0000000000000000 PUSH0 DUP3 ADD MSTORE POP JUMP JUMPDEST PUSH0 PUSH3 0x6F0 PUSH1 0x18 DUP4 PUSH3 0x6AA JUMP JUMPDEST SWAP2 POP PUSH3 0x6FD DUP3 PUSH3 0x6BA JUMP JUMPDEST PUSH1 0x20 DUP3 ADD SWAP1 POP SWAP2 SWAP1 POP JUMP JUMPDEST PUSH0 PUSH1 0x20 DUP3 ADD SWAP1 POP DUP2 DUP2 SUB PUSH0 DUP4 ADD MSTORE PUSH3 0x721 DUP2 PUSH3 0x6E2 JUMP JUMPDEST SWAP1 POP SWAP2 SWAP1 POP JUMP JUMPDEST PUSH32 0x43616E6E6F74207472616E7366657220746F2073656C66000000000000000000 PUSH0 DUP3 ADD MSTORE POP JUMP JUMPDEST PUSH0 PUSH3 0x75E PUSH1 0x17 DUP4 PUSH3 0x6AA JUMP JUMPDEST SWAP2 POP PUSH3 0x76B DUP3 PUSH3 0x728 JUMP JUMPDEST PUSH1 0x20 DUP3 ADD SWAP1 POP SWAP2 SWAP1 POP JUMP JUMPDEST PUSH0 PUSH1 0x20 DUP3 ADD SWAP1 POP DUP2 DUP2 SUB PUSH0 DUP4 ADD MSTORE PUSH3 0x78F DUP2 PUSH3 0x750 JUMP JUMPDEST SWAP1 POP SWAP2 SWAP1 POP JUMP JUMPDEST PUSH1 0x80 MLOAD PUSH2 0x2657 PUSH3 0x7B6 PUSH0 CODECOPY PUSH0 DUP2 DUP2 PUSH2 0x21A ADD MSTORE PUSH2 0xCE2 ADD MSTORE PUSH2 0x2657 PUSH0 RETURN INVALID PUSH1 0x80 PUSH1 0x40 MSTORE CALLVALUE DUP1 ISZERO PUSH2 0xF JUMPI PUSH0 DUP1 REVERT JUMPDEST POP PUSH1 0x4 CALLDATASIZE LT PUSH2 0xB2 JUMPI PUSH0 CALLDATALOAD PUSH1 0xE0 SHR DUP1 PUSH4 0x79BA5097 GT PUSH2 0x6F JUMPI DUP1 PUSH4 0x79BA5097 EQ PUSH2 0x17A JUMPI DUP1 PUSH4 0x8DA5CB5B EQ PUSH2 0x184 JUMPI DUP1 PUSH4 0xAB0D92DD EQ PUSH2 0x1A2 JUMPI DUP1 PUSH4 0xB1E21749 EQ PUSH2 0x1C0 JUMPI DUP1 PUSH4 0xB252C8F2 EQ PUSH2 0x1DE JUMPI DUP1 PUSH4 0xF2FDE38B EQ PUSH2 0x1FC JUMPI PUSH2 0xB2 JUMP JUMPDEST DUP1 PUSH4 0xCA76175 EQ PUSH2 0xB6 JUMPI DUP1 PUSH4 0x2F9D6254 EQ PUSH2 0xD2 JUMPI DUP1 PUSH4 0x3944EA3A EQ PUSH2 0x102 JUMPI DUP1 PUSH4 0x4942F65F EQ PUSH2 0x120 JUMPI DUP1 PUSH4 0x4B0795A8 EQ PUSH2 0x13E JUMPI DUP1 PUSH4 0x516F279E EQ PUSH2 0x15C JUMPI JUMPDEST PUSH0 DUP1 REVERT JUMPDEST PUSH2 0xD0 PUSH1 0x4 DUP1 CALLDATASIZE SUB DUP2 ADD SWAP1 PUSH2 0xCB SWAP2 SWAP1 PUSH2 0x170E JUMP JUMPDEST PUSH2 0x218 JUMP JUMPDEST STOP JUMPDEST PUSH2 0xEC PUSH1 0x4 DUP1 CALLDATASIZE SUB DUP2 ADD SWAP1 PUSH2 0xE7 SWAP2 SWAP1 PUSH2 0x17D3 JUMP JUMPDEST PUSH2 0x2DA JUMP JUMPDEST PUSH1 0x40 MLOAD PUSH2 0xF9 SWAP2 SWAP1 PUSH2 0x180D JUMP JUMPDEST PUSH1 0x40 MLOAD DUP1 SWAP2 SUB SWAP1 RETURN JUMPDEST PUSH2 0x10A PUSH2 0x3BE JUMP JUMPDEST PUSH1 0x40 MLOAD PUSH2 0x117 SWAP2 SWAP1 PUSH2 0x18A0 JUMP JUMPDEST PUSH1 0x40 MLOAD DUP1 SWAP2 SUB SWAP1 RETURN JUMPDEST PUSH2 0x128 PUSH2 0x44A JUMP JUMPDEST PUSH1 0x40 MLOAD PUSH2 0x135 SWAP2 SWAP1 PUSH2 0x18D8 JUMP JUMPDEST PUSH1 0x40 MLOAD DUP1 SWAP2 SUB SWAP1 RETURN JUMPDEST PUSH2 0x146 PUSH2 0x450 JUMP JUMPDEST PUSH1 0x40 MLOAD PUSH2 0x153 SWAP2 SWAP1 PUSH2 0x18A0 JUMP JUMPDEST PUSH1 0x40 MLOAD DUP1 SWAP2 SUB SWAP1 RETURN JUMPDEST PUSH2 0x164 PUSH2 0x4DC JUMP JUMPDEST PUSH1 0x40 MLOAD PUSH2 0x171 SWAP2 SWAP1 PUSH2 0x1943 JUMP JUMPDEST PUSH1 0x40 MLOAD DUP1 SWAP2 SUB SWAP1 RETURN JUMPDEST PUSH2 0x182 PUSH2 0x568 JUMP JUMPDEST STOP JUMPDEST PUSH2 0x18C PUSH2 0x6F7 JUMP JUMPDEST PUSH1 0x40 MLOAD PUSH2 0x199 SWAP2 SWAP1 PUSH2 0x19A2 JUMP JUMPDEST PUSH1 0x40 MLOAD DUP1 SWAP2 SUB SWAP1 RETURN JUMPDEST PUSH2 0x1AA PUSH2 0x71E JUMP JUMPDEST PUSH1 0x40 MLOAD PUSH2 0x1B7 SWAP2 SWAP1 PUSH2 0x18D8 JUMP JUMPDEST PUSH1 0x40 MLOAD DUP1 SWAP2 SUB SWAP1 RETURN JUMPDEST PUSH2 0x1C8 PUSH2 0x724 JUMP JUMPDEST PUSH1 0x40 MLOAD PUSH2 0x1D5 SWAP2 SWAP1 PUSH2 0x180D JUMP JUMPDEST PUSH1 0x40 MLOAD DUP1 SWAP2 SUB SWAP1 RETURN JUMPDEST PUSH2 0x1E6 PUSH2 0x72A JUMP JUMPDEST PUSH1 0x40 MLOAD PUSH2 0x1F3 SWAP2 SWAP1 PUSH2 0x18D8 JUMP JUMPDEST PUSH1 0x40 MLOAD DUP1 SWAP2 SUB SWAP1 RETURN JUMPDEST PUSH2 0x216 PUSH1 0x4 DUP1 CALLDATASIZE SUB DUP2 ADD SWAP1 PUSH2 0x211 SWAP2 SWAP1 PUSH2 0x19E5 JUMP JUMPDEST PUSH2 0x730 JUMP JUMPDEST STOP JUMPDEST PUSH32 0x0 PUSH20 0xFFFFFFFFFFFFFFFFFFFFFFFFFFFFFFFFFFFFFFFF AND CALLER PUSH20 0xFFFFFFFFFFFFFFFFFFFFFFFFFFFFFFFFFFFFFFFF AND EQ PUSH2 0x29D JUMPI PUSH1 0x40 MLOAD PUSH32 0xC6829F8300000000000000000000000000000000000000000000000000000000 DUP2 MSTORE PUSH1 0x4 ADD PUSH1 0x40 MLOAD DUP1 SWAP2 SUB SWAP1 REVERT JUMPDEST PUSH2 0x2A8 DUP4 DUP4 DUP4 PUSH2 0x744 JUMP JUMPDEST DUP3 PUSH32 0x85E1543BF2F84FE80C6BADBCE3648C8539AD1DF4D2B3D822938CA0538BE727E6 PUSH1 0x40 MLOAD PUSH1 0x40 MLOAD DUP1 SWAP2 SUB SWAP1 LOG2 POP POP POP JUMP JUMPDEST PUSH0 PUSH2 0x2E3 PUSH2 0x82E JUMP JUMPDEST PUSH2 0x2EB PUSH2 0x14E7 JUMP JUMPDEST PUSH2 0x386 PUSH1 0x6 DUP1 SLOAD PUSH2 0x2FB SWAP1 PUSH2 0x1A3D JUMP JUMPDEST DUP1 PUSH1 0x1F ADD PUSH1 0x20 DUP1 SWAP2 DIV MUL PUSH1 0x20 ADD PUSH1 0x40 MLOAD SWAP1 DUP2 ADD PUSH1 0x40 MSTORE DUP1 SWAP3 SWAP2 SWAP1 DUP2 DUP2 MSTORE PUSH1 0x20 ADD DUP3 DUP1 SLOAD PUSH2 0x327 SWAP1 PUSH2 0x1A3D JUMP JUMPDEST DUP1 ISZERO PUSH2 0x372 JUMPI DUP1 PUSH1 0x1F LT PUSH2 0x349 JUMPI PUSH2 0x100 DUP1 DUP4 SLOAD DIV MUL DUP4 MSTORE SWAP2 PUSH1 0x20 ADD SWAP2 PUSH2 0x372 JUMP JUMPDEST DUP3 ADD SWAP2 SWAP1 PUSH0 MSTORE PUSH1 0x20 PUSH0 KECCAK256 SWAP1 JUMPDEST DUP2 SLOAD DUP2 MSTORE SWAP1 PUSH1 0x1 ADD SWAP1 PUSH1 0x20 ADD DUP1 DUP4 GT PUSH2 0x355 JUMPI DUP3 SWAP1 SUB PUSH1 0x1F AND DUP3 ADD SWAP2 JUMPDEST POP POP POP POP POP DUP3 PUSH2 0x8BD SWAP1 SWAP2 SWAP1 PUSH4 0xFFFFFFFF AND JUMP JUMPDEST PUSH2 0x3AD PUSH2 0x392 DUP3 PUSH2 0x8CD JUMP JUMPDEST DUP5 PUSH1 0x7 PUSH0 SWAP1 SLOAD SWAP1 PUSH2 0x100 EXP SWAP1 DIV PUSH4 0xFFFFFFFF AND PUSH1 0x8 SLOAD PUSH2 0xCDE JUMP JUMPDEST PUSH1 0x2 DUP2 SWAP1 SSTORE POP PUSH1 0x2 SLOAD SWAP2 POP POP SWAP2 SWAP1 POP JUMP JUMPDEST PUSH1 0x3 DUP1 SLOAD PUSH2 0x3CB SWAP1 PUSH2 0x1A3D JUMP JUMPDEST DUP1 PUSH1 0x1F ADD PUSH1 0x20 DUP1 SWAP2 DIV MUL PUSH1 0x20 ADD PUSH1 0x40 MLOAD SWAP1 DUP2 ADD PUSH1 0x40 MSTORE DUP1 SWAP3 SWAP2 SWAP1 DUP2 DUP2 MSTORE PUSH1 0x20 ADD DUP3 DUP1 SLOAD PUSH2 0x3F7 SWAP1 PUSH2 0x1A3D JUMP JUMPDEST DUP1 ISZERO PUSH2 0x442 JUMPI DUP1 PUSH1 0x1F LT PUSH2 0x419 JUMPI PUSH2 0x100 DUP1 DUP4 SLOAD DIV MUL DUP4 MSTORE SWAP2 PUSH1 0x20 ADD SWAP2 PUSH2 0x442 JUMP JUMPDEST DUP3 ADD SWAP2 SWAP1 PUSH0 MSTORE PUSH1 0x20 PUSH0 KECCAK256 SWAP1 JUMPDEST DUP2 SLOAD DUP2 MSTORE SWAP1 PUSH1 0x1 ADD SWAP1 PUSH1 0x20 ADD DUP1 DUP4 GT PUSH2 0x425 JUMPI DUP3 SWAP1 SUB PUSH1 0x1F AND DUP3 ADD SWAP2 JUMPDEST POP POP POP POP POP DUP2 JUMP JUMPDEST PUSH1 0xA SLOAD DUP2 JUMP JUMPDEST PUSH1 0x4 DUP1 SLOAD PUSH2 0x45D SWAP1 PUSH2 0x1A3D JUMP JUMPDEST DUP1 PUSH1 0x1F ADD PUSH1 0x20 DUP1 SWAP2 DIV MUL PUSH1 0x20 ADD PUSH1 0x40 MLOAD SWAP1 DUP2 ADD PUSH1 0x40 MSTORE DUP1 SWAP3 SWAP2 SWAP1 DUP2 DUP2 MSTORE PUSH1 0x20 ADD DUP3 DUP1 SLOAD PUSH2 0x489 SWAP1 PUSH2 0x1A3D JUMP JUMPDEST DUP1 ISZERO PUSH2 0x4D4 JUMPI DUP1 PUSH1 0x1F LT PUSH2 0x4AB JUMPI PUSH2 0x100 DUP1 DUP4 SLOAD DIV MUL DUP4 MSTORE SWAP2 PUSH1 0x20 ADD SWAP2 PUSH2 0x4D4 JUMP JUMPDEST DUP3 ADD SWAP2 SWAP1 PUSH0 MSTORE PUSH1 0x20 PUSH0 KECCAK256 SWAP1 JUMPDEST DUP2 SLOAD DUP2 MSTORE SWAP1 PUSH1 0x1 ADD SWAP1 PUSH1 0x20 ADD DUP1 DUP4 GT PUSH2 0x4B7 JUMPI DUP3 SWAP1 SUB PUSH1 0x1F AND DUP3 ADD SWAP2 JUMPDEST POP POP POP POP POP DUP2 JUMP JUMPDEST PUSH1 0x9 DUP1 SLOAD PUSH2 0x4E9 SWAP1 PUSH2 0x1A3D JUMP JUMPDEST DUP1 PUSH1 0x1F ADD PUSH1 0x20 DUP1 SWAP2 DIV MUL PUSH1 0x20 ADD PUSH1 0x40 MLOAD SWAP1 DUP2 ADD PUSH1 0x40 MSTORE DUP1 SWAP3 SWAP2 SWAP1 DUP2 DUP2 MSTORE PUSH1 0x20 ADD DUP3 DUP1 SLOAD PUSH2 0x515 SWAP1 PUSH2 0x1A3D JUMP JUMPDEST DUP1 ISZERO PUSH2 0x560 JUMPI DUP1 PUSH1 0x1F LT PUSH2 0x537 JUMPI PUSH2 0x100 DUP1 DUP4 SLOAD DIV MUL DUP4 MSTORE SWAP2 PUSH1 0x20 ADD SWAP2 PUSH2 0x560 JUMP JUMPDEST DUP3 ADD SWAP2 SWAP1 PUSH0 MSTORE PUSH1 0x20 PUSH0 KECCAK256 SWAP1 JUMPDEST DUP2 SLOAD DUP2 MSTORE SWAP1 PUSH1 0x1 ADD SWAP1 PUSH1 0x20 ADD DUP1 DUP4 GT PUSH2 0x543 JUMPI DUP3 SWAP1 SUB PUSH1 0x1F AND DUP3 ADD SWAP2 JUMPDEST POP POP POP POP POP DUP2 JUMP JUMPDEST PUSH1 0x1 PUSH0 SWAP1 SLOAD SWAP1 PUSH2 0x100 EXP SWAP1 DIV PUSH20 0xFFFFFFFFFFFFFFFFFFFFFFFFFFFFFFFFFFFFFFFF AND PUSH20 0xFFFFFFFFFFFFFFFFFFFFFFFFFFFFFFFFFFFFFFFF AND CALLER PUSH20 0xFFFFFFFFFFFFFFFFFFFFFFFFFFFFFFFFFFFFFFFF AND EQ PUSH2 0x5F7 JUMPI PUSH1 0x40 MLOAD PUSH32 0x8C379A000000000000000000000000000000000000000000000000000000000 DUP2 MSTORE PUSH1 0x4 ADD PUSH2 0x5EE SWAP1 PUSH2 0x1AB7 JUMP JUMPDEST PUSH1 0x40 MLOAD DUP1 SWAP2 SUB SWAP1 REVERT JUMPDEST PUSH0 DUP1 PUSH0 SWAP1 SLOAD SWAP1 PUSH2 0x100 EXP SWAP1 DIV PUSH20 0xFFFFFFFFFFFFFFFFFFFFFFFFFFFFFFFFFFFFFFFF AND SWAP1 POP CALLER PUSH0 DUP1 PUSH2 0x100 EXP DUP2 SLOAD DUP2 PUSH20 0xFFFFFFFFFFFFFFFFFFFFFFFFFFFFFFFFFFFFFFFF MUL NOT AND SWAP1 DUP4 PUSH20 0xFFFFFFFFFFFFFFFFFFFFFFFFFFFFFFFFFFFFFFFF AND MUL OR SWAP1 SSTORE POP PUSH0 PUSH1 0x1 PUSH0 PUSH2 0x100 EXP DUP2 SLOAD DUP2 PUSH20 0xFFFFFFFFFFFFFFFFFFFFFFFFFFFFFFFFFFFFFFFF MUL NOT AND SWAP1 DUP4 PUSH20 0xFFFFFFFFFFFFFFFFFFFFFFFFFFFFFFFFFFFFFFFF AND MUL OR SWAP1 SSTORE POP CALLER PUSH20 0xFFFFFFFFFFFFFFFFFFFFFFFFFFFFFFFFFFFFFFFF AND DUP2 PUSH20 0xFFFFFFFFFFFFFFFFFFFFFFFFFFFFFFFFFFFFFFFF AND PUSH32 0x8BE0079C531659141344CD1FD0A4F28419497F9722A3DAAFE3B4186F6B6457E0 PUSH1 0x40 MLOAD PUSH1 0x40 MLOAD DUP1 SWAP2 SUB SWAP1 LOG3 POP JUMP JUMPDEST PUSH0 DUP1 PUSH0 SWAP1 SLOAD SWAP1 PUSH2 0x100 EXP SWAP1 DIV PUSH20 0xFFFFFFFFFFFFFFFFFFFFFFFFFFFFFFFFFFFFFFFF AND SWAP1 POP SWAP1 JUMP JUMPDEST PUSH1 0xB SLOAD DUP2 JUMP JUMPDEST PUSH1 0x2 SLOAD DUP2 JUMP JUMPDEST PUSH1 0xC SLOAD DUP2 JUMP JUMPDEST PUSH2 0x738 PUSH2 0x82E JUMP JUMPDEST PUSH2 0x741 DUP2 PUSH2 0xDBD JUMP JUMPDEST POP JUMP JUMPDEST DUP3 PUSH1 0x2 SLOAD EQ PUSH2 0x78A JUMPI DUP3 PUSH1 0x40 MLOAD PUSH32 0xD068BF5B00000000000000000000000000000000000000000000000000000000 DUP2 MSTORE PUSH1 0x4 ADD PUSH2 0x781 SWAP2 SWAP1 PUSH2 0x180D JUMP JUMPDEST PUSH1 0x40 MLOAD DUP1 SWAP2 SUB SWAP1 REVERT JUMPDEST DUP2 DUP1 PUSH1 0x20 ADD SWAP1 MLOAD DUP2 ADD SWAP1 PUSH2 0x79E SWAP2 SWAP1 PUSH2 0x1B9D JUMP JUMPDEST PUSH1 0x9 PUSH0 PUSH1 0xA PUSH0 PUSH1 0xB PUSH0 PUSH1 0xC PUSH0 DUP9 SWAP2 SWAP1 POP SSTORE DUP8 SWAP2 SWAP1 POP SSTORE DUP7 SWAP2 SWAP1 POP SSTORE DUP6 SWAP2 SWAP1 POP SWAP1 DUP2 PUSH2 0x7C9 SWAP2 SWAP1 PUSH2 0x1DBA JUMP JUMPDEST POP POP POP POP POP DUP1 PUSH1 0x4 SWAP1 DUP2 PUSH2 0x7DD SWAP2 SWAP1 PUSH2 0x1EE1 JUMP JUMPDEST POP DUP3 PUSH32 0x7CEE4EEECCE4C378BCABAC3921FE1EE240F2F7A24775769790937E3A8165C07 PUSH1 0x9 PUSH1 0xA SLOAD PUSH1 0xB SLOAD PUSH1 0xC SLOAD PUSH1 0x3 PUSH1 0x4 PUSH1 0x40 MLOAD PUSH2 0x821 SWAP7 SWAP6 SWAP5 SWAP4 SWAP3 SWAP2 SWAP1 PUSH2 0x20B2 JUMP JUMPDEST PUSH1 0x40 MLOAD DUP1 SWAP2 SUB SWAP1 LOG2 POP POP POP JUMP JUMPDEST PUSH0 DUP1 SLOAD SWAP1 PUSH2 0x100 EXP SWAP1 DIV PUSH20 0xFFFFFFFFFFFFFFFFFFFFFFFFFFFFFFFFFFFFFFFF AND PUSH20 0xFFFFFFFFFFFFFFFFFFFFFFFFFFFFFFFFFFFFFFFF AND CALLER PUSH20 0xFFFFFFFFFFFFFFFFFFFFFFFFFFFFFFFFFFFFFFFF AND EQ PUSH2 0x8BB JUMPI PUSH1 0x40 MLOAD PUSH32 0x8C379A000000000000000000000000000000000000000000000000000000000 DUP2 MSTORE PUSH1 0x4 ADD PUSH2 0x8B2 SWAP1 PUSH2 0x2170 JUMP JUMPDEST PUSH1 0x40 MLOAD DUP1 SWAP2 SUB SWAP1 REVERT JUMPDEST JUMP JUMPDEST PUSH2 0x8C9 DUP3 PUSH0 DUP1 DUP5 PUSH2 0xEE7 JUMP JUMPDEST POP POP JUMP JUMPDEST PUSH1 0x60 PUSH0 PUSH2 0x8DB PUSH2 0x100 PUSH2 0xF8D JUMP JUMPDEST SWAP1 POP PUSH2 0x925 PUSH1 0x40 MLOAD DUP1 PUSH1 0x40 ADD PUSH1 0x40 MSTORE DUP1 PUSH1 0xC DUP2 MSTORE PUSH1 0x20 ADD PUSH32 0x636F64654C6F636174696F6E0000000000000000000000000000000000000000 DUP2 MSTORE POP DUP3 PUSH2 0xFB2 SWAP1 SWAP2 SWAP1 PUSH4 0xFFFFFFFF AND JUMP JUMPDEST PUSH2 0x94D DUP4 PUSH0 ADD MLOAD PUSH1 0x2 DUP2 GT ISZERO PUSH2 0x93E JUMPI PUSH2 0x93D PUSH2 0x218E JUMP JUMPDEST JUMPDEST DUP3 PUSH2 0xFDA SWAP1 SWAP2 SWAP1 PUSH4 0xFFFFFFFF AND JUMP JUMPDEST PUSH2 0x995 PUSH1 0x40 MLOAD DUP1 PUSH1 0x40 ADD PUSH1 0x40 MSTORE DUP1 PUSH1 0x8 DUP2 MSTORE PUSH1 0x20 ADD PUSH32 0x6C616E6775616765000000000000000000000000000000000000000000000000 DUP2 MSTORE POP DUP3 PUSH2 0xFB2 SWAP1 SWAP2 SWAP1 PUSH4 0xFFFFFFFF AND JUMP JUMPDEST PUSH2 0x9BD DUP4 PUSH1 0x40 ADD MLOAD PUSH0 DUP2 GT ISZERO PUSH2 0x9AE JUMPI PUSH2 0x9AD PUSH2 0x218E JUMP JUMPDEST JUMPDEST DUP3 PUSH2 0xFDA SWAP1 SWAP2 SWAP1 PUSH4 0xFFFFFFFF AND JUMP JUMPDEST PUSH2 0xA05 PUSH1 0x40 MLOAD DUP1 PUSH1 0x40 ADD PUSH1 0x40 MSTORE DUP1 PUSH1 0x6 DUP2 MSTORE PUSH1 0x20 ADD PUSH32 0x736F757263650000000000000000000000000000000000000000000000000000 DUP2 MSTORE POP DUP3 PUSH2 0xFB2 SWAP1 SWAP2 SWAP1 PUSH4 0xFFFFFFFF AND JUMP JUMPDEST PUSH2 0xA1C DUP4 PUSH1 0x60 ADD MLOAD DUP3 PUSH2 0xFB2 SWAP1 SWAP2 SWAP1 PUSH4 0xFFFFFFFF AND JUMP JUMPDEST PUSH0 DUP4 PUSH1 0xA0 ADD MLOAD MLOAD GT ISZERO PUSH2 0xAD6 JUMPI PUSH2 0xA71 PUSH1 0x40 MLOAD DUP1 PUSH1 0x40 ADD PUSH1 0x40 MSTORE DUP1 PUSH1 0x4 DUP2 MSTORE PUSH1 0x20 ADD PUSH32 0x6172677300000000000000000000000000000000000000000000000000000000 DUP2 MSTORE POP DUP3 PUSH2 0xFB2 SWAP1 SWAP2 SWAP1 PUSH4 0xFFFFFFFF AND JUMP JUMPDEST PUSH2 0xA7A DUP2 PUSH2 0x1029 JUMP JUMPDEST PUSH0 JUMPDEST DUP4 PUSH1 0xA0 ADD MLOAD MLOAD DUP2 LT ISZERO PUSH2 0xACB JUMPI PUSH2 0xABA DUP5 PUSH1 0xA0 ADD MLOAD DUP3 DUP2 MLOAD DUP2 LT PUSH2 0xAA3 JUMPI PUSH2 0xAA2 PUSH2 0x21BB JUMP JUMPDEST JUMPDEST PUSH1 0x20 MUL PUSH1 0x20 ADD ADD MLOAD DUP4 PUSH2 0xFB2 SWAP1 SWAP2 SWAP1 PUSH4 0xFFFFFFFF AND JUMP JUMPDEST DUP1 PUSH2 0xAC4 SWAP1 PUSH2 0x2215 JUMP JUMPDEST SWAP1 POP PUSH2 0xA7C JUMP JUMPDEST POP PUSH2 0xAD5 DUP2 PUSH2 0x1051 JUMP JUMPDEST JUMPDEST PUSH0 DUP4 PUSH1 0x80 ADD MLOAD MLOAD GT ISZERO PUSH2 0xC15 JUMPI PUSH0 PUSH1 0x2 DUP2 GT ISZERO PUSH2 0xAF6 JUMPI PUSH2 0xAF5 PUSH2 0x218E JUMP JUMPDEST JUMPDEST DUP4 PUSH1 0x20 ADD MLOAD PUSH1 0x2 DUP2 GT ISZERO PUSH2 0xB0D JUMPI PUSH2 0xB0C PUSH2 0x218E JUMP JUMPDEST JUMPDEST SUB PUSH2 0xB44 JUMPI PUSH1 0x40 MLOAD PUSH32 0xA80D31F700000000000000000000000000000000000000000000000000000000 DUP2 MSTORE PUSH1 0x4 ADD PUSH1 0x40 MLOAD DUP1 SWAP2 SUB SWAP1 REVERT JUMPDEST PUSH2 0xB8C PUSH1 0x40 MLOAD DUP1 PUSH1 0x40 ADD PUSH1 0x40 MSTORE DUP1 PUSH1 0xF DUP2 MSTORE PUSH1 0x20 ADD PUSH32 0x736563726574734C6F636174696F6E0000000000000000000000000000000000 DUP2 MSTORE POP DUP3 PUSH2 0xFB2 SWAP1 SWAP2 SWAP1 PUSH4 0xFFFFFFFF AND JUMP JUMPDEST PUSH2 0xBB5 DUP4 PUSH1 0x20 ADD MLOAD PUSH1 0x2 DUP2 GT ISZERO PUSH2 0xBA6 JUMPI PUSH2 0xBA5 PUSH2 0x218E JUMP JUMPDEST JUMPDEST DUP3 PUSH2 0xFDA SWAP1 SWAP2 SWAP1 PUSH4 0xFFFFFFFF AND JUMP JUMPDEST PUSH2 0xBFD PUSH1 0x40 MLOAD DUP1 PUSH1 0x40 ADD PUSH1 0x40 MSTORE DUP1 PUSH1 0x7 DUP2 MSTORE PUSH1 0x20 ADD PUSH32 0x7365637265747300000000000000000000000000000000000000000000000000 DUP2 MSTORE POP DUP3 PUSH2 0xFB2 SWAP1 SWAP2 SWAP1 PUSH4 0xFFFFFFFF AND JUMP JUMPDEST PUSH2 0xC14 DUP4 PUSH1 0x80 ADD MLOAD DUP3 PUSH2 0x1079 SWAP1 SWAP2 SWAP1 PUSH4 0xFFFFFFFF AND JUMP JUMPDEST JUMPDEST PUSH0 DUP4 PUSH1 0xC0 ADD MLOAD MLOAD GT ISZERO PUSH2 0xCCF JUMPI PUSH2 0xC6A PUSH1 0x40 MLOAD DUP1 PUSH1 0x40 ADD PUSH1 0x40 MSTORE DUP1 PUSH1 0x9 DUP2 MSTORE PUSH1 0x20 ADD PUSH32 0x6279746573417267730000000000000000000000000000000000000000000000 DUP2 MSTORE POP DUP3 PUSH2 0xFB2 SWAP1 SWAP2 SWAP1 PUSH4 0xFFFFFFFF AND JUMP JUMPDEST PUSH2 0xC73 DUP2 PUSH2 0x1029 JUMP JUMPDEST PUSH0 JUMPDEST DUP4 PUSH1 0xC0 ADD MLOAD MLOAD DUP2 LT ISZERO PUSH2 0xCC4 JUMPI PUSH2 0xCB3 DUP5 PUSH1 0xC0 ADD MLOAD DUP3 DUP2 MLOAD DUP2 LT PUSH2 0xC9C JUMPI PUSH2 0xC9B PUSH2 0x21BB JUMP JUMPDEST JUMPDEST PUSH1 0x20 MUL PUSH1 0x20 ADD ADD MLOAD DUP4 PUSH2 0x1079 SWAP1 SWAP2 SWAP1 PUSH4 0xFFFFFFFF AND JUMP JUMPDEST DUP1 PUSH2 0xCBD SWAP1 PUSH2 0x2215 JUMP JUMPDEST SWAP1 POP PUSH2 0xC75 JUMP JUMPDEST POP PUSH2 0xCCE DUP2 PUSH2 0x1051 JUMP JUMPDEST JUMPDEST DUP1 PUSH0 ADD MLOAD PUSH0 ADD MLOAD SWAP2 POP POP SWAP2 SWAP1 POP JUMP JUMPDEST PUSH0 DUP1 PUSH32 0x0 PUSH20 0xFFFFFFFFFFFFFFFFFFFFFFFFFFFFFFFFFFFFFFFF AND PUSH4 0x461D2762 DUP7 DUP9 PUSH1 0x1 DUP9 DUP9 PUSH1 0x40 MLOAD DUP7 PUSH4 0xFFFFFFFF AND PUSH1 0xE0 SHL DUP2 MSTORE PUSH1 0x4 ADD PUSH2 0xD42 SWAP6 SWAP5 SWAP4 SWAP3 SWAP2 SWAP1 PUSH2 0x22A5 JUMP JUMPDEST PUSH1 0x20 PUSH1 0x40 MLOAD DUP1 DUP4 SUB DUP2 PUSH0 DUP8 GAS CALL ISZERO DUP1 ISZERO PUSH2 0xD5E JUMPI RETURNDATASIZE PUSH0 DUP1 RETURNDATACOPY RETURNDATASIZE PUSH0 REVERT JUMPDEST POP POP POP POP PUSH1 0x40 MLOAD RETURNDATASIZE PUSH1 0x1F NOT PUSH1 0x1F DUP3 ADD AND DUP3 ADD DUP1 PUSH1 0x40 MSTORE POP DUP2 ADD SWAP1 PUSH2 0xD82 SWAP2 SWAP1 PUSH2 0x2311 JUMP JUMPDEST SWAP1 POP DUP1 PUSH32 0x1131472297A800FEE664D1D89CFA8F7676FF07189ECC53F80BBB5F4969099DB8 PUSH1 0x40 MLOAD PUSH1 0x40 MLOAD DUP1 SWAP2 SUB SWAP1 LOG2 DUP1 SWAP2 POP POP SWAP5 SWAP4 POP POP POP POP JUMP JUMPDEST CALLER PUSH20 0xFFFFFFFFFFFFFFFFFFFFFFFFFFFFFFFFFFFFFFFF AND DUP2 PUSH20 0xFFFFFFFFFFFFFFFFFFFFFFFFFFFFFFFFFFFFFFFF AND SUB PUSH2 0xE2B JUMPI PUSH1 0x40 MLOAD PUSH32 0x8C379A000000000000000000000000000000000000000000000000000000000 DUP2 MSTORE PUSH1 0x4 ADD PUSH2 0xE22 SWAP1 PUSH2 0x2386 JUMP JUMPDEST PUSH1 0x40 MLOAD DUP1 SWAP2 SUB SWAP1 REVERT JUMPDEST DUP1 PUSH1 0x1 PUSH0 PUSH2 0x100 EXP DUP2 SLOAD DUP2 PUSH20 0xFFFFFFFFFFFFFFFFFFFFFFFFFFFFFFFFFFFFFFFF MUL NOT AND SWAP1 DUP4 PUSH20 0xFFFFFFFFFFFFFFFFFFFFFFFFFFFFFFFFFFFFFFFF AND MUL OR SWAP1 SSTORE POP DUP1 PUSH20 0xFFFFFFFFFFFFFFFFFFFFFFFFFFFFFFFFFFFFFFFF AND PUSH0 DUP1 SLOAD SWAP1 PUSH2 0x100 EXP SWAP1 DIV PUSH20 0xFFFFFFFFFFFFFFFFFFFFFFFFFFFFFFFFFFFFFFFF AND PUSH20 0xFFFFFFFFFFFFFFFFFFFFFFFFFFFFFFFFFFFFFFFF AND PUSH32 0xED8889F560326EB138920D842192F0EB3DD22B4F139C87A2C57538E05BAE1278 PUSH1 0x40 MLOAD PUSH1 0x40 MLOAD DUP1 SWAP2 SUB SWAP1 LOG3 POP JUMP JUMPDEST PUSH0 DUP2 MLOAD SUB PUSH2 0xF21 JUMPI PUSH1 0x40 MLOAD PUSH32 0x22CE3EDD00000000000000000000000000000000000000000000000000000000 DUP2 MSTORE PUSH1 0x4 ADD PUSH1 0x40 MLOAD DUP1 SWAP2 SUB SWAP1 REVERT JUMPDEST DUP3 DUP5 PUSH0 ADD SWAP1 PUSH1 0x2 DUP2 GT ISZERO PUSH2 0xF38 JUMPI PUSH2 0xF37 PUSH2 0x218E JUMP JUMPDEST JUMPDEST SWAP1 DUP2 PUSH1 0x2 DUP2 GT ISZERO PUSH2 0xF4C JUMPI PUSH2 0xF4B PUSH2 0x218E JUMP JUMPDEST JUMPDEST DUP2 MSTORE POP POP DUP2 DUP5 PUSH1 0x40 ADD SWAP1 PUSH0 DUP2 GT ISZERO PUSH2 0xF67 JUMPI PUSH2 0xF66 PUSH2 0x218E JUMP JUMPDEST JUMPDEST SWAP1 DUP2 PUSH0 DUP2 GT ISZERO PUSH2 0xF7A JUMPI PUSH2 0xF79 PUSH2 0x218E JUMP JUMPDEST JUMPDEST DUP2 MSTORE POP POP DUP1 DUP5 PUSH1 0x60 ADD DUP2 SWAP1 MSTORE POP POP POP POP POP JUMP JUMPDEST PUSH2 0xF95 PUSH2 0x1556 JUMP JUMPDEST PUSH2 0xFA2 DUP2 PUSH0 ADD MLOAD DUP4 PUSH2 0x10A1 JUMP JUMPDEST POP PUSH0 DUP2 PUSH1 0x20 ADD DUP2 DUP2 MSTORE POP POP SWAP2 SWAP1 POP JUMP JUMPDEST PUSH2 0xFBF DUP3 PUSH1 0x3 DUP4 MLOAD PUSH2 0x1117 JUMP JUMPDEST PUSH2 0xFD5 DUP2 DUP4 PUSH0 ADD MLOAD PUSH2 0x12B7 SWAP1 SWAP2 SWAP1 PUSH4 0xFFFFFFFF AND JUMP JUMPDEST POP POP POP JUMP JUMPDEST PUSH2 0xFFB PUSH1 0x2 PUSH1 0x5 PUSH1 0x6 PUSH1 0xFF AND SWAP1 SHL OR DUP4 PUSH0 ADD MLOAD PUSH2 0x12D3 SWAP1 SWAP2 SWAP1 PUSH4 0xFFFFFFFF AND JUMP JUMPDEST POP PUSH2 0x1025 DUP3 DUP3 PUSH1 0x40 MLOAD PUSH1 0x20 ADD PUSH2 0x1011 SWAP2 SWAP1 PUSH2 0x18D8 JUMP JUMPDEST PUSH1 0x40 MLOAD PUSH1 0x20 DUP2 DUP4 SUB SUB DUP2 MSTORE SWAP1 PUSH1 0x40 MSTORE PUSH2 0x1079 JUMP JUMPDEST POP POP JUMP JUMPDEST PUSH2 0x1034 DUP2 PUSH1 0x4 PUSH2 0x133A JUMP JUMPDEST PUSH1 0x1 DUP2 PUSH1 0x20 ADD DUP2 DUP2 MLOAD PUSH2 0x1047 SWAP2 SWAP1 PUSH2 0x23A4 JUMP JUMPDEST SWAP2 POP DUP2 DUP2 MSTORE POP POP POP JUMP JUMPDEST PUSH2 0x105C DUP2 PUSH1 0x7 PUSH2 0x133A JUMP JUMPDEST PUSH1 0x1 DUP2 PUSH1 0x20 ADD DUP2 DUP2 MLOAD PUSH2 0x106F SWAP2 SWAP1 PUSH2 0x23D7 JUMP JUMPDEST SWAP2 POP DUP2 DUP2 MSTORE POP POP POP JUMP JUMPDEST PUSH2 0x1086 DUP3 PUSH1 0x2 DUP4 MLOAD PUSH2 0x1117 JUMP JUMPDEST PUSH2 0x109C DUP2 DUP4 PUSH0 ADD MLOAD PUSH2 0x12B7 SWAP1 SWAP2 SWAP1 PUSH4 0xFFFFFFFF AND JUMP JUMPDEST POP POP POP JUMP JUMPDEST PUSH2 0x10A9 PUSH2 0x1575 JUMP JUMPDEST PUSH0 PUSH1 0x20 DUP4 PUSH2 0x10B7 SWAP2 SWAP1 PUSH2 0x2437 JUMP JUMPDEST EQ PUSH2 0x10E3 JUMPI PUSH1 0x20 DUP3 PUSH2 0x10C9 SWAP2 SWAP1 PUSH2 0x2437 JUMP JUMPDEST PUSH1 0x20 PUSH2 0x10D5 SWAP2 SWAP1 PUSH2 0x23D7 JUMP JUMPDEST DUP3 PUSH2 0x10E0 SWAP2 SWAP1 PUSH2 0x23A4 JUMP JUMPDEST SWAP2 POP JUMPDEST DUP2 DUP4 PUSH1 0x20 ADD DUP2 DUP2 MSTORE POP POP PUSH1 0x40 MLOAD DUP1 DUP5 MSTORE PUSH0 DUP2 MSTORE DUP3 DUP2 ADD PUSH1 0x20 ADD DUP2 DUP2 LT ISZERO PUSH2 0x1108 JUMPI PUSH0 DUP1 REVERT JUMPDEST DUP1 PUSH1 0x40 MSTORE POP POP DUP3 SWAP1 POP SWAP3 SWAP2 POP POP JUMP JUMPDEST PUSH1 0x17 DUP2 PUSH8 0xFFFFFFFFFFFFFFFF AND GT PUSH2 0x1151 JUMPI PUSH2 0x114B DUP2 PUSH1 0x5 DUP5 PUSH1 0xFF AND SWAP1 SHL PUSH1 0xFF AND OR DUP5 PUSH0 ADD MLOAD PUSH2 0x12D3 SWAP1 SWAP2 SWAP1 PUSH4 0xFFFFFFFF AND JUMP JUMPDEST POP PUSH2 0x12B2 JUMP JUMPDEST PUSH1 0xFF DUP2 PUSH8 0xFFFFFFFFFFFFFFFF AND GT PUSH2 0x11AD JUMPI PUSH2 0x1183 PUSH1 0x18 PUSH1 0x5 DUP5 PUSH1 0xFF AND SWAP1 SHL OR DUP5 PUSH0 ADD MLOAD PUSH2 0x12D3 SWAP1 SWAP2 SWAP1 PUSH4 0xFFFFFFFF AND JUMP JUMPDEST POP PUSH2 0x11A7 DUP2 PUSH8 0xFFFFFFFFFFFFFFFF AND PUSH1 0x1 DUP6 PUSH0 ADD MLOAD PUSH2 0x135F SWAP1 SWAP3 SWAP2 SWAP1 PUSH4 0xFFFFFFFF AND JUMP JUMPDEST POP PUSH2 0x12B1 JUMP JUMPDEST PUSH2 0xFFFF DUP2 PUSH8 0xFFFFFFFFFFFFFFFF AND GT PUSH2 0x120A JUMPI PUSH2 0x11E0 PUSH1 0x19 PUSH1 0x5 DUP5 PUSH1 0xFF AND SWAP1 SHL OR DUP5 PUSH0 ADD MLOAD PUSH2 0x12D3 SWAP1 SWAP2 SWAP1 PUSH4 0xFFFFFFFF AND JUMP JUMPDEST POP PUSH2 0x1204 DUP2 PUSH8 0xFFFFFFFFFFFFFFFF AND PUSH1 0x2 DUP6 PUSH0 ADD MLOAD PUSH2 0x135F SWAP1 SWAP3 SWAP2 SWAP1 PUSH4 0xFFFFFFFF AND JUMP JUMPDEST POP PUSH2 0x12B0 JUMP JUMPDEST PUSH4 0xFFFFFFFF DUP2 PUSH8 0xFFFFFFFFFFFFFFFF AND GT PUSH2 0x1269 JUMPI PUSH2 0x123F PUSH1 0x1A PUSH1 0x5 DUP5 PUSH1 0xFF AND SWAP1 SHL OR DUP5 PUSH0 ADD MLOAD PUSH2 0x12D3 SWAP1 SWAP2 SWAP1 PUSH4 0xFFFFFFFF AND JUMP JUMPDEST POP PUSH2 0x1263 DUP2 PUSH8 0xFFFFFFFFFFFFFFFF AND PUSH1 0x4 DUP6 PUSH0 ADD MLOAD PUSH2 0x135F SWAP1 SWAP3 SWAP2 SWAP1 PUSH4 0xFFFFFFFF AND JUMP JUMPDEST POP PUSH2 0x12AF JUMP JUMPDEST PUSH2 0x1289 PUSH1 0x1B PUSH1 0x5 DUP5 PUSH1 0xFF AND SWAP1 SHL OR DUP5 PUSH0 ADD MLOAD PUSH2 0x12D3 SWAP1 SWAP2 SWAP1 PUSH4 0xFFFFFFFF AND JUMP JUMPDEST POP PUSH2 0x12AD DUP2 PUSH8 0xFFFFFFFFFFFFFFFF AND PUSH1 0x8 DUP6 PUSH0 ADD MLOAD PUSH2 0x135F SWAP1 SWAP3 SWAP2 SWAP1 PUSH4 0xFFFFFFFF AND JUMP JUMPDEST POP JUMPDEST JUMPDEST JUMPDEST JUMPDEST POP POP POP JUMP JUMPDEST PUSH2 0x12BF PUSH2 0x1575 JUMP JUMPDEST PUSH2 0x12CB DUP4 DUP4 DUP5 MLOAD PUSH2 0x13E8 JUMP JUMPDEST SWAP1 POP SWAP3 SWAP2 POP POP JUMP JUMPDEST PUSH2 0x12DB PUSH2 0x1575 JUMP JUMPDEST PUSH0 DUP4 PUSH0 ADD MLOAD MLOAD SWAP1 POP PUSH0 PUSH1 0x1 DUP3 PUSH2 0x12F1 SWAP2 SWAP1 PUSH2 0x23A4 JUMP JUMPDEST SWAP1 POP DUP5 PUSH1 0x20 ADD MLOAD DUP3 LT PUSH2 0x1315 JUMPI PUSH2 0x1314 DUP6 PUSH1 0x2 DUP4 PUSH2 0x130F SWAP2 SWAP1 PUSH2 0x2467 JUMP JUMPDEST PUSH2 0x14C5 JUMP JUMPDEST JUMPDEST DUP5 MLOAD PUSH1 0x20 DUP4 DUP3 ADD ADD DUP6 DUP2 MSTORE8 DUP2 MLOAD DUP4 GT ISZERO PUSH2 0x132D JUMPI DUP3 DUP3 MSTORE JUMPDEST POP POP DUP5 SWAP3 POP POP POP SWAP3 SWAP2 POP POP JUMP JUMPDEST PUSH2 0x135A PUSH1 0x1F PUSH1 0x5 DUP4 PUSH1 0xFF AND SWAP1 SHL OR DUP4 PUSH0 ADD MLOAD PUSH2 0x12D3 SWAP1 SWAP2 SWAP1 PUSH4 0xFFFFFFFF AND JUMP JUMPDEST POP POP POP JUMP JUMPDEST PUSH2 0x1367 PUSH2 0x1575 JUMP JUMPDEST PUSH0 DUP5 PUSH0 ADD MLOAD MLOAD SWAP1 POP PUSH0 DUP2 DUP5 PUSH2 0x137C SWAP2 SWAP1 PUSH2 0x23A4 JUMP JUMPDEST SWAP1 POP DUP6 PUSH1 0x20 ADD MLOAD DUP2 GT ISZERO PUSH2 0x13A1 JUMPI PUSH2 0x13A0 DUP7 PUSH1 0x2 DUP4 PUSH2 0x139B SWAP2 SWAP1 PUSH2 0x2467 JUMP JUMPDEST PUSH2 0x14C5 JUMP JUMPDEST JUMPDEST PUSH0 PUSH1 0x1 DUP6 PUSH2 0x100 PUSH2 0x13B2 SWAP2 SWAP1 PUSH2 0x25D7 JUMP JUMPDEST PUSH2 0x13BC SWAP2 SWAP1 PUSH2 0x23D7 JUMP JUMPDEST SWAP1 POP DUP7 MLOAD DUP3 DUP2 ADD DUP8 DUP4 NOT DUP3 MLOAD AND OR DUP2 MSTORE DUP2 MLOAD DUP5 GT ISZERO PUSH2 0x13D9 JUMPI DUP4 DUP3 MSTORE JUMPDEST POP POP DUP7 SWAP4 POP POP POP POP SWAP4 SWAP3 POP POP POP JUMP JUMPDEST PUSH2 0x13F0 PUSH2 0x1575 JUMP JUMPDEST DUP3 MLOAD DUP3 GT ISZERO PUSH2 0x13FD JUMPI PUSH0 DUP1 REVERT JUMPDEST PUSH0 DUP5 PUSH0 ADD MLOAD MLOAD SWAP1 POP PUSH0 DUP4 DUP3 PUSH2 0x1412 SWAP2 SWAP1 PUSH2 0x23A4 JUMP JUMPDEST SWAP1 POP DUP6 PUSH1 0x20 ADD MLOAD DUP2 GT ISZERO PUSH2 0x1437 JUMPI PUSH2 0x1436 DUP7 PUSH1 0x2 DUP4 PUSH2 0x1431 SWAP2 SWAP1 PUSH2 0x2467 JUMP JUMPDEST PUSH2 0x14C5 JUMP JUMPDEST JUMPDEST PUSH0 DUP1 DUP8 MLOAD DUP1 MLOAD DUP6 PUSH1 0x20 DUP4 ADD ADD SWAP4 POP DUP1 DUP6 GT ISZERO PUSH2 0x1451 JUMPI DUP5 DUP3 MSTORE JUMPDEST PUSH1 0x20 DUP10 ADD SWAP3 POP POP POP JUMPDEST PUSH1 0x20 DUP7 LT PUSH2 0x1498 JUMPI DUP1 MLOAD DUP3 MSTORE PUSH1 0x20 DUP3 PUSH2 0x1473 SWAP2 SWAP1 PUSH2 0x23A4 JUMP JUMPDEST SWAP2 POP PUSH1 0x20 DUP2 PUSH2 0x1482 SWAP2 SWAP1 PUSH2 0x23A4 JUMP JUMPDEST SWAP1 POP PUSH1 0x20 DUP7 PUSH2 0x1491 SWAP2 SWAP1 PUSH2 0x23D7 JUMP JUMPDEST SWAP6 POP PUSH2 0x145A JUMP JUMPDEST PUSH0 PUSH1 0x1 DUP8 PUSH1 0x20 SUB PUSH2 0x100 EXP SUB SWAP1 POP DUP1 NOT DUP3 MLOAD AND DUP2 DUP5 MLOAD AND DUP2 DUP2 OR DUP6 MSTORE POP POP POP DUP8 SWAP5 POP POP POP POP POP SWAP4 SWAP3 POP POP POP JUMP JUMPDEST PUSH0 DUP3 PUSH0 ADD MLOAD SWAP1 POP PUSH2 0x14D6 DUP4 DUP4 PUSH2 0x10A1 JUMP JUMPDEST POP PUSH2 0x14E1 DUP4 DUP3 PUSH2 0x12B7 JUMP JUMPDEST POP POP POP POP JUMP JUMPDEST PUSH1 0x40 MLOAD DUP1 PUSH1 0xE0 ADD PUSH1 0x40 MSTORE DUP1 PUSH0 PUSH1 0x2 DUP2 GT ISZERO PUSH2 0x1505 JUMPI PUSH2 0x1504 PUSH2 0x218E JUMP JUMPDEST JUMPDEST DUP2 MSTORE PUSH1 0x20 ADD PUSH0 PUSH1 0x2 DUP2 GT ISZERO PUSH2 0x151D JUMPI PUSH2 0x151C PUSH2 0x218E JUMP JUMPDEST JUMPDEST DUP2 MSTORE PUSH1 0x20 ADD PUSH0 DUP1 DUP2 GT ISZERO PUSH2 0x1534 JUMPI PUSH2 0x1533 PUSH2 0x218E JUMP JUMPDEST JUMPDEST DUP2 MSTORE PUSH1 0x20 ADD PUSH1 0x60 DUP2 MSTORE PUSH1 0x20 ADD PUSH1 0x60 DUP2 MSTORE PUSH1 0x20 ADD PUSH1 0x60 DUP2 MSTORE PUSH1 0x20 ADD PUSH1 0x60 DUP2 MSTORE POP SWAP1 JUMP JUMPDEST PUSH1 0x40 MLOAD DUP1 PUSH1 0x40 ADD PUSH1 0x40 MSTORE DUP1 PUSH2 0x1569 PUSH2 0x1575 JUMP JUMPDEST DUP2 MSTORE PUSH1 0x20 ADD PUSH0 DUP2 MSTORE POP SWAP1 JUMP JUMPDEST PUSH1 0x40 MLOAD DUP1 PUSH1 0x40 ADD PUSH1 0x40 MSTORE DUP1 PUSH1 0x60 DUP2 MSTORE PUSH1 0x20 ADD PUSH0 DUP2 MSTORE POP SWAP1 JUMP JUMPDEST PUSH0 PUSH1 0x40 MLOAD SWAP1 POP SWAP1 JUMP JUMPDEST PUSH0 DUP1 REVERT JUMPDEST PUSH0 DUP1 REVERT JUMPDEST PUSH0 DUP2 SWAP1 POP SWAP2 SWAP1 POP JUMP JUMPDEST PUSH2 0x15B1 DUP2 PUSH2 0x159F JUMP JUMPDEST DUP2 EQ PUSH2 0x15BB JUMPI PUSH0 DUP1 REVERT JUMPDEST POP JUMP JUMPDEST PUSH0 DUP2 CALLDATALOAD SWAP1 POP PUSH2 0x15CC DUP2 PUSH2 0x15A8 JUMP JUMPDEST SWAP3 SWAP2 POP POP JUMP JUMPDEST PUSH0 DUP1 REVERT JUMPDEST PUSH0 DUP1 REVERT JUMPDEST PUSH0 PUSH1 0x1F NOT PUSH1 0x1F DUP4 ADD AND SWAP1 POP SWAP2 SWAP1 POP JUMP JUMPDEST PUSH32 0x4E487B7100000000000000000000000000000000000000000000000000000000 PUSH0 MSTORE PUSH1 0x41 PUSH1 0x4 MSTORE PUSH1 0x24 PUSH0 REVERT JUMPDEST PUSH2 0x1620 DUP3 PUSH2 0x15DA JUMP JUMPDEST DUP2 ADD DUP2 DUP2 LT PUSH8 0xFFFFFFFFFFFFFFFF DUP3 GT OR ISZERO PUSH2 0x163F JUMPI PUSH2 0x163E PUSH2 0x15EA JUMP JUMPDEST JUMPDEST DUP1 PUSH1 0x40 MSTORE POP POP POP JUMP JUMPDEST PUSH0 PUSH2 0x1651 PUSH2 0x158E JUMP JUMPDEST SWAP1 POP PUSH2 0x165D DUP3 DUP3 PUSH2 0x1617 JUMP JUMPDEST SWAP2 SWAP1 POP JUMP JUMPDEST PUSH0 PUSH8 0xFFFFFFFFFFFFFFFF DUP3 GT ISZERO PUSH2 0x167C JUMPI PUSH2 0x167B PUSH2 0x15EA JUMP JUMPDEST JUMPDEST PUSH2 0x1685 DUP3 PUSH2 0x15DA JUMP JUMPDEST SWAP1 POP PUSH1 0x20 DUP2 ADD SWAP1 POP SWAP2 SWAP1 POP JUMP JUMPDEST DUP3 DUP2 DUP4 CALLDATACOPY PUSH0 DUP4 DUP4 ADD MSTORE POP POP POP JUMP JUMPDEST PUSH0 PUSH2 0x16B2 PUSH2 0x16AD DUP5 PUSH2 0x1662 JUMP JUMPDEST PUSH2 0x1648 JUMP JUMPDEST SWAP1 POP DUP3 DUP2 MSTORE PUSH1 0x20 DUP2 ADD DUP5 DUP5 DUP5 ADD GT ISZERO PUSH2 0x16CE JUMPI PUSH2 0x16CD PUSH2 0x15D6 JUMP JUMPDEST JUMPDEST PUSH2 0x16D9 DUP5 DUP3 DUP6 PUSH2 0x1692 JUMP JUMPDEST POP SWAP4 SWAP3 POP POP POP JUMP JUMPDEST PUSH0 DUP3 PUSH1 0x1F DUP4 ADD SLT PUSH2 0x16F5 JUMPI PUSH2 0x16F4 PUSH2 0x15D2 JUMP JUMPDEST JUMPDEST DUP2 CALLDATALOAD PUSH2 0x1705 DUP5 DUP3 PUSH1 0x20 DUP7 ADD PUSH2 0x16A0 JUMP JUMPDEST SWAP2 POP POP SWAP3 SWAP2 POP POP JUMP JUMPDEST PUSH0 DUP1 PUSH0 PUSH1 0x60 DUP5 DUP7 SUB SLT ISZERO PUSH2 0x1725 JUMPI PUSH2 0x1724 PUSH2 0x1597 JUMP JUMPDEST JUMPDEST PUSH0 PUSH2 0x1732 DUP7 DUP3 DUP8 ADD PUSH2 0x15BE JUMP JUMPDEST SWAP4 POP POP PUSH1 0x20 DUP5 ADD CALLDATALOAD PUSH8 0xFFFFFFFFFFFFFFFF DUP2 GT ISZERO PUSH2 0x1753 JUMPI PUSH2 0x1752 PUSH2 0x159B JUMP JUMPDEST JUMPDEST PUSH2 0x175F DUP7 DUP3 DUP8 ADD PUSH2 0x16E1 JUMP JUMPDEST SWAP3 POP POP PUSH1 0x40 DUP5 ADD CALLDATALOAD PUSH8 0xFFFFFFFFFFFFFFFF DUP2 GT ISZERO PUSH2 0x1780 JUMPI PUSH2 0x177F PUSH2 0x159B JUMP JUMPDEST JUMPDEST PUSH2 0x178C DUP7 DUP3 DUP8 ADD PUSH2 0x16E1 JUMP JUMPDEST SWAP2 POP POP SWAP3 POP SWAP3 POP SWAP3 JUMP JUMPDEST PUSH0 PUSH8 0xFFFFFFFFFFFFFFFF DUP3 AND SWAP1 POP SWAP2 SWAP1 POP JUMP JUMPDEST PUSH2 0x17B2 DUP2 PUSH2 0x1796 JUMP JUMPDEST DUP2 EQ PUSH2 0x17BC JUMPI PUSH0 DUP1 REVERT JUMPDEST POP JUMP JUMPDEST PUSH0 DUP2 CALLDATALOAD SWAP1 POP PUSH2 0x17CD DUP2 PUSH2 0x17A9 JUMP JUMPDEST SWAP3 SWAP2 POP POP JUMP JUMPDEST PUSH0 PUSH1 0x20 DUP3 DUP5 SUB SLT ISZERO PUSH2 0x17E8 JUMPI PUSH2 0x17E7 PUSH2 0x1597 JUMP JUMPDEST JUMPDEST PUSH0 PUSH2 0x17F5 DUP5 DUP3 DUP6 ADD PUSH2 0x17BF JUMP JUMPDEST SWAP2 POP POP SWAP3 SWAP2 POP POP JUMP JUMPDEST PUSH2 0x1807 DUP2 PUSH2 0x159F JUMP JUMPDEST DUP3 MSTORE POP POP JUMP JUMPDEST PUSH0 PUSH1 0x20 DUP3 ADD SWAP1 POP PUSH2 0x1820 PUSH0 DUP4 ADD DUP5 PUSH2 0x17FE JUMP JUMPDEST SWAP3 SWAP2 POP POP JUMP JUMPDEST PUSH0 DUP2 MLOAD SWAP1 POP SWAP2 SWAP1 POP JUMP JUMPDEST PUSH0 DUP3 DUP3 MSTORE PUSH1 0x20 DUP3 ADD SWAP1 POP SWAP3 SWAP2 POP POP JUMP JUMPDEST PUSH0 JUMPDEST DUP4 DUP2 LT ISZERO PUSH2 0x185D JUMPI DUP1 DUP3 ADD MLOAD DUP2 DUP5 ADD MSTORE PUSH1 0x20 DUP2 ADD SWAP1 POP PUSH2 0x1842 JUMP JUMPDEST PUSH0 DUP5 DUP5 ADD MSTORE POP POP POP POP JUMP JUMPDEST PUSH0 PUSH2 0x1872 DUP3 PUSH2 0x1826 JUMP JUMPDEST PUSH2 0x187C DUP2 DUP6 PUSH2 0x1830 JUMP JUMPDEST SWAP4 POP PUSH2 0x188C DUP2 DUP6 PUSH1 0x20 DUP7 ADD PUSH2 0x1840 JUMP JUMPDEST PUSH2 0x1895 DUP2 PUSH2 0x15DA JUMP JUMPDEST DUP5 ADD SWAP2 POP POP SWAP3 SWAP2 POP POP JUMP JUMPDEST PUSH0 PUSH1 0x20 DUP3 ADD SWAP1 POP DUP2 DUP2 SUB PUSH0 DUP4 ADD MSTORE PUSH2 0x18B8 DUP2 DUP5 PUSH2 0x1868 JUMP JUMPDEST SWAP1 POP SWAP3 SWAP2 POP POP JUMP JUMPDEST PUSH0 DUP2 SWAP1 POP SWAP2 SWAP1 POP JUMP JUMPDEST PUSH2 0x18D2 DUP2 PUSH2 0x18C0 JUMP JUMPDEST DUP3 MSTORE POP POP JUMP JUMPDEST PUSH0 PUSH1 0x20 DUP3 ADD SWAP1 POP PUSH2 0x18EB PUSH0 DUP4 ADD DUP5 PUSH2 0x18C9 JUMP JUMPDEST SWAP3 SWAP2 POP POP JUMP JUMPDEST PUSH0 DUP2 MLOAD SWAP1 POP SWAP2 SWAP1 POP JUMP JUMPDEST PUSH0 DUP3 DUP3 MSTORE PUSH1 0x20 DUP3 ADD SWAP1 POP SWAP3 SWAP2 POP POP JUMP JUMPDEST PUSH0 PUSH2 0x1915 DUP3 PUSH2 0x18F1 JUMP JUMPDEST PUSH2 0x191F DUP2 DUP6 PUSH2 0x18FB JUMP JUMPDEST SWAP4 POP PUSH2 0x192F DUP2 DUP6 PUSH1 0x20 DUP7 ADD PUSH2 0x1840 JUMP JUMPDEST PUSH2 0x1938 DUP2 PUSH2 0x15DA JUMP JUMPDEST DUP5 ADD SWAP2 POP POP SWAP3 SWAP2 POP POP JUMP JUMPDEST PUSH0 PUSH1 0x20 DUP3 ADD SWAP1 POP DUP2 DUP2 SUB PUSH0 DUP4 ADD MSTORE PUSH2 0x195B DUP2 DUP5 PUSH2 0x190B JUMP JUMPDEST SWAP1 POP SWAP3 SWAP2 POP POP JUMP JUMPDEST PUSH0 PUSH20 0xFFFFFFFFFFFFFFFFFFFFFFFFFFFFFFFFFFFFFFFF DUP3 AND SWAP1 POP SWAP2 SWAP1 POP JUMP JUMPDEST PUSH0 PUSH2 0x198C DUP3 PUSH2 0x1963 JUMP JUMPDEST SWAP1 POP SWAP2 SWAP1 POP JUMP JUMPDEST PUSH2 0x199C DUP2 PUSH2 0x1982 JUMP JUMPDEST DUP3 MSTORE POP POP JUMP JUMPDEST PUSH0 PUSH1 0x20 DUP3 ADD SWAP1 POP PUSH2 0x19B5 PUSH0 DUP4 ADD DUP5 PUSH2 0x1993 JUMP JUMPDEST SWAP3 SWAP2 POP POP JUMP JUMPDEST PUSH2 0x19C4 DUP2 PUSH2 0x1982 JUMP JUMPDEST DUP2 EQ PUSH2 0x19CE JUMPI PUSH0 DUP1 REVERT JUMPDEST POP JUMP JUMPDEST PUSH0 DUP2 CALLDATALOAD SWAP1 POP PUSH2 0x19DF DUP2 PUSH2 0x19BB JUMP JUMPDEST SWAP3 SWAP2 POP POP JUMP JUMPDEST PUSH0 PUSH1 0x20 DUP3 DUP5 SUB SLT ISZERO PUSH2 0x19FA JUMPI PUSH2 0x19F9 PUSH2 0x1597 JUMP JUMPDEST JUMPDEST PUSH0 PUSH2 0x1A07 DUP5 DUP3 DUP6 ADD PUSH2 0x19D1 JUMP JUMPDEST SWAP2 POP POP SWAP3 SWAP2 POP POP JUMP JUMPDEST PUSH32 0x4E487B7100000000000000000000000000000000000000000000000000000000 PUSH0 MSTORE PUSH1 0x22 PUSH1 0x4 MSTORE PUSH1 0x24 PUSH0 REVERT JUMPDEST PUSH0 PUSH1 0x2 DUP3 DIV SWAP1 POP PUSH1 0x1 DUP3 AND DUP1 PUSH2 0x1A54 JUMPI PUSH1 0x7F DUP3 AND SWAP2 POP JUMPDEST PUSH1 0x20 DUP3 LT DUP2 SUB PUSH2 0x1A67 JUMPI PUSH2 0x1A66 PUSH2 0x1A10 JUMP JUMPDEST JUMPDEST POP SWAP2 SWAP1 POP JUMP JUMPDEST PUSH32 0x4D7573742062652070726F706F736564206F776E657200000000000000000000 PUSH0 DUP3 ADD MSTORE POP JUMP JUMPDEST PUSH0 PUSH2 0x1AA1 PUSH1 0x16 DUP4 PUSH2 0x18FB JUMP JUMPDEST SWAP2 POP PUSH2 0x1AAC DUP3 PUSH2 0x1A6D JUMP JUMPDEST PUSH1 0x20 DUP3 ADD SWAP1 POP SWAP2 SWAP1 POP JUMP JUMPDEST PUSH0 PUSH1 0x20 DUP3 ADD SWAP1 POP DUP2 DUP2 SUB PUSH0 DUP4 ADD MSTORE PUSH2 0x1ACE DUP2 PUSH2 0x1A95 JUMP JUMPDEST SWAP1 POP SWAP2 SWAP1 POP JUMP JUMPDEST PUSH0 PUSH8 0xFFFFFFFFFFFFFFFF DUP3 GT ISZERO PUSH2 0x1AEF JUMPI PUSH2 0x1AEE PUSH2 0x15EA JUMP JUMPDEST JUMPDEST PUSH2 0x1AF8 DUP3 PUSH2 0x15DA JUMP JUMPDEST SWAP1 POP PUSH1 0x20 DUP2 ADD SWAP1 POP SWAP2 SWAP1 POP JUMP JUMPDEST PUSH0 PUSH2 0x1B17 PUSH2 0x1B12 DUP5 PUSH2 0x1AD5 JUMP JUMPDEST PUSH2 0x1648 JUMP JUMPDEST SWAP1 POP DUP3 DUP2 MSTORE PUSH1 0x20 DUP2 ADD DUP5 DUP5 DUP5 ADD GT ISZERO PUSH2 0x1B33 JUMPI PUSH2 0x1B32 PUSH2 0x15D6 JUMP JUMPDEST JUMPDEST PUSH2 0x1B3E DUP5 DUP3 DUP6 PUSH2 0x1840 JUMP JUMPDEST POP SWAP4 SWAP3 POP POP POP JUMP JUMPDEST PUSH0 DUP3 PUSH1 0x1F DUP4 ADD SLT PUSH2 0x1B5A JUMPI PUSH2 0x1B59 PUSH2 0x15D2 JUMP JUMPDEST JUMPDEST DUP2 MLOAD PUSH2 0x1B6A DUP5 DUP3 PUSH1 0x20 DUP7 ADD PUSH2 0x1B05 JUMP JUMPDEST SWAP2 POP POP SWAP3 SWAP2 POP POP JUMP JUMPDEST PUSH2 0x1B7C DUP2 PUSH2 0x18C0 JUMP JUMPDEST DUP2 EQ PUSH2 0x1B86 JUMPI PUSH0 DUP1 REVERT JUMPDEST POP JUMP JUMPDEST PUSH0 DUP2 MLOAD SWAP1 POP PUSH2 0x1B97 DUP2 PUSH2 0x1B73 JUMP JUMPDEST SWAP3 SWAP2 POP POP JUMP JUMPDEST PUSH0 DUP1 PUSH0 DUP1 PUSH1 0x80 DUP6 DUP8 SUB SLT ISZERO PUSH2 0x1BB5 JUMPI PUSH2 0x1BB4 PUSH2 0x1597 JUMP JUMPDEST JUMPDEST PUSH0 DUP6 ADD MLOAD PUSH8 0xFFFFFFFFFFFFFFFF DUP2 GT ISZERO PUSH2 0x1BD2 JUMPI PUSH2 0x1BD1 PUSH2 0x159B JUMP JUMPDEST JUMPDEST PUSH2 0x1BDE DUP8 DUP3 DUP9 ADD PUSH2 0x1B46 JUMP JUMPDEST SWAP5 POP POP PUSH1 0x20 PUSH2 0x1BEF DUP8 DUP3 DUP9 ADD PUSH2 0x1B89 JUMP JUMPDEST SWAP4 POP POP PUSH1 0x40 PUSH2 0x1C00 DUP8 DUP3 DUP9 ADD PUSH2 0x1B89 JUMP JUMPDEST SWAP3 POP POP PUSH1 0x60 PUSH2 0x1C11 DUP8 DUP3 DUP9 ADD PUSH2 0x1B89 JUMP JUMPDEST SWAP2 POP POP SWAP3 SWAP6 SWAP2 SWAP5 POP SWAP3 POP JUMP JUMPDEST PUSH0 DUP2 SWAP1 POP DUP2 PUSH0 MSTORE PUSH1 0x20 PUSH0 KECCAK256 SWAP1 POP SWAP2 SWAP1 POP JUMP JUMPDEST PUSH0 PUSH1 0x20 PUSH1 0x1F DUP4 ADD DIV SWAP1 POP SWAP2 SWAP1 POP JUMP JUMPDEST PUSH0 DUP3 DUP3 SHL SWAP1 POP SWAP3 SWAP2 POP POP JUMP JUMPDEST PUSH0 PUSH1 0x8 DUP4 MUL PUSH2 0x1C79 PUSH32 0xFFFFFFFFFFFFFFFFFFFFFFFFFFFFFFFFFFFFFFFFFFFFFFFFFFFFFFFFFFFFFFFF DUP3 PUSH2 0x1C3E JUMP JUMPDEST PUSH2 0x1C83 DUP7 DUP4 PUSH2 0x1C3E JUMP JUMPDEST SWAP6 POP DUP1 NOT DUP5 AND SWAP4 POP DUP1 DUP7 AND DUP5 OR SWAP3 POP POP POP SWAP4 SWAP3 POP POP POP JUMP JUMPDEST PUSH0 DUP2 SWAP1 POP SWAP2 SWAP1 POP JUMP JUMPDEST PUSH0 PUSH2 0x1CBE PUSH2 0x1CB9 PUSH2 0x1CB4 DUP5 PUSH2 0x18C0 JUMP JUMPDEST PUSH2 0x1C9B JUMP JUMPDEST PUSH2 0x18C0 JUMP JUMPDEST SWAP1 POP SWAP2 SWAP1 POP JUMP JUMPDEST PUSH0 DUP2 SWAP1 POP SWAP2 SWAP1 POP JUMP JUMPDEST PUSH2 0x1CD7 DUP4 PUSH2 0x1CA4 JUMP JUMPDEST PUSH2 0x1CEB PUSH2 0x1CE3 DUP3 PUSH2 0x1CC5 JUMP JUMPDEST DUP5 DUP5 SLOAD PUSH2 0x1C4A JUMP JUMPDEST DUP3 SSTORE POP POP POP POP JUMP JUMPDEST PUSH0 SWAP1 JUMP JUMPDEST PUSH2 0x1CFF PUSH2 0x1CF3 JUMP JUMPDEST PUSH2 0x1D0A DUP2 DUP5 DUP5 PUSH2 0x1CCE JUMP JUMPDEST POP POP POP JUMP JUMPDEST JUMPDEST DUP2 DUP2 LT ISZERO PUSH2 0x1D2D JUMPI PUSH2 0x1D22 PUSH0 DUP3 PUSH2 0x1CF7 JUMP JUMPDEST PUSH1 0x1 DUP2 ADD SWAP1 POP PUSH2 0x1D10 JUMP JUMPDEST POP POP JUMP JUMPDEST PUSH1 0x1F DUP3 GT ISZERO PUSH2 0x1D72 JUMPI PUSH2 0x1D43 DUP2 PUSH2 0x1C1D JUMP JUMPDEST PUSH2 0x1D4C DUP5 PUSH2 0x1C2F JUMP JUMPDEST DUP2 ADD PUSH1 0x20 DUP6 LT ISZERO PUSH2 0x1D5B JUMPI DUP2 SWAP1 POP JUMPDEST PUSH2 0x1D6F PUSH2 0x1D67 DUP6 PUSH2 0x1C2F JUMP JUMPDEST DUP4 ADD DUP3 PUSH2 0x1D0F JUMP JUMPDEST POP POP JUMPDEST POP POP POP JUMP JUMPDEST PUSH0 DUP3 DUP3 SHR SWAP1 POP SWAP3 SWAP2 POP POP JUMP JUMPDEST PUSH0 PUSH2 0x1D92 PUSH0 NOT DUP5 PUSH1 0x8 MUL PUSH2 0x1D77 JUMP JUMPDEST NOT DUP1 DUP4 AND SWAP2 POP POP SWAP3 SWAP2 POP POP JUMP JUMPDEST PUSH0 PUSH2 0x1DAA DUP4 DUP4 PUSH2 0x1D83 JUMP JUMPDEST SWAP2 POP DUP3 PUSH1 0x2 MUL DUP3 OR SWAP1 POP SWAP3 SWAP2 POP POP JUMP JUMPDEST PUSH2 0x1DC3 DUP3 PUSH2 0x18F1 JUMP JUMPDEST PUSH8 0xFFFFFFFFFFFFFFFF DUP2 GT ISZERO PUSH2 0x1DDC JUMPI PUSH2 0x1DDB PUSH2 0x15EA JUMP JUMPDEST JUMPDEST PUSH2 0x1DE6 DUP3 SLOAD PUSH2 0x1A3D JUMP JUMPDEST PUSH2 0x1DF1 DUP3 DUP3 DUP6 PUSH2 0x1D31 JUMP JUMPDEST PUSH0 PUSH1 0x20 SWAP1 POP PUSH1 0x1F DUP4 GT PUSH1 0x1 DUP2 EQ PUSH2 0x1E22 JUMPI PUSH0 DUP5 ISZERO PUSH2 0x1E10 JUMPI DUP3 DUP8 ADD MLOAD SWAP1 POP JUMPDEST PUSH2 0x1E1A DUP6 DUP3 PUSH2 0x1D9F JUMP JUMPDEST DUP7 SSTORE POP PUSH2 0x1E81 JUMP JUMPDEST PUSH1 0x1F NOT DUP5 AND PUSH2 0x1E30 DUP7 PUSH2 0x1C1D JUMP JUMPDEST PUSH0 JUMPDEST DUP3 DUP2 LT ISZERO PUSH2 0x1E57 JUMPI DUP5 DUP10 ADD MLOAD DUP3 SSTORE PUSH1 0x1 DUP3 ADD SWAP2 POP PUSH1 0x20 DUP6 ADD SWAP5 POP PUSH1 0x20 DUP2 ADD SWAP1 POP PUSH2 0x1E32 JUMP JUMPDEST DUP7 DUP4 LT ISZERO PUSH2 0x1E74 JUMPI DUP5 DUP10 ADD MLOAD PUSH2 0x1E70 PUSH1 0x1F DUP10 AND DUP3 PUSH2 0x1D83 JUMP JUMPDEST DUP4 SSTORE POP JUMPDEST PUSH1 0x1 PUSH1 0x2 DUP9 MUL ADD DUP9 SSTORE POP POP POP JUMPDEST POP POP POP POP POP POP JUMP JUMPDEST PUSH0 DUP2 SWAP1 POP DUP2 PUSH0 MSTORE PUSH1 0x20 PUSH0 KECCAK256 SWAP1 POP SWAP2 SWAP1 POP JUMP JUMPDEST PUSH1 0x1F DUP3 GT ISZERO PUSH2 0x1EDC JUMPI PUSH2 0x1EAD DUP2 PUSH2 0x1E89 JUMP JUMPDEST PUSH2 0x1EB6 DUP5 PUSH2 0x1C2F JUMP JUMPDEST DUP2 ADD PUSH1 0x20 DUP6 LT ISZERO PUSH2 0x1EC5 JUMPI DUP2 SWAP1 POP JUMPDEST PUSH2 0x1ED9 PUSH2 0x1ED1 DUP6 PUSH2 0x1C2F JUMP JUMPDEST DUP4 ADD DUP3 PUSH2 0x1D0F JUMP JUMPDEST POP POP JUMPDEST POP POP POP JUMP JUMPDEST PUSH2 0x1EEA DUP3 PUSH2 0x1826 JUMP JUMPDEST PUSH8 0xFFFFFFFFFFFFFFFF DUP2 GT ISZERO PUSH2 0x1F03 JUMPI PUSH2 0x1F02 PUSH2 0x15EA JUMP JUMPDEST JUMPDEST PUSH2 0x1F0D DUP3 SLOAD PUSH2 0x1A3D JUMP JUMPDEST PUSH2 0x1F18 DUP3 DUP3 DUP6 PUSH2 0x1E9B JUMP JUMPDEST PUSH0 PUSH1 0x20 SWAP1 POP PUSH1 0x1F DUP4 GT PUSH1 0x1 DUP2 EQ PUSH2 0x1F49 JUMPI PUSH0 DUP5 ISZERO PUSH2 0x1F37 JUMPI DUP3 DUP8 ADD MLOAD SWAP1 POP JUMPDEST PUSH2 0x1F41 DUP6 DUP3 PUSH2 0x1D9F JUMP JUMPDEST DUP7 SSTORE POP PUSH2 0x1FA8 JUMP JUMPDEST PUSH1 0x1F NOT DUP5 AND PUSH2 0x1F57 DUP7 PUSH2 0x1E89 JUMP JUMPDEST PUSH0 JUMPDEST DUP3 DUP2 LT ISZERO PUSH2 0x1F7E JUMPI DUP5 DUP10 ADD MLOAD DUP3 SSTORE PUSH1 0x1 DUP3 ADD SWAP2 POP PUSH1 0x20 DUP6 ADD SWAP5 POP PUSH1 0x20 DUP2 ADD SWAP1 POP PUSH2 0x1F59 JUMP JUMPDEST DUP7 DUP4 LT ISZERO PUSH2 0x1F9B JUMPI DUP5 DUP10 ADD MLOAD PUSH2 0x1F97 PUSH1 0x1F DUP10 AND DUP3 PUSH2 0x1D83 JUMP JUMPDEST DUP4 SSTORE POP JUMPDEST PUSH1 0x1 PUSH1 0x2 DUP9 MUL ADD DUP9 SSTORE POP POP POP JUMPDEST POP POP POP POP POP POP JUMP JUMPDEST PUSH0 DUP2 SLOAD PUSH2 0x1FBC DUP2 PUSH2 0x1A3D JUMP JUMPDEST PUSH2 0x1FC6 DUP2 DUP7 PUSH2 0x18FB JUMP JUMPDEST SWAP5 POP PUSH1 0x1 DUP3 AND PUSH0 DUP2 EQ PUSH2 0x1FE0 JUMPI PUSH1 0x1 DUP2 EQ PUSH2 0x1FF6 JUMPI PUSH2 0x2028 JUMP JUMPDEST PUSH1 0xFF NOT DUP4 AND DUP7 MSTORE DUP2 ISZERO ISZERO PUSH1 0x20 MUL DUP7 ADD SWAP4 POP PUSH2 0x2028 JUMP JUMPDEST PUSH2 0x1FFF DUP6 PUSH2 0x1C1D JUMP JUMPDEST PUSH0 JUMPDEST DUP4 DUP2 LT ISZERO PUSH2 0x2020 JUMPI DUP2 SLOAD DUP2 DUP10 ADD MSTORE PUSH1 0x1 DUP3 ADD SWAP2 POP PUSH1 0x20 DUP2 ADD SWAP1 POP PUSH2 0x2001 JUMP JUMPDEST DUP1 DUP9 ADD SWAP6 POP POP POP JUMPDEST POP POP POP SWAP3 SWAP2 POP POP JUMP JUMPDEST PUSH0 DUP2 SLOAD PUSH2 0x203D DUP2 PUSH2 0x1A3D JUMP JUMPDEST PUSH2 0x2047 DUP2 DUP7 PUSH2 0x1830 JUMP JUMPDEST SWAP5 POP PUSH1 0x1 DUP3 AND PUSH0 DUP2 EQ PUSH2 0x2061 JUMPI PUSH1 0x1 DUP2 EQ PUSH2 0x2077 JUMPI PUSH2 0x20A9 JUMP JUMPDEST PUSH1 0xFF NOT DUP4 AND DUP7 MSTORE DUP2 ISZERO ISZERO PUSH1 0x20 MUL DUP7 ADD SWAP4 POP PUSH2 0x20A9 JUMP JUMPDEST PUSH2 0x2080 DUP6 PUSH2 0x1E89 JUMP JUMPDEST PUSH0 JUMPDEST DUP4 DUP2 LT ISZERO PUSH2 0x20A1 JUMPI DUP2 SLOAD DUP2 DUP10 ADD MSTORE PUSH1 0x1 DUP3 ADD SWAP2 POP PUSH1 0x20 DUP2 ADD SWAP1 POP PUSH2 0x2082 JUMP JUMPDEST DUP1 DUP9 ADD SWAP6 POP POP POP JUMPDEST POP POP POP SWAP3 SWAP2 POP POP JUMP JUMPDEST PUSH0 PUSH1 0xC0 DUP3 ADD SWAP1 POP DUP2 DUP2 SUB PUSH0 DUP4 ADD MSTORE PUSH2 0x20CA DUP2 DUP10 PUSH2 0x1FB0 JUMP JUMPDEST SWAP1 POP PUSH2 0x20D9 PUSH1 0x20 DUP4 ADD DUP9 PUSH2 0x18C9 JUMP JUMPDEST PUSH2 0x20E6 PUSH1 0x40 DUP4 ADD DUP8 PUSH2 0x18C9 JUMP JUMPDEST PUSH2 0x20F3 PUSH1 0x60 DUP4 ADD DUP7 PUSH2 0x18C9 JUMP JUMPDEST DUP2 DUP2 SUB PUSH1 0x80 DUP4 ADD MSTORE PUSH2 0x2105 DUP2 DUP6 PUSH2 0x2031 JUMP JUMPDEST SWAP1 POP DUP2 DUP2 SUB PUSH1 0xA0 DUP4 ADD MSTORE PUSH2 0x2119 DUP2 DUP5 PUSH2 0x2031 JUMP JUMPDEST SWAP1 POP SWAP8 SWAP7 POP POP POP POP POP POP POP JUMP JUMPDEST PUSH32 0x4F6E6C792063616C6C61626C65206279206F776E657200000000000000000000 PUSH0 DUP3 ADD MSTORE POP JUMP JUMPDEST PUSH0 PUSH2 0x215A PUSH1 0x16 DUP4 PUSH2 0x18FB JUMP JUMPDEST SWAP2 POP PUSH2 0x2165 DUP3 PUSH2 0x2126 JUMP JUMPDEST PUSH1 0x20 DUP3 ADD SWAP1 POP SWAP2 SWAP1 POP JUMP JUMPDEST PUSH0 PUSH1 0x20 DUP3 ADD SWAP1 POP DUP2 DUP2 SUB PUSH0 DUP4 ADD MSTORE PUSH2 0x2187 DUP2 PUSH2 0x214E JUMP JUMPDEST SWAP1 POP SWAP2 SWAP1 POP JUMP JUMPDEST PUSH32 0x4E487B7100000000000000000000000000000000000000000000000000000000 PUSH0 MSTORE PUSH1 0x21 PUSH1 0x4 MSTORE PUSH1 0x24 PUSH0 REVERT JUMPDEST PUSH32 0x4E487B7100000000000000000000000000000000000000000000000000000000 PUSH0 MSTORE PUSH1 0x32 PUSH1 0x4 MSTORE PUSH1 0x24 PUSH0 REVERT JUMPDEST PUSH32 0x4E487B7100000000000000000000000000000000000000000000000000000000 PUSH0 MSTORE PUSH1 0x11 PUSH1 0x4 MSTORE PUSH1 0x24 PUSH0 REVERT JUMPDEST PUSH0 PUSH2 0x221F DUP3 PUSH2 0x18C0 JUMP JUMPDEST SWAP2 POP PUSH32 0xFFFFFFFFFFFFFFFFFFFFFFFFFFFFFFFFFFFFFFFFFFFFFFFFFFFFFFFFFFFFFFFF DUP3 SUB PUSH2 0x2251 JUMPI PUSH2 0x2250 PUSH2 0x21E8 JUMP JUMPDEST JUMPDEST PUSH1 0x1 DUP3 ADD SWAP1 POP SWAP2 SWAP1 POP JUMP JUMPDEST PUSH2 0x2265 DUP2 PUSH2 0x1796 JUMP JUMPDEST DUP3 MSTORE POP POP JUMP JUMPDEST PUSH0 PUSH2 0xFFFF DUP3 AND SWAP1 POP SWAP2 SWAP1 POP JUMP JUMPDEST PUSH2 0x2281 DUP2 PUSH2 0x226B JUMP JUMPDEST DUP3 MSTORE POP POP JUMP JUMPDEST PUSH0 PUSH4 0xFFFFFFFF DUP3 AND SWAP1 POP SWAP2 SWAP1 POP JUMP JUMPDEST PUSH2 0x229F DUP2 PUSH2 0x2287 JUMP JUMPDEST DUP3 MSTORE POP POP JUMP JUMPDEST PUSH0 PUSH1 0xA0 DUP3 ADD SWAP1 POP PUSH2 0x22B8 PUSH0 DUP4 ADD DUP9 PUSH2 0x225C JUMP JUMPDEST DUP2 DUP2 SUB PUSH1 0x20 DUP4 ADD MSTORE PUSH2 0x22CA DUP2 DUP8 PUSH2 0x1868 JUMP JUMPDEST SWAP1 POP PUSH2 0x22D9 PUSH1 0x40 DUP4 ADD DUP7 PUSH2 0x2278 JUMP JUMPDEST PUSH2 0x22E6 PUSH1 0x60 DUP4 ADD DUP6 PUSH2 0x2296 JUMP JUMPDEST PUSH2 0x22F3 PUSH1 0x80 DUP4 ADD DUP5 PUSH2 0x17FE JUMP JUMPDEST SWAP7 SWAP6 POP POP POP POP POP POP JUMP JUMPDEST PUSH0 DUP2 MLOAD SWAP1 POP PUSH2 0x230B DUP2 PUSH2 0x15A8 JUMP JUMPDEST SWAP3 SWAP2 POP POP JUMP JUMPDEST PUSH0 PUSH1 0x20 DUP3 DUP5 SUB SLT ISZERO PUSH2 0x2326 JUMPI PUSH2 0x2325 PUSH2 0x1597 JUMP JUMPDEST JUMPDEST PUSH0 PUSH2 0x2333 DUP5 DUP3 DUP6 ADD PUSH2 0x22FD JUMP JUMPDEST SWAP2 POP POP SWAP3 SWAP2 POP POP JUMP JUMPDEST PUSH32 0x43616E6E6F74207472616E7366657220746F2073656C66000000000000000000 PUSH0 DUP3 ADD MSTORE POP JUMP JUMPDEST PUSH0 PUSH2 0x2370 PUSH1 0x17 DUP4 PUSH2 0x18FB JUMP JUMPDEST SWAP2 POP PUSH2 0x237B DUP3 PUSH2 0x233C JUMP JUMPDEST PUSH1 0x20 DUP3 ADD SWAP1 POP SWAP2 SWAP1 POP JUMP JUMPDEST PUSH0 PUSH1 0x20 DUP3 ADD SWAP1 POP DUP2 DUP2 SUB PUSH0 DUP4 ADD MSTORE PUSH2 0x239D DUP2 PUSH2 0x2364 JUMP JUMPDEST SWAP1 POP SWAP2 SWAP1 POP JUMP JUMPDEST PUSH0 PUSH2 0x23AE DUP3 PUSH2 0x18C0 JUMP JUMPDEST SWAP2 POP PUSH2 0x23B9 DUP4 PUSH2 0x18C0 JUMP JUMPDEST SWAP3 POP DUP3 DUP3 ADD SWAP1 POP DUP1 DUP3 GT ISZERO PUSH2 0x23D1 JUMPI PUSH2 0x23D0 PUSH2 0x21E8 JUMP JUMPDEST JUMPDEST SWAP3 SWAP2 POP POP JUMP JUMPDEST PUSH0 PUSH2 0x23E1 DUP3 PUSH2 0x18C0 JUMP JUMPDEST SWAP2 POP PUSH2 0x23EC DUP4 PUSH2 0x18C0 JUMP JUMPDEST SWAP3 POP DUP3 DUP3 SUB SWAP1 POP DUP2 DUP2 GT ISZERO PUSH2 0x2404 JUMPI PUSH2 0x2403 PUSH2 0x21E8 JUMP JUMPDEST JUMPDEST SWAP3 SWAP2 POP POP JUMP JUMPDEST PUSH32 0x4E487B7100000000000000000000000000000000000000000000000000000000 PUSH0 MSTORE PUSH1 0x12 PUSH1 0x4 MSTORE PUSH1 0x24 PUSH0 REVERT JUMPDEST PUSH0 PUSH2 0x2441 DUP3 PUSH2 0x18C0 JUMP JUMPDEST SWAP2 POP PUSH2 0x244C DUP4 PUSH2 0x18C0 JUMP JUMPDEST SWAP3 POP DUP3 PUSH2 0x245C JUMPI PUSH2 0x245B PUSH2 0x240A JUMP JUMPDEST JUMPDEST DUP3 DUP3 MOD SWAP1 POP SWAP3 SWAP2 POP POP JUMP JUMPDEST PUSH0 PUSH2 0x2471 DUP3 PUSH2 0x18C0 JUMP JUMPDEST SWAP2 POP PUSH2 0x247C DUP4 PUSH2 0x18C0 JUMP JUMPDEST SWAP3 POP DUP3 DUP3 MUL PUSH2 0x248A DUP2 PUSH2 0x18C0 JUMP JUMPDEST SWAP2 POP DUP3 DUP3 DIV DUP5 EQ DUP4 ISZERO OR PUSH2 0x24A1 JUMPI PUSH2 0x24A0 PUSH2 0x21E8 JUMP JUMPDEST JUMPDEST POP SWAP3 SWAP2 POP POP JUMP JUMPDEST PUSH0 DUP2 PUSH1 0x1 SHR SWAP1 POP SWAP2 SWAP1 POP JUMP JUMPDEST PUSH0 DUP1 DUP3 SWAP2 POP DUP4 SWAP1 POP JUMPDEST PUSH1 0x1 DUP6 GT ISZERO PUSH2 0x24FD JUMPI DUP1 DUP7 DIV DUP2 GT ISZERO PUSH2 0x24D9 JUMPI PUSH2 0x24D8 PUSH2 0x21E8 JUMP JUMPDEST JUMPDEST PUSH1 0x1 DUP6 AND ISZERO PUSH2 0x24E8 JUMPI DUP1 DUP3 MUL SWAP2 POP JUMPDEST DUP1 DUP2 MUL SWAP1 POP PUSH2 0x24F6 DUP6 PUSH2 0x24A8 JUMP JUMPDEST SWAP5 POP PUSH2 0x24BD JUMP JUMPDEST SWAP5 POP SWAP5 SWAP3 POP POP POP JUMP JUMPDEST PUSH0 DUP3 PUSH2 0x2515 JUMPI PUSH1 0x1 SWAP1 POP PUSH2 0x25D0 JUMP JUMPDEST DUP2 PUSH2 0x2522 JUMPI PUSH0 SWAP1 POP PUSH2 0x25D0 JUMP JUMPDEST DUP2 PUSH1 0x1 DUP2 EQ PUSH2 0x2538 JUMPI PUSH1 0x2 DUP2 EQ PUSH2 0x2542 JUMPI PUSH2 0x2571 JUMP JUMPDEST PUSH1 0x1 SWAP2 POP POP PUSH2 0x25D0 JUMP JUMPDEST PUSH1 0xFF DUP5 GT ISZERO PUSH2 0x2554 JUMPI PUSH2 0x2553 PUSH2 0x21E8 JUMP JUMPDEST JUMPDEST DUP4 PUSH1 0x2 EXP SWAP2 POP DUP5 DUP3 GT ISZERO PUSH2 0x256B JUMPI PUSH2 0x256A PUSH2 0x21E8 JUMP JUMPDEST JUMPDEST POP PUSH2 0x25D0 JUMP JUMPDEST POP PUSH1 0x20 DUP4 LT PUSH2 0x133 DUP4 LT AND PUSH1 0x4E DUP5 LT PUSH1 0xB DUP5 LT AND OR ISZERO PUSH2 0x25A6 JUMPI DUP3 DUP3 EXP SWAP1 POP DUP4 DUP2 GT ISZERO PUSH2 0x25A1 JUMPI PUSH2 0x25A0 PUSH2 0x21E8 JUMP JUMPDEST JUMPDEST PUSH2 0x25D0 JUMP JUMPDEST PUSH2 0x25B3 DUP5 DUP5 DUP5 PUSH1 0x1 PUSH2 0x24B4 JUMP JUMPDEST SWAP3 POP SWAP1 POP DUP2 DUP5 DIV DUP2 GT ISZERO PUSH2 0x25CA JUMPI PUSH2 0x25C9 PUSH2 0x21E8 JUMP JUMPDEST JUMPDEST DUP2 DUP2 MUL SWAP1 POP JUMPDEST SWAP4 SWAP3 POP POP POP JUMP JUMPDEST PUSH0 PUSH2 0x25E1 DUP3 PUSH2 0x18C0 JUMP JUMPDEST SWAP2 POP PUSH2 0x25EC DUP4 PUSH2 0x18C0 JUMP JUMPDEST SWAP3 POP PUSH2 0x2619 PUSH32 0xFFFFFFFFFFFFFFFFFFFFFFFFFFFFFFFFFFFFFFFFFFFFFFFFFFFFFFFFFFFFFFFF DUP5 DUP5 PUSH2 0x2506 JUMP JUMPDEST SWAP1 POP SWAP3 SWAP2 POP POP JUMP INVALID LOG2 PUSH5 0x6970667358 0x22 SLT KECCAK256 ADDMOD 0xEF ORIGIN 0x5D 0xBF 0x4C DUP3 PUSH15 0xD71A6F4B0C44087271726528EC90F2 PUSH28 0x5B4595E24684F70764736F6C63430008140033636F6E7374207B2065 PUSH21 0x68657273207D203D20617761697420696D706F7274 0x28 0x27 PUSH15 0x706D3A65746865727340362E31302E ADDRESS 0x27 0x29 EXTCODESIZE PUSH4 0x6F6E7374 KECCAK256 PUSH2 0x6269 NUMBER PUSH16 0x646572203D206574686572732E416269 NUMBER PUSH16 0x6465722E64656661756C74416269436F PUSH5 0x657228293B PUSH4 0x6F6E7374 KECCAK256 PUSH2 0x7069 MSTORE PUSH6 0x73706F6E7365 KECCAK256 RETURNDATASIZE KECCAK256 PUSH2 0x7761 PUSH10 0x742046756E6374696F6E PUSH20 0x2E6D616B654874747052657175657374287B2020 KECCAK256 KECCAK256 PUSH22 0x726C3A202768747470733A2F2F67656E69656261636B PUSH3 0x6F6E65 0x2E PUSH2 0x7A75 PUSH19 0x6577656273697465732E6E65742F6170692F70 PUSH19 0x6F706572746965732F64656D6F277D293B636F PUSH15 0x7374207B2064617461207D203D2061 PUSH17 0x69526573706F6E73652E646174613B636F PUSH15 0x7374206C6F636174696F6E203D2064 PUSH2 0x7461 0x2E PUSH13 0x6F636174696F6E3B636F6E7374 KECCAK256 PUSH13 0x6F7453697A65203D204E756D62 PUSH6 0x722864617461 0x2E PUSH13 0x6F7453697A65293B636F6E7374 KECCAK256 PUSH21 0x6F74616C5072696365203D204E756D626572286461 PUSH21 0x612E746F74616C5072696365293B636F6E73742074 PUSH2 0x7841 PUSH20 0x73657373656456616C7565203D204E756D626572 0x28 PUSH5 0x6174612E74 PUSH2 0x7841 PUSH20 0x73657373656456616C7565293B636F6E73742065 PUSH15 0x636F646564203D20616269436F6465 PUSH19 0x2E656E636F6465285B60737472696E67602C20 PUSH1 0x75 PUSH10 0x6E74323536602C206075 PUSH10 0x6E74323536602C206075 PUSH10 0x6E74323536605D2C205B PUSH13 0x6F636174696F6E2C206C6F7453 PUSH10 0x7A652C20746F74616C50 PUSH19 0x6963652C20746178417373657373656456616C PUSH22 0x655D293B72657475726E206574686572732E67657442 PUSH26 0x74657328656E636F646564293B00000000000000000000000000 "
		},
		"gasEstimates": {
			"creation": {
				"codeDepositCost": "1963000",
				"executionCost": "infinite",
				"totalCost": "infinite"
			},
			"external": {
				"acceptOwnership()": "54533",
				"handleOracleFulfillment(bytes32,bytes,bytes)": "infinite",
				"location()": "infinite",
				"lotSize()": "2492",
				"owner()": "2537",
				"s_lastError()": "infinite",
				"s_lastRequestId()": "2491",
				"s_lastResponse()": "infinite",
				"sendRequest(uint64)": "infinite",
				"taxAssessedValue()": "2513",
				"totalPrice()": "2469",
				"transferOwnership(address)": "30755"
			},
			"internal": {
				"fulfillRequest(bytes32,bytes memory,bytes memory)": "infinite"
			}
		},
		"methodIdentifiers": {
			"acceptOwnership()": "79ba5097",
			"handleOracleFulfillment(bytes32,bytes,bytes)": "0ca76175",
			"location()": "516f279e",
			"lotSize()": "4942f65f",
			"owner()": "8da5cb5b",
			"s_lastError()": "4b0795a8",
			"s_lastRequestId()": "b1e21749",
			"s_lastResponse()": "3944ea3a",
			"sendRequest(uint64)": "2f9d6254",
			"taxAssessedValue()": "b252c8f2",
			"totalPrice()": "ab0d92dd",
			"transferOwnership(address)": "f2fde38b"
		}
	},
	"abi": [
		{
			"inputs": [],
			"stateMutability": "nonpayable",
			"type": "constructor"
		},
		{
			"inputs": [],
			"name": "EmptySource",
			"type": "error"
		},
		{
			"inputs": [],
			"name": "NoInlineSecrets",
			"type": "error"
		},
		{
			"inputs": [],
			"name": "OnlyRouterCanFulfill",
			"type": "error"
		},
		{
			"inputs": [
				{
					"internalType": "bytes32",
					"name": "requestId",
					"type": "bytes32"
				}
			],
			"name": "UnexpectedRequestID",
			"type": "error"
		},
		{
			"anonymous": false,
			"inputs": [
				{
					"indexed": true,
					"internalType": "address",
					"name": "from",
					"type": "address"
				},
				{
					"indexed": true,
					"internalType": "address",
					"name": "to",
					"type": "address"
				}
			],
			"name": "OwnershipTransferRequested",
			"type": "event"
		},
		{
			"anonymous": false,
			"inputs": [
				{
					"indexed": true,
					"internalType": "address",
					"name": "from",
					"type": "address"
				},
				{
					"indexed": true,
					"internalType": "address",
					"name": "to",
					"type": "address"
				}
			],
			"name": "OwnershipTransferred",
			"type": "event"
		},
		{
			"anonymous": false,
			"inputs": [
				{
					"indexed": true,
					"internalType": "bytes32",
					"name": "id",
					"type": "bytes32"
				}
			],
			"name": "RequestFulfilled",
			"type": "event"
		},
		{
			"anonymous": false,
			"inputs": [
				{
					"indexed": true,
					"internalType": "bytes32",
					"name": "id",
					"type": "bytes32"
				}
			],
			"name": "RequestSent",
			"type": "event"
		},
		{
			"anonymous": false,
			"inputs": [
				{
					"indexed": true,
					"internalType": "bytes32",
					"name": "requestId",
					"type": "bytes32"
				},
				{
					"indexed": false,
					"internalType": "string",
					"name": "location",
					"type": "string"
				},
				{
					"indexed": false,
					"internalType": "uint256",
					"name": "areaSquareFeet",
					"type": "uint256"
				},
				{
					"indexed": false,
					"internalType": "uint256",
					"name": "price",
					"type": "uint256"
				},
				{
					"indexed": false,
					"internalType": "uint256",
					"name": "taxAssessedValue",
					"type": "uint256"
				},
				{
					"indexed": false,
					"internalType": "bytes",
					"name": "response",
					"type": "bytes"
				},
				{
					"indexed": false,
					"internalType": "bytes",
					"name": "err",
					"type": "bytes"
				}
			],
			"name": "Response",
			"type": "event"
		},
		{
			"inputs": [],
			"name": "acceptOwnership",
			"outputs": [],
			"stateMutability": "nonpayable",
			"type": "function"
		},
		{
			"inputs": [
				{
					"internalType": "bytes32",
					"name": "requestId",
					"type": "bytes32"
				},
				{
					"internalType": "bytes",
					"name": "response",
					"type": "bytes"
				},
				{
					"internalType": "bytes",
					"name": "err",
					"type": "bytes"
				}
			],
			"name": "handleOracleFulfillment",
			"outputs": [],
			"stateMutability": "nonpayable",
			"type": "function"
		},
		{
			"inputs": [],
			"name": "location",
			"outputs": [
				{
					"internalType": "string",
					"name": "",
					"type": "string"
				}
			],
			"stateMutability": "view",
			"type": "function"
		},
		{
			"inputs": [],
			"name": "lotSize",
			"outputs": [
				{
					"internalType": "uint256",
					"name": "",
					"type": "uint256"
				}
			],
			"stateMutability": "view",
			"type": "function"
		},
		{
			"inputs": [],
			"name": "owner",
			"outputs": [
				{
					"internalType": "address",
					"name": "",
					"type": "address"
				}
			],
			"stateMutability": "view",
			"type": "function"
		},
		{
			"inputs": [],
			"name": "s_lastError",
			"outputs": [
				{
					"internalType": "bytes",
					"name": "",
					"type": "bytes"
				}
			],
			"stateMutability": "view",
			"type": "function"
		},
		{
			"inputs": [],
			"name": "s_lastRequestId",
			"outputs": [
				{
					"internalType": "bytes32",
					"name": "",
					"type": "bytes32"
				}
			],
			"stateMutability": "view",
			"type": "function"
		},
		{
			"inputs": [],
			"name": "s_lastResponse",
			"outputs": [
				{
					"internalType": "bytes",
					"name": "",
					"type": "bytes"
				}
			],
			"stateMutability": "view",
			"type": "function"
		},
		{
			"inputs": [
				{
					"internalType": "uint64",
					"name": "subscriptionId",
					"type": "uint64"
				}
			],
			"name": "sendRequest",
			"outputs": [
				{
					"internalType": "bytes32",
					"name": "requestId",
					"type": "bytes32"
				}
			],
			"stateMutability": "nonpayable",
			"type": "function"
		},
		{
			"inputs": [],
			"name": "taxAssessedValue",
			"outputs": [
				{
					"internalType": "uint256",
					"name": "",
					"type": "uint256"
				}
			],
			"stateMutability": "view",
			"type": "function"
		},
		{
			"inputs": [],
			"name": "totalPrice",
			"outputs": [
				{
					"internalType": "uint256",
					"name": "",
					"type": "uint256"
				}
			],
			"stateMutability": "view",
			"type": "function"
		},
		{
			"inputs": [
				{
					"internalType": "address",
					"name": "to",
					"type": "address"
				}
			],
			"name": "transferOwnership",
			"outputs": [],
			"stateMutability": "nonpayable",
			"type": "function"
		}
	]
}