{
	"data": {
		"bytecode": {
			"linkReferences": {},
			"object": "6080604052604051806080016040528060405180606001604052806029815260200162005f50602991398152602001610dec815260200162046cd08152602001615dfe81525060085f820151815f0190816200005c919062000868565b5060208201518160010155604082015181600201556060820151816003015550505f600c5f6101000a81548160ff0219169083151502179055505f600f556040518060800160405280733762ba161a7adba9ee84a8cafffe57aa2e13347f73ffffffffffffffffffffffffffffffffffffffff1673ffffffffffffffffffffffffffffffffffffffff168152602001735ca6aae74e45bd7271aa9eede684a047c77cab5373ffffffffffffffffffffffffffffffffffffffff1673ffffffffffffffffffffffffffffffffffffffff16815260200173ab8483f64d9c6d1ecf9b849ae677dd3315835cb273ffffffffffffffffffffffffffffffffffffffff1673ffffffffffffffffffffffffffffffffffffffff168152602001734b20993bc481177ec7e8f571cecae8a9e22c02db73ffffffffffffffffffffffffffffffffffffffff1673ffffffffffffffffffffffffffffffffffffffff168152506012906004620001cd929190620004cf565b5060405180604001604052807327a503629a5354982735d5706286fb4731418ada73ffffffffffffffffffffffffffffffffffffffff1673ffffffffffffffffffffffffffffffffffffffff1681526020017378731d3ca6b7e34ac0f824c42a7cc18a495cabab73ffffffffffffffffffffffffffffffffffffffff1673ffffffffffffffffffffffffffffffffffffffff168152506013906002620002759291906200055b565b50610af060145534801562000288575f80fd5b5060405162005f7938038062005f798339818101604052810190620002ae9190620009b1565b336040518060400160405280601381526020017f5265616c576f726c644173736574546f6b656e000000000000000000000000008152506040518060400160405280600481526020017f5257415400000000000000000000000000000000000000000000000000000000815250815f90816200032b919062000868565b5080600190816200033d919062000868565b5050505f73ffffffffffffffffffffffffffffffffffffffff168173ffffffffffffffffffffffffffffffffffffffff1603620003b3575f6040517f1e4fbdf7000000000000000000000000000000000000000000000000000000008152600401620003aa9190620009f2565b60405180910390fd5b620003c4816200040c60201b60201c565b508060115f6101000a81548173ffffffffffffffffffffffffffffffffffffffff021916908373ffffffffffffffffffffffffffffffffffffffff1602179055505062000a0d565b5f60075f9054906101000a900473ffffffffffffffffffffffffffffffffffffffff1690508160075f6101000a81548173ffffffffffffffffffffffffffffffffffffffff021916908373ffffffffffffffffffffffffffffffffffffffff1602179055508173ffffffffffffffffffffffffffffffffffffffff168173ffffffffffffffffffffffffffffffffffffffff167f8be0079c531659141344cd1fd0a4f28419497f9722a3daafe3b4186f6b6457e060405160405180910390a35050565b828054828255905f5260205f2090810192821562000548579160200282015b8281111562000547578251825f6101000a81548173ffffffffffffffffffffffffffffffffffffffff021916908373ffffffffffffffffffffffffffffffffffffffff16021790555091602001919060010190620004ee565b5b509050620005579190620005e7565b5090565b828054828255905f5260205f20908101928215620005d4579160200282015b82811115620005d3578251825f6101000a81548173ffffffffffffffffffffffffffffffffffffffff021916908373ffffffffffffffffffffffffffffffffffffffff160217905550916020019190600101906200057a565b5b509050620005e39190620005e7565b5090565b5b8082111562000600575f815f905550600101620005e8565b5090565b5f81519050919050565b7f4e487b71000000000000000000000000000000000000000000000000000000005f52604160045260245ffd5b7f4e487b71000000000000000000000000000000000000000000000000000000005f52602260045260245ffd5b5f60028204905060018216806200068057607f821691505b6020821081036200069657620006956200063b565b5b50919050565b5f819050815f5260205f209050919050565b5f6020601f8301049050919050565b5f82821b905092915050565b5f60088302620006fa7fffffffffffffffffffffffffffffffffffffffffffffffffffffffffffffffff82620006bd565b620007068683620006bd565b95508019841693508086168417925050509392505050565b5f819050919050565b5f819050919050565b5f620007506200074a62000744846200071e565b62000727565b6200071e565b9050919050565b5f819050919050565b6200076b8362000730565b620007836200077a8262000757565b848454620006c9565b825550505050565b5f90565b620007996200078b565b620007a681848462000760565b505050565b5b81811015620007cd57620007c15f826200078f565b600181019050620007ac565b5050565b601f8211156200081c57620007e6816200069c565b620007f184620006ae565b8101602085101562000801578190505b620008196200081085620006ae565b830182620007ab565b50505b505050565b5f82821c905092915050565b5f6200083e5f198460080262000821565b1980831691505092915050565b5f6200085883836200082d565b9150826002028217905092915050565b620008738262000604565b67ffffffffffffffff8111156200088f576200088e6200060e565b5b6200089b825462000668565b620008a8828285620007d1565b5f60209050601f831160018114620008de575f8415620008c9578287015190505b620008d585826200084b565b86555062000944565b601f198416620008ee866200069c565b5f5b828110156200091757848901518255600182019150602085019450602081019050620008f0565b8683101562000937578489015162000933601f8916826200082d565b8355505b6001600288020188555050505b505050505050565b5f80fd5b5f73ffffffffffffffffffffffffffffffffffffffff82169050919050565b5f6200097b8262000950565b9050919050565b6200098d816200096f565b811462000998575f80fd5b50565b5f81519050620009ab8162000982565b92915050565b5f60208284031215620009c957620009c86200094c565b5b5f620009d8848285016200099b565b91505092915050565b620009ec816200096f565b82525050565b5f60208201905062000a075f830184620009e1565b92915050565b6155358062000a1b5f395ff3fe608060405234801561000f575f80fd5b5060043610610251575f3560e01c806370a0823111610144578063b534b5b7116100c1578063cee2a9cf11610085578063cee2a9cf14610714578063d1b02ba714610744578063d81bc27114610763578063e985e9c514610784578063f2fde38b146107b4578063fe575a87146107d057610251565b8063b534b5b714610670578063b88d4fde1461068e578063ba4e5c49146106aa578063c87b56dd146106da578063c9c2783f1461070a57610251565b806395d89b411161010857806395d89b41146105b8578063a22cb465146105d6578063a7a8c359146105f2578063ad9ab85714610622578063b2f5a54c1461065257610251565b806370a0823114610524578063715018a6146105545780637e1c0c091461055e5780637ff9b5961461057c5780638da5cb5b1461059a57610251565b806323b872dd116101d2578063486fc7e811610196578063486fc7e81461046e57806354e35ba21461049e5780636352211e146104ba578063676c0d77146104ea57806369bb4dc21461050657610251565b806323b872dd146103b95780633610724e146103d55780633af32abf146103f15780633feb5f2b1461042157806342842e0e1461045257610251565b80631120fd03116102195780631120fd031461030d57806311eac8551461033e578063176fd3f01461035c578063192ddae51461037d5780631f62f3091461039b57610251565b806301ffc9a71461025557806306a1c6a21461028557806306fdde03146102a3578063081812fc146102c1578063095ea7b3146102f1575b5f80fd5b61026f600480360381019061026a9190613b37565b610800565b60405161027c9190613b7c565b60405180910390f35b61028d610860565b60405161029a9190613bd4565b60405180910390f35b6102ab610878565b6040516102b89190613c77565b60405180910390f35b6102db60048036038101906102d69190613cca565b610907565b6040516102e89190613bd4565b60405180910390f35b61030b60048036038101906103069190613d1f565b610922565b005b61032760048036038101906103229190613cca565b610938565b604051610335929190613d6c565b60405180910390f35b610346610986565b6040516103539190613dee565b60405180910390f35b6103646109ab565b6040516103749493929190613e07565b60405180910390f35b610385610a4e565b6040516103929190613b7c565b60405180910390f35b6103a3610a60565b6040516103b09190613e51565b60405180910390f35b6103d360048036038101906103ce9190613e6a565b610a66565b005b6103ef60048036038101906103ea9190613cca565b610b65565b005b61040b60048036038101906104069190613eba565b61144c565b6040516104189190613b7c565b60405180910390f35b61043b60048036038101906104369190613cca565b6114f4565b604051610449929190613d6c565b60405180910390f35b61046c60048036038101906104679190613e6a565b611542565b005b61048860048036038101906104839190613eba565b611561565b6040516104959190613e51565b60405180910390f35b6104b860048036038101906104b39190613ee5565b611576565b005b6104d460048036038101906104cf9190613cca565b611701565b6040516104e19190613bd4565b60405180910390f35b61050460048036038101906104ff9190613cca565b611712565b005b61050e611772565b60405161051b9190613e51565b60405180910390f35b61053e60048036038101906105399190613eba565b611810565b60405161054b9190613e51565b60405180910390f35b61055c6118c6565b005b6105666118d9565b6040516105739190613e51565b60405180910390f35b6105846118df565b6040516105919190613e51565b60405180910390f35b6105a26118e5565b6040516105af9190613bd4565b60405180910390f35b6105c061190d565b6040516105cd9190613c77565b60405180910390f35b6105f060048036038101906105eb9190613f4d565b61199d565b005b61060c60048036038101906106079190613cca565b6119b3565b6040516106199190613bd4565b60405180910390f35b61063c60048036038101906106379190613cca565b6119ee565b6040516106499190613b7c565b60405180910390f35b61065a611a0b565b604051610667919061407e565b60405180910390f35b610678611ac5565b6040516106859190613e51565b60405180910390f35b6106a860048036038101906106a391906141ca565b611acb565b005b6106c460048036038101906106bf9190613cca565b611ae8565b6040516106d19190613bd4565b60405180910390f35b6106f460048036038101906106ef9190613cca565b611b23565b6040516107019190613c77565b60405180910390f35b610712611c2e565b005b61072e60048036038101906107299190613eba565b612092565b60405161073b9190613b7c565b60405180910390f35b61074c612140565b60405161075a92919061439a565b60405180910390f35b61076b612420565b60405161077b9493929190613e07565b60405180910390f35b61079e600480360381019061079991906143cf565b6124d3565b6040516107ab9190613b7c565b60405180910390f35b6107ce60048036038101906107c99190613eba565b612561565b005b6107ea60048036038101906107e59190613eba565b6125e5565b6040516107f79190613b7c565b60405180910390f35b5f634906490660e01b7bffffffffffffffffffffffffffffffffffffffffffffffffffffffff1916827bffffffffffffffffffffffffffffffffffffffffffffffffffffffff1916148061085957506108588261268d565b5b9050919050565b7305b9e9514fce6b5d903c7e763429b1d497de6b3b81565b60605f80546108869061443a565b80601f01602080910402602001604051908101604052809291908181526020018280546108b29061443a565b80156108fd5780601f106108d4576101008083540402835291602001916108fd565b820191905f5260205f20905b8154815290600101906020018083116108e057829003601f168201915b5050505050905090565b5f6109118261276e565b5061091b826127f4565b9050919050565b610934828261092f61282d565b612834565b5050565b60158181548110610947575f80fd5b905f5260205f2090600202015f91509050805f015f9054906101000a900473ffffffffffffffffffffffffffffffffffffffff16908060010154905082565b60115f9054906101000a900473ffffffffffffffffffffffffffffffffffffffff1681565b6008805f0180546109bb9061443a565b80601f01602080910402602001604051908101604052809291908181526020018280546109e79061443a565b8015610a325780601f10610a0957610100808354040283529160200191610a32565b820191905f5260205f20905b815481529060010190602001808311610a1557829003601f168201915b5050505050908060010154908060020154908060030154905084565b600c5f9054906101000a900460ff1681565b60145481565b5f73ffffffffffffffffffffffffffffffffffffffff168273ffffffffffffffffffffffffffffffffffffffff1603610ad6575f6040517f64a0ae92000000000000000000000000000000000000000000000000000000008152600401610acd9190613bd4565b60405180910390fd5b5f610ae98383610ae461282d565b612846565b90508373ffffffffffffffffffffffffffffffffffffffff168173ffffffffffffffffffffffffffffffffffffffff1614610b5f578382826040517f64283d7b000000000000000000000000000000000000000000000000000000008152600401610b569392919061446a565b60405180910390fd5b50505050565b600c5f9054906101000a900460ff16610bb3576040517f08c379a0000000000000000000000000000000000000000000000000000000008152600401610baa906144e9565b60405180910390fd5b5f81118015610bc3575060088111155b610c02576040517f08c379a0000000000000000000000000000000000000000000000000000000008152600401610bf990614577565b60405180910390fd5b610c0a611772565b811115610c4c576040517f08c379a0000000000000000000000000000000000000000000000000000000008152600401610c43906145df565b60405180910390fd5b610c553361144c565b610c94576040517f08c379a0000000000000000000000000000000000000000000000000000000008152600401610c8b90614647565b60405180910390fd5b610c9d336125e5565b15610cdd576040517f08c379a0000000000000000000000000000000000000000000000000000000008152600401610cd4906146af565b60405180910390fd5b5f600d5482610cec91906146fa565b90508060115f9054906101000a900473ffffffffffffffffffffffffffffffffffffffff1673ffffffffffffffffffffffffffffffffffffffff166370a08231336040518263ffffffff1660e01b8152600401610d499190613bd4565b602060405180830381865afa158015610d64573d5f803e3d5ffd5b505050506040513d601f19601f82011682018060405250810190610d88919061474f565b1015610dc9576040517f08c379a0000000000000000000000000000000000000000000000000000000008152600401610dc0906147c4565b60405180910390fd5b8060115f9054906101000a900473ffffffffffffffffffffffffffffffffffffffff1673ffffffffffffffffffffffffffffffffffffffff1663dd62ed3e33306040518363ffffffff1660e01b8152600401610e269291906147e2565b602060405180830381865afa158015610e41573d5f803e3d5ffd5b505050506040513d601f19601f82011682018060405250810190610e65919061474f565b1015610ea6576040517f08c379a0000000000000000000000000000000000000000000000000000000008152600401610e9d90614853565b60405180910390fd5b60115f9054906101000a900473ffffffffffffffffffffffffffffffffffffffff1673ffffffffffffffffffffffffffffffffffffffff166323b872dd3330846040518463ffffffff1660e01b8152600401610f0493929190614871565b6020604051808303815f875af1158015610f20573d5f803e3d5ffd5b505050506040513d601f19601f82011682018060405250810190610f4491906148ba565b505f80600190505b600e548111158015610f5d57508382105b1561120d5760105f8281526020019081526020015f205f9054906101000a900460ff166111fa57610f96610f8f6118e5565b3383612a51565b600160105f8381526020019081526020015f205f6101000a81548160ff021916908315150217905550600160165f3373ffffffffffffffffffffffffffffffffffffffff1673ffffffffffffffffffffffffffffffffffffffff1681526020019081526020015f205f82825461100c91906148e5565b925050819055505f805b6017805490508110156110ed573373ffffffffffffffffffffffffffffffffffffffff166017828154811061104e5761104d614918565b5b905f5260205f2090600202015f015f9054906101000a900473ffffffffffffffffffffffffffffffffffffffff1673ffffffffffffffffffffffffffffffffffffffff16036110da576001601782815481106110ad576110ac614918565b5b905f5260205f2090600202016001015f8282546110ca91906148e5565b92505081905550600191506110ed565b80806110e590614945565b915050611016565b508061119857601760405180604001604052803373ffffffffffffffffffffffffffffffffffffffff1681526020016001815250908060018154018082558091505060019003905f5260205f2090600202015f909190919091505f820151815f015f6101000a81548173ffffffffffffffffffffffffffffffffffffffff021916908373ffffffffffffffffffffffffffffffffffffffff1602179055506020820151816001015550505b82806111a390614945565b9350503373ffffffffffffffffffffffffffffffffffffffff167f3ceffd410054fdaed44f598ff5c1fb450658778e2241892da4aa646979dee61783600d546040516111f092919061498c565b60405180910390a2505b808061120590614945565b915050610f4c565b505f606460028461121e91906146fa565b61122891906149e0565b90505f81846112379190614a10565b905060115f9054906101000a900473ffffffffffffffffffffffffffffffffffffffff1673ffffffffffffffffffffffffffffffffffffffff1663a9059cbb7305b9e9514fce6b5d903c7e763429b1d497de6b3b846040518363ffffffff1660e01b81526004016112a9929190613d6c565b6020604051808303815f875af11580156112c5573d5f803e3d5ffd5b505050506040513d601f19601f820116820180604052508101906112e991906148ba565b507305b9e9514fce6b5d903c7e763429b1d497de6b3b73ffffffffffffffffffffffffffffffffffffffff167f885e6f6235626292940f78c947a331f4c7c1d7f50a48b38092cf546bc9c7907a836040516113449190613e51565b60405180910390a260115f9054906101000a900473ffffffffffffffffffffffffffffffffffffffff1673ffffffffffffffffffffffffffffffffffffffff1663a9059cbb6113916118e5565b836040518363ffffffff1660e01b81526004016113af929190613d6c565b6020604051808303815f875af11580156113cb573d5f803e3d5ffd5b505050506040513d601f19601f820116820180604052508101906113ef91906148ba565b506113f86118e5565b73ffffffffffffffffffffffffffffffffffffffff167f6ef95f06320e7a25a04a175ca677b7052bdd97131872c2192525a629f51be7708260405161143d9190613e51565b60405180910390a25050505050565b5f805f90505b6012805490508110156114ea578273ffffffffffffffffffffffffffffffffffffffff166012828154811061148a57611489614918565b5b905f5260205f20015f9054906101000a900473ffffffffffffffffffffffffffffffffffffffff1673ffffffffffffffffffffffffffffffffffffffff16036114d75760019150506114ef565b80806114e290614945565b915050611452565b505f90505b919050565b60178181548110611503575f80fd5b905f5260205f2090600202015f91509050805f015f9054906101000a900473ffffffffffffffffffffffffffffffffffffffff16908060010154905082565b61155c83838360405180602001604052805f815250611acb565b505050565b6016602052805f5260405f205f915090505481565b61157e612bb9565b600c5f9054906101000a900460ff16156115cd576040517f08c379a00000000000000000000000000000000000000000000000000000000081526004016115c490614a8d565b60405180910390fd5b81600e81905550620f4240816115e391906146fa565b600d819055506001600c5f6101000a81548160ff0219169083151502179055505f60085f01611616600860010154612c40565b611624600860020154612c40565b611632600860030154612c40565b6040516020016116459493929190614ff9565b60405160208183030381529060405290505f61166082612dbe565b90505f81604051602001611674919061510f565b60405160208183030381529060405290505f600190505b8581116116b95761169c3382612f2b565b6116a6818361301e565b80806116b190614945565b91505061168b565b5084600f819055507f08a3ad1d54f9e72ce7885341976027e04c0c26bddba427e8768f04879f82dc6e85856040516116f292919061498c565b60405180910390a15050505050565b5f61170b8261276e565b9050919050565b61171a612bb9565b600c5f9054906101000a900460ff16611768576040517f08c379a000000000000000000000000000000000000000000000000000000000815260040161175f906144e9565b60405180910390fd5b80600d8190555050565b5f805f90505f600190505b600e548111611808575f73ffffffffffffffffffffffffffffffffffffffff166117a682611701565b73ffffffffffffffffffffffffffffffffffffffff1614806117e2575060105f8281526020019081526020015f205f9054906101000a900460ff165b6117f55781806117f190614945565b9250505b808061180090614945565b91505061177d565b508091505090565b5f8073ffffffffffffffffffffffffffffffffffffffff168273ffffffffffffffffffffffffffffffffffffffff1603611881575f6040517f89c62b640000000000000000000000000000000000000000000000000000000081526004016118789190613bd4565b60405180910390fd5b60035f8373ffffffffffffffffffffffffffffffffffffffff1673ffffffffffffffffffffffffffffffffffffffff1681526020019081526020015f20549050919050565b6118ce612bb9565b6118d75f613078565b565b600e5481565b600d5481565b5f60075f9054906101000a900473ffffffffffffffffffffffffffffffffffffffff16905090565b60606001805461191c9061443a565b80601f01602080910402602001604051908101604052809291908181526020018280546119489061443a565b80156119935780601f1061196a57610100808354040283529160200191611993565b820191905f5260205f20905b81548152906001019060200180831161197657829003601f168201915b5050505050905090565b6119af6119a861282d565b838361313b565b5050565b601381815481106119c2575f80fd5b905f5260205f20015f915054906101000a900473ffffffffffffffffffffffffffffffffffffffff1681565b6010602052805f5260405f205f915054906101000a900460ff1681565b60606017805480602002602001604051908101604052809291908181526020015f905b82821015611abc578382905f5260205f2090600202016040518060400160405290815f82015f9054906101000a900473ffffffffffffffffffffffffffffffffffffffff1673ffffffffffffffffffffffffffffffffffffffff1673ffffffffffffffffffffffffffffffffffffffff16815260200160018201548152505081526020019060010190611a2e565b50505050905090565b600f5481565b611ad6848484610a66565b611ae2848484846132a4565b50505050565b60128181548110611af7575f80fd5b905f5260205f20015f915054906101000a900473ffffffffffffffffffffffffffffffffffffffff1681565b6060611b2e8261276e565b505f60065f8481526020019081526020015f208054611b4c9061443a565b80601f0160208091040260200160405190810160405280929190818152602001828054611b789061443a565b8015611bc35780601f10611b9a57610100808354040283529160200191611bc3565b820191905f5260205f20905b815481529060010190602001808311611ba657829003601f168201915b505050505090505f611bd3613456565b90505f815103611be7578192505050611c29565b5f82511115611c1b578082604051602001611c03929190615130565b60405160208183030381529060405292505050611c29565b611c248461346c565b925050505b919050565b611c36612bb9565b600c5f9054906101000a900460ff16611c84576040517f08c379a0000000000000000000000000000000000000000000000000000000008152600401611c7b906144e9565b60405180910390fd5b5f6103e86005601454611c9791906146fa565b611ca191906149e0565b90505f80611cad611a0b565b90505f5b8151811015611d0e575f828281518110611cce57611ccd614918565b5b60200260200101516020015190505f8186611ce991906146fa565b90508085611cf791906148e5565b945050508080611d0690614945565b915050611cb1565b508160115f9054906101000a900473ffffffffffffffffffffffffffffffffffffffff1673ffffffffffffffffffffffffffffffffffffffff1663dd62ed3e33306040518363ffffffff1660e01b8152600401611d6c9291906147e2565b602060405180830381865afa158015611d87573d5f803e3d5ffd5b505050506040513d601f19601f82011682018060405250810190611dab919061474f565b1015611dec576040517f08c379a0000000000000000000000000000000000000000000000000000000008152600401611de390614853565b60405180910390fd5b60115f9054906101000a900473ffffffffffffffffffffffffffffffffffffffff1673ffffffffffffffffffffffffffffffffffffffff166323b872dd3330856040518463ffffffff1660e01b8152600401611e4a93929190614871565b6020604051808303815f875af1158015611e66573d5f803e3d5ffd5b505050506040513d601f19601f82011682018060405250810190611e8a91906148ba565b505f5b815181101561208c575f828281518110611eaa57611ea9614918565b5b60200260200101515f015190505f838381518110611ecb57611eca614918565b5b60200260200101516020015190505f8187611ee691906146fa565b905060115f9054906101000a900473ffffffffffffffffffffffffffffffffffffffff1673ffffffffffffffffffffffffffffffffffffffff1663a9059cbb84836040518363ffffffff1660e01b8152600401611f44929190613d6c565b6020604051808303815f875af1158015611f60573d5f803e3d5ffd5b505050506040513d601f19601f82011682018060405250810190611f8491906148ba565b50601560405180604001604052808573ffffffffffffffffffffffffffffffffffffffff16815260200183815250908060018154018082558091505060019003905f5260205f2090600202015f909190919091505f820151815f015f6101000a81548173ffffffffffffffffffffffffffffffffffffffff021916908373ffffffffffffffffffffffffffffffffffffffff1602179055506020820151816001015550508273ffffffffffffffffffffffffffffffffffffffff167ffbfb5c3838edba49f86bf92ac506367c2bb6d474fa7cbadfd4f5618c9c665a488260405161206e9190613e51565b60405180910390a2505050808061208490614945565b915050611e8d565b50505050565b5f805f90505b601780549050811015612136578273ffffffffffffffffffffffffffffffffffffffff16601782815481106120d0576120cf614918565b5b905f5260205f2090600202015f015f9054906101000a900473ffffffffffffffffffffffffffffffffffffffff1673ffffffffffffffffffffffffffffffffffffffff160361212357600191505061213b565b808061212e90614945565b915050612098565b505f90505b919050565b6060805f600e5467ffffffffffffffff8111156121605761215f6140a6565b5b60405190808252806020026020018201604052801561218e5781602001602082028036833780820191505090505b5090505f600e5467ffffffffffffffff8111156121ae576121ad6140a6565b5b6040519080825280602002602001820160405280156121dc5781602001602082028036833780820191505090505b5090505f80600190505b600e5481116122c2575f73ffffffffffffffffffffffffffffffffffffffff1661220f82611701565b73ffffffffffffffffffffffffffffffffffffffff16146122af5761223381611701565b84838151811061224657612245614918565b5b602002602001019073ffffffffffffffffffffffffffffffffffffffff16908173ffffffffffffffffffffffffffffffffffffffff16815250508083838151811061229457612293614918565b5b60200260200101818152505081806122ab90614945565b9250505b80806122ba90614945565b9150506121e6565b508067ffffffffffffffff8111156122dd576122dc6140a6565b5b60405190808252806020026020018201604052801561230b5781602001602082028036833780820191505090505b5094508067ffffffffffffffff811115612328576123276140a6565b5b6040519080825280602002602001820160405280156123565781602001602082028036833780820191505090505b5093505f5b818110156124185783818151811061237657612375614918565b5b602002602001015186828151811061239157612390614918565b5b602002602001019073ffffffffffffffffffffffffffffffffffffffff16908173ffffffffffffffffffffffffffffffffffffffff16815250508281815181106123de576123dd614918565b5b60200260200101518582815181106123f9576123f8614918565b5b602002602001018181525050808061241090614945565b91505061235b565b505050509091565b60605f805f60085f016008600101546008600201546008600301548380546124479061443a565b80601f01602080910402602001604051908101604052809291908181526020018280546124739061443a565b80156124be5780601f10612495576101008083540402835291602001916124be565b820191905f5260205f20905b8154815290600101906020018083116124a157829003601f168201915b50505050509350935093509350935090919293565b5f60055f8473ffffffffffffffffffffffffffffffffffffffff1673ffffffffffffffffffffffffffffffffffffffff1681526020019081526020015f205f8373ffffffffffffffffffffffffffffffffffffffff1673ffffffffffffffffffffffffffffffffffffffff1681526020019081526020015f205f9054906101000a900460ff16905092915050565b612569612bb9565b5f73ffffffffffffffffffffffffffffffffffffffff168173ffffffffffffffffffffffffffffffffffffffff16036125d9575f6040517f1e4fbdf70000000000000000000000000000000000000000000000000000000081526004016125d09190613bd4565b60405180910390fd5b6125e281613078565b50565b5f805f90505b601380549050811015612683578273ffffffffffffffffffffffffffffffffffffffff166013828154811061262357612622614918565b5b905f5260205f20015f9054906101000a900473ffffffffffffffffffffffffffffffffffffffff1673ffffffffffffffffffffffffffffffffffffffff1603612670576001915050612688565b808061267b90614945565b9150506125eb565b505f90505b919050565b5f7f80ac58cd000000000000000000000000000000000000000000000000000000007bffffffffffffffffffffffffffffffffffffffffffffffffffffffff1916827bffffffffffffffffffffffffffffffffffffffffffffffffffffffff1916148061275757507f5b5e139f000000000000000000000000000000000000000000000000000000007bffffffffffffffffffffffffffffffffffffffffffffffffffffffff1916827bffffffffffffffffffffffffffffffffffffffffffffffffffffffff1916145b806127675750612766826134d2565b5b9050919050565b5f806127798361353b565b90505f73ffffffffffffffffffffffffffffffffffffffff168173ffffffffffffffffffffffffffffffffffffffff16036127eb57826040517f7e2732890000000000000000000000000000000000000000000000000000000081526004016127e29190613e51565b60405180910390fd5b80915050919050565b5f60045f8381526020019081526020015f205f9054906101000a900473ffffffffffffffffffffffffffffffffffffffff169050919050565b5f33905090565b6128418383836001613574565b505050565b5f806128518461353b565b90505f73ffffffffffffffffffffffffffffffffffffffff168373ffffffffffffffffffffffffffffffffffffffff161461289257612891818486613733565b5b5f73ffffffffffffffffffffffffffffffffffffffff168173ffffffffffffffffffffffffffffffffffffffff161461291d576128d15f855f80613574565b600160035f8373ffffffffffffffffffffffffffffffffffffffff1673ffffffffffffffffffffffffffffffffffffffff1681526020019081526020015f205f82825403925050819055505b5f73ffffffffffffffffffffffffffffffffffffffff168573ffffffffffffffffffffffffffffffffffffffff161461299c57600160035f8773ffffffffffffffffffffffffffffffffffffffff1673ffffffffffffffffffffffffffffffffffffffff1681526020019081526020015f205f82825401925050819055505b8460025f8681526020019081526020015f205f6101000a81548173ffffffffffffffffffffffffffffffffffffffff021916908373ffffffffffffffffffffffffffffffffffffffff160217905550838573ffffffffffffffffffffffffffffffffffffffff168273ffffffffffffffffffffffffffffffffffffffff167fddf252ad1be2c89b69c2b068fc378daa952ba7f163c4a11628f55a4df523b3ef60405160405180910390a4809150509392505050565b5f73ffffffffffffffffffffffffffffffffffffffff168273ffffffffffffffffffffffffffffffffffffffff1603612ac1575f6040517f64a0ae92000000000000000000000000000000000000000000000000000000008152600401612ab89190613bd4565b60405180910390fd5b5f612acd83835f612846565b90505f73ffffffffffffffffffffffffffffffffffffffff168173ffffffffffffffffffffffffffffffffffffffff1603612b3f57816040517f7e273289000000000000000000000000000000000000000000000000000000008152600401612b369190613e51565b60405180910390fd5b8373ffffffffffffffffffffffffffffffffffffffff168173ffffffffffffffffffffffffffffffffffffffff1614612bb3578382826040517f64283d7b000000000000000000000000000000000000000000000000000000008152600401612baa9392919061446a565b60405180910390fd5b50505050565b612bc161282d565b73ffffffffffffffffffffffffffffffffffffffff16612bdf6118e5565b73ffffffffffffffffffffffffffffffffffffffff1614612c3e57612c0261282d565b6040517f118cdaa7000000000000000000000000000000000000000000000000000000008152600401612c359190613bd4565b60405180910390fd5b565b60605f8203612c86576040518060400160405280600181526020017f30000000000000000000000000000000000000000000000000000000000000008152509050612db9565b5f8290505f5b5f8214612cb5578080612c9e90614945565b915050600a82612cae91906149e0565b9150612c8c565b5f8167ffffffffffffffff811115612cd057612ccf6140a6565b5b6040519080825280601f01601f191660200182016040528015612d025781602001600182028036833780820191505090505b5090505f8290505b5f8614612db157600181612d1e9190614a10565b90505f600a8088612d2f91906149e0565b612d3991906146fa565b87612d449190614a10565b6030612d50919061515f565b90505f8160f81b905080848481518110612d6d57612d6c614918565b5b60200101907effffffffffffffffffffffffffffffffffffffffffffffffffffffffffffff191690815f1a905350600a88612da891906149e0565b97505050612d0a565b819450505050505b919050565b60605f825103612dde5760405180602001604052805f8152509050612f26565b5f6040518060600160405280604081526020016154c06040913990505f600360028551612e0b91906148e5565b612e1591906149e0565b6004612e2191906146fa565b67ffffffffffffffff811115612e3a57612e396140a6565b5b6040519080825280601f01601f191660200182016040528015612e6c5781602001600182028036833780820191505090505b509050600182016020820185865187016020810180515f82525b82841015612ee1576003840193508351603f8160121c168701518653600186019550603f81600c1c168701518653600186019550603f8160061c168701518653600186019550603f8116870151865360018601955050612e86565b80825260038a510660018114612efe5760028114612f1157612f19565b603d6001870353603d6002870353612f19565b603d60018703535b5050505050505080925050505b919050565b5f73ffffffffffffffffffffffffffffffffffffffff168273ffffffffffffffffffffffffffffffffffffffff1603612f9b575f6040517f64a0ae92000000000000000000000000000000000000000000000000000000008152600401612f929190613bd4565b60405180910390fd5b5f612fa783835f612846565b90505f73ffffffffffffffffffffffffffffffffffffffff168173ffffffffffffffffffffffffffffffffffffffff1614613019575f6040517f73c6ac6e0000000000000000000000000000000000000000000000000000000081526004016130109190613bd4565b60405180910390fd5b505050565b8060065f8481526020019081526020015f20908161303c9190615315565b507ff8e1a15aba9398e019f0b49df1a4fde98ee17ae345cb5f6b5e2c27f5033e8ce78260405161306c9190613e51565b60405180910390a15050565b5f60075f9054906101000a900473ffffffffffffffffffffffffffffffffffffffff1690508160075f6101000a81548173ffffffffffffffffffffffffffffffffffffffff021916908373ffffffffffffffffffffffffffffffffffffffff1602179055508173ffffffffffffffffffffffffffffffffffffffff168173ffffffffffffffffffffffffffffffffffffffff167f8be0079c531659141344cd1fd0a4f28419497f9722a3daafe3b4186f6b6457e060405160405180910390a35050565b5f73ffffffffffffffffffffffffffffffffffffffff168273ffffffffffffffffffffffffffffffffffffffff16036131ab57816040517f5b08ba180000000000000000000000000000000000000000000000000000000081526004016131a29190613bd4565b60405180910390fd5b8060055f8573ffffffffffffffffffffffffffffffffffffffff1673ffffffffffffffffffffffffffffffffffffffff1681526020019081526020015f205f8473ffffffffffffffffffffffffffffffffffffffff1673ffffffffffffffffffffffffffffffffffffffff1681526020019081526020015f205f6101000a81548160ff0219169083151502179055508173ffffffffffffffffffffffffffffffffffffffff168373ffffffffffffffffffffffffffffffffffffffff167f17307eab39ab6107e8899845ad3d59bd9653f200f220920489ca2b5937696c31836040516132979190613b7c565b60405180910390a3505050565b5f8373ffffffffffffffffffffffffffffffffffffffff163b1115613450578273ffffffffffffffffffffffffffffffffffffffff1663150b7a026132e761282d565b8685856040518563ffffffff1660e01b81526004016133099493929190615436565b6020604051808303815f875af192505050801561334457506040513d601f19601f820116820180604052508101906133419190615494565b60015b6133c5573d805f8114613372576040519150601f19603f3d011682016040523d82523d5f602084013e613377565b606091505b505f8151036133bd57836040517f64a0ae920000000000000000000000000000000000000000000000000000000081526004016133b49190613bd4565b60405180910390fd5b805181602001fd5b63150b7a0260e01b7bffffffffffffffffffffffffffffffffffffffffffffffffffffffff1916817bffffffffffffffffffffffffffffffffffffffffffffffffffffffff19161461344e57836040517f64a0ae920000000000000000000000000000000000000000000000000000000081526004016134459190613bd4565b60405180910390fd5b505b50505050565b606060405180602001604052805f815250905090565b60606134778261276e565b505f613481613456565b90505f81511161349f5760405180602001604052805f8152506134ca565b806134a9846137f6565b6040516020016134ba929190615130565b6040516020818303038152906040525b915050919050565b5f7f01ffc9a7000000000000000000000000000000000000000000000000000000007bffffffffffffffffffffffffffffffffffffffffffffffffffffffff1916827bffffffffffffffffffffffffffffffffffffffffffffffffffffffff1916149050919050565b5f60025f8381526020019081526020015f205f9054906101000a900473ffffffffffffffffffffffffffffffffffffffff169050919050565b80806135ac57505f73ffffffffffffffffffffffffffffffffffffffff168273ffffffffffffffffffffffffffffffffffffffff1614155b156136de575f6135bb8461276e565b90505f73ffffffffffffffffffffffffffffffffffffffff168373ffffffffffffffffffffffffffffffffffffffff161415801561362557508273ffffffffffffffffffffffffffffffffffffffff168173ffffffffffffffffffffffffffffffffffffffff1614155b8015613638575061363681846124d3565b155b1561367a57826040517fa9fbf51f0000000000000000000000000000000000000000000000000000000081526004016136719190613bd4565b60405180910390fd5b81156136dc57838573ffffffffffffffffffffffffffffffffffffffff168273ffffffffffffffffffffffffffffffffffffffff167f8c5be1e5ebec7d5bd14f71427d1e84f3dd0314c0f7b2291e5b200ac8c7c3b92560405160405180910390a45b505b8360045f8581526020019081526020015f205f6101000a81548173ffffffffffffffffffffffffffffffffffffffff021916908373ffffffffffffffffffffffffffffffffffffffff16021790555050505050565b61373e8383836138c0565b6137f1575f73ffffffffffffffffffffffffffffffffffffffff168373ffffffffffffffffffffffffffffffffffffffff16036137b257806040517f7e2732890000000000000000000000000000000000000000000000000000000081526004016137a99190613e51565b60405180910390fd5b81816040517f177e802f0000000000000000000000000000000000000000000000000000000081526004016137e8929190613d6c565b60405180910390fd5b505050565b60605f600161380484613980565b0190505f8167ffffffffffffffff811115613822576138216140a6565b5b6040519080825280601f01601f1916602001820160405280156138545781602001600182028036833780820191505090505b5090505f82602001820190505b6001156138b5578080600190039150507f3031323334353637383961626364656600000000000000000000000000000000600a86061a8153600a85816138aa576138a96149b3565b5b0494505f8503613861575b819350505050919050565b5f8073ffffffffffffffffffffffffffffffffffffffff168373ffffffffffffffffffffffffffffffffffffffff161415801561397757508273ffffffffffffffffffffffffffffffffffffffff168473ffffffffffffffffffffffffffffffffffffffff161480613938575061393784846124d3565b5b8061397657508273ffffffffffffffffffffffffffffffffffffffff1661395e836127f4565b73ffffffffffffffffffffffffffffffffffffffff16145b5b90509392505050565b5f805f90507a184f03e93ff9f4daa797ed6e38ed64bf6a1f01000000000000000083106139dc577a184f03e93ff9f4daa797ed6e38ed64bf6a1f01000000000000000083816139d2576139d16149b3565b5b0492506040810190505b6d04ee2d6d415b85acef81000000008310613a19576d04ee2d6d415b85acef81000000008381613a0f57613a0e6149b3565b5b0492506020810190505b662386f26fc100008310613a4857662386f26fc100008381613a3e57613a3d6149b3565b5b0492506010810190505b6305f5e1008310613a71576305f5e1008381613a6757613a666149b3565b5b0492506008810190505b6127108310613a96576127108381613a8c57613a8b6149b3565b5b0492506004810190505b60648310613ab95760648381613aaf57613aae6149b3565b5b0492506002810190505b600a8310613ac8576001810190505b80915050919050565b5f604051905090565b5f80fd5b5f80fd5b5f7fffffffff0000000000000000000000000000000000000000000000000000000082169050919050565b613b1681613ae2565b8114613b20575f80fd5b50565b5f81359050613b3181613b0d565b92915050565b5f60208284031215613b4c57613b4b613ada565b5b5f613b5984828501613b23565b91505092915050565b5f8115159050919050565b613b7681613b62565b82525050565b5f602082019050613b8f5f830184613b6d565b92915050565b5f73ffffffffffffffffffffffffffffffffffffffff82169050919050565b5f613bbe82613b95565b9050919050565b613bce81613bb4565b82525050565b5f602082019050613be75f830184613bc5565b92915050565b5f81519050919050565b5f82825260208201905092915050565b5f5b83811015613c24578082015181840152602081019050613c09565b5f8484015250505050565b5f601f19601f8301169050919050565b5f613c4982613bed565b613c538185613bf7565b9350613c63818560208601613c07565b613c6c81613c2f565b840191505092915050565b5f6020820190508181035f830152613c8f8184613c3f565b905092915050565b5f819050919050565b613ca981613c97565b8114613cb3575f80fd5b50565b5f81359050613cc481613ca0565b92915050565b5f60208284031215613cdf57613cde613ada565b5b5f613cec84828501613cb6565b91505092915050565b613cfe81613bb4565b8114613d08575f80fd5b50565b5f81359050613d1981613cf5565b92915050565b5f8060408385031215613d3557613d34613ada565b5b5f613d4285828601613d0b565b9250506020613d5385828601613cb6565b9150509250929050565b613d6681613c97565b82525050565b5f604082019050613d7f5f830185613bc5565b613d8c6020830184613d5d565b9392505050565b5f819050919050565b5f613db6613db1613dac84613b95565b613d93565b613b95565b9050919050565b5f613dc782613d9c565b9050919050565b5f613dd882613dbd565b9050919050565b613de881613dce565b82525050565b5f602082019050613e015f830184613ddf565b92915050565b5f6080820190508181035f830152613e1f8187613c3f565b9050613e2e6020830186613d5d565b613e3b6040830185613d5d565b613e486060830184613d5d565b95945050505050565b5f602082019050613e645f830184613d5d565b92915050565b5f805f60608486031215613e8157613e80613ada565b5b5f613e8e86828701613d0b565b9350506020613e9f86828701613d0b565b9250506040613eb086828701613cb6565b9150509250925092565b5f60208284031215613ecf57613ece613ada565b5b5f613edc84828501613d0b565b91505092915050565b5f8060408385031215613efb57613efa613ada565b5b5f613f0885828601613cb6565b9250506020613f1985828601613cb6565b9150509250929050565b613f2c81613b62565b8114613f36575f80fd5b50565b5f81359050613f4781613f23565b92915050565b5f8060408385031215613f6357613f62613ada565b5b5f613f7085828601613d0b565b9250506020613f8185828601613f39565b9150509250929050565b5f81519050919050565b5f82825260208201905092915050565b5f819050602082019050919050565b613fbd81613bb4565b82525050565b613fcc81613c97565b82525050565b604082015f820151613fe65f850182613fb4565b506020820151613ff96020850182613fc3565b50505050565b5f61400a8383613fd2565b60408301905092915050565b5f602082019050919050565b5f61402c82613f8b565b6140368185613f95565b935061404183613fa5565b805f5b838110156140715781516140588882613fff565b975061406383614016565b925050600181019050614044565b5085935050505092915050565b5f6020820190508181035f8301526140968184614022565b905092915050565b5f80fd5b5f80fd5b7f4e487b71000000000000000000000000000000000000000000000000000000005f52604160045260245ffd5b6140dc82613c2f565b810181811067ffffffffffffffff821117156140fb576140fa6140a6565b5b80604052505050565b5f61410d613ad1565b905061411982826140d3565b919050565b5f67ffffffffffffffff821115614138576141376140a6565b5b61414182613c2f565b9050602081019050919050565b828183375f83830152505050565b5f61416e6141698461411e565b614104565b90508281526020810184848401111561418a576141896140a2565b5b61419584828561414e565b509392505050565b5f82601f8301126141b1576141b061409e565b5b81356141c184826020860161415c565b91505092915050565b5f805f80608085870312156141e2576141e1613ada565b5b5f6141ef87828801613d0b565b945050602061420087828801613d0b565b935050604061421187828801613cb6565b925050606085013567ffffffffffffffff81111561423257614231613ade565b5b61423e8782880161419d565b91505092959194509250565b5f81519050919050565b5f82825260208201905092915050565b5f819050602082019050919050565b5f61427e8383613fb4565b60208301905092915050565b5f602082019050919050565b5f6142a08261424a565b6142aa8185614254565b93506142b583614264565b805f5b838110156142e55781516142cc8882614273565b97506142d78361428a565b9250506001810190506142b8565b5085935050505092915050565b5f81519050919050565b5f82825260208201905092915050565b5f819050602082019050919050565b5f6143268383613fc3565b60208301905092915050565b5f602082019050919050565b5f614348826142f2565b61435281856142fc565b935061435d8361430c565b805f5b8381101561438d578151614374888261431b565b975061437f83614332565b925050600181019050614360565b5085935050505092915050565b5f6040820190508181035f8301526143b28185614296565b905081810360208301526143c6818461433e565b90509392505050565b5f80604083850312156143e5576143e4613ada565b5b5f6143f285828601613d0b565b925050602061440385828601613d0b565b9150509250929050565b7f4e487b71000000000000000000000000000000000000000000000000000000005f52602260045260245ffd5b5f600282049050600182168061445157607f821691505b6020821081036144645761446361440d565b5b50919050565b5f60608201905061447d5f830186613bc5565b61448a6020830185613d5d565b6144976040830184613bc5565b949350505050565b7f546f6b656e732068617665206e6f74206265656e2069737375656400000000005f82015250565b5f6144d3601b83613bf7565b91506144de8261449f565b602082019050919050565b5f6020820190508181035f830152614500816144c7565b9050919050565b7f4e756d626572206f6620746f6b656e73206d757374206265206265747765656e5f8201527f203120616e642038000000000000000000000000000000000000000000000000602082015250565b5f614561602883613bf7565b915061456c82614507565b604082019050919050565b5f6020820190508181035f83015261458e81614555565b9050919050565b7f4e6f7420656e6f75676820746f6b656e7320617661696c61626c6500000000005f82015250565b5f6145c9601b83613bf7565b91506145d482614595565b602082019050919050565b5f6020820190508181035f8301526145f6816145bd565b9050919050565b7f41646472657373206e6f742077686974656c69737465640000000000000000005f82015250565b5f614631601783613bf7565b915061463c826145fd565b602082019050919050565b5f6020820190508181035f83015261465e81614625565b9050919050565b7f4164647265737320626c61636b6c6973746564000000000000000000000000005f82015250565b5f614699601383613bf7565b91506146a482614665565b602082019050919050565b5f6020820190508181035f8301526146c68161468d565b9050919050565b7f4e487b71000000000000000000000000000000000000000000000000000000005f52601160045260245ffd5b5f61470482613c97565b915061470f83613c97565b925082820261471d81613c97565b91508282048414831517614734576147336146cd565b5b5092915050565b5f8151905061474981613ca0565b92915050565b5f6020828403121561476457614763613ada565b5b5f6147718482850161473b565b91505092915050565b7f496e73756666696369656e7420555344432062616c616e6365000000000000005f82015250565b5f6147ae601983613bf7565b91506147b98261477a565b602082019050919050565b5f6020820190508181035f8301526147db816147a2565b9050919050565b5f6040820190506147f55f830185613bc5565b6148026020830184613bc5565b9392505050565b7f5553444320616c6c6f77616e636520746f6f206c6f77000000000000000000005f82015250565b5f61483d601683613bf7565b915061484882614809565b602082019050919050565b5f6020820190508181035f83015261486a81614831565b9050919050565b5f6060820190506148845f830186613bc5565b6148916020830185613bc5565b61489e6040830184613d5d565b949350505050565b5f815190506148b481613f23565b92915050565b5f602082840312156148cf576148ce613ada565b5b5f6148dc848285016148a6565b91505092915050565b5f6148ef82613c97565b91506148fa83613c97565b9250828201905080821115614912576149116146cd565b5b92915050565b7f4e487b71000000000000000000000000000000000000000000000000000000005f52603260045260245ffd5b5f61494f82613c97565b91507fffffffffffffffffffffffffffffffffffffffffffffffffffffffffffffffff8203614981576149806146cd565b5b600182019050919050565b5f60408201905061499f5f830185613d5d565b6149ac6020830184613d5d565b9392505050565b7f4e487b71000000000000000000000000000000000000000000000000000000005f52601260045260245ffd5b5f6149ea82613c97565b91506149f583613c97565b925082614a0557614a046149b3565b5b828204905092915050565b5f614a1a82613c97565b9150614a2583613c97565b9250828203905081811115614a3d57614a3c6146cd565b5b92915050565b7f546f6b656e73206861766520616c7265616479206265656e20697373756564005f82015250565b5f614a77601f83613bf7565b9150614a8282614a43565b602082019050919050565b5f6020820190508181035f830152614aa481614a6b565b9050919050565b5f81905092915050565b7f7b226e616d65223a2022363239204861726c656d204c4c4d222c0000000000005f82015250565b5f614ae9601a83614aab565b9150614af482614ab5565b601a82019050919050565b7f226465736372697074696f6e223a20225257415420666f7220363239204861725f8201527f6c656d204c4c4d222c0000000000000000000000000000000000000000000000602082015250565b5f614b59602983614aab565b9150614b6482614aff565b602982019050919050565b7f22696d616765223a2022697066733a2f2f516d59584d4633364d34746e344c6d5f8201527f7554576a617965626f625450737945727762673934717a4c415871644d47792260208201527f2c00000000000000000000000000000000000000000000000000000000000000604082015250565b5f614bef604183614aab565b9150614bfa82614b6f565b604182019050919050565b7f2261747472696275746573223a205b00000000000000000000000000000000005f82015250565b5f614c39600f83614aab565b9150614c4482614c05565b600f82019050919050565b7f7b2274726169745f74797065223a20224c6f636174696f6e222c2276616c75655f8201527f223a202200000000000000000000000000000000000000000000000000000000602082015250565b5f614ca9602483614aab565b9150614cb482614c4f565b602482019050919050565b5f819050815f5260205f209050919050565b5f8154614cdd8161443a565b614ce78186614aab565b9450600182165f8114614d015760018114614d1657614d48565b60ff1983168652811515820286019350614d48565b614d1f85614cbf565b5f5b83811015614d4057815481890152600182019150602081019050614d21565b838801955050505b50505092915050565b7f227d2c00000000000000000000000000000000000000000000000000000000005f82015250565b5f614d85600383614aab565b9150614d9082614d51565b600382019050919050565b7f7b2274726169745f74797065223a20224c6f742053697a65222c2276616c75655f8201527f223a200000000000000000000000000000000000000000000000000000000000602082015250565b5f614df5602383614aab565b9150614e0082614d9b565b602382019050919050565b5f614e1582613bed565b614e1f8185614aab565b9350614e2f818560208601613c07565b80840191505092915050565b7f7d2c0000000000000000000000000000000000000000000000000000000000005f82015250565b5f614e6f600283614aab565b9150614e7a82614e3b565b600282019050919050565b7f7b2274726169745f74797065223a2022546f74616c205072696365222c2276615f8201527f6c7565223a200000000000000000000000000000000000000000000000000000602082015250565b5f614edf602683614aab565b9150614eea82614e85565b602682019050919050565b7f7b2274726169745f74797065223a20225461782041737365737365642056616c5f8201527f7565222c2276616c7565223a2000000000000000000000000000000000000000602082015250565b5f614f4f602d83614aab565b9150614f5a82614ef5565b602d82019050919050565b7f7d000000000000000000000000000000000000000000000000000000000000005f82015250565b5f614f99600183614aab565b9150614fa482614f65565b600182019050919050565b7f5d7d0000000000000000000000000000000000000000000000000000000000005f82015250565b5f614fe3600283614aab565b9150614fee82614faf565b600282019050919050565b5f61500382614add565b915061500e82614b4d565b915061501982614be3565b915061502482614c2d565b915061502f82614c9d565b915061503b8287614cd1565b915061504682614d79565b915061505182614de9565b915061505d8286614e0b565b915061506882614e63565b915061507382614ed3565b915061507f8285614e0b565b915061508a82614e63565b915061509582614f43565b91506150a18284614e0b565b91506150ac82614f8d565b91506150b782614fd7565b915081905095945050505050565b7f646174613a6170706c69636174696f6e2f6a736f6e3b6261736536342c0000005f82015250565b5f6150f9601d83614aab565b9150615104826150c5565b601d82019050919050565b5f615119826150ed565b91506151258284614e0b565b915081905092915050565b5f61513b8285614e0b565b91506151478284614e0b565b91508190509392505050565b5f60ff82169050919050565b5f61516982615153565b915061517483615153565b9250828201905060ff81111561518d5761518c6146cd565b5b92915050565b5f6020601f8301049050919050565b5f82821b905092915050565b5f600883026151dd7fffffffffffffffffffffffffffffffffffffffffffffffffffffffffffffffff826151a2565b6151e786836151a2565b95508019841693508086168417925050509392505050565b5f61521961521461520f84613c97565b613d93565b613c97565b9050919050565b5f819050919050565b615232836151ff565b61524661523e82615220565b8484546151ae565b825550505050565b5f90565b61525a61524e565b615265818484615229565b505050565b5b818110156152885761527d5f82615252565b60018101905061526b565b5050565b601f8211156152cd5761529e81614cbf565b6152a784615193565b810160208510156152b6578190505b6152ca6152c285615193565b83018261526a565b50505b505050565b5f82821c905092915050565b5f6152ed5f19846008026152d2565b1980831691505092915050565b5f61530583836152de565b9150826002028217905092915050565b61531e82613bed565b67ffffffffffffffff811115615337576153366140a6565b5b615341825461443a565b61534c82828561528c565b5f60209050601f83116001811461537d575f841561536b578287015190505b61537585826152fa565b8655506153dc565b601f19841661538b86614cbf565b5f5b828110156153b25784890151825560018201915060208501945060208101905061538d565b868310156153cf57848901516153cb601f8916826152de565b8355505b6001600288020188555050505b505050505050565b5f81519050919050565b5f82825260208201905092915050565b5f615408826153e4565b61541281856153ee565b9350615422818560208601613c07565b61542b81613c2f565b840191505092915050565b5f6080820190506154495f830187613bc5565b6154566020830186613bc5565b6154636040830185613d5d565b818103606083015261547581846153fe565b905095945050505050565b5f8151905061548e81613b0d565b92915050565b5f602082840312156154a9576154a8613ada565b5b5f6154b684828501615480565b9150509291505056fe4142434445464748494a4b4c4d4e4f505152535455565758595a6162636465666768696a6b6c6d6e6f707172737475767778797a303132333435363738392b2fa26469706673582212200ee8ca31a6475d3c51b6cf5b8b829136f3b9281667355c9b8d80c78965e0cec064736f6c63430008140033363239204841524c454d20415645202320312c20464f52455354205041524b2c20494c203630313330",
			"opcodes": "PUSH1 0x80 PUSH1 0x40 MSTORE PUSH1 0x40 MLOAD DUP1 PUSH1 0x80 ADD PUSH1 0x40 MSTORE DUP1 PUSH1 0x40 MLOAD DUP1 PUSH1 0x60 ADD PUSH1 0x40 MSTORE DUP1 PUSH1 0x29 DUP2 MSTORE PUSH1 0x20 ADD PUSH3 0x5F50 PUSH1 0x29 SWAP2 CODECOPY DUP2 MSTORE PUSH1 0x20 ADD PUSH2 0xDEC DUP2 MSTORE PUSH1 0x20 ADD PUSH3 0x46CD0 DUP2 MSTORE PUSH1 0x20 ADD PUSH2 0x5DFE DUP2 MSTORE POP PUSH1 0x8 PUSH0 DUP3 ADD MLOAD DUP2 PUSH0 ADD SWAP1 DUP2 PUSH3 0x5C SWAP2 SWAP1 PUSH3 0x868 JUMP JUMPDEST POP PUSH1 0x20 DUP3 ADD MLOAD DUP2 PUSH1 0x1 ADD SSTORE PUSH1 0x40 DUP3 ADD MLOAD DUP2 PUSH1 0x2 ADD SSTORE PUSH1 0x60 DUP3 ADD MLOAD DUP2 PUSH1 0x3 ADD SSTORE POP POP PUSH0 PUSH1 0xC PUSH0 PUSH2 0x100 EXP DUP2 SLOAD DUP2 PUSH1 0xFF MUL NOT AND SWAP1 DUP4 ISZERO ISZERO MUL OR SWAP1 SSTORE POP PUSH0 PUSH1 0xF SSTORE PUSH1 0x40 MLOAD DUP1 PUSH1 0x80 ADD PUSH1 0x40 MSTORE DUP1 PUSH20 0x3762BA161A7ADBA9EE84A8CAFFFE57AA2E13347F PUSH20 0xFFFFFFFFFFFFFFFFFFFFFFFFFFFFFFFFFFFFFFFF AND PUSH20 0xFFFFFFFFFFFFFFFFFFFFFFFFFFFFFFFFFFFFFFFF AND DUP2 MSTORE PUSH1 0x20 ADD PUSH20 0x5CA6AAE74E45BD7271AA9EEDE684A047C77CAB53 PUSH20 0xFFFFFFFFFFFFFFFFFFFFFFFFFFFFFFFFFFFFFFFF AND PUSH20 0xFFFFFFFFFFFFFFFFFFFFFFFFFFFFFFFFFFFFFFFF AND DUP2 MSTORE PUSH1 0x20 ADD PUSH20 0xAB8483F64D9C6D1ECF9B849AE677DD3315835CB2 PUSH20 0xFFFFFFFFFFFFFFFFFFFFFFFFFFFFFFFFFFFFFFFF AND PUSH20 0xFFFFFFFFFFFFFFFFFFFFFFFFFFFFFFFFFFFFFFFF AND DUP2 MSTORE PUSH1 0x20 ADD PUSH20 0x4B20993BC481177EC7E8F571CECAE8A9E22C02DB PUSH20 0xFFFFFFFFFFFFFFFFFFFFFFFFFFFFFFFFFFFFFFFF AND PUSH20 0xFFFFFFFFFFFFFFFFFFFFFFFFFFFFFFFFFFFFFFFF AND DUP2 MSTORE POP PUSH1 0x12 SWAP1 PUSH1 0x4 PUSH3 0x1CD SWAP3 SWAP2 SWAP1 PUSH3 0x4CF JUMP JUMPDEST POP PUSH1 0x40 MLOAD DUP1 PUSH1 0x40 ADD PUSH1 0x40 MSTORE DUP1 PUSH20 0x27A503629A5354982735D5706286FB4731418ADA PUSH20 0xFFFFFFFFFFFFFFFFFFFFFFFFFFFFFFFFFFFFFFFF AND PUSH20 0xFFFFFFFFFFFFFFFFFFFFFFFFFFFFFFFFFFFFFFFF AND DUP2 MSTORE PUSH1 0x20 ADD PUSH20 0x78731D3CA6B7E34AC0F824C42A7CC18A495CABAB PUSH20 0xFFFFFFFFFFFFFFFFFFFFFFFFFFFFFFFFFFFFFFFF AND PUSH20 0xFFFFFFFFFFFFFFFFFFFFFFFFFFFFFFFFFFFFFFFF AND DUP2 MSTORE POP PUSH1 0x13 SWAP1 PUSH1 0x2 PUSH3 0x275 SWAP3 SWAP2 SWAP1 PUSH3 0x55B JUMP JUMPDEST POP PUSH2 0xAF0 PUSH1 0x14 SSTORE CALLVALUE DUP1 ISZERO PUSH3 0x288 JUMPI PUSH0 DUP1 REVERT JUMPDEST POP PUSH1 0x40 MLOAD PUSH3 0x5F79 CODESIZE SUB DUP1 PUSH3 0x5F79 DUP4 CODECOPY DUP2 DUP2 ADD PUSH1 0x40 MSTORE DUP2 ADD SWAP1 PUSH3 0x2AE SWAP2 SWAP1 PUSH3 0x9B1 JUMP JUMPDEST CALLER PUSH1 0x40 MLOAD DUP1 PUSH1 0x40 ADD PUSH1 0x40 MSTORE DUP1 PUSH1 0x13 DUP2 MSTORE PUSH1 0x20 ADD PUSH32 0x5265616C576F726C644173736574546F6B656E00000000000000000000000000 DUP2 MSTORE POP PUSH1 0x40 MLOAD DUP1 PUSH1 0x40 ADD PUSH1 0x40 MSTORE DUP1 PUSH1 0x4 DUP2 MSTORE PUSH1 0x20 ADD PUSH32 0x5257415400000000000000000000000000000000000000000000000000000000 DUP2 MSTORE POP DUP2 PUSH0 SWAP1 DUP2 PUSH3 0x32B SWAP2 SWAP1 PUSH3 0x868 JUMP JUMPDEST POP DUP1 PUSH1 0x1 SWAP1 DUP2 PUSH3 0x33D SWAP2 SWAP1 PUSH3 0x868 JUMP JUMPDEST POP POP POP PUSH0 PUSH20 0xFFFFFFFFFFFFFFFFFFFFFFFFFFFFFFFFFFFFFFFF AND DUP2 PUSH20 0xFFFFFFFFFFFFFFFFFFFFFFFFFFFFFFFFFFFFFFFF AND SUB PUSH3 0x3B3 JUMPI PUSH0 PUSH1 0x40 MLOAD PUSH32 0x1E4FBDF700000000000000000000000000000000000000000000000000000000 DUP2 MSTORE PUSH1 0x4 ADD PUSH3 0x3AA SWAP2 SWAP1 PUSH3 0x9F2 JUMP JUMPDEST PUSH1 0x40 MLOAD DUP1 SWAP2 SUB SWAP1 REVERT JUMPDEST PUSH3 0x3C4 DUP2 PUSH3 0x40C PUSH1 0x20 SHL PUSH1 0x20 SHR JUMP JUMPDEST POP DUP1 PUSH1 0x11 PUSH0 PUSH2 0x100 EXP DUP2 SLOAD DUP2 PUSH20 0xFFFFFFFFFFFFFFFFFFFFFFFFFFFFFFFFFFFFFFFF MUL NOT AND SWAP1 DUP4 PUSH20 0xFFFFFFFFFFFFFFFFFFFFFFFFFFFFFFFFFFFFFFFF AND MUL OR SWAP1 SSTORE POP POP PUSH3 0xA0D JUMP JUMPDEST PUSH0 PUSH1 0x7 PUSH0 SWAP1 SLOAD SWAP1 PUSH2 0x100 EXP SWAP1 DIV PUSH20 0xFFFFFFFFFFFFFFFFFFFFFFFFFFFFFFFFFFFFFFFF AND SWAP1 POP DUP2 PUSH1 0x7 PUSH0 PUSH2 0x100 EXP DUP2 SLOAD DUP2 PUSH20 0xFFFFFFFFFFFFFFFFFFFFFFFFFFFFFFFFFFFFFFFF MUL NOT AND SWAP1 DUP4 PUSH20 0xFFFFFFFFFFFFFFFFFFFFFFFFFFFFFFFFFFFFFFFF AND MUL OR SWAP1 SSTORE POP DUP2 PUSH20 0xFFFFFFFFFFFFFFFFFFFFFFFFFFFFFFFFFFFFFFFF AND DUP2 PUSH20 0xFFFFFFFFFFFFFFFFFFFFFFFFFFFFFFFFFFFFFFFF AND PUSH32 0x8BE0079C531659141344CD1FD0A4F28419497F9722A3DAAFE3B4186F6B6457E0 PUSH1 0x40 MLOAD PUSH1 0x40 MLOAD DUP1 SWAP2 SUB SWAP1 LOG3 POP POP JUMP JUMPDEST DUP3 DUP1 SLOAD DUP3 DUP3 SSTORE SWAP1 PUSH0 MSTORE PUSH1 0x20 PUSH0 KECCAK256 SWAP1 DUP2 ADD SWAP3 DUP3 ISZERO PUSH3 0x548 JUMPI SWAP2 PUSH1 0x20 MUL DUP3 ADD JUMPDEST DUP3 DUP2 GT ISZERO PUSH3 0x547 JUMPI DUP3 MLOAD DUP3 PUSH0 PUSH2 0x100 EXP DUP2 SLOAD DUP2 PUSH20 0xFFFFFFFFFFFFFFFFFFFFFFFFFFFFFFFFFFFFFFFF MUL NOT AND SWAP1 DUP4 PUSH20 0xFFFFFFFFFFFFFFFFFFFFFFFFFFFFFFFFFFFFFFFF AND MUL OR SWAP1 SSTORE POP SWAP2 PUSH1 0x20 ADD SWAP2 SWAP1 PUSH1 0x1 ADD SWAP1 PUSH3 0x4EE JUMP JUMPDEST JUMPDEST POP SWAP1 POP PUSH3 0x557 SWAP2 SWAP1 PUSH3 0x5E7 JUMP JUMPDEST POP SWAP1 JUMP JUMPDEST DUP3 DUP1 SLOAD DUP3 DUP3 SSTORE SWAP1 PUSH0 MSTORE PUSH1 0x20 PUSH0 KECCAK256 SWAP1 DUP2 ADD SWAP3 DUP3 ISZERO PUSH3 0x5D4 JUMPI SWAP2 PUSH1 0x20 MUL DUP3 ADD JUMPDEST DUP3 DUP2 GT ISZERO PUSH3 0x5D3 JUMPI DUP3 MLOAD DUP3 PUSH0 PUSH2 0x100 EXP DUP2 SLOAD DUP2 PUSH20 0xFFFFFFFFFFFFFFFFFFFFFFFFFFFFFFFFFFFFFFFF MUL NOT AND SWAP1 DUP4 PUSH20 0xFFFFFFFFFFFFFFFFFFFFFFFFFFFFFFFFFFFFFFFF AND MUL OR SWAP1 SSTORE POP SWAP2 PUSH1 0x20 ADD SWAP2 SWAP1 PUSH1 0x1 ADD SWAP1 PUSH3 0x57A JUMP JUMPDEST JUMPDEST POP SWAP1 POP PUSH3 0x5E3 SWAP2 SWAP1 PUSH3 0x5E7 JUMP JUMPDEST POP SWAP1 JUMP JUMPDEST JUMPDEST DUP1 DUP3 GT ISZERO PUSH3 0x600 JUMPI PUSH0 DUP2 PUSH0 SWAP1 SSTORE POP PUSH1 0x1 ADD PUSH3 0x5E8 JUMP JUMPDEST POP SWAP1 JUMP JUMPDEST PUSH0 DUP2 MLOAD SWAP1 POP SWAP2 SWAP1 POP JUMP JUMPDEST PUSH32 0x4E487B7100000000000000000000000000000000000000000000000000000000 PUSH0 MSTORE PUSH1 0x41 PUSH1 0x4 MSTORE PUSH1 0x24 PUSH0 REVERT JUMPDEST PUSH32 0x4E487B7100000000000000000000000000000000000000000000000000000000 PUSH0 MSTORE PUSH1 0x22 PUSH1 0x4 MSTORE PUSH1 0x24 PUSH0 REVERT JUMPDEST PUSH0 PUSH1 0x2 DUP3 DIV SWAP1 POP PUSH1 0x1 DUP3 AND DUP1 PUSH3 0x680 JUMPI PUSH1 0x7F DUP3 AND SWAP2 POP JUMPDEST PUSH1 0x20 DUP3 LT DUP2 SUB PUSH3 0x696 JUMPI PUSH3 0x695 PUSH3 0x63B JUMP JUMPDEST JUMPDEST POP SWAP2 SWAP1 POP JUMP JUMPDEST PUSH0 DUP2 SWAP1 POP DUP2 PUSH0 MSTORE PUSH1 0x20 PUSH0 KECCAK256 SWAP1 POP SWAP2 SWAP1 POP JUMP JUMPDEST PUSH0 PUSH1 0x20 PUSH1 0x1F DUP4 ADD DIV SWAP1 POP SWAP2 SWAP1 POP JUMP JUMPDEST PUSH0 DUP3 DUP3 SHL SWAP1 POP SWAP3 SWAP2 POP POP JUMP JUMPDEST PUSH0 PUSH1 0x8 DUP4 MUL PUSH3 0x6FA PUSH32 0xFFFFFFFFFFFFFFFFFFFFFFFFFFFFFFFFFFFFFFFFFFFFFFFFFFFFFFFFFFFFFFFF DUP3 PUSH3 0x6BD JUMP JUMPDEST PUSH3 0x706 DUP7 DUP4 PUSH3 0x6BD JUMP JUMPDEST SWAP6 POP DUP1 NOT DUP5 AND SWAP4 POP DUP1 DUP7 AND DUP5 OR SWAP3 POP POP POP SWAP4 SWAP3 POP POP POP JUMP JUMPDEST PUSH0 DUP2 SWAP1 POP SWAP2 SWAP1 POP JUMP JUMPDEST PUSH0 DUP2 SWAP1 POP SWAP2 SWAP1 POP JUMP JUMPDEST PUSH0 PUSH3 0x750 PUSH3 0x74A PUSH3 0x744 DUP5 PUSH3 0x71E JUMP JUMPDEST PUSH3 0x727 JUMP JUMPDEST PUSH3 0x71E JUMP JUMPDEST SWAP1 POP SWAP2 SWAP1 POP JUMP JUMPDEST PUSH0 DUP2 SWAP1 POP SWAP2 SWAP1 POP JUMP JUMPDEST PUSH3 0x76B DUP4 PUSH3 0x730 JUMP JUMPDEST PUSH3 0x783 PUSH3 0x77A DUP3 PUSH3 0x757 JUMP JUMPDEST DUP5 DUP5 SLOAD PUSH3 0x6C9 JUMP JUMPDEST DUP3 SSTORE POP POP POP POP JUMP JUMPDEST PUSH0 SWAP1 JUMP JUMPDEST PUSH3 0x799 PUSH3 0x78B JUMP JUMPDEST PUSH3 0x7A6 DUP2 DUP5 DUP5 PUSH3 0x760 JUMP JUMPDEST POP POP POP JUMP JUMPDEST JUMPDEST DUP2 DUP2 LT ISZERO PUSH3 0x7CD JUMPI PUSH3 0x7C1 PUSH0 DUP3 PUSH3 0x78F JUMP JUMPDEST PUSH1 0x1 DUP2 ADD SWAP1 POP PUSH3 0x7AC JUMP JUMPDEST POP POP JUMP JUMPDEST PUSH1 0x1F DUP3 GT ISZERO PUSH3 0x81C JUMPI PUSH3 0x7E6 DUP2 PUSH3 0x69C JUMP JUMPDEST PUSH3 0x7F1 DUP5 PUSH3 0x6AE JUMP JUMPDEST DUP2 ADD PUSH1 0x20 DUP6 LT ISZERO PUSH3 0x801 JUMPI DUP2 SWAP1 POP JUMPDEST PUSH3 0x819 PUSH3 0x810 DUP6 PUSH3 0x6AE JUMP JUMPDEST DUP4 ADD DUP3 PUSH3 0x7AB JUMP JUMPDEST POP POP JUMPDEST POP POP POP JUMP JUMPDEST PUSH0 DUP3 DUP3 SHR SWAP1 POP SWAP3 SWAP2 POP POP JUMP JUMPDEST PUSH0 PUSH3 0x83E PUSH0 NOT DUP5 PUSH1 0x8 MUL PUSH3 0x821 JUMP JUMPDEST NOT DUP1 DUP4 AND SWAP2 POP POP SWAP3 SWAP2 POP POP JUMP JUMPDEST PUSH0 PUSH3 0x858 DUP4 DUP4 PUSH3 0x82D JUMP JUMPDEST SWAP2 POP DUP3 PUSH1 0x2 MUL DUP3 OR SWAP1 POP SWAP3 SWAP2 POP POP JUMP JUMPDEST PUSH3 0x873 DUP3 PUSH3 0x604 JUMP JUMPDEST PUSH8 0xFFFFFFFFFFFFFFFF DUP2 GT ISZERO PUSH3 0x88F JUMPI PUSH3 0x88E PUSH3 0x60E JUMP JUMPDEST JUMPDEST PUSH3 0x89B DUP3 SLOAD PUSH3 0x668 JUMP JUMPDEST PUSH3 0x8A8 DUP3 DUP3 DUP6 PUSH3 0x7D1 JUMP JUMPDEST PUSH0 PUSH1 0x20 SWAP1 POP PUSH1 0x1F DUP4 GT PUSH1 0x1 DUP2 EQ PUSH3 0x8DE JUMPI PUSH0 DUP5 ISZERO PUSH3 0x8C9 JUMPI DUP3 DUP8 ADD MLOAD SWAP1 POP JUMPDEST PUSH3 0x8D5 DUP6 DUP3 PUSH3 0x84B JUMP JUMPDEST DUP7 SSTORE POP PUSH3 0x944 JUMP JUMPDEST PUSH1 0x1F NOT DUP5 AND PUSH3 0x8EE DUP7 PUSH3 0x69C JUMP JUMPDEST PUSH0 JUMPDEST DUP3 DUP2 LT ISZERO PUSH3 0x917 JUMPI DUP5 DUP10 ADD MLOAD DUP3 SSTORE PUSH1 0x1 DUP3 ADD SWAP2 POP PUSH1 0x20 DUP6 ADD SWAP5 POP PUSH1 0x20 DUP2 ADD SWAP1 POP PUSH3 0x8F0 JUMP JUMPDEST DUP7 DUP4 LT ISZERO PUSH3 0x937 JUMPI DUP5 DUP10 ADD MLOAD PUSH3 0x933 PUSH1 0x1F DUP10 AND DUP3 PUSH3 0x82D JUMP JUMPDEST DUP4 SSTORE POP JUMPDEST PUSH1 0x1 PUSH1 0x2 DUP9 MUL ADD DUP9 SSTORE POP POP POP JUMPDEST POP POP POP POP POP POP JUMP JUMPDEST PUSH0 DUP1 REVERT JUMPDEST PUSH0 PUSH20 0xFFFFFFFFFFFFFFFFFFFFFFFFFFFFFFFFFFFFFFFF DUP3 AND SWAP1 POP SWAP2 SWAP1 POP JUMP JUMPDEST PUSH0 PUSH3 0x97B DUP3 PUSH3 0x950 JUMP JUMPDEST SWAP1 POP SWAP2 SWAP1 POP JUMP JUMPDEST PUSH3 0x98D DUP2 PUSH3 0x96F JUMP JUMPDEST DUP2 EQ PUSH3 0x998 JUMPI PUSH0 DUP1 REVERT JUMPDEST POP JUMP JUMPDEST PUSH0 DUP2 MLOAD SWAP1 POP PUSH3 0x9AB DUP2 PUSH3 0x982 JUMP JUMPDEST SWAP3 SWAP2 POP POP JUMP JUMPDEST PUSH0 PUSH1 0x20 DUP3 DUP5 SUB SLT ISZERO PUSH3 0x9C9 JUMPI PUSH3 0x9C8 PUSH3 0x94C JUMP JUMPDEST JUMPDEST PUSH0 PUSH3 0x9D8 DUP5 DUP3 DUP6 ADD PUSH3 0x99B JUMP JUMPDEST SWAP2 POP POP SWAP3 SWAP2 POP POP JUMP JUMPDEST PUSH3 0x9EC DUP2 PUSH3 0x96F JUMP JUMPDEST DUP3 MSTORE POP POP JUMP JUMPDEST PUSH0 PUSH1 0x20 DUP3 ADD SWAP1 POP PUSH3 0xA07 PUSH0 DUP4 ADD DUP5 PUSH3 0x9E1 JUMP JUMPDEST SWAP3 SWAP2 POP POP JUMP JUMPDEST PUSH2 0x5535 DUP1 PUSH3 0xA1B PUSH0 CODECOPY PUSH0 RETURN INVALID PUSH1 0x80 PUSH1 0x40 MSTORE CALLVALUE DUP1 ISZERO PUSH2 0xF JUMPI PUSH0 DUP1 REVERT JUMPDEST POP PUSH1 0x4 CALLDATASIZE LT PUSH2 0x251 JUMPI PUSH0 CALLDATALOAD PUSH1 0xE0 SHR DUP1 PUSH4 0x70A08231 GT PUSH2 0x144 JUMPI DUP1 PUSH4 0xB534B5B7 GT PUSH2 0xC1 JUMPI DUP1 PUSH4 0xCEE2A9CF GT PUSH2 0x85 JUMPI DUP1 PUSH4 0xCEE2A9CF EQ PUSH2 0x714 JUMPI DUP1 PUSH4 0xD1B02BA7 EQ PUSH2 0x744 JUMPI DUP1 PUSH4 0xD81BC271 EQ PUSH2 0x763 JUMPI DUP1 PUSH4 0xE985E9C5 EQ PUSH2 0x784 JUMPI DUP1 PUSH4 0xF2FDE38B EQ PUSH2 0x7B4 JUMPI DUP1 PUSH4 0xFE575A87 EQ PUSH2 0x7D0 JUMPI PUSH2 0x251 JUMP JUMPDEST DUP1 PUSH4 0xB534B5B7 EQ PUSH2 0x670 JUMPI DUP1 PUSH4 0xB88D4FDE EQ PUSH2 0x68E JUMPI DUP1 PUSH4 0xBA4E5C49 EQ PUSH2 0x6AA JUMPI DUP1 PUSH4 0xC87B56DD EQ PUSH2 0x6DA JUMPI DUP1 PUSH4 0xC9C2783F EQ PUSH2 0x70A JUMPI PUSH2 0x251 JUMP JUMPDEST DUP1 PUSH4 0x95D89B41 GT PUSH2 0x108 JUMPI DUP1 PUSH4 0x95D89B41 EQ PUSH2 0x5B8 JUMPI DUP1 PUSH4 0xA22CB465 EQ PUSH2 0x5D6 JUMPI DUP1 PUSH4 0xA7A8C359 EQ PUSH2 0x5F2 JUMPI DUP1 PUSH4 0xAD9AB857 EQ PUSH2 0x622 JUMPI DUP1 PUSH4 0xB2F5A54C EQ PUSH2 0x652 JUMPI PUSH2 0x251 JUMP JUMPDEST DUP1 PUSH4 0x70A08231 EQ PUSH2 0x524 JUMPI DUP1 PUSH4 0x715018A6 EQ PUSH2 0x554 JUMPI DUP1 PUSH4 0x7E1C0C09 EQ PUSH2 0x55E JUMPI DUP1 PUSH4 0x7FF9B596 EQ PUSH2 0x57C JUMPI DUP1 PUSH4 0x8DA5CB5B EQ PUSH2 0x59A JUMPI PUSH2 0x251 JUMP JUMPDEST DUP1 PUSH4 0x23B872DD GT PUSH2 0x1D2 JUMPI DUP1 PUSH4 0x486FC7E8 GT PUSH2 0x196 JUMPI DUP1 PUSH4 0x486FC7E8 EQ PUSH2 0x46E JUMPI DUP1 PUSH4 0x54E35BA2 EQ PUSH2 0x49E JUMPI DUP1 PUSH4 0x6352211E EQ PUSH2 0x4BA JUMPI DUP1 PUSH4 0x676C0D77 EQ PUSH2 0x4EA JUMPI DUP1 PUSH4 0x69BB4DC2 EQ PUSH2 0x506 JUMPI PUSH2 0x251 JUMP JUMPDEST DUP1 PUSH4 0x23B872DD EQ PUSH2 0x3B9 JUMPI DUP1 PUSH4 0x3610724E EQ PUSH2 0x3D5 JUMPI DUP1 PUSH4 0x3AF32ABF EQ PUSH2 0x3F1 JUMPI DUP1 PUSH4 0x3FEB5F2B EQ PUSH2 0x421 JUMPI DUP1 PUSH4 0x42842E0E EQ PUSH2 0x452 JUMPI PUSH2 0x251 JUMP JUMPDEST DUP1 PUSH4 0x1120FD03 GT PUSH2 0x219 JUMPI DUP1 PUSH4 0x1120FD03 EQ PUSH2 0x30D JUMPI DUP1 PUSH4 0x11EAC855 EQ PUSH2 0x33E JUMPI DUP1 PUSH4 0x176FD3F0 EQ PUSH2 0x35C JUMPI DUP1 PUSH4 0x192DDAE5 EQ PUSH2 0x37D JUMPI DUP1 PUSH4 0x1F62F309 EQ PUSH2 0x39B JUMPI PUSH2 0x251 JUMP JUMPDEST DUP1 PUSH4 0x1FFC9A7 EQ PUSH2 0x255 JUMPI DUP1 PUSH4 0x6A1C6A2 EQ PUSH2 0x285 JUMPI DUP1 PUSH4 0x6FDDE03 EQ PUSH2 0x2A3 JUMPI DUP1 PUSH4 0x81812FC EQ PUSH2 0x2C1 JUMPI DUP1 PUSH4 0x95EA7B3 EQ PUSH2 0x2F1 JUMPI JUMPDEST PUSH0 DUP1 REVERT JUMPDEST PUSH2 0x26F PUSH1 0x4 DUP1 CALLDATASIZE SUB DUP2 ADD SWAP1 PUSH2 0x26A SWAP2 SWAP1 PUSH2 0x3B37 JUMP JUMPDEST PUSH2 0x800 JUMP JUMPDEST PUSH1 0x40 MLOAD PUSH2 0x27C SWAP2 SWAP1 PUSH2 0x3B7C JUMP JUMPDEST PUSH1 0x40 MLOAD DUP1 SWAP2 SUB SWAP1 RETURN JUMPDEST PUSH2 0x28D PUSH2 0x860 JUMP JUMPDEST PUSH1 0x40 MLOAD PUSH2 0x29A SWAP2 SWAP1 PUSH2 0x3BD4 JUMP JUMPDEST PUSH1 0x40 MLOAD DUP1 SWAP2 SUB SWAP1 RETURN JUMPDEST PUSH2 0x2AB PUSH2 0x878 JUMP JUMPDEST PUSH1 0x40 MLOAD PUSH2 0x2B8 SWAP2 SWAP1 PUSH2 0x3C77 JUMP JUMPDEST PUSH1 0x40 MLOAD DUP1 SWAP2 SUB SWAP1 RETURN JUMPDEST PUSH2 0x2DB PUSH1 0x4 DUP1 CALLDATASIZE SUB DUP2 ADD SWAP1 PUSH2 0x2D6 SWAP2 SWAP1 PUSH2 0x3CCA JUMP JUMPDEST PUSH2 0x907 JUMP JUMPDEST PUSH1 0x40 MLOAD PUSH2 0x2E8 SWAP2 SWAP1 PUSH2 0x3BD4 JUMP JUMPDEST PUSH1 0x40 MLOAD DUP1 SWAP2 SUB SWAP1 RETURN JUMPDEST PUSH2 0x30B PUSH1 0x4 DUP1 CALLDATASIZE SUB DUP2 ADD SWAP1 PUSH2 0x306 SWAP2 SWAP1 PUSH2 0x3D1F JUMP JUMPDEST PUSH2 0x922 JUMP JUMPDEST STOP JUMPDEST PUSH2 0x327 PUSH1 0x4 DUP1 CALLDATASIZE SUB DUP2 ADD SWAP1 PUSH2 0x322 SWAP2 SWAP1 PUSH2 0x3CCA JUMP JUMPDEST PUSH2 0x938 JUMP JUMPDEST PUSH1 0x40 MLOAD PUSH2 0x335 SWAP3 SWAP2 SWAP1 PUSH2 0x3D6C JUMP JUMPDEST PUSH1 0x40 MLOAD DUP1 SWAP2 SUB SWAP1 RETURN JUMPDEST PUSH2 0x346 PUSH2 0x986 JUMP JUMPDEST PUSH1 0x40 MLOAD PUSH2 0x353 SWAP2 SWAP1 PUSH2 0x3DEE JUMP JUMPDEST PUSH1 0x40 MLOAD DUP1 SWAP2 SUB SWAP1 RETURN JUMPDEST PUSH2 0x364 PUSH2 0x9AB JUMP JUMPDEST PUSH1 0x40 MLOAD PUSH2 0x374 SWAP5 SWAP4 SWAP3 SWAP2 SWAP1 PUSH2 0x3E07 JUMP JUMPDEST PUSH1 0x40 MLOAD DUP1 SWAP2 SUB SWAP1 RETURN JUMPDEST PUSH2 0x385 PUSH2 0xA4E JUMP JUMPDEST PUSH1 0x40 MLOAD PUSH2 0x392 SWAP2 SWAP1 PUSH2 0x3B7C JUMP JUMPDEST PUSH1 0x40 MLOAD DUP1 SWAP2 SUB SWAP1 RETURN JUMPDEST PUSH2 0x3A3 PUSH2 0xA60 JUMP JUMPDEST PUSH1 0x40 MLOAD PUSH2 0x3B0 SWAP2 SWAP1 PUSH2 0x3E51 JUMP JUMPDEST PUSH1 0x40 MLOAD DUP1 SWAP2 SUB SWAP1 RETURN JUMPDEST PUSH2 0x3D3 PUSH1 0x4 DUP1 CALLDATASIZE SUB DUP2 ADD SWAP1 PUSH2 0x3CE SWAP2 SWAP1 PUSH2 0x3E6A JUMP JUMPDEST PUSH2 0xA66 JUMP JUMPDEST STOP JUMPDEST PUSH2 0x3EF PUSH1 0x4 DUP1 CALLDATASIZE SUB DUP2 ADD SWAP1 PUSH2 0x3EA SWAP2 SWAP1 PUSH2 0x3CCA JUMP JUMPDEST PUSH2 0xB65 JUMP JUMPDEST STOP JUMPDEST PUSH2 0x40B PUSH1 0x4 DUP1 CALLDATASIZE SUB DUP2 ADD SWAP1 PUSH2 0x406 SWAP2 SWAP1 PUSH2 0x3EBA JUMP JUMPDEST PUSH2 0x144C JUMP JUMPDEST PUSH1 0x40 MLOAD PUSH2 0x418 SWAP2 SWAP1 PUSH2 0x3B7C JUMP JUMPDEST PUSH1 0x40 MLOAD DUP1 SWAP2 SUB SWAP1 RETURN JUMPDEST PUSH2 0x43B PUSH1 0x4 DUP1 CALLDATASIZE SUB DUP2 ADD SWAP1 PUSH2 0x436 SWAP2 SWAP1 PUSH2 0x3CCA JUMP JUMPDEST PUSH2 0x14F4 JUMP JUMPDEST PUSH1 0x40 MLOAD PUSH2 0x449 SWAP3 SWAP2 SWAP1 PUSH2 0x3D6C JUMP JUMPDEST PUSH1 0x40 MLOAD DUP1 SWAP2 SUB SWAP1 RETURN JUMPDEST PUSH2 0x46C PUSH1 0x4 DUP1 CALLDATASIZE SUB DUP2 ADD SWAP1 PUSH2 0x467 SWAP2 SWAP1 PUSH2 0x3E6A JUMP JUMPDEST PUSH2 0x1542 JUMP JUMPDEST STOP JUMPDEST PUSH2 0x488 PUSH1 0x4 DUP1 CALLDATASIZE SUB DUP2 ADD SWAP1 PUSH2 0x483 SWAP2 SWAP1 PUSH2 0x3EBA JUMP JUMPDEST PUSH2 0x1561 JUMP JUMPDEST PUSH1 0x40 MLOAD PUSH2 0x495 SWAP2 SWAP1 PUSH2 0x3E51 JUMP JUMPDEST PUSH1 0x40 MLOAD DUP1 SWAP2 SUB SWAP1 RETURN JUMPDEST PUSH2 0x4B8 PUSH1 0x4 DUP1 CALLDATASIZE SUB DUP2 ADD SWAP1 PUSH2 0x4B3 SWAP2 SWAP1 PUSH2 0x3EE5 JUMP JUMPDEST PUSH2 0x1576 JUMP JUMPDEST STOP JUMPDEST PUSH2 0x4D4 PUSH1 0x4 DUP1 CALLDATASIZE SUB DUP2 ADD SWAP1 PUSH2 0x4CF SWAP2 SWAP1 PUSH2 0x3CCA JUMP JUMPDEST PUSH2 0x1701 JUMP JUMPDEST PUSH1 0x40 MLOAD PUSH2 0x4E1 SWAP2 SWAP1 PUSH2 0x3BD4 JUMP JUMPDEST PUSH1 0x40 MLOAD DUP1 SWAP2 SUB SWAP1 RETURN JUMPDEST PUSH2 0x504 PUSH1 0x4 DUP1 CALLDATASIZE SUB DUP2 ADD SWAP1 PUSH2 0x4FF SWAP2 SWAP1 PUSH2 0x3CCA JUMP JUMPDEST PUSH2 0x1712 JUMP JUMPDEST STOP JUMPDEST PUSH2 0x50E PUSH2 0x1772 JUMP JUMPDEST PUSH1 0x40 MLOAD PUSH2 0x51B SWAP2 SWAP1 PUSH2 0x3E51 JUMP JUMPDEST PUSH1 0x40 MLOAD DUP1 SWAP2 SUB SWAP1 RETURN JUMPDEST PUSH2 0x53E PUSH1 0x4 DUP1 CALLDATASIZE SUB DUP2 ADD SWAP1 PUSH2 0x539 SWAP2 SWAP1 PUSH2 0x3EBA JUMP JUMPDEST PUSH2 0x1810 JUMP JUMPDEST PUSH1 0x40 MLOAD PUSH2 0x54B SWAP2 SWAP1 PUSH2 0x3E51 JUMP JUMPDEST PUSH1 0x40 MLOAD DUP1 SWAP2 SUB SWAP1 RETURN JUMPDEST PUSH2 0x55C PUSH2 0x18C6 JUMP JUMPDEST STOP JUMPDEST PUSH2 0x566 PUSH2 0x18D9 JUMP JUMPDEST PUSH1 0x40 MLOAD PUSH2 0x573 SWAP2 SWAP1 PUSH2 0x3E51 JUMP JUMPDEST PUSH1 0x40 MLOAD DUP1 SWAP2 SUB SWAP1 RETURN JUMPDEST PUSH2 0x584 PUSH2 0x18DF JUMP JUMPDEST PUSH1 0x40 MLOAD PUSH2 0x591 SWAP2 SWAP1 PUSH2 0x3E51 JUMP JUMPDEST PUSH1 0x40 MLOAD DUP1 SWAP2 SUB SWAP1 RETURN JUMPDEST PUSH2 0x5A2 PUSH2 0x18E5 JUMP JUMPDEST PUSH1 0x40 MLOAD PUSH2 0x5AF SWAP2 SWAP1 PUSH2 0x3BD4 JUMP JUMPDEST PUSH1 0x40 MLOAD DUP1 SWAP2 SUB SWAP1 RETURN JUMPDEST PUSH2 0x5C0 PUSH2 0x190D JUMP JUMPDEST PUSH1 0x40 MLOAD PUSH2 0x5CD SWAP2 SWAP1 PUSH2 0x3C77 JUMP JUMPDEST PUSH1 0x40 MLOAD DUP1 SWAP2 SUB SWAP1 RETURN JUMPDEST PUSH2 0x5F0 PUSH1 0x4 DUP1 CALLDATASIZE SUB DUP2 ADD SWAP1 PUSH2 0x5EB SWAP2 SWAP1 PUSH2 0x3F4D JUMP JUMPDEST PUSH2 0x199D JUMP JUMPDEST STOP JUMPDEST PUSH2 0x60C PUSH1 0x4 DUP1 CALLDATASIZE SUB DUP2 ADD SWAP1 PUSH2 0x607 SWAP2 SWAP1 PUSH2 0x3CCA JUMP JUMPDEST PUSH2 0x19B3 JUMP JUMPDEST PUSH1 0x40 MLOAD PUSH2 0x619 SWAP2 SWAP1 PUSH2 0x3BD4 JUMP JUMPDEST PUSH1 0x40 MLOAD DUP1 SWAP2 SUB SWAP1 RETURN JUMPDEST PUSH2 0x63C PUSH1 0x4 DUP1 CALLDATASIZE SUB DUP2 ADD SWAP1 PUSH2 0x637 SWAP2 SWAP1 PUSH2 0x3CCA JUMP JUMPDEST PUSH2 0x19EE JUMP JUMPDEST PUSH1 0x40 MLOAD PUSH2 0x649 SWAP2 SWAP1 PUSH2 0x3B7C JUMP JUMPDEST PUSH1 0x40 MLOAD DUP1 SWAP2 SUB SWAP1 RETURN JUMPDEST PUSH2 0x65A PUSH2 0x1A0B JUMP JUMPDEST PUSH1 0x40 MLOAD PUSH2 0x667 SWAP2 SWAP1 PUSH2 0x407E JUMP JUMPDEST PUSH1 0x40 MLOAD DUP1 SWAP2 SUB SWAP1 RETURN JUMPDEST PUSH2 0x678 PUSH2 0x1AC5 JUMP JUMPDEST PUSH1 0x40 MLOAD PUSH2 0x685 SWAP2 SWAP1 PUSH2 0x3E51 JUMP JUMPDEST PUSH1 0x40 MLOAD DUP1 SWAP2 SUB SWAP1 RETURN JUMPDEST PUSH2 0x6A8 PUSH1 0x4 DUP1 CALLDATASIZE SUB DUP2 ADD SWAP1 PUSH2 0x6A3 SWAP2 SWAP1 PUSH2 0x41CA JUMP JUMPDEST PUSH2 0x1ACB JUMP JUMPDEST STOP JUMPDEST PUSH2 0x6C4 PUSH1 0x4 DUP1 CALLDATASIZE SUB DUP2 ADD SWAP1 PUSH2 0x6BF SWAP2 SWAP1 PUSH2 0x3CCA JUMP JUMPDEST PUSH2 0x1AE8 JUMP JUMPDEST PUSH1 0x40 MLOAD PUSH2 0x6D1 SWAP2 SWAP1 PUSH2 0x3BD4 JUMP JUMPDEST PUSH1 0x40 MLOAD DUP1 SWAP2 SUB SWAP1 RETURN JUMPDEST PUSH2 0x6F4 PUSH1 0x4 DUP1 CALLDATASIZE SUB DUP2 ADD SWAP1 PUSH2 0x6EF SWAP2 SWAP1 PUSH2 0x3CCA JUMP JUMPDEST PUSH2 0x1B23 JUMP JUMPDEST PUSH1 0x40 MLOAD PUSH2 0x701 SWAP2 SWAP1 PUSH2 0x3C77 JUMP JUMPDEST PUSH1 0x40 MLOAD DUP1 SWAP2 SUB SWAP1 RETURN JUMPDEST PUSH2 0x712 PUSH2 0x1C2E JUMP JUMPDEST STOP JUMPDEST PUSH2 0x72E PUSH1 0x4 DUP1 CALLDATASIZE SUB DUP2 ADD SWAP1 PUSH2 0x729 SWAP2 SWAP1 PUSH2 0x3EBA JUMP JUMPDEST PUSH2 0x2092 JUMP JUMPDEST PUSH1 0x40 MLOAD PUSH2 0x73B SWAP2 SWAP1 PUSH2 0x3B7C JUMP JUMPDEST PUSH1 0x40 MLOAD DUP1 SWAP2 SUB SWAP1 RETURN JUMPDEST PUSH2 0x74C PUSH2 0x2140 JUMP JUMPDEST PUSH1 0x40 MLOAD PUSH2 0x75A SWAP3 SWAP2 SWAP1 PUSH2 0x439A JUMP JUMPDEST PUSH1 0x40 MLOAD DUP1 SWAP2 SUB SWAP1 RETURN JUMPDEST PUSH2 0x76B PUSH2 0x2420 JUMP JUMPDEST PUSH1 0x40 MLOAD PUSH2 0x77B SWAP5 SWAP4 SWAP3 SWAP2 SWAP1 PUSH2 0x3E07 JUMP JUMPDEST PUSH1 0x40 MLOAD DUP1 SWAP2 SUB SWAP1 RETURN JUMPDEST PUSH2 0x79E PUSH1 0x4 DUP1 CALLDATASIZE SUB DUP2 ADD SWAP1 PUSH2 0x799 SWAP2 SWAP1 PUSH2 0x43CF JUMP JUMPDEST PUSH2 0x24D3 JUMP JUMPDEST PUSH1 0x40 MLOAD PUSH2 0x7AB SWAP2 SWAP1 PUSH2 0x3B7C JUMP JUMPDEST PUSH1 0x40 MLOAD DUP1 SWAP2 SUB SWAP1 RETURN JUMPDEST PUSH2 0x7CE PUSH1 0x4 DUP1 CALLDATASIZE SUB DUP2 ADD SWAP1 PUSH2 0x7C9 SWAP2 SWAP1 PUSH2 0x3EBA JUMP JUMPDEST PUSH2 0x2561 JUMP JUMPDEST STOP JUMPDEST PUSH2 0x7EA PUSH1 0x4 DUP1 CALLDATASIZE SUB DUP2 ADD SWAP1 PUSH2 0x7E5 SWAP2 SWAP1 PUSH2 0x3EBA JUMP JUMPDEST PUSH2 0x25E5 JUMP JUMPDEST PUSH1 0x40 MLOAD PUSH2 0x7F7 SWAP2 SWAP1 PUSH2 0x3B7C JUMP JUMPDEST PUSH1 0x40 MLOAD DUP1 SWAP2 SUB SWAP1 RETURN JUMPDEST PUSH0 PUSH4 0x49064906 PUSH1 0xE0 SHL PUSH28 0xFFFFFFFFFFFFFFFFFFFFFFFFFFFFFFFFFFFFFFFFFFFFFFFFFFFFFFFF NOT AND DUP3 PUSH28 0xFFFFFFFFFFFFFFFFFFFFFFFFFFFFFFFFFFFFFFFFFFFFFFFFFFFFFFFF NOT AND EQ DUP1 PUSH2 0x859 JUMPI POP PUSH2 0x858 DUP3 PUSH2 0x268D JUMP JUMPDEST JUMPDEST SWAP1 POP SWAP2 SWAP1 POP JUMP JUMPDEST PUSH20 0x5B9E9514FCE6B5D903C7E763429B1D497DE6B3B DUP2 JUMP JUMPDEST PUSH1 0x60 PUSH0 DUP1 SLOAD PUSH2 0x886 SWAP1 PUSH2 0x443A JUMP JUMPDEST DUP1 PUSH1 0x1F ADD PUSH1 0x20 DUP1 SWAP2 DIV MUL PUSH1 0x20 ADD PUSH1 0x40 MLOAD SWAP1 DUP2 ADD PUSH1 0x40 MSTORE DUP1 SWAP3 SWAP2 SWAP1 DUP2 DUP2 MSTORE PUSH1 0x20 ADD DUP3 DUP1 SLOAD PUSH2 0x8B2 SWAP1 PUSH2 0x443A JUMP JUMPDEST DUP1 ISZERO PUSH2 0x8FD JUMPI DUP1 PUSH1 0x1F LT PUSH2 0x8D4 JUMPI PUSH2 0x100 DUP1 DUP4 SLOAD DIV MUL DUP4 MSTORE SWAP2 PUSH1 0x20 ADD SWAP2 PUSH2 0x8FD JUMP JUMPDEST DUP3 ADD SWAP2 SWAP1 PUSH0 MSTORE PUSH1 0x20 PUSH0 KECCAK256 SWAP1 JUMPDEST DUP2 SLOAD DUP2 MSTORE SWAP1 PUSH1 0x1 ADD SWAP1 PUSH1 0x20 ADD DUP1 DUP4 GT PUSH2 0x8E0 JUMPI DUP3 SWAP1 SUB PUSH1 0x1F AND DUP3 ADD SWAP2 JUMPDEST POP POP POP POP POP SWAP1 POP SWAP1 JUMP JUMPDEST PUSH0 PUSH2 0x911 DUP3 PUSH2 0x276E JUMP JUMPDEST POP PUSH2 0x91B DUP3 PUSH2 0x27F4 JUMP JUMPDEST SWAP1 POP SWAP2 SWAP1 POP JUMP JUMPDEST PUSH2 0x934 DUP3 DUP3 PUSH2 0x92F PUSH2 0x282D JUMP JUMPDEST PUSH2 0x2834 JUMP JUMPDEST POP POP JUMP JUMPDEST PUSH1 0x15 DUP2 DUP2 SLOAD DUP2 LT PUSH2 0x947 JUMPI PUSH0 DUP1 REVERT JUMPDEST SWAP1 PUSH0 MSTORE PUSH1 0x20 PUSH0 KECCAK256 SWAP1 PUSH1 0x2 MUL ADD PUSH0 SWAP2 POP SWAP1 POP DUP1 PUSH0 ADD PUSH0 SWAP1 SLOAD SWAP1 PUSH2 0x100 EXP SWAP1 DIV PUSH20 0xFFFFFFFFFFFFFFFFFFFFFFFFFFFFFFFFFFFFFFFF AND SWAP1 DUP1 PUSH1 0x1 ADD SLOAD SWAP1 POP DUP3 JUMP JUMPDEST PUSH1 0x11 PUSH0 SWAP1 SLOAD SWAP1 PUSH2 0x100 EXP SWAP1 DIV PUSH20 0xFFFFFFFFFFFFFFFFFFFFFFFFFFFFFFFFFFFFFFFF AND DUP2 JUMP JUMPDEST PUSH1 0x8 DUP1 PUSH0 ADD DUP1 SLOAD PUSH2 0x9BB SWAP1 PUSH2 0x443A JUMP JUMPDEST DUP1 PUSH1 0x1F ADD PUSH1 0x20 DUP1 SWAP2 DIV MUL PUSH1 0x20 ADD PUSH1 0x40 MLOAD SWAP1 DUP2 ADD PUSH1 0x40 MSTORE DUP1 SWAP3 SWAP2 SWAP1 DUP2 DUP2 MSTORE PUSH1 0x20 ADD DUP3 DUP1 SLOAD PUSH2 0x9E7 SWAP1 PUSH2 0x443A JUMP JUMPDEST DUP1 ISZERO PUSH2 0xA32 JUMPI DUP1 PUSH1 0x1F LT PUSH2 0xA09 JUMPI PUSH2 0x100 DUP1 DUP4 SLOAD DIV MUL DUP4 MSTORE SWAP2 PUSH1 0x20 ADD SWAP2 PUSH2 0xA32 JUMP JUMPDEST DUP3 ADD SWAP2 SWAP1 PUSH0 MSTORE PUSH1 0x20 PUSH0 KECCAK256 SWAP1 JUMPDEST DUP2 SLOAD DUP2 MSTORE SWAP1 PUSH1 0x1 ADD SWAP1 PUSH1 0x20 ADD DUP1 DUP4 GT PUSH2 0xA15 JUMPI DUP3 SWAP1 SUB PUSH1 0x1F AND DUP3 ADD SWAP2 JUMPDEST POP POP POP POP POP SWAP1 DUP1 PUSH1 0x1 ADD SLOAD SWAP1 DUP1 PUSH1 0x2 ADD SLOAD SWAP1 DUP1 PUSH1 0x3 ADD SLOAD SWAP1 POP DUP5 JUMP JUMPDEST PUSH1 0xC PUSH0 SWAP1 SLOAD SWAP1 PUSH2 0x100 EXP SWAP1 DIV PUSH1 0xFF AND DUP2 JUMP JUMPDEST PUSH1 0x14 SLOAD DUP2 JUMP JUMPDEST PUSH0 PUSH20 0xFFFFFFFFFFFFFFFFFFFFFFFFFFFFFFFFFFFFFFFF AND DUP3 PUSH20 0xFFFFFFFFFFFFFFFFFFFFFFFFFFFFFFFFFFFFFFFF AND SUB PUSH2 0xAD6 JUMPI PUSH0 PUSH1 0x40 MLOAD PUSH32 0x64A0AE9200000000000000000000000000000000000000000000000000000000 DUP2 MSTORE PUSH1 0x4 ADD PUSH2 0xACD SWAP2 SWAP1 PUSH2 0x3BD4 JUMP JUMPDEST PUSH1 0x40 MLOAD DUP1 SWAP2 SUB SWAP1 REVERT JUMPDEST PUSH0 PUSH2 0xAE9 DUP4 DUP4 PUSH2 0xAE4 PUSH2 0x282D JUMP JUMPDEST PUSH2 0x2846 JUMP JUMPDEST SWAP1 POP DUP4 PUSH20 0xFFFFFFFFFFFFFFFFFFFFFFFFFFFFFFFFFFFFFFFF AND DUP2 PUSH20 0xFFFFFFFFFFFFFFFFFFFFFFFFFFFFFFFFFFFFFFFF AND EQ PUSH2 0xB5F JUMPI DUP4 DUP3 DUP3 PUSH1 0x40 MLOAD PUSH32 0x64283D7B00000000000000000000000000000000000000000000000000000000 DUP2 MSTORE PUSH1 0x4 ADD PUSH2 0xB56 SWAP4 SWAP3 SWAP2 SWAP1 PUSH2 0x446A JUMP JUMPDEST PUSH1 0x40 MLOAD DUP1 SWAP2 SUB SWAP1 REVERT JUMPDEST POP POP POP POP JUMP JUMPDEST PUSH1 0xC PUSH0 SWAP1 SLOAD SWAP1 PUSH2 0x100 EXP SWAP1 DIV PUSH1 0xFF AND PUSH2 0xBB3 JUMPI PUSH1 0x40 MLOAD PUSH32 0x8C379A000000000000000000000000000000000000000000000000000000000 DUP2 MSTORE PUSH1 0x4 ADD PUSH2 0xBAA SWAP1 PUSH2 0x44E9 JUMP JUMPDEST PUSH1 0x40 MLOAD DUP1 SWAP2 SUB SWAP1 REVERT JUMPDEST PUSH0 DUP2 GT DUP1 ISZERO PUSH2 0xBC3 JUMPI POP PUSH1 0x8 DUP2 GT ISZERO JUMPDEST PUSH2 0xC02 JUMPI PUSH1 0x40 MLOAD PUSH32 0x8C379A000000000000000000000000000000000000000000000000000000000 DUP2 MSTORE PUSH1 0x4 ADD PUSH2 0xBF9 SWAP1 PUSH2 0x4577 JUMP JUMPDEST PUSH1 0x40 MLOAD DUP1 SWAP2 SUB SWAP1 REVERT JUMPDEST PUSH2 0xC0A PUSH2 0x1772 JUMP JUMPDEST DUP2 GT ISZERO PUSH2 0xC4C JUMPI PUSH1 0x40 MLOAD PUSH32 0x8C379A000000000000000000000000000000000000000000000000000000000 DUP2 MSTORE PUSH1 0x4 ADD PUSH2 0xC43 SWAP1 PUSH2 0x45DF JUMP JUMPDEST PUSH1 0x40 MLOAD DUP1 SWAP2 SUB SWAP1 REVERT JUMPDEST PUSH2 0xC55 CALLER PUSH2 0x144C JUMP JUMPDEST PUSH2 0xC94 JUMPI PUSH1 0x40 MLOAD PUSH32 0x8C379A000000000000000000000000000000000000000000000000000000000 DUP2 MSTORE PUSH1 0x4 ADD PUSH2 0xC8B SWAP1 PUSH2 0x4647 JUMP JUMPDEST PUSH1 0x40 MLOAD DUP1 SWAP2 SUB SWAP1 REVERT JUMPDEST PUSH2 0xC9D CALLER PUSH2 0x25E5 JUMP JUMPDEST ISZERO PUSH2 0xCDD JUMPI PUSH1 0x40 MLOAD PUSH32 0x8C379A000000000000000000000000000000000000000000000000000000000 DUP2 MSTORE PUSH1 0x4 ADD PUSH2 0xCD4 SWAP1 PUSH2 0x46AF JUMP JUMPDEST PUSH1 0x40 MLOAD DUP1 SWAP2 SUB SWAP1 REVERT JUMPDEST PUSH0 PUSH1 0xD SLOAD DUP3 PUSH2 0xCEC SWAP2 SWAP1 PUSH2 0x46FA JUMP JUMPDEST SWAP1 POP DUP1 PUSH1 0x11 PUSH0 SWAP1 SLOAD SWAP1 PUSH2 0x100 EXP SWAP1 DIV PUSH20 0xFFFFFFFFFFFFFFFFFFFFFFFFFFFFFFFFFFFFFFFF AND PUSH20 0xFFFFFFFFFFFFFFFFFFFFFFFFFFFFFFFFFFFFFFFF AND PUSH4 0x70A08231 CALLER PUSH1 0x40 MLOAD DUP3 PUSH4 0xFFFFFFFF AND PUSH1 0xE0 SHL DUP2 MSTORE PUSH1 0x4 ADD PUSH2 0xD49 SWAP2 SWAP1 PUSH2 0x3BD4 JUMP JUMPDEST PUSH1 0x20 PUSH1 0x40 MLOAD DUP1 DUP4 SUB DUP2 DUP7 GAS STATICCALL ISZERO DUP1 ISZERO PUSH2 0xD64 JUMPI RETURNDATASIZE PUSH0 DUP1 RETURNDATACOPY RETURNDATASIZE PUSH0 REVERT JUMPDEST POP POP POP POP PUSH1 0x40 MLOAD RETURNDATASIZE PUSH1 0x1F NOT PUSH1 0x1F DUP3 ADD AND DUP3 ADD DUP1 PUSH1 0x40 MSTORE POP DUP2 ADD SWAP1 PUSH2 0xD88 SWAP2 SWAP1 PUSH2 0x474F JUMP JUMPDEST LT ISZERO PUSH2 0xDC9 JUMPI PUSH1 0x40 MLOAD PUSH32 0x8C379A000000000000000000000000000000000000000000000000000000000 DUP2 MSTORE PUSH1 0x4 ADD PUSH2 0xDC0 SWAP1 PUSH2 0x47C4 JUMP JUMPDEST PUSH1 0x40 MLOAD DUP1 SWAP2 SUB SWAP1 REVERT JUMPDEST DUP1 PUSH1 0x11 PUSH0 SWAP1 SLOAD SWAP1 PUSH2 0x100 EXP SWAP1 DIV PUSH20 0xFFFFFFFFFFFFFFFFFFFFFFFFFFFFFFFFFFFFFFFF AND PUSH20 0xFFFFFFFFFFFFFFFFFFFFFFFFFFFFFFFFFFFFFFFF AND PUSH4 0xDD62ED3E CALLER ADDRESS PUSH1 0x40 MLOAD DUP4 PUSH4 0xFFFFFFFF AND PUSH1 0xE0 SHL DUP2 MSTORE PUSH1 0x4 ADD PUSH2 0xE26 SWAP3 SWAP2 SWAP1 PUSH2 0x47E2 JUMP JUMPDEST PUSH1 0x20 PUSH1 0x40 MLOAD DUP1 DUP4 SUB DUP2 DUP7 GAS STATICCALL ISZERO DUP1 ISZERO PUSH2 0xE41 JUMPI RETURNDATASIZE PUSH0 DUP1 RETURNDATACOPY RETURNDATASIZE PUSH0 REVERT JUMPDEST POP POP POP POP PUSH1 0x40 MLOAD RETURNDATASIZE PUSH1 0x1F NOT PUSH1 0x1F DUP3 ADD AND DUP3 ADD DUP1 PUSH1 0x40 MSTORE POP DUP2 ADD SWAP1 PUSH2 0xE65 SWAP2 SWAP1 PUSH2 0x474F JUMP JUMPDEST LT ISZERO PUSH2 0xEA6 JUMPI PUSH1 0x40 MLOAD PUSH32 0x8C379A000000000000000000000000000000000000000000000000000000000 DUP2 MSTORE PUSH1 0x4 ADD PUSH2 0xE9D SWAP1 PUSH2 0x4853 JUMP JUMPDEST PUSH1 0x40 MLOAD DUP1 SWAP2 SUB SWAP1 REVERT JUMPDEST PUSH1 0x11 PUSH0 SWAP1 SLOAD SWAP1 PUSH2 0x100 EXP SWAP1 DIV PUSH20 0xFFFFFFFFFFFFFFFFFFFFFFFFFFFFFFFFFFFFFFFF AND PUSH20 0xFFFFFFFFFFFFFFFFFFFFFFFFFFFFFFFFFFFFFFFF AND PUSH4 0x23B872DD CALLER ADDRESS DUP5 PUSH1 0x40 MLOAD DUP5 PUSH4 0xFFFFFFFF AND PUSH1 0xE0 SHL DUP2 MSTORE PUSH1 0x4 ADD PUSH2 0xF04 SWAP4 SWAP3 SWAP2 SWAP1 PUSH2 0x4871 JUMP JUMPDEST PUSH1 0x20 PUSH1 0x40 MLOAD DUP1 DUP4 SUB DUP2 PUSH0 DUP8 GAS CALL ISZERO DUP1 ISZERO PUSH2 0xF20 JUMPI RETURNDATASIZE PUSH0 DUP1 RETURNDATACOPY RETURNDATASIZE PUSH0 REVERT JUMPDEST POP POP POP POP PUSH1 0x40 MLOAD RETURNDATASIZE PUSH1 0x1F NOT PUSH1 0x1F DUP3 ADD AND DUP3 ADD DUP1 PUSH1 0x40 MSTORE POP DUP2 ADD SWAP1 PUSH2 0xF44 SWAP2 SWAP1 PUSH2 0x48BA JUMP JUMPDEST POP PUSH0 DUP1 PUSH1 0x1 SWAP1 POP JUMPDEST PUSH1 0xE SLOAD DUP2 GT ISZERO DUP1 ISZERO PUSH2 0xF5D JUMPI POP DUP4 DUP3 LT JUMPDEST ISZERO PUSH2 0x120D JUMPI PUSH1 0x10 PUSH0 DUP3 DUP2 MSTORE PUSH1 0x20 ADD SWAP1 DUP2 MSTORE PUSH1 0x20 ADD PUSH0 KECCAK256 PUSH0 SWAP1 SLOAD SWAP1 PUSH2 0x100 EXP SWAP1 DIV PUSH1 0xFF AND PUSH2 0x11FA JUMPI PUSH2 0xF96 PUSH2 0xF8F PUSH2 0x18E5 JUMP JUMPDEST CALLER DUP4 PUSH2 0x2A51 JUMP JUMPDEST PUSH1 0x1 PUSH1 0x10 PUSH0 DUP4 DUP2 MSTORE PUSH1 0x20 ADD SWAP1 DUP2 MSTORE PUSH1 0x20 ADD PUSH0 KECCAK256 PUSH0 PUSH2 0x100 EXP DUP2 SLOAD DUP2 PUSH1 0xFF MUL NOT AND SWAP1 DUP4 ISZERO ISZERO MUL OR SWAP1 SSTORE POP PUSH1 0x1 PUSH1 0x16 PUSH0 CALLER PUSH20 0xFFFFFFFFFFFFFFFFFFFFFFFFFFFFFFFFFFFFFFFF AND PUSH20 0xFFFFFFFFFFFFFFFFFFFFFFFFFFFFFFFFFFFFFFFF AND DUP2 MSTORE PUSH1 0x20 ADD SWAP1 DUP2 MSTORE PUSH1 0x20 ADD PUSH0 KECCAK256 PUSH0 DUP3 DUP3 SLOAD PUSH2 0x100C SWAP2 SWAP1 PUSH2 0x48E5 JUMP JUMPDEST SWAP3 POP POP DUP2 SWAP1 SSTORE POP PUSH0 DUP1 JUMPDEST PUSH1 0x17 DUP1 SLOAD SWAP1 POP DUP2 LT ISZERO PUSH2 0x10ED JUMPI CALLER PUSH20 0xFFFFFFFFFFFFFFFFFFFFFFFFFFFFFFFFFFFFFFFF AND PUSH1 0x17 DUP3 DUP2 SLOAD DUP2 LT PUSH2 0x104E JUMPI PUSH2 0x104D PUSH2 0x4918 JUMP JUMPDEST JUMPDEST SWAP1 PUSH0 MSTORE PUSH1 0x20 PUSH0 KECCAK256 SWAP1 PUSH1 0x2 MUL ADD PUSH0 ADD PUSH0 SWAP1 SLOAD SWAP1 PUSH2 0x100 EXP SWAP1 DIV PUSH20 0xFFFFFFFFFFFFFFFFFFFFFFFFFFFFFFFFFFFFFFFF AND PUSH20 0xFFFFFFFFFFFFFFFFFFFFFFFFFFFFFFFFFFFFFFFF AND SUB PUSH2 0x10DA JUMPI PUSH1 0x1 PUSH1 0x17 DUP3 DUP2 SLOAD DUP2 LT PUSH2 0x10AD JUMPI PUSH2 0x10AC PUSH2 0x4918 JUMP JUMPDEST JUMPDEST SWAP1 PUSH0 MSTORE PUSH1 0x20 PUSH0 KECCAK256 SWAP1 PUSH1 0x2 MUL ADD PUSH1 0x1 ADD PUSH0 DUP3 DUP3 SLOAD PUSH2 0x10CA SWAP2 SWAP1 PUSH2 0x48E5 JUMP JUMPDEST SWAP3 POP POP DUP2 SWAP1 SSTORE POP PUSH1 0x1 SWAP2 POP PUSH2 0x10ED JUMP JUMPDEST DUP1 DUP1 PUSH2 0x10E5 SWAP1 PUSH2 0x4945 JUMP JUMPDEST SWAP2 POP POP PUSH2 0x1016 JUMP JUMPDEST POP DUP1 PUSH2 0x1198 JUMPI PUSH1 0x17 PUSH1 0x40 MLOAD DUP1 PUSH1 0x40 ADD PUSH1 0x40 MSTORE DUP1 CALLER PUSH20 0xFFFFFFFFFFFFFFFFFFFFFFFFFFFFFFFFFFFFFFFF AND DUP2 MSTORE PUSH1 0x20 ADD PUSH1 0x1 DUP2 MSTORE POP SWAP1 DUP1 PUSH1 0x1 DUP2 SLOAD ADD DUP1 DUP3 SSTORE DUP1 SWAP2 POP POP PUSH1 0x1 SWAP1 SUB SWAP1 PUSH0 MSTORE PUSH1 0x20 PUSH0 KECCAK256 SWAP1 PUSH1 0x2 MUL ADD PUSH0 SWAP1 SWAP2 SWAP1 SWAP2 SWAP1 SWAP2 POP PUSH0 DUP3 ADD MLOAD DUP2 PUSH0 ADD PUSH0 PUSH2 0x100 EXP DUP2 SLOAD DUP2 PUSH20 0xFFFFFFFFFFFFFFFFFFFFFFFFFFFFFFFFFFFFFFFF MUL NOT AND SWAP1 DUP4 PUSH20 0xFFFFFFFFFFFFFFFFFFFFFFFFFFFFFFFFFFFFFFFF AND MUL OR SWAP1 SSTORE POP PUSH1 0x20 DUP3 ADD MLOAD DUP2 PUSH1 0x1 ADD SSTORE POP POP JUMPDEST DUP3 DUP1 PUSH2 0x11A3 SWAP1 PUSH2 0x4945 JUMP JUMPDEST SWAP4 POP POP CALLER PUSH20 0xFFFFFFFFFFFFFFFFFFFFFFFFFFFFFFFFFFFFFFFF AND PUSH32 0x3CEFFD410054FDAED44F598FF5C1FB450658778E2241892DA4AA646979DEE617 DUP4 PUSH1 0xD SLOAD PUSH1 0x40 MLOAD PUSH2 0x11F0 SWAP3 SWAP2 SWAP1 PUSH2 0x498C JUMP JUMPDEST PUSH1 0x40 MLOAD DUP1 SWAP2 SUB SWAP1 LOG2 POP JUMPDEST DUP1 DUP1 PUSH2 0x1205 SWAP1 PUSH2 0x4945 JUMP JUMPDEST SWAP2 POP POP PUSH2 0xF4C JUMP JUMPDEST POP PUSH0 PUSH1 0x64 PUSH1 0x2 DUP5 PUSH2 0x121E SWAP2 SWAP1 PUSH2 0x46FA JUMP JUMPDEST PUSH2 0x1228 SWAP2 SWAP1 PUSH2 0x49E0 JUMP JUMPDEST SWAP1 POP PUSH0 DUP2 DUP5 PUSH2 0x1237 SWAP2 SWAP1 PUSH2 0x4A10 JUMP JUMPDEST SWAP1 POP PUSH1 0x11 PUSH0 SWAP1 SLOAD SWAP1 PUSH2 0x100 EXP SWAP1 DIV PUSH20 0xFFFFFFFFFFFFFFFFFFFFFFFFFFFFFFFFFFFFFFFF AND PUSH20 0xFFFFFFFFFFFFFFFFFFFFFFFFFFFFFFFFFFFFFFFF AND PUSH4 0xA9059CBB PUSH20 0x5B9E9514FCE6B5D903C7E763429B1D497DE6B3B DUP5 PUSH1 0x40 MLOAD DUP4 PUSH4 0xFFFFFFFF AND PUSH1 0xE0 SHL DUP2 MSTORE PUSH1 0x4 ADD PUSH2 0x12A9 SWAP3 SWAP2 SWAP1 PUSH2 0x3D6C JUMP JUMPDEST PUSH1 0x20 PUSH1 0x40 MLOAD DUP1 DUP4 SUB DUP2 PUSH0 DUP8 GAS CALL ISZERO DUP1 ISZERO PUSH2 0x12C5 JUMPI RETURNDATASIZE PUSH0 DUP1 RETURNDATACOPY RETURNDATASIZE PUSH0 REVERT JUMPDEST POP POP POP POP PUSH1 0x40 MLOAD RETURNDATASIZE PUSH1 0x1F NOT PUSH1 0x1F DUP3 ADD AND DUP3 ADD DUP1 PUSH1 0x40 MSTORE POP DUP2 ADD SWAP1 PUSH2 0x12E9 SWAP2 SWAP1 PUSH2 0x48BA JUMP JUMPDEST POP PUSH20 0x5B9E9514FCE6B5D903C7E763429B1D497DE6B3B PUSH20 0xFFFFFFFFFFFFFFFFFFFFFFFFFFFFFFFFFFFFFFFF AND PUSH32 0x885E6F6235626292940F78C947A331F4C7C1D7F50A48B38092CF546BC9C7907A DUP4 PUSH1 0x40 MLOAD PUSH2 0x1344 SWAP2 SWAP1 PUSH2 0x3E51 JUMP JUMPDEST PUSH1 0x40 MLOAD DUP1 SWAP2 SUB SWAP1 LOG2 PUSH1 0x11 PUSH0 SWAP1 SLOAD SWAP1 PUSH2 0x100 EXP SWAP1 DIV PUSH20 0xFFFFFFFFFFFFFFFFFFFFFFFFFFFFFFFFFFFFFFFF AND PUSH20 0xFFFFFFFFFFFFFFFFFFFFFFFFFFFFFFFFFFFFFFFF AND PUSH4 0xA9059CBB PUSH2 0x1391 PUSH2 0x18E5 JUMP JUMPDEST DUP4 PUSH1 0x40 MLOAD DUP4 PUSH4 0xFFFFFFFF AND PUSH1 0xE0 SHL DUP2 MSTORE PUSH1 0x4 ADD PUSH2 0x13AF SWAP3 SWAP2 SWAP1 PUSH2 0x3D6C JUMP JUMPDEST PUSH1 0x20 PUSH1 0x40 MLOAD DUP1 DUP4 SUB DUP2 PUSH0 DUP8 GAS CALL ISZERO DUP1 ISZERO PUSH2 0x13CB JUMPI RETURNDATASIZE PUSH0 DUP1 RETURNDATACOPY RETURNDATASIZE PUSH0 REVERT JUMPDEST POP POP POP POP PUSH1 0x40 MLOAD RETURNDATASIZE PUSH1 0x1F NOT PUSH1 0x1F DUP3 ADD AND DUP3 ADD DUP1 PUSH1 0x40 MSTORE POP DUP2 ADD SWAP1 PUSH2 0x13EF SWAP2 SWAP1 PUSH2 0x48BA JUMP JUMPDEST POP PUSH2 0x13F8 PUSH2 0x18E5 JUMP JUMPDEST PUSH20 0xFFFFFFFFFFFFFFFFFFFFFFFFFFFFFFFFFFFFFFFF AND PUSH32 0x6EF95F06320E7A25A04A175CA677B7052BDD97131872C2192525A629F51BE770 DUP3 PUSH1 0x40 MLOAD PUSH2 0x143D SWAP2 SWAP1 PUSH2 0x3E51 JUMP JUMPDEST PUSH1 0x40 MLOAD DUP1 SWAP2 SUB SWAP1 LOG2 POP POP POP POP POP JUMP JUMPDEST PUSH0 DUP1 PUSH0 SWAP1 POP JUMPDEST PUSH1 0x12 DUP1 SLOAD SWAP1 POP DUP2 LT ISZERO PUSH2 0x14EA JUMPI DUP3 PUSH20 0xFFFFFFFFFFFFFFFFFFFFFFFFFFFFFFFFFFFFFFFF AND PUSH1 0x12 DUP3 DUP2 SLOAD DUP2 LT PUSH2 0x148A JUMPI PUSH2 0x1489 PUSH2 0x4918 JUMP JUMPDEST JUMPDEST SWAP1 PUSH0 MSTORE PUSH1 0x20 PUSH0 KECCAK256 ADD PUSH0 SWAP1 SLOAD SWAP1 PUSH2 0x100 EXP SWAP1 DIV PUSH20 0xFFFFFFFFFFFFFFFFFFFFFFFFFFFFFFFFFFFFFFFF AND PUSH20 0xFFFFFFFFFFFFFFFFFFFFFFFFFFFFFFFFFFFFFFFF AND SUB PUSH2 0x14D7 JUMPI PUSH1 0x1 SWAP2 POP POP PUSH2 0x14EF JUMP JUMPDEST DUP1 DUP1 PUSH2 0x14E2 SWAP1 PUSH2 0x4945 JUMP JUMPDEST SWAP2 POP POP PUSH2 0x1452 JUMP JUMPDEST POP PUSH0 SWAP1 POP JUMPDEST SWAP2 SWAP1 POP JUMP JUMPDEST PUSH1 0x17 DUP2 DUP2 SLOAD DUP2 LT PUSH2 0x1503 JUMPI PUSH0 DUP1 REVERT JUMPDEST SWAP1 PUSH0 MSTORE PUSH1 0x20 PUSH0 KECCAK256 SWAP1 PUSH1 0x2 MUL ADD PUSH0 SWAP2 POP SWAP1 POP DUP1 PUSH0 ADD PUSH0 SWAP1 SLOAD SWAP1 PUSH2 0x100 EXP SWAP1 DIV PUSH20 0xFFFFFFFFFFFFFFFFFFFFFFFFFFFFFFFFFFFFFFFF AND SWAP1 DUP1 PUSH1 0x1 ADD SLOAD SWAP1 POP DUP3 JUMP JUMPDEST PUSH2 0x155C DUP4 DUP4 DUP4 PUSH1 0x40 MLOAD DUP1 PUSH1 0x20 ADD PUSH1 0x40 MSTORE DUP1 PUSH0 DUP2 MSTORE POP PUSH2 0x1ACB JUMP JUMPDEST POP POP POP JUMP JUMPDEST PUSH1 0x16 PUSH1 0x20 MSTORE DUP1 PUSH0 MSTORE PUSH1 0x40 PUSH0 KECCAK256 PUSH0 SWAP2 POP SWAP1 POP SLOAD DUP2 JUMP JUMPDEST PUSH2 0x157E PUSH2 0x2BB9 JUMP JUMPDEST PUSH1 0xC PUSH0 SWAP1 SLOAD SWAP1 PUSH2 0x100 EXP SWAP1 DIV PUSH1 0xFF AND ISZERO PUSH2 0x15CD JUMPI PUSH1 0x40 MLOAD PUSH32 0x8C379A000000000000000000000000000000000000000000000000000000000 DUP2 MSTORE PUSH1 0x4 ADD PUSH2 0x15C4 SWAP1 PUSH2 0x4A8D JUMP JUMPDEST PUSH1 0x40 MLOAD DUP1 SWAP2 SUB SWAP1 REVERT JUMPDEST DUP2 PUSH1 0xE DUP2 SWAP1 SSTORE POP PUSH3 0xF4240 DUP2 PUSH2 0x15E3 SWAP2 SWAP1 PUSH2 0x46FA JUMP JUMPDEST PUSH1 0xD DUP2 SWAP1 SSTORE POP PUSH1 0x1 PUSH1 0xC PUSH0 PUSH2 0x100 EXP DUP2 SLOAD DUP2 PUSH1 0xFF MUL NOT AND SWAP1 DUP4 ISZERO ISZERO MUL OR SWAP1 SSTORE POP PUSH0 PUSH1 0x8 PUSH0 ADD PUSH2 0x1616 PUSH1 0x8 PUSH1 0x1 ADD SLOAD PUSH2 0x2C40 JUMP JUMPDEST PUSH2 0x1624 PUSH1 0x8 PUSH1 0x2 ADD SLOAD PUSH2 0x2C40 JUMP JUMPDEST PUSH2 0x1632 PUSH1 0x8 PUSH1 0x3 ADD SLOAD PUSH2 0x2C40 JUMP JUMPDEST PUSH1 0x40 MLOAD PUSH1 0x20 ADD PUSH2 0x1645 SWAP5 SWAP4 SWAP3 SWAP2 SWAP1 PUSH2 0x4FF9 JUMP JUMPDEST PUSH1 0x40 MLOAD PUSH1 0x20 DUP2 DUP4 SUB SUB DUP2 MSTORE SWAP1 PUSH1 0x40 MSTORE SWAP1 POP PUSH0 PUSH2 0x1660 DUP3 PUSH2 0x2DBE JUMP JUMPDEST SWAP1 POP PUSH0 DUP2 PUSH1 0x40 MLOAD PUSH1 0x20 ADD PUSH2 0x1674 SWAP2 SWAP1 PUSH2 0x510F JUMP JUMPDEST PUSH1 0x40 MLOAD PUSH1 0x20 DUP2 DUP4 SUB SUB DUP2 MSTORE SWAP1 PUSH1 0x40 MSTORE SWAP1 POP PUSH0 PUSH1 0x1 SWAP1 POP JUMPDEST DUP6 DUP2 GT PUSH2 0x16B9 JUMPI PUSH2 0x169C CALLER DUP3 PUSH2 0x2F2B JUMP JUMPDEST PUSH2 0x16A6 DUP2 DUP4 PUSH2 0x301E JUMP JUMPDEST DUP1 DUP1 PUSH2 0x16B1 SWAP1 PUSH2 0x4945 JUMP JUMPDEST SWAP2 POP POP PUSH2 0x168B JUMP JUMPDEST POP DUP5 PUSH1 0xF DUP2 SWAP1 SSTORE POP PUSH32 0x8A3AD1D54F9E72CE7885341976027E04C0C26BDDBA427E8768F04879F82DC6E DUP6 DUP6 PUSH1 0x40 MLOAD PUSH2 0x16F2 SWAP3 SWAP2 SWAP1 PUSH2 0x498C JUMP JUMPDEST PUSH1 0x40 MLOAD DUP1 SWAP2 SUB SWAP1 LOG1 POP POP POP POP POP JUMP JUMPDEST PUSH0 PUSH2 0x170B DUP3 PUSH2 0x276E JUMP JUMPDEST SWAP1 POP SWAP2 SWAP1 POP JUMP JUMPDEST PUSH2 0x171A PUSH2 0x2BB9 JUMP JUMPDEST PUSH1 0xC PUSH0 SWAP1 SLOAD SWAP1 PUSH2 0x100 EXP SWAP1 DIV PUSH1 0xFF AND PUSH2 0x1768 JUMPI PUSH1 0x40 MLOAD PUSH32 0x8C379A000000000000000000000000000000000000000000000000000000000 DUP2 MSTORE PUSH1 0x4 ADD PUSH2 0x175F SWAP1 PUSH2 0x44E9 JUMP JUMPDEST PUSH1 0x40 MLOAD DUP1 SWAP2 SUB SWAP1 REVERT JUMPDEST DUP1 PUSH1 0xD DUP2 SWAP1 SSTORE POP POP JUMP JUMPDEST PUSH0 DUP1 PUSH0 SWAP1 POP PUSH0 PUSH1 0x1 SWAP1 POP JUMPDEST PUSH1 0xE SLOAD DUP2 GT PUSH2 0x1808 JUMPI PUSH0 PUSH20 0xFFFFFFFFFFFFFFFFFFFFFFFFFFFFFFFFFFFFFFFF AND PUSH2 0x17A6 DUP3 PUSH2 0x1701 JUMP JUMPDEST PUSH20 0xFFFFFFFFFFFFFFFFFFFFFFFFFFFFFFFFFFFFFFFF AND EQ DUP1 PUSH2 0x17E2 JUMPI POP PUSH1 0x10 PUSH0 DUP3 DUP2 MSTORE PUSH1 0x20 ADD SWAP1 DUP2 MSTORE PUSH1 0x20 ADD PUSH0 KECCAK256 PUSH0 SWAP1 SLOAD SWAP1 PUSH2 0x100 EXP SWAP1 DIV PUSH1 0xFF AND JUMPDEST PUSH2 0x17F5 JUMPI DUP2 DUP1 PUSH2 0x17F1 SWAP1 PUSH2 0x4945 JUMP JUMPDEST SWAP3 POP POP JUMPDEST DUP1 DUP1 PUSH2 0x1800 SWAP1 PUSH2 0x4945 JUMP JUMPDEST SWAP2 POP POP PUSH2 0x177D JUMP JUMPDEST POP DUP1 SWAP2 POP POP SWAP1 JUMP JUMPDEST PUSH0 DUP1 PUSH20 0xFFFFFFFFFFFFFFFFFFFFFFFFFFFFFFFFFFFFFFFF AND DUP3 PUSH20 0xFFFFFFFFFFFFFFFFFFFFFFFFFFFFFFFFFFFFFFFF AND SUB PUSH2 0x1881 JUMPI PUSH0 PUSH1 0x40 MLOAD PUSH32 0x89C62B6400000000000000000000000000000000000000000000000000000000 DUP2 MSTORE PUSH1 0x4 ADD PUSH2 0x1878 SWAP2 SWAP1 PUSH2 0x3BD4 JUMP JUMPDEST PUSH1 0x40 MLOAD DUP1 SWAP2 SUB SWAP1 REVERT JUMPDEST PUSH1 0x3 PUSH0 DUP4 PUSH20 0xFFFFFFFFFFFFFFFFFFFFFFFFFFFFFFFFFFFFFFFF AND PUSH20 0xFFFFFFFFFFFFFFFFFFFFFFFFFFFFFFFFFFFFFFFF AND DUP2 MSTORE PUSH1 0x20 ADD SWAP1 DUP2 MSTORE PUSH1 0x20 ADD PUSH0 KECCAK256 SLOAD SWAP1 POP SWAP2 SWAP1 POP JUMP JUMPDEST PUSH2 0x18CE PUSH2 0x2BB9 JUMP JUMPDEST PUSH2 0x18D7 PUSH0 PUSH2 0x3078 JUMP JUMPDEST JUMP JUMPDEST PUSH1 0xE SLOAD DUP2 JUMP JUMPDEST PUSH1 0xD SLOAD DUP2 JUMP JUMPDEST PUSH0 PUSH1 0x7 PUSH0 SWAP1 SLOAD SWAP1 PUSH2 0x100 EXP SWAP1 DIV PUSH20 0xFFFFFFFFFFFFFFFFFFFFFFFFFFFFFFFFFFFFFFFF AND SWAP1 POP SWAP1 JUMP JUMPDEST PUSH1 0x60 PUSH1 0x1 DUP1 SLOAD PUSH2 0x191C SWAP1 PUSH2 0x443A JUMP JUMPDEST DUP1 PUSH1 0x1F ADD PUSH1 0x20 DUP1 SWAP2 DIV MUL PUSH1 0x20 ADD PUSH1 0x40 MLOAD SWAP1 DUP2 ADD PUSH1 0x40 MSTORE DUP1 SWAP3 SWAP2 SWAP1 DUP2 DUP2 MSTORE PUSH1 0x20 ADD DUP3 DUP1 SLOAD PUSH2 0x1948 SWAP1 PUSH2 0x443A JUMP JUMPDEST DUP1 ISZERO PUSH2 0x1993 JUMPI DUP1 PUSH1 0x1F LT PUSH2 0x196A JUMPI PUSH2 0x100 DUP1 DUP4 SLOAD DIV MUL DUP4 MSTORE SWAP2 PUSH1 0x20 ADD SWAP2 PUSH2 0x1993 JUMP JUMPDEST DUP3 ADD SWAP2 SWAP1 PUSH0 MSTORE PUSH1 0x20 PUSH0 KECCAK256 SWAP1 JUMPDEST DUP2 SLOAD DUP2 MSTORE SWAP1 PUSH1 0x1 ADD SWAP1 PUSH1 0x20 ADD DUP1 DUP4 GT PUSH2 0x1976 JUMPI DUP3 SWAP1 SUB PUSH1 0x1F AND DUP3 ADD SWAP2 JUMPDEST POP POP POP POP POP SWAP1 POP SWAP1 JUMP JUMPDEST PUSH2 0x19AF PUSH2 0x19A8 PUSH2 0x282D JUMP JUMPDEST DUP4 DUP4 PUSH2 0x313B JUMP JUMPDEST POP POP JUMP JUMPDEST PUSH1 0x13 DUP2 DUP2 SLOAD DUP2 LT PUSH2 0x19C2 JUMPI PUSH0 DUP1 REVERT JUMPDEST SWAP1 PUSH0 MSTORE PUSH1 0x20 PUSH0 KECCAK256 ADD PUSH0 SWAP2 POP SLOAD SWAP1 PUSH2 0x100 EXP SWAP1 DIV PUSH20 0xFFFFFFFFFFFFFFFFFFFFFFFFFFFFFFFFFFFFFFFF AND DUP2 JUMP JUMPDEST PUSH1 0x10 PUSH1 0x20 MSTORE DUP1 PUSH0 MSTORE PUSH1 0x40 PUSH0 KECCAK256 PUSH0 SWAP2 POP SLOAD SWAP1 PUSH2 0x100 EXP SWAP1 DIV PUSH1 0xFF AND DUP2 JUMP JUMPDEST PUSH1 0x60 PUSH1 0x17 DUP1 SLOAD DUP1 PUSH1 0x20 MUL PUSH1 0x20 ADD PUSH1 0x40 MLOAD SWAP1 DUP2 ADD PUSH1 0x40 MSTORE DUP1 SWAP3 SWAP2 SWAP1 DUP2 DUP2 MSTORE PUSH1 0x20 ADD PUSH0 SWAP1 JUMPDEST DUP3 DUP3 LT ISZERO PUSH2 0x1ABC JUMPI DUP4 DUP3 SWAP1 PUSH0 MSTORE PUSH1 0x20 PUSH0 KECCAK256 SWAP1 PUSH1 0x2 MUL ADD PUSH1 0x40 MLOAD DUP1 PUSH1 0x40 ADD PUSH1 0x40 MSTORE SWAP1 DUP2 PUSH0 DUP3 ADD PUSH0 SWAP1 SLOAD SWAP1 PUSH2 0x100 EXP SWAP1 DIV PUSH20 0xFFFFFFFFFFFFFFFFFFFFFFFFFFFFFFFFFFFFFFFF AND PUSH20 0xFFFFFFFFFFFFFFFFFFFFFFFFFFFFFFFFFFFFFFFF AND PUSH20 0xFFFFFFFFFFFFFFFFFFFFFFFFFFFFFFFFFFFFFFFF AND DUP2 MSTORE PUSH1 0x20 ADD PUSH1 0x1 DUP3 ADD SLOAD DUP2 MSTORE POP POP DUP2 MSTORE PUSH1 0x20 ADD SWAP1 PUSH1 0x1 ADD SWAP1 PUSH2 0x1A2E JUMP JUMPDEST POP POP POP POP SWAP1 POP SWAP1 JUMP JUMPDEST PUSH1 0xF SLOAD DUP2 JUMP JUMPDEST PUSH2 0x1AD6 DUP5 DUP5 DUP5 PUSH2 0xA66 JUMP JUMPDEST PUSH2 0x1AE2 DUP5 DUP5 DUP5 DUP5 PUSH2 0x32A4 JUMP JUMPDEST POP POP POP POP JUMP JUMPDEST PUSH1 0x12 DUP2 DUP2 SLOAD DUP2 LT PUSH2 0x1AF7 JUMPI PUSH0 DUP1 REVERT JUMPDEST SWAP1 PUSH0 MSTORE PUSH1 0x20 PUSH0 KECCAK256 ADD PUSH0 SWAP2 POP SLOAD SWAP1 PUSH2 0x100 EXP SWAP1 DIV PUSH20 0xFFFFFFFFFFFFFFFFFFFFFFFFFFFFFFFFFFFFFFFF AND DUP2 JUMP JUMPDEST PUSH1 0x60 PUSH2 0x1B2E DUP3 PUSH2 0x276E JUMP JUMPDEST POP PUSH0 PUSH1 0x6 PUSH0 DUP5 DUP2 MSTORE PUSH1 0x20 ADD SWAP1 DUP2 MSTORE PUSH1 0x20 ADD PUSH0 KECCAK256 DUP1 SLOAD PUSH2 0x1B4C SWAP1 PUSH2 0x443A JUMP JUMPDEST DUP1 PUSH1 0x1F ADD PUSH1 0x20 DUP1 SWAP2 DIV MUL PUSH1 0x20 ADD PUSH1 0x40 MLOAD SWAP1 DUP2 ADD PUSH1 0x40 MSTORE DUP1 SWAP3 SWAP2 SWAP1 DUP2 DUP2 MSTORE PUSH1 0x20 ADD DUP3 DUP1 SLOAD PUSH2 0x1B78 SWAP1 PUSH2 0x443A JUMP JUMPDEST DUP1 ISZERO PUSH2 0x1BC3 JUMPI DUP1 PUSH1 0x1F LT PUSH2 0x1B9A JUMPI PUSH2 0x100 DUP1 DUP4 SLOAD DIV MUL DUP4 MSTORE SWAP2 PUSH1 0x20 ADD SWAP2 PUSH2 0x1BC3 JUMP JUMPDEST DUP3 ADD SWAP2 SWAP1 PUSH0 MSTORE PUSH1 0x20 PUSH0 KECCAK256 SWAP1 JUMPDEST DUP2 SLOAD DUP2 MSTORE SWAP1 PUSH1 0x1 ADD SWAP1 PUSH1 0x20 ADD DUP1 DUP4 GT PUSH2 0x1BA6 JUMPI DUP3 SWAP1 SUB PUSH1 0x1F AND DUP3 ADD SWAP2 JUMPDEST POP POP POP POP POP SWAP1 POP PUSH0 PUSH2 0x1BD3 PUSH2 0x3456 JUMP JUMPDEST SWAP1 POP PUSH0 DUP2 MLOAD SUB PUSH2 0x1BE7 JUMPI DUP2 SWAP3 POP POP POP PUSH2 0x1C29 JUMP JUMPDEST PUSH0 DUP3 MLOAD GT ISZERO PUSH2 0x1C1B JUMPI DUP1 DUP3 PUSH1 0x40 MLOAD PUSH1 0x20 ADD PUSH2 0x1C03 SWAP3 SWAP2 SWAP1 PUSH2 0x5130 JUMP JUMPDEST PUSH1 0x40 MLOAD PUSH1 0x20 DUP2 DUP4 SUB SUB DUP2 MSTORE SWAP1 PUSH1 0x40 MSTORE SWAP3 POP POP POP PUSH2 0x1C29 JUMP JUMPDEST PUSH2 0x1C24 DUP5 PUSH2 0x346C JUMP JUMPDEST SWAP3 POP POP POP JUMPDEST SWAP2 SWAP1 POP JUMP JUMPDEST PUSH2 0x1C36 PUSH2 0x2BB9 JUMP JUMPDEST PUSH1 0xC PUSH0 SWAP1 SLOAD SWAP1 PUSH2 0x100 EXP SWAP1 DIV PUSH1 0xFF AND PUSH2 0x1C84 JUMPI PUSH1 0x40 MLOAD PUSH32 0x8C379A000000000000000000000000000000000000000000000000000000000 DUP2 MSTORE PUSH1 0x4 ADD PUSH2 0x1C7B SWAP1 PUSH2 0x44E9 JUMP JUMPDEST PUSH1 0x40 MLOAD DUP1 SWAP2 SUB SWAP1 REVERT JUMPDEST PUSH0 PUSH2 0x3E8 PUSH1 0x5 PUSH1 0x14 SLOAD PUSH2 0x1C97 SWAP2 SWAP1 PUSH2 0x46FA JUMP JUMPDEST PUSH2 0x1CA1 SWAP2 SWAP1 PUSH2 0x49E0 JUMP JUMPDEST SWAP1 POP PUSH0 DUP1 PUSH2 0x1CAD PUSH2 0x1A0B JUMP JUMPDEST SWAP1 POP PUSH0 JUMPDEST DUP2 MLOAD DUP2 LT ISZERO PUSH2 0x1D0E JUMPI PUSH0 DUP3 DUP3 DUP2 MLOAD DUP2 LT PUSH2 0x1CCE JUMPI PUSH2 0x1CCD PUSH2 0x4918 JUMP JUMPDEST JUMPDEST PUSH1 0x20 MUL PUSH1 0x20 ADD ADD MLOAD PUSH1 0x20 ADD MLOAD SWAP1 POP PUSH0 DUP2 DUP7 PUSH2 0x1CE9 SWAP2 SWAP1 PUSH2 0x46FA JUMP JUMPDEST SWAP1 POP DUP1 DUP6 PUSH2 0x1CF7 SWAP2 SWAP1 PUSH2 0x48E5 JUMP JUMPDEST SWAP5 POP POP POP DUP1 DUP1 PUSH2 0x1D06 SWAP1 PUSH2 0x4945 JUMP JUMPDEST SWAP2 POP POP PUSH2 0x1CB1 JUMP JUMPDEST POP DUP2 PUSH1 0x11 PUSH0 SWAP1 SLOAD SWAP1 PUSH2 0x100 EXP SWAP1 DIV PUSH20 0xFFFFFFFFFFFFFFFFFFFFFFFFFFFFFFFFFFFFFFFF AND PUSH20 0xFFFFFFFFFFFFFFFFFFFFFFFFFFFFFFFFFFFFFFFF AND PUSH4 0xDD62ED3E CALLER ADDRESS PUSH1 0x40 MLOAD DUP4 PUSH4 0xFFFFFFFF AND PUSH1 0xE0 SHL DUP2 MSTORE PUSH1 0x4 ADD PUSH2 0x1D6C SWAP3 SWAP2 SWAP1 PUSH2 0x47E2 JUMP JUMPDEST PUSH1 0x20 PUSH1 0x40 MLOAD DUP1 DUP4 SUB DUP2 DUP7 GAS STATICCALL ISZERO DUP1 ISZERO PUSH2 0x1D87 JUMPI RETURNDATASIZE PUSH0 DUP1 RETURNDATACOPY RETURNDATASIZE PUSH0 REVERT JUMPDEST POP POP POP POP PUSH1 0x40 MLOAD RETURNDATASIZE PUSH1 0x1F NOT PUSH1 0x1F DUP3 ADD AND DUP3 ADD DUP1 PUSH1 0x40 MSTORE POP DUP2 ADD SWAP1 PUSH2 0x1DAB SWAP2 SWAP1 PUSH2 0x474F JUMP JUMPDEST LT ISZERO PUSH2 0x1DEC JUMPI PUSH1 0x40 MLOAD PUSH32 0x8C379A000000000000000000000000000000000000000000000000000000000 DUP2 MSTORE PUSH1 0x4 ADD PUSH2 0x1DE3 SWAP1 PUSH2 0x4853 JUMP JUMPDEST PUSH1 0x40 MLOAD DUP1 SWAP2 SUB SWAP1 REVERT JUMPDEST PUSH1 0x11 PUSH0 SWAP1 SLOAD SWAP1 PUSH2 0x100 EXP SWAP1 DIV PUSH20 0xFFFFFFFFFFFFFFFFFFFFFFFFFFFFFFFFFFFFFFFF AND PUSH20 0xFFFFFFFFFFFFFFFFFFFFFFFFFFFFFFFFFFFFFFFF AND PUSH4 0x23B872DD CALLER ADDRESS DUP6 PUSH1 0x40 MLOAD DUP5 PUSH4 0xFFFFFFFF AND PUSH1 0xE0 SHL DUP2 MSTORE PUSH1 0x4 ADD PUSH2 0x1E4A SWAP4 SWAP3 SWAP2 SWAP1 PUSH2 0x4871 JUMP JUMPDEST PUSH1 0x20 PUSH1 0x40 MLOAD DUP1 DUP4 SUB DUP2 PUSH0 DUP8 GAS CALL ISZERO DUP1 ISZERO PUSH2 0x1E66 JUMPI RETURNDATASIZE PUSH0 DUP1 RETURNDATACOPY RETURNDATASIZE PUSH0 REVERT JUMPDEST POP POP POP POP PUSH1 0x40 MLOAD RETURNDATASIZE PUSH1 0x1F NOT PUSH1 0x1F DUP3 ADD AND DUP3 ADD DUP1 PUSH1 0x40 MSTORE POP DUP2 ADD SWAP1 PUSH2 0x1E8A SWAP2 SWAP1 PUSH2 0x48BA JUMP JUMPDEST POP PUSH0 JUMPDEST DUP2 MLOAD DUP2 LT ISZERO PUSH2 0x208C JUMPI PUSH0 DUP3 DUP3 DUP2 MLOAD DUP2 LT PUSH2 0x1EAA JUMPI PUSH2 0x1EA9 PUSH2 0x4918 JUMP JUMPDEST JUMPDEST PUSH1 0x20 MUL PUSH1 0x20 ADD ADD MLOAD PUSH0 ADD MLOAD SWAP1 POP PUSH0 DUP4 DUP4 DUP2 MLOAD DUP2 LT PUSH2 0x1ECB JUMPI PUSH2 0x1ECA PUSH2 0x4918 JUMP JUMPDEST JUMPDEST PUSH1 0x20 MUL PUSH1 0x20 ADD ADD MLOAD PUSH1 0x20 ADD MLOAD SWAP1 POP PUSH0 DUP2 DUP8 PUSH2 0x1EE6 SWAP2 SWAP1 PUSH2 0x46FA JUMP JUMPDEST SWAP1 POP PUSH1 0x11 PUSH0 SWAP1 SLOAD SWAP1 PUSH2 0x100 EXP SWAP1 DIV PUSH20 0xFFFFFFFFFFFFFFFFFFFFFFFFFFFFFFFFFFFFFFFF AND PUSH20 0xFFFFFFFFFFFFFFFFFFFFFFFFFFFFFFFFFFFFFFFF AND PUSH4 0xA9059CBB DUP5 DUP4 PUSH1 0x40 MLOAD DUP4 PUSH4 0xFFFFFFFF AND PUSH1 0xE0 SHL DUP2 MSTORE PUSH1 0x4 ADD PUSH2 0x1F44 SWAP3 SWAP2 SWAP1 PUSH2 0x3D6C JUMP JUMPDEST PUSH1 0x20 PUSH1 0x40 MLOAD DUP1 DUP4 SUB DUP2 PUSH0 DUP8 GAS CALL ISZERO DUP1 ISZERO PUSH2 0x1F60 JUMPI RETURNDATASIZE PUSH0 DUP1 RETURNDATACOPY RETURNDATASIZE PUSH0 REVERT JUMPDEST POP POP POP POP PUSH1 0x40 MLOAD RETURNDATASIZE PUSH1 0x1F NOT PUSH1 0x1F DUP3 ADD AND DUP3 ADD DUP1 PUSH1 0x40 MSTORE POP DUP2 ADD SWAP1 PUSH2 0x1F84 SWAP2 SWAP1 PUSH2 0x48BA JUMP JUMPDEST POP PUSH1 0x15 PUSH1 0x40 MLOAD DUP1 PUSH1 0x40 ADD PUSH1 0x40 MSTORE DUP1 DUP6 PUSH20 0xFFFFFFFFFFFFFFFFFFFFFFFFFFFFFFFFFFFFFFFF AND DUP2 MSTORE PUSH1 0x20 ADD DUP4 DUP2 MSTORE POP SWAP1 DUP1 PUSH1 0x1 DUP2 SLOAD ADD DUP1 DUP3 SSTORE DUP1 SWAP2 POP POP PUSH1 0x1 SWAP1 SUB SWAP1 PUSH0 MSTORE PUSH1 0x20 PUSH0 KECCAK256 SWAP1 PUSH1 0x2 MUL ADD PUSH0 SWAP1 SWAP2 SWAP1 SWAP2 SWAP1 SWAP2 POP PUSH0 DUP3 ADD MLOAD DUP2 PUSH0 ADD PUSH0 PUSH2 0x100 EXP DUP2 SLOAD DUP2 PUSH20 0xFFFFFFFFFFFFFFFFFFFFFFFFFFFFFFFFFFFFFFFF MUL NOT AND SWAP1 DUP4 PUSH20 0xFFFFFFFFFFFFFFFFFFFFFFFFFFFFFFFFFFFFFFFF AND MUL OR SWAP1 SSTORE POP PUSH1 0x20 DUP3 ADD MLOAD DUP2 PUSH1 0x1 ADD SSTORE POP POP DUP3 PUSH20 0xFFFFFFFFFFFFFFFFFFFFFFFFFFFFFFFFFFFFFFFF AND PUSH32 0xFBFB5C3838EDBA49F86BF92AC506367C2BB6D474FA7CBADFD4F5618C9C665A48 DUP3 PUSH1 0x40 MLOAD PUSH2 0x206E SWAP2 SWAP1 PUSH2 0x3E51 JUMP JUMPDEST PUSH1 0x40 MLOAD DUP1 SWAP2 SUB SWAP1 LOG2 POP POP POP DUP1 DUP1 PUSH2 0x2084 SWAP1 PUSH2 0x4945 JUMP JUMPDEST SWAP2 POP POP PUSH2 0x1E8D JUMP JUMPDEST POP POP POP POP JUMP JUMPDEST PUSH0 DUP1 PUSH0 SWAP1 POP JUMPDEST PUSH1 0x17 DUP1 SLOAD SWAP1 POP DUP2 LT ISZERO PUSH2 0x2136 JUMPI DUP3 PUSH20 0xFFFFFFFFFFFFFFFFFFFFFFFFFFFFFFFFFFFFFFFF AND PUSH1 0x17 DUP3 DUP2 SLOAD DUP2 LT PUSH2 0x20D0 JUMPI PUSH2 0x20CF PUSH2 0x4918 JUMP JUMPDEST JUMPDEST SWAP1 PUSH0 MSTORE PUSH1 0x20 PUSH0 KECCAK256 SWAP1 PUSH1 0x2 MUL ADD PUSH0 ADD PUSH0 SWAP1 SLOAD SWAP1 PUSH2 0x100 EXP SWAP1 DIV PUSH20 0xFFFFFFFFFFFFFFFFFFFFFFFFFFFFFFFFFFFFFFFF AND PUSH20 0xFFFFFFFFFFFFFFFFFFFFFFFFFFFFFFFFFFFFFFFF AND SUB PUSH2 0x2123 JUMPI PUSH1 0x1 SWAP2 POP POP PUSH2 0x213B JUMP JUMPDEST DUP1 DUP1 PUSH2 0x212E SWAP1 PUSH2 0x4945 JUMP JUMPDEST SWAP2 POP POP PUSH2 0x2098 JUMP JUMPDEST POP PUSH0 SWAP1 POP JUMPDEST SWAP2 SWAP1 POP JUMP JUMPDEST PUSH1 0x60 DUP1 PUSH0 PUSH1 0xE SLOAD PUSH8 0xFFFFFFFFFFFFFFFF DUP2 GT ISZERO PUSH2 0x2160 JUMPI PUSH2 0x215F PUSH2 0x40A6 JUMP JUMPDEST JUMPDEST PUSH1 0x40 MLOAD SWAP1 DUP1 DUP3 MSTORE DUP1 PUSH1 0x20 MUL PUSH1 0x20 ADD DUP3 ADD PUSH1 0x40 MSTORE DUP1 ISZERO PUSH2 0x218E JUMPI DUP2 PUSH1 0x20 ADD PUSH1 0x20 DUP3 MUL DUP1 CALLDATASIZE DUP4 CALLDATACOPY DUP1 DUP3 ADD SWAP2 POP POP SWAP1 POP JUMPDEST POP SWAP1 POP PUSH0 PUSH1 0xE SLOAD PUSH8 0xFFFFFFFFFFFFFFFF DUP2 GT ISZERO PUSH2 0x21AE JUMPI PUSH2 0x21AD PUSH2 0x40A6 JUMP JUMPDEST JUMPDEST PUSH1 0x40 MLOAD SWAP1 DUP1 DUP3 MSTORE DUP1 PUSH1 0x20 MUL PUSH1 0x20 ADD DUP3 ADD PUSH1 0x40 MSTORE DUP1 ISZERO PUSH2 0x21DC JUMPI DUP2 PUSH1 0x20 ADD PUSH1 0x20 DUP3 MUL DUP1 CALLDATASIZE DUP4 CALLDATACOPY DUP1 DUP3 ADD SWAP2 POP POP SWAP1 POP JUMPDEST POP SWAP1 POP PUSH0 DUP1 PUSH1 0x1 SWAP1 POP JUMPDEST PUSH1 0xE SLOAD DUP2 GT PUSH2 0x22C2 JUMPI PUSH0 PUSH20 0xFFFFFFFFFFFFFFFFFFFFFFFFFFFFFFFFFFFFFFFF AND PUSH2 0x220F DUP3 PUSH2 0x1701 JUMP JUMPDEST PUSH20 0xFFFFFFFFFFFFFFFFFFFFFFFFFFFFFFFFFFFFFFFF AND EQ PUSH2 0x22AF JUMPI PUSH2 0x2233 DUP2 PUSH2 0x1701 JUMP JUMPDEST DUP5 DUP4 DUP2 MLOAD DUP2 LT PUSH2 0x2246 JUMPI PUSH2 0x2245 PUSH2 0x4918 JUMP JUMPDEST JUMPDEST PUSH1 0x20 MUL PUSH1 0x20 ADD ADD SWAP1 PUSH20 0xFFFFFFFFFFFFFFFFFFFFFFFFFFFFFFFFFFFFFFFF AND SWAP1 DUP2 PUSH20 0xFFFFFFFFFFFFFFFFFFFFFFFFFFFFFFFFFFFFFFFF AND DUP2 MSTORE POP POP DUP1 DUP4 DUP4 DUP2 MLOAD DUP2 LT PUSH2 0x2294 JUMPI PUSH2 0x2293 PUSH2 0x4918 JUMP JUMPDEST JUMPDEST PUSH1 0x20 MUL PUSH1 0x20 ADD ADD DUP2 DUP2 MSTORE POP POP DUP2 DUP1 PUSH2 0x22AB SWAP1 PUSH2 0x4945 JUMP JUMPDEST SWAP3 POP POP JUMPDEST DUP1 DUP1 PUSH2 0x22BA SWAP1 PUSH2 0x4945 JUMP JUMPDEST SWAP2 POP POP PUSH2 0x21E6 JUMP JUMPDEST POP DUP1 PUSH8 0xFFFFFFFFFFFFFFFF DUP2 GT ISZERO PUSH2 0x22DD JUMPI PUSH2 0x22DC PUSH2 0x40A6 JUMP JUMPDEST JUMPDEST PUSH1 0x40 MLOAD SWAP1 DUP1 DUP3 MSTORE DUP1 PUSH1 0x20 MUL PUSH1 0x20 ADD DUP3 ADD PUSH1 0x40 MSTORE DUP1 ISZERO PUSH2 0x230B JUMPI DUP2 PUSH1 0x20 ADD PUSH1 0x20 DUP3 MUL DUP1 CALLDATASIZE DUP4 CALLDATACOPY DUP1 DUP3 ADD SWAP2 POP POP SWAP1 POP JUMPDEST POP SWAP5 POP DUP1 PUSH8 0xFFFFFFFFFFFFFFFF DUP2 GT ISZERO PUSH2 0x2328 JUMPI PUSH2 0x2327 PUSH2 0x40A6 JUMP JUMPDEST JUMPDEST PUSH1 0x40 MLOAD SWAP1 DUP1 DUP3 MSTORE DUP1 PUSH1 0x20 MUL PUSH1 0x20 ADD DUP3 ADD PUSH1 0x40 MSTORE DUP1 ISZERO PUSH2 0x2356 JUMPI DUP2 PUSH1 0x20 ADD PUSH1 0x20 DUP3 MUL DUP1 CALLDATASIZE DUP4 CALLDATACOPY DUP1 DUP3 ADD SWAP2 POP POP SWAP1 POP JUMPDEST POP SWAP4 POP PUSH0 JUMPDEST DUP2 DUP2 LT ISZERO PUSH2 0x2418 JUMPI DUP4 DUP2 DUP2 MLOAD DUP2 LT PUSH2 0x2376 JUMPI PUSH2 0x2375 PUSH2 0x4918 JUMP JUMPDEST JUMPDEST PUSH1 0x20 MUL PUSH1 0x20 ADD ADD MLOAD DUP7 DUP3 DUP2 MLOAD DUP2 LT PUSH2 0x2391 JUMPI PUSH2 0x2390 PUSH2 0x4918 JUMP JUMPDEST JUMPDEST PUSH1 0x20 MUL PUSH1 0x20 ADD ADD SWAP1 PUSH20 0xFFFFFFFFFFFFFFFFFFFFFFFFFFFFFFFFFFFFFFFF AND SWAP1 DUP2 PUSH20 0xFFFFFFFFFFFFFFFFFFFFFFFFFFFFFFFFFFFFFFFF AND DUP2 MSTORE POP POP DUP3 DUP2 DUP2 MLOAD DUP2 LT PUSH2 0x23DE JUMPI PUSH2 0x23DD PUSH2 0x4918 JUMP JUMPDEST JUMPDEST PUSH1 0x20 MUL PUSH1 0x20 ADD ADD MLOAD DUP6 DUP3 DUP2 MLOAD DUP2 LT PUSH2 0x23F9 JUMPI PUSH2 0x23F8 PUSH2 0x4918 JUMP JUMPDEST JUMPDEST PUSH1 0x20 MUL PUSH1 0x20 ADD ADD DUP2 DUP2 MSTORE POP POP DUP1 DUP1 PUSH2 0x2410 SWAP1 PUSH2 0x4945 JUMP JUMPDEST SWAP2 POP POP PUSH2 0x235B JUMP JUMPDEST POP POP POP POP SWAP1 SWAP2 JUMP JUMPDEST PUSH1 0x60 PUSH0 DUP1 PUSH0 PUSH1 0x8 PUSH0 ADD PUSH1 0x8 PUSH1 0x1 ADD SLOAD PUSH1 0x8 PUSH1 0x2 ADD SLOAD PUSH1 0x8 PUSH1 0x3 ADD SLOAD DUP4 DUP1 SLOAD PUSH2 0x2447 SWAP1 PUSH2 0x443A JUMP JUMPDEST DUP1 PUSH1 0x1F ADD PUSH1 0x20 DUP1 SWAP2 DIV MUL PUSH1 0x20 ADD PUSH1 0x40 MLOAD SWAP1 DUP2 ADD PUSH1 0x40 MSTORE DUP1 SWAP3 SWAP2 SWAP1 DUP2 DUP2 MSTORE PUSH1 0x20 ADD DUP3 DUP1 SLOAD PUSH2 0x2473 SWAP1 PUSH2 0x443A JUMP JUMPDEST DUP1 ISZERO PUSH2 0x24BE JUMPI DUP1 PUSH1 0x1F LT PUSH2 0x2495 JUMPI PUSH2 0x100 DUP1 DUP4 SLOAD DIV MUL DUP4 MSTORE SWAP2 PUSH1 0x20 ADD SWAP2 PUSH2 0x24BE JUMP JUMPDEST DUP3 ADD SWAP2 SWAP1 PUSH0 MSTORE PUSH1 0x20 PUSH0 KECCAK256 SWAP1 JUMPDEST DUP2 SLOAD DUP2 MSTORE SWAP1 PUSH1 0x1 ADD SWAP1 PUSH1 0x20 ADD DUP1 DUP4 GT PUSH2 0x24A1 JUMPI DUP3 SWAP1 SUB PUSH1 0x1F AND DUP3 ADD SWAP2 JUMPDEST POP POP POP POP POP SWAP4 POP SWAP4 POP SWAP4 POP SWAP4 POP SWAP4 POP SWAP1 SWAP2 SWAP3 SWAP4 JUMP JUMPDEST PUSH0 PUSH1 0x5 PUSH0 DUP5 PUSH20 0xFFFFFFFFFFFFFFFFFFFFFFFFFFFFFFFFFFFFFFFF AND PUSH20 0xFFFFFFFFFFFFFFFFFFFFFFFFFFFFFFFFFFFFFFFF AND DUP2 MSTORE PUSH1 0x20 ADD SWAP1 DUP2 MSTORE PUSH1 0x20 ADD PUSH0 KECCAK256 PUSH0 DUP4 PUSH20 0xFFFFFFFFFFFFFFFFFFFFFFFFFFFFFFFFFFFFFFFF AND PUSH20 0xFFFFFFFFFFFFFFFFFFFFFFFFFFFFFFFFFFFFFFFF AND DUP2 MSTORE PUSH1 0x20 ADD SWAP1 DUP2 MSTORE PUSH1 0x20 ADD PUSH0 KECCAK256 PUSH0 SWAP1 SLOAD SWAP1 PUSH2 0x100 EXP SWAP1 DIV PUSH1 0xFF AND SWAP1 POP SWAP3 SWAP2 POP POP JUMP JUMPDEST PUSH2 0x2569 PUSH2 0x2BB9 JUMP JUMPDEST PUSH0 PUSH20 0xFFFFFFFFFFFFFFFFFFFFFFFFFFFFFFFFFFFFFFFF AND DUP2 PUSH20 0xFFFFFFFFFFFFFFFFFFFFFFFFFFFFFFFFFFFFFFFF AND SUB PUSH2 0x25D9 JUMPI PUSH0 PUSH1 0x40 MLOAD PUSH32 0x1E4FBDF700000000000000000000000000000000000000000000000000000000 DUP2 MSTORE PUSH1 0x4 ADD PUSH2 0x25D0 SWAP2 SWAP1 PUSH2 0x3BD4 JUMP JUMPDEST PUSH1 0x40 MLOAD DUP1 SWAP2 SUB SWAP1 REVERT JUMPDEST PUSH2 0x25E2 DUP2 PUSH2 0x3078 JUMP JUMPDEST POP JUMP JUMPDEST PUSH0 DUP1 PUSH0 SWAP1 POP JUMPDEST PUSH1 0x13 DUP1 SLOAD SWAP1 POP DUP2 LT ISZERO PUSH2 0x2683 JUMPI DUP3 PUSH20 0xFFFFFFFFFFFFFFFFFFFFFFFFFFFFFFFFFFFFFFFF AND PUSH1 0x13 DUP3 DUP2 SLOAD DUP2 LT PUSH2 0x2623 JUMPI PUSH2 0x2622 PUSH2 0x4918 JUMP JUMPDEST JUMPDEST SWAP1 PUSH0 MSTORE PUSH1 0x20 PUSH0 KECCAK256 ADD PUSH0 SWAP1 SLOAD SWAP1 PUSH2 0x100 EXP SWAP1 DIV PUSH20 0xFFFFFFFFFFFFFFFFFFFFFFFFFFFFFFFFFFFFFFFF AND PUSH20 0xFFFFFFFFFFFFFFFFFFFFFFFFFFFFFFFFFFFFFFFF AND SUB PUSH2 0x2670 JUMPI PUSH1 0x1 SWAP2 POP POP PUSH2 0x2688 JUMP JUMPDEST DUP1 DUP1 PUSH2 0x267B SWAP1 PUSH2 0x4945 JUMP JUMPDEST SWAP2 POP POP PUSH2 0x25EB JUMP JUMPDEST POP PUSH0 SWAP1 POP JUMPDEST SWAP2 SWAP1 POP JUMP JUMPDEST PUSH0 PUSH32 0x80AC58CD00000000000000000000000000000000000000000000000000000000 PUSH28 0xFFFFFFFFFFFFFFFFFFFFFFFFFFFFFFFFFFFFFFFFFFFFFFFFFFFFFFFF NOT AND DUP3 PUSH28 0xFFFFFFFFFFFFFFFFFFFFFFFFFFFFFFFFFFFFFFFFFFFFFFFFFFFFFFFF NOT AND EQ DUP1 PUSH2 0x2757 JUMPI POP PUSH32 0x5B5E139F00000000000000000000000000000000000000000000000000000000 PUSH28 0xFFFFFFFFFFFFFFFFFFFFFFFFFFFFFFFFFFFFFFFFFFFFFFFFFFFFFFFF NOT AND DUP3 PUSH28 0xFFFFFFFFFFFFFFFFFFFFFFFFFFFFFFFFFFFFFFFFFFFFFFFFFFFFFFFF NOT AND EQ JUMPDEST DUP1 PUSH2 0x2767 JUMPI POP PUSH2 0x2766 DUP3 PUSH2 0x34D2 JUMP JUMPDEST JUMPDEST SWAP1 POP SWAP2 SWAP1 POP JUMP JUMPDEST PUSH0 DUP1 PUSH2 0x2779 DUP4 PUSH2 0x353B JUMP JUMPDEST SWAP1 POP PUSH0 PUSH20 0xFFFFFFFFFFFFFFFFFFFFFFFFFFFFFFFFFFFFFFFF AND DUP2 PUSH20 0xFFFFFFFFFFFFFFFFFFFFFFFFFFFFFFFFFFFFFFFF AND SUB PUSH2 0x27EB JUMPI DUP3 PUSH1 0x40 MLOAD PUSH32 0x7E27328900000000000000000000000000000000000000000000000000000000 DUP2 MSTORE PUSH1 0x4 ADD PUSH2 0x27E2 SWAP2 SWAP1 PUSH2 0x3E51 JUMP JUMPDEST PUSH1 0x40 MLOAD DUP1 SWAP2 SUB SWAP1 REVERT JUMPDEST DUP1 SWAP2 POP POP SWAP2 SWAP1 POP JUMP JUMPDEST PUSH0 PUSH1 0x4 PUSH0 DUP4 DUP2 MSTORE PUSH1 0x20 ADD SWAP1 DUP2 MSTORE PUSH1 0x20 ADD PUSH0 KECCAK256 PUSH0 SWAP1 SLOAD SWAP1 PUSH2 0x100 EXP SWAP1 DIV PUSH20 0xFFFFFFFFFFFFFFFFFFFFFFFFFFFFFFFFFFFFFFFF AND SWAP1 POP SWAP2 SWAP1 POP JUMP JUMPDEST PUSH0 CALLER SWAP1 POP SWAP1 JUMP JUMPDEST PUSH2 0x2841 DUP4 DUP4 DUP4 PUSH1 0x1 PUSH2 0x3574 JUMP JUMPDEST POP POP POP JUMP JUMPDEST PUSH0 DUP1 PUSH2 0x2851 DUP5 PUSH2 0x353B JUMP JUMPDEST SWAP1 POP PUSH0 PUSH20 0xFFFFFFFFFFFFFFFFFFFFFFFFFFFFFFFFFFFFFFFF AND DUP4 PUSH20 0xFFFFFFFFFFFFFFFFFFFFFFFFFFFFFFFFFFFFFFFF AND EQ PUSH2 0x2892 JUMPI PUSH2 0x2891 DUP2 DUP5 DUP7 PUSH2 0x3733 JUMP JUMPDEST JUMPDEST PUSH0 PUSH20 0xFFFFFFFFFFFFFFFFFFFFFFFFFFFFFFFFFFFFFFFF AND DUP2 PUSH20 0xFFFFFFFFFFFFFFFFFFFFFFFFFFFFFFFFFFFFFFFF AND EQ PUSH2 0x291D JUMPI PUSH2 0x28D1 PUSH0 DUP6 PUSH0 DUP1 PUSH2 0x3574 JUMP JUMPDEST PUSH1 0x1 PUSH1 0x3 PUSH0 DUP4 PUSH20 0xFFFFFFFFFFFFFFFFFFFFFFFFFFFFFFFFFFFFFFFF AND PUSH20 0xFFFFFFFFFFFFFFFFFFFFFFFFFFFFFFFFFFFFFFFF AND DUP2 MSTORE PUSH1 0x20 ADD SWAP1 DUP2 MSTORE PUSH1 0x20 ADD PUSH0 KECCAK256 PUSH0 DUP3 DUP3 SLOAD SUB SWAP3 POP POP DUP2 SWAP1 SSTORE POP JUMPDEST PUSH0 PUSH20 0xFFFFFFFFFFFFFFFFFFFFFFFFFFFFFFFFFFFFFFFF AND DUP6 PUSH20 0xFFFFFFFFFFFFFFFFFFFFFFFFFFFFFFFFFFFFFFFF AND EQ PUSH2 0x299C JUMPI PUSH1 0x1 PUSH1 0x3 PUSH0 DUP8 PUSH20 0xFFFFFFFFFFFFFFFFFFFFFFFFFFFFFFFFFFFFFFFF AND PUSH20 0xFFFFFFFFFFFFFFFFFFFFFFFFFFFFFFFFFFFFFFFF AND DUP2 MSTORE PUSH1 0x20 ADD SWAP1 DUP2 MSTORE PUSH1 0x20 ADD PUSH0 KECCAK256 PUSH0 DUP3 DUP3 SLOAD ADD SWAP3 POP POP DUP2 SWAP1 SSTORE POP JUMPDEST DUP5 PUSH1 0x2 PUSH0 DUP7 DUP2 MSTORE PUSH1 0x20 ADD SWAP1 DUP2 MSTORE PUSH1 0x20 ADD PUSH0 KECCAK256 PUSH0 PUSH2 0x100 EXP DUP2 SLOAD DUP2 PUSH20 0xFFFFFFFFFFFFFFFFFFFFFFFFFFFFFFFFFFFFFFFF MUL NOT AND SWAP1 DUP4 PUSH20 0xFFFFFFFFFFFFFFFFFFFFFFFFFFFFFFFFFFFFFFFF AND MUL OR SWAP1 SSTORE POP DUP4 DUP6 PUSH20 0xFFFFFFFFFFFFFFFFFFFFFFFFFFFFFFFFFFFFFFFF AND DUP3 PUSH20 0xFFFFFFFFFFFFFFFFFFFFFFFFFFFFFFFFFFFFFFFF AND PUSH32 0xDDF252AD1BE2C89B69C2B068FC378DAA952BA7F163C4A11628F55A4DF523B3EF PUSH1 0x40 MLOAD PUSH1 0x40 MLOAD DUP1 SWAP2 SUB SWAP1 LOG4 DUP1 SWAP2 POP POP SWAP4 SWAP3 POP POP POP JUMP JUMPDEST PUSH0 PUSH20 0xFFFFFFFFFFFFFFFFFFFFFFFFFFFFFFFFFFFFFFFF AND DUP3 PUSH20 0xFFFFFFFFFFFFFFFFFFFFFFFFFFFFFFFFFFFFFFFF AND SUB PUSH2 0x2AC1 JUMPI PUSH0 PUSH1 0x40 MLOAD PUSH32 0x64A0AE9200000000000000000000000000000000000000000000000000000000 DUP2 MSTORE PUSH1 0x4 ADD PUSH2 0x2AB8 SWAP2 SWAP1 PUSH2 0x3BD4 JUMP JUMPDEST PUSH1 0x40 MLOAD DUP1 SWAP2 SUB SWAP1 REVERT JUMPDEST PUSH0 PUSH2 0x2ACD DUP4 DUP4 PUSH0 PUSH2 0x2846 JUMP JUMPDEST SWAP1 POP PUSH0 PUSH20 0xFFFFFFFFFFFFFFFFFFFFFFFFFFFFFFFFFFFFFFFF AND DUP2 PUSH20 0xFFFFFFFFFFFFFFFFFFFFFFFFFFFFFFFFFFFFFFFF AND SUB PUSH2 0x2B3F JUMPI DUP2 PUSH1 0x40 MLOAD PUSH32 0x7E27328900000000000000000000000000000000000000000000000000000000 DUP2 MSTORE PUSH1 0x4 ADD PUSH2 0x2B36 SWAP2 SWAP1 PUSH2 0x3E51 JUMP JUMPDEST PUSH1 0x40 MLOAD DUP1 SWAP2 SUB SWAP1 REVERT JUMPDEST DUP4 PUSH20 0xFFFFFFFFFFFFFFFFFFFFFFFFFFFFFFFFFFFFFFFF AND DUP2 PUSH20 0xFFFFFFFFFFFFFFFFFFFFFFFFFFFFFFFFFFFFFFFF AND EQ PUSH2 0x2BB3 JUMPI DUP4 DUP3 DUP3 PUSH1 0x40 MLOAD PUSH32 0x64283D7B00000000000000000000000000000000000000000000000000000000 DUP2 MSTORE PUSH1 0x4 ADD PUSH2 0x2BAA SWAP4 SWAP3 SWAP2 SWAP1 PUSH2 0x446A JUMP JUMPDEST PUSH1 0x40 MLOAD DUP1 SWAP2 SUB SWAP1 REVERT JUMPDEST POP POP POP POP JUMP JUMPDEST PUSH2 0x2BC1 PUSH2 0x282D JUMP JUMPDEST PUSH20 0xFFFFFFFFFFFFFFFFFFFFFFFFFFFFFFFFFFFFFFFF AND PUSH2 0x2BDF PUSH2 0x18E5 JUMP JUMPDEST PUSH20 0xFFFFFFFFFFFFFFFFFFFFFFFFFFFFFFFFFFFFFFFF AND EQ PUSH2 0x2C3E JUMPI PUSH2 0x2C02 PUSH2 0x282D JUMP JUMPDEST PUSH1 0x40 MLOAD PUSH32 0x118CDAA700000000000000000000000000000000000000000000000000000000 DUP2 MSTORE PUSH1 0x4 ADD PUSH2 0x2C35 SWAP2 SWAP1 PUSH2 0x3BD4 JUMP JUMPDEST PUSH1 0x40 MLOAD DUP1 SWAP2 SUB SWAP1 REVERT JUMPDEST JUMP JUMPDEST PUSH1 0x60 PUSH0 DUP3 SUB PUSH2 0x2C86 JUMPI PUSH1 0x40 MLOAD DUP1 PUSH1 0x40 ADD PUSH1 0x40 MSTORE DUP1 PUSH1 0x1 DUP2 MSTORE PUSH1 0x20 ADD PUSH32 0x3000000000000000000000000000000000000000000000000000000000000000 DUP2 MSTORE POP SWAP1 POP PUSH2 0x2DB9 JUMP JUMPDEST PUSH0 DUP3 SWAP1 POP PUSH0 JUMPDEST PUSH0 DUP3 EQ PUSH2 0x2CB5 JUMPI DUP1 DUP1 PUSH2 0x2C9E SWAP1 PUSH2 0x4945 JUMP JUMPDEST SWAP2 POP POP PUSH1 0xA DUP3 PUSH2 0x2CAE SWAP2 SWAP1 PUSH2 0x49E0 JUMP JUMPDEST SWAP2 POP PUSH2 0x2C8C JUMP JUMPDEST PUSH0 DUP2 PUSH8 0xFFFFFFFFFFFFFFFF DUP2 GT ISZERO PUSH2 0x2CD0 JUMPI PUSH2 0x2CCF PUSH2 0x40A6 JUMP JUMPDEST JUMPDEST PUSH1 0x40 MLOAD SWAP1 DUP1 DUP3 MSTORE DUP1 PUSH1 0x1F ADD PUSH1 0x1F NOT AND PUSH1 0x20 ADD DUP3 ADD PUSH1 0x40 MSTORE DUP1 ISZERO PUSH2 0x2D02 JUMPI DUP2 PUSH1 0x20 ADD PUSH1 0x1 DUP3 MUL DUP1 CALLDATASIZE DUP4 CALLDATACOPY DUP1 DUP3 ADD SWAP2 POP POP SWAP1 POP JUMPDEST POP SWAP1 POP PUSH0 DUP3 SWAP1 POP JUMPDEST PUSH0 DUP7 EQ PUSH2 0x2DB1 JUMPI PUSH1 0x1 DUP2 PUSH2 0x2D1E SWAP2 SWAP1 PUSH2 0x4A10 JUMP JUMPDEST SWAP1 POP PUSH0 PUSH1 0xA DUP1 DUP9 PUSH2 0x2D2F SWAP2 SWAP1 PUSH2 0x49E0 JUMP JUMPDEST PUSH2 0x2D39 SWAP2 SWAP1 PUSH2 0x46FA JUMP JUMPDEST DUP8 PUSH2 0x2D44 SWAP2 SWAP1 PUSH2 0x4A10 JUMP JUMPDEST PUSH1 0x30 PUSH2 0x2D50 SWAP2 SWAP1 PUSH2 0x515F JUMP JUMPDEST SWAP1 POP PUSH0 DUP2 PUSH1 0xF8 SHL SWAP1 POP DUP1 DUP5 DUP5 DUP2 MLOAD DUP2 LT PUSH2 0x2D6D JUMPI PUSH2 0x2D6C PUSH2 0x4918 JUMP JUMPDEST JUMPDEST PUSH1 0x20 ADD ADD SWAP1 PUSH31 0xFFFFFFFFFFFFFFFFFFFFFFFFFFFFFFFFFFFFFFFFFFFFFFFFFFFFFFFFFFFFFF NOT AND SWAP1 DUP2 PUSH0 BYTE SWAP1 MSTORE8 POP PUSH1 0xA DUP9 PUSH2 0x2DA8 SWAP2 SWAP1 PUSH2 0x49E0 JUMP JUMPDEST SWAP8 POP POP POP PUSH2 0x2D0A JUMP JUMPDEST DUP2 SWAP5 POP POP POP POP POP JUMPDEST SWAP2 SWAP1 POP JUMP JUMPDEST PUSH1 0x60 PUSH0 DUP3 MLOAD SUB PUSH2 0x2DDE JUMPI PUSH1 0x40 MLOAD DUP1 PUSH1 0x20 ADD PUSH1 0x40 MSTORE DUP1 PUSH0 DUP2 MSTORE POP SWAP1 POP PUSH2 0x2F26 JUMP JUMPDEST PUSH0 PUSH1 0x40 MLOAD DUP1 PUSH1 0x60 ADD PUSH1 0x40 MSTORE DUP1 PUSH1 0x40 DUP2 MSTORE PUSH1 0x20 ADD PUSH2 0x54C0 PUSH1 0x40 SWAP2 CODECOPY SWAP1 POP PUSH0 PUSH1 0x3 PUSH1 0x2 DUP6 MLOAD PUSH2 0x2E0B SWAP2 SWAP1 PUSH2 0x48E5 JUMP JUMPDEST PUSH2 0x2E15 SWAP2 SWAP1 PUSH2 0x49E0 JUMP JUMPDEST PUSH1 0x4 PUSH2 0x2E21 SWAP2 SWAP1 PUSH2 0x46FA JUMP JUMPDEST PUSH8 0xFFFFFFFFFFFFFFFF DUP2 GT ISZERO PUSH2 0x2E3A JUMPI PUSH2 0x2E39 PUSH2 0x40A6 JUMP JUMPDEST JUMPDEST PUSH1 0x40 MLOAD SWAP1 DUP1 DUP3 MSTORE DUP1 PUSH1 0x1F ADD PUSH1 0x1F NOT AND PUSH1 0x20 ADD DUP3 ADD PUSH1 0x40 MSTORE DUP1 ISZERO PUSH2 0x2E6C JUMPI DUP2 PUSH1 0x20 ADD PUSH1 0x1 DUP3 MUL DUP1 CALLDATASIZE DUP4 CALLDATACOPY DUP1 DUP3 ADD SWAP2 POP POP SWAP1 POP JUMPDEST POP SWAP1 POP PUSH1 0x1 DUP3 ADD PUSH1 0x20 DUP3 ADD DUP6 DUP7 MLOAD DUP8 ADD PUSH1 0x20 DUP2 ADD DUP1 MLOAD PUSH0 DUP3 MSTORE JUMPDEST DUP3 DUP5 LT ISZERO PUSH2 0x2EE1 JUMPI PUSH1 0x3 DUP5 ADD SWAP4 POP DUP4 MLOAD PUSH1 0x3F DUP2 PUSH1 0x12 SHR AND DUP8 ADD MLOAD DUP7 MSTORE8 PUSH1 0x1 DUP7 ADD SWAP6 POP PUSH1 0x3F DUP2 PUSH1 0xC SHR AND DUP8 ADD MLOAD DUP7 MSTORE8 PUSH1 0x1 DUP7 ADD SWAP6 POP PUSH1 0x3F DUP2 PUSH1 0x6 SHR AND DUP8 ADD MLOAD DUP7 MSTORE8 PUSH1 0x1 DUP7 ADD SWAP6 POP PUSH1 0x3F DUP2 AND DUP8 ADD MLOAD DUP7 MSTORE8 PUSH1 0x1 DUP7 ADD SWAP6 POP POP PUSH2 0x2E86 JUMP JUMPDEST DUP1 DUP3 MSTORE PUSH1 0x3 DUP11 MLOAD MOD PUSH1 0x1 DUP2 EQ PUSH2 0x2EFE JUMPI PUSH1 0x2 DUP2 EQ PUSH2 0x2F11 JUMPI PUSH2 0x2F19 JUMP JUMPDEST PUSH1 0x3D PUSH1 0x1 DUP8 SUB MSTORE8 PUSH1 0x3D PUSH1 0x2 DUP8 SUB MSTORE8 PUSH2 0x2F19 JUMP JUMPDEST PUSH1 0x3D PUSH1 0x1 DUP8 SUB MSTORE8 JUMPDEST POP POP POP POP POP POP POP DUP1 SWAP3 POP POP POP JUMPDEST SWAP2 SWAP1 POP JUMP JUMPDEST PUSH0 PUSH20 0xFFFFFFFFFFFFFFFFFFFFFFFFFFFFFFFFFFFFFFFF AND DUP3 PUSH20 0xFFFFFFFFFFFFFFFFFFFFFFFFFFFFFFFFFFFFFFFF AND SUB PUSH2 0x2F9B JUMPI PUSH0 PUSH1 0x40 MLOAD PUSH32 0x64A0AE9200000000000000000000000000000000000000000000000000000000 DUP2 MSTORE PUSH1 0x4 ADD PUSH2 0x2F92 SWAP2 SWAP1 PUSH2 0x3BD4 JUMP JUMPDEST PUSH1 0x40 MLOAD DUP1 SWAP2 SUB SWAP1 REVERT JUMPDEST PUSH0 PUSH2 0x2FA7 DUP4 DUP4 PUSH0 PUSH2 0x2846 JUMP JUMPDEST SWAP1 POP PUSH0 PUSH20 0xFFFFFFFFFFFFFFFFFFFFFFFFFFFFFFFFFFFFFFFF AND DUP2 PUSH20 0xFFFFFFFFFFFFFFFFFFFFFFFFFFFFFFFFFFFFFFFF AND EQ PUSH2 0x3019 JUMPI PUSH0 PUSH1 0x40 MLOAD PUSH32 0x73C6AC6E00000000000000000000000000000000000000000000000000000000 DUP2 MSTORE PUSH1 0x4 ADD PUSH2 0x3010 SWAP2 SWAP1 PUSH2 0x3BD4 JUMP JUMPDEST PUSH1 0x40 MLOAD DUP1 SWAP2 SUB SWAP1 REVERT JUMPDEST POP POP POP JUMP JUMPDEST DUP1 PUSH1 0x6 PUSH0 DUP5 DUP2 MSTORE PUSH1 0x20 ADD SWAP1 DUP2 MSTORE PUSH1 0x20 ADD PUSH0 KECCAK256 SWAP1 DUP2 PUSH2 0x303C SWAP2 SWAP1 PUSH2 0x5315 JUMP JUMPDEST POP PUSH32 0xF8E1A15ABA9398E019F0B49DF1A4FDE98EE17AE345CB5F6B5E2C27F5033E8CE7 DUP3 PUSH1 0x40 MLOAD PUSH2 0x306C SWAP2 SWAP1 PUSH2 0x3E51 JUMP JUMPDEST PUSH1 0x40 MLOAD DUP1 SWAP2 SUB SWAP1 LOG1 POP POP JUMP JUMPDEST PUSH0 PUSH1 0x7 PUSH0 SWAP1 SLOAD SWAP1 PUSH2 0x100 EXP SWAP1 DIV PUSH20 0xFFFFFFFFFFFFFFFFFFFFFFFFFFFFFFFFFFFFFFFF AND SWAP1 POP DUP2 PUSH1 0x7 PUSH0 PUSH2 0x100 EXP DUP2 SLOAD DUP2 PUSH20 0xFFFFFFFFFFFFFFFFFFFFFFFFFFFFFFFFFFFFFFFF MUL NOT AND SWAP1 DUP4 PUSH20 0xFFFFFFFFFFFFFFFFFFFFFFFFFFFFFFFFFFFFFFFF AND MUL OR SWAP1 SSTORE POP DUP2 PUSH20 0xFFFFFFFFFFFFFFFFFFFFFFFFFFFFFFFFFFFFFFFF AND DUP2 PUSH20 0xFFFFFFFFFFFFFFFFFFFFFFFFFFFFFFFFFFFFFFFF AND PUSH32 0x8BE0079C531659141344CD1FD0A4F28419497F9722A3DAAFE3B4186F6B6457E0 PUSH1 0x40 MLOAD PUSH1 0x40 MLOAD DUP1 SWAP2 SUB SWAP1 LOG3 POP POP JUMP JUMPDEST PUSH0 PUSH20 0xFFFFFFFFFFFFFFFFFFFFFFFFFFFFFFFFFFFFFFFF AND DUP3 PUSH20 0xFFFFFFFFFFFFFFFFFFFFFFFFFFFFFFFFFFFFFFFF AND SUB PUSH2 0x31AB JUMPI DUP2 PUSH1 0x40 MLOAD PUSH32 0x5B08BA1800000000000000000000000000000000000000000000000000000000 DUP2 MSTORE PUSH1 0x4 ADD PUSH2 0x31A2 SWAP2 SWAP1 PUSH2 0x3BD4 JUMP JUMPDEST PUSH1 0x40 MLOAD DUP1 SWAP2 SUB SWAP1 REVERT JUMPDEST DUP1 PUSH1 0x5 PUSH0 DUP6 PUSH20 0xFFFFFFFFFFFFFFFFFFFFFFFFFFFFFFFFFFFFFFFF AND PUSH20 0xFFFFFFFFFFFFFFFFFFFFFFFFFFFFFFFFFFFFFFFF AND DUP2 MSTORE PUSH1 0x20 ADD SWAP1 DUP2 MSTORE PUSH1 0x20 ADD PUSH0 KECCAK256 PUSH0 DUP5 PUSH20 0xFFFFFFFFFFFFFFFFFFFFFFFFFFFFFFFFFFFFFFFF AND PUSH20 0xFFFFFFFFFFFFFFFFFFFFFFFFFFFFFFFFFFFFFFFF AND DUP2 MSTORE PUSH1 0x20 ADD SWAP1 DUP2 MSTORE PUSH1 0x20 ADD PUSH0 KECCAK256 PUSH0 PUSH2 0x100 EXP DUP2 SLOAD DUP2 PUSH1 0xFF MUL NOT AND SWAP1 DUP4 ISZERO ISZERO MUL OR SWAP1 SSTORE POP DUP2 PUSH20 0xFFFFFFFFFFFFFFFFFFFFFFFFFFFFFFFFFFFFFFFF AND DUP4 PUSH20 0xFFFFFFFFFFFFFFFFFFFFFFFFFFFFFFFFFFFFFFFF AND PUSH32 0x17307EAB39AB6107E8899845AD3D59BD9653F200F220920489CA2B5937696C31 DUP4 PUSH1 0x40 MLOAD PUSH2 0x3297 SWAP2 SWAP1 PUSH2 0x3B7C JUMP JUMPDEST PUSH1 0x40 MLOAD DUP1 SWAP2 SUB SWAP1 LOG3 POP POP POP JUMP JUMPDEST PUSH0 DUP4 PUSH20 0xFFFFFFFFFFFFFFFFFFFFFFFFFFFFFFFFFFFFFFFF AND EXTCODESIZE GT ISZERO PUSH2 0x3450 JUMPI DUP3 PUSH20 0xFFFFFFFFFFFFFFFFFFFFFFFFFFFFFFFFFFFFFFFF AND PUSH4 0x150B7A02 PUSH2 0x32E7 PUSH2 0x282D JUMP JUMPDEST DUP7 DUP6 DUP6 PUSH1 0x40 MLOAD DUP6 PUSH4 0xFFFFFFFF AND PUSH1 0xE0 SHL DUP2 MSTORE PUSH1 0x4 ADD PUSH2 0x3309 SWAP5 SWAP4 SWAP3 SWAP2 SWAP1 PUSH2 0x5436 JUMP JUMPDEST PUSH1 0x20 PUSH1 0x40 MLOAD DUP1 DUP4 SUB DUP2 PUSH0 DUP8 GAS CALL SWAP3 POP POP POP DUP1 ISZERO PUSH2 0x3344 JUMPI POP PUSH1 0x40 MLOAD RETURNDATASIZE PUSH1 0x1F NOT PUSH1 0x1F DUP3 ADD AND DUP3 ADD DUP1 PUSH1 0x40 MSTORE POP DUP2 ADD SWAP1 PUSH2 0x3341 SWAP2 SWAP1 PUSH2 0x5494 JUMP JUMPDEST PUSH1 0x1 JUMPDEST PUSH2 0x33C5 JUMPI RETURNDATASIZE DUP1 PUSH0 DUP2 EQ PUSH2 0x3372 JUMPI PUSH1 0x40 MLOAD SWAP2 POP PUSH1 0x1F NOT PUSH1 0x3F RETURNDATASIZE ADD AND DUP3 ADD PUSH1 0x40 MSTORE RETURNDATASIZE DUP3 MSTORE RETURNDATASIZE PUSH0 PUSH1 0x20 DUP5 ADD RETURNDATACOPY PUSH2 0x3377 JUMP JUMPDEST PUSH1 0x60 SWAP2 POP JUMPDEST POP PUSH0 DUP2 MLOAD SUB PUSH2 0x33BD JUMPI DUP4 PUSH1 0x40 MLOAD PUSH32 0x64A0AE9200000000000000000000000000000000000000000000000000000000 DUP2 MSTORE PUSH1 0x4 ADD PUSH2 0x33B4 SWAP2 SWAP1 PUSH2 0x3BD4 JUMP JUMPDEST PUSH1 0x40 MLOAD DUP1 SWAP2 SUB SWAP1 REVERT JUMPDEST DUP1 MLOAD DUP2 PUSH1 0x20 ADD REVERT JUMPDEST PUSH4 0x150B7A02 PUSH1 0xE0 SHL PUSH28 0xFFFFFFFFFFFFFFFFFFFFFFFFFFFFFFFFFFFFFFFFFFFFFFFFFFFFFFFF NOT AND DUP2 PUSH28 0xFFFFFFFFFFFFFFFFFFFFFFFFFFFFFFFFFFFFFFFFFFFFFFFFFFFFFFFF NOT AND EQ PUSH2 0x344E JUMPI DUP4 PUSH1 0x40 MLOAD PUSH32 0x64A0AE9200000000000000000000000000000000000000000000000000000000 DUP2 MSTORE PUSH1 0x4 ADD PUSH2 0x3445 SWAP2 SWAP1 PUSH2 0x3BD4 JUMP JUMPDEST PUSH1 0x40 MLOAD DUP1 SWAP2 SUB SWAP1 REVERT JUMPDEST POP JUMPDEST POP POP POP POP JUMP JUMPDEST PUSH1 0x60 PUSH1 0x40 MLOAD DUP1 PUSH1 0x20 ADD PUSH1 0x40 MSTORE DUP1 PUSH0 DUP2 MSTORE POP SWAP1 POP SWAP1 JUMP JUMPDEST PUSH1 0x60 PUSH2 0x3477 DUP3 PUSH2 0x276E JUMP JUMPDEST POP PUSH0 PUSH2 0x3481 PUSH2 0x3456 JUMP JUMPDEST SWAP1 POP PUSH0 DUP2 MLOAD GT PUSH2 0x349F JUMPI PUSH1 0x40 MLOAD DUP1 PUSH1 0x20 ADD PUSH1 0x40 MSTORE DUP1 PUSH0 DUP2 MSTORE POP PUSH2 0x34CA JUMP JUMPDEST DUP1 PUSH2 0x34A9 DUP5 PUSH2 0x37F6 JUMP JUMPDEST PUSH1 0x40 MLOAD PUSH1 0x20 ADD PUSH2 0x34BA SWAP3 SWAP2 SWAP1 PUSH2 0x5130 JUMP JUMPDEST PUSH1 0x40 MLOAD PUSH1 0x20 DUP2 DUP4 SUB SUB DUP2 MSTORE SWAP1 PUSH1 0x40 MSTORE JUMPDEST SWAP2 POP POP SWAP2 SWAP1 POP JUMP JUMPDEST PUSH0 PUSH32 0x1FFC9A700000000000000000000000000000000000000000000000000000000 PUSH28 0xFFFFFFFFFFFFFFFFFFFFFFFFFFFFFFFFFFFFFFFFFFFFFFFFFFFFFFFF NOT AND DUP3 PUSH28 0xFFFFFFFFFFFFFFFFFFFFFFFFFFFFFFFFFFFFFFFFFFFFFFFFFFFFFFFF NOT AND EQ SWAP1 POP SWAP2 SWAP1 POP JUMP JUMPDEST PUSH0 PUSH1 0x2 PUSH0 DUP4 DUP2 MSTORE PUSH1 0x20 ADD SWAP1 DUP2 MSTORE PUSH1 0x20 ADD PUSH0 KECCAK256 PUSH0 SWAP1 SLOAD SWAP1 PUSH2 0x100 EXP SWAP1 DIV PUSH20 0xFFFFFFFFFFFFFFFFFFFFFFFFFFFFFFFFFFFFFFFF AND SWAP1 POP SWAP2 SWAP1 POP JUMP JUMPDEST DUP1 DUP1 PUSH2 0x35AC JUMPI POP PUSH0 PUSH20 0xFFFFFFFFFFFFFFFFFFFFFFFFFFFFFFFFFFFFFFFF AND DUP3 PUSH20 0xFFFFFFFFFFFFFFFFFFFFFFFFFFFFFFFFFFFFFFFF AND EQ ISZERO JUMPDEST ISZERO PUSH2 0x36DE JUMPI PUSH0 PUSH2 0x35BB DUP5 PUSH2 0x276E JUMP JUMPDEST SWAP1 POP PUSH0 PUSH20 0xFFFFFFFFFFFFFFFFFFFFFFFFFFFFFFFFFFFFFFFF AND DUP4 PUSH20 0xFFFFFFFFFFFFFFFFFFFFFFFFFFFFFFFFFFFFFFFF AND EQ ISZERO DUP1 ISZERO PUSH2 0x3625 JUMPI POP DUP3 PUSH20 0xFFFFFFFFFFFFFFFFFFFFFFFFFFFFFFFFFFFFFFFF AND DUP2 PUSH20 0xFFFFFFFFFFFFFFFFFFFFFFFFFFFFFFFFFFFFFFFF AND EQ ISZERO JUMPDEST DUP1 ISZERO PUSH2 0x3638 JUMPI POP PUSH2 0x3636 DUP2 DUP5 PUSH2 0x24D3 JUMP JUMPDEST ISZERO JUMPDEST ISZERO PUSH2 0x367A JUMPI DUP3 PUSH1 0x40 MLOAD PUSH32 0xA9FBF51F00000000000000000000000000000000000000000000000000000000 DUP2 MSTORE PUSH1 0x4 ADD PUSH2 0x3671 SWAP2 SWAP1 PUSH2 0x3BD4 JUMP JUMPDEST PUSH1 0x40 MLOAD DUP1 SWAP2 SUB SWAP1 REVERT JUMPDEST DUP2 ISZERO PUSH2 0x36DC JUMPI DUP4 DUP6 PUSH20 0xFFFFFFFFFFFFFFFFFFFFFFFFFFFFFFFFFFFFFFFF AND DUP3 PUSH20 0xFFFFFFFFFFFFFFFFFFFFFFFFFFFFFFFFFFFFFFFF AND PUSH32 0x8C5BE1E5EBEC7D5BD14F71427D1E84F3DD0314C0F7B2291E5B200AC8C7C3B925 PUSH1 0x40 MLOAD PUSH1 0x40 MLOAD DUP1 SWAP2 SUB SWAP1 LOG4 JUMPDEST POP JUMPDEST DUP4 PUSH1 0x4 PUSH0 DUP6 DUP2 MSTORE PUSH1 0x20 ADD SWAP1 DUP2 MSTORE PUSH1 0x20 ADD PUSH0 KECCAK256 PUSH0 PUSH2 0x100 EXP DUP2 SLOAD DUP2 PUSH20 0xFFFFFFFFFFFFFFFFFFFFFFFFFFFFFFFFFFFFFFFF MUL NOT AND SWAP1 DUP4 PUSH20 0xFFFFFFFFFFFFFFFFFFFFFFFFFFFFFFFFFFFFFFFF AND MUL OR SWAP1 SSTORE POP POP POP POP POP JUMP JUMPDEST PUSH2 0x373E DUP4 DUP4 DUP4 PUSH2 0x38C0 JUMP JUMPDEST PUSH2 0x37F1 JUMPI PUSH0 PUSH20 0xFFFFFFFFFFFFFFFFFFFFFFFFFFFFFFFFFFFFFFFF AND DUP4 PUSH20 0xFFFFFFFFFFFFFFFFFFFFFFFFFFFFFFFFFFFFFFFF AND SUB PUSH2 0x37B2 JUMPI DUP1 PUSH1 0x40 MLOAD PUSH32 0x7E27328900000000000000000000000000000000000000000000000000000000 DUP2 MSTORE PUSH1 0x4 ADD PUSH2 0x37A9 SWAP2 SWAP1 PUSH2 0x3E51 JUMP JUMPDEST PUSH1 0x40 MLOAD DUP1 SWAP2 SUB SWAP1 REVERT JUMPDEST DUP2 DUP2 PUSH1 0x40 MLOAD PUSH32 0x177E802F00000000000000000000000000000000000000000000000000000000 DUP2 MSTORE PUSH1 0x4 ADD PUSH2 0x37E8 SWAP3 SWAP2 SWAP1 PUSH2 0x3D6C JUMP JUMPDEST PUSH1 0x40 MLOAD DUP1 SWAP2 SUB SWAP1 REVERT JUMPDEST POP POP POP JUMP JUMPDEST PUSH1 0x60 PUSH0 PUSH1 0x1 PUSH2 0x3804 DUP5 PUSH2 0x3980 JUMP JUMPDEST ADD SWAP1 POP PUSH0 DUP2 PUSH8 0xFFFFFFFFFFFFFFFF DUP2 GT ISZERO PUSH2 0x3822 JUMPI PUSH2 0x3821 PUSH2 0x40A6 JUMP JUMPDEST JUMPDEST PUSH1 0x40 MLOAD SWAP1 DUP1 DUP3 MSTORE DUP1 PUSH1 0x1F ADD PUSH1 0x1F NOT AND PUSH1 0x20 ADD DUP3 ADD PUSH1 0x40 MSTORE DUP1 ISZERO PUSH2 0x3854 JUMPI DUP2 PUSH1 0x20 ADD PUSH1 0x1 DUP3 MUL DUP1 CALLDATASIZE DUP4 CALLDATACOPY DUP1 DUP3 ADD SWAP2 POP POP SWAP1 POP JUMPDEST POP SWAP1 POP PUSH0 DUP3 PUSH1 0x20 ADD DUP3 ADD SWAP1 POP JUMPDEST PUSH1 0x1 ISZERO PUSH2 0x38B5 JUMPI DUP1 DUP1 PUSH1 0x1 SWAP1 SUB SWAP2 POP POP PUSH32 0x3031323334353637383961626364656600000000000000000000000000000000 PUSH1 0xA DUP7 MOD BYTE DUP2 MSTORE8 PUSH1 0xA DUP6 DUP2 PUSH2 0x38AA JUMPI PUSH2 0x38A9 PUSH2 0x49B3 JUMP JUMPDEST JUMPDEST DIV SWAP5 POP PUSH0 DUP6 SUB PUSH2 0x3861 JUMPI JUMPDEST DUP2 SWAP4 POP POP POP POP SWAP2 SWAP1 POP JUMP JUMPDEST PUSH0 DUP1 PUSH20 0xFFFFFFFFFFFFFFFFFFFFFFFFFFFFFFFFFFFFFFFF AND DUP4 PUSH20 0xFFFFFFFFFFFFFFFFFFFFFFFFFFFFFFFFFFFFFFFF AND EQ ISZERO DUP1 ISZERO PUSH2 0x3977 JUMPI POP DUP3 PUSH20 0xFFFFFFFFFFFFFFFFFFFFFFFFFFFFFFFFFFFFFFFF AND DUP5 PUSH20 0xFFFFFFFFFFFFFFFFFFFFFFFFFFFFFFFFFFFFFFFF AND EQ DUP1 PUSH2 0x3938 JUMPI POP PUSH2 0x3937 DUP5 DUP5 PUSH2 0x24D3 JUMP JUMPDEST JUMPDEST DUP1 PUSH2 0x3976 JUMPI POP DUP3 PUSH20 0xFFFFFFFFFFFFFFFFFFFFFFFFFFFFFFFFFFFFFFFF AND PUSH2 0x395E DUP4 PUSH2 0x27F4 JUMP JUMPDEST PUSH20 0xFFFFFFFFFFFFFFFFFFFFFFFFFFFFFFFFFFFFFFFF AND EQ JUMPDEST JUMPDEST SWAP1 POP SWAP4 SWAP3 POP POP POP JUMP JUMPDEST PUSH0 DUP1 PUSH0 SWAP1 POP PUSH27 0x184F03E93FF9F4DAA797ED6E38ED64BF6A1F010000000000000000 DUP4 LT PUSH2 0x39DC JUMPI PUSH27 0x184F03E93FF9F4DAA797ED6E38ED64BF6A1F010000000000000000 DUP4 DUP2 PUSH2 0x39D2 JUMPI PUSH2 0x39D1 PUSH2 0x49B3 JUMP JUMPDEST JUMPDEST DIV SWAP3 POP PUSH1 0x40 DUP2 ADD SWAP1 POP JUMPDEST PUSH14 0x4EE2D6D415B85ACEF8100000000 DUP4 LT PUSH2 0x3A19 JUMPI PUSH14 0x4EE2D6D415B85ACEF8100000000 DUP4 DUP2 PUSH2 0x3A0F JUMPI PUSH2 0x3A0E PUSH2 0x49B3 JUMP JUMPDEST JUMPDEST DIV SWAP3 POP PUSH1 0x20 DUP2 ADD SWAP1 POP JUMPDEST PUSH7 0x2386F26FC10000 DUP4 LT PUSH2 0x3A48 JUMPI PUSH7 0x2386F26FC10000 DUP4 DUP2 PUSH2 0x3A3E JUMPI PUSH2 0x3A3D PUSH2 0x49B3 JUMP JUMPDEST JUMPDEST DIV SWAP3 POP PUSH1 0x10 DUP2 ADD SWAP1 POP JUMPDEST PUSH4 0x5F5E100 DUP4 LT PUSH2 0x3A71 JUMPI PUSH4 0x5F5E100 DUP4 DUP2 PUSH2 0x3A67 JUMPI PUSH2 0x3A66 PUSH2 0x49B3 JUMP JUMPDEST JUMPDEST DIV SWAP3 POP PUSH1 0x8 DUP2 ADD SWAP1 POP JUMPDEST PUSH2 0x2710 DUP4 LT PUSH2 0x3A96 JUMPI PUSH2 0x2710 DUP4 DUP2 PUSH2 0x3A8C JUMPI PUSH2 0x3A8B PUSH2 0x49B3 JUMP JUMPDEST JUMPDEST DIV SWAP3 POP PUSH1 0x4 DUP2 ADD SWAP1 POP JUMPDEST PUSH1 0x64 DUP4 LT PUSH2 0x3AB9 JUMPI PUSH1 0x64 DUP4 DUP2 PUSH2 0x3AAF JUMPI PUSH2 0x3AAE PUSH2 0x49B3 JUMP JUMPDEST JUMPDEST DIV SWAP3 POP PUSH1 0x2 DUP2 ADD SWAP1 POP JUMPDEST PUSH1 0xA DUP4 LT PUSH2 0x3AC8 JUMPI PUSH1 0x1 DUP2 ADD SWAP1 POP JUMPDEST DUP1 SWAP2 POP POP SWAP2 SWAP1 POP JUMP JUMPDEST PUSH0 PUSH1 0x40 MLOAD SWAP1 POP SWAP1 JUMP JUMPDEST PUSH0 DUP1 REVERT JUMPDEST PUSH0 DUP1 REVERT JUMPDEST PUSH0 PUSH32 0xFFFFFFFF00000000000000000000000000000000000000000000000000000000 DUP3 AND SWAP1 POP SWAP2 SWAP1 POP JUMP JUMPDEST PUSH2 0x3B16 DUP2 PUSH2 0x3AE2 JUMP JUMPDEST DUP2 EQ PUSH2 0x3B20 JUMPI PUSH0 DUP1 REVERT JUMPDEST POP JUMP JUMPDEST PUSH0 DUP2 CALLDATALOAD SWAP1 POP PUSH2 0x3B31 DUP2 PUSH2 0x3B0D JUMP JUMPDEST SWAP3 SWAP2 POP POP JUMP JUMPDEST PUSH0 PUSH1 0x20 DUP3 DUP5 SUB SLT ISZERO PUSH2 0x3B4C JUMPI PUSH2 0x3B4B PUSH2 0x3ADA JUMP JUMPDEST JUMPDEST PUSH0 PUSH2 0x3B59 DUP5 DUP3 DUP6 ADD PUSH2 0x3B23 JUMP JUMPDEST SWAP2 POP POP SWAP3 SWAP2 POP POP JUMP JUMPDEST PUSH0 DUP2 ISZERO ISZERO SWAP1 POP SWAP2 SWAP1 POP JUMP JUMPDEST PUSH2 0x3B76 DUP2 PUSH2 0x3B62 JUMP JUMPDEST DUP3 MSTORE POP POP JUMP JUMPDEST PUSH0 PUSH1 0x20 DUP3 ADD SWAP1 POP PUSH2 0x3B8F PUSH0 DUP4 ADD DUP5 PUSH2 0x3B6D JUMP JUMPDEST SWAP3 SWAP2 POP POP JUMP JUMPDEST PUSH0 PUSH20 0xFFFFFFFFFFFFFFFFFFFFFFFFFFFFFFFFFFFFFFFF DUP3 AND SWAP1 POP SWAP2 SWAP1 POP JUMP JUMPDEST PUSH0 PUSH2 0x3BBE DUP3 PUSH2 0x3B95 JUMP JUMPDEST SWAP1 POP SWAP2 SWAP1 POP JUMP JUMPDEST PUSH2 0x3BCE DUP2 PUSH2 0x3BB4 JUMP JUMPDEST DUP3 MSTORE POP POP JUMP JUMPDEST PUSH0 PUSH1 0x20 DUP3 ADD SWAP1 POP PUSH2 0x3BE7 PUSH0 DUP4 ADD DUP5 PUSH2 0x3BC5 JUMP JUMPDEST SWAP3 SWAP2 POP POP JUMP JUMPDEST PUSH0 DUP2 MLOAD SWAP1 POP SWAP2 SWAP1 POP JUMP JUMPDEST PUSH0 DUP3 DUP3 MSTORE PUSH1 0x20 DUP3 ADD SWAP1 POP SWAP3 SWAP2 POP POP JUMP JUMPDEST PUSH0 JUMPDEST DUP4 DUP2 LT ISZERO PUSH2 0x3C24 JUMPI DUP1 DUP3 ADD MLOAD DUP2 DUP5 ADD MSTORE PUSH1 0x20 DUP2 ADD SWAP1 POP PUSH2 0x3C09 JUMP JUMPDEST PUSH0 DUP5 DUP5 ADD MSTORE POP POP POP POP JUMP JUMPDEST PUSH0 PUSH1 0x1F NOT PUSH1 0x1F DUP4 ADD AND SWAP1 POP SWAP2 SWAP1 POP JUMP JUMPDEST PUSH0 PUSH2 0x3C49 DUP3 PUSH2 0x3BED JUMP JUMPDEST PUSH2 0x3C53 DUP2 DUP6 PUSH2 0x3BF7 JUMP JUMPDEST SWAP4 POP PUSH2 0x3C63 DUP2 DUP6 PUSH1 0x20 DUP7 ADD PUSH2 0x3C07 JUMP JUMPDEST PUSH2 0x3C6C DUP2 PUSH2 0x3C2F JUMP JUMPDEST DUP5 ADD SWAP2 POP POP SWAP3 SWAP2 POP POP JUMP JUMPDEST PUSH0 PUSH1 0x20 DUP3 ADD SWAP1 POP DUP2 DUP2 SUB PUSH0 DUP4 ADD MSTORE PUSH2 0x3C8F DUP2 DUP5 PUSH2 0x3C3F JUMP JUMPDEST SWAP1 POP SWAP3 SWAP2 POP POP JUMP JUMPDEST PUSH0 DUP2 SWAP1 POP SWAP2 SWAP1 POP JUMP JUMPDEST PUSH2 0x3CA9 DUP2 PUSH2 0x3C97 JUMP JUMPDEST DUP2 EQ PUSH2 0x3CB3 JUMPI PUSH0 DUP1 REVERT JUMPDEST POP JUMP JUMPDEST PUSH0 DUP2 CALLDATALOAD SWAP1 POP PUSH2 0x3CC4 DUP2 PUSH2 0x3CA0 JUMP JUMPDEST SWAP3 SWAP2 POP POP JUMP JUMPDEST PUSH0 PUSH1 0x20 DUP3 DUP5 SUB SLT ISZERO PUSH2 0x3CDF JUMPI PUSH2 0x3CDE PUSH2 0x3ADA JUMP JUMPDEST JUMPDEST PUSH0 PUSH2 0x3CEC DUP5 DUP3 DUP6 ADD PUSH2 0x3CB6 JUMP JUMPDEST SWAP2 POP POP SWAP3 SWAP2 POP POP JUMP JUMPDEST PUSH2 0x3CFE DUP2 PUSH2 0x3BB4 JUMP JUMPDEST DUP2 EQ PUSH2 0x3D08 JUMPI PUSH0 DUP1 REVERT JUMPDEST POP JUMP JUMPDEST PUSH0 DUP2 CALLDATALOAD SWAP1 POP PUSH2 0x3D19 DUP2 PUSH2 0x3CF5 JUMP JUMPDEST SWAP3 SWAP2 POP POP JUMP JUMPDEST PUSH0 DUP1 PUSH1 0x40 DUP4 DUP6 SUB SLT ISZERO PUSH2 0x3D35 JUMPI PUSH2 0x3D34 PUSH2 0x3ADA JUMP JUMPDEST JUMPDEST PUSH0 PUSH2 0x3D42 DUP6 DUP3 DUP7 ADD PUSH2 0x3D0B JUMP JUMPDEST SWAP3 POP POP PUSH1 0x20 PUSH2 0x3D53 DUP6 DUP3 DUP7 ADD PUSH2 0x3CB6 JUMP JUMPDEST SWAP2 POP POP SWAP3 POP SWAP3 SWAP1 POP JUMP JUMPDEST PUSH2 0x3D66 DUP2 PUSH2 0x3C97 JUMP JUMPDEST DUP3 MSTORE POP POP JUMP JUMPDEST PUSH0 PUSH1 0x40 DUP3 ADD SWAP1 POP PUSH2 0x3D7F PUSH0 DUP4 ADD DUP6 PUSH2 0x3BC5 JUMP JUMPDEST PUSH2 0x3D8C PUSH1 0x20 DUP4 ADD DUP5 PUSH2 0x3D5D JUMP JUMPDEST SWAP4 SWAP3 POP POP POP JUMP JUMPDEST PUSH0 DUP2 SWAP1 POP SWAP2 SWAP1 POP JUMP JUMPDEST PUSH0 PUSH2 0x3DB6 PUSH2 0x3DB1 PUSH2 0x3DAC DUP5 PUSH2 0x3B95 JUMP JUMPDEST PUSH2 0x3D93 JUMP JUMPDEST PUSH2 0x3B95 JUMP JUMPDEST SWAP1 POP SWAP2 SWAP1 POP JUMP JUMPDEST PUSH0 PUSH2 0x3DC7 DUP3 PUSH2 0x3D9C JUMP JUMPDEST SWAP1 POP SWAP2 SWAP1 POP JUMP JUMPDEST PUSH0 PUSH2 0x3DD8 DUP3 PUSH2 0x3DBD JUMP JUMPDEST SWAP1 POP SWAP2 SWAP1 POP JUMP JUMPDEST PUSH2 0x3DE8 DUP2 PUSH2 0x3DCE JUMP JUMPDEST DUP3 MSTORE POP POP JUMP JUMPDEST PUSH0 PUSH1 0x20 DUP3 ADD SWAP1 POP PUSH2 0x3E01 PUSH0 DUP4 ADD DUP5 PUSH2 0x3DDF JUMP JUMPDEST SWAP3 SWAP2 POP POP JUMP JUMPDEST PUSH0 PUSH1 0x80 DUP3 ADD SWAP1 POP DUP2 DUP2 SUB PUSH0 DUP4 ADD MSTORE PUSH2 0x3E1F DUP2 DUP8 PUSH2 0x3C3F JUMP JUMPDEST SWAP1 POP PUSH2 0x3E2E PUSH1 0x20 DUP4 ADD DUP7 PUSH2 0x3D5D JUMP JUMPDEST PUSH2 0x3E3B PUSH1 0x40 DUP4 ADD DUP6 PUSH2 0x3D5D JUMP JUMPDEST PUSH2 0x3E48 PUSH1 0x60 DUP4 ADD DUP5 PUSH2 0x3D5D JUMP JUMPDEST SWAP6 SWAP5 POP POP POP POP POP JUMP JUMPDEST PUSH0 PUSH1 0x20 DUP3 ADD SWAP1 POP PUSH2 0x3E64 PUSH0 DUP4 ADD DUP5 PUSH2 0x3D5D JUMP JUMPDEST SWAP3 SWAP2 POP POP JUMP JUMPDEST PUSH0 DUP1 PUSH0 PUSH1 0x60 DUP5 DUP7 SUB SLT ISZERO PUSH2 0x3E81 JUMPI PUSH2 0x3E80 PUSH2 0x3ADA JUMP JUMPDEST JUMPDEST PUSH0 PUSH2 0x3E8E DUP7 DUP3 DUP8 ADD PUSH2 0x3D0B JUMP JUMPDEST SWAP4 POP POP PUSH1 0x20 PUSH2 0x3E9F DUP7 DUP3 DUP8 ADD PUSH2 0x3D0B JUMP JUMPDEST SWAP3 POP POP PUSH1 0x40 PUSH2 0x3EB0 DUP7 DUP3 DUP8 ADD PUSH2 0x3CB6 JUMP JUMPDEST SWAP2 POP POP SWAP3 POP SWAP3 POP SWAP3 JUMP JUMPDEST PUSH0 PUSH1 0x20 DUP3 DUP5 SUB SLT ISZERO PUSH2 0x3ECF JUMPI PUSH2 0x3ECE PUSH2 0x3ADA JUMP JUMPDEST JUMPDEST PUSH0 PUSH2 0x3EDC DUP5 DUP3 DUP6 ADD PUSH2 0x3D0B JUMP JUMPDEST SWAP2 POP POP SWAP3 SWAP2 POP POP JUMP JUMPDEST PUSH0 DUP1 PUSH1 0x40 DUP4 DUP6 SUB SLT ISZERO PUSH2 0x3EFB JUMPI PUSH2 0x3EFA PUSH2 0x3ADA JUMP JUMPDEST JUMPDEST PUSH0 PUSH2 0x3F08 DUP6 DUP3 DUP7 ADD PUSH2 0x3CB6 JUMP JUMPDEST SWAP3 POP POP PUSH1 0x20 PUSH2 0x3F19 DUP6 DUP3 DUP7 ADD PUSH2 0x3CB6 JUMP JUMPDEST SWAP2 POP POP SWAP3 POP SWAP3 SWAP1 POP JUMP JUMPDEST PUSH2 0x3F2C DUP2 PUSH2 0x3B62 JUMP JUMPDEST DUP2 EQ PUSH2 0x3F36 JUMPI PUSH0 DUP1 REVERT JUMPDEST POP JUMP JUMPDEST PUSH0 DUP2 CALLDATALOAD SWAP1 POP PUSH2 0x3F47 DUP2 PUSH2 0x3F23 JUMP JUMPDEST SWAP3 SWAP2 POP POP JUMP JUMPDEST PUSH0 DUP1 PUSH1 0x40 DUP4 DUP6 SUB SLT ISZERO PUSH2 0x3F63 JUMPI PUSH2 0x3F62 PUSH2 0x3ADA JUMP JUMPDEST JUMPDEST PUSH0 PUSH2 0x3F70 DUP6 DUP3 DUP7 ADD PUSH2 0x3D0B JUMP JUMPDEST SWAP3 POP POP PUSH1 0x20 PUSH2 0x3F81 DUP6 DUP3 DUP7 ADD PUSH2 0x3F39 JUMP JUMPDEST SWAP2 POP POP SWAP3 POP SWAP3 SWAP1 POP JUMP JUMPDEST PUSH0 DUP2 MLOAD SWAP1 POP SWAP2 SWAP1 POP JUMP JUMPDEST PUSH0 DUP3 DUP3 MSTORE PUSH1 0x20 DUP3 ADD SWAP1 POP SWAP3 SWAP2 POP POP JUMP JUMPDEST PUSH0 DUP2 SWAP1 POP PUSH1 0x20 DUP3 ADD SWAP1 POP SWAP2 SWAP1 POP JUMP JUMPDEST PUSH2 0x3FBD DUP2 PUSH2 0x3BB4 JUMP JUMPDEST DUP3 MSTORE POP POP JUMP JUMPDEST PUSH2 0x3FCC DUP2 PUSH2 0x3C97 JUMP JUMPDEST DUP3 MSTORE POP POP JUMP JUMPDEST PUSH1 0x40 DUP3 ADD PUSH0 DUP3 ADD MLOAD PUSH2 0x3FE6 PUSH0 DUP6 ADD DUP3 PUSH2 0x3FB4 JUMP JUMPDEST POP PUSH1 0x20 DUP3 ADD MLOAD PUSH2 0x3FF9 PUSH1 0x20 DUP6 ADD DUP3 PUSH2 0x3FC3 JUMP JUMPDEST POP POP POP POP JUMP JUMPDEST PUSH0 PUSH2 0x400A DUP4 DUP4 PUSH2 0x3FD2 JUMP JUMPDEST PUSH1 0x40 DUP4 ADD SWAP1 POP SWAP3 SWAP2 POP POP JUMP JUMPDEST PUSH0 PUSH1 0x20 DUP3 ADD SWAP1 POP SWAP2 SWAP1 POP JUMP JUMPDEST PUSH0 PUSH2 0x402C DUP3 PUSH2 0x3F8B JUMP JUMPDEST PUSH2 0x4036 DUP2 DUP6 PUSH2 0x3F95 JUMP JUMPDEST SWAP4 POP PUSH2 0x4041 DUP4 PUSH2 0x3FA5 JUMP JUMPDEST DUP1 PUSH0 JUMPDEST DUP4 DUP2 LT ISZERO PUSH2 0x4071 JUMPI DUP2 MLOAD PUSH2 0x4058 DUP9 DUP3 PUSH2 0x3FFF JUMP JUMPDEST SWAP8 POP PUSH2 0x4063 DUP4 PUSH2 0x4016 JUMP JUMPDEST SWAP3 POP POP PUSH1 0x1 DUP2 ADD SWAP1 POP PUSH2 0x4044 JUMP JUMPDEST POP DUP6 SWAP4 POP POP POP POP SWAP3 SWAP2 POP POP JUMP JUMPDEST PUSH0 PUSH1 0x20 DUP3 ADD SWAP1 POP DUP2 DUP2 SUB PUSH0 DUP4 ADD MSTORE PUSH2 0x4096 DUP2 DUP5 PUSH2 0x4022 JUMP JUMPDEST SWAP1 POP SWAP3 SWAP2 POP POP JUMP JUMPDEST PUSH0 DUP1 REVERT JUMPDEST PUSH0 DUP1 REVERT JUMPDEST PUSH32 0x4E487B7100000000000000000000000000000000000000000000000000000000 PUSH0 MSTORE PUSH1 0x41 PUSH1 0x4 MSTORE PUSH1 0x24 PUSH0 REVERT JUMPDEST PUSH2 0x40DC DUP3 PUSH2 0x3C2F JUMP JUMPDEST DUP2 ADD DUP2 DUP2 LT PUSH8 0xFFFFFFFFFFFFFFFF DUP3 GT OR ISZERO PUSH2 0x40FB JUMPI PUSH2 0x40FA PUSH2 0x40A6 JUMP JUMPDEST JUMPDEST DUP1 PUSH1 0x40 MSTORE POP POP POP JUMP JUMPDEST PUSH0 PUSH2 0x410D PUSH2 0x3AD1 JUMP JUMPDEST SWAP1 POP PUSH2 0x4119 DUP3 DUP3 PUSH2 0x40D3 JUMP JUMPDEST SWAP2 SWAP1 POP JUMP JUMPDEST PUSH0 PUSH8 0xFFFFFFFFFFFFFFFF DUP3 GT ISZERO PUSH2 0x4138 JUMPI PUSH2 0x4137 PUSH2 0x40A6 JUMP JUMPDEST JUMPDEST PUSH2 0x4141 DUP3 PUSH2 0x3C2F JUMP JUMPDEST SWAP1 POP PUSH1 0x20 DUP2 ADD SWAP1 POP SWAP2 SWAP1 POP JUMP JUMPDEST DUP3 DUP2 DUP4 CALLDATACOPY PUSH0 DUP4 DUP4 ADD MSTORE POP POP POP JUMP JUMPDEST PUSH0 PUSH2 0x416E PUSH2 0x4169 DUP5 PUSH2 0x411E JUMP JUMPDEST PUSH2 0x4104 JUMP JUMPDEST SWAP1 POP DUP3 DUP2 MSTORE PUSH1 0x20 DUP2 ADD DUP5 DUP5 DUP5 ADD GT ISZERO PUSH2 0x418A JUMPI PUSH2 0x4189 PUSH2 0x40A2 JUMP JUMPDEST JUMPDEST PUSH2 0x4195 DUP5 DUP3 DUP6 PUSH2 0x414E JUMP JUMPDEST POP SWAP4 SWAP3 POP POP POP JUMP JUMPDEST PUSH0 DUP3 PUSH1 0x1F DUP4 ADD SLT PUSH2 0x41B1 JUMPI PUSH2 0x41B0 PUSH2 0x409E JUMP JUMPDEST JUMPDEST DUP2 CALLDATALOAD PUSH2 0x41C1 DUP5 DUP3 PUSH1 0x20 DUP7 ADD PUSH2 0x415C JUMP JUMPDEST SWAP2 POP POP SWAP3 SWAP2 POP POP JUMP JUMPDEST PUSH0 DUP1 PUSH0 DUP1 PUSH1 0x80 DUP6 DUP8 SUB SLT ISZERO PUSH2 0x41E2 JUMPI PUSH2 0x41E1 PUSH2 0x3ADA JUMP JUMPDEST JUMPDEST PUSH0 PUSH2 0x41EF DUP8 DUP3 DUP9 ADD PUSH2 0x3D0B JUMP JUMPDEST SWAP5 POP POP PUSH1 0x20 PUSH2 0x4200 DUP8 DUP3 DUP9 ADD PUSH2 0x3D0B JUMP JUMPDEST SWAP4 POP POP PUSH1 0x40 PUSH2 0x4211 DUP8 DUP3 DUP9 ADD PUSH2 0x3CB6 JUMP JUMPDEST SWAP3 POP POP PUSH1 0x60 DUP6 ADD CALLDATALOAD PUSH8 0xFFFFFFFFFFFFFFFF DUP2 GT ISZERO PUSH2 0x4232 JUMPI PUSH2 0x4231 PUSH2 0x3ADE JUMP JUMPDEST JUMPDEST PUSH2 0x423E DUP8 DUP3 DUP9 ADD PUSH2 0x419D JUMP JUMPDEST SWAP2 POP POP SWAP3 SWAP6 SWAP2 SWAP5 POP SWAP3 POP JUMP JUMPDEST PUSH0 DUP2 MLOAD SWAP1 POP SWAP2 SWAP1 POP JUMP JUMPDEST PUSH0 DUP3 DUP3 MSTORE PUSH1 0x20 DUP3 ADD SWAP1 POP SWAP3 SWAP2 POP POP JUMP JUMPDEST PUSH0 DUP2 SWAP1 POP PUSH1 0x20 DUP3 ADD SWAP1 POP SWAP2 SWAP1 POP JUMP JUMPDEST PUSH0 PUSH2 0x427E DUP4 DUP4 PUSH2 0x3FB4 JUMP JUMPDEST PUSH1 0x20 DUP4 ADD SWAP1 POP SWAP3 SWAP2 POP POP JUMP JUMPDEST PUSH0 PUSH1 0x20 DUP3 ADD SWAP1 POP SWAP2 SWAP1 POP JUMP JUMPDEST PUSH0 PUSH2 0x42A0 DUP3 PUSH2 0x424A JUMP JUMPDEST PUSH2 0x42AA DUP2 DUP6 PUSH2 0x4254 JUMP JUMPDEST SWAP4 POP PUSH2 0x42B5 DUP4 PUSH2 0x4264 JUMP JUMPDEST DUP1 PUSH0 JUMPDEST DUP4 DUP2 LT ISZERO PUSH2 0x42E5 JUMPI DUP2 MLOAD PUSH2 0x42CC DUP9 DUP3 PUSH2 0x4273 JUMP JUMPDEST SWAP8 POP PUSH2 0x42D7 DUP4 PUSH2 0x428A JUMP JUMPDEST SWAP3 POP POP PUSH1 0x1 DUP2 ADD SWAP1 POP PUSH2 0x42B8 JUMP JUMPDEST POP DUP6 SWAP4 POP POP POP POP SWAP3 SWAP2 POP POP JUMP JUMPDEST PUSH0 DUP2 MLOAD SWAP1 POP SWAP2 SWAP1 POP JUMP JUMPDEST PUSH0 DUP3 DUP3 MSTORE PUSH1 0x20 DUP3 ADD SWAP1 POP SWAP3 SWAP2 POP POP JUMP JUMPDEST PUSH0 DUP2 SWAP1 POP PUSH1 0x20 DUP3 ADD SWAP1 POP SWAP2 SWAP1 POP JUMP JUMPDEST PUSH0 PUSH2 0x4326 DUP4 DUP4 PUSH2 0x3FC3 JUMP JUMPDEST PUSH1 0x20 DUP4 ADD SWAP1 POP SWAP3 SWAP2 POP POP JUMP JUMPDEST PUSH0 PUSH1 0x20 DUP3 ADD SWAP1 POP SWAP2 SWAP1 POP JUMP JUMPDEST PUSH0 PUSH2 0x4348 DUP3 PUSH2 0x42F2 JUMP JUMPDEST PUSH2 0x4352 DUP2 DUP6 PUSH2 0x42FC JUMP JUMPDEST SWAP4 POP PUSH2 0x435D DUP4 PUSH2 0x430C JUMP JUMPDEST DUP1 PUSH0 JUMPDEST DUP4 DUP2 LT ISZERO PUSH2 0x438D JUMPI DUP2 MLOAD PUSH2 0x4374 DUP9 DUP3 PUSH2 0x431B JUMP JUMPDEST SWAP8 POP PUSH2 0x437F DUP4 PUSH2 0x4332 JUMP JUMPDEST SWAP3 POP POP PUSH1 0x1 DUP2 ADD SWAP1 POP PUSH2 0x4360 JUMP JUMPDEST POP DUP6 SWAP4 POP POP POP POP SWAP3 SWAP2 POP POP JUMP JUMPDEST PUSH0 PUSH1 0x40 DUP3 ADD SWAP1 POP DUP2 DUP2 SUB PUSH0 DUP4 ADD MSTORE PUSH2 0x43B2 DUP2 DUP6 PUSH2 0x4296 JUMP JUMPDEST SWAP1 POP DUP2 DUP2 SUB PUSH1 0x20 DUP4 ADD MSTORE PUSH2 0x43C6 DUP2 DUP5 PUSH2 0x433E JUMP JUMPDEST SWAP1 POP SWAP4 SWAP3 POP POP POP JUMP JUMPDEST PUSH0 DUP1 PUSH1 0x40 DUP4 DUP6 SUB SLT ISZERO PUSH2 0x43E5 JUMPI PUSH2 0x43E4 PUSH2 0x3ADA JUMP JUMPDEST JUMPDEST PUSH0 PUSH2 0x43F2 DUP6 DUP3 DUP7 ADD PUSH2 0x3D0B JUMP JUMPDEST SWAP3 POP POP PUSH1 0x20 PUSH2 0x4403 DUP6 DUP3 DUP7 ADD PUSH2 0x3D0B JUMP JUMPDEST SWAP2 POP POP SWAP3 POP SWAP3 SWAP1 POP JUMP JUMPDEST PUSH32 0x4E487B7100000000000000000000000000000000000000000000000000000000 PUSH0 MSTORE PUSH1 0x22 PUSH1 0x4 MSTORE PUSH1 0x24 PUSH0 REVERT JUMPDEST PUSH0 PUSH1 0x2 DUP3 DIV SWAP1 POP PUSH1 0x1 DUP3 AND DUP1 PUSH2 0x4451 JUMPI PUSH1 0x7F DUP3 AND SWAP2 POP JUMPDEST PUSH1 0x20 DUP3 LT DUP2 SUB PUSH2 0x4464 JUMPI PUSH2 0x4463 PUSH2 0x440D JUMP JUMPDEST JUMPDEST POP SWAP2 SWAP1 POP JUMP JUMPDEST PUSH0 PUSH1 0x60 DUP3 ADD SWAP1 POP PUSH2 0x447D PUSH0 DUP4 ADD DUP7 PUSH2 0x3BC5 JUMP JUMPDEST PUSH2 0x448A PUSH1 0x20 DUP4 ADD DUP6 PUSH2 0x3D5D JUMP JUMPDEST PUSH2 0x4497 PUSH1 0x40 DUP4 ADD DUP5 PUSH2 0x3BC5 JUMP JUMPDEST SWAP5 SWAP4 POP POP POP POP JUMP JUMPDEST PUSH32 0x546F6B656E732068617665206E6F74206265656E206973737565640000000000 PUSH0 DUP3 ADD MSTORE POP JUMP JUMPDEST PUSH0 PUSH2 0x44D3 PUSH1 0x1B DUP4 PUSH2 0x3BF7 JUMP JUMPDEST SWAP2 POP PUSH2 0x44DE DUP3 PUSH2 0x449F JUMP JUMPDEST PUSH1 0x20 DUP3 ADD SWAP1 POP SWAP2 SWAP1 POP JUMP JUMPDEST PUSH0 PUSH1 0x20 DUP3 ADD SWAP1 POP DUP2 DUP2 SUB PUSH0 DUP4 ADD MSTORE PUSH2 0x4500 DUP2 PUSH2 0x44C7 JUMP JUMPDEST SWAP1 POP SWAP2 SWAP1 POP JUMP JUMPDEST PUSH32 0x4E756D626572206F6620746F6B656E73206D757374206265206265747765656E PUSH0 DUP3 ADD MSTORE PUSH32 0x203120616E642038000000000000000000000000000000000000000000000000 PUSH1 0x20 DUP3 ADD MSTORE POP JUMP JUMPDEST PUSH0 PUSH2 0x4561 PUSH1 0x28 DUP4 PUSH2 0x3BF7 JUMP JUMPDEST SWAP2 POP PUSH2 0x456C DUP3 PUSH2 0x4507 JUMP JUMPDEST PUSH1 0x40 DUP3 ADD SWAP1 POP SWAP2 SWAP1 POP JUMP JUMPDEST PUSH0 PUSH1 0x20 DUP3 ADD SWAP1 POP DUP2 DUP2 SUB PUSH0 DUP4 ADD MSTORE PUSH2 0x458E DUP2 PUSH2 0x4555 JUMP JUMPDEST SWAP1 POP SWAP2 SWAP1 POP JUMP JUMPDEST PUSH32 0x4E6F7420656E6F75676820746F6B656E7320617661696C61626C650000000000 PUSH0 DUP3 ADD MSTORE POP JUMP JUMPDEST PUSH0 PUSH2 0x45C9 PUSH1 0x1B DUP4 PUSH2 0x3BF7 JUMP JUMPDEST SWAP2 POP PUSH2 0x45D4 DUP3 PUSH2 0x4595 JUMP JUMPDEST PUSH1 0x20 DUP3 ADD SWAP1 POP SWAP2 SWAP1 POP JUMP JUMPDEST PUSH0 PUSH1 0x20 DUP3 ADD SWAP1 POP DUP2 DUP2 SUB PUSH0 DUP4 ADD MSTORE PUSH2 0x45F6 DUP2 PUSH2 0x45BD JUMP JUMPDEST SWAP1 POP SWAP2 SWAP1 POP JUMP JUMPDEST PUSH32 0x41646472657373206E6F742077686974656C6973746564000000000000000000 PUSH0 DUP3 ADD MSTORE POP JUMP JUMPDEST PUSH0 PUSH2 0x4631 PUSH1 0x17 DUP4 PUSH2 0x3BF7 JUMP JUMPDEST SWAP2 POP PUSH2 0x463C DUP3 PUSH2 0x45FD JUMP JUMPDEST PUSH1 0x20 DUP3 ADD SWAP1 POP SWAP2 SWAP1 POP JUMP JUMPDEST PUSH0 PUSH1 0x20 DUP3 ADD SWAP1 POP DUP2 DUP2 SUB PUSH0 DUP4 ADD MSTORE PUSH2 0x465E DUP2 PUSH2 0x4625 JUMP JUMPDEST SWAP1 POP SWAP2 SWAP1 POP JUMP JUMPDEST PUSH32 0x4164647265737320626C61636B6C697374656400000000000000000000000000 PUSH0 DUP3 ADD MSTORE POP JUMP JUMPDEST PUSH0 PUSH2 0x4699 PUSH1 0x13 DUP4 PUSH2 0x3BF7 JUMP JUMPDEST SWAP2 POP PUSH2 0x46A4 DUP3 PUSH2 0x4665 JUMP JUMPDEST PUSH1 0x20 DUP3 ADD SWAP1 POP SWAP2 SWAP1 POP JUMP JUMPDEST PUSH0 PUSH1 0x20 DUP3 ADD SWAP1 POP DUP2 DUP2 SUB PUSH0 DUP4 ADD MSTORE PUSH2 0x46C6 DUP2 PUSH2 0x468D JUMP JUMPDEST SWAP1 POP SWAP2 SWAP1 POP JUMP JUMPDEST PUSH32 0x4E487B7100000000000000000000000000000000000000000000000000000000 PUSH0 MSTORE PUSH1 0x11 PUSH1 0x4 MSTORE PUSH1 0x24 PUSH0 REVERT JUMPDEST PUSH0 PUSH2 0x4704 DUP3 PUSH2 0x3C97 JUMP JUMPDEST SWAP2 POP PUSH2 0x470F DUP4 PUSH2 0x3C97 JUMP JUMPDEST SWAP3 POP DUP3 DUP3 MUL PUSH2 0x471D DUP2 PUSH2 0x3C97 JUMP JUMPDEST SWAP2 POP DUP3 DUP3 DIV DUP5 EQ DUP4 ISZERO OR PUSH2 0x4734 JUMPI PUSH2 0x4733 PUSH2 0x46CD JUMP JUMPDEST JUMPDEST POP SWAP3 SWAP2 POP POP JUMP JUMPDEST PUSH0 DUP2 MLOAD SWAP1 POP PUSH2 0x4749 DUP2 PUSH2 0x3CA0 JUMP JUMPDEST SWAP3 SWAP2 POP POP JUMP JUMPDEST PUSH0 PUSH1 0x20 DUP3 DUP5 SUB SLT ISZERO PUSH2 0x4764 JUMPI PUSH2 0x4763 PUSH2 0x3ADA JUMP JUMPDEST JUMPDEST PUSH0 PUSH2 0x4771 DUP5 DUP3 DUP6 ADD PUSH2 0x473B JUMP JUMPDEST SWAP2 POP POP SWAP3 SWAP2 POP POP JUMP JUMPDEST PUSH32 0x496E73756666696369656E7420555344432062616C616E636500000000000000 PUSH0 DUP3 ADD MSTORE POP JUMP JUMPDEST PUSH0 PUSH2 0x47AE PUSH1 0x19 DUP4 PUSH2 0x3BF7 JUMP JUMPDEST SWAP2 POP PUSH2 0x47B9 DUP3 PUSH2 0x477A JUMP JUMPDEST PUSH1 0x20 DUP3 ADD SWAP1 POP SWAP2 SWAP1 POP JUMP JUMPDEST PUSH0 PUSH1 0x20 DUP3 ADD SWAP1 POP DUP2 DUP2 SUB PUSH0 DUP4 ADD MSTORE PUSH2 0x47DB DUP2 PUSH2 0x47A2 JUMP JUMPDEST SWAP1 POP SWAP2 SWAP1 POP JUMP JUMPDEST PUSH0 PUSH1 0x40 DUP3 ADD SWAP1 POP PUSH2 0x47F5 PUSH0 DUP4 ADD DUP6 PUSH2 0x3BC5 JUMP JUMPDEST PUSH2 0x4802 PUSH1 0x20 DUP4 ADD DUP5 PUSH2 0x3BC5 JUMP JUMPDEST SWAP4 SWAP3 POP POP POP JUMP JUMPDEST PUSH32 0x5553444320616C6C6F77616E636520746F6F206C6F7700000000000000000000 PUSH0 DUP3 ADD MSTORE POP JUMP JUMPDEST PUSH0 PUSH2 0x483D PUSH1 0x16 DUP4 PUSH2 0x3BF7 JUMP JUMPDEST SWAP2 POP PUSH2 0x4848 DUP3 PUSH2 0x4809 JUMP JUMPDEST PUSH1 0x20 DUP3 ADD SWAP1 POP SWAP2 SWAP1 POP JUMP JUMPDEST PUSH0 PUSH1 0x20 DUP3 ADD SWAP1 POP DUP2 DUP2 SUB PUSH0 DUP4 ADD MSTORE PUSH2 0x486A DUP2 PUSH2 0x4831 JUMP JUMPDEST SWAP1 POP SWAP2 SWAP1 POP JUMP JUMPDEST PUSH0 PUSH1 0x60 DUP3 ADD SWAP1 POP PUSH2 0x4884 PUSH0 DUP4 ADD DUP7 PUSH2 0x3BC5 JUMP JUMPDEST PUSH2 0x4891 PUSH1 0x20 DUP4 ADD DUP6 PUSH2 0x3BC5 JUMP JUMPDEST PUSH2 0x489E PUSH1 0x40 DUP4 ADD DUP5 PUSH2 0x3D5D JUMP JUMPDEST SWAP5 SWAP4 POP POP POP POP JUMP JUMPDEST PUSH0 DUP2 MLOAD SWAP1 POP PUSH2 0x48B4 DUP2 PUSH2 0x3F23 JUMP JUMPDEST SWAP3 SWAP2 POP POP JUMP JUMPDEST PUSH0 PUSH1 0x20 DUP3 DUP5 SUB SLT ISZERO PUSH2 0x48CF JUMPI PUSH2 0x48CE PUSH2 0x3ADA JUMP JUMPDEST JUMPDEST PUSH0 PUSH2 0x48DC DUP5 DUP3 DUP6 ADD PUSH2 0x48A6 JUMP JUMPDEST SWAP2 POP POP SWAP3 SWAP2 POP POP JUMP JUMPDEST PUSH0 PUSH2 0x48EF DUP3 PUSH2 0x3C97 JUMP JUMPDEST SWAP2 POP PUSH2 0x48FA DUP4 PUSH2 0x3C97 JUMP JUMPDEST SWAP3 POP DUP3 DUP3 ADD SWAP1 POP DUP1 DUP3 GT ISZERO PUSH2 0x4912 JUMPI PUSH2 0x4911 PUSH2 0x46CD JUMP JUMPDEST JUMPDEST SWAP3 SWAP2 POP POP JUMP JUMPDEST PUSH32 0x4E487B7100000000000000000000000000000000000000000000000000000000 PUSH0 MSTORE PUSH1 0x32 PUSH1 0x4 MSTORE PUSH1 0x24 PUSH0 REVERT JUMPDEST PUSH0 PUSH2 0x494F DUP3 PUSH2 0x3C97 JUMP JUMPDEST SWAP2 POP PUSH32 0xFFFFFFFFFFFFFFFFFFFFFFFFFFFFFFFFFFFFFFFFFFFFFFFFFFFFFFFFFFFFFFFF DUP3 SUB PUSH2 0x4981 JUMPI PUSH2 0x4980 PUSH2 0x46CD JUMP JUMPDEST JUMPDEST PUSH1 0x1 DUP3 ADD SWAP1 POP SWAP2 SWAP1 POP JUMP JUMPDEST PUSH0 PUSH1 0x40 DUP3 ADD SWAP1 POP PUSH2 0x499F PUSH0 DUP4 ADD DUP6 PUSH2 0x3D5D JUMP JUMPDEST PUSH2 0x49AC PUSH1 0x20 DUP4 ADD DUP5 PUSH2 0x3D5D JUMP JUMPDEST SWAP4 SWAP3 POP POP POP JUMP JUMPDEST PUSH32 0x4E487B7100000000000000000000000000000000000000000000000000000000 PUSH0 MSTORE PUSH1 0x12 PUSH1 0x4 MSTORE PUSH1 0x24 PUSH0 REVERT JUMPDEST PUSH0 PUSH2 0x49EA DUP3 PUSH2 0x3C97 JUMP JUMPDEST SWAP2 POP PUSH2 0x49F5 DUP4 PUSH2 0x3C97 JUMP JUMPDEST SWAP3 POP DUP3 PUSH2 0x4A05 JUMPI PUSH2 0x4A04 PUSH2 0x49B3 JUMP JUMPDEST JUMPDEST DUP3 DUP3 DIV SWAP1 POP SWAP3 SWAP2 POP POP JUMP JUMPDEST PUSH0 PUSH2 0x4A1A DUP3 PUSH2 0x3C97 JUMP JUMPDEST SWAP2 POP PUSH2 0x4A25 DUP4 PUSH2 0x3C97 JUMP JUMPDEST SWAP3 POP DUP3 DUP3 SUB SWAP1 POP DUP2 DUP2 GT ISZERO PUSH2 0x4A3D JUMPI PUSH2 0x4A3C PUSH2 0x46CD JUMP JUMPDEST JUMPDEST SWAP3 SWAP2 POP POP JUMP JUMPDEST PUSH32 0x546F6B656E73206861766520616C7265616479206265656E2069737375656400 PUSH0 DUP3 ADD MSTORE POP JUMP JUMPDEST PUSH0 PUSH2 0x4A77 PUSH1 0x1F DUP4 PUSH2 0x3BF7 JUMP JUMPDEST SWAP2 POP PUSH2 0x4A82 DUP3 PUSH2 0x4A43 JUMP JUMPDEST PUSH1 0x20 DUP3 ADD SWAP1 POP SWAP2 SWAP1 POP JUMP JUMPDEST PUSH0 PUSH1 0x20 DUP3 ADD SWAP1 POP DUP2 DUP2 SUB PUSH0 DUP4 ADD MSTORE PUSH2 0x4AA4 DUP2 PUSH2 0x4A6B JUMP JUMPDEST SWAP1 POP SWAP2 SWAP1 POP JUMP JUMPDEST PUSH0 DUP2 SWAP1 POP SWAP3 SWAP2 POP POP JUMP JUMPDEST PUSH32 0x7B226E616D65223A2022363239204861726C656D204C4C4D222C000000000000 PUSH0 DUP3 ADD MSTORE POP JUMP JUMPDEST PUSH0 PUSH2 0x4AE9 PUSH1 0x1A DUP4 PUSH2 0x4AAB JUMP JUMPDEST SWAP2 POP PUSH2 0x4AF4 DUP3 PUSH2 0x4AB5 JUMP JUMPDEST PUSH1 0x1A DUP3 ADD SWAP1 POP SWAP2 SWAP1 POP JUMP JUMPDEST PUSH32 0x226465736372697074696F6E223A20225257415420666F722036323920486172 PUSH0 DUP3 ADD MSTORE PUSH32 0x6C656D204C4C4D222C0000000000000000000000000000000000000000000000 PUSH1 0x20 DUP3 ADD MSTORE POP JUMP JUMPDEST PUSH0 PUSH2 0x4B59 PUSH1 0x29 DUP4 PUSH2 0x4AAB JUMP JUMPDEST SWAP2 POP PUSH2 0x4B64 DUP3 PUSH2 0x4AFF JUMP JUMPDEST PUSH1 0x29 DUP3 ADD SWAP1 POP SWAP2 SWAP1 POP JUMP JUMPDEST PUSH32 0x22696D616765223A2022697066733A2F2F516D59584D4633364D34746E344C6D PUSH0 DUP3 ADD MSTORE PUSH32 0x7554576A617965626F625450737945727762673934717A4C415871644D477922 PUSH1 0x20 DUP3 ADD MSTORE PUSH32 0x2C00000000000000000000000000000000000000000000000000000000000000 PUSH1 0x40 DUP3 ADD MSTORE POP JUMP JUMPDEST PUSH0 PUSH2 0x4BEF PUSH1 0x41 DUP4 PUSH2 0x4AAB JUMP JUMPDEST SWAP2 POP PUSH2 0x4BFA DUP3 PUSH2 0x4B6F JUMP JUMPDEST PUSH1 0x41 DUP3 ADD SWAP1 POP SWAP2 SWAP1 POP JUMP JUMPDEST PUSH32 0x2261747472696275746573223A205B0000000000000000000000000000000000 PUSH0 DUP3 ADD MSTORE POP JUMP JUMPDEST PUSH0 PUSH2 0x4C39 PUSH1 0xF DUP4 PUSH2 0x4AAB JUMP JUMPDEST SWAP2 POP PUSH2 0x4C44 DUP3 PUSH2 0x4C05 JUMP JUMPDEST PUSH1 0xF DUP3 ADD SWAP1 POP SWAP2 SWAP1 POP JUMP JUMPDEST PUSH32 0x7B2274726169745F74797065223A20224C6F636174696F6E222C2276616C7565 PUSH0 DUP3 ADD MSTORE PUSH32 0x223A202200000000000000000000000000000000000000000000000000000000 PUSH1 0x20 DUP3 ADD MSTORE POP JUMP JUMPDEST PUSH0 PUSH2 0x4CA9 PUSH1 0x24 DUP4 PUSH2 0x4AAB JUMP JUMPDEST SWAP2 POP PUSH2 0x4CB4 DUP3 PUSH2 0x4C4F JUMP JUMPDEST PUSH1 0x24 DUP3 ADD SWAP1 POP SWAP2 SWAP1 POP JUMP JUMPDEST PUSH0 DUP2 SWAP1 POP DUP2 PUSH0 MSTORE PUSH1 0x20 PUSH0 KECCAK256 SWAP1 POP SWAP2 SWAP1 POP JUMP JUMPDEST PUSH0 DUP2 SLOAD PUSH2 0x4CDD DUP2 PUSH2 0x443A JUMP JUMPDEST PUSH2 0x4CE7 DUP2 DUP7 PUSH2 0x4AAB JUMP JUMPDEST SWAP5 POP PUSH1 0x1 DUP3 AND PUSH0 DUP2 EQ PUSH2 0x4D01 JUMPI PUSH1 0x1 DUP2 EQ PUSH2 0x4D16 JUMPI PUSH2 0x4D48 JUMP JUMPDEST PUSH1 0xFF NOT DUP4 AND DUP7 MSTORE DUP2 ISZERO ISZERO DUP3 MUL DUP7 ADD SWAP4 POP PUSH2 0x4D48 JUMP JUMPDEST PUSH2 0x4D1F DUP6 PUSH2 0x4CBF JUMP JUMPDEST PUSH0 JUMPDEST DUP4 DUP2 LT ISZERO PUSH2 0x4D40 JUMPI DUP2 SLOAD DUP2 DUP10 ADD MSTORE PUSH1 0x1 DUP3 ADD SWAP2 POP PUSH1 0x20 DUP2 ADD SWAP1 POP PUSH2 0x4D21 JUMP JUMPDEST DUP4 DUP9 ADD SWAP6 POP POP POP JUMPDEST POP POP POP SWAP3 SWAP2 POP POP JUMP JUMPDEST PUSH32 0x227D2C0000000000000000000000000000000000000000000000000000000000 PUSH0 DUP3 ADD MSTORE POP JUMP JUMPDEST PUSH0 PUSH2 0x4D85 PUSH1 0x3 DUP4 PUSH2 0x4AAB JUMP JUMPDEST SWAP2 POP PUSH2 0x4D90 DUP3 PUSH2 0x4D51 JUMP JUMPDEST PUSH1 0x3 DUP3 ADD SWAP1 POP SWAP2 SWAP1 POP JUMP JUMPDEST PUSH32 0x7B2274726169745F74797065223A20224C6F742053697A65222C2276616C7565 PUSH0 DUP3 ADD MSTORE PUSH32 0x223A200000000000000000000000000000000000000000000000000000000000 PUSH1 0x20 DUP3 ADD MSTORE POP JUMP JUMPDEST PUSH0 PUSH2 0x4DF5 PUSH1 0x23 DUP4 PUSH2 0x4AAB JUMP JUMPDEST SWAP2 POP PUSH2 0x4E00 DUP3 PUSH2 0x4D9B JUMP JUMPDEST PUSH1 0x23 DUP3 ADD SWAP1 POP SWAP2 SWAP1 POP JUMP JUMPDEST PUSH0 PUSH2 0x4E15 DUP3 PUSH2 0x3BED JUMP JUMPDEST PUSH2 0x4E1F DUP2 DUP6 PUSH2 0x4AAB JUMP JUMPDEST SWAP4 POP PUSH2 0x4E2F DUP2 DUP6 PUSH1 0x20 DUP7 ADD PUSH2 0x3C07 JUMP JUMPDEST DUP1 DUP5 ADD SWAP2 POP POP SWAP3 SWAP2 POP POP JUMP JUMPDEST PUSH32 0x7D2C000000000000000000000000000000000000000000000000000000000000 PUSH0 DUP3 ADD MSTORE POP JUMP JUMPDEST PUSH0 PUSH2 0x4E6F PUSH1 0x2 DUP4 PUSH2 0x4AAB JUMP JUMPDEST SWAP2 POP PUSH2 0x4E7A DUP3 PUSH2 0x4E3B JUMP JUMPDEST PUSH1 0x2 DUP3 ADD SWAP1 POP SWAP2 SWAP1 POP JUMP JUMPDEST PUSH32 0x7B2274726169745F74797065223A2022546F74616C205072696365222C227661 PUSH0 DUP3 ADD MSTORE PUSH32 0x6C7565223A200000000000000000000000000000000000000000000000000000 PUSH1 0x20 DUP3 ADD MSTORE POP JUMP JUMPDEST PUSH0 PUSH2 0x4EDF PUSH1 0x26 DUP4 PUSH2 0x4AAB JUMP JUMPDEST SWAP2 POP PUSH2 0x4EEA DUP3 PUSH2 0x4E85 JUMP JUMPDEST PUSH1 0x26 DUP3 ADD SWAP1 POP SWAP2 SWAP1 POP JUMP JUMPDEST PUSH32 0x7B2274726169745F74797065223A20225461782041737365737365642056616C PUSH0 DUP3 ADD MSTORE PUSH32 0x7565222C2276616C7565223A2000000000000000000000000000000000000000 PUSH1 0x20 DUP3 ADD MSTORE POP JUMP JUMPDEST PUSH0 PUSH2 0x4F4F PUSH1 0x2D DUP4 PUSH2 0x4AAB JUMP JUMPDEST SWAP2 POP PUSH2 0x4F5A DUP3 PUSH2 0x4EF5 JUMP JUMPDEST PUSH1 0x2D DUP3 ADD SWAP1 POP SWAP2 SWAP1 POP JUMP JUMPDEST PUSH32 0x7D00000000000000000000000000000000000000000000000000000000000000 PUSH0 DUP3 ADD MSTORE POP JUMP JUMPDEST PUSH0 PUSH2 0x4F99 PUSH1 0x1 DUP4 PUSH2 0x4AAB JUMP JUMPDEST SWAP2 POP PUSH2 0x4FA4 DUP3 PUSH2 0x4F65 JUMP JUMPDEST PUSH1 0x1 DUP3 ADD SWAP1 POP SWAP2 SWAP1 POP JUMP JUMPDEST PUSH32 0x5D7D000000000000000000000000000000000000000000000000000000000000 PUSH0 DUP3 ADD MSTORE POP JUMP JUMPDEST PUSH0 PUSH2 0x4FE3 PUSH1 0x2 DUP4 PUSH2 0x4AAB JUMP JUMPDEST SWAP2 POP PUSH2 0x4FEE DUP3 PUSH2 0x4FAF JUMP JUMPDEST PUSH1 0x2 DUP3 ADD SWAP1 POP SWAP2 SWAP1 POP JUMP JUMPDEST PUSH0 PUSH2 0x5003 DUP3 PUSH2 0x4ADD JUMP JUMPDEST SWAP2 POP PUSH2 0x500E DUP3 PUSH2 0x4B4D JUMP JUMPDEST SWAP2 POP PUSH2 0x5019 DUP3 PUSH2 0x4BE3 JUMP JUMPDEST SWAP2 POP PUSH2 0x5024 DUP3 PUSH2 0x4C2D JUMP JUMPDEST SWAP2 POP PUSH2 0x502F DUP3 PUSH2 0x4C9D JUMP JUMPDEST SWAP2 POP PUSH2 0x503B DUP3 DUP8 PUSH2 0x4CD1 JUMP JUMPDEST SWAP2 POP PUSH2 0x5046 DUP3 PUSH2 0x4D79 JUMP JUMPDEST SWAP2 POP PUSH2 0x5051 DUP3 PUSH2 0x4DE9 JUMP JUMPDEST SWAP2 POP PUSH2 0x505D DUP3 DUP7 PUSH2 0x4E0B JUMP JUMPDEST SWAP2 POP PUSH2 0x5068 DUP3 PUSH2 0x4E63 JUMP JUMPDEST SWAP2 POP PUSH2 0x5073 DUP3 PUSH2 0x4ED3 JUMP JUMPDEST SWAP2 POP PUSH2 0x507F DUP3 DUP6 PUSH2 0x4E0B JUMP JUMPDEST SWAP2 POP PUSH2 0x508A DUP3 PUSH2 0x4E63 JUMP JUMPDEST SWAP2 POP PUSH2 0x5095 DUP3 PUSH2 0x4F43 JUMP JUMPDEST SWAP2 POP PUSH2 0x50A1 DUP3 DUP5 PUSH2 0x4E0B JUMP JUMPDEST SWAP2 POP PUSH2 0x50AC DUP3 PUSH2 0x4F8D JUMP JUMPDEST SWAP2 POP PUSH2 0x50B7 DUP3 PUSH2 0x4FD7 JUMP JUMPDEST SWAP2 POP DUP2 SWAP1 POP SWAP6 SWAP5 POP POP POP POP POP JUMP JUMPDEST PUSH32 0x646174613A6170706C69636174696F6E2F6A736F6E3B6261736536342C000000 PUSH0 DUP3 ADD MSTORE POP JUMP JUMPDEST PUSH0 PUSH2 0x50F9 PUSH1 0x1D DUP4 PUSH2 0x4AAB JUMP JUMPDEST SWAP2 POP PUSH2 0x5104 DUP3 PUSH2 0x50C5 JUMP JUMPDEST PUSH1 0x1D DUP3 ADD SWAP1 POP SWAP2 SWAP1 POP JUMP JUMPDEST PUSH0 PUSH2 0x5119 DUP3 PUSH2 0x50ED JUMP JUMPDEST SWAP2 POP PUSH2 0x5125 DUP3 DUP5 PUSH2 0x4E0B JUMP JUMPDEST SWAP2 POP DUP2 SWAP1 POP SWAP3 SWAP2 POP POP JUMP JUMPDEST PUSH0 PUSH2 0x513B DUP3 DUP6 PUSH2 0x4E0B JUMP JUMPDEST SWAP2 POP PUSH2 0x5147 DUP3 DUP5 PUSH2 0x4E0B JUMP JUMPDEST SWAP2 POP DUP2 SWAP1 POP SWAP4 SWAP3 POP POP POP JUMP JUMPDEST PUSH0 PUSH1 0xFF DUP3 AND SWAP1 POP SWAP2 SWAP1 POP JUMP JUMPDEST PUSH0 PUSH2 0x5169 DUP3 PUSH2 0x5153 JUMP JUMPDEST SWAP2 POP PUSH2 0x5174 DUP4 PUSH2 0x5153 JUMP JUMPDEST SWAP3 POP DUP3 DUP3 ADD SWAP1 POP PUSH1 0xFF DUP2 GT ISZERO PUSH2 0x518D JUMPI PUSH2 0x518C PUSH2 0x46CD JUMP JUMPDEST JUMPDEST SWAP3 SWAP2 POP POP JUMP JUMPDEST PUSH0 PUSH1 0x20 PUSH1 0x1F DUP4 ADD DIV SWAP1 POP SWAP2 SWAP1 POP JUMP JUMPDEST PUSH0 DUP3 DUP3 SHL SWAP1 POP SWAP3 SWAP2 POP POP JUMP JUMPDEST PUSH0 PUSH1 0x8 DUP4 MUL PUSH2 0x51DD PUSH32 0xFFFFFFFFFFFFFFFFFFFFFFFFFFFFFFFFFFFFFFFFFFFFFFFFFFFFFFFFFFFFFFFF DUP3 PUSH2 0x51A2 JUMP JUMPDEST PUSH2 0x51E7 DUP7 DUP4 PUSH2 0x51A2 JUMP JUMPDEST SWAP6 POP DUP1 NOT DUP5 AND SWAP4 POP DUP1 DUP7 AND DUP5 OR SWAP3 POP POP POP SWAP4 SWAP3 POP POP POP JUMP JUMPDEST PUSH0 PUSH2 0x5219 PUSH2 0x5214 PUSH2 0x520F DUP5 PUSH2 0x3C97 JUMP JUMPDEST PUSH2 0x3D93 JUMP JUMPDEST PUSH2 0x3C97 JUMP JUMPDEST SWAP1 POP SWAP2 SWAP1 POP JUMP JUMPDEST PUSH0 DUP2 SWAP1 POP SWAP2 SWAP1 POP JUMP JUMPDEST PUSH2 0x5232 DUP4 PUSH2 0x51FF JUMP JUMPDEST PUSH2 0x5246 PUSH2 0x523E DUP3 PUSH2 0x5220 JUMP JUMPDEST DUP5 DUP5 SLOAD PUSH2 0x51AE JUMP JUMPDEST DUP3 SSTORE POP POP POP POP JUMP JUMPDEST PUSH0 SWAP1 JUMP JUMPDEST PUSH2 0x525A PUSH2 0x524E JUMP JUMPDEST PUSH2 0x5265 DUP2 DUP5 DUP5 PUSH2 0x5229 JUMP JUMPDEST POP POP POP JUMP JUMPDEST JUMPDEST DUP2 DUP2 LT ISZERO PUSH2 0x5288 JUMPI PUSH2 0x527D PUSH0 DUP3 PUSH2 0x5252 JUMP JUMPDEST PUSH1 0x1 DUP2 ADD SWAP1 POP PUSH2 0x526B JUMP JUMPDEST POP POP JUMP JUMPDEST PUSH1 0x1F DUP3 GT ISZERO PUSH2 0x52CD JUMPI PUSH2 0x529E DUP2 PUSH2 0x4CBF JUMP JUMPDEST PUSH2 0x52A7 DUP5 PUSH2 0x5193 JUMP JUMPDEST DUP2 ADD PUSH1 0x20 DUP6 LT ISZERO PUSH2 0x52B6 JUMPI DUP2 SWAP1 POP JUMPDEST PUSH2 0x52CA PUSH2 0x52C2 DUP6 PUSH2 0x5193 JUMP JUMPDEST DUP4 ADD DUP3 PUSH2 0x526A JUMP JUMPDEST POP POP JUMPDEST POP POP POP JUMP JUMPDEST PUSH0 DUP3 DUP3 SHR SWAP1 POP SWAP3 SWAP2 POP POP JUMP JUMPDEST PUSH0 PUSH2 0x52ED PUSH0 NOT DUP5 PUSH1 0x8 MUL PUSH2 0x52D2 JUMP JUMPDEST NOT DUP1 DUP4 AND SWAP2 POP POP SWAP3 SWAP2 POP POP JUMP JUMPDEST PUSH0 PUSH2 0x5305 DUP4 DUP4 PUSH2 0x52DE JUMP JUMPDEST SWAP2 POP DUP3 PUSH1 0x2 MUL DUP3 OR SWAP1 POP SWAP3 SWAP2 POP POP JUMP JUMPDEST PUSH2 0x531E DUP3 PUSH2 0x3BED JUMP JUMPDEST PUSH8 0xFFFFFFFFFFFFFFFF DUP2 GT ISZERO PUSH2 0x5337 JUMPI PUSH2 0x5336 PUSH2 0x40A6 JUMP JUMPDEST JUMPDEST PUSH2 0x5341 DUP3 SLOAD PUSH2 0x443A JUMP JUMPDEST PUSH2 0x534C DUP3 DUP3 DUP6 PUSH2 0x528C JUMP JUMPDEST PUSH0 PUSH1 0x20 SWAP1 POP PUSH1 0x1F DUP4 GT PUSH1 0x1 DUP2 EQ PUSH2 0x537D JUMPI PUSH0 DUP5 ISZERO PUSH2 0x536B JUMPI DUP3 DUP8 ADD MLOAD SWAP1 POP JUMPDEST PUSH2 0x5375 DUP6 DUP3 PUSH2 0x52FA JUMP JUMPDEST DUP7 SSTORE POP PUSH2 0x53DC JUMP JUMPDEST PUSH1 0x1F NOT DUP5 AND PUSH2 0x538B DUP7 PUSH2 0x4CBF JUMP JUMPDEST PUSH0 JUMPDEST DUP3 DUP2 LT ISZERO PUSH2 0x53B2 JUMPI DUP5 DUP10 ADD MLOAD DUP3 SSTORE PUSH1 0x1 DUP3 ADD SWAP2 POP PUSH1 0x20 DUP6 ADD SWAP5 POP PUSH1 0x20 DUP2 ADD SWAP1 POP PUSH2 0x538D JUMP JUMPDEST DUP7 DUP4 LT ISZERO PUSH2 0x53CF JUMPI DUP5 DUP10 ADD MLOAD PUSH2 0x53CB PUSH1 0x1F DUP10 AND DUP3 PUSH2 0x52DE JUMP JUMPDEST DUP4 SSTORE POP JUMPDEST PUSH1 0x1 PUSH1 0x2 DUP9 MUL ADD DUP9 SSTORE POP POP POP JUMPDEST POP POP POP POP POP POP JUMP JUMPDEST PUSH0 DUP2 MLOAD SWAP1 POP SWAP2 SWAP1 POP JUMP JUMPDEST PUSH0 DUP3 DUP3 MSTORE PUSH1 0x20 DUP3 ADD SWAP1 POP SWAP3 SWAP2 POP POP JUMP JUMPDEST PUSH0 PUSH2 0x5408 DUP3 PUSH2 0x53E4 JUMP JUMPDEST PUSH2 0x5412 DUP2 DUP6 PUSH2 0x53EE JUMP JUMPDEST SWAP4 POP PUSH2 0x5422 DUP2 DUP6 PUSH1 0x20 DUP7 ADD PUSH2 0x3C07 JUMP JUMPDEST PUSH2 0x542B DUP2 PUSH2 0x3C2F JUMP JUMPDEST DUP5 ADD SWAP2 POP POP SWAP3 SWAP2 POP POP JUMP JUMPDEST PUSH0 PUSH1 0x80 DUP3 ADD SWAP1 POP PUSH2 0x5449 PUSH0 DUP4 ADD DUP8 PUSH2 0x3BC5 JUMP JUMPDEST PUSH2 0x5456 PUSH1 0x20 DUP4 ADD DUP7 PUSH2 0x3BC5 JUMP JUMPDEST PUSH2 0x5463 PUSH1 0x40 DUP4 ADD DUP6 PUSH2 0x3D5D JUMP JUMPDEST DUP2 DUP2 SUB PUSH1 0x60 DUP4 ADD MSTORE PUSH2 0x5475 DUP2 DUP5 PUSH2 0x53FE JUMP JUMPDEST SWAP1 POP SWAP6 SWAP5 POP POP POP POP POP JUMP JUMPDEST PUSH0 DUP2 MLOAD SWAP1 POP PUSH2 0x548E DUP2 PUSH2 0x3B0D JUMP JUMPDEST SWAP3 SWAP2 POP POP JUMP JUMPDEST PUSH0 PUSH1 0x20 DUP3 DUP5 SUB SLT ISZERO PUSH2 0x54A9 JUMPI PUSH2 0x54A8 PUSH2 0x3ADA JUMP JUMPDEST JUMPDEST PUSH0 PUSH2 0x54B6 DUP5 DUP3 DUP6 ADD PUSH2 0x5480 JUMP JUMPDEST SWAP2 POP POP SWAP3 SWAP2 POP POP JUMP INVALID COINBASE TIMESTAMP NUMBER PREVRANDAO GASLIMIT CHAINID SELFBALANCE BASEFEE 0x49 0x4A 0x4B 0x4C 0x4D 0x4E 0x4F POP MLOAD MSTORE MSTORE8 SLOAD SSTORE JUMP JUMPI PC MSIZE GAS PUSH2 0x6263 PUSH5 0x6566676869 PUSH11 0x6B6C6D6E6F707172737475 PUSH23 0x7778797A303132333435363738392B2FA2646970667358 0x22 SLT KECCAK256 0xE 0xE8 0xCA BALANCE 0xA6 SELFBALANCE 0x5D EXTCODECOPY MLOAD 0xB6 0xCF JUMPDEST DUP12 DUP3 SWAP2 CALLDATASIZE RETURN 0xB9 0x28 AND PUSH8 0x355C9B8D80C78965 0xE0 0xCE 0xC0 PUSH5 0x736F6C6343 STOP ADDMOD EQ STOP CALLER CALLDATASIZE ORIGIN CODECOPY KECCAK256 BASEFEE COINBASE MSTORE 0x4C GASLIMIT 0x4D KECCAK256 COINBASE JUMP GASLIMIT KECCAK256 0x23 KECCAK256 BALANCE 0x2C KECCAK256 CHAINID 0x4F MSTORE GASLIMIT MSTORE8 SLOAD KECCAK256 POP COINBASE MSTORE 0x4B 0x2C KECCAK256 0x49 0x4C KECCAK256 CALLDATASIZE ADDRESS BALANCE CALLER ADDRESS "
		},
		"gasEstimates": {
			"creation": {
				"codeDepositCost": "4362600",
				"executionCost": "infinite",
				"totalCost": "infinite"
			},
			"external": {
				"approve(address,uint256)": "infinite",
				"availableTokens()": "infinite",
				"balanceOf(address)": "infinite",
				"blacklistedAddresses(uint256)": "5033",
				"buyTokens(uint256)": "infinite",
				"distributeRentIncome()": "infinite",
				"getApproved(uint256)": "infinite",
				"getInvestors()": "infinite",
				"getPropertyDetails()": "infinite",
				"getTokenOwners()": "infinite",
				"investors(uint256)": "infinite",
				"isApprovedForAll(address,address)": "infinite",
				"isBlacklisted(address)": "infinite",
				"isInvestor(address)": "infinite",
				"isWhitelisted(address)": "infinite",
				"issueTokens(uint256,uint256)": "infinite",
				"issuedTokens()": "2470",
				"mosaicAccount()": "442",
				"name()": "infinite",
				"owner()": "2649",
				"ownerOf(uint256)": "infinite",
				"property()": "infinite",
				"propertyTokenized()": "2578",
				"propertyValuation()": "2559",
				"renounceOwnership()": "infinite",
				"rentPayments(uint256)": "infinite",
				"safeTransferFrom(address,address,uint256)": "infinite",
				"safeTransferFrom(address,address,uint256,bytes)": "infinite",
				"setApprovalForAll(address,bool)": "infinite",
				"soldTokens(uint256)": "2896",
				"supportsInterface(bytes4)": "904",
				"symbol()": "infinite",
				"tokenOwnership(address)": "2847",
				"tokenPrice()": "2537",
				"tokenURI(uint256)": "infinite",
				"totalTokens()": "2515",
				"transferFrom(address,address,uint256)": "infinite",
				"transferOwnership(address)": "infinite",
				"updateTokenPrice(uint256)": "infinite",
				"usdcToken()": "infinite",
				"whitelistedAddresses(uint256)": "5033"
			},
			"internal": {
				"uint2str(uint256)": "infinite"
			}
		},
		"methodIdentifiers": {
			"approve(address,uint256)": "095ea7b3",
			"availableTokens()": "69bb4dc2",
			"balanceOf(address)": "70a08231",
			"blacklistedAddresses(uint256)": "a7a8c359",
			"buyTokens(uint256)": "3610724e",
			"distributeRentIncome()": "c9c2783f",
			"getApproved(uint256)": "081812fc",
			"getInvestors()": "b2f5a54c",
			"getPropertyDetails()": "d81bc271",
			"getTokenOwners()": "d1b02ba7",
			"investors(uint256)": "3feb5f2b",
			"isApprovedForAll(address,address)": "e985e9c5",
			"isBlacklisted(address)": "fe575a87",
			"isInvestor(address)": "cee2a9cf",
			"isWhitelisted(address)": "3af32abf",
			"issueTokens(uint256,uint256)": "54e35ba2",
			"issuedTokens()": "b534b5b7",
			"mosaicAccount()": "06a1c6a2",
			"name()": "06fdde03",
			"owner()": "8da5cb5b",
			"ownerOf(uint256)": "6352211e",
			"property()": "176fd3f0",
			"propertyTokenized()": "192ddae5",
			"propertyValuation()": "1f62f309",
			"renounceOwnership()": "715018a6",
			"rentPayments(uint256)": "1120fd03",
			"safeTransferFrom(address,address,uint256)": "42842e0e",
			"safeTransferFrom(address,address,uint256,bytes)": "b88d4fde",
			"setApprovalForAll(address,bool)": "a22cb465",
			"soldTokens(uint256)": "ad9ab857",
			"supportsInterface(bytes4)": "01ffc9a7",
			"symbol()": "95d89b41",
			"tokenOwnership(address)": "486fc7e8",
			"tokenPrice()": "7ff9b596",
			"tokenURI(uint256)": "c87b56dd",
			"totalTokens()": "7e1c0c09",
			"transferFrom(address,address,uint256)": "23b872dd",
			"transferOwnership(address)": "f2fde38b",
			"updateTokenPrice(uint256)": "676c0d77",
			"usdcToken()": "11eac855",
			"whitelistedAddresses(uint256)": "ba4e5c49"
		}
	},
	"abi": [
		{
			"inputs": [
				{
					"internalType": "address",
					"name": "_usdcToken",
					"type": "address"
				}
			],
			"stateMutability": "nonpayable",
			"type": "constructor"
		},
		{
			"inputs": [
				{
					"internalType": "address",
					"name": "sender",
					"type": "address"
				},
				{
					"internalType": "uint256",
					"name": "tokenId",
					"type": "uint256"
				},
				{
					"internalType": "address",
					"name": "owner",
					"type": "address"
				}
			],
			"name": "ERC721IncorrectOwner",
			"type": "error"
		},
		{
			"inputs": [
				{
					"internalType": "address",
					"name": "operator",
					"type": "address"
				},
				{
					"internalType": "uint256",
					"name": "tokenId",
					"type": "uint256"
				}
			],
			"name": "ERC721InsufficientApproval",
			"type": "error"
		},
		{
			"inputs": [
				{
					"internalType": "address",
					"name": "approver",
					"type": "address"
				}
			],
			"name": "ERC721InvalidApprover",
			"type": "error"
		},
		{
			"inputs": [
				{
					"internalType": "address",
					"name": "operator",
					"type": "address"
				}
			],
			"name": "ERC721InvalidOperator",
			"type": "error"
		},
		{
			"inputs": [
				{
					"internalType": "address",
					"name": "owner",
					"type": "address"
				}
			],
			"name": "ERC721InvalidOwner",
			"type": "error"
		},
		{
			"inputs": [
				{
					"internalType": "address",
					"name": "receiver",
					"type": "address"
				}
			],
			"name": "ERC721InvalidReceiver",
			"type": "error"
		},
		{
			"inputs": [
				{
					"internalType": "address",
					"name": "sender",
					"type": "address"
				}
			],
			"name": "ERC721InvalidSender",
			"type": "error"
		},
		{
			"inputs": [
				{
					"internalType": "uint256",
					"name": "tokenId",
					"type": "uint256"
				}
			],
			"name": "ERC721NonexistentToken",
			"type": "error"
		},
		{
			"inputs": [
				{
					"internalType": "address",
					"name": "owner",
					"type": "address"
				}
			],
			"name": "OwnableInvalidOwner",
			"type": "error"
		},
		{
			"inputs": [
				{
					"internalType": "address",
					"name": "account",
					"type": "address"
				}
			],
			"name": "OwnableUnauthorizedAccount",
			"type": "error"
		},
		{
			"anonymous": false,
			"inputs": [
				{
					"indexed": true,
					"internalType": "address",
					"name": "owner",
					"type": "address"
				},
				{
					"indexed": true,
					"internalType": "address",
					"name": "approved",
					"type": "address"
				},
				{
					"indexed": true,
					"internalType": "uint256",
					"name": "tokenId",
					"type": "uint256"
				}
			],
			"name": "Approval",
			"type": "event"
		},
		{
			"anonymous": false,
			"inputs": [
				{
					"indexed": true,
					"internalType": "address",
					"name": "owner",
					"type": "address"
				},
				{
					"indexed": true,
					"internalType": "address",
					"name": "operator",
					"type": "address"
				},
				{
					"indexed": false,
					"internalType": "bool",
					"name": "approved",
					"type": "bool"
				}
			],
			"name": "ApprovalForAll",
			"type": "event"
		},
		{
			"anonymous": false,
			"inputs": [
				{
					"indexed": false,
					"internalType": "uint256",
					"name": "_fromTokenId",
					"type": "uint256"
				},
				{
					"indexed": false,
					"internalType": "uint256",
					"name": "_toTokenId",
					"type": "uint256"
				}
			],
			"name": "BatchMetadataUpdate",
			"type": "event"
		},
		{
			"anonymous": false,
			"inputs": [
				{
					"indexed": true,
					"internalType": "address",
					"name": "recipient",
					"type": "address"
				},
				{
					"indexed": false,
					"internalType": "uint256",
					"name": "amount",
					"type": "uint256"
				}
			],
			"name": "CommissionPaid",
			"type": "event"
		},
		{
			"anonymous": false,
			"inputs": [
				{
					"indexed": false,
					"internalType": "uint256",
					"name": "_tokenId",
					"type": "uint256"
				}
			],
			"name": "MetadataUpdate",
			"type": "event"
		},
		{
			"anonymous": false,
			"inputs": [
				{
					"indexed": true,
					"internalType": "address",
					"name": "previousOwner",
					"type": "address"
				},
				{
					"indexed": true,
					"internalType": "address",
					"name": "newOwner",
					"type": "address"
				}
			],
			"name": "OwnershipTransferred",
			"type": "event"
		},
		{
			"anonymous": false,
			"inputs": [
				{
					"indexed": true,
					"internalType": "address",
					"name": "recipient",
					"type": "address"
				},
				{
					"indexed": false,
					"internalType": "uint256",
					"name": "amount",
					"type": "uint256"
				}
			],
			"name": "PaymentReceived",
			"type": "event"
		},
		{
			"anonymous": false,
			"inputs": [
				{
					"indexed": true,
					"internalType": "address",
					"name": "recipient",
					"type": "address"
				},
				{
					"indexed": false,
					"internalType": "uint256",
					"name": "amount",
					"type": "uint256"
				}
			],
			"name": "Refund",
			"type": "event"
		},
		{
			"anonymous": false,
			"inputs": [
				{
					"indexed": true,
					"internalType": "address",
					"name": "recipient",
					"type": "address"
				},
				{
					"indexed": false,
					"internalType": "uint256",
					"name": "amount",
					"type": "uint256"
				}
			],
			"name": "RentPayment",
			"type": "event"
		},
		{
			"anonymous": false,
			"inputs": [
				{
					"indexed": true,
					"internalType": "address",
					"name": "buyer",
					"type": "address"
				},
				{
					"indexed": false,
					"internalType": "uint256",
					"name": "tokenId",
					"type": "uint256"
				},
				{
					"indexed": false,
					"internalType": "uint256",
					"name": "price",
					"type": "uint256"
				}
			],
			"name": "TokenPurchased",
			"type": "event"
		},
		{
			"anonymous": false,
			"inputs": [
				{
					"indexed": false,
					"internalType": "uint256",
					"name": "totalTokens",
					"type": "uint256"
				},
				{
					"indexed": false,
					"internalType": "uint256",
					"name": "tokenPrice",
					"type": "uint256"
				}
			],
			"name": "TokensIssued",
			"type": "event"
		},
		{
			"anonymous": false,
			"inputs": [
				{
					"indexed": true,
					"internalType": "address",
					"name": "from",
					"type": "address"
				},
				{
					"indexed": true,
					"internalType": "address",
					"name": "to",
					"type": "address"
				},
				{
					"indexed": true,
					"internalType": "uint256",
					"name": "tokenId",
					"type": "uint256"
				}
			],
			"name": "Transfer",
			"type": "event"
		},
		{
			"inputs": [
				{
					"internalType": "address",
					"name": "to",
					"type": "address"
				},
				{
					"internalType": "uint256",
					"name": "tokenId",
					"type": "uint256"
				}
			],
			"name": "approve",
			"outputs": [],
			"stateMutability": "nonpayable",
			"type": "function"
		},
		{
			"inputs": [],
			"name": "availableTokens",
			"outputs": [
				{
					"internalType": "uint256",
					"name": "",
					"type": "uint256"
				}
			],
			"stateMutability": "view",
			"type": "function"
		},
		{
			"inputs": [
				{
					"internalType": "address",
					"name": "owner",
					"type": "address"
				}
			],
			"name": "balanceOf",
			"outputs": [
				{
					"internalType": "uint256",
					"name": "",
					"type": "uint256"
				}
			],
			"stateMutability": "view",
			"type": "function"
		},
		{
			"inputs": [
				{
					"internalType": "uint256",
					"name": "",
					"type": "uint256"
				}
			],
			"name": "blacklistedAddresses",
			"outputs": [
				{
					"internalType": "address",
					"name": "",
					"type": "address"
				}
			],
			"stateMutability": "view",
			"type": "function"
		},
		{
			"inputs": [
				{
					"internalType": "uint256",
					"name": "_numTokens",
					"type": "uint256"
				}
			],
			"name": "buyTokens",
			"outputs": [],
			"stateMutability": "nonpayable",
			"type": "function"
		},
		{
			"inputs": [],
			"name": "distributeRentIncome",
			"outputs": [],
			"stateMutability": "nonpayable",
			"type": "function"
		},
		{
			"inputs": [
				{
					"internalType": "uint256",
					"name": "tokenId",
					"type": "uint256"
				}
			],
			"name": "getApproved",
			"outputs": [
				{
					"internalType": "address",
					"name": "",
					"type": "address"
				}
			],
			"stateMutability": "view",
			"type": "function"
		},
		{
			"inputs": [],
			"name": "getInvestors",
			"outputs": [
				{
					"components": [
						{
							"internalType": "address",
							"name": "investor",
							"type": "address"
						},
						{
							"internalType": "uint256",
							"name": "tokenCount",
							"type": "uint256"
						}
					],
					"internalType": "struct SecurePropertyToken.Investor[]",
					"name": "",
					"type": "tuple[]"
				}
			],
			"stateMutability": "view",
			"type": "function"
		},
		{
			"inputs": [],
			"name": "getPropertyDetails",
			"outputs": [
				{
					"internalType": "string",
					"name": "location",
					"type": "string"
				},
				{
					"internalType": "uint256",
					"name": "lotSize",
					"type": "uint256"
				},
				{
					"internalType": "uint256",
					"name": "totalPrice",
					"type": "uint256"
				},
				{
					"internalType": "uint256",
					"name": "taxAssessedValue",
					"type": "uint256"
				}
			],
			"stateMutability": "view",
			"type": "function"
		},
		{
			"inputs": [],
			"name": "getTokenOwners",
			"outputs": [
				{
					"internalType": "address[]",
					"name": "owners",
					"type": "address[]"
				},
				{
					"internalType": "uint256[]",
					"name": "tokenIds",
					"type": "uint256[]"
				}
			],
			"stateMutability": "view",
			"type": "function"
		},
		{
			"inputs": [
				{
					"internalType": "uint256",
					"name": "",
					"type": "uint256"
				}
			],
			"name": "investors",
			"outputs": [
				{
					"internalType": "address",
					"name": "investor",
					"type": "address"
				},
				{
					"internalType": "uint256",
					"name": "tokenCount",
					"type": "uint256"
				}
			],
			"stateMutability": "view",
			"type": "function"
		},
		{
			"inputs": [
				{
					"internalType": "address",
					"name": "owner",
					"type": "address"
				},
				{
					"internalType": "address",
					"name": "operator",
					"type": "address"
				}
			],
			"name": "isApprovedForAll",
			"outputs": [
				{
					"internalType": "bool",
					"name": "",
					"type": "bool"
				}
			],
			"stateMutability": "view",
			"type": "function"
		},
		{
			"inputs": [
				{
					"internalType": "address",
					"name": "_address",
					"type": "address"
				}
			],
			"name": "isBlacklisted",
			"outputs": [
				{
					"internalType": "bool",
					"name": "",
					"type": "bool"
				}
			],
			"stateMutability": "view",
			"type": "function"
		},
		{
			"inputs": [
				{
					"internalType": "address",
					"name": "_address",
					"type": "address"
				}
			],
			"name": "isInvestor",
			"outputs": [
				{
					"internalType": "bool",
					"name": "",
					"type": "bool"
				}
			],
			"stateMutability": "view",
			"type": "function"
		},
		{
			"inputs": [
				{
					"internalType": "address",
					"name": "_address",
					"type": "address"
				}
			],
			"name": "isWhitelisted",
			"outputs": [
				{
					"internalType": "bool",
					"name": "",
					"type": "bool"
				}
			],
			"stateMutability": "view",
			"type": "function"
		},
		{
			"inputs": [
				{
					"internalType": "uint256",
					"name": "_totalTokens",
					"type": "uint256"
				},
				{
					"internalType": "uint256",
					"name": "_tokenPrice",
					"type": "uint256"
				}
			],
			"name": "issueTokens",
			"outputs": [],
			"stateMutability": "nonpayable",
			"type": "function"
		},
		{
			"inputs": [],
			"name": "issuedTokens",
			"outputs": [
				{
					"internalType": "uint256",
					"name": "",
					"type": "uint256"
				}
			],
			"stateMutability": "view",
			"type": "function"
		},
		{
			"inputs": [],
			"name": "mosaicAccount",
			"outputs": [
				{
					"internalType": "address",
					"name": "",
					"type": "address"
				}
			],
			"stateMutability": "view",
			"type": "function"
		},
		{
			"inputs": [],
			"name": "name",
			"outputs": [
				{
					"internalType": "string",
					"name": "",
					"type": "string"
				}
			],
			"stateMutability": "view",
			"type": "function"
		},
		{
			"inputs": [],
			"name": "owner",
			"outputs": [
				{
					"internalType": "address",
					"name": "",
					"type": "address"
				}
			],
			"stateMutability": "view",
			"type": "function"
		},
		{
			"inputs": [
				{
					"internalType": "uint256",
					"name": "tokenId",
					"type": "uint256"
				}
			],
			"name": "ownerOf",
			"outputs": [
				{
					"internalType": "address",
					"name": "",
					"type": "address"
				}
			],
			"stateMutability": "view",
			"type": "function"
		},
		{
			"inputs": [],
			"name": "property",
			"outputs": [
				{
					"internalType": "string",
					"name": "location",
					"type": "string"
				},
				{
					"internalType": "uint256",
					"name": "lotSize",
					"type": "uint256"
				},
				{
					"internalType": "uint256",
					"name": "totalPrice",
					"type": "uint256"
				},
				{
					"internalType": "uint256",
					"name": "taxAssessedValue",
					"type": "uint256"
				}
			],
			"stateMutability": "view",
			"type": "function"
		},
		{
			"inputs": [],
			"name": "propertyTokenized",
			"outputs": [
				{
					"internalType": "bool",
					"name": "",
					"type": "bool"
				}
			],
			"stateMutability": "view",
			"type": "function"
		},
		{
			"inputs": [],
			"name": "propertyValuation",
			"outputs": [
				{
					"internalType": "uint256",
					"name": "",
					"type": "uint256"
				}
			],
			"stateMutability": "view",
			"type": "function"
		},
		{
			"inputs": [],
			"name": "renounceOwnership",
			"outputs": [],
			"stateMutability": "nonpayable",
			"type": "function"
		},
		{
			"inputs": [
				{
					"internalType": "uint256",
					"name": "",
					"type": "uint256"
				}
			],
			"name": "rentPayments",
			"outputs": [
				{
					"internalType": "address",
					"name": "recipient",
					"type": "address"
				},
				{
					"internalType": "uint256",
					"name": "amount",
					"type": "uint256"
				}
			],
			"stateMutability": "view",
			"type": "function"
		},
		{
			"inputs": [
				{
					"internalType": "address",
					"name": "from",
					"type": "address"
				},
				{
					"internalType": "address",
					"name": "to",
					"type": "address"
				},
				{
					"internalType": "uint256",
					"name": "tokenId",
					"type": "uint256"
				}
			],
			"name": "safeTransferFrom",
			"outputs": [],
			"stateMutability": "nonpayable",
			"type": "function"
		},
		{
			"inputs": [
				{
					"internalType": "address",
					"name": "from",
					"type": "address"
				},
				{
					"internalType": "address",
					"name": "to",
					"type": "address"
				},
				{
					"internalType": "uint256",
					"name": "tokenId",
					"type": "uint256"
				},
				{
					"internalType": "bytes",
					"name": "data",
					"type": "bytes"
				}
			],
			"name": "safeTransferFrom",
			"outputs": [],
			"stateMutability": "nonpayable",
			"type": "function"
		},
		{
			"inputs": [
				{
					"internalType": "address",
					"name": "operator",
					"type": "address"
				},
				{
					"internalType": "bool",
					"name": "approved",
					"type": "bool"
				}
			],
			"name": "setApprovalForAll",
			"outputs": [],
			"stateMutability": "nonpayable",
			"type": "function"
		},
		{
			"inputs": [
				{
					"internalType": "uint256",
					"name": "",
					"type": "uint256"
				}
			],
			"name": "soldTokens",
			"outputs": [
				{
					"internalType": "bool",
					"name": "",
					"type": "bool"
				}
			],
			"stateMutability": "view",
			"type": "function"
		},
		{
			"inputs": [
				{
					"internalType": "bytes4",
					"name": "interfaceId",
					"type": "bytes4"
				}
			],
			"name": "supportsInterface",
			"outputs": [
				{
					"internalType": "bool",
					"name": "",
					"type": "bool"
				}
			],
			"stateMutability": "view",
			"type": "function"
		},
		{
			"inputs": [],
			"name": "symbol",
			"outputs": [
				{
					"internalType": "string",
					"name": "",
					"type": "string"
				}
			],
			"stateMutability": "view",
			"type": "function"
		},
		{
			"inputs": [
				{
					"internalType": "address",
					"name": "",
					"type": "address"
				}
			],
			"name": "tokenOwnership",
			"outputs": [
				{
					"internalType": "uint256",
					"name": "",
					"type": "uint256"
				}
			],
			"stateMutability": "view",
			"type": "function"
		},
		{
			"inputs": [],
			"name": "tokenPrice",
			"outputs": [
				{
					"internalType": "uint256",
					"name": "",
					"type": "uint256"
				}
			],
			"stateMutability": "view",
			"type": "function"
		},
		{
			"inputs": [
				{
					"internalType": "uint256",
					"name": "tokenId",
					"type": "uint256"
				}
			],
			"name": "tokenURI",
			"outputs": [
				{
					"internalType": "string",
					"name": "",
					"type": "string"
				}
			],
			"stateMutability": "view",
			"type": "function"
		},
		{
			"inputs": [],
			"name": "totalTokens",
			"outputs": [
				{
					"internalType": "uint256",
					"name": "",
					"type": "uint256"
				}
			],
			"stateMutability": "view",
			"type": "function"
		},
		{
			"inputs": [
				{
					"internalType": "address",
					"name": "from",
					"type": "address"
				},
				{
					"internalType": "address",
					"name": "to",
					"type": "address"
				},
				{
					"internalType": "uint256",
					"name": "tokenId",
					"type": "uint256"
				}
			],
			"name": "transferFrom",
			"outputs": [],
			"stateMutability": "nonpayable",
			"type": "function"
		},
		{
			"inputs": [
				{
					"internalType": "address",
					"name": "newOwner",
					"type": "address"
				}
			],
			"name": "transferOwnership",
			"outputs": [],
			"stateMutability": "nonpayable",
			"type": "function"
		},
		{
			"inputs": [
				{
					"internalType": "uint256",
					"name": "_tokenPrice",
					"type": "uint256"
				}
			],
			"name": "updateTokenPrice",
			"outputs": [],
			"stateMutability": "nonpayable",
			"type": "function"
		},
		{
			"inputs": [],
			"name": "usdcToken",
			"outputs": [
				{
					"internalType": "contract IERC20",
					"name": "",
					"type": "address"
				}
			],
			"stateMutability": "view",
			"type": "function"
		},
		{
			"inputs": [
				{
					"internalType": "uint256",
					"name": "",
					"type": "uint256"
				}
			],
			"name": "whitelistedAddresses",
			"outputs": [
				{
					"internalType": "address",
					"name": "",
					"type": "address"
				}
			],
			"stateMutability": "view",
			"type": "function"
		}
	]
}